:020000040003F7
:10800000E0580020D5830300DD830300DF830300F5
:10801000E1830300E3830300E58303000000000025
:10802000000000000000000000000000C183030009
:10803000E983030000000000EB830300ED830300ED
:10804000EF830300EF830300EF830300EF8303005C
:10805000EF83030000000000EF8303000000000036
:10806000EF830300EF830300EF830300EF8303003C
:10807000EF830300EF830300EF830300EF8303002C
:108080000D99030029970300EF830300EF8303009A
:10809000EF830300EF8303009D970300EF8303004A
:1080A000EF830300EF830300EF8303000000000071
:1080B00000000000000000000000000000000000C0
:1080C00000000000000000000000000000000000B0
:1080D000000000000000000000000000EF8303002B
:1080E0000000000000000000000000000000000090
:1080F0000000000000000000000000000000000080
:10810000000000000000000000000000000000006F
:10811000000000000000000000000000000000005F
:10812000000000000000000000000000000000004F
:10813000000000000000000000000000000000003F
:10814000000000000000000000000000000000002F
:10815000000000000000000000000000000000001F
:10816000000000000000000000000000000000000F
:1081700000000000000000000000000000000000FF
:1081800000000000000000000000000000000000EF
:1081900000000000000000000000000000000000DF
:1081A00000000000000000000000000000000000CF
:1081B00000000000000000000000000000000000BF
:1081C00000000000000000000000000000000000AF
:1081D000000000000000000000000000000000009F
:1081E000000000000000000000000000000000008F
:1081F000000000000000000000000000000000007F
:10820000DFF80CD000F038F90048004705A903005A
:10821000E058002030B450E8012F93B2C4892344C1
:108220008489A34228BF1B1B0489A34202BFBFF35A
:108230002F8F002007E0C3EA020340E80134002C3E
:10824000E9D14FF001000A6030BC704750E8012FBF
:10825000C2EA024240E801210029F7D1704730B458
:1082600050E8022F1FFAA2F3C488A34202BFBFF353
:108270002F8F00200DE0C48923448489A34228BFA6
:108280001B1BC2EA034340E80234002CE8D14FF044
:1082900001000A6030BC704750E8022FC2EA224257
:1082A00040E802210029F7D17047034653E8022F26
:1082B000D988B2EB324F4FF0000017BF92B241EABB
:1082C000014142EA014104E05A68B2EB324F08BF73
:1082D000012043E80212002AE8D1704730B4044676
:1082E00054E8000F0D4644E80053002BF8D1156008
:1082F00030BC704730B4044654E8000F40EA010532
:1083000044E80053002BF7D1156030BC704730B4FF
:10831000044654E8000F00EA010544E80053002B2E
:10832000F7D1156030BC704730B4044654E8000FF4
:1083300080EA010544E80053002BF7D1156030BCFA
:10834000704730B4044654E8000F00EB010544E8E0
:108350000053002BF7D1156030BC704730B4044691
:1083600054E8000FA0EB010544E80053002BF7D1BF
:10837000156030BC704770B404464FF0000054E8FC
:10838000006F0D68AE4207BF44E80023012044E8B7
:1083900000630E60002B1CBF0020F0E770BC70472C
:1083A00030B4044654E8000F88422CBF451A0546F5
:1083B00044E80053002BF5D1156030BC7047000035
:1083C0001EF0040F0CBFEFF30880EFF3098003F0F9
:1083D000D5BD00000648804706480047FEE7FEE797
:1083E000FEE7FEE7FEE7FEE7FEE7FEE7FEE7FEE765
:1083F000A197030001820300202A04DB203A00FA3F
:1084000002F1002070479140C2F1200320FA03F3EB
:1084100019439040704740EA01039B0703D009E0ED
:1084200008C9121F08C0042AFAD203E011F8013B60
:1084300000F8013B521EF9D27047D2B201E000F8B9
:10844000012B491EFBD270470022F6E710B51346F8
:108450000A4604461946FFF7F0FF204610BD30B526
:1084600004460020034600E05B1C934203D2E05C1C
:10847000CD5C401BF8D030BD064C074D06E0E068EF
:1084800040F0010394E8070098471034AC42F6D35B
:10849000FFF7BAFE4CDD03006CDD03002DE9F0436D
:1084A0008BB08046129D15F9046B009614461F464A
:1084B00089462B4602A81146424600F0BAFC02A8A3
:1084C0000146129A00F0A5FC4046414602AA129BC2
:1084D00000F08FFC2046214602AA129B00F089FC86
:1084E0002B46384639464A46009600F0A2FC02A8C0
:1084F0003946129A00F08DFC02A8014642462B46EE
:10850000009600F096FC02A8014622462B460096F3
:1085100000F08FFC2046214642462B46009600F094
:1085200088FC484649462246129B00F062FC2046E1
:10853000414602AA2B46009600F07BFC384639469D
:108540002246129B00F055FC384639464A462B46D7
:10855000009600F06EFC204602A9324600F033FE81
:108560000BB0BDE8F083F0B589B01C4607460E4657
:108570001546684611461A4600F04BFC3846394607
:108580006A46234600F035FC684669462A4623467B
:1085900000F02FFC304631466A46234600F029FCA5
:1085A00009B0F0BD1AB1013A8B5C8354FAE7704709
:1085B0002DE9F0478846B3F902101F460825CB1D68
:1085C000202493FBF5F51F31954291FBF4F44FFA0B
:1085D00084F928BF15460646494600F075FA2A4632
:1085E00030464146FFF7DEFFB7F90230ED009D420D
:1085F00020D9ED1A06EB840100228E420AD251F8EE
:10860000040D20FA05F313430B60C5F1200300FAB3
:1086100003F2F2E72437384631464A4600F060FA62
:10862000012807D0304631463A464B46BDE8F04770
:1086300000F01EBFBDE8F0872DE9F04793F9006018
:1086400092B004468946104631461546984600F0D9
:1086500071FA002840F0978002A84946424600F08F
:10866000D8FB43460AA8214602AA00F0C2FB02A892
:108670000146424600F0CDFB4346484649462A465D
:1086800000F0B7FB08F1040728462946424600F0EF
:10869000C0FB204621462A463B46009600F0F8FAE9
:1086A000284629462A463B46009600F0F1FA28461D
:1086B00021462A463B46009600F0BBFB2046214659
:1086C0002A46434600F095FB2846214622463B4673
:1086D000009600F0DDFA20463B46009621462A46E9
:1086E00000F0D6FA2368DB07204613D5334621462F
:1086F0003A4600F0BDF931468246204600F056FD6C
:1087000006F18043013B54F8230040EACA7044F864
:10871000230002E0314600F049FD2846214642464A
:1087200000F077FB284629460AAA3B46009600F04F
:1087300080FB284629460AAA3B46009600F079FBB2
:108740000AA801462A463B46009600F072FB2046E6
:1087500021460AAA434600F04CFB02A802463B46CB
:108760002146009600F065FB20462946324600F07F
:108770002AFD28464946324600F025FD484602A912
:10878000324600F020FD12B0BDE8F0870048704787
:108790009CDC03002DE9F04FEFB01E46789C05905D
:1087A00023780493B4F9023092461F33202293FBBE
:1087B000F2F3DBB206939DF9187094F9012007F1EA
:1087C000FF3926AB002543F829506EAB03EB890334
:1087D0004EA88B46314643F8805C43F8605CFFF757
:1087E000E1FE94F9012056A8B118FFF7DBFE9DF9D0
:1087F00010604EA8314600F09DF98046002840F0F8
:108800002F8156A8314600F095F90546002840F022
:10881000258104F1240840464EA93A4600F060F94B
:10882000012840F01D81404656A93A4600F058F90B
:108830000128089040F014813B461EA856A94246E4
:1088400000F03FFA0DF1380C604659465246234677
:108850004CF82950CDF80CC0FFF7AAFEDDF80CC08B
:108860000097604661461EAA4346CDF824C00DF528
:10887000BC7900F0ACFA4346009716A84EA91EAA90
:1088800000F0A5FA48463246059900F09CFCB3007A
:10889000039309EB030B039A059B5846991832463C
:1088A00000F091FC04F144031946324636A80793C0
:1088B00000F089FC04EB860132463EA8443104F105
:1088C000040A00F080FC494600961EA836AA5346CA
:1088D00000F0AFFA4A465B4636A83EA90094FFF77F
:1088E000DDFD1EA801463346524600F0EAF91EAAF5
:1088F000484659462346FFF736FEDDF824C0079B5D
:108900000B936046059B0C933946CDF814C00A952D
:10891000CDF8349000F028FC3946054616A800F042
:1089200023FCA842B8BF284685B2DDF814C06F1EEC
:108930003FB26046394600F0CBFD394610F10009E0
:1089400016A818BF4FF0010900F0C2FD002814BF9F
:108950000223002343EA09090DF1280B32465BF894
:10896000297026A8394600F02EFC039B3246F918E0
:108970002EA800F028FC31461EA800F0A5F8023D04
:10898000089B1E93AEB237B2002F44DB23461EAACB
:10899000D4F8A45026A82EA9A84739460EA800F05E
:1089A00097FD3946051C16A818BF012500F090FD5B
:1089B000002814BF022300231D430AAB53F825707F
:1089C00037B39DF9105036A839462A4600F0FBFB14
:1089D000039B3EA8F9182A4600F0F5FB36A83EA9ED
:1089E0001EAA2346FFF7BFFD46A826A936AA53466E
:1089F000009500F01EFA36A83EA926AA2EAB0094D8
:108A0000FFF74CFD1EA8014646AA234600F0F1F9E7
:108A1000013EB6B2B7E79DF910501EA80146524676
:108A20002B4600F04EF9234626A82EA91EAAFFF7D2
:108A30009AFD9DF91840404626A9224600F050F8BC
:108A4000012805D026A801464246234600F010FD25
:108A500026A84EA92A4600F058F802E0404600E059
:108A600028466FB0BDE8F08F000000000000000055
:108A7000C3F10803DB0070B501330446002003A5F1
:108A80005B1920C940CAAD1920C4184720C940CA83
:108A9000754120C420C940CA754120C420C940CABC
:108AA000754120C420C940CA754120C420C940CAAC
:108AB000754120C420C940CA754120C420C940CA9C
:108AC000754120C4404170BD10B5002253B28B42A5
:108AD00005DA1BB2002440F823400132F6E710BD4E
:108AE00010B5013AD2B253B2002B09DB1BB250F8D9
:108AF000234051F823309C4204D8F2D2FF2002E0F8
:108B0000002000E0012040B210BD013A30B5D2B2E1
:108B1000002453B2002B09DB1BB2013A51F8235059
:108B200050F823306B401C43D2B2F2E7B4FA84F021
:108B3000400930BD10B500231A465CB28C4204DAFD
:108B400050F8244001332243F7E7B2FA82F040099B
:108B500010BD00002DE9F043A3B09846019112AB7F
:108B60004146074610469146009300F0FDFAC0EBDF
:108B7000881086B2454C33B21C40002CBEBF04F1B5
:108B8000FF3464F01F040134202593FBF5F5EDB2AA
:108B90006DB2A4B202A8294624B2FFF795FF28B20D
:108BA00002AB002C03EB800010DD0022134643458E
:108BB00010D259F8235005FA04F10A4340F8232053
:108BC000C4F1200225FA02F20133F0E74946424699
:108BD00000F0F9FA0FFA88F502AB4FEA45090124D3
:108BE00003EB8505330444D40022114653B24B45B0
:108BF00022DA0DF1880E0EEB840E0DF1880C18B2FE
:108C00005EF888EC0CEB83035EF820E053F8803CC0
:108C1000C3EB0E035B1A734502D08CBF0121002108
:108C2000C4F1010E0DF1880C0CEB8E0E01325EF8D2
:108C300088EC4EF82030D9E7621A544202A8414627
:108C4000544100F0B3FA22AA08F1FF3302EB830388
:108C500002EB8802284652F8801C53F8802C013E13
:108C600042EAC172414643F8802CB6B200F09EFA47
:108C7000B8E722AB03EB8404384654F8881C42461C
:108C800000F0A1FA23B0BDE8F08300BF1F00008010
:108C900070B59DF910401D4623460646FFF7E8FED5
:108CA00030B9284631462246FFF71AFF012807D07F
:108CB000304631462A462346BDE8704000F0D8BB16
:108CC00070BDF0B50646A1B00F46084619461546D8
:108CD0001C46FFF72FFF20B130462146FFF7F4FE78
:108CE00073E068463946224600F06DFA08A8294626
:108CF000224600F068FA10A82146FFF7E5FE01239E
:108D000018A821461093FFF7DFFE684608A92246FF
:108D1000FFF7E6FE002853D0009BDA0704D468462C
:108D2000214600F043FA26E0089BDB0704D408A89C
:108D3000214600F03BFA3DE000281EDD08AA23464C
:108D40006946684600F094FB6846214600F02EFA1A
:108D500010A818A92246FFF7C3FE002805DA10A8BC
:108D600001462A462346FFF783FE10A8014618AAAB
:108D7000234600F07DFB10A81DE008A86A462346A4
:108D8000014600F075FB08A8214600F00FFA18A86C
:108D900010A92246FFF7A4FE002805DA18A801460C
:108DA0002A462346FFF764FE18A8014610AA234668
:108DB00000F05EFB18A82946224600F06BFCA4E7F1
:108DC000304610A9224600F0FEF921B0F0BD70B582
:108DD00090B006469DF950401D466846234600F077
:108DE0003AF8304669462A462346FFF7B3FE10B0EC
:108DF00070BD30B51C4691B0054693F90030684609
:108E000000F029F8D4F8AC3028466946984711B0EC
:108E100030BD30B5144691B0054692F90020684641
:108E200000F0DEF9D4F8AC3028466946984711B016
:108E300030BD70B59DF910401D462346064600F032
:108E400017FB38B1304631462A462346BDE870400C
:108E5000FFF70EBE70BD2DE9F04F08B4F8CA04B498
:108E600051F8042BA3FB028940F8048B4FF0000A51
:108E7000E4FB629A4FF0000BE5FB62AB4FF0000C95
:108E8000E6FB62BC4FF0000EE7FB62CE51F8042B0C
:108E90004FF00008E3FB628940F8048BE4FB629A20
:108EA000E5FB62ABE6FB62BCE7FB62CE51F8042B4C
:108EB0004FF00008E3FB628940F8048BE4FB629A00
:108EC000E5FB62ABE6FB62BCE7FB62CE51F8042B2C
:108ED0004FF00008E3FB628940F8048BE4FB629AE0
:108EE000E5FB62ABE6FB62BCE7FB62CE51F8042B0C
:108EF0004FF00008E3FB628940F8048BE4FB629AC0
:108F0000E5FB62ABE6FB62BCE7FB62CE40F8049B8C
:108F100040F804AB40F804BB40F804CB40F804EB45
:108F20000CBC052B00F01E810C68A0F11400A1F10F
:108F30001401A2F1140252F804EB4FF0000550F8AE
:108F4000046BE4FB6E5652F804EB50F8047BE4FB30
:108F50006E6752F804EB50F8048BE4FB6E7852F81D
:108F600004EB50F8049BE4FB6E8952F804EB50F8D4
:108F700004ABE4FB6E9AA0F1140052F8044B51F8D4
:108F800004EB4FF0000CE4FB6EC540F804CB51F845
:108F900004EBE4FB6E5640F8045B51F804EBE4FB91
:108FA0006E6740F8046B51F804EBE4FB6E7840F810
:108FB000047B51F804EBE4FB6E8940F8048B51F814
:108FC00004EBE4FB6E9AA0E80006062B00F0CA80D2
:108FD0000C68A0F11800A1F11801A2F1180252F8D2
:108FE00004EB4FF0000550F8046BE4FB6E5652F8AA
:108FF00004EB50F8047BE4FB6E6752F804EB50F886
:10900000048BE4FB6E7852F804EB50F8049BE4FB0D
:109010006E8952F804EB50F804ABE4FB6E9A52F8F8
:1090200004EB50F804BBE4FB6EABA0F1180052F85F
:10903000044B51F804EB4FF0000CE4FB6EC540F814
:1090400004CB51F804EBE4FB6E5640F8045B51F896
:1090500004EBE4FB6E6740F8046B51F804EBE4FBAF
:109060006E7840F8047B51F804EBE4FB6E8940F81D
:10907000048B51F804EBE4FB6E9A40F8049B51F822
:1090800004EBE4FB6EABA0E8000C072B6AD008B43D
:109090000C68A0F11C00A1F11C01A2F11C0252F805
:1090A00004EB4FF0000550F8046BE4FB6E5652F8E9
:1090B00004EB50F8047BE4FB6E6752F804EB50F8C5
:1090C000048BE4FB6E7852F804EB50F8049BE4FB4D
:1090D0006E8952F804EB50F804ABE4FB6E9A52F838
:1090E00004EB50F804BBE4FB6EAB52F804EB50F811
:1090F00004CBE4FB6EBCA0F11C0052F8044B51F809
:1091000004EB4FF00003E4FB6E3540F8043B51F8EC
:1091100004EBE4FB6E5640F8045B51F804EBE4FB0F
:109120006E6740F8046B51F804EBE4FB6E7840F88E
:10913000047B51F804EBE4FB6E8940F8048B51F892
:1091400004EBE4FB6E9A40F8049B51F804EBE4FB5B
:109150006EAB40F804AB51F804EBE4FB6EBCA0E846
:10916000001808BCBDE8F08F0139C9B24BB2002B22
:109170000BDA013111F0FF0315D059B201F1804330
:10918000013B50F82320002304E050F82330002B4B
:10919000EAD0EEE712B152080133FBE7481E03EBB9
:1091A000401080B200E0184600B2704700EB810129
:1091B0000023884206D251F8042D43EA52030B6083
:1091C000D307F6E7704730B5002463B2934206DA5E
:1091D0001BB2013451F8235040F82350F5E730BD5D
:1091E0002DE9F04FB1E8005E06B4AAFB09124FF07A
:1091F0000003EBFB69234FF00004ECFB69344FF0F4
:109200000005EEFB69454FF00006EBFB6A63ECFBE3
:109210006A344918524176415B41A9FB09784FF005
:10922000000949F1000918EB0108A0E88001AAFB38
:109230000A78574158EB0608A0E88001EEFB6A4522
:109240004FF0000A4AF1000A4FF00001ECFB6B14EA
:10925000EEFB6B454FF00002EEFB6C255FEA59090F
:109260004941644152416D4149F10009EBFB6B3AC0
:109270001AEB010AA0E80804ACFB0C6A66415AEB41
:10928000020AA0E84004AEFB0E6A6E415AEB090ADE
:10929000A0E8400406BC052A00F0E680A0F1140016
:1092A000A1F11401B1E8E043A5FB0E344FF0000535
:1092B000E6FB6E454FF00006E7FB6E564FF00007E9
:1092C000E8FB6E674FF00008E9FB6E784FF000098D
:1092D000DB1864416D4176417F4158EB080859F134
:1092E000000950F804CB13EB0C0350F804CB54EBFB
:1092F0000C0450F804CB55EB0C0550F804CB56EB9E
:109300000C0650F804CB57EB0C0758F1000859F144
:109310000009A0F11400EEFB0E89A0E8F803062A6C
:1093200000F0A280A0F11800A1F11801B1E8E04717
:10933000A5FB0E344FF00005E6FB6E454FF000062E
:10934000E7FB6E564FF00007E8FB6E674FF0000832
:10935000E9FB6E784FF00009EAFB6E894FF0000AD6
:10936000DB1864416D4176417F4158EB080859EBA9
:1093700009095AF1000A50F804CB13EB0C0350F81A
:1093800004CB54EB0C0450F804CB55EB0C0550F80F
:1093900004CB56EB0C0650F804CB57EB0C0750F8F7
:1093A00004CB58EB0C0859F100095AF1000AA0F15E
:1093B0001800EEFB0E9AA0E8F807072A54D0A0F197
:1093C0001C00A1F11C01B1E8E04FA5FB0E344FF0E9
:1093D0000005E6FB6E454FF00006E7FB6E564FF0CA
:1093E0000007E8FB6E674FF00008E9FB6E784FF06E
:1093F0000009EAFB6E894FF0000AEBFB6E9A4FF012
:10940000000BDB1864416D4176417F4158EB080841
:1094100059EB09095AEB0A0A5BF1000B50F804CB2F
:1094200013EB0C0350F804CB54EB0C0450F804CBB2
:1094300055EB0C0550F804CB56EB0C0650F804CB5A
:1094400057EB0C0750F804CB58EB0C0850F804CB42
:1094500059EB0C095AF1000A5BF1000BA0F11C005A
:10946000EEFB0EABA0E8F80FBDE8F08F00000000A7
:10947000C3F10803DB0070B50133002403A500BF6E
:109480005B1920C940CAAD1B20C0184720C940CA7B
:10949000B54120C020C940CAB54120C020C940CA3A
:1094A000B54120C020C940CAB54120C020C940CA2A
:1094B000B54120C020C940CAB54120C020C940CA1A
:1094C000B54120C06441B4FA84F0400970BD00BFCA
:1094D0004A11012301F01F0150F822008B4018406F
:1094E00070470000F0B50C4689B008220646FFF729
:1094F0006AFEE36A0393236B0493636B0593A36B88
:109500000693E36B0793002769466A46082368467B
:10951000029701970097FFF7ABFA314605466A4676
:1095200008233046FFF7A4FA236B0393636B04937D
:10953000A36B0593E36B0693054469466A460823CB
:1095400068460797FFF794FA314605446A460823B0
:109550003046FFF78DFA236A0093636A0193A36A8A
:109560000293A36B0693E36B0793054431466A4667
:1095700008233046059704970397FFF779FA636A43
:109580000093A36A0193E36AA26B0293636B039354
:1095900004920693E26B236A0592054407933146D1
:1095A0006A4608233046FFF763FAE36A0093236BA9
:1095B0000193636B0293236A0693A36A079305449E
:1095C00031466A4608233046059704970397FFF70C
:1095D0004FFF236B0093636B0193A36B0293E36BC9
:1095E0000393636A0693E36A07932D1A31466A462A
:1095F0000823304605970497FFF73AFF636B009303
:10960000A36B0193E36B0293236A0393636A04934E
:10961000A36A0593236B07932D1A31466A460823E4
:1096200030460697FFF724FFA36B0093E36B01938B
:10963000636A0393A36A0493E36A0593636B0793D6
:109640002D1A314630466A46082302970697FFF7DF
:109650000FFF2D1A16D5304631460D4A0823FFF765
:1096600007FA4519F7D410E0094831460822FFF7F8
:1096700037FA012809D030463146054A0823FFF75A
:10968000F7FE2D1A002DEFD0F5E709B0F0BD00BFB1
:10969000A0DC0300F8B5036813F0010506460F4689
:1096A000144605D001463A462346FFF7E1F9054640
:1096B00030462146FFF77AFD45B104F18042013A78
:1096C00056F8223043F0004346F82230F8BD2DE929
:1096D000F04115468AB00446884602A8002120229F
:1096E000FEF7B4FE2E780323204641462A462F1D5E
:1096F00076B20293FFF78DFB2046214602AA3B4635
:109700000096FFF796FB2046214642462B46FFF780
:1097100070FB00962046214605F184023B46FFF788
:10972000B7FA0AB0BDE8F0812DE9F041194E4FF4C7
:109730008271D6F8040130B11748C268521CC26069
:10974000304602F0B3FA00254FF4A07707EB85010D
:109750008AB23046B258BAB189B202F0A7FA0E48BE
:10976000103000EB0514204603F0EEFE616819B1DD
:10977000204603F06FFE07E0A16811B1204603F018
:1097800069FE206800B180476D1C022DDED3BDE864
:10979000F081000000100140F42A002002F082BB9A
:1097A00030B54FF080500123D0E94C100022102931
:1097B00006D18C06C4F80C21C4F81021494C226053
:1097C000102955D1484C2468484D2C60464C241D26
:1097D00024682D1D2C60444C083424682D1D2C60F9
:1097E000414C0C3424682D1D2C603F4C10342468EF
:1097F0002D1D2C603C4C143424682D1D2C603A4CDB
:1098000018342468394D20352C60374C1C342468BA
:109810002D1D2C60344C203424682D1D2C60324CBE
:10982000243424682D1D2C602F4C283424682D1DD1
:109830002C602D4C2C3424682D1D2C602A4C303487
:1098400024682A4D40352C60274C343424682D1D63
:109850002C60254C383424682D1D2C60224C3C345F
:1098600024682D1D2C60204C403424682D1D2C6054
:10987000102906D11E480168C90702D06FF0010106
:1098800001604FF01021D1F80002002803DBD1F86D
:109890000402002821DA174C236017480368002BC4
:1098A000FCD01223C1F800320568002DFCD0C1F8AD
:1098B000043201680029FCD0226001680029FCD034
:1098C000BFF34F8F0D4801680D4A01F4E061114369
:1098D0000160BFF34F8F00BFFDE70B4909480860E7
:1098E00030BD0000380500400404001020C50040D1
:1098F0000004004004E5014000E401400CED00E0FC
:109900000400FA050090D0038C2B0020034808B512
:10991000002101600068009008BD000000010140C6
:1099200002E008C8121F08C1002AFAD17047704728
:10993000002001E001C1121F002AFBD17047000086
:109940000121202803DA81400548014003E0402836
:1099500002DA2038814009B10120704700207047A9
:10996000FC06FFBD800701D0002070470120704732
:10997000C3688B4206D811440069491E814201D850
:10998000012070470020704730B585B00D46164C59
:109990001621ADF800101ECC0DF1040C8CE81E0051
:1099A000124C0221012221706270A0700320E0702D
:1099B000217159206071FE20A071694604F10900EF
:1099C0007DDF00280ED1BDF800002A46411CE17160
:1099D00009212172BDF808100844ADF8080001A95A
:1099E000034872DF05B030BD50D90300C42F0020FA
:1099F0002C2B002010B586B0062418220849684692
:109A0000FEF709FD69462046FFF7BEFF002805D195
:109A1000044C207874DF0121207873DF06B010BD7C
:109A200060D903002C2B002070B5104CA66C656A21
:109A300001F0F6FA216B08446A1A3144814200D1E0
:109A40000022082300F098FE06000DD101F0E8FA8C
:109A50000022294600F0EAFBA16A814203D10121DC
:109A6000A561C4E90701304670BD00005C470020D5
:109A700002F0C6FB02F0C4FB2DE9F84F254C8146ED
:109A8000924660880E46814241D800274FF6FF7803
:109A90008DF80070684600F075F822786078A1882B
:109AA000884201DA401C00E00020C0B2904204D19C
:109AB0009DF8000000F08AF827E065786078884219
:109AC00001DA401C00E0002060709DF8000000F00A
:109AD0007DF8454519D0A068B9F1000F40F835A0D0
:109AE0000DD066B16188E068324605FB0100494649
:109AF000FEF791FCA06800EBC500868002E000EB59
:109B0000C50087800020BDE8F88F0420FBE709200E
:109B1000F9E700006C2B002010B50E4C03E0401C50
:109B200000E00020207020786178814210D02278F7
:109B30006188E068A36802FB010003EBC20153F8EF
:109B40003220898890472078A1888842E9DAE6E7C0
:109B500010BD00006C2B002030B5CB0008339DB247
:109B600093074FF0000401D0072030BD044B9A60EA
:109B70002A44DA605C701C7058809980002030BDE7
:109B80006C2B002030B5EFF3108172B60D4A94684B
:109B9000012324B10370002900D162B630BD936067
:109BA0004FF0E023D3F88051074C25401560C3F8EF
:109BB0008041D3F8844154605A17C3F884210022AD
:109BC0000270E8E7D04E0020FC06FFBD0B498A6812
:109BD000002A11D000280FD1EFF3108072B60B6865
:109BE0004FF0E022C2F800314B68C2F80431002285
:109BF0008A60002800D162B670470000D04E002075
:109C000070B510480146456AC06A8C6CAC2801D01A
:109C100024B106E0486B04442D1A02E001F014FA66
:109C200004462A4621460848FEF719FC002807D0BA
:109C300001F070F829462046BDE8704001F028BBCD
:109C400070BD00005C4700200080030030B5044672
:109C50002C4995B04FF6FF70488001208DF8120016
:109C60004FF65960ADF81000224604A90120A8DF84
:109C7000002844D1244B0FCB8DE80F00A11C68466F
:109C800062DF00283BD120491C2260390BA8FEF777
:109C9000C2FB1E4D142205F1C401A8681290A078E1
:109CA0008DF84A002868139006A8FEF7B4FB12A8A6
:109CB000069013A807902088231D06AA0BA9AADFE7
:109CC00000281CD11C2205F1D8010BA8FEF7A3FB2C
:109CD000E8681290A0788DF84A0068681390142202
:109CE00005F1F40106A8FEF796FB12A8069013A84A
:109CF0000790208804F10C0306AA0BA9AADF15B06F
:109D000030BD00002C2B002028DA030020D90300EE
:109D1000F0B585B0044614216846FEF795FB20781F
:109D2000032308280BD12748C188491E89B2C18066
:109D30008288002A3ED000293CD1C280237021783D
:109D4000607860228DF800208DF801108DF80200F7
:109D50006078032101280AD00B2828D100F0BAFC32
:109D60008DF80300002000F0BDFC04211FE02078E6
:109D700009281CD2DFE800F01B1B1B201B1B051B46
:109D80002000D4E902706D46E91C666803F0E6FB2A
:109D9000044629193046C91C03F0E0FB0444291984
:109DA0003846C91C03F0DAFB2044C01CC1B2684627
:109DB00003F02AF805B0F0BDD4E90112684603F0BB
:109DC00012F8F2E72C2B00202DE9F041134903464D
:109DD00000208A68D4071ED0114CA3421BD04888AB
:109DE000A0F57F43FF3B10D042F004028A601321AC
:109DF00076DF00280FD10B4EC8254FF47A47741C2C
:109E00003846A0476D1EFAD101E0087874DFBDE83E
:109E1000F04101F0E3BFBDE8F08100002C2B0020F1
:109E20006CDD030030D9030038B5214C0021227AC3
:109E3000D20701D0084638BDE0601E4800F00CFE95
:109E40000020009001F030FA88B91B4813DF70B988
:109E500001F0EEFF58B9684601F02EFF38B96946A7
:109E6000012001F033FF10B9684601F07DFF0028A2
:109E7000E1D101F005FB30B1104801F0F5FAA0681E
:109E800040F00200A06000F043FC0028D3D10B4852
:109E90001C30FFF7DBFE0028CDD1FFF7ABFD00281B
:109EA000C9D1A06840F00100A060002038BD0000CA
:109EB0002C2B002074DD030000800300E42F002021
:109EC00070B50446011D008800226F4D86B0212820
:109ED0007ED025DC13287CD018DC01287AD010280D
:109EE0005BD011284AD14FF6FF706880287A40076E
:109EF00004D4FFF77FFD08B1FFF7BCFDE968002936
:109F00003CD006B00220BDE870400847142878D045
:109F10001A2877D01F2831D16888091D75DF62E0C3
:109F2000512870D02CDC222828D0232862D0242865
:109F300024D0502822D1554D34F8060FA9888842E4
:109F40001CD1534800F04EFD060017D0628904F181
:109F50000C01FEF760FA18224E496846FEF75BFADC
:109F6000049601956089ADF81400684601F0D0F9B7
:109F7000002803D03146464800F056FD06B070BDBB
:109F800052287BD0552813D05628F7D1A079002825
:109F9000F4D11321688876DF25E008886880E968B5
:109FA00009B1012088473B4968887A3975DFE5E7C0
:109FB000E188F72914D28807B0F1404F11D0C91FAA
:109FC00089B2481EC21700EB927222F0030202E02F
:109FD00033E01CE036E0801A081A801D81B200E0F0
:109FE000F7216888B5DF0028C8D006B0BDE870400A
:109FF000FFF740BD00920192A0880022694690DFE1
:10A0000018E034E03AE021E0FFF734FDB6E72148FC
:10A010006A46903842F60521806A009002A80190B5
:10A020006888ADDF08B1FFF725FD00231A468521BA
:10A0300068887FDF0028E7D1A0E70092088869469A
:10A040008FDFF7E70021688866DFCCE7A07900287A
:10A0500094D021460D4802F0EBF800288ED006B0CF
:10A0600004F10801BDE87040084801F0D5BF0024A4
:10A07000088822462346214686DFB4E70023088865
:10A080001A461946B1DFAEE72C2B00200030002025
:10A0900074DD0300B0D90300007800F001007047C0
:10A0A00013B90378012B01D001F015BB01207047D3
:10A0B0000022C32100F5187000F0B8B82DE9F04374
:10A0C000A1B00446DDE9289520200F46209098464F
:10A0D0001646782102A8FEF7B7F941212046FEF77F
:10A0E000B3F9B7F8940006EB061107EB8101B04213
:10A0F00001D991F8965025701DB3012D04D0022D81
:10A100000AD0032D13D116E000224946404600F044
:10A110008DF8C4F8010014E020A9601CCDE900010D
:10A120004B4642460A4902A800F0A2FE48B1002070
:10A1300021B0BDE8F083B1F89820601C9A31FEF799
:10A140006AF94A464146204601F0C5FAF0E70000A8
:10A1500048D7030010B500284FF0000006D004498E
:10A160000870BDE81040034801F0B6B900F00AFAE3
:10A17000E82A002085A503002DE9FC410646C0071A
:10A180004FF000050ED0104F00240122385D0095DD
:10A1900000231146019501F014FD641C042CF4D336
:10A1A00000F024F8B0070DD5074E0024361D00221C
:10A1B000305D032300951146019501F002FD641CFA
:10A1C000042CF4D3BDE8FC8134D703000249085CB9
:10A1D000012101F008BD000034D703000249085CEA
:10A1E000002101F000BD000034D7030010B50024A9
:10A1F0002046FFF7EBFF641C042CF9D310BD10B50B
:10A2000043689C18446021B905E013F8010B01F87C
:10A21000010B521EF9D2012010BD00000249CA6B89
:10A220004260096C816070475C470020F0B54FF0D8
:10A23000FF3622B11268D24300230A4D0DE03246A8
:10A24000FAE7C45C62400824D70700D037462F40A5
:10A2500087EA5202641EF7D15B1C8B42F1D3D043D4
:10A26000F0BD00002083B8ED10B504460068401C26
:10A2700007D0204602F09EFE2168814201D10120D4
:10A2800010BD002010BD000010B50B4C90B06078E0
:10A2900000280ED100F050FE20220849684600F048
:10A2A0006BFE40236A460649064800F0A1FD0120E6
:10A2B000607010B010BD00005C2B0020F4D60300CD
:10A2C000084E002060D70300F0B5146906468DB033
:10A2D00020681546271DE0B1022920D00A200090F1
:10A2E0006B4609AA304602F04DFD00280FD009A99F
:10A2F00001A8009A02F03CFB01AE96E80F0005AE03
:10A3000086E80F00236869683A4605A898470DB0AB
:10A31000F0BD0DB03046BDE8F04002F09DBB69468F
:10A32000304602F02FFB0028F1D0236869683A46D6
:10A33000684698470028EAD002980028F5D101988D
:10A3400070600120E3E753689B7813F0C00303D0EB
:10A35000402B03D00020704700F002B8FFF7B4BFD5
:10A360002DE9FF410B465168064614468878334D67
:10A3700000F00F0210F0300055F8225006D01028DF
:10A3800006D0202808D0302856D13EE022694DE082
:10A3900061690120087047E0022B28D1042A26D8E1
:10A3A0004FF0010869463046676902F0EBFA002871
:10A3B0001AD009E00B89226903FB00226846A847EE
:10A3C00070B13888401C3880029820B161683888A4
:10A3D0004A899042EED301987060029860BB02E017
:10A3E0004FF00008F7E7404604B0BDE8F081D4E93B
:10A3F00004300F890288498907FB02338A421BD245
:10A40000521C02801A46616810E008886169072AB8
:10A41000088009D1606801892069FEF715F8606835
:10A420002169C06802F0C9FA2269616804B0304647
:10A43000AC46BDE8F04160470020D5E778DC03007A
:10A4400070B51C4801240168C90301D581130CE0D3
:10A45000194801681522C9B2B2EBD10F07D10168C2
:10A46000C90704D0016801F0560101600024134DB2
:10A47000286A01281CD14FF4405011494068884295
:10A4800008D123464FF4805105F518706A6BFFF729
:10A4900007FE68B100F0C4FD014623460948AA69D9
:10A4A000FFF7FEFD20B101F0FBFB10F0B10000D082
:10A4B000012070BD00040040200500405C470020E2
:10A4C000DBE5B151FD4900204169002901D0C06898
:10A4D0000847704710B508281BD2DFE800F00412C7
:10A4E0001A1A1A041A040120FFF746FE0020FFF78B
:10A4F00075FE0120FFF772FEBDE810400220FFF755
:10A5000065BE0120FFF762FEBDE810400220FFF7A4
:10A5100065BE10BD10B50446801E062810D2DFE8C7
:10A5200000F00D03030F09090A494FF4A02000F0C1
:10A53000EDFA05E00120FFF70DFE01E000F0F4FF69
:10A5400005484168002903D02046BDE8104008476F
:10A5500010BD000009A80300E82A002010B5044639
:10A56000062801D0072C02D1002001F07DF8044814
:10A570000168002903D02046BDE81040084710BDFF
:10A58000282B0020BFF34F8F05480168054A01F4CE
:10A59000E06111430160BFF34F8F00BFFDE7000092
:10A5A0000CED00E00400FA052DE9FC4180461F4651
:10A5B00015460E4600240D4800F006FA38B1112069
:10A5C000BDE8FC8106EB043001F018FB641CAC42D2
:10A5D000F8D1064800F0F5F9CDE9005733460022DE
:10A5E0000221404600F02AF80020E9E77C2B0020F9
:10A5F0002DE9F843104D0F4680461E4691466946A8
:10A60000286800F0B2F9040014D01C21FDF71CFFEB
:10A6100001202071C4F81490380BC4F80080C4E9FC
:10A6200002606946286800F0C1F902F08BFB002047
:10A63000BDE8F8830420FBE7A4DA03002DE9F0432A
:10A6400087B00446DDE90E8980681D4616460F4630
:10A6500000280BD018216846FDF7F6FE02A88DF8F9
:10A66000007080E86003A1686846884707B0BDE8CD
:10A67000F08330B50446006887B00D468068002836
:10A680001FD018216846FDF7DFFE0195A0680590F0
:10A69000207910B1012810D107E001208DF80000C9
:10A6A00020690290E068039005E002208DF8000028
:10A6B000E068000302906069049020688168684641
:10A6C000884707B030BD0B2803D30B38C0B200F069
:10A6D00009B870470249002208780A7070470000E4
:10A6E000442B0020014908700B207047442B0020A8
:10A6F0000149012008707047E82A00200149012023
:10A7000008707047242B00200123723001F00CB830
:10A710000EB59DF8080020F00F00401C20F0F0005E
:10A7200010308DF8080068466DDF002819D19DF8BB
:10A730000100401C8DF8010068466CDF002810D134
:10A740000848007A800703D50748011D806901E0A9
:10A7500006A1072082B202A87CDF002801D10548AB
:10A760007ADF0EBD2C2B0020E42F002044667554A8
:10A770006172670036D903002DE9F04781461D4616
:10A7800016468846494502D10020BDE8F087A8EB6F
:10A790000900040B06F6FF704FF0000A070B00F0EB
:10A7A000CDFAA5422AD22C4628E0A74202D8BA46C2
:10A7B000354601E0A246250300225146484600F0F6
:10A7C0002DFD0028E1D1681E00F003002A1A0023A5
:10A7D00041464846D21C00F037FD0028D5D1094833
:10A7E000A7EB0A07761B016BA94429440163A8441F
:10A7F000002000F025FF5FEA000AC6D1002ED4D168
:10A800005046C2E75C4700200120FFF7A3BC0000D0
:10A81000014941600020704778DA030010B50B4908
:10A8200041600B4800F0D0F868B901F04DFB0849D1
:10A830001C234FF4EE7208740448A1F5EE71001F5A
:10A84000006800F07FF8002010BD0000A8DA0300C7
:10A85000C850002002480068002800D0012070473E
:10A860007C2B00200248007A002800D0012070478D
:10A87000C850002010B54FF44051144B4C6800F5FF
:10A8800000509C4204D042689A4201D1012200E06B
:10A8900000229C4218D144689C4215D10A78142A9F
:10A8A00001D9496900E00021094A0378B1FBF2F1BE
:10A8B000142B01D9406900E00020B0FBF2F0814286
:10A8C00001D0012200E00022104610BDDBE5B151AD
:10A8D00040420F0070B5054608680C464A68866815
:10A8E0002846314601F08AFF6068286104F10C00B7
:10A8F0006861B0780221B1EB901F01D1241D2C6159
:10A9000070BD000000F0EEF94FF48051002000F01F
:10A9100011F940B90548C0F5783100F00BF910B9CC
:10A92000034800F061F901F06BFC000000800300B7
:10A93000D5A4030010B5FDF7B8FC08B1002010BD88
:10A94000112010BD10B531B1B2FBF3F403FB142498
:10A950001CB1092010BD0E2010BD01600021416016
:10A9600081608281C381084610BD70B50C460546E2
:10A97000FDF750FC002802D021882868084470BDEB
:10A9800010B50A8849888A4203D1FDF785FC012069
:10A9900010BD002010BD70B50C460546FDF75FFCEC
:10A9A000002802D061882868084470BD10B50A8864
:10A9B00049888A4203D1FDF749FC012010BD0020DF
:10A9C00010BD002100F003B8012100F006B808B561
:10A9D0006A46FDF79CFC009808BD08B56A46FDF77D
:10A9E00089FC08BD38B5044600258DF8005068463E
:10A9F000FFF7C8F821686268086890420ED9401EC7
:10AA000008600178238AE26801FB0325227A216825
:10AA1000101AC0B20A79824200D208719DF8000073
:10AA2000FFF7D4F8284638BD38B5054600208DF824
:10AA300000000C466846FFF7A5F8E868298A201A46
:10AA4000B0FBF1F12A681068431C136001709DF897
:10AA50000000FFF7BBF838BD10B530B1017A42688D
:10AA60000368891AC9B21A6006E00E2010BD036897
:10AA70001A68541C1C601170491EC9B2F7D20068D4
:10AA800000210171084610BD10B54FF0E0224FF0D3
:10AA9000FF314FF48054C2F88011C2F8801200F0E8
:10AAA0000FFC2046BDE81040AFF3008010B504460F
:10AAB0001448C0F57C3100F03DF808B1FEF7DAFF2C
:10AAC00000F0AEFA014610488069421EC2F30B0244
:10AAD000801A0144002001F6FF7100F02BF808B144
:10AAE000FEF7C8FFD4E90001002282F3148882F344
:10AAF000108882F3118882F3138880F30888BDE8F8
:10AB000010400847008003005C47002070B5084DE6
:10AB100004460E46686802F017FD002C06D0324647
:10AB200021466868BDE8704002F000BD70BD0000BD
:10AB3000F42A002030B50A0502D1B0F57C3F01D9D6
:10AB4000072030BD094C2268082A01D3042030BDFB
:10AB5000074B03EB0213C3F80008C3F804180220E4
:10AB6000C3F80808521C0020226030BDF02A0020E3
:10AB700000E0014070B5194D0024E86A2435012831
:10AB800007D0A52808D0AA2809D0AC280AD00020D0
:10AB900070BDFEF749FF0BE002F054F907E0FFF744
:10ABA0002FF805E002F04EF908B9FFF729F8012463
:10ABB000284600F059FA0A4900200870094800F0B8
:10ABC0003FFD08B1032070BD0120002CFBD00349DC
:10ABD000096A0129F7D1022070BD00005C470020FE
:10ABE000242B0020FDA603007CB5374D68600020B3
:10ABF00000F078FC00285DD1344C00266069012803
:10AC000016D100F0C3FD00F05BFE68B101A96846F3
:10AC100000F00CFE012807D100F058FE012803D1F6
:10AC2000DDE9000100F054FD2948666100F008FDEF
:10AC3000FFF7A0FF4FF4A02420B1012823D0022861
:10AC400038D102E0FFF7FCFB80B300F077F8214A2F
:10AC500020211820FEF780FF08B1FEF70BFF01F05E
:10AC60001FF81621B1EBD00F09D101F019F8C00778
:10AC700005D001F015F8184920F0B100086000F087
:10AC800005FB18B903E00120FFF764FA12E013494D
:10AC90002046FFF73BFF124800F0E2FA50B900BF30
:10ACA00000F038F8FEF738FF41DFF9E7FFE700F082
:10ACB000C1FB08B103207CBD2E70054800F00CFCE0
:10ACC000FFF7E2FEF6E70000E82A00205C470020DC
:10ACD000F1A60300A42B00201C05004009A80300D6
:10ACE00015A5030010B540F6F8700168491C02D1A3
:10ACF000074900F09BFF40F6FC700168491C05D134
:10AD0000BDE810404FF4783100F090BF10BD000056
:10AD10000080030010B501F077F9002803D0BDE8EA
:10AD2000104002F079BC10BD034A93680A46014600
:10AD30009860184602F0FABBF42A002070B50E4D58
:10AD40002878002817D101F05FF9012690B10B484F
:10AD50000468A4F54864962C00DA962402F05CFCA2
:10AD600007492046FFF7E0FF4FF0E0214FF4803025
:10AD7000C1F800012E7070BD252B00200405014094
:10AD800055D6030040688068004710B54268083017
:10AD9000527900F0F1F8002010BD2DE9F04399B090
:10ADA0001C4690460D460846DDF88090FFF7EAFF06
:10ADB0006E6807467079A04200D804462246414694
:10ADC00011A800F015F97279494601A800F0D4F8ED
:10ADD00001AB224611A905F108000097FDF7DAFC46
:10ADE00018B1002019B0BDE8F08348F24250F9E7ED
:10ADF00070B516460C46054600F0E2F800280ED164
:10AE0000AA791946304600F0E8F8002807D1314603
:10AE10002046FFF7BAFF002801D10149216070BD2B
:10AE20007052464D2DE9F8430C46DDE9085781463E
:10AE3000984616460D49204600F0B6F8002810D175
:10AE40006068394640794200284600F0C6F800287C
:10AE500007D146B143463246214648460095FFF7A2
:10AE60009CFFBDE8F88348F21050FAE77052464D57
:10AE70002DE9F0411D46DDE906871646044600F03F
:10AE80002DF800280DD12A463146204600F03CF826
:10AE9000002806D13A4641462046BDE8F04100F080
:10AEA00002B8BDE8F08170B515460E46044602F0C2
:10AEB000A3FB002807D13EB160682968C2689142AF
:10AEC00005D248F2145070BD48F2135070BD83682B
:10AED0002A4631462046BDE87040184710B550B1AB
:10AEE00061B14160096804468847002802D10548DD
:10AEF0002060002010BD48F2015010BD48F21050F3
:10AF000010BD00006E52464870B515460E46044608
:10AF100002F072FB00280BD146B155B160682A4699
:10AF2000314643682046BDE87040184748F210504B
:10AF300070BD002070BD00002DE9F0410B480C4DA4
:10AF40000C4F401BC60801203870002406E000BFEB
:10AF500055F834008047002805D1641CB442F7D36B
:10AF6000022038700020BDE8F081000000000000E1
:10AF700000000000262B002070B514460D46064642
:10AF800000F036F8291930192246BDE8704000F06B
:10AF90002FB830B50C46054600F035F82819214683
:10AFA000BDE8304000F02FB828B10068884205D0D5
:10AFB00048F24050704748F21050704700207047E8
:10AFC00028B139B10022C1E900201046704748F28B
:10AFD0001050704748F21350704720B1914205D08D
:10AFE00048F21150704748F21050704700207047E7
:10AFF0000244521E04E000BF11F8013B02F801397F
:10B000008242F9D270470144491E05E002780B786C
:10B0100000F8013B01F801298142F7D27047000096
:10B020004FF44050074A4168914207D18068411E61
:10B03000C1F30B01401A00F6FF7070474FF48050C7
:10B0400070470000DBE5B15100B5FFF7E9FF0549A6
:10B0500089690A18401E0844C0F30B00101A00F654
:10B06000FF7000BD5C4700200021016041608160ED
:10B0700001480163704700005C4700202DE9F04162
:10B080009846214F16460C460546002301215BB128
:10B09000012B11D0022B1ED00020381AA0F5005031
:10B0A000A8421BD201221AE0FFF7CEFF8EB117494A
:10B0B000096A0129F1D00CE0FFF7B2FFB8F1000FE7
:10B0C00005D14FF44051124A4968914201D0012103
:10B0D000E3E70021E1E74FF48050DEE7002242EA97
:10B0E0000400884305D0022B03D25B1CDBB2022B89
:10B0F000CCD912B10420BDE8F0811BB1034818304F
:10B10000FFF7B2FF0020F6E7008003005C47002055
:10B11000DBE5B15170B504460078092811D2DFE8AB
:10B1200000F0100510112510381013000D461D49B0
:10B130000320C9688847606900F05EFBFFF7C3FA27
:10B14000687070BD084628E00D46A18A206900F0AD
:10B150002FFBFFF7B8FA68702846FFF75FF8E16841
:10B160000029EED02069BDE8704008470C460D4923
:10B170000831081F00F05AFBFFF7A5FA607001289C
:10B18000DFD1002000F05CFA0028DAD00A206070DD
:10B1900070BD08464FF40071C160BDE87040FFF714
:10B1A0003DB80000482B002070B51A4A05780124EC
:10B1B000936C092D2CD2DFE805F02B052B0B0F2B00
:10B1C000252B080000F060FF22E000F0D3FF1FE015
:10B1D0008B60106D48601BE0D2E91454566C2C1B38
:10B1E000A64203D008204870012411E000245565D0
:10B1F00054642146D36400F081FF07490420C968E4
:10B20000884705E08B60106D48604FF48050C8603F
:10B21000204670BD5C470020482B002013460A469C
:10B220000146014800F000BC902B002008B1034902
:10B2300000E003490022034800F00CBCB4DA03002C
:10B2400084DA0300902B002008B5009313460A46C9
:10B250000146024800F096FC08BD0000902B00203B
:10B26000084910B508600020FFF778F9064800F09B
:10B2700015FA002804D1BDE81040034800F026B8B4
:10B2800010BD0000282B00205DA5030000207047A2
:10B290001FB58908002201AB009283E807006846C9
:10B2A00018DF04B010BD00001FB5044B0FCB8DE8B4
:10B2B0000F00684618DF04B010BD000038DA030044
:10B2C0004FF48050410408600020704710B504001E
:10B2D00011D00120FFF7AAFF00280BD100F056FA89
:10B2E00000F0EEFA48B10949081F00F09FFA012862
:10B2F00003D0032010BD072010BD04480838C460E7
:10B300000020FFF7EFF9002010BD0000502B0020B7
:10B31000816819B1024A1821FEF7AEBB07207047B9
:10B3200025B30300AFF3008030B587B00446182280
:10B330001F496846FDF76FF820788DF800002278E5
:10B340001C4D0D2A25D2DFE802F0240B270B0B241D
:10B350000B240B2424240700E968072088471BE0FE
:10B3600020466946062A01D0012A01D1027C2A70B2
:10B370002A78012A05D0022A06D00020287005204C
:10B3800008E0FFF7C7FE07E0FFF70EFF20B907B0A0
:10B3900030BD02208DF80100D4E9011268469047C3
:10B3A0009DF801000128F2D0E96805208847EEE702
:10B3B00060DA0300482B002038B1054901600549D7
:10B3C000416001210172002070470E20704700008B
:10B3D000D9B3030011B4030010B50C0001464FF0BF
:10B3E000110007D02278052A05D2DFE802F00F0508
:10B3F0000D0F0F000E2010BD084600F051F8002878
:10B40000F9D10221217010BD112010BD082010BDFE
:10B410000246082041B10B78022B04D1022A05D044
:10B42000032A00D1112070470E207047002003220C
:10B430000A70704770B50B480024D0F82413491CDB
:10B4400003D1D0F86403401C09D04FF47C35284662
:10B4500000F0D4FBC9220349284600F0FFFB204638
:10B4600070BD00005C47002010B528B11C220349C4
:10B47000FCF7D1FF002010BD0E2010BD64F30300C7
:10B4800010B5064C00221821201DFEF7CFFE2168C2
:10B49000814201D1012010BD002010BD64F30300E2
:10B4A00070B50C4D0400D5F8640305F5597503D04B
:10B4B000401C03D0082070BD0E2070BD0022182152
:10B4C000201DFEF7B3FE206007222146284629DF13
:10B4D00070BD000000F00300014901F061BD0000F3
:10B4E00000F0030010B5FFF7A1FE30B900F01CF822
:10B4F000002000F0A5F8002800D0032010BD0000B7
:10B5000010B5FF224FF400710648FCF796FF05487E
:10B5100020212438FCF798FF024900205C39086399
:10B5200010BD0000B84700202DE9F0473248FEF773
:10B530009BFE324E074634682046FEF795FE4FF0DC
:10B54000010A4FF0000958B16068012806D0204672
:10B55000FEF7AEFDD4F85C12884201D1012500E06F
:10B560000025274C4FF002084FF46071DFB10A4606
:10B5700021492046FCF74FFFDDB1366825461022F1
:10B58000311D281DFCF747FF182206F1180105F1AF
:10B590001800FCF740FF706B6863C82206F517714E
:10B5A00005F5177003E015B30A4615483168FCF736
:10B5B00032FF6068012818D11249402201F5E47079
:10B5C000FCF729FF0F491C22403101F5E470FCF71C
:10B5D00022FF84F8609284F8A1A20B4884F8E292DA
:10B5E000E169C0F82210C4F80480BDE8F08704487F
:10B5F000FCF72AFFF7E7000000F00300582B0020BB
:10B600005C470020B8480020DC49002070B50546A2
:10B61000094801F0CFFC084C20602046FEF748FDA9
:10B62000C4F85C02A4F5E0632A462146BDE87040F8
:10B63000024801F0C4BC00005C47002000F0030099
:10B6400070B505460020FFF7E1FF040003D1034970
:10B65000284601F0A5FC204670BD00005C47002094
:10B660004FF48050704700002DE9F041074609482B
:10B67000094D401BC6080020044607E005EBC40046
:10B68000416838468847002802D1641CB442F5D38B
:10B69000BDE8F08174DD03006CDD03002DE9F041AD
:10B6A00007460948094D401BC6080020044606E02D
:10B6B00055F8341038468847002802D1641CB4423B
:10B6C000F6D3BDE8F081000074DD03006CDD0300FB
:10B6D000012201F0EFB938B5144602780B467AB171
:10B6E000012A04D0022A0DD0032A1BD112E0D0F87F
:10B6F0000150002221461846FEF798FDA84211D1BC
:10B70000012038BD01B02246BDE830400023401C76
:10B7100000F00AB8411C40220020009400F0FAF822
:10B720000128EED0002038BD2DE9F041AAB0054631
:10B730002020884628901E4617460124782102A81A
:10B74000FCF782FEFEF7A0FD2EB12022294620A89C
:10B75000FFF74EFC20AD28A90A48CDE900013B4681
:10B760004246094902A8FFF783FB28B9202229464F
:10B770000448FCF774FE00B100242AB02046BDE85E
:10B78000F0810000B04E002048D7030010B50648F5
:10B79000064C806B20B101F0F9FD08B1012000E0FA
:10B7A0000020207010BD00005C4700205C2B0020B2
:10B7B0002DE9F0410F4C07460D46E06BA26B0126C8
:10B7C0004119914201D9032610E00A492A465C3109
:10B7D00008443946FCF71FFEE06B064A2844E06344
:10B7E000403229463846FEF721FD20643046BDE848
:10B7F000F08100005C47002070B504004FF00105A7
:10B8000004D0B4F5007F03D9042508E0032506E041
:10B81000044900200870FFF773FE0348846328463C
:10B8200070BD00005C2B00205C4700202DE9F0413A
:10B83000064621480F46C16B806B814201D0082427
:10B8400036E01E4D287840B1FFF7FEFB30603946E8
:10B85000E86801F0A5FE04462AE001F097FD30B348
:10B8600000F034F80446002030603860012C16D116
:10B870003946E86801F094FE044601280FD1E968D2
:10B880003868012791F855203B4600210AB1012A6A
:10B8900000D101210022FFF7F1FB18B10424FFF7CA
:10B8A0002FFE05E0FFF7D0FB30602F7000E005248D
:10B8B0002046BDE8F08100005C4700205C2B0020A2
:10B8C00001480078704700005C2B002038B50F4C11
:10B8D000251D002094F86C31014602463BB194F8D6
:10B8E000D802B4F8DA2204F5B87504F53771084BBC
:10B8F0009C6800945B6800F00DF8012804D1281DB5
:10B90000BDE8384000F050B838BD0000DC4A0020E7
:10B910005C2B00202DE9F041A2B0064620200D4608
:10B9200020901F461446DDF8A080782102A8FCF77D
:10B930008BFD00202190FEF7A7FC25B12EB116202B
:10B9400022B0BDE8F0811320FAE720A91448CDE920
:10B95000000143463A46134902A8FFF789FA08B99D
:10B96000402C01D00A20EBE70D48224629464038FA
:10B97000FCF751FD0A4820214038FFF70AFB084830
:10B9800040214038CDE90001A0F14801044A21A836
:10B99000209BFFF747FA08B10520D1E70120CFE748
:10B9A000904E002048D7030070B5044690F854002C
:10B9B000012570B394F8550028B1012803D002285E
:10B9C00001D003282AD194F86E00032801D0142551
:10B9D00025E0207AE8B1E068342801D011251EE086
:10B9E000204601F07BFA68B1207898B194F85510A0
:10B9F0000C4849B1012907D06168C06881420ED85E
:10BA000010250CE012250AE061688068814206D2A8
:10BA1000F6E703E094F85500012800D00F252846EA
:10BA200070BD00005C4700202DE9F04104464068ED
:10BA300015461E4602680F466A432046FDF798FFEA
:10BA4000206833462A46D0F810C039462046BDE863
:10BA5000F041604701600B68114618472DE9F0413D
:10BA600028B1016819B1C969BDE8F04108470D4D19
:10BA70000D480024461B14270DE000BF04EB840092
:10BA800005EB8000016829B1C969884710B1012020
:10BA9000BDE8F081641CB6FBF7F0A042EED80020B0
:10BAA000F6E70000902B0020A42B00200448012181
:10BAB0004174007A08B100207047012070470000EF
:10BAC000C8500020012801D0032808D104490022D1
:10BAD00001284A7400D00020087401F0E5B87047CE
:10BAE000C850002070B50146022801D0032943D177
:10BAF000224C207A00283FD0012831D002282FD1B3
:10BB00001F4800230229006802D0032928D119E028
:10BB1000E360027912B1012A22D10BE0D0E9056578
:10BB2000721B142A00D314222A4482614569AA4256
:10BB30000ED015E00169491C0161426991420FD1A3
:10BB4000237213E0E268521CE260082A08D9E3601D
:10BB5000237202290AD00D21FEF78BFD01F09AF81D
:10BB6000607C28B1BDE8704000F0B4B90021F3E773
:10BB7000BDE8704001F098B870BD0000C8500020CA
:10BB8000802B00202DE9F84304461D4616460F463B
:10BB90000846DDF82080FDF7E5FE3046FDF7E2FEC1
:10BBA0002A4639462046FDF7E3FECDF8008020689E
:10BBB0002B463246D0F80CC039462046E047BDE857
:10BBC000F88370B541EA4201DDE904564FF0A04424
:10BBD00041EA830141EA052104EB800041EA064184
:10BBE000C0F8001770BD01224FF0A043824011B190
:10BBF000C3F808257047C3F80C257047094902228D
:10BC00000A60BFF36F8FBFF34F8F0A1D10600648A5
:10BC10000268002AFCD000200860BFF36F8FBFF3DA
:10BC20004F8F704704E5014000E40140094A0123B9
:10BC30001360BFF36F8FBFF34F8F01600648016839
:10BC40000029FCD000201060BFF36F8FBFF34F8F2F
:10BC50007047000004E5014000E4014070B50E4C5F
:10BC600001232360BFF36F8FBFF34F8F00230B4D72
:10BC700008E000BF51F8236040F823602E68002ED2
:10BC8000FCD05B1C9342F5D300202060BFF36F8F84
:10BC9000BFF34F8F70BD000004E5014000E4014098
:10BCA00001480068C0B270471C05004008B500227A
:10BCB00042504058009008BD20B103490968016016
:10BCC000002070470E2070474CDC0300FEB506468E
:10BCD0000D460846FFF7F0FF002844D100240094E9
:10BCE0000194012706208DF80060ADF8040002944D
:10BCF0008DF80270694620202A6869DF00948DF86B
:10BD000001708DF80240019402948DF80340694659
:10BD100040202A6869DF00948DF80060F720ADF8B4
:10BD2000020001940294694623202A6869DF009486
:10BD3000019402948DF80070694601202A6869DF39
:10BD40004FF4B0600090019402946946A1202A68E3
:10BD500069DF0094019402948DF800406946A020A8
:10BD60002A6869DF0020FEBD60DF002802D1024A98
:10BD700001211170704700008B2B002030B5154851
:10BD8000ADF5017D0078002821D04FF4FA7500BF91
:10BD9000ADF8005280A9684661DF38B1052816D099
:10BDA0000DF5017DBDE83040FDF764BE6C460A49E3
:10BDB0007DA800F0BBF806E0D0E9002120469047BE
:10BDC0007DA800F0CAF87F980028E1D0F4E70DF5CF
:10BDD000017D30BD8B2B002050DC0300F8B5134CE7
:10BDE0002078C0B10120A07001F0ACF8112814D067
:10BDF000022001F0BFF800258DF800506846FDF7DD
:10BE0000C1FE11DF064625709DF80000FDF7DEFE3D
:10BE10002EB13046F8BD0820F8BD0020F8BDA57051
:10BE200001F068FA032001F0A5F8F6E7882B00205E
:10BE30007CB5194C207808B108207CBD0120A07089
:10BE4000002001F07FF8112819D0002001F092F8AD
:10BE500012480026006801908DF800606846FDF7E2
:10BE600091FE0F4901A810DF05000AD000202070C4
:10BE70009DF80000FDF7AAFE2DB128467CBD0020EC
:10BE80007CBD0120F3E7A670667001F053FA012033
:10BE900001F070F8F3E70000882B0020E4DB0300DA
:10BEA000719A03000EB50749684600F03FF805E0B7
:10BEB000D0E900108847684600F04FF80298002843
:10BEC000F6D10EBD00DC0300014800787047000089
:10BED000882B00200548817819B1007818B1FFF748
:10BEE0007DBF08207047FFF7A3BF0000882B00200C
:10BEF0001FB568464BDF30B1052814D004B0BDE84B
:10BF00001040FDF7B7BD084901A800F00FF806E0A2
:10BF1000D0E900210098904701A800F01EF803988E
:10BF20000028E6D0F4E71FBD6CDC0300016009685F
:10BF30004160AFF3008010B5D0E900215368994209
:10BF400001D1002104E0D1E90034A34202D0194616
:10BF5000816010BD08314160F0E7816800290BD095
:10BF6000026892680A44826041684B689A4203D131
:10BF700008314160FFF7DFBF704700002DE9F04155
:10BF800004461348134BC01A0C21B0FBF1F6A0690C
:10BF90004FF0FF3110F8022C02B92169002011E0A6
:10BFA00000EB400503EB85052F68974209D14F1C34
:10BFB00002D06F688F4204D194E80F00AD68A847A3
:10BFC00003E0401CB042EBD301202060BDE8F081CB
:10BFD000C4DD0300B8DD030010B514461268083054
:10BFE000202A02D248F2145010BD002201F00FF8AE
:10BFF0000028F9D120202060002010BD083001F079
:10C000008FB8083001F04CB902480068002800D011
:10C01000012070470004014030B587B00C4605464A
:10C02000182216496846FCF7F6F9217B14488DF86A
:10C0300000100195012906D0022915D0062917D133
:10C04000607B049014E08188C180607B0490617CF7
:10C05000D4F80E0061F31F6005900498012807D101
:10C060000848FFF701FB03E0B4F80D108180C180A0
:10C070006846FFF74DF907B030BD000088D90300CE
:10C080002C2B00206CDD03002DE9F0410C46054609
:10C09000FFF716FC0826B8B16969032041B3154AB9
:10C0A000154B0F0505D0576DD3F808C00F446745F1
:10C0B0001ED1B1F5805F01D9042019E0506DD3F88D
:10C0C00008C04718674502D96670BDE8F081516421
:10C0D000D16C10659164106369695A6801F6FF714B
:10C0E0001044090B0022FFF799F80028EDD0052035
:10C0F0006070EAE75C470020482B002010B504463A
:10C1000086B00020FFF7AAFC30B1154A182120465E
:10C11000FDF7B2FC06B010BD182212496846FCF7C4
:10C120007AF91148026D114881688A4210D140683D
:10C13000FFF7CEFA8DF80100FEF7C5FA8DF8010081
:10C14000D4E90112684690470948FFF779FAE1E718
:10C1500001208DF80100D4E9011268469047D9E723
:10C16000FDC0030048DA03005C470020482B002094
:10C17000F5C103002DE9F0410E460446FFF7A0FB90
:10C1800060B11A4DD5E91401401AA18A6A6C0844BD
:10C19000904205D903207070BDE8F0810820FAE7CD
:10C1A000134A286B52688718104A20694832FEF7F4
:10C1B0003DF8D4E903318046A28A3846FFF744F8B7
:10C1C00020B1D4E90310BDE8F0410847A18A286BEB
:10C1D00008442863A18A286DC5F84880084428656A
:10C1E000C6F80880286D7060D6E700005C47002024
:10C1F000482B002001490620C9680847482B002029
:10C20000BFF34F8F05480168054A01F4E06111430F
:10C210000160BFF34F8F00BFFDE700000CED00E0B1
:10C220000400FA0501460148FEF7FEBB74DD030079
:10C2300030B58A1D8B79083187B0022B33D15388F2
:10C240008489A3422FD1127A012A2CD1184C0DF1E6
:10C25000040C3CCC8CE83C000A89ADF80C204A89DF
:10C260000C3104911249ADF80E208039114C096A45
:10C270000591CDF818D0018A05AA6088ADDF18B9FC
:10C280006846FDF709FF38B10020ADF8080001A9A4
:10C290006088B0DF50B106E040F2FD10ADF8080054
:10C2A00001A96088B0DF002007B030BD0120FBE7A6
:10C2B000A0D903002C2B0020F8B50D4614460646E5
:10C2C000694600F057FA00280FD0009BB3F5803F75
:10C2D0000AD2981C834207D8A9780222B2EB911F98
:10C2E00002D02989814201D20020F8BD2380A11CFF
:10C2F0003046009A00F074FBF8BD114600F0D6B845
:10C30000114600F0E3B8F8B50C46154606466946F6
:10C3100000F030FA00280CD0009A501C904207D34D
:10C32000A1780223B3EB911F02D02189814201D26F
:10C330000020F8BD2946304600F052FB009A00214B
:10C34000A954F8BD2DE9FF410C46CE6817460546B5
:10C35000694600F017FB00280ED0E06800280BD0DB
:10C36000A0783A46C0F3011002283146684606D04C
:10C3700000F0DAF80199696004B0BDE8F08100F0DE
:10C3800086F8F7E77CB50D461446694600F08FF94C
:10C39000002820D02889082806D0042809D002289F
:10C3A0000AD001280CD015E0DDE90001C4E9000144
:10C3B0000AE00098206006E0009800B2208002E0C9
:10C3C000009840B22070C117DDE900235040594069
:10C3D000084301D000207CBD01207CBD7CB50D460A
:10C3E0001446694600F0A1F9002820D028890828C1
:10C3F00007D00021042809D002280AD001280CD037
:10C4000014E0DDE90001C4E9000109E000982060C2
:10C4100006E0009880B2208002E00098C0B2207050
:10C42000DDE9002350405940084301D000207CBD85
:10C4300001207CBD7CB50D461446694600F075F9B7
:10C44000002821D02989082908D00098C21704297A
:10C450000BD002290DD001290ED014E0DDE9000235
:10C46000C4E900020146134609E0C31701462060F3
:10C4700005E001B2218001E041B22170CB174140BB
:10C480005340194301D000207CBD01207CBD70B514
:10C490000D46064614461146284600F08EFA2246FE
:10C4A00029463046BDE8704000F03EB838B50C462D
:10C4B0000422694600F094FA002806D09DF8031083
:10C4C000009861F31F602060012038BD1CB50C4648
:10C4D0000822694600F084FA002824D09DF8011053
:10C4E0009DF800209DF80230080E42EA012242EA3F
:10C4F000034240EA13409DF803309DF8041040EADF
:10C50000132008439DF8051042EA036240EA012027
:10C510009DF8061040EA01409DF8071040EA0160CE
:10C52000C4E9002001201CBD2DE9F04F04469DB058
:10C5300000200090064601904FF0FF3A0AA800F054
:10C540005DF94FF0010BE94682E012AB05AA06A99E
:10C55000204600F0C9F850B10AA8059900F05FF92B
:10C5600060B10B98807810F0300F53D060E09DF8E8
:10C570004800002870D11DB0BDE8F08F0598B0428A
:10C5800042D30B9D0AAE0B98807800F00F0008286C
:10C5900012D0304600F05AF90B98A842F3D1564613
:10C5A0000599B14230D3D4F8088009919DF818104C
:10C5B00008910E990D6820E00B980688F0E729682D
:10C5C0000F682FB1DDE9083229462046B84711E04F
:10C5D00011948968DDE90872098891420CD12946D5
:10C5E00017A8FEF777F985F80CB017AA3946119805
:10C5F000FDF7A9FE0028BED0AD6815B1A168414580
:10C60000DDD0A168414523D19DF81810204600F0E7
:10C6100023FA1BE00C9840280AD200F01F010BFA05
:10C6200001F00C994A0959F82230034349F82230A5
:10C63000E5682DB10AAB9DF8182020460599A8475A
:10C640000AAA9DF818102046FDF77DFE002892D01A
:10C65000A06800287FF479AFDDE90B0485780AA88B
:10C6600000F0F4F80028F7D115F0300F03D10B9843
:10C67000008800B1641CC4B10020494605E000BF39
:10C6800051F82020521C0ED1401CB0EB541FF7D3A0
:10C69000600959F8201004F01F00C0F120022AFAA6
:10C6A00002F0814201D0002065E7012063E71CB55C
:10C6B0000C46694600F039F8002814D0DDE9000284
:10C6C000C10709D051084FEA30006FEA00026FEA53
:10C6D0000100C4E9002004E051084FEA3000C4E939
:10C6E00000014FF001001CBDF8B50746002018708E
:10C6F00008700E4610601C4615466946384600F024
:10C7000039F801004FF0010009D0009959B1C8086B
:10C710002860009800F0070030700120F8BDB9686B
:10C7200009B10020F8BD2070FBE72DE9F843002691
:10C73000884681463446354604E0402E02D3002028
:10C74000BDE8F8836946484600F076F90028F7D03E
:10C750009DF80070324607F07F00C10FFBF74CFEDA
:10C7600029430443F61D0D463806E6D4C8E90041C6
:10C770000120E5E7F8B50E460746694600F05CF98A
:10C7800000280AD09DF80040200616D5072504F0A1
:10C790007F0403E0202D01D30020F8BD6946384610
:10C7A00000F04AF90028F8D09DF8001001F07F0051
:10C7B000A8400443ED1D0806ECD401203460F8BD08
:10C7C00010B559680B4AC968914212D10A4AD0E99A
:10C7D0000110D2E90134234301D0002008E011F810
:10C7E000013BA0F101001B06F9D4C2E901100120B0
:10C7F000907010BDD0D703005C2B0020C2600023D6
:10C800000160C0E901138B881A440261B1F9063056
:10C810001A4442610888002800D00120704770B592
:10C8200045680E46044660680188B14206D18078AA
:10C8300000F00F00082801D0012070BD204600F054
:10C8400005F86068A842EED1002070BD30B541689F
:10C850000A885AB101F1100343600A8A42B18C7808
:10C860000A89C4F30115032D07D00BE0002030BD69
:10C87000C2680168FFF7C2FFF8E79D78C5F30115AC
:10C88000032D06D00225B5EB141F08D14C89624355
:10C8900009E08D8804690022641B046103E0B5EBA4
:10C8A000941F00D10422897811F0300F02D18168E1
:10C8B000491C81609C880169214411440161B3F9DC
:10C8C000062011444161012030BD30B5416800248B
:10C8D00087B0897801F00F02082A11D08A091ED08A
:10C8E0000222B2EB911F09D10269C1F301110229A1
:10C8F000146001D0032901D14069048007B030BD24
:10C900000069056808E02C7329466846FDF7E2FFD8
:10C910006846FFF7DAFFAD68002DF4D1EEE7C1F30A
:10C920000111012912D00229E6D00329E4D042687E
:10C93000917801F00F0107290BD0D16881B11289DC
:10C94000006907B0BDE83040FBF765BD41690C7078
:10C95000EDE70169D06807B0BDE8304000F02DB8C0
:10C960001189006907B0BDE83040FBF76DBD0000DC
:10C9700010B5034B002408C080E8160010BD00006D
:10C98000FFA1030038B50D4604466946FFF7F2FEE5
:10C9900000280BD0D4E90002D4E90213C5E9000253
:10C9A000C5E902130098814201D2002038BDA86079
:10C9B000A168081AA060012038BD00B50A4687B0FA
:10C9C00001466846FFF71AFF002807D06846FFF7C0
:10C9D0007CFF6846FFF73AFF0028F7D107B000BD9B
:10C9E0007FB514460546A9B9124A2868904208D175
:10C9F00010E0102269462846FFF7F2FF002807D012
:10CA0000103C102CF5D8224669462846FFF7E8FF6F
:10CA100004B070BDA868A04201D20020F8E72B68DE
:10CA20002246284698470028F2D0A868001BA86034
:10CA30000120EDE7FFA1030010B50446806800283F
:10CA400009D02368012220469847002803D0A06817
:10CA5000401EA060012010BD38B5002439B1012965
:10CA600012D0022912D005291DD0002038BD05465C
:10CA7000012269462846FFF7B3FF90B19DF80000F8
:10CA80000006F5D4012038BD08220DE005466946B0
:10CA9000FFF770FE28B100212846009AFFF7A0FF9B
:10CAA00038BD204638BD0422BDE838400021FFF7DC
:10CAB00097BF00002DE9F04F81462C4817460E46DF
:10CAC000C5680A4693B0012449462846FDF71CFE76
:10CAD000DFF89C80A24670B195F8550068B100F06F
:10CAE0000101C0F340024B462846CDE9006700F043
:10CAF00043F8D8B11BE0172419E0CDE9006A4B4692
:10CB00000022294602A8FDF7D9FA4FF0000B68B1C0
:10CB10000FB3412202A91748FBF77DFCC8F820B0EB
:10CB2000C8F82CA06968C8F8081017E005246FB190
:10CB3000012C13D00E482430FEF796FAFEF7E0FCE5
:10CB4000C8F8489013B02046BDE8F08F012C02D001
:10CB5000FEF7D6FCF6E7C8F814A0F3E7002231464A
:10CB60004846FDF763FBC8E90960E7E75C2B002056
:10CB70005C470020FD4900202DE9F047A4B089461C
:10CB8000DDE92C5A044698461646442102A8FBF7D4
:10CB90005BFC442113A8FBF757FC4746B9F1000F93
:10CBA00038D008F50050384A4368A16D934255D1FA
:10CBB0004B1EC3F30B03C91A41F6FF73D0F808C02C
:10CBC00019448C454AD34FF440514B6893420DD1E0
:10CBD0000A78102A01D9096900E000210278102A98
:10CBE00001D9006900E00020814237D14046FDF7BD
:10CBF00041FE00B18EB30121A06DCDE90001434695
:10CC00000022214602A8FDF759FA002827D0A06D7E
:10CC100007442D1A56B10020CDE900503B464A4644
:10CC2000214613A8FDF74AFA002818D0BAF1000FE0
:10CC300028D0164DB9F1000F19D04046FDF71AFE65
:10CC400018B105F11800FEF70FFA412202A91048A9
:10CC5000FBF7E1FB36B1AC2005E0FFE7002024B094
:10CC6000BDE8F087A520E862A06D686301E0AA2016
:10CC7000E8623EB10648412213A98230FBF7CBFBA4
:10CC80006068E8600120EAE7DBE5B1515C4700201D
:10CC9000BC490020034802490068FDF771BE00004E
:10CCA000842B0020A4DA03002DE9F041224C00255A
:10CCB000224E207A012730B92148311D0068FDF746
:10CCC0006AFE306038B1022020723168087928B1DC
:10CCD00001281CD114E06560BDE8F081D1E90503AD
:10CCE000C01A142800D31420B7EB900F01D2820889
:10CCF00000E001220869C9681844194429DF03E0EB
:10CD0000D1E90301084428DF58B1112812D00321CA
:10CD10003068FDF7AEFC25726560BDE8F041FFF7B5
:10CD2000B9BF207C0028D7D1BDE8F0410021022006
:10CD3000FEF7D8BE2772CFE7C8500020802B002016
:10CD4000A4DA030010B5074C201DFDF73DFE0028B6
:10CD500006D1607C002803D1BDE81040FFF7A4BFD6
:10CD600010BD0000C850002010B510461A46FBF751
:10CD700052FB002010BD10B510461A46FBF74BFBC6
:10CD8000002010BD2DE9F0411E681C4615460746DF
:10CD900021B1012918D0052923D119E000202060F4
:10CDA000401C2060B0421CD8012229463846FFF7BB
:10CDB00017FE002806D015F8010B000601D52068E3
:10CDC000EEE70120BDE8F08108200246186002E08D
:10CDD00004200246186029463846BDE8F041FFF7B6
:10CDE000FFBD0020EEE770B516460A460446C11C9A
:10CDF000104600F0B3FB054661193046C91C00F02F
:10CE0000ADFB284470BD000003B5094A85B0D2E9E6
:10CE10001612CDE9001207498989ADF8001006A95C
:10CE2000CDE90210044869464088AEDF07B000BD76
:10CE300020D90300003000202C2B0020084670472A
:10CE40000846704770B5FEF70BFC114A114E136B84
:10CE5000546B916CE21A551EC5F30B05521B42F23E
:10CE6000040518446D5802F6FF72B54201D0032044
:10CE700070BD1944A34201D1002070BD0823FDF705
:10CE80007BFC0028F9D1BDE87040FEF7D9BB00005B
:10CE90005C470020DBE5B151F0B5054600200346B4
:10CEA0004FF440540C4E4FF6FE7712E0D4F804C015
:10CEB000B44505D155F823C0B4F80CE0F44504D0CE
:10CEC0002AB155F823C0BC4501D10120F0BD5B1C3F
:10CED000DBB28B42EAD3F0BDDBE5B15110B54FF4C4
:10CEE0004051174B4A68018A9A4221D171B100F131
:10CEF0001403426990F8550062B1042808D000225A
:10CF0000BDE81040C9B21846FFF7C6BF002010BDEB
:10CF10000122F5E710B1012808D1F7E7012905D969
:10CF2000C9B200221846FFF7B7FFEFE7012010BD96
:10CF300011B141690029E9D100780028F6D110BD6E
:10CF4000DBE5B1513EB5044609496846FEF7EEFF00
:10CF500008E000BFD0E900212046904730B1684684
:10CF6000FEF7FBFF02980028F4D13EBD11203EBD24
:10CF7000E8DB03003EB5044608496846FEF7D6FFE5
:10CF800007E000BFD0E90021204690476846FEF741
:10CF9000E4FF02980028F5D13EBD0000F4DB030059
:10CFA00002460348014B006800F009B8DC4300204A
:10CFB000582B002000225821001DFDF737B92DE91C
:10CFC000F04114464FF460751E460F4680462A46CF
:10CFD000FBF745FA30B1002201214046FEF71EF969
:10CFE00098B905E00CB10020A0470020BDE8F08111
:10CFF0002A4639463046FBF70EFA23462A46314682
:10D000004046FEF721F90028F0D00320EEE770B586
:10D0100016460D46040007D035B1206C8022002151
:10D020003828225403D307E00E2070BD2154401C41
:10D030003828FBD30BE02154401C4028FBD3214669
:10D04000084600F097F838212046FBF7FDF9216CDF
:10D05000D4E912304A0FC900383459185041C4E994
:10D060000410227CE2710A0A42EA0062A2710A0CF0
:10D0700042EA00426271020242EA11602071606974
:10D08000E070010AA170010C6170000E04F838090B
:10D090002146084600F06EF84FF00002EEB1E06E57
:10D0A000D100C840A854A36ECB40A8180371636E8A
:10D0B000CB400372236ECB400373E36DCB4003740C
:10D0C000A36DCB400375636DCB400376236DCB40DE
:10D0D000521C0377042AE2D31FE018235042216D2B
:10D0E00003EBC000C140A954666DC640A9180E717B
:10D0F000A66DC6400E72E66DC6400E73266EC64023
:10D100000E74666EC6400E75A66EC6400E76E66E4E
:10D11000C640521C0E77042AE0D3002070BD0000E8
:10D12000A8B100210164C0E912110A4901650A4948
:10D1300041650A4981650A49C1650A4901660A498A
:10D1400041660A4981660A49C166002070470E207F
:10D150007047000067E6096A85AE67BB72F36E3CF4
:10D160003AF54FA57F520E518C68059BABD9831FB2
:10D1700019CDE05B2DE9F04FC8B0002213466F4691
:10D18000CC181B1D2568E4782DBA25F0FF05254332
:10D1900047F82250521C102AF2D31BE007EB820101
:10D1A00051F8083C4FEA734484EAF34484EA932438
:10D1B00051F83C3C4FEAF31585EAB34585EAD303C1
:10D1C000234451F81C4C51F8401C2144194447F8A1
:10D1D0002210521C402AE1D3036D4793416D4691C2
:10D1E000846D4594C26D44929246026E4392456EA0
:10D1F0004295A946856E4195C66E4096B346002677
:10D200004FEAB21787EAF22787EA726C02EA090747
:10D2100025EA020887EA0807BC44204F57F8268011
:10D2200008EB0B07BC445DF82670AB460CEB070E11
:10D230004FEAB30787EA733787EAB35C81EA0407EA
:10D240004D4601EA040891461F400AEB0E02A24631
:10D2500087EA08070C46BC441946761C0EEB0C0303
:10D26000402ECDD3479E33440365469B1944416508
:10D2700045992144816544995144C16543991144BC
:10D280000166429949444166419929448166409921
:10D290005944C16648B0BDE8F08F0000D4DA0300FD
:10D2A0002DE9F04116460F46040004D006B317B12D
:10D2B0000025A8461AE00E20BDE8F081216C785DBB
:10D2C0006054206C401C206440280ED12146084642
:10D2D000FFF750FFD4E912014FF40072801841F1BA
:10D2E0000001C4F84080C4E912016D1CB542E5D3C9
:10D2F0000020E1E710B51620FCF722FB48B10C48EE
:10D3000082684FF4800152B1016821F4800101600C
:10D3100010BDBDE8104042F20100FCF7ABBB4FF07E
:10D32000E020C0F88011BFF34F8FBFF36F8F10BDA7
:10D33000D04E002010B51620FCF702FBA0B111481A
:10D3400090F800044009082811D20121814011F011
:10D35000EC0F0CD00C4882684FF480016AB1016870
:10D3600041F48001016010BD42F2010001E042F28F
:10D370000200BDE81040FCF77DBB4FF0E020C0F894
:10D38000001110BD16E000E0D04E00207FB52A4805
:10D3900000F15C01826B6846FFF7EAFA274E9DE8D0
:10D3A000070006F11C03274C83E8070019462448B0
:10D3B000C8600020A0706060A0604FF44771A6F5BF
:10D3C0004070FBF741F8A6F540721F4902F547701F
:10D3D000FFF75DF800282BD0A07858B3A6F5407071
:10D3E00090F86C11002901781CD019BB90F87201DB
:10D3F00000B3D4E90112A6F5C6756846FFF7B8FA7E
:10D400009DE80F001C3686E80F004FF4B2712846E5
:10D41000FBF71AF82A460D493046FFF738F800287E
:10D4200006D003E031B1807920B1094D0120E560DB
:10D4300004B070BD0020FBE75C470020DC4D0020FD
:10D44000C1C703005C2B0020F0D80300D0D7030035
:10D45000E44A002070B503466FF07F40814200D25D
:10D460000846124DD5F804250244081A411E22F040
:10D470007F425860952902D29630963A58601C7BBC
:10D4800005EB8400C0F8402509494FF4F86088474F
:10D490004FF4A07000EB84012846FEF707FC4FF420
:10D4A0008030A040C5F8040370BD000000100140AA
:10D4B00041D7030070B5184E307800282AD117489C
:10D4C00000680125C0F3004008B915480560154CF7
:10D4D0004FF480712046FEF7E9FB4FF4A07120461F
:10D4E000FEF7E4FB4FF4A2712046FEF7DFFB0E4986
:10D4F000A02081F800044FF0E0224FF4003100201A
:10D50000C2F80011C4F80805A56025600220C4F81F
:10D510000403357070BD0000F42A00201804004098
:10D52000080000400010014011E000E070B5154611
:10D530000E460446FFF7BEFF314620462560BDE893
:10D540007040FFF787BF0000017B4FF480308840B8
:10D550000149C1F808037047001001400870020A31
:10D560004A70020C8A70000EC870042070470000D8
:10D5700010B50248FDF725FA002010BD7C2B0020D5
:10D5800010B514210448FAF75FFF04480068FDF75E
:10D59000D1F9002010BD0000C8500020A4DA03001B
:10D5A00030B50F2490F8553000220BB1042B03D175
:10D5B00090F86450012D06D0DD0707D090F8565042
:10D5C000012D02D002E0826E0DE0826D9B070AD52C
:10D5D00090F85C30012B06D1064B006EC3F5783312
:10D5E000984205D802440AB101240A60204630BDA1
:10D5F0000424FBE70080030030B10068054988423D
:10D6000005D048F20250704748F2015070470020A0
:10D61000704700006E52464870B5FEF7F5FC0028D2
:10D6200011D00020084A094B094C0121166801FA63
:10D6300000F52E4203D004EB8005C5F80036401CEF
:10D64000C0B20728F2D370BD080501403546526EBE
:10D6500000000140FFF7E0BF002070470020704746
:10D660002DE9FC4180461C4617460E460C48089D95
:10D67000FDF7AAF910B11120BDE8FC81A2083946D6
:10D680003046FEF7EBFA0648FDF79BF933463A467B
:10D6900001214046CDE90045FCF7D0FF0020EBE733
:10D6A0007C2B00202DE9F84F114D884681461E46FF
:10D6B00017466946DDF828A02868FDF756F90400EA
:10D6C00013D01C21FAF7C0FE00202071C4F800908E
:10D6D000C4E90486C4E902A769462868FDF766F92B
:10D6E000FFF730FB0020BDE8F88F0420FBE70000C7
:10D6F000A4DA030092E93DA8F4A5A1918065D2E8DF
:10D7000072B1104F4C7F39844E27C7EA61906AF599
:10D7100036F9951B55285C8B9C7B71E1F1616E633A
:10D720005D76CB5C1DE662356A2B869BCD35525605
:10D73000AF55E3920D0E0F100B0C181900000000EE
:10D740000738FDD870470000FDBF030003C0030089
:10D75000D9BF030020000000780000000000000096
:10D7600048002800002040008D87030000000000D2
:10D7700001000100000000000100000000000000A6
:10D78000020005000100000022000000000000006F
:10D790000000000000000000000000000000000089
:10D7A0000100010000000000010000000000000076
:10D7B000020005000100000042000000000000001F
:10D7C0000000000000000000000000000000000059
:10D7D000010011000400FCFF040000000000000034
:10D7E000020011000400FCFF040000000000000023
:10D7F000030021000400FCFF0400100000000000F2
:10D80000040011000100FFFF010000000000000003
:10D81000050011000200FEFF0400000000000000EF
:10D82000060011000400FCFF0400000000000000DE
:10D83000070011000400FCFF0400000000000000CD
:10D84000080017000200FEFF2400000070D703004C
:10D85000090010000100FFFF010000006CD7030069
:10D860000A0027000200FEFF44000300A0D70300C7
:10D8700000000000000000000000000000000000A8
:10D88000010011000100FFFF010000000000000086
:10D89000020017000200FEFF64010000D0D7030061
:10D8A0000000000000000000000000000000000078
:10D8B00001000700000000006801000080D803009C
:10D8C0000200010000000000010000000000000054
:10D8D00003000500010000004200000000000000FD
:10D8E0000000000000000000000000000000000038
:10D8F000010017000400FCFF6801000080D803004D
:10D90000020017000400FCFFAC010000B0D80300C7
:10D910000000000000000000000000000000000007
:10D9200000110300001113000200000001000000BC
:10D930000738FDD870470C000C00000058020000AA
:10D9400002000000000000000200000000000000D3
:10D95000C42F0020090000000000000000000000AB
:10D96000010000000000000028000000000000008E
:10D9700000000000000100000000010000000000A5
:10D980000000000000000000000000000000000097
:10D99000119D0300000000000000000000000000D6
:10D9A0000200000000000100000000000000000074
:10D9B0000800000000000000119D030025C20300C4
:10D9C0000000000000000000040000000000000053
:10D9D0000000000000000000000000000000000047
:10D9E0000000000000000000000000000000000037
:10D9F000F40000000000000018000000000000001B
:10DA00000000000000000000000000000000000016
:10DA10000000000000000000000000000000000006
:10DA2000170000000000000050EADA308883B89F39
:10DA3000604F15F30000C98E0200000000000000D6
:10DA400000000000000000000400000000000000D2
:10DA500000000000000000000000000000000000C6
:10DA600000010000000000000000000000000000B5
:10DA70000000000000000000001000000400000092
:10DA80000100000011A8030071D5030069CD030057
:10DA900061D60300A9A503003DCE030059D60300BB
:10DAA00055A80300DC4E0020001000000400000018
:10DAB000010000001DA8030081D5030077CD0300FD
:10DAC000A5D60300F1A5030041CE03005DD60300F7
:10DAD00065A80300982F8A4291443771CFFBC0B5E7
