:020000040002F8
:10700000E8740020DD730200E5730200E7730200FC
:10701000E9730200EB730200ED7302000000000050
:10702000000000000000000000000000EF730200FC
:10703000F173020000000000F3730200F573020018
:10704000D98A0200F7730200AD950200F7730200BF
:10705000F7730200000000001D8A0200000000001B
:107060004D950200659502007D950200F7730200C0
:10707000F7730200F7730200F7730200F773020060
:1070800001A00200E5920200F7730200F77302000C
:10709000F7730200F773020089930200F77302008E
:1070A000F7730200F77302009595020000000000DC
:1070B00000000000000000000000000000000000D0
:1070C00000000000000000000000000000000000C0
:1070D000000000000000000000000000F773020044
:1070E00000000000000000000000000000000000A0
:1070F0000000000000000000000000000000000090
:10710000000000000000000000000000000000007F
:10711000000000000000000000000000000000006F
:10712000000000000000000000000000000000005F
:10713000000000000000000000000000000000004F
:10714000000000000000000000000000000000003F
:10715000000000000000000000000000000000002F
:10716000000000000000000000000000000000001F
:10717000000000000000000000000000000000000F
:1071800000000000000000000000000000000000FF
:1071900000000000000000000000000000000000EF
:1071A00000000000000000000000000000000000DF
:1071B00000000000000000000000000000000000CF
:1071C00000000000000000000000000000000000BF
:1071D00000000000000000000000000000000000AF
:1071E000000000000000000000000000000000009F
:1071F000000000000000000000000000000000008F
:10720000DFF80CD000F016FA0048004785CF0200E6
:10721000E874002000B583B002900091019244F21E
:10722000010071466A4603F0A1F903B000BD0000F9
:1072300030B450E8012F93B2C48923448489A34217
:1072400028BF1B1B0489A34202BFBFF32F8F00205E
:1072500007E0C3EA020340E80134002CE9D14FF013
:1072600001000A6030BC704750E8012FC2EA0242B8
:1072700040E801210029F7D1704730B450E8022FCF
:107280001FFAA2F3C488A34202BFBFF32F8F0020CE
:107290000DE0C48923448489A34228BF1B1BC2EA92
:1072A000034340E80234002CE8D14FF001000A60AB
:1072B00030BC704750E8022FC2EA224240E8022167
:1072C0000029F7D17047034653E8022FD988B2EB63
:1072D000324F4FF0000017BF92B241EA014142EA3B
:1072E000014104E05A68B2EB324F08BF012043E885
:1072F0000212002AE8D1704730B4044654E8000F67
:107300000D4644E80053002BF8D1156030BC70479F
:1073100030B4044654E8000F40EA010544E8005345
:10732000002BF7D1156030BC704730B4044654E8E8
:10733000000F00EA010544E80053002BF7D1156067
:1073400030BC704730B4044654E8000F80EA0105B1
:1073500044E80053002BF7D1156030BC704730B4BF
:10736000044654E8000F00EB010544E80053002BED
:10737000F7D1156030BC704730B4044654E8000FB4
:10738000A0EB010544E80053002BF7D1156030BC99
:10739000704770B404464FF0000054E8006F0D6869
:1073A000AE4207BF44E80023012044E800630E60BA
:1073B000002B1CBF0020F0E770BC704730B40446BF
:1073C00054E8000F88422CBF451A054644E8005394
:1073D000002BF5D1156030BC70470000064880478F
:1073E00006480047FEE7FEE7FEE7FEE7FEE7FEE7AA
:1073F000FEE7FEE7FEE7FEE7A1930200017202004E
:107400002DE9F05F0546002092469B4688460646D9
:10741000814640241BE0284641464746224600F06C
:107420002FF853465A46C01A914110D311461846B8
:10743000224600F016F82D1A67EB01084F46224647
:107440000120002100F00DF817EB00094E41201E2D
:10745000A4F10104DFDC484631462A464346BDE834
:10746000F09F202A04DB203A00FA02F10020704746
:107470009140C2F1200320FA03F319439040704772
:10748000202A04DB203A21FA02F00021704721FA79
:1074900002F3D040C2F120029140084319467047E0
:1074A00000487047782F030040EA01039B0703D090
:1074B00009E008C9121F08C0042AFAD203E011F833
:1074C000013B00F8013B521EF9D27047D2B201E0F5
:1074D00000F8012B491EFBD270470022F6E710B5D9
:1074E00013460A4604461946FFF7F0FF204610BD32
:1074F000421E12F8013F002BFBD111F8013B02F8AC
:10750000013B002BF9D17047421C10F8011B0029E8
:10751000FBD1801A704710B5002200E0521C835C3A
:107520008C5CA34201D1002BF8D1D8B2E1B2401A51
:1075300010BD30B504460020034600E05B1C9342BA
:1075400003D2E05CCD5C401BF8D030BD034611F89F
:10755000012B00F8012B002AF9D11846704730B5ED
:1075600005460020034600E05B1C934205D2EC5C1C
:10757000C85C201A01D1002CF6D130BD70B506468A
:1075800002F018FE046805460A220021304600F089
:1075900018F82C6070BD30B50B4601460020202243
:1075A000012409E021FA02F59D4205D303FA02F510
:1075B000491B04FA02F52844151EA2F10102F1DC70
:1075C00030BD2DE9F04791460F468046044600261F
:1075D00014F8015B2DB1FFF763FF0068405DC00741
:1075E000F6D12B2D02D02D2D18D0641E4A463946D7
:1075F000204600F031F827B13968A14201D1C7F81F
:10760000008071054FF002040BD54042002803DDD5
:1076100002F0D0FD0460A007BDE8F08746F4806664
:10762000E4E70028F8DA02F0C5FD04606FF00040DE
:10763000F2E70000064C074D06E0E06840F0010369
:1076400094E8070098471034AC42F6D3FFF7DCFD0E
:10765000BC370300DC3703002DE9F05F8246007879
:10766000002715468B460AF10104B946302801D09F
:107670009DB113E014F8010B0127782803D0582896
:1076800001D045B10AE00DB1102D07D1002710251A
:1076900014F8010B02E0082500E00A250026B04698
:1076A0000EE005FB080005FB06F1012701EB104683
:1076B0001FFA80F8B6F5803F00D3B94614F8010BE5
:1076C000294600F018F80028EBDABBF1000F05D0CE
:1076D0000FB1641E00E05446CBF80040B9F1000F32
:1076E00006D002F067FD02210160C81EBDE8F09FD0
:1076F00048EA0640FAE73A2800D2303820F0200263
:10770000412A01D3A2F13700884201D34FF0FF3064
:10771000704770B58C1810F8015B15F0070301D1A4
:1077200010F8013B2A1106D110F8012B03E010F8E4
:10773000016B01F8016B5B1EF9D12B0705D4002307
:10774000521E0DD401F8013BFAE710F8013BCB1AA9
:10775000921C03E013F8015B01F8015B521EF9D59E
:10776000A142D8D3002070BDF8B50446684601F0A8
:1077700025FD14B1032C11D111E00321094803F0B8
:1077800066FD054600BF2E4636B100BF06A25A214F
:107790003046FFF73FFD00BF00BF00E000BF00BF65
:1077A000F8BD0000444C00202E2E5C2E2E5C2E2EA8
:1077B0005C2E2E5C2E2E5C2E2E5C2E2E5C75736540
:1077C000725C757365725F626C652E630000000009
:1077D000F0B5B9B004460D46ADF8D84036A885607E
:1077E0001220ADF8DC0001A801F0B0FAAC210BA822
:1077F000FFF773FE00208DF82E0006208DF82F0075
:107800000AA80C9036A8149002208DF86800012177
:10781000ADF8781010491F9101218DF8A810079933
:107820002D9109992E910D4834900BA90C4803F025
:107830006CFC064600BF374637B100BF09A24421A1
:107840003846FFF7E7FC00BF00BF0121044803F002
:1078500059FC39B0F0BD0000683B00206977020098
:10786000444C00202E2E5C2E2E5C2E2E5C2E2E5C88
:107870002E2E5C2E2E5C2E2E5C757365725C7573DD
:1078800065725F626C652E630000000070B50321B5
:10789000094803F0DCFC044600BF254635B100BFB3
:1078A00006A265212846FFF7B5FC00BF00BF0120F6
:1078B00001F04EFC70BD0000444C00202E2E5C2ECA
:1078C0002E5C2E2E5C2E2E5C2E2E5C2E2E5C2E2EF2
:1078D0005C757365725C757365725F626C652E634F
:1078E0000000000070B50A4991F8540074DF0446A6
:1078F00000BF254635B100BF06A26E212846FFF71E
:1079000089FC00BF00BF002001F022FC70BD000018
:10791000444C00202E2E5C2E2E5C2E2E5C2E2E5CD7
:107920002E2E5C2E2E5C2E2E5C757365725C75732C
:1079300065725F626C652E6300000000F0B5A1B057
:1079400004460D46ADF8004002951220ADF8040043
:107950003C2112A8FFF7C1FD3C2103A8FFF7BDFDA4
:1079600000208DF84A00CDF86CD006208DF84B0031
:107970000120ADF81C000C49089102208DF80C0084
:1079800003AA12A9094803F05AFB064600BF37466E
:107990003FB100BF06A24FF4CA713846FFF73AFC68
:1079A00000BF00BF21B0F0BD683B0020444C002068
:1079B0002E2E5C2E2E5C2E2E5C2E2E5C2E2E5C2E01
:1079C0002E5C2E2E5C757365725C757365725F62DA
:1079D0006C652E630000000013210248008876DFEA
:1079E00070470000583B0020F8B505460F46288830
:1079F000212843D006DC10280BD011282CD01328C6
:107A000077D14EE03B2876D052285ED05628F7D169
:107A100082E0012001F02EFC49494A4A891AC9082E
:107A2000032242EA014048A107F06AF9A8884949BF
:107A3000088008460188484805F0DFFE044600BF7C
:107A400026463EB100BF45A24FF4F5713046FFF720
:107A5000E1FB00BF00BF71E0002001F00BFC3849E2
:107A6000384A891AC908032242EA014045A107F0B1
:107A700047F94FF6FF70374908805FE0002000901B
:107A8000A88869468FDF044600BF26463EB100BF86
:107A900032A240F2FD113046FFF7BCFB00BF00BF31
:107AA0004CE000231A4685212A4800887FDF0446DF
:107AB00000BF26463EB100BF28A240F20321304657
:107AC000FFF7A8FB00BF00BF38E000231A461946A5
:107AD00020480088B1DF044600BF26463EB100BF03
:107AE0001EA240F209213046FFF794FB00BF00BF01
:107AF00024E022E0FFE7A888132176DF044600BFD8
:107B000026463EB100BF15A24FF404713046FFF780
:107B100081FB00BF00BF11E0A888132176DF044677
:107B200000BF26463EB100BF0CA240F217213046EE
:107B3000FFF770FB00BF00BF00E000BF00BFF8BD53
:107B400074380300EC370300436F6E6E6563746531
:107B500064000000583B0020384C00202E2E5C2E84
:107B60002E5C2E2E5C2E2E5C2E2E5C2E2E5C2E2E4F
:107B70005C757365725C757365725F626C652E63AC
:107B800000000000446973636F6E6E656374656422
:107B90000000000010B5044600BF04A24FF4867137
:107BA0002046FFF737FB00BF10BD00002E2E5C2ED5
:107BB0002E5C2E2E5C2E2E5C2E2E5C2E2E5C2E2EFF
:107BC0005C757365725C757365725F626C652E635C
:107BD0000000000030B587B01C216846FFF77DFC2F
:107BE000002000904FF4A03001904FF4F02002905C
:107BF00003208DF80C004FF6FF70ADF80E00012049
:107C00008DF810000020059009480690684603F0A2
:107C1000D9FB044600BF25463DB100BF05A24FF485
:107C200084712846FFF7F6FA00BF00BF07B030BDE9
:107C3000957B02002E2E5C2E2E5C2E2E5C2E2E5C52
:107C40002E2E5C2E2E5C2E2E5C757365725C757309
:107C500065725F626C652E630000000030B58DB008
:107C6000684601F073F800BF9DF8280020F00F006F
:107C7000401C0A909DF8280020F0F00010300A9077
:107C800000BF6846FFF740FC85B22A4669460AA84D
:107C90007CDF044600BF254635B100BF14A2EB21AE
:107CA0002846FFF7B7FA00BF00BF00200B900C90EA
:107CB0001948008EADF82C001748408EADF82E0004
:107CC0001548808EADF830001348C08EADF83200F4
:107CD0000BA87ADF044600BF254635B100BF04A2D9
:107CE000F5212846FFF796FA00BF00BF0DB030BD62
:107CF0002E2E5C2E2E5C2E2E5C2E2E5C2E2E5C2EBE
:107D00002E5C2E2E5C757365725C757365725F6296
:107D10006C652E63000000007850002070B50021D3
:107D2000084805F089FC044600BF25463DB100BF68
:107D300005A240F221112846FFF76CFA00BF00BFF0
:107D400070BD00001C4C00202E2E5C2E2E5C2E2EB2
:107D50005C2E2E5C2E2E5C2E2E5C2E2E5C7573659A
:107D6000725C757365725F626C652E630000000063
:107D70002DE9F0410546287800283FD12049214AC5
:107D8000891AC908032242EA01401FA106F0B8FF80
:107D9000002623E000BF2969885D02F06FFE0446DB
:107DA000002C18D0112C16D01549164A891AC9086A
:107DB000012242EA0140224617A106F0ABFF00BFB4
:107DC00027463FB100BF1FA24FF4A1713846FFF70D
:107DD00021FA00BF00BF112CDDD0761CA88AB0426A
:107DE000D8D8A88A401E2969085C0D2805D100BF93
:107DF0000A2002F043FE1128FAD000BFBDE8F0814E
:107E000074380300EC37030072656365697665209A
:107E100073756363657373004661696C6564207292
:107E20006563656976696E67204E5553206D65738D
:107E3000736167652E204572726F722030782578E5
:107E40002E2000002E2E5C2E2E5C2E2E5C2E2E5C04
:107E50002E2E5C2E2E5C2E2E5C757365725C7573F7
:107E600065725F626C652E630000000010B5044609
:107E700000BF04A24FF4DD712046FFF7CBF900BF2D
:107E800010BD00002E2E5C2E2E5C2E2E5C2E2E5C45
:107E90002E2E5C2E2E5C2E2E5C757365725C7573B7
:107EA00065725F626C652E630000000070B5044669
:107EB0002078032802D0042810D104E06568284601
:107EC00000F0A2FA0BE00749074A891AC908032201
:107ED00042EA014005A106F013FF00E000BF00BF29
:107EE00070BD000074380300EC3703005363616E0B
:107EF0002074696D6564206F75742E007FB5002055
:107F000000900190029003901C4800901C4A694622
:107F10001C4805F087FD044600BF254635B100BF6B
:107F200019A294212846FFF775F900BF00BF204829
:107F3000FFF7EAFA80B11E4A0021124805F010FD51
:107F4000044600BF254635B100BF0FA29B2128463D
:107F5000FFF760F900BF00BF00221F21094805F0AC
:107F600030FD044600BF254635B100BF06A2A12161
:107F70002846FFF74FF900BF00BF7FBD5A3B0020E6
:107F8000AD7E0200785000202E2E5C2E2E5C2E2E10
:107F90005C2E2E5C2E2E5C2E2E5C2E2E5C75736558
:107FA000725C757365725F626C652E630000000021
:107FB0009C2E030070B5094805F084FE044600BFFE
:107FC000254635B100BF06A2C9212846FFF722F990
:107FD00000BF00BF012001F047F970BD78500020BC
:107FE0002E2E5C2E2E5C2E2E5C2E2E5C2E2E5C2ECB
:107FF0002E5C2E2E5C757365725C757365725F62A4
:108000006C652E630000000010B505F0A5FE002091
:1080100001F02AF910BD00007CB500200090144842
:1080200000906946134805F0F8FB044600BF25465A
:108030003DB100BF10A240F2AD112846FFF7EAF8AB
:1080400000BF00BF002001901548019001A915480C
:1080500003F032FB044600BF25463DB100BF06A237
:1080600040F2B5112846FFF7D5F800BF00BF7CBD30
:108070006D7E0200384C00202E2E5C2E2E5C2E2EA3
:108080005C2E2E5C2E2E5C2E2E5C2E2E5C75736567
:10809000725C757365725F626C652E630000000030
:1080A000717D02003C3B002038B507F07DFB0446A3
:1080B00000BF25463DB100BF15A240F2CD112846B4
:1080C000FFF7A8F800BF00BF00200090694601201C
:1080D00007F066F9044600BF25463DB100BF0CA27B
:1080E00040F2D3112846FFF795F800BF00BF68465D
:1080F00007F024FA044600BF25463DB100BF04A2A4
:1081000040F2D7112846FFF785F800BF00BF38BD01
:108110002E2E5C2E2E5C2E2E5C2E2E5C2E2E5C2E99
:108120002E5C2E2E5C757365725C757365725F6272
:108130006C652E630000000010B51421014800F0AA
:10814000FFFB10BD3054002030B500200F4C00253F
:1081500025606560002116E0002200230FE00C4C32
:1081600004EB8104A45C0CB95C1CE3B2042B04D1C5
:108170000124064D6C54441CE0B2541CE2B2042AA3
:10818000EDDB4C1CE1B20829E6DB30BD993B002059
:108190007854002000B585B000F010F80021684642
:1081A00000F0ECFCFFF79EFB69464EF61370FFF7FC
:1081B000C5FBFFF76BFB05B000BD000070B586B0D6
:1081C0000024002500261F4890F854008DF8040074
:1081D0001C4890F855008DF8150000BF10E00025F0
:1081E0000AE01848343000EB8400415D01AA701C9D
:1081F0001154C6B2681CC5B2042DF2DB601CC4B2B7
:10820000042CECDB002101A800F0ECFC042410E0BD
:1082100000250AE00B48343000EB8400405D01A9E2
:108220008855701CC6B2681CC5B2042DF2DB601CF8
:10823000C4B2082CECDB012101A800F0D3FC06B08D
:1082400070BD0000445400202DE9F04704464FF073
:108250000008C146C246A078454981F85400A0787C
:10826000C11700EB91714FEAA10AFFF76DFF81463C
:10827000A01C00F039F93E4981F85500E37C91F8E3
:1082800055203C49DFF8F0C0A1EB0C01C9084FF0C4
:10829000030C4CEA014039A106F048FD344890F83F
:1082A0005500E17C88420BD03249334A891AC9080B
:1082B000032242EA01403AA106F022FDBDE8F08720
:1082C000B9F1000F0AD12B492B4A891AC908032298
:1082D00042EA014036A106F013FDEFE7BAF1010FC3
:1082E00009D0BAF1020F09D0BAF1030F09D0BAF1DF
:1082F000040F0CD108E04FF0040809E04FF0080823
:1083000006E04FF00C0803E04FF0100800E000BF5B
:1083100000BF0025002726E02D48405D012820D120
:10832000002619E0F81C215C1148343000EB850070
:108330008155781CC7B20E49343101EB85018A5D45
:108340000C490D4BC91AC908032343EA014021A176
:1083500006F0E0FC701CC6B2042EE3DB474500D1FA
:10836000ACE7681CC5B2082DD6DB00BFA6E700004D
:108370004454002074380300EC3703006372635FD9
:1083800076616C756520616E642072785B31395D51
:108390002069732030782578203078257800000017
:1083A0007561727420637263206661696C210000DC
:1083B0005468657265206973206E6F2065787472E9
:1083C0006120646174612073706163652021000025
:1083D000993B0020756172745F646174612E7265EF
:1083E000745F626C6F636B5B785D5B785D20697353
:1083F000203078257800000010B514210148FFF7DF
:108400006CF810BD305400202DE9F04706460025D9
:10841000B4694AE014F80580681C14F80090B9F1BA
:10842000030F06D0B9F1090F04D0B9F1FF0F37D10E
:1084300001E035E034E0207A132830D1607AEF286B
:108440002DD104F1080000F045F8FFF775FE1A4938
:108450001A4A891AC908052242EA014018A106F001
:108460004FFC00270DE01849CA5D1349134BC91A88
:10847000C908052343EA014014A106F04BFC781C0F
:10848000C7B2A8F10100B842EDDC0B490B4A891ACA
:10849000C908052242EA01400DA106F031FC00BFE7
:1084A00000BF08F10100054400BFB08BA842B1D85D
:1084B0000520BDE8F087000074380300EC370300A6
:1084C000646174613A3078003054002025780000EF
:1084D0000A00000010B50446142221460148FEF7A8
:1084E000E3FF10BD3054002002460020002104E0CC
:1084F000535C0344D8B24B1CD9B21129F8DB704746
:1085000010B500200B490863084600210160416056
:108510008160C16020211030FEF7DFFF2021054877
:108520003430FEF7DAFF0020024981F8550081F867
:10853000540010BD4454002010B50248007807F0E4
:10854000B3FF10BD753B002010B506F04BFA08B91B
:1085500006F004FE10BD000070B54FF4804100200D
:1085600006F082FC044600BF25463DB100BF05A2CF
:108570004FF4A9712846FEF74DFE00BF00BF06F07C
:108580001DFA70BD2E2E5C2E2E5C2E2E5C2E2E5CC7
:108590002E2E5C2E2E5C2E2E5C757365725C7573B0
:1085A00065725F64726976652E63000070B506F0CF
:1085B000B5FD044600BF25463DB100BF04A24FF4FF
:1085C00099712846FEF726FE00BF00BF70BD00006F
:1085D0002E2E5C2E2E5C2E2E5C2E2E5C2E2E5C2ED5
:1085E0002E5C2E2E5C757365725C757365725F64AC
:1085F000726976652E63000030B58BB000243B4B6A
:108600000FCB07AD0FC53949103103C9CDE90101C1
:10861000374A01A9374807F0F9FB044600BF254651
:1086200035B100BF34A27A212846FEF7F3FD00BF22
:1086300000BF2F4A01A92F48083007F0E7FB044686
:1086400000BF254635B100BF2BA27C212846FEF78E
:10865000E1FD00BF00BF264A01A92648103007F0FF
:10866000D5FB044600BF254635B100BF22A27E21BE
:108670002846FEF7CFFD00BF00BF1E48089907F04F
:1086800043FC04901B480830099907F03DFC059015
:10869000184810300A9907F037FC06900120009026
:1086A000022301461348049A07F08EFB0120009034
:1086B000042302210F480830059A07F085FB0120AA
:1086C0000090082303210B481030069A07F07CFB2A
:1086D000084807F067FB0748083007F063FB0548C8
:1086E000103007F05FFB0BB030BD0000C42E03005C
:1086F0007D9B0200803B00202E2E5C2E2E5C2E2EB9
:108700005C2E2E5C2E2E5C2E2E5C2E2E5C757365E0
:10871000725C757365725F64726976652E630000C2
:1087200070B502F095F8044600BF254635B100BF8C
:1087300003A269212846FEF76DFD00BF00BF70BD92
:108740002E2E5C2E2E5C2E2E5C2E2E5C2E2E5C2E63
:108750002E5C2E2E5C757365725C757365725F643A
:10876000726976652E63000010B50446207830B13A
:1087700001282CD0022818D0042845D139E0012046
:1087800023490870234800781E280DDA2249234A1D
:108790001278881802F0B8F820480078401C1F4969
:1087A000087000201B4908702FE01D491D4A891AD6
:1087B000C908032242EA01401BA106F0A1FA00BF4A
:1087C00024A24B216068FEF725FD00BF1DE014497F
:1087D000144A891AC908032242EA014027A106F077
:1087E0008FFA00BF1BA251216068FEF713FD00BF86
:1087F0000BE00B490B4A891AC908032242EA0140DF
:1088000026A106F07DFA00E000BF00BF10BD000009
:108810006C3B0020743B0020FE530020983B00205E
:1088200074380300EC3703004040756172742041D6
:1088300050505F554152545F434F4D4D554E494343
:108840004154494F4E5F4552524F52206572726FEC
:10885000720000002E2E5C2E2E5C2E2E5C2E2E5CC6
:108860002E2E5C2E2E5C2E2E5C757365725C7573DD
:1088700065725F64726976652E630000756172745B
:10888000204150505F554152545F4649464F5F4525
:1088900052524F52206572726F720000756172748D
:1088A000204150505F554152545F4441544120652E
:1088B00072726F720000000030B58BB0182212493E
:1088C00005A8FEF7F1FD00BF104801904FF480703D
:1088D00002900F4803904FF48070049007230D4AD4
:1088E00001A905A802F05CF8044600BF00BF2546B8
:1088F00035B100BF08A22C212846FEF78BFC00BF33
:1089000000BF0BB030BD0000AC2E0300CC510020E6
:10891000CC520020698702002E2E5C2E2E5C2E2E5B
:108920005C2E2E5C2E2E5C2E2E5C2E2E5C757365BE
:10893000725C757365725F64726976652E630000A0
:1089400070B505460E46002404E0285D02F096F856
:10895000601CC4B2B442F8DB70BD000010B505491C
:10896000054A891AC908032242EA014003A106F018
:10897000C7F910BD74380300EC3703004472697600
:10898000655F5744545F4576656E5F48616E646C01
:10899000650000003EB50024134A07CA8DE80700B1
:1089A0001249684607F098FD044600BF25463DB1D0
:1089B00000BF0FA240F267112846FEF72BFC00BF54
:1089C00000BF154807F046FD044600BF25463DB1EF
:1089D00000BF07A24FF4B5712846FEF71BFC00BF8D
:1089E00000BF07F067FD3EBDDC2E03005D8902007D
:1089F0002E2E5C2E2E5C2E2E5C2E2E5C2E2E5C2EB1
:108A00002E5C2E2E5C757365725C757365725F6487
:108A1000726976652E630000753B00202DE9F84FE2
:108A20000026002000904FF480770125002410E0FC
:108A3000384605F0E1FE40B100BF254800682840F7
:108A400018B1384605F0CAFE2E436D00381D87B2B6
:108A5000641C082CECD34FF4BE7005F0CDFE50B171
:108A60004FF4BE7005F0BAFE46F000466A4601219A
:108A7000002005F07DFEF0B210B3012500241DE0BA
:108A800005EA0600C0B100BF124850F82400C0F348
:108A90000420814600BF0F4850F82400C0F3014075
:108AA0008246204602F07CFF8046B8F1000F02D0DB
:108AB00051464846C04700BF6D00641C082CDFD3F8
:108AC00006F0004010B1684608F03EF9BDE8F88FA6
:108AD000046300401065004010B54FF4807005F04D
:108AE0005FF980B14FF4807005F063F9012005F063
:108AF00069F92048407930B901201E49487108467B
:108B00000168002088474FF4827005F049F950B1A0
:108B10004FF4827005F04DF9022005F053F9154825
:108B20000168012088474FF4887005F039F950B189
:108B30004FF4887005F03DF9102005F043F90D4819
:108B40000168022088474FF4867005F029F980B14A
:108B50000020094908604FF4867005F02AF90820C2
:108B600005F030F9002003498871084601680320A8
:108B7000884710BDF4390020340C0040024611B182
:108B8000012915D109E0002004E00B4B1B5C1354B4
:108B9000431CD8B21228F8D30BE0002005E0064BA6
:108BA00012331B5C1354431CD8B21228F7D300E0D5
:108BB00000BF00BF704700009C54002010B501208A
:108BC000064948700020087012210548FEF785FC10
:108BD000122103481230FEF780FC10BDB63D002084
:108BE0009C54002010B5024611B1012915D109E0AD
:108BF000002004E0135C0A4C2354431CD8B2122812
:108C0000F8D30BE0002005E0145C054B12331C5434
:108C1000431CD8B21228F7D300E000BF00BF10BD3C
:108C20009C54002030B587B016A207CA04AB07C316
:108C3000002001900290039000241548FEF764FC88
:108C4000054629461248FEF748FC04A91048FEF7DD
:108C50007DFC1048006B0A21B0FBF1F084B2224683
:108C60000DA101A801F092FA01A90948FEF740FC04
:108C70000748FEF749FC06493E220A54084607B059
:108C800030BD00003C6164765F64656C61793D00D5
:108C9000983D002044540020256400001FB512A216
:108CA00007CA01AB07C3002000901248FEF72CFC56
:108CB000044621460F48FEF710FC01A90D48FEF7B7
:108CC00045FC0D480DA18269684601F05FFA6946CE
:108CD0000848FEF70DFC0748FEF716FC05493E2242
:108CE0000A54084604B010BD3C6164765F696E7436
:108CF0003D000000983D0020C05400202564000085
:108D00001CB50EA103C9CDE900010E48FEF7FCFB1E
:108D1000044621460B48FEF7E0FB69460948FEF78A
:108D200015FC09490748FEF7E3FB0648FEF7ECFB94
:108D300004493E220A5408461CBD00003C6E616D89
:108D4000653D0000983D0020C054002010B5044649
:108D500009492046FEF7FAFB07488069A0610648EA
:108D6000C069E0610448006A2062034890F824006A
:108D700084F82400012010BDC054002010B588B034
:108D800013A30FCB04AC0FC40020019002900390FA
:108D90001348FEF7B9FB044621461148FEF79DFB38
:108DA00004A90F48FEF7D2FB0E480FA1026A01A8E2
:108DB00001F0ECF901A90A48FEF79AFB0848FEF712
:108DC000A3FB07493E220A54084608B010BD000024
:108DD0003C6164765F74696D656F75743D00000079
:108DE000983D0020C05400202564000010B588B0D4
:108DF00013A30FCB04AC0FC400200190029003908A
:108E00001348FEF781FB044621461148FEF765FB37
:108E100004A90F48FEF79AFB0E4890F924200EA1F2
:108E200001A801F0B3F901A90948FEF761FB084860
:108E3000FEF76AFB06493E220A54084608B010BDF8
:108E40003C73745F74785F706F7765723D000000EB
:108E5000983D0020C05400202564000010B507A1F3
:108E60000A48FEF773FB4020084988616420C86106
:108E70000A200862042081F8240010BD4A533133CF
:108E8000352D2D2D6164762D32320000C054002026
:108E90002DE9FC41054600200090019000BF0F27FE
:108EA00080462846FEF730FBC01B00F0FF08002478
:108EB00005E03819285C0DF80400601CC4B2444574
:108EC000F7DB6846FEF75AFB86B206EB86004000E9
:108ED0000C490863002404E001200A490855601C7D
:108EE000C4B2042CF8DB07490A6B0749074BC91ABF
:108EF000C908032343EA014005A105F00BFFBDE8C3
:108F0000FC8100004454002074380300EC37030057
:108F10006164765F64656C61792069732025640003
:108F20002DE9FC4105460020009001900D26002708
:108F30002846FEF7E9FA801BC7B2002405E0301985
:108F4000285C0DF80400601CC4B2BC42F7DB684624
:108F5000FEF714FB074988618A690749074BC91A5C
:108F6000C908032343EA014005A105F0D3FEBDE88B
:108F7000FC810000C054002074380300EC3703006B
:108F80006164765F6974762069732025640000004F
:108F900038B500BF9DF8000020F00F00401C009085
:108FA0009DF8000020F0F0001030009000BF0A484B
:108FB000FEF7AAFA85B22A46074968467CDF0446CE
:108FC00000BF254635B100BF04A279212846FEF72F
:108FD00021F900BF00BF38BDC05400202E2E5C2EEA
:108FE0002E5C2E2E5C2E2E5C2E2E5C2E2E5C2E2EBB
:108FF0005C757365725C757365725F706172616DCB
:109000002E6300002DE9FC410546002000900190F0
:10901000112600272846FEF777FA801BC7B20024E6
:1090200005E03019285C0DF80400601CC4B2BC4295
:10903000F7DB6846FEF7A2FA074908620A6A0749A1
:10904000074BC91AC908032343EA014005A105F0EB
:1090500061FEBDE8FC810000C054002074380300AC
:10906000EC3703006164765F74696D656F75742019
:1090700069732025640000002DE9FC4105460020AD
:10908000009001900D2600272846FEF73DFA801B30
:10909000401EC7B2A85D2B2812D100240DE0301964
:1090A000401C285C0DF804006846FEF767FA40B2E1
:1090B0001B4981F82400601CC4B2BC42EFDB20E0F5
:1090C000A85D2D2813D100240EE03019401C285C27
:1090D0000DF804006846FEF751FA404240B21049CC
:1090E00081F82400601CC4B2BC42EEDB09E00D49EB
:1090F0000D4A891AC908032242EA01400BA105F072
:10910000FFFD074991F924200649074BC91AC908F0
:10911000032343EA014007A105F0FCFDBDE8FC8103
:10912000C054002074380300EC3703006572726F7E
:109130007200000074785F706F7765722069732029
:10914000256400000148007870470000B83D002009
:109150000149087070470000B83D002070B5054611
:1091600000262846FEF7D0F90B38C6B216210D4866
:10917000FEF7B3F9002406E004F10A00285C09496F
:109180000855601CC4B2B442F6DB0749074A891A85
:10919000C908032242EA0140024A05A105F0BAFDCE
:1091A00070BD0000C054002074380300EC37030089
:1091B0006E616D652069732025730000034909788D
:1091C000017002494978417070470000B63D0020A7
:1091D0000178024A1170417851707047B63D002005
:1091E00010B586B0FFF7AEFF18B300241FE0124899
:1091F000005D012819D11149114A891AC9080322B1
:1092000042EA01400FA105F07BFD00210A4801550B
:10921000FEF768FBFEF7D2FF00F032F801A94EF628
:109220001370FEF7D5FAFEF731FB601CC4B2082CB0
:10923000DDDB06B010BD00004C5400207438030084
:10924000EC370300757064617465206164762000FA
:109250000148007870470000BA3D002001480078BE
:1092600070470000B93D00200149087070470000B8
:10927000B93D00200149087070470000BA3D002048
:1092800000B587B0142102A8FEF727F901A8FFF75F
:1092900095FF9DF80500012818D19DF8040050B9EC
:1092A00001208DF8040001A8FFF792FF002102A819
:1092B000FFF764FC0EE000208DF8040001A8FFF722
:1092C00087FF012102A8FFF759FC03E0002102A853
:1092D000FFF754FC02A94EF61370FEF72FFB07B000
:1092E00000BD000010B5034A1068034A11688847A2
:1092F00010BD0000383A0020343A002010B500F0CC
:109300009FFE10BD2DE9F047074688461646C24627
:1093100007EB47011B4800EBC109D9F8140020B145
:10932000012811D0022826D11EE0484600F0C0FED8
:109330000546B54201D2002405E034463246514686
:10934000484600F0FCFE18E0484600F0B1FE054635
:10935000B54201D2284600E0304604462246514636
:10936000484600F0ECFE08E032465146484600F020
:10937000ADFE044601E0002400BF00BF2046BDE86A
:10938000F08700003448002010B506F04FFA10BDF9
:1093900001480249086070470090D003BC3D00209E
:1093A00010B503F08FFF40B100205E4908604FF018
:1093B0008041C1F810015C49086003F0B1FF00284A
:1093C00055D05A4800685A4908605848001D00683E
:1093D000091D0860554808300068091D0860534899
:1093E0000C300068091D0860504810300068091DE5
:1093F00008604E4814300068091D08604B4818305A
:1094000000684B492031086048481C300068091D3D
:109410000860464820300068091D08604348243031
:109420000068091D0860414828300068091D08606F
:109430003E482C300068091D08603C483030006808
:109440003B4940310860394834300068091D0860E4
:10945000364838300068091D086034483C300068E0
:10946000091D0860314840300068091D086003F09C
:10947000FBFE40B12F48006800F0010018B16FF00A
:1094800001002C4908602C48006800F0004030B909
:109490002948001D006800F0004000283ED001204F
:1094A0002649086000BF264800680028FBD012202B
:1094B0002149086000BF224800680028FBD0122123
:1094C0001D48001D016000BF1D4800680028FBD03A
:1094D00000201A49086000BF194800680028FBD026
:1094E00000BF00BF00BF00BF00BFBFF34F8F00BF72
:1094F00000BF00BF1348006800F4E0601249084351
:10950000001D1049086000BF00BF00BFBFF34F8FB0
:1095100000BF00BF00BF00BF00BFFDE7FFF738FF7F
:1095200010BD00000C01004038050040040400108C
:1095300020C50040000400400012001004E5014076
:1095400000E401400CED00E00000FA0510B5042233
:109550000249034803F0F3FB10BD0000D43F002094
:109560000080004010B504220249034803F0E7FBE5
:1095700010BD0000E03F00200090004010B5042224
:109580000249034803F0DBFB10BD0000EC3F002064
:1095900000A0004010B506220249034803F0CFFBAB
:1095A00010BD0000F83F002000A0014010B50249A6
:1095B0000868804710BD0000FC39002001460020EB
:1095C00006E00023044A02EB81021354421CD0B28D
:1095D0000428F6DB704700007854002070B586B090
:1095E00005460C46002101A8FFF7C8FAFE492046AF
:1095F000FDF791FF50B9FEF7EFF9FC48FDF784FF46
:1096000086B23146F948FFF79BF9EAE1F84920466E
:10961000FDF781FFA0B9FFF71BFE40B1F548FDF74C
:1096200073FF86B23146F348FFF78AF9D9E1F24871
:10963000FDF76AFF86B23146EF48FFF781F9D0E1C6
:10964000EE492046FDF767FF50B9FEF7DDFCE7481D
:10965000FDF75AFF86B23146E448FFF771F9C0E1E1
:10966000E7492046FDF757FF50B9FEF7A3FCDF4856
:10967000FDF74AFF86B23146DC48FFF761F9B0E1F9
:10968000E0492046FDF747FFA0B9FFF7E7FD40B1ED
:10969000DD48FDF739FF86B23146DB48FFF750F968
:1096A0009FE1DA48FDF730FF86B23146D748FFF731
:1096B00047F996E10A22D6492046FDF750FFB0B996
:1096C000CA48FDF721FF86B23146C848FFF738F98E
:1096D000FEF708F92046FFF741FDFFF759FC01A905
:1096E0004EF61370FEF774F8FEF7D0F879E1C94929
:1096F0002046FDF710FF58B9FFF702FB0546284644
:10970000FDF702FF86B231462846FFF719F968E1F6
:109710000D22C1492046FDF722FFA0B9FEF7E2F86D
:109720002046FFF7FDFB01A94EF61370FEF750F837
:10973000FEF7ACF8AD48FDF7E7FE86B23146AB4820
:10974000FFF7FEF84DE1B5492046FDF7E4FE58B9B4
:10975000FFF7A4FA05462846FDF7D6FE86B2314645
:109760002846FFF7EDF83CE10F22AD492046FDF712
:10977000F6FE58B92046FFF78BFB9C48FDF7C4FE68
:1097800086B231469948FFF7DBF82AE1A549204621
:10979000FDF7C1FE58B9FFF745FA05462846FDF723
:1097A000B3FE86B231462846FFF7CAF819E1112206
:1097B0009D492046FDF7D3FEA0B9FEF793F8204659
:1097C000FFF720FC01A94EF61370FEF701F8FEF733
:1097D0005DF88648FDF798FE86B231468348FFF76C
:1097E000AFF8FEE091492046FDF795FE58B9FFF726
:1097F000C5FA05462846FDF787FE86B2314628465B
:10980000FFF79EF8EDE08A492046FDF784FE68B92F
:109810007648FDF779FE86B231467448FFF790F836
:109820000A2004F0E1FAFEF75DF8DAE0814920460B
:10983000FDF771FE68B96D48FDF766FE86B23146E8
:109840006A48FFF77DF80A2004F0CEFAFEF71EF80A
:10985000C7E079492046FDF75EFEA0B9FFF772FC2C
:1098600040B17648FDF750FE86B231467348FFF7A7
:1098700067F8B6E07248FDF747FE86B23146704899
:10988000FFF75EF8ADE06F492046FDF744FE40B9B2
:109890005648FDF739FE86B231465448FFF750F876
:1098A0009FE069492046FDF736FE40B94F48FDF775
:1098B0002BFE86B231464D48FFF742F891E06349EE
:1098C0002046FDF728FE40B94848FDF71DFE86B248
:1098D00031464648FFF734F883E05D492046FDF7FE
:1098E0001AFE40B94148FDF70FFE86B231463F48A7
:1098F000FFF726F875E00D2256492046FDF72FFEAA
:10990000A0B9FDF7EFFF2046FFF7B6FB01A94EF621
:109910001370FDF75DFFFDF7B9FF4F48FDF7F4FD4C
:1099200086B231464C48FFF70BF85AE04B492046C7
:10993000FDF7F1FD58B9FFF759FA05462846FDF73E
:10994000E3FD86B231462846FEF7FAFF49E0444976
:109950002046FDF7E0FD48BB2448FDF7D5FD86B263
:1099600031462248FEF7ECFF4FF4FA7004F03CFA5F
:1099700000BF00BF00BF00BF00BFBFF34F8F00BFDD
:1099800000BF00BF3748006800F4E0603649084374
:10999000001D3449086000BF00BF00BFBFF34F8FF8
:1099A00000BF00BF00BF00BF00BFFDE72F4920463A
:1099B000FDF7B1FD20B904212DA0FEF7C1FF10E095
:1099C0000C222D492046FDF7CAFD50B90020FFF7B3
:1099D000F5FD0648FDF798FD86B231460348FEF7CF
:1099E000AFFF1F21204649E0A13B00202C3D002075
:1099F000AE3B0020313D00203D3D0020BE3B00201D
:109A0000CA3B0020D73B0020493D0020593D0020A3
:109A1000E43B0020F03B0020FC3B00200B3C0020FE
:109A20001A3C00202B3C00203C3C00204F3C0020F6
:109A3000623C00206D3C0020793C00207A3D0020F3
:109A4000893D0020853C0020983C0020AB3C002054
:109A5000C43C0020DD3C0020693D0020EC3C00209F
:109A6000FC3C00200CED00E00000FA05123D002057
:109A700056312E30000000001E3D0020FDF72DFD68
:109A80001F212846FDF729FD06B070BD08B52C48FA
:109A900000788DF800002A4840788DF801002948A8
:109AA000007800284BD128480078012847DD9DF830
:109AB0000000132820D12549254A891AC908032204
:109AC00042EA014023A105F01BF99DF80100EF28AF
:109AD00035D11E491E4A891AC908032242EA0140AB
:109AE0001EA105F00DF91648FEF7AEFBFEF752FB7E
:109AF00000201549087022E09DF800003C2811D193
:109B00001249134A891AC908032242EA014015A1E1
:109B100005F0F6F80A491548FFF760FD00200A49EC
:109B200008700CE009490A4A891AC908032242EA66
:109B300001400FA105F0E4F800200349087008BDBA
:109B4000FE5300206C3B0020983B0020743803003B
:109B5000EC37030048445F310000000046445F31A9
:109B60000000000048445F3200000000CC53002099
:109B70004844206572726F720000000070B50446A0
:109B80000D46DD480068DD49884202D90020DA49E7
:109B90000860B4F5A07F09D0B4F5A27F11D0B4F568
:109BA000A47F7DD0B4F5A67F7BD18EE1D449D54A80
:109BB000891AC908032242EA0140D3A105F0A0F89E
:109BC00097E1CD480068401CCB490860FFF7BAFA1E
:109BD000002867D0CF480078012827D1CD480069F8
:109BE000401CCC490861C649C64A891AC9080322E3
:109BF00042EA0140C8A105F083F8C6480069C5499A
:109C0000096B884212D3BE49BE4A891AC908032289
:109C100042EA0140C3A105F073F80020BD49087075
:109C20000861FFF7CBFC0120BA490872B9484078B7
:109C300001282AD1B7484069401CB6494861B0495B
:109C4000B04A891AC908032242EA0140B9A105F0C5
:109C500057F8B0484069AF49096B884215D3A84905
:109C6000A84A891AC908032242EA0140B4A105F0B2
:109C700047F80020A74948700021A648416101200B
:109C8000FFF79CFC0121A3484172A248807801287B
:109C90002ED1A0488069401C9E498861984902E005
:109CA00012E125E10FE1974A891AC908032242EA25
:109CB0000140A7A105F024F8964880699549096BF1
:109CC000884215D38E498F4A891AC908032242EA6D
:109CD0000140A2A105F014F800208E4988700021EF
:109CE0008C4881610220FFF769FC0121894881725B
:109CF0008848C07801282AD18648C069401C854917
:109D0000C8617F497F4A891AC908032242EA014093
:109D100096A104F0F5FF7F48C0697E49096B88422F
:109D200015D37749774A891AC908032242EA0140C4
:109D300091A104F0E5FF00207649C8700021754824
:109D4000C1610320FFF73AFC01217248C1727148DA
:109D5000007901282AD16F48006A401C6D490862C9
:109D60006749684A891AC908032242EA014086A164
:109D700004F0C6FF6748006A6649096B884215D33C
:109D80005F49604A891AC908032242EA014081A159
:109D900004F0B6FF00205F49087100215D480162B0
:109DA0000420FFF70BFC01215A4801735948407900
:109DB00001282AD15748406A401C564948625049F8
:109DC000504A891AC908032242EA014075A104F0E9
:109DD00097FF5048406A4F49096B884215D348495C
:109DE000484A891AC908032242EA014070A104F0D6
:109DF00087FF0020474948710021464841620520FD
:109E0000FFF7DCFB01214348417342488079012878
:109E10002AD14048806A401C3E4988623849394A04
:109E2000891AC908032242EA014065A104F068FFCB
:109E30003848806A3749096B884215D33049314A1E
:109E4000891AC908032242EA014060A104F058FFC0
:109E500000203049887100212E4881620620FFF7DA
:109E6000ADFB01212B4881732A48C07901282AD1F2
:109E70002848C06A401C2749C8622149214A891ADA
:109E8000C908032242EA014054A104F039FF2148E5
:109E9000C06A2049096B884215D31949194A891AA1
:109EA000C908032242EA01404FA104F029FF002023
:109EB0001849C87100211748C1620720FFF77EFBCF
:109EC00001211448C17314E013E04B4800780128C5
:109ED0000DD14A480078401C48490870084600786F
:109EE0001E2804DD0020444908704449087000E041
:109EF00000BF00BF70BD0000703B002040420F005B
:109F000074380300EC37030074696D657220494EA4
:109F1000543000004454002074696D6520626C6FF9
:109F2000636B3000436C65616E20426C6F636B3015
:109F30000000000074696D6520626C6F636B310016
:109F4000436C65616E20426C6F636B3100000000F2
:109F500074696D6520626C6F636B3200436C656180
:109F60006E20426C6F636B320000000074696D6597
:109F700020626C6F636B3300436C65616E20426CD2
:109F80006F636B330000000074696D6520626C6F55
:109F9000636B3400436C65616E20426C6F636B349D
:109FA0000000000074696D6520626C6F636B3500A2
:109FB000436C65616E20426C6F636B35000000007E
:109FC00074696D6520626C6F636B3600436C65610C
:109FD0006E20426C6F636B360000000074696D6523
:109FE00020626C6F636B3700436C65616E20426C5E
:109FF0006F636B37000000006C3B0020743B002057
:10A0000008B500BF4FF480700B49405808B10120DB
:10A0100000E0002078B109480068804700BF0020B8
:10A020004FF48071044A8850084611464058009009
:10A0300000BF00BF00BF08BD00000140083A00207B
:10A0400010B5124C02202061606111A0A06113497B
:10A05000E1614FF4007121620021A1626162E1625D
:10A060000BA0A0640E49E164102121650021A165C7
:10A070006165E1650BA1E01DFDF768FA0AA12046C4
:10A08000FDF764FA2020A07110BD00001C480020DC
:10A090005465726D696E616C000000009448002088
:10A0A000944A0020525454005345474745520000FB
:10A0B00010B501460A69CB689A4204D88C68641EC0
:10A0C000E41AA01801E0D41A601E10BD2DE9F04773
:10A0D0000446894617464FF0000AE56800BFD4F8E9
:10A0E0001080A84503D9A8EB0500461E04E0A5EBA7
:10A0F0000800401CA1680E1AA068401BB04201D99C
:10A10000304601E0A068401B0646BE4201D2304600
:10A1100000E0384606466168481932464946FDF770
:10A12000C3F9B244B144BF1B3544A068A84200D172
:10A130000025E560002FD2D15046BDE8F0872DE91B
:10A14000F047044689461546E668A068871BAF427B
:10A1500008D9616888192A464946FDF7A5F970199A
:10A16000E06010E0B8466168881942464946FDF74C
:10A170009BF9A5EB070809EB070142466068FDF76C
:10A1800093F9C4F80C80BDE8F08700000FB4084BC9
:10A1900010B504A902AA039800F042F8044602A9E7
:10A1A000002000F0E7F8204610BC5DF814FB00002A
:10A1B00075A3020000487047C03D002002E008C8B7
:10A1C000121F08C1002AFAD170477047002001E031
:10A1D00001C1121F002AFBD170470000014620294F
:10A1E00008DA012088400A4A104008B1012070476F
:10A1F0000020FCE7402909DAA1F12000012202FA3F
:10A2000000F008B10120F2E70020F0E70120EEE7BE
:10A21000FC06FFBD00BFEFF31081084672B6704721
:10A220002DE9FF4F89B09B460446002506E025280E
:10A230000BD05A460B999047641C6D1C207800285F
:10A24000F5D10DB02846BDE8F08F0027B8460122B1
:10A25000474900E0074314F8013F203B02FA03F0AE
:10A260000842F7D120782E2819D114F8010F47F0B1
:10A2700004072A280ED06FF02F022078A0F13001B9
:10A2800009290CD808EB880102EB410100EB010819
:10A29000641CF2E70A98641C50F8048B0A9020783A
:10A2A0000028CED0642808D0692806D075281ED092
:10A2B0005A460B9990476D1C58E00A994FF00A09CD
:10A2C00001C90A91002802DA40422D2102E0390535
:10A2D00004D52B218DF82010012103E0F90704D0CB
:10A2E0002021F7E78A4608AE0DE00021FAE70A9937
:10A2F0004FF00A0901C90A91F7E74946FDF74BF902
:10A30000303106F8011D0028F7D1ADEB060000F151
:10A310002009780701D44FF00108C84502DDA8EBF9
:10A32000090000E000208046002706E008A85A4601
:10A33000C05D0B9990476D1C7F1C5745F6DB04E010
:10A3400030205A460B9990476D1CB8F10001A8F1D6
:10A350000108F5DC05E016F8010B5A460B99904709
:10A360006D1CB9F10001A9F10109F4DC641C65E779
:10A37000092801000A68531C0B60107070470146E1
:10A3800001F0030008B9012070470020FCE70246F5
:10A3900050680068401E084008B90120704700203E
:10A3A000FCE70246002104E0505C08B10120704740
:10A3B000491C0629F8D30020F9E710B50346D868F0
:10A3C000884206D88818401E1C69A04201D8012086
:10A3D00010BD0020FCE7000010B504466CB1084831
:10A3E000C068A04209D806480069A04205D32046AB
:10A3F00002F028FD08B1012010BD0020FCE700009C
:10A40000C43D002070B504460D4604F22740FFF716
:10A41000C8FF0646012D06D0022D0DD0032D11D008
:10A42000042D19D113E0A07928B194F8240010B9B3
:10A430000EB1012070BD00BFE07910B10EB1022055
:10A44000F8E700BF207A08B10320F3E700BF607A85
:10A4500008B10420EEE700BF0020EBE70146481CEE
:10A46000052290FBF2F302FB1300C0B270472DE906
:10A47000F04704460D462F4695F82080B4F81C900E
:10A4800000260BE007EB46124946A06900F006FDE6
:10A4900010B10120BDE8F087701CC6B24645F1DB63
:10A4A0000020F7E7014691F82420012A01D1EE208F
:10A4B00000E01F2070472DE9F05F06460C4604F1CE
:10A4C000220A94F82C502A2010F804904FF000082B
:10A4D000B6F81CB0002710E00AEB87025946B069B5
:10A4E00000F045FD28B108F1010000F0FF0815B9A2
:10A4F00005E005B103E0781CC7B24F45ECDB00BFB7
:10A500000DB1C84503D02DB9B8F1000F02DD01200F
:10A51000BDE8F09F0020FBE710B5012202210020DA
:10A5200001F07AF9044600BF1CB1072C01D0204687
:10A5300010BD00BF07220221012001F06DF9044681
:10A5400000BF1CB1072C01D02046F1E700BF0A2252
:10A550000021084601F060F9044600BF1CB1072C39
:10A5600001D02046E4E700BF0020E1E72DE9FE43EB
:10A5700007460E46144672B600BF04F0B5FC00BF95
:10A5800000BF04F02FFA0028FBD100BF00BF012F4D
:10A590000CD06FF48050384498B1B0F5405F2CD0A7
:10A5A0006FF440510844002847D115E03149324A40
:10A5B000891AC908012242EA014030A104F0A0FB37
:10A5C00047E02C492C4A891AC908012242EA014075
:10A5D00032A104F095FB3CE025462649DFF898C0FF
:10A5E000A1EB0C01C9084FF0010C4CEA014034A169
:10A5F000D5E9003204F09AFB2BE02546A86805F067
:10A6000025FA8046D5E900108DE8430019491A4B18
:10A61000C91AC908012343EA014043462FA1AA6889
:10A6200004F0A8FB1349144A891AC908012242EA16
:10A63000014034A104F064FB0BE00E490E4A891A74
:10A64000C908012242EA0140324633A104F062FB0C
:10A6500000BF00BF00BF3648006800F0010000B135
:10A6600000BE00BF22463146384600F063F8BDE820
:10A67000FE83000074380300EC370300534F465448
:10A680004445564943453A20415353455254494F56
:10A690004E204641494C454400000000534F46546B
:10A6A0004445564943453A20494E56414C49442079
:10A6B0004D454D4F525920414343455353000000EF
:10A6C000415353455254494F4E204641494C45440D
:10A6D0002061742025733A25750000004552524FC1
:10A6E00052202575205B25735D2061742025733A07
:10A6F00025750D0A50432061743A20307825303892
:10A7000078000000456E64206F66206572726F727B
:10A71000207265706F727400554E4B4E4F574E202D
:10A720004641554C5420617420307825303858000B
:10A73000F0ED00E018B5012300939DF800301E4BAA
:10A74000186059609A606FF48043034463B1012B31
:10A7500019D1194BDA60DB681B68174CA3612346DB
:10A76000DB685B68E3610EE0134B1A611B699B6851
:10A77000114C636123461B691B68A36123461B6957
:10A780005B68E36100BF00BF0B4B1B680A4B5B6853
:10A79000094B9B68084BDB68074B1B69064B5B69E1
:10A7A000054B9B69044BDB6972B600BF9DF8003016
:10A7B000002BFBD162B618BD0440002070B50446E2
:10A7C0000D46204601F034FE28B12946204601F00E
:10A7D00023FE002070BD0520FCE7034609B90E20CA
:10A7E000704712B1501E104008B10920F8E71960F7
:10A7F000501E988000209860D86000BFF0E770B5C8
:10A8000004460D46204601F013FEA188884205D873
:10A810002946204601F01FFE002070BD0420FCE701
:10A8200010B5024801F0CCFB10BD0000103A00202A
:10A8300010B503460C460AB9072010BD19684A61D5
:10A84000012C01D1012000E0002008610020F4E784
:10A8500038B513480068009008235822114912485F
:10A86000006802F096FD04460CB1204638BD0F4A40
:10A8700069460F4801F0AAFB04460CB12046F5E7F3
:10A8800001210B4801F048FC01230A4A19460848F7
:10A8900001F068FB0120084908702046E6E7000047
:10A8A000782B030024400020682B03004B16030084
:10A8B000103A0020FFFF7F001C3A00202DE9F041F4
:10A8C00006460D4617463446207F10B10020BDE8ED
:10A8D000F081A76101F0F6FF401941F10001C4E9E0
:10A8E0000201206900B125612146002007F02AFC01
:10A8F000EDE770B50446254600202877294601205B
:10A9000007F020FC70BD00002DE9F041044610481E
:10A91000077821460F48FFF751FF8046A7B1002076
:10A920000B49087001220C490C4803F0F9FA05465E
:10A9300000BF2E4636B100BF09A2D6213046FCF733
:10A9400069FC00BF00BF00BF4046BDE8F0810000C9
:10A950009E3A0020444200209D3A0020843A002084
:10A960002E2E5C2E2E5C2E2E5C2E2E5C2E2E5C2E21
:10A970002E5C2E2E5C636F6D706F6E656E74735CF3
:10A980006C69627261726965735C756172745C6135
:10A9900070705F756172745F6669666F2E63000028
:10A9A0002DE9F04188B004460E46174698462B48DC
:10A9B00007601EB9072008B0BDE8F081B08882B2F8
:10A9C00027483168FFF709FF054600BF284600B158
:10A9D000F1E700BFB08982B22248B168FFF7FDFEFF
:10A9E000054600BF284600B1E5E700BF20221E490A
:10A9F0006846FCF759FD60690690207C08B101208B
:10AA000000E000208DF814008DF81C80607C08B1F7
:10AA10000E2000E000208DF81500E0680290A0688C
:10AA200003902068019060680090104A69461048C1
:10AA300003F030FA054600BF284600B1BBE700BF6F
:10AA400000200C4908702068401C28B101220A49E6
:10AA5000074803F065FAAEE70020ACE7983A00201B
:10AA60004442002054420020A02D0300592203003C
:10AA7000843A00209E3A00209D3A00202DE9F041C2
:10AA8000054629461448FFF7BAFE064606BB134C96
:10AA9000002720781249085C20B1201D05F0CAFC6F
:10AAA000074608E020780E49085C20B904F10C0044
:10AAB00005F068FB074600BF57B90A490648FFF78B
:10AAC0007DFE28B901220749044803F04BFA0646E7
:10AAD0003046BDE8F081000054420020843A002056
:10AAE000F03900209C3A002010B50446204606F0BC
:10AAF00037FF10BD70B5044625460E488068B0B1DA
:10AB0000ADB9FFF787FB06460A4800680A490860A6
:10AB1000084840684FF0E021C1F8040100200549D1
:10AB200088601EB900BF62B600BF00BF00BF00BF93
:10AB300070BD00008C40002000E100E0F8B5054643
:10AB40000C4617462088001DB84201D90C20F8BDDC
:10AB5000684679DF064600BF304600B1F7E700BF20
:10AB60000320218868542088401C208019202188D7
:10AB700068542088401C208020884119BDF80000BE
:10AB800007F05CFD2188084420800020DFE770B5D5
:10AB900005460C462068401C28B1206803F002FEE0
:10ABA000206803F0B3FD6068401C18B103216068A1
:10ABB00003F092FD2868A169C0F8241500BF617DEB
:10ABC000227D286841EA0203C0F86C3500BFD4E951
:10ABD0000012286804F096FF207D012814D1A06897
:10ABE000401C18B10321A06803F076FDE068401C0A
:10ABF00028B1E06803F0D6FDE06803F087FDD4E9F2
:10AC00000221286804F066FF70BD70B505460C4649
:10AC10002068401C28B1206803F0CFFD206803F0B5
:10AC200081FD6068401C18B10021606803F061FD7F
:10AC30002868A169C0F8241500BF617D227D2868BD
:10AC400041EA0203C0F86C3500BFD4E9001228685D
:10AC500004F092FF207D012814D1A068401C18B197
:10AC60000021A06803F045FDE068401C28B1E068C1
:10AC700003F0A3FDE06803F055FDD4E90221286844
:10AC800004F05BFF70BD0000002114E00C48D0F818
:10AC90001024012308E000BFD0680079884201D168
:10ACA000002303E0D0680268002AF4D100BF0BB192
:10ACB00008467047491C0A29E8DB4FF0FF30F8E7E7
:10ACC000FC4300202DE9F04104460F46154615B916
:10ACD0000E20BDE8F0810020286000BF0CB90E20D6
:10ACE000F7E700BF00BF206808B90E20F1E700BFFA
:10ACF00000BFE088C11700EB91718910A0EB8101C2
:10AD000009B10720E5E700BF384600F0A9FBC6B24D
:10AD1000142E01D10520DCE72079B04201DC0420AB
:10AD2000D7E7E188206806FB010028600020D0E713
:10AD30002DE9FC4105468846164600243788002048
:10AD4000308095F82D0058B13A463146404600F023
:10AD50009FFB044600BF204608B1BDE8FC8100BF50
:10AD6000A87850B13A4631464046FFF7E7FE044620
:10AD700000BF204600B1F0E700BFE87860B1E97895
:10AD800048B23B463246414601F097FB044600BFBD
:10AD9000204600B1E1E700BF686868B1696891F9D1
:10ADA00000003B463246414607F03BFA044600BFEE
:10ADB000204600B1D1E700BF288900280EDD4346B8
:10ADC0000622022105F10800CDE9006707F009FD20
:10ADD000044600BF204600B1BFE700BF288A002814
:10ADE0000EDD43460722032105F11000CDE900677F
:10ADF00007F0F7FC044600BF204600B1ADE700BFF6
:10AE0000288B00280EDD43461522142105F1180079
:10AE1000CDE9006707F0E5FC044600BF204600B11D
:10AE20009BE700BF286A58B13B4632464146286A34
:10AE300000F04EFF044600BF204600B18DE700BF82
:10AE4000686A58B13B4632464146686A02F0ECF8FF
:10AE5000044600BF204600B17FE700BF95F82C00F4
:10AE600000280BDD3B4632464146284606F08CFE64
:10AE7000044600BF204600B16FE700BF287858B1F4
:10AE80003B4632464146284602F08AF9044600BF56
:10AE9000204600B161E700BF20465EE72DE9F84398
:10AEA000064688461546002000900DB9BDE8F88397
:10AEB00009236A464146304600F02BF80446BDF8A7
:10AEC00000003718BDF8000068B164B12846FCF7EF
:10AED0001BFBA04207D1224639462846FCF729FB36
:10AEE00008B90120E2E70020E0E7F8B504460E4685
:10AEF0001546002000902B466A463146204600F059
:10AF000008F807460FB90020F8BDBDF8000020443E
:10AF1000FAE7F0B504460D461E4604B10AB9002012
:10AF2000F0BD002103E0605C401C084481B2481C75
:10AF3000A84206DA10888842F5DC481C205CB04242
:10AF4000F1D1A94201DB0020EAE7881C87B2605CEE
:10AF500010B1605C401E00E0002083B213B1F8180D
:10AF6000A84201DD0020DBE717801846D8E72DE96D
:10AF7000F04788B004460E46174600200790102080
:10AF80000690B24602AA06A9384664DF814614B18B
:10AF9000B9F1000F03D0002008B0BDE8F0879DF89C
:10AFA0001800022804D0042809D0102815D10DE07B
:10AFB00003208DF8040002208DF805000FE0052025
:10AFC0008DF8040004208DF8050008E007208DF8B6
:10AFD000040006208DF8050001E00020DCE700BF3A
:10AFE000002509E001A8435D07AA31462046FFF786
:10AFF00090FF8246681CC5B2022D03DABDF81C0022
:10B000000028EFD0BDF81C0008B90020C4E7BDF847
:10B010001C0004EB000800250DE008EB05009DF87E
:10B02000182002A9FCF785FA08B90120B4E79DF8B9
:10B030001800284485B25545EFDB0020ACE72DE928
:10B04000FF4104460D46164600BF1CB90E2004B051
:10B05000BDE8F08100BF207808B90820F7E715B9EE
:10B060000EB90E20F3E700200090019002900390AB
:10B07000DDB1D4F82004016804F15500814200D00C
:10B0800001E004F2431000902046FFF70BFAADF800
:10B09000040001AA28460099FFF74AFE074600BFB0
:10B0A000384600B1D3E700BF00BFDEB1D4F82004BA
:10B0B000816804F23120814200D001E004F21F30A7
:10B0C00002902046FFF7EEF9ADF80C0003AA3046D7
:10B0D0000299FFF72DFE074600BF384600B1B6E7DC
:10B0E00000BF00BF04F580609DE88E0010308EC068
:10B0F0001038C4F82004002204F15400D4F82014BD
:10B1000072DFA4E780F83010704770B504460D4632
:10B1100005B10CB90E2070BD05F1780000F071FD8D
:10B1200008B90720F7E70020A0702C2205F178016C
:10B13000201DFCF7B9F9002084F83000D5F8A400F0
:10B140006063D5F8A800A0634FF6FF70A4F824044C
:10B1500004F58260C4F82004002140F22C40C4F8B9
:10B160002614A4F82A140155207810B9FF2084F879
:10B17000540004F15500C4F810042046FFF792F97A
:10B1800040F21441085304F2144204F155012846D8
:10B19000FFF7CEFD064600BF304600B1BBE700BF5B
:10B1A00004F231204FF4836108512046FFF77AF909
:10B1B000A4F81C044FF48360015904F21C4205F109
:10B1C0003C00FFF7B5FD064600BF304600B1A2E7E0
:10B1D00000BF012151200155208B81B2482001532D
:10B1E000012084F83C000021216450200155616950
:10B1F000616404F13C02002104F1540072DF064650
:10B2000000BF304600B186E700BF01202070304605
:10B2100081E770B504460D462E462088102804D0DC
:10B22000112807D026280FD109E02146304605F025
:10B230005BFA0AE02146304605F01BFB05E021469B
:10B24000304605F078FC00E000BF00BF70BD70B56F
:10B2500004460E46207808B9082070BDA67000216B
:10B2600040F22C40C4F82614A4F82A140155A07901
:10B2700010B1A078012809D0E07910B1A078012898
:10B2800004D0E07970B1A07802280BD1606B30B1A6
:10B29000012084F82D040820616B884702E000201B
:10B2A00084F82D0431462046FFF7ACF8A070606B9F
:10B2B000A0B1A078032802D0A07804280ED160792C
:10B2C00060B194F82E0448B9002084F830040120BD
:10B2D00084F82F040720616B884702E0002084F87F
:10B2E0002F04182104F13C00FCF7F7F8012084F842
:10B2F0003C0004F12C0005F019FD20B194F82C104D
:10B300005120015502E001215120015594F82400FB
:10B3100060B104F1280005F009FD20B194F828106F
:10B320005220015502E001215220015500215020F8
:10B330000155A078052824D2DFE800F01F030A1188
:10B34000180004F13C01204606F081FC054619E096
:10B3500004F13C01204606F062FC054612E004F1CF
:10B360003C01204606F085FC05460BE004F13C015B
:10B37000204606F0ACFC054604E0002084F83100CD
:10B3800000E000BF00BFA07898B104F13C0204F1D6
:10B390005400D4F8201472DF05460DB128465CE74E
:10B3A00094F8301094F8540073DF05460DB1284628
:10B3B00053E7606B18B194F83100616B8847002047
:10B3C0004BE700002DE9F041044600BF14B90E2000
:10B3D000BDE8F08100BF1C2221461C48FCF764F840
:10B3E0001B481A490860206860B120687ADF05466A
:10B3F0000DB12846ECE7164821680A6802604968E2
:10B40000416005E012487BDF05460DB12846DFE7C5
:10B41000002617E006EB86000E4901EB800700BF0F
:10B420004FF6FF70388000BF0B4800EB4610786085
:10B430000A4A0021381DFFF7FBF905460DB103202C
:10B44000C6E7761C002EE5D00020C1E77C3E002038
:10B45000E0390020683E0020483E002025270300F8
:10B4600010B50446204600F005F808B1204610BD8E
:10B470001420FCE710B50446142C01DB002010BD9D
:10B480002146024801F0E0FFF9E700009C3E002061
:10B490002DE9FC4105460C46174620880930B84284
:10B4A00002D90C20BDE8FC8168466DDF064600BF6E
:10B4B000304600B1F6E700BF082021886854208894
:10B4C000401C20801B20218868542088401C20803C
:10B4D00020882844DDF801100160BDF80510818046
:10B4E0002088801D20809DF80000400818B90020A9
:10B4F0002188685402E00120218868542088401C7B
:10B5000020800020CEE7000070B505460E46288852
:10B51000102802D011282CD115E01748006860B916
:10B5200000F034FC044600BF34B11448006818B180
:10B53000204612490968884700BF0F480068401C30
:10B540000D49086016E00C480068401E0A49086072
:10B550000846006860B9FEF7DFFF044600BF34B15B
:10B560000648006818B1204604490968884700BFAA
:10B5700000E000BF00BF70BDDC390020D8390020DA
:10B5800070B504460D462088102806D0112808D032
:10B5900012280ED0502810D107E0204605F032F8CE
:10B5A0000CE0204605F04CF908E0204605F0F4FADE
:10B5B00004E0204605F00EF800E000BF00BF70BDBB
:10B5C0002DE9F04104460F46A6882088102806D0B1
:10B5D000112819D019283FD01A284AD118E005F0AF
:10B5E000CBFF304605F054FE30B900BF22A2F02157
:10B5F0000420FBF70FFE06E0E07B022803D1314672
:10B600002C4801F030FF34E0304605F0D9FF30E03F
:10B61000207A0509042D01DB012000E0002002460C
:10B62000314624480C3000F039FF032D01DB0120A6
:10B6300000E00020024631461E48083000F02EFF90
:10B64000022D01DB012000E00020024631461948AE
:10B65000001D00F023FF0CE0207A48B9607AC0F3A7
:10B66000C0052A46314613480C3000F017FF00BFD2
:10B6700000BF00BFBDE8F0812E2E5C2E2E5C2E2E6A
:10B680005C2E2E5C2E2E5C2E2E5C2E2E5C636F6D3F
:10B69000706F6E656E74735C626C655C636F6D6D0C
:10B6A0006F6E5C626C655F636F6E6E5F7374617406
:10B6B000652E6300A43E002070B58EB004460E4691
:10B6C0003E4B0FCB09AD0FC500BF14B90E200EB015
:10B6D00070BD00BF00BF0EB90E20F8E700BF306894
:10B6E000A061214609A862DF054600BF284600B1D7
:10B6F000EDE700BF20788DF836000120ADF834006A
:10B70000A21C0DA9A8DF054600BF284600B1DEE750
:10B7100000BF202101A8FBF7E0FE0220ADF80400E5
:10B7200020788DF80600F420ADF808000120ADF86F
:10B730000A008DF810009DF8110020F00800083074
:10B740008DF811009DF8110020F00400001D8DF807
:10B75000110001208DF815008DF81600608804F1A5
:10B760000C0201A900F02AF905460DB12846AEE702
:10B77000202101A8FBF7B1FE0320ADF804002078DA
:10B780008DF80600F420ADF808000120ADF80A009D
:10B790008DF810009DF8110020F0100010308DF889
:10B7A000110001208DF815008DF816008DF8170096
:10B7B0006088221D01A900F001F988E7B82A03007A
:10B7C00070B504460D4605B104B970BD2E462088FB
:10B7D000102804D0502807D057280FD109E021465F
:10B7E000304604F047FF0AE02146304605F000FAF3
:10B7F00005E02146304605F0F5F800E000BF00BF47
:10B8000000BFE2E770B50446204606F011FF05468A
:10B8100005F0010070BD000030B503460020042B88
:10B8200023D2012A07D1012903D103F10E04E4B286
:10B8300000E00024224679B1012902D0022911D169
:10B8400004E003EB43040A4D2A550DE003EB4304E7
:10B85000074D2C44627007E003EB4304044D2C4475
:10B86000A27001E0072000BF00E0072030BD00000B
:10B87000183E00202DE9FC4704460D461646A71C3D
:10B880004FF001080020019001A8FFF72DF9304882
:10B89000406828602E4840682D498968411A2D4823
:10B8A0000068401CA0EB010915E001212A4801F0C5
:10B8B000FEFD01F001FB82465146274801F0F7FDED
:10B8C0002348406822498968411A22480068401C80
:10B8D000A0EB010900BF4F45E7D8B8F1000F30D009
:10B8E0000021009176B1009921F00301491C0091DB
:10B8F000009921F00401091D0091009964F3891158
:10B9000000910DE0009921F00301891C009100993C
:10B9100021F00401091D0091009964F39F510091E9
:10B920000B4949680B4A12681140094A0C3202EB74
:10B930008100009901600649496839440C3A516018
:10B9400000BF9DF80400FFF7D5F84046BDE8FC872E
:10B95000FC430020B83A00201848002070B5044687
:10B960000D460A2D03D10D212046FFF7F7FFA168F0
:10B97000481CA06020684554D4E90110884202D3D5
:10B98000204602F026FB70BD0448806803494968E0
:10B99000884201D1012070470020FCE7FC430020D1
:10B9A0000146024850F8210070470000283F00205F
:10B9B0000146014840567047583F002070B590B08E
:10B9C00006460C461546A07818B901208DF80E00E1
:10B9D00002E0A0788DF80E002088ADF80C00002061
:10B9E0000290607C02A906F0A0F9A07C0DF109018B
:10B9F00006F09BF9E07B08B1012000E000209DF8F3
:10BA00000A1060F3C3018DF80A10207C08B10120F0
:10BA100000E000209DF80A1060F304118DF80A1070
:10BA2000207B08B1012000E000209DF80A1060F39F
:10BA300000018DF80A10207D08B1022000E00120ED
:10BA40009DF80A1060F342018DF80A101C2109A824
:10BA5000FBF743FD607BC0F3001018B9607BC0F3B7
:10BA60004010F8B100200090E07C0DF1010106F0DB
:10BA70005CF900BF9DF8000020F00F00401C8DF81D
:10BA800000009DF8000020F0F00010308DF800005C
:10BA900000BF9DF8020020F00600801C8DF8020017
:10BAA000CDF838D0607B8DF82400A07B8DF8250080
:10BAB000142104A8FBF711FD03A8049002A8059027
:10BAC000A088ADF81C00A06820B1E088ADF818008F
:10BAD000A0680890A069002849D000200190A069C2
:10BAE0000088ADF82C00A0694088ADF82E00A06950
:10BAF00040680A9001A80D90A169087B01A906F091
:10BB000014F9A169487B0DF1050106F00EF9A06951
:10BB1000807A08B1012000E000209DF8061060F353
:10BB2000C3018DF80610A069C07A08B1012000E0B9
:10BB300000209DF8061060F304118DF80610A0692E
:10BB4000007A08B1012000E000209DF8061060F3A3
:10BB500000018DF80610A069807B08B1022000E08A
:10BB600001209DF8061060F342018DF80610E0698F
:10BB700008B1E0690C902B4604AA09A93046AADF57
:10BB800010B070BD70B505460DB9094C01E0084C08
:10BB9000083409E0204601F05DF9064606B904E0E4
:10BBA00028467168884700BFF4E700BF70BD0000F9
:10BBB0001C3F002010B504462CB9012006494870EE
:10BBC0000020FFF7DFFF012C04D10120024988701B
:10BBD000FFF7D8FF10BD0000143F00202DE9F0470B
:10BBE000024613468C46D3E90245DCE90267B6EB10
:10BBF000040877EB050002D30120BDE8F0870020A0
:10BC0000FBE701468878012805D191F8200001283A
:10BC100001D1002070470120FCE70246002007E028
:10BC2000536833F810308B4200D17047431C98B2F0
:10BC300013888342F4DC00BFF7E733B58BB00546C9
:10BC4000002000900C9878B100240BE021460CA84D
:10BC500001F0FAFB28B1009A501C009001A820F8CE
:10BC60001240641C142CF1D32C2269462846FBF7A1
:10BC70001BFC0DB030BD01460888062808DB08888B
:10BC8000B0F5486F06DD08884FF6FF72904201D08C
:10BC9000072070474888062808DB4888B0F5486FB9
:10BCA00006DD48884FF6FF72904201D00720F0E78A
:10BCB00008884FF6FF72904208D04888904205D01D
:10BCC00008884A88904201DD0720E2E70020E0E78B
:10BCD0002DE9F04107460D46144698462088801D00
:10BCE000404502D90C20BDE8F0813846FFF7C3FF7C
:10BCF000064600BF304600B1F5E700BF05202188A9
:10BD000068542088401C2080122021886854208894
:10BD1000401C208022885119388806F08FFC218829
:10BD20000844208022885119788806F087FC2188F1
:10BD3000084420800020D6E7F8B505460C46607A16
:10BD400088B9207A10B91048476801E00E48876822
:10BD50002A4639466068FEF7B1FD064616B1304600
:10BD600005F0B2FE0EE0002020720748406948B19D
:10BD700001208DF80000ADF8025003484169684683
:10BD8000884700BFF8BD00007C3E002010B50122AE
:10BD900000210846FFF740FD044600BF1CB1072CF8
:10BDA00001D0204610BD00BF072202210120FFF76D
:10BDB00033FD044600BF1CB1072C01D02046F1E73B
:10BDC00000BF042202210020FFF726FD044600BF29
:10BDD0001CB1072C01D02046E4E700BF0020E1E7BA
:10BDE0002DE9FF4105460C46002002900390ADF876
:10BDF0000840ADF80A40009001906A4602A9284622
:10BE000090DF0646002E32D0304603F01FFE074674
:10BE100019491A4A891AC908012242EA01403B46D7
:10BE20002A46174902F082FFBDF8000010B9BDF89C
:10BE3000020068B1BDF80230BDF800200E490F4F76
:10BE4000C91BC908012747EA01400EA102F06EFF95
:10BE5000BDF8040058B1BDF804200749074BC91AC2
:10BE6000C908012343EA0140164902F053FF304656
:10BE700004B0BDE8F0810000EC370300EC370300AC
:10BE80007C2F030054686520726571756573746555
:10BE9000642054582F5258207061636B6574206C75
:10BEA000656E67746820697320746F6F206C6F6EA5
:10BEB000672062792025752F2575206F637465745E
:10BEC000732E0000C82F030070B506460D4616B14C
:10BED0004FF4064070BD287920B1012809D002280E
:10BEE00015D111E002202871284605F02FFA0446EA
:10BEF00010E0284600F0B8FA044648F2096084428F
:10BF000001D141F61D5405E041F61D5402E048F20E
:10BF10000E6400BF00BF2046DCE7000010B5002122
:10BF2000034801F0F0FA044684F3100010BD00004D
:10BF30001848002070B505460C464FF4803000FAD2
:10BF400004F1284600F040FA70BD70B505460C4675
:10BF50004FF4A07000EB840086B23146284600F012
:10BF60004DFA70BD2DE9F04704460D4616461F46B2
:10BF70004FF4803000FA05F84FF4A07000EB850014
:10BF80001FFA80F926F07F464146206803F0F2F957
:10BF90004146206803F0E8F94946206803F0DDF9DE
:10BFA00032462946206803F0CFF94146206803F065
:10BFB000DEF91FB14146206803F0DFF9BDE8F087E4
:10BFC00010B50446206803F0C4F910BD2DE9F04710
:10BFD00004460D4617466079324941F82070607971
:10BFE000314901EBC000007968B108262F49304A79
:10BFF000891AC908022242EA01402EA102F080FEFD
:10C000003046BDE8F08729882068C0F8081500BFD1
:10C0100094F90420AB7810461946002808DB4FEA53
:10C02000417C4FEA1C68DFF8B0C00CF800800BE0E0
:10C030004FEA417C4FEA1C69DFF8A0C000F00F080E
:10C04000A8F104080CF8089000BF00BF94F9041090
:10C05000084600280DDB00BF00BF00F01F030122CF
:10C060009A4043099B0003F1E023C3F8002100BF7D
:10C0700000BF00BF00BF012061790B4A02EBC10184
:10C0800008716079114641F8304000260749084A96
:10C09000891AC908032242EA014011A102F030FEC8
:10C0A0003046AEE7343A0020383A002054380300D6
:10C0B000EC37030052544320696E7374616E6365FC
:10C0C00020616C726561647920696E697469616C64
:10C0D000697A65642E00000000E400E018ED00E0DD
:10C0E0005254433A20696E697469616C697A656477
:10C0F0002E00000010B5014691F90400002807DB6E
:10C1000000F01F0301229A40024B440943F8242007
:10C1100000BF10BD00E200E070B505460C462246A7
:10C120000221284600F05CF970BD10B504464FF4BA
:10C130008271204600F062F910BD10B5044600215E
:10C14000206803F01DF910BD10B5044604212068D5
:10C1500003F016F910BD2DE9F84F04468846154640
:10C1600099464FF4803000FA08FA4FF4A07000EBC3
:10C1700088001FFA80FB25F07F455146204600F0DD
:10C1800023F9206803F0E5F806464146206803F0ED
:10C19000D5F8009032464146206803F0D5F859465C
:10C1A000206803F0DAF83146009805F045FF0128D1
:10C1B00006D1102003F02CFD5946206803F0CDF87D
:10C1C000206803F0C6F806463146284605F034FFDD
:10C1D00007465146206803F0CAF8012F0FD16A1CA8
:10C1E0004146206803F0B0F8102003F011FD2068EC
:10C1F00003F0AFF8B04225D00D20BDE8F88F2A46F5
:10C200004146206803F0A0F8206803F0A2F8064633
:10C21000681E314605F010FF07466FF07F40A0EB27
:10C220000900B84201D20D20E7E75FB96A1C414618
:10C23000206803F089F8206803F08BF8B04201D041
:10C240000D20DAE701225146204600F0C9F800200F
:10C25000D3E700002DE9F84305460E4617469846F9
:10C2600069461048006801F0A8F8044614B9042093
:10C27000BDE8F8831C212046FBF72FF9012020712F
:10C280002560C4F8088008480068B6FBF0F0E0605C
:10C29000676169460348006801F0B9F804F0C4FF1B
:10C2A0000020E5E71C2C0300102C030010B5044609
:10C2B000D4E90321501828DF10BD0278072A38D2AC
:10C2C000DFE802F037040712222B340000220A7044
:10C2D00030E001220A7003898B818388CB81C26898
:10C2E0008A6000230B7425E002220A7003898B8187
:10C2F0008388CB81C2688A60827D062A01D10123AE
:10C3000000E000230B7415E003220A70C3888B81C0
:10C310000389CB81C2688A600CE004220A70C3885A
:10C320008B810023CB8100228A6003E005220A7002
:10C3300000E000BF00BF704770B50546002409E06B
:10C34000064850F8240020B1044850F8241028462C
:10C350008847641C042CF3D370BD00009840002073
:10C3600030B587B004460D462068806808B907B02C
:10C3700030BD182101A8FBF7B0F80295A06806901F
:10C38000207910B1012815D109E001208DF80400B1
:10C3900020690390E0680490606905900BE002203A
:10C3A0008DF804000749E068096848430390606914
:10C3B000059000E000BF00BF2068816801A88847A1
:10C3C00000BFD4E7102C030070B504460D46294683
:10C3D000206802F0C9FF2946206802F0CBFF70BD3B
:10C3E00070B504460E4615463146206802F0BFFF80
:10C3F0001DB13146206802F0C0FF70BD70B5054622
:10C400000C462868015929B12146286802F0A5FF89
:10C41000012070BD0020FCE770B504460D462A4699
:10C420000021204600F00EF8A068401CA06070BDFE
:10C4300001468A68C868801A704701468A68C868D9
:10C44000801A704710B583680B44848823400468C1
:10C45000E35C137010BDC26883881A400368995466
:10C46000C268521CC26070473EB504460A4B6A4619
:10C470000021A01D04F020FF054635B9064A918829
:10C48000019804F0FBFF054603E00348002101602A
:10C49000416028463EBD00005C3A002070B505466C
:10C4A0000E46144624B13146284600F0DCFF03E076
:10C4B0003146284600F0B9FF70BD30B504461088FB
:10C4C000C01C984201D90C2030BD02201588485567
:10C4D0001088401C10800120158848551088401C89
:10C4E000108015884C551088401C10800020EBE708
:10C4F00070B504460D4640F21442115B0122D4F897
:10C500001004FEF7F2FC064606B1357004F13C0259
:10C5100004F5826104F1540072DF70BD10B5044669
:10C52000606804F0D7FD10BD70B506460C4604F1F6
:10C530001005E888022801DD092070BDE988304631
:10C5400002F050FD6060606808B90420F5E7EA88F1
:10C55000A9680023606802F0D0FD0020EDE770B507
:10C5600006460C4604F11005A8680088102801DD75
:10C57000092070BDA8680088811C304602F032FD99
:10C580006060606808B90420F3E7A968002302220C
:10C59000606802F0B2FDAB681A88E968022360683F
:10C5A00002F0ABFD0020E4E770B5054615B14FF48D
:10C5B000064070BD1848007B18B10020164908736A
:10C5C00001E000F0DFF81448007808281DD2DFE809
:10C5D00000F01C04080C101C141800F03FF804466E
:10C5E00016E000F0BDF8044612E000F099F80446A9
:10C5F0000EE000F047F804460AE000F035F9044682
:10C6000006E000F043F9044602E048F20E6400BF81
:10C6100000BF2046CDE700006C4100200D48008996
:10C62000401C0C49088100204880087300BF0DE0C1
:10C6300000EB8001084A12F8211009B9012200E03C
:10C64000002204490A310A54411C88B20228EFDB57
:10C65000704700006C4100204441002010B508489C
:10C6600000F036F840B900200549891E087048805E
:10C67000486041F61D5010BD00F072F8FBE7000065
:10C680006E41002070B50F48458805EB85000E49C6
:10C6900001EB8000C06878B904200A49087005EBF6
:10C6A0008500094A02EB8000002301224168074807
:10C6B00001F096FD044602E000F090F804462046A2
:10C6C00070BD00006C41002044410020C43D0020AA
:10C6D00010B501460022002018E00F4B1B5C9BB1F7
:10C6E00000240D4B1C5400EB80030C4C04EB830323
:10C6F000DB684BB900EB800304EB83031B7C012B4D
:10C7000002D10880012203E0431C98B20228E4DB36
:10C7100000BF104610BD00007641002044410020BB
:10C72000F8B50C4844680C4800680B49898800EB50
:10C7300081056088C01C86B203200649087000206D
:10C74000B3000090084629464268044801F06AFE9A
:10C75000F8BD00006C410020543A0020C43D002088
:10C7600010B507494888091D04F04CFE18B1FFF7C1
:10C77000D7FF044602E0FFF785FF0446204610BDC0
:10C780006C41002010B514480078082820D2DFE85A
:10C7900000F0041F1F0A1016171BFFF73FFF0120B0
:10C7A0000D49087015E000F07DF802200A49087074
:10C7B0000FE000F029F806200749087009E000BFE3
:10C7C00007200549087004E001200349087000E0D3
:10C7D00000BF00BF10BD00006C41002010B5052057
:10C7E0000649087002200649888008460023012275
:10C7F0000168044801F0F4FC10BD00006C41002009
:10C80000543A0020C43D002014490868144949885E
:10C8100001EB8101134A02EB810149680F4A116063
:10C820000F49498801EB81010E4A02EB8101486002
:10C830000A4989880A4A528802EB8202094B03EBB3
:10C84000820211810221054A91800021044A528806
:10C8500002EB820203EB820211747047543A00200B
:10C860006C4100204441002010B5062005490870A5
:10C87000498801EB8101044A02EB8101486804F018
:10C8800033FA10BD6C4100204441002010B5072050
:10C89000034908700020486004F036FA10BD00001B
:10C8A0006C410020054A50684288D21C91B2044A6B
:10C8B00092880A44024B9A80704700006C41002025
:10C8C000543A002070B50B48FFF77AFB0A4B0CCBAB
:10C8D000841843F10005094903C9201A75EB0100CA
:10C8E00004D24FF08073E41845F100052046294634
:10C8F00070BD0000103A0020203A0020283A0020A5
:10C9000070B504460D46204600F01DF8A84201D936
:10C91000022070BDA0884FF6FF71884204D02088A5
:10C9200010B1A068401C08B90120F2E70020F0E730
:10C93000024613468B4204D21868401C08B10120FD
:10C9400070470020FCE701464A8801F10C0000EB2B
:10C950008200704770B504460D460948606009487A
:10C9600000F09EFD50B902F079FF064908741C23BF
:10C970008C2205490548006800F00BFD002070BDC1
:10C98000102C030024420020884100201C2C0300AE
:10C990002DE9F04106460C4648F20E6736B10020FC
:10C9A000434948604FF40640BDE8F081207930B13A
:10C9B00001280AD0022835D003286DD140E001209B
:10C9C000207104F0A1F9074667E04FF00008002548
:10C9D00019E005EB8500374911F82000022810D135
:10C9E000002005EB8501334A02F821004FF00108D1
:10C9F00005EB850102EB8101486804F075F90746F3
:10CA000003E0681C85B2022DE3DB00BFB8F1000F24
:10CA100007D10120264908700020486041F61D50CA
:10CA2000C2E73AE0002020710220234988800846AE
:10CA3000002301220168214801F0D2FB07462CE0C7
:10CA4000002020711C49086804F04EF907461C4874
:10CA500045881948D0F8008005EB8500154901EBA1
:10CA6000800040681449086005EB8500114901EB1E
:10CA70008000C0F804801048808805EB85010D4ACD
:10CA800002EB8101088102200B498880002005EB20
:10CA9000850102F8210000E000BF00BF2FB1002097
:10CAA0000349486048F20D607EE700207CE7000003
:10CAB000403A002044410020543A0020C43D002068
:10CAC0006C410020024600210CE001EB8100074B85
:10CAD00033F82000904204D101EB810003EB800089
