:020000040002F8
:10700000E0740020DD730200E5730200E773020004
:10701000E9730200EB730200ED7302000000000050
:10702000000000000000000000000000EF730200FC
:10703000F173020000000000F3730200F573020018
:10704000F9870200F773020099920200F7730200B9
:10705000F7730200000000003D87020000000000FE
:10706000399202005192020069920200F773020005
:10707000F7730200F7730200F7730200F773020060
:10708000719E0200D18F0200F7730200F7730200B5
:10709000F7730200F773020075900200F7730200A5
:1070A000F7730200F77302008192020000000000F3
:1070B00000000000000000000000000000000000D0
:1070C00000000000000000000000000000000000C0
:1070D000000000000000000000000000F773020044
:1070E00000000000000000000000000000000000A0
:1070F0000000000000000000000000000000000090
:10710000000000000000000000000000000000007F
:10711000000000000000000000000000000000006F
:10712000000000000000000000000000000000005F
:10713000000000000000000000000000000000004F
:10714000000000000000000000000000000000003F
:10715000000000000000000000000000000000002F
:10716000000000000000000000000000000000001F
:10717000000000000000000000000000000000000F
:1071800000000000000000000000000000000000FF
:1071900000000000000000000000000000000000EF
:1071A00000000000000000000000000000000000DF
:1071B00000000000000000000000000000000000CF
:1071C00000000000000000000000000000000000BF
:1071D00000000000000000000000000000000000AF
:1071E000000000000000000000000000000000009F
:1071F000000000000000000000000000000000008F
:10720000DFF80CD000F016FA00480047F5CD020078
:10721000E074002000B583B002900091019244F226
:10722000010071466A4603F0D9F803B000BD0000C2
:1072300030B450E8012F93B2C48923448489A34217
:1072400028BF1B1B0489A34202BFBFF32F8F00205E
:1072500007E0C3EA020340E80134002CE9D14FF013
:1072600001000A6030BC704750E8012FC2EA0242B8
:1072700040E801210029F7D1704730B450E8022FCF
:107280001FFAA2F3C488A34202BFBFF32F8F0020CE
:107290000DE0C48923448489A34228BF1B1BC2EA92
:1072A000034340E80234002CE8D14FF001000A60AB
:1072B00030BC704750E8022FC2EA224240E8022167
:1072C0000029F7D17047034653E8022FD988B2EB63
:1072D000324F4FF0000017BF92B241EA014142EA3B
:1072E000014104E05A68B2EB324F08BF012043E885
:1072F0000212002AE8D1704730B4044654E8000F67
:107300000D4644E80053002BF8D1156030BC70479F
:1073100030B4044654E8000F40EA010544E8005345
:10732000002BF7D1156030BC704730B4044654E8E8
:10733000000F00EA010544E80053002BF7D1156067
:1073400030BC704730B4044654E8000F80EA0105B1
:1073500044E80053002BF7D1156030BC704730B4BF
:10736000044654E8000F00EB010544E80053002BED
:10737000F7D1156030BC704730B4044654E8000FB4
:10738000A0EB010544E80053002BF7D1156030BC99
:10739000704770B404464FF0000054E8006F0D6869
:1073A000AE4207BF44E80023012044E800630E60BA
:1073B000002B1CBF0020F0E770BC704730B40446BF
:1073C00054E8000F88422CBF451A054644E8005394
:1073D000002BF5D1156030BC70470000064880478F
:1073E00006480047FEE7FEE7FEE7FEE7FEE7FEE7AA
:1073F000FEE7FEE7FEE7FEE78D9002000172020065
:107400002DE9F05F0546002092469B4688460646D9
:10741000814640241BE0284641464746224600F06C
:107420002FF853465A46C01A914110D311461846B8
:10743000224600F016F82D1A67EB01084F46224647
:107440000120002100F00DF817EB00094E41201E2D
:10745000A4F10104DFDC484631462A464346BDE834
:10746000F09F202A04DB203A00FA02F10020704746
:107470009140C2F1200320FA03F319439040704772
:10748000202A04DB203A21FA02F00021704721FA79
:1074900002F3D040C2F120029140084319467047E0
:1074A00000487047F82D030040EA01039B0703D012
:1074B00009E008C9121F08C0042AFAD203E011F833
:1074C000013B00F8013B521EF9D27047D2B201E0F5
:1074D00000F8012B491EFBD270470022F6E710B5D9
:1074E00013460A4604461946FFF7F0FF204610BD32
:1074F000421E12F8013F002BFBD111F8013B02F8AC
:10750000013B002BF9D17047421C10F8011B0029E8
:10751000FBD1801A704710B5002200E0521C835C3A
:107520008C5CA34201D1002BF8D1D8B2E1B2401A51
:1075300010BD30B504460020034600E05B1C9342BA
:1075400003D2E05CCD5C401BF8D030BD034611F89F
:10755000012B00F8012B002AF9D11846704730B5ED
:1075600005460020034600E05B1C934205D2EC5C1C
:10757000C85C201A01D1002CF6D130BD70B506468A
:1075800002F050FD046805460A220021304600F052
:1075900018F82C6070BD30B50B4601460020202243
:1075A000012409E021FA02F59D4205D303FA02F510
:1075B000491B04FA02F52844151EA2F10102F1DC70
:1075C00030BD2DE9F04791460F468046044600261F
:1075D00014F8015B2DB1FFF763FF0068405DC00741
:1075E000F6D12B2D02D02D2D18D0641E4A463946D7
:1075F000204600F031F827B13968A14201D1C7F81F
:10760000008071054FF002040BD54042002803DDD5
:1076100002F008FD0460A007BDE8F08746F480662C
:10762000E4E70028F8DA02F0FDFC04606FF00040A7
:10763000F2E70000064C074D06E0E06840F0010369
:1076400094E8070098471034AC42F6D3FFF7DCFD0E
:107650003C3603005C3603002DE9F05F824600787B
:10766000002715468B460AF10104B946302801D09F
:107670009DB113E014F8010B0127782803D0582896
:1076800001D045B10AE00DB1102D07D1002710251A
:1076900014F8010B02E0082500E00A250026B04698
:1076A0000EE005FB080005FB06F1012701EB104683
:1076B0001FFA80F8B6F5803F00D3B94614F8010BE5
:1076C000294600F018F80028EBDABBF1000F05D0CE
:1076D0000FB1641E00E05446CBF80040B9F1000F32
:1076E00006D002F09FFC02210160C81EBDE8F09F99
:1076F00048EA0640FAE73A2800D2303820F0200263
:10770000412A01D3A2F13700884201D34FF0FF3064
:10771000704770B58C1810F8015B15F0070301D1A4
:1077200010F8013B2A1106D110F8012B03E010F8E4
:10773000016B01F8016B5B1EF9D12B0705D4002307
:10774000521E0DD401F8013BFAE710F8013BCB1AA9
:10775000921C03E013F8015B01F8015B521EF9D59E
:10776000A142D8D3002070BDF8B50446684601F0A8
:10777000B5FB14B1032C11D111E00321094803F02A
:107780009EFC054600BF2E4636B100BF06A25A2118
:107790003046FFF73FFD00BF00BF00E000BF00BF65
:1077A000F8BD00003C4C00202E2E5C2E2E5C2E2EB0
:1077B0005C2E2E5C2E2E5C2E2E5C2E2E5C75736540
:1077C000725C757365725F626C652E630000000009
:1077D000F0B5B9B004460D46ADF8D84036A885607E
:1077E0001220ADF8DC0001A801F042F9AC210BA891
:1077F000FFF773FE00208DF82E0006208DF82F0075
:107800000AA80C9036A8149002208DF86800012177
:10781000ADF8781010491F9101218DF8A810079933
:107820002D9109992E910D4834900BA90C4803F025
:10783000A4FB064600BF374637B100BF09A244216A
:107840003846FFF7E7FC00BF00BF0121044803F002
:1078500091FB39B0F0BD0000683B00206977020061
:107860003C4C00202E2E5C2E2E5C2E2E5C2E2E5C90
:107870002E2E5C2E2E5C2E2E5C757365725C7573DD
:1078800065725F626C652E630000000070B50321B5
:10789000094803F014FC044600BF254635B100BF7B
:1078A00006A265212846FFF7B5FC00BF00BF0120F6
:1078B00001F0DEFA70BD00003C4C00202E2E5C2E44
:1078C0002E5C2E2E5C2E2E5C2E2E5C2E2E5C2E2EF2
:1078D0005C757365725C757365725F626C652E634F
:1078E0000000000070B50A4991F8540074DF0446A6
:1078F00000BF254635B100BF06A26E212846FFF71E
:1079000089FC00BF00BF002001F0B2FA70BD00008A
:107910003C4C00202E2E5C2E2E5C2E2E5C2E2E5CDF
:107920002E2E5C2E2E5C2E2E5C757365725C75732C
:1079300065725F626C652E6300000000F0B5A1B057
:1079400004460D46ADF8004002951220ADF8040043
:107950003C2112A8FFF7C1FD3C2103A8FFF7BDFDA4
:1079600000208DF84A00CDF86CD006208DF84B0031
:107970000120ADF81C000C49089102208DF80C0084
:1079800003AA12A9094803F092FA064600BF374637
:107990003FB100BF06A24FF4CA713846FFF73AFC68
:1079A00000BF00BF21B0F0BD683B00203C4C002070
:1079B0002E2E5C2E2E5C2E2E5C2E2E5C2E2E5C2E01
:1079C0002E5C2E2E5C757365725C757365725F62DA
:1079D0006C652E630000000013210248008876DFEA
:1079E00070470000583B0020F8B505460F46288830
:1079F00021283DD006DC10280BD0112829D01328CF
:107A000071D148E03B2870D0522858D05628F7D181
:107A10007CE04849484A891AC908032242EA0140E1
:107A200046A107F0ADF8A8884749088008460188B4
:107A3000464805F022FE044600BF26463EB100BF80
:107A400043A24FF4F5713046FFF7E4FB00BF00BFDF
:107A50006EE03849384A891AC908032242EA0140CF
:107A600045A107F08DF84FF6FF70374908805FE0B9
:107A700000200090A88869468FDF044600BF264694
:107A80003EB100BF32A240F2FD113046FFF7C2FB0B
:107A900000BF00BF4CE000231A4685212A48008819
:107AA0007FDF044600BF26463EB100BF28A240F259
:107AB00003213046FFF7AEFB00BF00BF38E00023D4
:107AC0001A46194620480088B1DF044600BF264602
:107AD0003EB100BF1EA240F209213046FFF79AFBDB
:107AE00000BF00BF24E022E0FFE7A888132176DF73
:107AF000044600BF26463EB100BF15A24FF40471F4
:107B00003046FFF787FB00BF00BF11E0A8881321B4
:107B100076DF044600BF26463EB100BF0CA240F20D
:107B200017213046FFF776FB00BF00BF00E000BF23
:107B300000BFF8BDF43603006C360300436F6E6E71
:107B40006563746564000000583B0020304C0020E1
:107B50002E2E5C2E2E5C2E2E5C2E2E5C2E2E5C2E5F
:107B60002E5C2E2E5C757365725C757365725F6238
:107B70006C652E6300000000446973636F6E6E6570
:107B8000637465640000000010B5044600BF04A2E1
:107B90004FF486712046FFF73DFB00BF10BD00008B
:107BA0002E2E5C2E2E5C2E2E5C2E2E5C2E2E5C2E0F
:107BB0002E5C2E2E5C757365725C757365725F62E8
:107BC0006C652E630000000030B587B01C2168464C
:107BD000FFF783FC002000904FF4A03001904FF499
:107BE000F020029003208DF80C004FF6FF70ADF8E6
:107BF0000E0001208DF81000002005900948069025
:107C0000684603F017FB044600BF25463DB100BFA0
:107C100005A24FF484712846FFF7FCFA00BF00BFAD
:107C200007B030BD897B02002E2E5C2E2E5C2E2EDE
:107C30005C2E2E5C2E2E5C2E2E5C2E2E5C757365BB
:107C4000725C757365725F626C652E630000000084
:107C500030B58DB0684600F00BFF00BF9DF82800DE
:107C600020F00F00401C0A909DF8280020F0F00042
:107C700010300A9000BF6846FFF746FC85B22A46DE
:107C800069460AA87CDF044600BF254635B100BF1F
:107C900014A2EB212846FFF7BDFA00BF00BF002069
:107CA0000B900C901948008EADF82C001748408EB0
:107CB000ADF82E001548808EADF830001348C08E08
:107CC000ADF832000BA87ADF044600BF254635B177
:107CD00000BF04A2F5212846FFF79CFA00BF00BFB1
:107CE0000DB030BD2E2E5C2E2E5C2E2E5C2E2E5C0A
:107CF0002E2E5C2E2E5C2E2E5C757365725C757359
:107D000065725F626C652E63000000007050002099
:107D100070B50021084805F0CFFB044600BF25469A
:107D20003DB100BF05A240F221112846FFF772FACB
:107D300000BF00BF70BD0000144C00202E2E5C2E32
:107D40002E5C2E2E5C2E2E5C2E2E5C2E2E5C2E2E6D
:107D50005C757365725C757365725F626C652E63CA
:107D6000000000002DE9F0410546287800283FD1A9
:107D70002049214A891AC908032242EA01401FA169
:107D800006F0FEFE002623E000BF2969885D02F0B0
:107D9000ADFD0446002C18D0112C16D01549164AFA
:107DA000891AC908012242EA0140224617A106F0B9
:107DB000F1FE00BF27463FB100BF1FA24FF4A171E3
:107DC0003846FFF727FA00BF00BF112CDDD0761C24
:107DD000A88AB042D8D8A88A401E2969085C0D2814
:107DE00005D100BF0A2002F081FD1128FAD000BFA2
:107DF000BDE8F081F43603006C36030072656365FC
:107E00006976652073756363657373004661696C99
:107E1000656420726563656976696E67204E5553A7
:107E2000206D6573736167652E204572726F7220D5
:107E3000307825782E2000002E2E5C2E2E5C2E2EE3
:107E40005C2E2E5C2E2E5C2E2E5C2E2E5C757365A9
:107E5000725C757365725F626C652E630000000072
:107E600010B5044600BF04A24FF4DD712046FFF7B1
:107E7000D1F900BF10BD00002E2E5C2E2E5C2E2EE0
:107E80005C2E2E5C2E2E5C2E2E5C2E2E5C75736569
:107E9000725C757365725F626C652E630000000032
:107EA00070B504462078032802D0042810D104E0DD
:107EB0006568284600F04AF90BE00749074A891A25
:107EC000C908032242EA014005A106F059FE00E07C
:107ED00000BF00BF70BD0000F43603006C36030025
:107EE0005363616E2074696D6564206F75742E0034
:107EF0007FB5002000900190029003901C480090F4
:107F00001C4A69461C4805F0CDFC044600BF2546C6
:107F100035B100BF19A294212846FFF77BF900BFB5
:107F200000BF2048FFF7F0FA80B11E4A0021124836
:107F300005F056FC044600BF254635B100BF0FA230
:107F40009B212846FFF766F900BF00BF00221F21D2
:107F5000094805F076FC044600BF254635B100BF50
:107F600006A2A1212846FFF755F900BF00BF7FBD3B
:107F70005A3B0020A17E0200705000202E2E5C2E65
:107F80002E5C2E2E5C2E2E5C2E2E5C2E2E5C2E2E2B
:107F90005C757365725C757365725F626C652E6388
:107FA000000000001C2D030070B5094805F0CAFD53
:107FB000044600BF254635B100BF06A2C9212846A8
:107FC000FFF728F900BF00BF012000F0C9FF70BD16
:107FD000705000202E2E5C2E2E5C2E2E5C2E2E5CE1
:107FE0002E2E5C2E2E5C2E2E5C757365725C757366
:107FF00065725F626C652E630000000010B505F0CD
:10800000EBFD002000F0ACFF10BD00007CB50020AF
:108010000090144800906946134805F03EFB044662
:1080200000BF25463DB100BF10A240F2AD11284669
:10803000FFF7F0F800BF00BF002001901548019045
:1080400001A9154803F070FA044600BF25463DB16A
:1080500000BF06A240F2B5112846FFF7DBF800BFCB
:1080600000BF7CBD617E0200304C00202E2E5C2EB5
:108070002E5C2E2E5C2E2E5C2E2E5C2E2E5C2E2E3A
:108080005C757365725C757365725F626C652E6397
:1080900000000000657D02003C3B002038B507F081
:1080A000C3FA044600BF25463DB100BF15A240F209
:1080B000CD112846FFF7AEF800BF00BF00200090AA
:1080C0006946012007F0ACF8044600BF25463DB1E3
:1080D00000BF0CA240F2D3112846FFF79BF800BF67
:1080E00000BF684607F06AF9044600BF25463DB167
:1080F00000BF04A240F2D7112846FFF78BF800BF5B
:1081000000BF38BD2E2E5C2E2E5C2E2E5C2E2E5CDB
:108110002E2E5C2E2E5C2E2E5C757365725C757334
:1081200065725F626C652E630000000010B514215B
:10813000014800F095FA10BD2854002010B5142114
:108140000148FFF7CAF910BD285400202DE9F04777
:1081500006460025B46949E014F80580681C14F847
:108160000090B9F1030F06D0B9F1090F04D0B9F1AD
:10817000FF0F36D101E034E033E060796D282FD174
:10818000A0796F282CD1601D00F044F8FFF7CEFFD6
:1081900019491A4A891AC908052242EA014018A158
:1081A00006F0EEFC00270DE01749CA5D1249134B9B
:1081B000C91AC908052343EA014014A106F0EAFCE4
:1081C000781CC7B2A8F10100B842EDDC0A490B4A9D
:1081D000891AC908052242EA01400DA106F0D0FC27
:1081E00000BF00BF08F10100054400BFB08BA842EA
:1081F000B2D80520BDE8F087F43603006C360300E2
:10820000646174613A3078002854002025780000B9
:108210000A00000010B50446142221460148FFF769
:1082200043F910BD2854002010B50248007808F02A
:108230007BF810BD753B002010B506F013FB08B9A4
:1082400006F0CCFE10BD000070B54FF48041002058
:1082500006F04AFD044600BF25463DB100BF05A219
:108260004FF4A9712846FEF7D5FF00BF00BF06F006
:10827000E5FA70BD2E2E5C2E2E5C2E2E5C2E2E5C12
:108280002E2E5C2E2E5C2E2E5C757365725C7573C3
:1082900065725F64726976652E63000070B506F0E2
:1082A0007DFE044600BF25463DB100BF04A24FF449
:1082B00099712846FEF7AEFF00BF00BF70BD0000F9
:1082C0002E2E5C2E2E5C2E2E5C2E2E5C2E2E5C2EE8
:1082D0002E5C2E2E5C757365725C757365725F64BF
:1082E000726976652E63000030B58BB000243B4B7D
:1082F0000FCB07AD0FC53949103103C9CDE90101D5
:10830000374A01A9374807F0C1FC044600BF25469B
:1083100035B100BF34A27A212846FEF77BFF00BFAB
:1083200000BF2F4A01A92F48083007F0AFFC0446D0
:1083300000BF254635B100BF2BA27C212846FEF7A1
:1083400069FF00BF00BF264A01A92648103007F088
:108350009DFC044600BF254635B100BF22A27E2108
:108360002846FEF757FF00BF00BF1E48089907F0D8
:108370000BFD04901B480830099907F005FD059096
:10838000184810300A9907F0FFFC06900120009071
:10839000022301461348049A07F056FC012000907E
:1083A000042302210F480830059A07F04DFC0120F4
:1083B0000090082303210B481030069A07F044FC74
:1083C000084807F02FFC0748083007F02BFC054849
:1083D000103007F027FC0BB030BD0000442D030027
:1083E000ED990200803B00202E2E5C2E2E5C2E2E5E
:1083F0005C2E2E5C2E2E5C2E2E5C2E2E5C757365F4
:10840000725C757365725F64726976652E630000D5
:1084100070B502F055F9044600BF254635B100BFDE
:1084200003A269212846FEF7F5FE00BF00BF70BD1C
:108430002E2E5C2E2E5C2E2E5C2E2E5C2E2E5C2E76
:108440002E5C2E2E5C757365725C757365725F644D
:10845000726976652E63000010B50446207830B14D
:10846000012836D0022822D004284FD143E02949E0
:10847000294A891AC908032242EA014027A106F0C5
:108480007FFB01202C4908702C4800781E280DDA4B
:108490002B492C4A1278881802F06EF92948007886
:1084A000401C284908700020244908702FE0194911
:1084B000194A891AC908032242EA014022A106F09A
:1084C0005FFB00BF2BA24B216068FEF7A3FE00BF3D
:1084D0001DE01049104A891AC908032242EA0140E6
:1084E0002EA106F04DFB00BF22A251216068FEF7CD
:1084F00091FE00BF0BE00749074A891AC908032209
:1085000042EA01402DA106F03BFB00E000BF00BFA6
:1085100010BD0000F43603006C3603007561727400
:10852000204150505F554152545F444154415F5285
:1085300045414459000000006C3B0020743B002082
:10854000F6530020983B0020404075617274204132
:1085500050505F554152545F434F4D4D554E494326
:108560004154494F4E5F4552524F52206572726FCF
:10857000720000002E2E5C2E2E5C2E2E5C2E2E5CA9
:108580002E2E5C2E2E5C2E2E5C757365725C7573C0
:1085900065725F64726976652E630000756172743E
:1085A000204150505F554152545F4649464F5F4508
:1085B00052524F52206572726F7200007561727470
:1085C000204150505F554152545F44415441206511
:1085D00072726F720000000030B58BB01822124921
:1085E00005A8FEF761FF00BF104801904FF48070AE
:1085F00002900F4803904FF48070049007230D4AB7
:1086000001A905A802F004F9044600BF00BF2546F1
:1086100035B100BF08A22C212846FEF7FBFD00BFA4
:1086200000BF0BB030BD00002C2D0300C451002052
:10863000C4520020598402002E2E5C2E2E5C2E2E59
:108640005C2E2E5C2E2E5C2E2E5C2E2E5C757365A1
:10865000725C757365725F64726976652E63000083
:1086600070B505460E46002404E0285D02F03EF990
:10867000601CC4B2B442F8DB70BD000010B50549FF
:10868000054A891AC908032242EA014003A106F0FB
:1086900077FA10BDF43603006C3603004472697635
:1086A000655F5744545F4576656E5F48616E646CE4
:1086B000650000003EB50024134A07CA8DE8070094
:1086C0001249684607F048FE044600BF25463DB102
:1086D00000BF0FA240F267112846FEF79BFD00BFC6
:1086E00000BF154807F0F6FD044600BF25463DB122
:1086F00000BF07A24FF4B5712846FEF78BFD00BFFF
:1087000000BF07F017FE3EBD5C2D03007D86020012
:108710002E2E5C2E2E5C2E2E5C2E2E5C2E2E5C2E93
:108720002E5C2E2E5C757365725C757365725F646A
:10873000726976652E630000753B00202DE9F84FC5
:108740000026002000904FF480770125002410E0DF
:10875000384605F091FF40B100BF25480068284029
:1087600018B1384605F07AFF2E436D00381D87B2E8
:10877000641C082CECD34FF4BE7005F07DFF50B1A3
:108780004FF4BE7005F06AFF46F000466A460121CC
:10879000002005F02DFFF0B210B3012500241DE0EC
:1087A00005EA0600C0B100BF124850F82400C0F32B
:1087B0000420814600BF0F4850F82400C0F3014058
:1087C0008246204603F024F88046B8F1000F02D01C
:1087D00051464846C04700BF6D00641C082CDFD3DB
:1087E00006F0004010B1684608F0EEF9BDE8F88FD9
:1087F000046300401065004010B54FF4807005F030
:108800000FFA80B14FF4807005F013FA012005F0E3
:1088100019FA2048407930B901201E4948710846AC
:108820000168002088474FF4827005F0F9F950B1D3
:108830004FF4827005F0FDF9022005F003FA1548A7
:108840000168012088474FF4887005F0E9F950B1BC
:108850004FF4887005F0EDF9102005F0F3F90D489C
:108860000168022088474FF4867005F0D9F980B17D
:108870000020094908604FF4867005F0DAF90820F5
:1088800005F0E0F9002003498871084601680320DB
:10889000884710BDF4390020340C0040024611B165
:1088A000012915D109E0002004E00B4B1B5C135497
:1088B000431CD8B21228F8D30BE0002005E0064B89
:1088C00012331B5C1354431CD8B21228F7D300E0B8
:1088D00000BF00BF704700009454002010B5012075
:1088E0000749487000200870112212210548FEF740
:1088F000EDFD2222122103481230FEF7E7FD10BDE4
:10890000AE3D00209454002010B5024611B101295B
:1089100015D109E0002004E0135C0A4C2354431CE9
:10892000D8B21228F8D30BE0002005E0145C054B08
:1089300012331C54431CD8B21228F7D300E000BFF6
:1089400000BF10BD9454002030B587B016A207CAEE
:1089500004AB07C300200190029003900024154847
:10896000FEF7D2FD054629461248FEF7B6FD04A9DA
:108970001048FEF7EBFD1048006B0A21B0FBF1F048
:1089800084B222460DA101A801F038FB01A90948D3
:10899000FEF7AEFD0748FEF7B7FD06493E220A5432
:1089A000084607B030BD00003C6164765F64656CCA
:1089B00061793D00903D00203C540020256400007A
:1089C0001FB512A207CA01AB07C3002000901248CE
:1089D000FEF79AFD044621460F48FEF77EFD01A9E9
:1089E0000D48FEF7B3FD0D480DA18269684601F000
:1089F00005FB69460848FEF77BFD0748FEF784FD46
:108A000005493E220A54084604B010BD3C61647614
:108A10005F696E743D000000903D0020B854002056
:108A2000256400001CB50EA103C9CDE900010E4864
:108A3000FEF76AFD044621460B48FEF74EFD6946E7
:108A40000948FEF783FD09490748FEF751FD06482E
:108A5000FEF75AFD04493E220A5408461CBD000098
:108A60003C6E616D653D0000903D0020B8540020D3
:108A700010B5044609492046FEF768FD074880699D
:108A8000A0610648C069E0610448006A20620348AA
:108A900090F8240084F82400012010BDB854002070
:108AA00010B588B013A30FCB04AC0FC40020019005
:108AB000029003901348FEF727FD04462146114813
:108AC000FEF70BFD04A90F48FEF740FD0E480FA16D
:108AD000026A01A801F092FA01A90A48FEF708FD0E
:108AE0000848FEF711FD07493E220A54084608B01F
:108AF00010BD00003C6164765F74696D656F7574CC
:108B00003D000000903D0020B85400202564000086
:108B100010B588B013A30FCB04AC0FC40020019094
:108B2000029003901348FEF7EFFC044621461148DB
:108B3000FEF7D3FC04A90F48FEF708FD0E4890F994
:108B400024200EA101A801F059FA01A90948FEF755
:108B5000CFFC0848FEF7D8FC06493E220A540846D6
:108B600008B010BD3C73745F74785F706F77657286
:108B70003D000000903D0020B85400202564000016
:108B800010B507A10948FEF7E1FC402007498861BC
:108B90006420C8610A200862042081F8240010BD06
:108BA0004A533133352D2D2D35000000B8540020A7
:108BB0002DE9FC41054600200090019000BF0F27E1
:108BC00080462846FEF7A0FCC01B00F0FF080024EA
:108BD00005E03819285C0DF80400601CC4B2444557
:108BE000F7DB6846FEF7CAFC86B206EB860040005B
:108BF0000C490863002404E001200A490855601C60
:108C0000C4B2042CF8DB07490A6B0749074BC91AA1
:108C1000C908032343EA014005A105F0BBFFBDE8F5
:108C2000FC8100003C540020F43603006C36030045
:108C30006164765F64656C617920697320256400E6
:108C40002DE9FC4105460020009001900D260027EB
:108C50002846FEF759FC801BC7B2002405E03019F6
:108C6000285C0DF80400601CC4B2BC42F7DB684607
:108C7000FEF784FC074988618A690749074BC91ACE
:108C8000C908032343EA014005A105F083FFBDE8BD
:108C9000FC810000B8540020F43603006C36030059
:108CA0006164765F69747620697320256400000032
:108CB00038B500BF9DF8000020F00F00401C009068
:108CC0009DF8000020F0F0001030009000BF0A482E
:108CD000FEF71AFC85B22A46074968467CDF04463F
:108CE00000BF254635B100BF04A279212846FEF712
:108CF00091FA00BF00BF38BDB85400202E2E5C2E64
:108D00002E5C2E2E5C2E2E5C2E2E5C2E2E5C2E2E9D
:108D10005C757365725C757365725F706172616DAD
:108D20002E6300002DE9FC410546002000900190D3
:108D3000112600272846FEF7E7FB801BC7B2002458
:108D400005E03019285C0DF80400601CC4B2BC4278
:108D5000F7DB6846FEF712FC074908620A6A074912
:108D6000074BC91AC908032343EA014005A105F0CE
:108D700011FFBDE8FC810000B8540020F436030068
:108D80006C3603006164765F74696D656F7574207D
:108D900069732025640000002DE9FC410546002090
:108DA000009001900D2600272846FEF7ADFB801BA2
:108DB000401EC7B2A85D2B2812D100240DE0301947
:108DC000401C285C0DF804006846FEF7D7FB40B253
:108DD0001B4981F82400601CC4B2BC42EFDB20E0D8
:108DE000A85D2D2813D100240EE03019401C285C0A
:108DF0000DF804006846FEF7C1FB404240B210493E
:108E000081F82400601CC4B2BC42EEDB09E00D49CD
:108E10000D4A891AC908032242EA01400BA105F054
:108E2000AFFE074991F924200649074BC91AC90822
:108E3000032343EA014007A105F0ACFEBDE8FC8135
:108E4000B8540020F43603006C3603006572726F6C
:108E50007200000074785F706F776572206973200C
:108E6000256400000148007870470000B03D0020F4
:108E70000149087070470000B03D002070B50546FC
:108E800000262846FEF740FB0B38C6B216210D48D7
:108E9000FEF723FB002406E004F10A00285C0949E0
:108EA0000855601CC4B2B442F6DB0749074A891A68
:108EB000C908032242EA0140024A05A105F06AFE00
:108EC00070BD0000B8540020F43603006C36030077
:108ED0006E616D6520697320257300000349097870
:108EE000017002494978417070470000AE3D002092
:108EF0000178024A1170417851707047AE3D0020F0
:108F000010B586B0FFF7AEFFC8B1002415E00D48DC
:108F1000005D01280FD100210A480155FEF7E2FC4F
:108F200000F02AFD00F022F801A941F2EF30FEF72F
:108F30004FFCFEF7ABFC601CC4B2082CE7DB06B0AC
:108F400010BD000044540020014800787047000024
:108F5000B23D00200148007870470000B13D00207C
:108F60000149087070470000B13D002000B587B08E
:108F7000142102A8FEF7B1FA01A8FFF7AFFF9DF890
:108F80000500012818D19DF8040050B901208DF882
:108F9000040001A8FFF7ACFF002102A8FFF77EFC48
:108FA0000EE000208DF8040001A8FFF7A1FF0121C9
:108FB00002A8FFF773FC03E0002102A8FFF76EFC94
:108FC00002A941F2EF30FEF7B9FC07B000BD000086
:108FD00010B5034A1068034A1168884710BD0000A5
:108FE000383A0020343A002010B500F061FF10BD7F
:108FF0002DE9F047074688461646C24607EB47016B
:109000001B4800EBC109D9F8140020B1012811D088
:10901000022826D11EE0484600F082FF0546B542F0
:1090200001D2002405E0344632465146484600F05D
:10903000BEFF18E0484600F073FF0546B54201D276
:10904000284600E03046044622465146484600F095
:10905000AEFF08E032465146484600F06FFF044636
:1090600001E0002400BF00BF2046BDE8F0870000FB
:109070002C48002010B506F019FB10BD014802492C
:10908000086070470090D003B43D002010B504F094
:1090900059F840B100205E4908604FF08041C1F8A6
:1090A00010015C49086004F07BF8002855D05A484C
:1090B00000685A4908605848001D0068091D08608A
:1090C000554808300068091D086053480C30006896
:1090D000091D0860504810300068091D08604E489E
:1090E00014300068091D08604B48183000684B496F
:1090F0002031086048481C300068091D0860464857
:1091000020300068091D0860434824300068091DAC
:109110000860414828300068091D08603E482C302E
:109120000068091D08603C48303000683B49403108
:109130000860394834300068091D08603648383006
:109140000068091D086034483C300068091D08604B
:10915000314840300068091D086003F0C5FF40B188
:109160002F48006800F0010018B16FF001002C4991
:1091700008602C48006800F0004030B92948001D04
:10918000006800F0004000283ED001202649086019
:1091900000BF264800680028FBD012202149086043
:1091A00000BF224800680028FBD012211D48001D86
:1091B000016000BF1D4800680028FBD000201A494C
:1091C000086000BF194800680028FBD000BF00BF3E
:1091D00000BF00BF00BFBFF34F8F00BF00BF00BF85
:1091E0001348006800F4E06012490843001D10496C
:1091F000086000BF00BF00BFBFF34F8F00BF00BFBC
:1092000000BF00BF00BFFDE7FFF738FF10BD000043
:109210000C010040380500400404001020C5004047
:10922000000400400012001004E5014000E4014089
:109230000CED00E00000FA0510B5042202490348D5
:1092400003F0B5FC10BD0000CC3F002000800040C2
:1092500010B504220249034803F0A9FC10BD000028
:10926000D83F00200090004010B504220249034876
:1092700003F09DFC10BD0000E43F002000A0004072
:1092800010B506220249034803F091FC10BD00000E
:10929000F03F002000A0014010B502490868804757
:1092A00010BD0000FC3900200146002006E000232C
:1092B000044A02EB81021354421CD0B20428F6DBAC
:1092C000704700007054002070B586B005460C460B
:1092D000002101A8FFF7E2FAFE492046FEF71BF93C
:1092E00050B9FEF779FBFC48FEF70EF986B231461D
:1092F000F948FFF7B5F9EAE1F8492046FEF70BF91E
:10930000A0B9FFF721FE40B1F548FEF7FDF886B29F
:109310003146F348FFF7A4F9D9E1F248FEF7F4F833
:1093200086B23146EF48FFF79BF9D0E1EE4920467F
:10933000FEF7F1F850B9FEF761FEE748FEF7E4F8F2
:1093400086B23146E448FFF78BF9C0E1E749204691
:10935000FEF7E1F850B9FEF727FEDF48FEF7D4F834
:1093600086B23146DC48FFF77BF9B0E1E0492046A0
:10937000FEF7D1F8A0B9FFF7EDFD40B1DD48FEF7EB
:10938000C3F886B23146DB48FFF76AF99FE1DA4855
:10939000FEF7BAF886B23146D748FFF761F996E191
:1093A0000A22D6492046FEF7DAF8B0B9CA48FEF7D5
:1093B000ABF886B23146C848FFF752F9FEF792FA89
:1093C0002046FFF75BFDFFF773FC01A941F2EF3088
:1093D000FEF7FEF9FEF75AFA79E1C9492046FEF791
:1093E0009AF858B9FFF71EFB05462846FEF78CF899
:1093F00086B231462846FFF733F968E10D22C149AC
:109400002046FEF7ACF8A0B9FEF76CFA2046FFF74D
:1094100017FC01A941F2EF30FEF7DAF9FEF736FA50
:10942000AD48FEF771F886B23146AB48FFF718F940
:109430004DE1B5492046FEF76EF858B9FFF7C0FA7E
:1094400005462846FEF760F886B231462846FFF703
:1094500007F93CE10F22AD492046FEF780F858B9E4
:109460002046FFF7A5FB9C48FEF74EF886B2314632
:109470009948FFF7F5F82AE1A5492046FEF74BF891
:1094800058B9FFF761FA05462846FEF73DF886B25F
:1094900031462846FFF7E4F819E111229D4920469C
:1094A000FEF75DF8A0B9FEF71DFA2046FFF73AFC7B
:1094B00001A941F2EF30FEF78BF9FEF7E7F9864894
:1094C000FEF722F886B231468348FFF7C9F8FEE07E
:1094D00091492046FEF71FF858B9FFF7E1FA054613
:1094E0002846FEF711F886B231462846FFF7B8F84D
:1094F000EDE08A492046FEF70EF868B97648FEF797
:1095000003F886B231467448FFF7AAF80A2004F03F
:10951000ABFBFEF7E7F9DAE081492046FDF7FBFFF8
:1095200068B96D48FDF7F0FF86B231466A48FFF72B
:1095300097F80A2004F098FBFEF7A8F9C7E07949EC
:109540002046FDF7E8FFA0B9FFF78CFC40B1764854
:10955000FDF7DAFF86B231467348FFF781F8B6E0CF
:109560007248FDF7D1FF86B231467048FFF778F8B0
:10957000ADE06F492046FDF7CEFF40B95648FDF7F4
:10958000C3FF86B231465448FFF76AF89FE0694945
:109590002046FDF7C0FF40B94F48FDF7B5FF86B242
:1095A00031464D48FFF75CF891E063492046FDF7EE
:1095B000B2FF40B94848FDF7A7FF86B2314646489A
:1095C000FFF74EF883E05D492046FDF7A4FF40B960
:1095D0004148FDF799FF86B231463F48FFF740F812
:1095E00075E00D2256492046FDF7B9FFA0B9FEF7F8
:1095F00079F92046FFF7D0FB01A941F2EF30FEF7E1
:10960000E7F8FEF743F94F48FDF77EFF86B2314693
:109610004C48FFF725F85AE04B492046FDF77BFF01
:1096200058B9FFF775FA05462846FDF76DFF86B273
:1096300031462846FFF714F849E044492046FDF733
:109640006AFF48BB2448FDF75FFF86B231462248D7
:10965000FFF706F84FF4FA7004F006FB00BF00BFF6
:1096600000BF00BF00BFBFF34F8F00BF00BF00BFF0
:109670003748006800F4E06036490843001D34496B
:10968000086000BF00BF00BFBFF34F8F00BF00BF27
:1096900000BF00BF00BFFDE72F492046FDF73BFF9D
:1096A00020B904212DA0FEF7DBFF10E00C222D498C
:1096B0002046FDF754FF50B90020FFF7F5FD06489E
:1096C000FDF722FF86B231460348FEF7C9FF1F218E
:1096D000204649E0993B0020243D0020A63B002085
:1096E000293D0020353D0020B63B0020C23B002034
:1096F000CF3B0020413D0020513D0020DC3B0020BD
:10970000E83B0020F43B0020033C0020123C0020FA
:10971000233C0020343C0020473C00205A3C0020E1
:10972000653C0020713C0020723D0020813D0020FE
:109730007D3C0020903C0020A33C0020BC3C00204D
:10974000D53C0020613D0020E43C0020F43C00209A
:109750000CED00E00000FA050A3D002056312E30E5
:1097600000000000163D0020FDF7B7FE1F2128462F
:10977000FDF7B3FE06B070BD2DE9F04780460D46FB
:10978000002400260027A878801C00F0FF09A87894
:10979000C11700EB91718910244A82F854101146C8
:1097A00091F854202249234BC91AC908032343EADC
:1097B000014021A105F0EEF92AE01C48343010F8F0
:1097C000240018BB1948343000EB84004078E8B915
:1097D0001648343000EB84008078B8B91348343030
:1097E00000EB8400C07888B900260AE0F81C295CE8
:1097F0000E48343000EB84008155781CC7B2701CD1
:10980000C6B2042EF2DB4F4500D103E0601CC4B2A7
:10981000082CD2DB00BF14212846FDF75EFE142180
:109820004046FDF75AFEBDE8F08700003C5400209A
:10983000F43603006C360300546865207561727459
:109840005F646174612E6C656E6774682069732053
:109850002564000008B5374800788DF800003548C9
:1098600080788DF8010034480078002860D13348B2
:10987000007801285CDD9DF80000132835D19DF8A3
:109880000100ED2804D0EE280DD0EF2827D115E0F7
:109890002B492C4A891AC908032242EA01402AA10D
:1098A00005F06EF91CE02649264A891AC9080322E8
:1098B00042EA014026A105F063F911E02049214A5E
:1098C000891AC908032242EA014023A105F058F988
:1098D00018492348FFF750FF00F04EF800E000BFA2
:1098E00000BF00201549087022E09DF800003C28C8
:1098F00011D11349134A891AC908032242EA0140C7
:1099000018A105F03DF90B491548FFF7DDFC0020D3
:109910000A4908700CE00A490A4A891AC908032250
:1099200042EA014011A105F02BF90020034908701B
:1099300008BD0000F65300206C3B0020983B00203F
:10994000F43603006C36030046445F31000000002B
:1099500046445F320000000046445F3300000000D0
:10996000C453002048445F32000000004844206592
:1099700072726F720000000070B586B0002400257E
:10998000002600BF0FE0002509E0174800EB840027
:10999000405D01A98855701CC6B2681CC5B2042D73
:1099A000F3DB601CC4B2042CEDDB002101A8FEF740
:1099B000ABFF04240FE0002509E00B4800EB840016
:1099C000405D01A98855701CC6B2681CC5B2042D43
:1099D000F3DB601CC4B2082CEDDB012101A8FEF70B
:1099E00093FF06B070BD00007054002070B50446AF
:1099F0000D46DD480068DD49884202D90020DA4979
:109A00000860B4F5A07F09D0B4F5A27F11D0B4F5F9
:109A1000A47F7DD0B4F5A67F7BD18EE1D449D54A11
:109A2000891AC908032242EA0140D3A105F0A8F827
:109A300097E1CD480068401CCB490860FFF712FA57
:109A4000002867D0CF480078012827D1CD48006989
:109A5000401CCC490861C649C64A891AC908032274
:109A600042EA0140C8A105F08BF8C6480069C54923
:109A7000096B884212D3BE49BE4A891AC90803221B
:109A800042EA0140C3A105F07BF80020BD490870FF
:109A90000861FFF709FC0120BA490872B94840780B
:109AA00001282AD1B7484069401CB6494861B049ED
:109AB000B04A891AC908032242EA0140B9A105F057
:109AC0005FF8B0484069AF49096B884215D3A8498F
:109AD000A84A891AC908032242EA0140B4A105F044
:109AE0004FF80020A74948700021A6484161012095
:109AF000FFF7DAFB0121A3484172A24880780128D0
:109B00002ED1A0488069401C9E498861984902E096
:109B100012E125E10FE1974A891AC908032242EAB6
:109B20000140A7A105F02CF8964880699549096B7A
:109B3000884215D38E498F4A891AC908032242EAFE
:109B40000140A2A105F01CF800208E498870002178
:109B50008C4881610220FFF7A7FB012189488172AF
:109B60008848C07801282AD18648C069401C8549A8
:109B7000C8617F497F4A891AC908032242EA014025
:109B800096A104F0FDFF7F48C0697E49096B8842B9
:109B900015D37749774A891AC908032242EA014056
:109BA00091A104F0EDFF00207649C87000217548AE
:109BB000C1610320FFF778FB01217248C17271482F
:109BC000007901282AD16F48006A401C6D4908625B
:109BD0006749684A891AC908032242EA014086A1F6
:109BE00004F0CEFF6748006A6649096B884215D3C6
:109BF0005F49604A891AC908032242EA014081A1EB
:109C000004F0BEFF00205F49087100215D48016239
:109C10000420FFF749FB01215A4801735948407954
:109C200001282AD15748406A401C56494862504989
:109C3000504A891AC908032242EA014075A104F07A
:109C40009FFF5048406A4F49096B884215D34849E5
:109C5000484A891AC908032242EA014070A104F067
:109C60008FFF002047494871002146484162052086
:109C7000FFF71AFB012143484173424880790128CC
:109C80002AD14048806A401C3E4988623849394A96
:109C9000891AC908032242EA014065A104F070FF55
:109CA0003848806A3749096B884215D33049314AB0
:109CB000891AC908032242EA014060A104F060FF4A
:109CC00000203049887100212E4881620620FFF76C
:109CD000EBFA01212B4881732A48C07901282AD147
:109CE0002848C06A401C2749C8622149214A891A6C
:109CF000C908032242EA014054A104F041FF21486F
:109D0000C06A2049096B884215D31949194A891A32
:109D1000C908032242EA01404FA104F031FF0020AC
:109D20001849C87100211748C1620720FFF7BCFA23
:109D300001211448C17314E013E04B480078012856
:109D40000DD14A480078401C484908700846007800
:109D50001E2804DD0020444908704449087000E0D2
:109D600000BF00BF70BD0000703B002040420F00EC
:109D7000F43603006C36030074696D657220494E39
:109D8000543000003C54002074696D6520626C6F93
:109D9000636B3000436C65616E20426C6F636B30A7
:109DA0000000000074696D6520626C6F636B3100A8
:109DB000436C65616E20426C6F636B310000000084
:109DC00074696D6520626C6F636B3200436C656112
:109DD0006E20426C6F636B320000000074696D6529
:109DE00020626C6F636B3300436C65616E20426C64
:109DF0006F636B330000000074696D6520626C6FE7
:109E0000636B3400436C65616E20426C6F636B342E
:109E10000000000074696D6520626C6F636B350033
:109E2000436C65616E20426C6F636B35000000000F
:109E300074696D6520626C6F636B3600436C65619D
:109E40006E20426C6F636B360000000074696D65B4
:109E500020626C6F636B3700436C65616E20426CEF
:109E60006F636B37000000006C3B0020743B0020E8
:109E700008B500BF4FF480700B49405808B101206D
:109E800000E0002078B109480068804700BF00204A
:109E90004FF48071044A885008461146405800909B
:109EA00000BF00BF00BF08BD00000140083A00200D
:109EB00010B5124C02202061606111A0A06113490D
:109EC000E1614FF4007121620021A1626162E162EF
:109ED0000BA0A0640E49E164102121650021A16559
:109EE0006165E1650BA1E01DFDF730FB0AA120468D
:109EF000FDF72CFB2020A07110BD000014480020AD
:109F00005465726D696E616C000000008C48002021
:109F10008C4A002052545400534547474552000094
:109F200010B501460A69CB689A4204D88C68641E51
:109F3000E41AA01801E0D41A601E10BD2DE9F04704
:109F40000446894617464FF0000AE56800BFD4F87A
:109F50001080A84503D9A8EB0500461E04E0A5EB38
:109F60000800401CA1680E1AA068401BB04201D92D
:109F7000304601E0A068401B0646BE4201D2304692
:109F800000E0384606466168481932464946FDF702
:109F90008BFAB244B144BF1B3544A068A84200D13B
:109FA0000025E560002FD2D15046BDE8F0872DE9AD
:109FB000F047044689461546E668A068871BAF420D
:109FC00008D9616888192A464946FDF76DFA701963
:109FD000E06010E0B8466168881942464946FDF7DE
:109FE00063FAA5EB070809EB070142466068FDF735
:109FF0005BFAC4F80C80BDE8F08700000FB4084B92
:10A0000010B504A902AA039800F042F8044602A978
:10A01000002000F0E7F8204610BC5DF814FB0000BB
:10A02000E5A1020000487047B83D002002E008C8E2
:10A03000121F08C1002AFAD170477047002001E0C2
:10A0400001C1121F002AFBD17047000001462029E0
:10A0500008DA012088400A4A104008B10120704700
:10A060000020FCE7402909DAA1F12000012202FAD0
:10A0700000F008B10120F2E70020F0E70120EEE750
:10A08000FC06FFBD00BFEFF31081084672B67047B3
:10A090002DE9FF4F89B09B460446002506E02528A0
:10A0A0000BD05A460B999047641C6D1C20780028F1
:10A0B000F5D10DB02846BDE8F08F0027B846012243
:10A0C000474900E0074314F8013F203B02FA03F040
:10A0D0000842F7D120782E2819D114F8010F47F043
:10A0E00004072A280ED06FF02F022078A0F130014B
:10A0F00009290CD808EB880102EB410100EB0108AB
:10A10000641CF2E70A98641C50F8048B0A902078CB
:10A110000028CED0642808D0692806D075281ED023
:10A120005A460B9990476D1C58E00A994FF00A095E
:10A1300001C90A91002802DA40422D2102E03905C6
:10A1400004D52B218DF82010012103E0F90704D05C
:10A150002021F7E78A4608AE0DE00021FAE70A99C8
:10A160004FF00A0901C90A91F7E74946FDF713FACA
:10A17000303106F8011D0028F7D1ADEB060000F1E3
:10A180002009780701D44FF00108C84502DDA8EB8B
:10A19000090000E000208046002706E008A85A4693
:10A1A000C05D0B9990476D1C7F1C5745F6DB04E0A2
:10A1B00030205A460B9990476D1CB8F10001A8F168
:10A1C0000108F5DC05E016F8010B5A460B9990479B
:10A1D0006D1CB9F10001A9F10109F4DC641C65E70B
:10A1E000092801000A68531C0B6010707047014673
:10A1F00001F0030008B9012070470020FCE7024687
:10A2000050680068401E084008B9012070470020CF
:10A21000FCE70246002104E0505C08B101207047D1
:10A22000491C0629F8D30020F9E710B50346D86881
:10A23000884206D88818401E1C69A04201D8012017
:10A2400010BD0020FCE7000010B504466CB10848C2
:10A25000C068A04209D806480069A04205D320463C
:10A2600002F028FD08B1012010BD0020FCE700002D
:10A27000BC3D002070B504460D4604F22740FFF7B0
:10A28000C8FF0646012D06D0022D0DD0032D11D09A
:10A29000042D19D113E0A07928B194F8240010B945
:10A2A0000EB1012070BD00BFE07910B10EB10220E7
:10A2B000F8E700BF207A08B10320F3E700BF607A17
:10A2C00008B10420EEE700BF0020EBE70146481C80
:10A2D000052290FBF2F302FB1300C0B270472DE998
:10A2E000F04704460D462F4695F82080B4F81C90A0
:10A2F00000260BE007EB46124946A06900F006FD78
:10A3000010B10120BDE8F087701CC6B24645F1DBF4
:10A310000020F7E7014691F82420012A01D1EE2020
:10A3200000E01F2070472DE9F05F06460C4604F15F
:10A33000220A94F82C502A2010F804904FF00008BC
:10A34000B6F81CB0002710E00AEB87025946B06946
:10A3500000F045FD28B108F1010000F0FF0815B933
:10A3600005E005B103E0781CC7B24F45ECDB00BF48
:10A370000DB1C84503D02DB9B8F1000F02DD0120A1
:10A38000BDE8F09F0020FBE710B50122022100206C
:10A3900001F07AF9044600BF1CB1072C01D0204619
:10A3A00010BD00BF07220221012001F06DF9044613
:10A3B00000BF1CB1072C01D02046F1E700BF0A22E4
:10A3C0000021084601F060F9044600BF1CB1072CCB
:10A3D00001D02046E4E700BF0020E1E72DE9FE437D
:10A3E00007460E46144672B600BF04F0BDFC00BF1F
:10A3F00000BF04F037FA0028FBD100BF00BF012FD7
:10A400000CD06FF48050384498B1B0F5405F2CD038
:10A410006FF440510844002847D115E03149324AD1
:10A42000891AC908012242EA014030A104F0A8FBC0
:10A4300047E02C492C4A891AC908012242EA014006
:10A4400032A104F09DFB3CE025462649DFF898C088
:10A45000A1EB0C01C9084FF0010C4CEA014034A1FA
:10A46000D5E9003204F0A2FB2BE02546A86805F0F0
:10A470002DFA8046D5E900108DE8430019491A4BA2
:10A48000C91AC908012343EA014043462FA1AA681B
:10A4900004F0B0FB1349144A891AC908012242EAA0
:10A4A000014034A104F06CFB0BE00E490E4A891AFE
:10A4B000C908012242EA0140324633A104F06AFB96
:10A4C00000BF00BF00BF3648006800F0010000B1C7
:10A4D00000BE00BF22463146384600F063F8BDE8B2
:10A4E000FE830000F43603006C360300534F4654DD
:10A4F0004445564943453A20415353455254494FE8
:10A500004E204641494C454400000000534F4654FC
:10A510004445564943453A20494E56414C4944200A
:10A520004D454D4F52592041434345535300000080
:10A53000415353455254494F4E204641494C45449E
:10A540002061742025733A25750000004552524F52
:10A5500052202575205B25735D2061742025733A98
:10A5600025750D0A50432061743A20307825303823
:10A5700078000000456E64206F66206572726F720D
:10A58000207265706F727400554E4B4E4F574E20BF
:10A590004641554C5420617420307825303858009D
:10A5A000F0ED00E018B5012300939DF800301E4B3C
:10A5B000186059609A606FF48043034463B1012BC3
:10A5C00019D1194BDA60DB681B68174CA36123466D
:10A5D000DB685B68E3610EE0134B1A611B699B68E3
:10A5E000114C636123461B691B68A36123461B69E9
:10A5F0005B68E36100BF00BF0B4B1B680A4B5B68E5
:10A60000094B9B68084BDB68074B1B69064B5B6972
:10A61000054B9B69044BDB6972B600BF9DF80030A7
:10A62000002BFBD162B618BDFC3F002070B504467C
:10A630000D46204601F034FE28B12946204601F09F
:10A6400023FE002070BD0520FCE7034609B90E205B
:10A65000704712B1501E104008B10920F8E7196088
:10A66000501E988000209860D86000BFF0E770B559
:10A6700004460D46204601F013FEA188884205D805
:10A680002946204601F01FFE002070BD0420FCE793
:10A6900010B5024801F0CCFB10BD0000103A0020BC
:10A6A00010B503460C460AB9072010BD19684A6167
:10A6B000012C01D1012000E0002008610020F4E716
:10A6C00038B51348006800900823582211491248F1
:10A6D000006802F09EFD04460CB1204638BD0F4ACA
:10A6E00069460F4801F0AAFB04460CB12046F5E785
:10A6F00001210B4801F048FC01230A4A1946084889
:10A7000001F068FB0120084908702046E6E70000D8
:10A71000F82903001C400020E8290300CB140300A3
:10A72000103A0020FFFF7F001C3A00202DE9F04185
:10A7300006460D4617463446207F10B10020BDE87E
:10A74000F081A76101F0F6FF401941F10001C4E971
:10A750000201206900B125612146002007F032FC8A
:10A76000EDE770B5044625460020287729460120EC
:10A7700007F028FC70BD00002DE9F04104461048A8
:10A78000077821460F48FFF751FF8046A7B1002008
:10A790000B49087001220C490C4803F001FB0546E7
:10A7A00000BF2E4636B100BF09A2D6213046FCF7C5
:10A7B00031FD00BF00BF00BF4046BDE8F081000092
:10A7C0009E3A00203C4200209D3A0020843A00201E
:10A7D0002E2E5C2E2E5C2E2E5C2E2E5C2E2E5C2EB3
:10A7E0002E5C2E2E5C636F6D706F6E656E74735C85
:10A7F0006C69627261726965735C756172745C61C7
:10A8000070705F756172745F6669666F2E630000B9
:10A810002DE9F04188B004460E46174698462B486D
:10A8200007601EB9072008B0BDE8F081B08882B289
:10A8300027483168FFF709FF054600BF284600B1E9
:10A84000F1E700BFB08982B22248B168FFF7FDFE90
:10A85000054600BF284600B1E5E700BF20221E499B
:10A860006846FCF721FE60690690207C08B1012053
:10A8700000E000208DF814008DF81C80607C08B189
:10A880000E2000E000208DF81500E0680290A0681E
:10A8900003902068019060680090104A6946104853
:10A8A00003F038FA054600BF284600B1BBE700BFF9
:10A8B00000200C4908702068401C28B101220A4978
:10A8C000074803F06DFAAEE70020ACE7983A0020A5
:10A8D0003C4200204C420020202C0300D9200300E1
:10A8E000843A00209E3A00209D3A00202DE9F04154
:10A8F000054629461448FFF7BAFE064606BB134C28
:10A90000002720781249085C20B1201D05F0D2FCF8
:10A91000074608E020780E49085C20B904F10C00D5
:10A9200005F070FB074600BF57B90A490648FFF714
:10A930007DFE28B901220749044803F053FA064670
:10A940003046BDE8F08100004C420020843A0020EF
:10A95000F03900209C3A002010B50446204606F04D
:10A960003FFF10BD70B5044625460E488068B0B163
:10A97000ADB9FFF787FB06460A4800680A49086038
:10A98000084840684FF0E021C1F804010020054963
:10A9900088601EB900BF62B600BF00BF00BF00BF25
:10A9A00070BD00008440002000E100E0F8B50546DD
:10A9B0000C4617462088001DB84201D90C20F8BD6E
:10A9C000684679DF064600BF304600B1F7E700BFB2
:10A9D0000320218868542088401C20801920218869
:10A9E00068542088401C208020884119BDF8000050
:10A9F00007F064FD2188084420800020DFE770B55F
:10AA000005460C462068401C28B1206803F00AFE69
:10AA1000206803F0BBFD6068401C18B1032160682A
:10AA200003F09AFD2868A169C0F8241500BF617D74
:10AA3000227D286841EA0203C0F86C3500BFD4E9E2
:10AA40000012286804F09EFF207D012814D1A06820
:10AA5000401C18B10321A06803F07EFDE068401C93
:10AA600028B1E06803F0DEFDE06803F08FFDD4E973
:10AA70000221286804F06EFF70BD70B505460C46D3
:10AA80002068401C28B1206803F0D7FD206803F03F
:10AA900089FD6068401C18B10021606803F069FD01
:10AAA0002868A169C0F8241500BF617D227D28684F
:10AAB00041EA0203C0F86C3500BFD4E900122868EF
:10AAC00004F09AFF207D012814D1A068401C18B121
:10AAD0000021A06803F04DFDE068401C28B1E0684B
:10AAE00003F0ABFDE06803F05DFDD4E902212868C6
:10AAF00004F063FF70BD0000002114E00C48D0F8A2
:10AB00001024012308E000BFD0680079884201D1F9
:10AB1000002303E0D0680268002AF4D100BF0BB123
:10AB200008467047491C0A29E8DB4FF0FF30F8E778
:10AB3000F44300202DE9F04104460F46154615B9AF
:10AB40000E20BDE8F0810020286000BF0CB90E2067
:10AB5000F7E700BF00BF206808B90E20F1E700BF8B
:10AB600000BFE088C11700EB91718910A0EB810153
:10AB700009B10720E5E700BF384600F0A9FBC6B2DF
:10AB8000142E01D10520DCE72079B04201DC04203D
:10AB9000D7E7E188206806FB010028600020D0E7A5
:10ABA0002DE9FC41054688461646002437880020DA
:10ABB000308095F82D0058B13A463146404600F0B5
:10ABC0009FFB044600BF204608B1BDE8FC8100BFE2
:10ABD000A87850B13A4631464046FFF7E7FE0446B2
:10ABE00000BF204600B1F0E700BFE87860B1E97827
:10ABF00048B23B463246414601F097FB044600BF4F
:10AC0000204600B1E1E700BF686868B1696891F962
:10AC100000003B463246414607F043FA044600BF77
:10AC2000204600B1D1E700BF288900280EDD434649
:10AC30000622022105F10800CDE9006707F011FDA9
:10AC4000044600BF204600B1BFE700BF288A0028A5
:10AC50000EDD43460722032105F11000CDE9006710
:10AC600007F0FFFC044600BF204600B1ADE700BF7F
:10AC7000288B00280EDD43461522142105F118000B
:10AC8000CDE9006707F0EDFC044600BF204600B1A7
:10AC90009BE700BF286A58B13B4632464146286AC6
:10ACA00000F04EFF044600BF204600B18DE700BF14
:10ACB000686A58B13B4632464146686A02F0F4F889
:10ACC000044600BF204600B17FE700BF95F82C0086
:10ACD00000280BDD3B4632464146284606F094FEEE
:10ACE000044600BF204600B16FE700BF287858B186
:10ACF0003B4632464146284602F092F9044600BFE0
:10AD0000204600B161E700BF20465EE72DE9F84329
:10AD1000064688461546002000900DB9BDE8F88328
:10AD200009236A464146304600F02BF80446BDF838
:10AD300000003718BDF8000068B164B12846FCF780
:10AD4000E3FBA04207D1224639462846FCF7F1FB37
:10AD500008B90120E2E70020E0E7F8B504460E4616
:10AD60001546002000902B466A463146204600F0EA
:10AD700008F807460FB90020F8BDBDF800002044D0
:10AD8000FAE7F0B504460D461E4604B10AB90020A4
:10AD9000F0BD002103E0605C401C084481B2481C07
:10ADA000A84206DA10888842F5DC481C205CB042D4
:10ADB000F1D1A94201DB0020EAE7881C87B2605C80
:10ADC00010B1605C401E00E0002083B213B1F8189F
:10ADD000A84201DD0020DBE717801846D8E72DE9FF
:10ADE000F04788B004460E46174600200790102012
:10ADF0000690B24602AA06A9384664DF814614B11D
:10AE0000B9F1000F03D0002008B0BDE8F0879DF82D
:10AE10001800022804D0042809D0102815D10DE00C
:10AE200003208DF8040002208DF805000FE00520B6
:10AE30008DF8040004208DF8050008E007208DF847
:10AE4000040006208DF8050001E00020DCE700BFCB
:10AE5000002509E001A8435D07AA31462046FFF717
:10AE600090FF8246681CC5B2022D03DABDF81C00B3
:10AE70000028EFD0BDF81C0008B90020C4E7BDF8D9
:10AE80001C0004EB000800250DE008EB05009DF810
:10AE9000182002A9FCF74DFB08B90120B4E79DF882
:10AEA0001800284485B25545EFDB0020ACE72DE9BA
:10AEB000FF4104460D46164600BF1CB90E2004B0E3
:10AEC000BDE8F08100BF207808B90820F7E715B980
:10AED0000EB90E20F3E7002000900190029003903D
:10AEE000DDB1D4F82004016804F15500814200D09E
:10AEF00001E004F2431000902046FFF70BFAADF892
:10AF0000040001AA28460099FFF74AFE074600BF41
:10AF1000384600B1D3E700BF00BFDEB1D4F820044B
:10AF2000816804F23120814200D001E004F21F3038
:10AF300002902046FFF7EEF9ADF80C0003AA304668
:10AF40000299FFF72DFE074600BF384600B1B6E76D
:10AF500000BF00BF04F580609DE88E0010308EC0F9
:10AF60001038C4F82004002204F15400D4F820144E
:10AF700072DFA4E780F83010704770B504460D46C4
:10AF800005B10CB90E2070BD05F1780000F071FD1F
:10AF900008B90720F7E70020A0702C2205F17801FE
:10AFA000201DFCF781FA002084F83000D5F8A400B9
:10AFB0006063D5F8A800A0634FF6FF70A4F82404DE
:10AFC00004F58260C4F82004002140F22C40C4F84B
:10AFD0002614A4F82A140155207810B9FF2084F80B
:10AFE000540004F15500C4F810042046FFF792F90C
:10AFF00040F21441085304F2144204F1550128466A
:10B00000FFF7CEFD064600BF304600B1BBE700BFEC
:10B0100004F231204FF4836108512046FFF77AF99A
:10B02000A4F81C044FF48360015904F21C4205F19A
:10B030003C00FFF7B5FD064600BF304600B1A2E771
:10B0400000BF012151200155208B81B248200153BE
:10B05000012084F83C0000212164502001556169E1
:10B06000616404F13C02002104F1540072DF0646E1
:10B0700000BF304600B186E700BF01202070304697
:10B0800081E770B504460D462E462088102804D06E
:10B09000112807D026280FD109E02146304605F0B7
:10B0A00063FA0AE02146304605F023FB05E021461D
:10B0B000304605F080FC00E000BF00BF70BD70B5F9
:10B0C00004460E46207808B9082070BDA6700021FD
:10B0D00040F22C40C4F82614A4F82A140155A07993
:10B0E00010B1A078012809D0E07910B1A07801282A
:10B0F00004D0E07970B1A07802280BD1606B30B138
:10B10000012084F82D040820616B884702E00020AC
:10B1100084F82D0431462046FFF7ACF8A070606B30
:10B12000A0B1A078032802D0A07804280ED16079BD
:10B1300060B194F82E0448B9002084F8300401204E
:10B1400084F82F040720616B884702E0002084F810
:10B150002F04182104F13C00FCF7BFF9012084F80A
:10B160003C0004F12C0005F021FD20B194F82C10D6
:10B170005120015502E001215120015594F824008D
:10B1800060B104F1280005F011FD20B194F82810F9
:10B190005220015502E0012152200155002150208A
:10B1A0000155A078052824D2DFE800F01F030A111A
:10B1B000180004F13C01204606F089FC054619E020
:10B1C00004F13C01204606F06AFC054612E004F159
:10B1D0003C01204606F08DFC05460BE004F13C01E5
:10B1E000204606F0B4FC054604E0002084F8310057
:10B1F00000E000BF00BFA07898B104F13C0204F168
:10B200005400D4F8201472DF05460DB128465CE7DF
:10B2100094F8301094F8540073DF05460DB12846B9
:10B2200053E7606B18B194F83100616B88470020D8
:10B230004BE700002DE9F041044600BF14B90E2091
:10B24000BDE8F08100BF1C2221461C48FCF72CF908
:10B250001B481A490860206860B120687ADF0546FB
:10B260000DB12846ECE7164821680A680260496873
:10B27000416005E012487BDF05460DB12846DFE757
:10B28000002617E006EB86000E4901EB800700BFA1
:10B290004FF6FF70388000BF0B4800EB4610786017
:10B2A0000A4A0021381DFFF7FBF905460DB10320BE
:10B2B000C6E7761C002EE5D00020C1E7743E0020D2
:10B2C000E0390020603E0020403E0020A52503001C
:10B2D00010B50446204600F005F808B1204610BD20
:10B2E0001420FCE710B50446142C01DB002010BD2F
:10B2F0002146024801F0E8FFF9E70000943E0020F3
:10B300002DE9FC4105460C46174620880930B84215
:10B3100002D90C20BDE8FC8168466DDF064600BFFF
:10B32000304600B1F6E700BF082021886854208825
:10B33000401C20801B20218868542088401C2080CD
:10B3400020882844DDF801100160BDF805108180D7
:10B350002088801D20809DF80000400818B900203A
:10B360002188685402E00120218868542088401C0C
:10B3700020800020CEE7000070B505460E462888E4
:10B38000102802D011282CD115E01748006860B9A8
:10B3900000F034FC044600BF34B11448006818B112
:10B3A000204612490968884700BF0F480068401CC2
:10B3B0000D49086016E00C480068401E0A49086004
:10B3C0000846006860B9FEF7DFFF044600BF34B1ED
:10B3D0000648006818B1204604490968884700BF3C
:10B3E00000E000BF00BF70BDDC390020D83900206C
:10B3F00070B504460D462088102806D0112808D0C4
:10B4000012280ED0502810D107E0204605F03AF857
:10B410000CE0204605F054F908E0204605F0FCFA5F
:10B4200004E0204605F016F800E000BF00BF70BD44
:10B430002DE9F04104460F46A6882088102806D042
:10B44000112819D019283FD01A284AD118E005F040
:10B45000D3FF304605F05CFE30B900BF22A2F021D8
:10B460000420FBF7D7FE06E0E07B022803D131463B
:10B470002C4801F038FF34E0304605F0E1FF30E0C1
:10B48000207A0509042D01DB012000E0002002469E
:10B49000314624480C3000F039FF032D01DB012038
:10B4A00000E00020024631461E48083000F02EFF22
:10B4B000022D01DB012000E0002002463146194840
:10B4C000001D00F023FF0CE0207A48B9607AC0F339
:10B4D000C0052A46314613480C3000F017FF00BF64
:10B4E00000BF00BFBDE8F0812E2E5C2E2E5C2E2EFC
:10B4F0005C2E2E5C2E2E5C2E2E5C2E2E5C636F6DD1
:10B50000706F6E656E74735C626C655C636F6D6D9D
:10B510006F6E5C626C655F636F6E6E5F7374617497
:10B52000652E63009C3E002070B58EB004460E462A
:10B530003E4B0FCB09AD0FC500BF14B90E200EB0A6
:10B5400070BD00BF00BF0EB90E20F8E700BF306825
:10B55000A061214609A862DF054600BF284600B168
:10B56000EDE700BF20788DF836000120ADF83400FB
:10B57000A21C0DA9A8DF054600BF284600B1DEE7E2
:10B5800000BF202101A8FBF7A8FF0220ADF80400AE
:10B5900020788DF80600F420ADF808000120ADF801
:10B5A0000A008DF810009DF8110020F00800083006
:10B5B0008DF811009DF8110020F00400001D8DF899
:10B5C000110001208DF815008DF81600608804F137
:10B5D0000C0201A900F02AF905460DB12846AEE794
:10B5E000202101A8FBF779FF0320ADF804002078A3
:10B5F0008DF80600F420ADF808000120ADF80A002F
:10B600008DF810009DF8110020F0100010308DF81A
:10B61000110001208DF815008DF816008DF8170027
:10B620006088221D01A900F001F988E7382903008C
:10B6300070B504460D4605B104B970BD2E4620888C
:10B64000102804D0502807D057280FD109E02146F0
:10B65000304604F04FFF0AE02146304605F008FA74
:10B6600005E02146304605F0FDF800E000BF00BFD0
:10B6700000BFE2E770B50446204606F019FF054614
:10B6800005F0010070BD000030B503460020042B1A
:10B6900023D2012A07D1012903D103F10E04E4B218
:10B6A00000E00024224679B1012902D0022911D1FB
:10B6B00004E003EB43040A4D2A550DE003EB430479
:10B6C000074D2C44627007E003EB4304044D2C4407
:10B6D000A27001E0072000BF00E0072030BD00009D
:10B6E000103E00202DE9FC4704460D461646A71CD7
:10B6F0004FF001080020019001A8FFF72DF9304814
:10B70000406828602E4840682D498968411A2D48B4
:10B710000068401CA0EB010915E001212A4801F056
:10B7200006FE01F001FB82465146274801F0FFFD6D
:10B730002348406822498968411A22480068401C11
:10B74000A0EB010900BF4F45E7D8B8F1000F30D09A
:10B750000021009176B1009921F00301491C00916C
:10B76000009921F00401091D0091009964F38911E9
:10B7700000910DE0009921F00301891C00910099CE
:10B7800021F00401091D0091009964F39F5100917B
:10B790000B4949680B4A12681140094A0C3202EB06
:10B7A0008100009901600649496839440C3A5160AA
:10B7B00000BF9DF80400FFF7D5F84046BDE8FC87C0
:10B7C000F4430020B83A00201048002070B5044629
:10B7D0000D460A2D03D10D212046FFF7F7FFA16882
:10B7E000481CA06020684554D4E90110884202D367
:10B7F000204602F02EFB70BD04488068034949686A
:10B80000884201D1012070470020FCE7F44300206A
:10B810000146024850F8210070470000203F0020F8
:10B820000146014840567047503F002070B590B027
:10B8300006460C461546A07818B901208DF80E0072
:10B8400002E0A0788DF80E002088ADF80C000020F2
:10B850000290607C02A906F0A8F9A07C0DF1090114
:10B8600006F0A3F9E07B08B1012000E000209DF87C
:10B870000A1060F3C3018DF80A10207C08B1012082
:10B8800000E000209DF80A1060F304118DF80A1002
:10B89000207B08B1012000E000209DF80A1060F331
:10B8A00000018DF80A10207D08B1022000E001207F
:10B8B0009DF80A1060F342018DF80A101C2109A8B6
:10B8C000FBF70BFE607BC0F3001018B9607BC0F380
:10B8D0004010F8B100200090E07C0DF1010106F06D
:10B8E00064F900BF9DF8000020F00F00401C8DF8A7
:10B8F00000009DF8000020F0F00010308DF80000EE
:10B9000000BF9DF8020020F00600801C8DF80200A8
:10B91000CDF838D0607B8DF82400A07B8DF8250011
:10B92000142104A8FBF7D9FD03A8049002A80590F0
:10B93000A088ADF81C00A06820B1E088ADF8180020
:10B94000A0680890A069002849D000200190A06953
:10B950000088ADF82C00A0694088ADF82E00A069E1
:10B9600040680A9001A80D90A169087B01A906F022
:10B970001CF9A169487B0DF1050106F016F9A069D3
:10B98000807A08B1012000E000209DF8061060F3E5
:10B99000C3018DF80610A069C07A08B1012000E04B
:10B9A00000209DF8061060F304118DF80610A069C0
:10B9B000007A08B1012000E000209DF8061060F335
:10B9C00000018DF80610A069807B08B1022000E01C
:10B9D00001209DF8061060F342018DF80610E06921
:10B9E00008B1E0690C902B4604AA09A93046AADFE9
:10B9F00010B070BD70B505460DB9094C01E0084C9A
:10BA0000083409E0204601F05DF9064606B904E075
:10BA100028467168884700BFF4E700BF70BD00008A
:10BA2000143F002010B504462CB901200649487087
:10BA30000020FFF7DFFF012C04D1012002498870AC
:10BA4000FFF7D8FF10BD00000C3F00202DE9F047A4
:10BA5000024613468C46D3E90245DCE90267B6EBA1
:10BA6000040877EB050002D30120BDE8F087002031
:10BA7000FBE701468878012805D191F820000128CC
:10BA800001D1002070470120FCE70246002007E0BA
:10BA9000536833F810308B4200D17047431C98B282
:10BAA00013888342F4DC00BFF7E733B58BB005465B
:10BAB000002000900C9878B100240BE021460CA8DF
:10BAC00001F002FC28B1009A501C009001A820F857
:10BAD0001240641C142CF1D32C2269462846FBF733
:10BAE000E3FC0DB030BD01460888062808DB088855
:10BAF000B0F5486F06DD08884FF6FF72904201D01E
:10BB0000072070474888062808DB4888B0F5486F4A
:10BB100006DD48884FF6FF72904201D00720F0E71B
:10BB200008884FF6FF72904208D04888904205D0AE
:10BB300008884A88904201DD0720E2E70020E0E71C
:10BB40002DE9F04107460D46144698462088801D91
:10BB5000404502D90C20BDE8F0813846FFF7C3FF0D
:10BB6000064600BF304600B1F5E700BF052021883A
:10BB700068542088401C2080122021886854208826
:10BB8000401C208022885119388806F097FC2188B3
:10BB90000844208022885119788806F08FFC21887B
:10BBA000084420800020D6E7F8B505460C46607AA8
:10BBB00088B9207A10B91048476801E00E488768B4
:10BBC0002A4639466068FEF7B1FD064616B1304692
:10BBD00005F0BAFE0EE0002020720748406948B127
:10BBE00001208DF80000ADF8025003484169684615
:10BBF000884700BFF8BD0000743E002010B5012248
:10BC000000210846FFF740FD044600BF1CB1072C89
:10BC100001D0204610BD00BF072202210120FFF7FE
:10BC200033FD044600BF1CB1072C01D02046F1E7CC
:10BC300000BF042202210020FFF726FD044600BFBA
:10BC40001CB1072C01D02046E4E700BF0020E1E74B
:10BC50002DE9FF4105460C46002002900390ADF807
:10BC60000840ADF80A40009001906A4602A92846B3
:10BC700090DF0646002E32D0304603F027FE0746FE
:10BC800019491A4A891AC908012242EA01403B4669
:10BC90002A46174902F08AFFBDF8000010B9BDF826
:10BCA000020068B1BDF80230BDF800200E490F4F08
:10BCB000C91BC908012747EA01400EA102F076FF1F
:10BCC000BDF8040058B1BDF804200749074BC91A54
:10BCD000C908012343EA0140164902F05BFF3046E0
:10BCE00004B0BDE8F08100006C3603006C36030040
:10BCF000FC2D030054686520726571756573746569
:10BD0000642054582F5258207061636B6574206C06
:10BD1000656E67746820697320746F6F206C6F6E36
:10BD2000672062792025752F2575206F63746574EF
:10BD3000732E0000482E030070B506460D4616B15E
:10BD40004FF4064070BD287920B1012809D002289F
:10BD500015D111E002202871284605F037FA044673
:10BD600010E0284600F0B8FA044648F20960844220
:10BD700001D141F61D5405E041F61D5402E048F2A0
:10BD80000E6400BF00BF2046DCE7000010B50021B4
:10BD9000034801F0F8FA044684F3100010BD0000D7
:10BDA0001048002070B505460C464FF4803000FA6C
:10BDB00004F1284600F040FA70BD70B505460C4607
:10BDC0004FF4A07000EB840086B23146284600F0A4
:10BDD0004DFA70BD2DE9F04704460D4616461F4644
:10BDE0004FF4803000FA05F84FF4A07000EB8500A6
:10BDF0001FFA80F926F07F464146206803F0FAF9E1
:10BE00004146206803F0F0F94946206803F0E5F95F
:10BE100032462946206803F0D7F94146206803F0EE
:10BE2000E6F91FB14146206803F0E7F9BDE8F08765
:10BE300010B50446206803F0CCF910BD2DE9F04799
:10BE400004460D4617466079324941F82070607902
:10BE5000314901EBC000007968B108262F49304A0A
:10BE6000891AC908022242EA01402EA102F088FE86
:10BE70003046BDE8F08729882068C0F8081500BF63
:10BE800094F90420AB7810461946002808DB4FEAE5
:10BE9000417C4FEA1C68DFF8B0C00CF800800BE072
:10BEA0004FEA417C4FEA1C69DFF8A0C000F00F08A0
:10BEB000A8F104080CF8089000BF00BF94F9041022
:10BEC000084600280DDB00BF00BF00F01F03012261
:10BED0009A4043099B0003F1E023C3F8002100BF0F
:10BEE00000BF00BF00BF012061790B4A02EBC10116
:10BEF00008716079114641F8304000260749084A28
:10BF0000891AC908032242EA014011A102F038FE51
:10BF10003046AEE7343A0020383A0020D4360300E9
:10BF20006C36030052544320696E7374616E63650E
:10BF300020616C726561647920696E697469616CF5
:10BF4000697A65642E00000000E400E018ED00E06E
:10BF50005254433A20696E697469616C697A656408
:10BF60002E00000010B5014691F90400002807DBFF
:10BF700000F01F0301229A40024B440943F8242099
:10BF800000BF10BD00E200E070B505460C46224639
:10BF90000221284600F05CF970BD10B504464FF44C
:10BFA0008271204600F062F910BD10B504460021F0
:10BFB000206803F025F910BD10B50446042120685F
:10BFC00003F01EF910BD2DE9F84F044688461546CA
:10BFD00099464FF4803000FA08FA4FF4A07000EB55
:10BFE00088001FFA80FB25F07F455146204600F06F
:10BFF00023F9206803F0EDF806464146206803F077
:10C00000DDF8009032464146206803F0DDF85946DD
:10C01000206803F0E2F83146009805F04DFF012852
:10C0200006D1102003F034FD5946206803F0D5F8FE
:10C03000206803F0CEF806463146284605F03CFF5E
:10C0400007465146206803F0D2F8012F0FD16A1C31
:10C050004146206803F0B8F8102003F019FD20686D
:10C0600003F0B7F8B04225D00D20BDE8F88F2A467E
:10C070004146206803F0A8F8206803F0AAF80646B5
:10C08000681E314605F018FF07466FF07F40A0EBB1
:10C090000900B84201D20D20E7E75FB96A1C4146AA
:10C0A000206803F091F8206803F093F8B04201D0C3
:10C0B0000D20DAE701225146204600F0C9F80020A1
:10C0C000D3E700002DE9F84305460E46174698468B
:10C0D00069461048006801F0B0F8044614B904201D
:10C0E000BDE8F8831C212046FBF7F7F901202071F9
:10C0F0002560C4F8088008480068B6FBF0F0E060EE
:10C10000676169460348006801F0C1F804F0CCFF9C
:10C110000020E5E79C2A0300902A030010B504469E
:10C12000D4E90321501828DF10BD0278072A38D23D
:10C13000DFE802F037040712222B340000220A70D5
:10C1400030E001220A7003898B818388CB81C26829
:10C150008A6000230B7425E002220A7003898B8118
:10C160008388CB81C2688A60827D062A01D101233F
:10C1700000E000230B7415E003220A70C3888B8152
:10C180000389CB81C2688A600CE004220A70C388EC
:10C190008B810023CB8100228A6003E005220A7094
:10C1A00000E000BF00BF704770B50546002409E0FD
:10C1B000064850F8240020B1044850F824102846BE
:10C1C0008847641C042CF3D370BD0000904000200D
:10C1D00030B587B004460D462068806808B907B0BE
:10C1E00030BD182101A8FBF778F90295A0680690E8
:10C1F000207910B1012815D109E001208DF8040043
:10C2000020690390E0680490606905900BE00220CB
:10C210008DF804000749E0680968484303906069A5
:10C22000059000E000BF00BF2068816801A8884732
:10C2300000BFD4E7902A030070B504460D46294696
:10C24000206802F0D1FF2946206802F0D3FF70BDBC
:10C2500070B504460E4615463146206802F0C7FF09
:10C260001DB13146206802F0C8FF70BD70B50546AB
:10C270000C462868015929B12146286802F0ADFF13
:10C28000012070BD0020FCE770B504460D462A462B
:10C290000021204600F00EF8A068401CA06070BD90
:10C2A00001468A68C868801A704701468A68C8686B
:10C2B000801A704710B583680B4484882340046853
:10C2C000E35C137010BDC26883881A4003689954F8
:10C2D000C268521CC26070473EB504460A4B6A46AB
:10C2E0000021A01D04F028FF054635B9064A9188B3
:10C2F000019805F003F8054603E0034800210160BA
:10C30000416028463EBD00005C3A002070B50546FD
:10C310000E46144624B13146284600F0E4FF03E0FF
:10C320003146284600F0C1FF70BD30B50446108884
:10C33000C01C984201D90C2030BD022015884855F8
:10C340001088401C10800120158848551088401C1A
:10C35000108015884C551088401C10800020EBE799
:10C3600070B504460D4640F21442115B0122D4F828
:10C370001004FEF7F2FC064606B1357004F13C02EB
:10C3800004F5826104F1540072DF70BD10B50446FB
:10C39000606804F0DFFD10BD70B506460C4604F180
:10C3A0001005E888022801DD092070BDE9883046C3
:10C3B00002F058FD6060606808B90420F5E7EA887B
:10C3C000A9680023606802F0D8FD0020EDE770B591
:10C3D00006460C4604F11005A8680088102801DD07
:10C3E000092070BDA8680088811C304602F03AFD23
:10C3F0006060606808B90420F3E7A968002302229E
:10C40000606802F0BAFDAB681A88E96802236068C8
:10C4100002F0B3FD0020E4E770B5054615B14FF416
:10C42000064070BD1848007B18B1002016490873FB
:10C4300001E000F0DFF81448007808281DD2DFE89A
:10C4400000F01C04080C101C141800F03FF80446FF
:10C4500016E000F0BDF8044612E000F099F804463A
:10C460000EE000F047F804460AE000F035F9044613
:10C4700006E000F043F9044602E048F20E6400BF13
:10C4800000BF2046CDE70000644100200D48008930
:10C49000401C0C49088100204880087300BF0DE053
:10C4A00000EB8001084A12F8211009B9012200E0CE
:10C4B000002204490A310A54411C88B20228EFDBE9
:10C4C00070470000644100203C41002010B508483E
:10C4D00000F036F840B900200549891E08704880F0
:10C4E000486041F61D5010BD00F072F8FBE70000F7
:10C4F0006641002070B50F48458805EB85000E4960
:10C5000001EB8000C06878B904200A49087005EB87
:10C510008500094A02EB8000002301224168074898
:10C5200001F09EFD044602E000F090F8044620462B
:10C5300070BD0000644100203C410020BC3D002053
:10C5400010B501460022002018E00F4B1B5C9BB188
:10C5500000240D4B1C5400EB80030C4C04EB8303B4
:10C56000DB684BB900EB800304EB83031B7C012BDE
:10C5700002D10880012203E0431C98B20228E4DBC8
:10C5800000BF104610BD00006E4100203C4100205D
:10C59000F8B50C4844680C4800680B49898800EBE2
:10C5A00081056088C01C86B20320064908700020FF
:10C5B000B3000090084629464268044801F072FE24
:10C5C000F8BD000064410020543A0020BC3D00202A
:10C5D00010B507494888091D04F054FE18B1FFF74B
:10C5E000D7FF044602E0FFF785FF0446204610BD52
:10C5F0006441002010B514480078082820D2DFE8F4
:10C6000000F0041F1F0A1016171BFFF73FFF012041
:10C610000D49087015E000F07DF802200A49087005
:10C620000FE000F029F806200749087009E000BF74
:10C6300007200549087004E001200349087000E064
:10C6400000BF00BF10BD00006441002010B50520F0
:10C650000649087002200649888008460023012206
:10C660000168044801F0FCFC10BD0000644100209A
:10C67000543A0020BC3D00201449086814494988F8
:10C6800001EB8101134A02EB810149680F4A1160F5
:10C690000F49498801EB81010E4A02EB8101486094
:10C6A0000A4989880A4A528802EB8202094B03EB45
:10C6B000820211810221054A91800021044A528898
:10C6C00002EB820203EB820211747047543A00209D
:10C6D000644100203C41002010B506200549087047
:10C6E000498801EB8101044A02EB8101486804F0AA
:10C6F0003BFA10BD644100203C41002010B50720EA
:10C70000034908700020486004F03EFA10BD0000A4
:10C7100064410020054A50684288D21C91B2044A04
:10C7200092880A44024B9A807047000064410020BE
:10C73000543A002070B50B48FFF77AFB0A4B0CCB3C
:10C74000841843F10005094903C9201A75EB01005B
:10C7500004D24FF08073E41845F1000520462946C5
:10C7600070BD0000103A0020203A0020283A002036
:10C7700070B504460D46204600F01DF8A84201D9C8
:10C78000022070BDA0884FF6FF71884204D0208837
:10C7900010B1A068401C08B90120F2E70020F0E7C2
:10C7A000024613468B4204D21868401C08B101208F
:10C7B00070470020FCE701464A8801F10C0000EBBD
:10C7C0008200704770B504460D460948606009480C
:10C7D00000F0A6FD50B902F081FF064908741C2341
:10C7E0008C2205490548006800F013FD002070BD4B
:10C7F000902A03001C420020804100209C2A030054
:10C800002DE9F04106460C4648F20E6736B100208D
:10C81000434948604FF40640BDE8F081207930B1CB
:10C8200001280AD0022835D003286DD140E001202C
:10C83000207104F0A9F9074667E04FF000080025D1
:10C8400019E005EB8500374911F82000022810D1C6
:10C85000002005EB8501334A02F821004FF0010862
:10C8600005EB850102EB8101486804F07DF907467C
:10C8700003E0681C85B2022DE3DB00BFB8F1000FB6
:10C8800007D10120264908700020486041F61D505C
:10C89000C2E73AE000202071022023498880084640
:10C8A000002301220168214801F0DAFB07462CE051
:10C8B000002020711C49086804F056F907461C48FE
:10C8C00045881948D0F8008005EB8500154901EB33
:10C8D000800040681449086005EB8500114901EBB0
:10C8E0008000C0F804801048808805EB85010D4A5F
:10C8F00002EB8101088102200B498880002005EBB2
:10C90000850102F8210000E000BF00BF2FB1002028
:10C910000349486048F20D607EE700207CE7000094
:10C92000403A00203C410020543A0020BC3D002009
:10C9300064410020024600210CE001EB8100074B1E
:10C9400033F82000904204D101EB810003EB80001A
:10C950007047491C0029F0D00020F9E7603E002014
:10C960002DE9FC5F83460E4691461F46DDE90C45E6
:10C97000002E01DA704200E0304682464FF0010896
:10C9800003E09AFBF9FA08F10108CA45F9DA4745CC
:10C9900000D9B84634B1002E03DB05F004000428AA
:10C9A00000D1641E05F0020000B167B105F001007E
:10C9B00048B944B104E0641E20215846FEF706FF42
:10C9C0000CB1A045F7D3002E05DA76422D2158464A
:10C9D000FEF7FCFE07E005F00400042803D12B213C
:10C9E0005846FEF7F3FE05F0020002280DD105F0CF
:10C9F000010050B94FB944B104E0641E30215846DB
:10CA0000FEF7E4FE0CB1A045F7D33B464A4631465B
:10CA10005846CDE9004505F069FDBDE8FC9F0000E2
:10CA20002DE9F04104460E464FF48E71206802F065
:10CA30008AFF4FF4A271206802F085FF1A4920682E
:10CA400002F091FF206803F033F805463746284688
:10CA50003946002804DB4A07130E144A135408E031
:10CA60004A074FEA126C124A00F00F031B1F02F82C
:10CA700003C000BF00BF206803F01AF8054628462F
:10CA800000280DDB00BF00BF00F01F020121914014
:10CA90004209920002F1E022C2F8001100BF00BF7B
:10CAA00000BF00BFBDE8F0818000020000E400E0AC
:10CAB00018ED00E02DE9F04104460E464FF4887170
:10CAC000206802F073FF4FF49071206802F06EFF4F
:10CAD0004FF49271206802F069FF4FF4A271206850
