:020000040002F8
:10700000806D0020DD730200E5730200E77302006B
:10701000E9730200EB730200ED7302000000000050
:10702000000000000000000000000000EF730200FC
:10703000F173020000000000F3730200F573020018
:107040003D8E0200F7730200BD980200F773020044
:10705000F773020000000000818D020000000000B4
:107060005D980200759802008D980200F773020087
:10707000F7730200F7730200F7730200F773020060
:10708000E1A0020081960200F7730200F77302008C
:10709000F7730200F773020099960200F77302007B
:1070A000F7730200F7730200A598020000000000C9
:1070B00000000000000000000000000000000000D0
:1070C00000000000000000000000000000000000C0
:1070D000000000000000000000000000F773020044
:1070E00000000000000000000000000000000000A0
:1070F0000000000000000000000000000000000090
:10710000000000000000000000000000000000007F
:10711000000000000000000000000000000000006F
:10712000000000000000000000000000000000005F
:10713000000000000000000000000000000000004F
:10714000000000000000000000000000000000003F
:10715000000000000000000000000000000000002F
:10716000000000000000000000000000000000001F
:10717000000000000000000000000000000000000F
:1071800000000000000000000000000000000000FF
:1071900000000000000000000000000000000000EF
:1071A00000000000000000000000000000000000DF
:1071B00000000000000000000000000000000000CF
:1071C00000000000000000000000000000000000BF
:1071D00000000000000000000000000000000000AF
:1071E000000000000000000000000000000000009F
:1071F000000000000000000000000000000000008F
:10720000DFF80CD000F012FA0048004779D50200F0
:10721000806D002000B583B002900091019244F28D
:10722000010071466A4603F091F903B000BD000009
:1072300030B450E8012F93B2C48923448489A34217
:1072400028BF1B1B0489A34202BFBFF32F8F00205E
:1072500007E0C3EA020340E80134002CE9D14FF013
:1072600001000A6030BC704750E8012FC2EA0242B8
:1072700040E801210029F7D1704730B450E8022FCF
:107280001FFAA2F3C488A34202BFBFF32F8F0020CE
:107290000DE0C48923448489A34228BF1B1BC2EA92
:1072A000034340E80234002CE8D14FF001000A60AB
:1072B00030BC704750E8022FC2EA224240E8022167
:1072C0000029F7D17047034653E8022FD988B2EB63
:1072D000324F4FF0000017BF92B241EA014142EA3B
:1072E000014104E05A68B2EB324F08BF012043E885
:1072F0000212002AE8D1704730B4044654E8000F67
:107300000D4644E80053002BF8D1156030BC70479F
:1073100030B4044654E8000F40EA010544E8005345
:10732000002BF7D1156030BC704730B4044654E8E8
:10733000000F00EA010544E80053002BF7D1156067
:1073400030BC704730B4044654E8000F80EA0105B1
:1073500044E80053002BF7D1156030BC704730B4BF
:10736000044654E8000F00EB010544E80053002BED
:10737000F7D1156030BC704730B4044654E8000FB4
:10738000A0EB010544E80053002BF7D1156030BC99
:10739000704770B404464FF0000054E8006F0D6869
:1073A000AE4207BF44E80023012044E800630E60BA
:1073B000002B1CBF0020F0E770BC704730B40446BF
:1073C00054E8000F88422CBF451A054644E8005394
:1073D000002BF5D1156030BC70470000064880478F
:1073E00006480047FEE7FEE7FEE7FEE7FEE7FEE7AA
:1073F000FEE7FEE7FEE7FEE7B1960200017202003B
:107400002DE9F05F0546002092469B4688460646D9
:10741000814640241BE0284641464746224600F06C
:107420002FF853465A46C01A914110D311461846B8
:10743000224600F016F82D1A67EB01084F46224647
:107440000120002100F00DF817EB00094E41201E2D
:10745000A4F10104DFDC484631462A464346BDE834
:10746000F09F202A04DB203A00FA02F10020704746
:107470009140C2F1200320FA03F319439040704772
:10748000202A04DB203A21FA02F00021704721FA79
:1074900002F3D040C2F120029140084319467047E0
:1074A00040EA01039B0703D009E008C9121F08C086
:1074B000042AFAD203E011F8013B00F8013B521E06
:1074C000F9D27047D2B201E000F8012B491EFBD27D
:1074D00070470022F6E710B513460A4604461946DF
:1074E000FFF7F0FF204610BD421E12F8013F002BAF
:1074F000FBD111F8013B02F8013B002BF9D1704799
:10750000421C10F8011B0029FBD1801A704710B5EE
:10751000002200E0521C835C8C5CA34201D1002B52
:10752000F8D1D8B2E1B2401A10BD30B504460020FF
:10753000034600E05B1C934203D2E05CCD5C401B41
:10754000F8D030BD034611F8012B00F8012B002ABA
:10755000F9D11846704730B505460020034600E0D3
:107560005B1C934205D2EC5CC85C201A01D1002C54
:10757000F6D130BD70B5064602F006FE0468054639
:107580000A220021304600F018F82C6070BD30B59A
:107590000B46014600202022012409E021FA02F5D1
:1075A0009D4205D303FA02F5491B04FA02F528446B
:1075B000151EA2F10102F1DC30BD2DE9F047914624
:1075C0000F4680460446002614F8015B2DB100F0FA
:1075D0003FF80068405DC007F6D12B2D02D02D2D5D
:1075E00018D0641E4A463946204600F035F827B1C7
:1075F0003968A14201D1C7F8008071054FF002043B
:107600000BD54042002803DD02F0BEFD0460A00758
:10761000BDE8F08746F48066E4E70028F8DA02F077
:10762000B3FD04606FF00040F2E70000064C074D28
:1076300006E0E06840F0010394E807009847103442
:10764000AC42F6D3FFF7E0FD0C2603002C26030026
:1076500000487047082603002DE9F05F8246007855
:10766000002715468B460AF10104B946302801D09F
:107670009DB113E014F8010B0127782803D0582896
:1076800001D045B10AE00DB1102D07D1002710251A
:1076900014F8010B02E0082500E00A250026B04698
:1076A0000EE005FB080005FB06F1012701EB104683
:1076B0001FFA80F8B6F5803F00D3B94614F8010BE5
:1076C000294600F018F80028EBDABBF1000F05D0CE
:1076D0000FB1641E00E05446CBF80040B9F1000F32
:1076E00006D002F051FD02210160C81EBDE8F09FE6
:1076F00048EA0640FAE73A2800D2303820F0200263
:10770000412A01D3A2F13700884201D34FF0FF3064
:10771000704770B58C1810F8015B15F0070301D1A4
:1077200010F8013B2A1106D110F8012B03E010F8E4
:10773000016B01F8016B5B1EF9D12B0705D4002307
:10774000521E0DD401F8013BFAE710F8013BCB1AA9
:10775000921C03E013F8015B01F8015B521EF9D59E
:10776000A142D8D3002070BD30B5B7B013A801F046
:10777000A3FC3C2104A8FFF7ACFE142132A8FFF7BC
:10778000A8FE0020ADF8040032A903911220ADF844
:10779000080006208DF8130001A80D902F48021D47
:1077A000016804A803F0E7F9044600BF25463DB18F
:1077B00000BF2BA240F213112846FFF72BFD00BF9C
:1077C00000BF3C2123A8FFF784FE02208DF88C0027
:1077D00001208DF88E00ADF89C002B4923A8416153
:1077E0001E4800F10C02816823A803F0C4F9044686
:1077F00000BF25463DB100BF19A240F21D11284629
:10780000FFF708FD00BF00BF18211DA8FFF761FEAC
:1078100001208DF889000020ADF8800001208DF84E
:10782000740000201E908DF8880019981F901DAAE2
:107830000A49164872DF044600BF25463DB100BF25
:1078400007A240F229112846FFF7E4FC00BF00BF61
:1078500000200F49087037B030BD0000483B0020C1
:107860002E2E5C2E2E5C2E2E5C2E2E5C2E2E5C2E52
:107870002E5C2E2E5C757365725C757365725F622B
:107880006C652E6300000000863B0020463B002014
:10789000DB3D0020F0B5ADB005466E784FF6FF70C9
:1078A00000EA0626287806431222A91C01A8FFF741
:1078B000F7FD3C211BA8FFF70CFEADF8A86001A95D
:1078C0002AA881601220ADF8AC002AA824900420D8
:1078D0008DF86F000120ADF87C002E491BA8416196
:1078E0002D48021D01681BA803F045F9044600BF9E
:1078F00027463FB100BF29A24FF4B2713846FFF7C7
:1079000089FC00BF00BF3C210CA8FFF7E2FD02206C
:107910008DF8300001208DF832001F4800F10C0274
:1079200081680CA803F027F9044600BF27463FB141
:1079300000BF1AA24FF4B6713846FFF76BFC00BFC8
:1079400000BF182106A8FFF7C4FD01208DF82D0007
:107950000020ADF8240004208DF8180000200790C6
:107960008DF82C002020089006AA0B49154872DFDC
:10797000044600BF27463FB100BF08A240F279117C
:107980003846FFF747FC00BF00BF02200E490870D1
:107990002DB0F0BD863B0020683B00202E2E5C2ED3
:1079A0002E5C2E2E5C2E2E5C2E2E5C2E2E5C2E2E11
:1079B0005C757365725C757365725F626C652E636E
:1079C00000000000463B0020DB3D002070B50B4965
:1079D00091F8540074DF04460CB102F0B5FB00BF0F
:1079E000254635B100BF06A2EF212846FFF712FC5D
:1079F00000BF00BF002001F023FD70BD98440020AF
:107A00002E2E5C2E2E5C2E2E5C2E2E5C2E2E5C2EB0
:107A10002E5C2E2E5C757365725C757365725F6289
:107A20006C652E630000000070B5012113480078DA
:107A300073DF04460CB102F087FB00BF25463DB161
:107A400000BF0FA240F28B112846FFF7E3FB00BFF7
:107A500000BF022004F09AF8044600BF25463DB15D
:107A600000BF07A24FF4C7712846FFF7D3FB00BF42
:107A700000BF012001F0E4FC70BD0000463B002087
:107A80002E2E5C2E2E5C2E2E5C2E2E5C2E2E5C2E30
:107A90002E5C2E2E5C757365725C757365725F6209
:107AA0006C652E630000000070B50C4991F854001D
:107AB00074DF04460CB102F047FB00BF25463DB120
:107AC00000BF07A24FF4CE712846FFF7A3FB00BF0B
:107AD00000BF002001F0B4FC70BD000098440020FD
:107AE0002E2E5C2E2E5C2E2E5C2E2E5C2E2E5C2ED0
:107AF0002E5C2E2E5C757365725C757365725F62A9
:107B00006C652E630000000013210248008876DFB8
:107B100070470000443B0020F8B505460F46288812
:107B200021283FD006DC10280BD0112829D013289B
:107B300073D14AE03B2872D052285AD05628F7D148
:107B40007EE0012001F0E4FC00F09FFD00F09EFAD1
:107B5000002001F075FCA888434908800846018888
:107B6000424806F0BBF8044600BF26463EB100BFBF
:107B70003FA240F28B313046FFF74CFB00BF00BF05
:107B800070E0002001F0C4FC00F058FD012001F07D
:107B900057FC00F04FFAFFF747FF4FF6FF703249EE
:107BA00008805FE000200090A88869468FDF0446C7
:107BB00000BF26463EB100BF2DA240F2A1313046A3
:107BC000FFF728FB00BF00BF4CE000231A468521C9
:107BD000254800887FDF044600BF26463EB100BF2F
:107BE00023A240F2A7313046FFF714FB00BF00BFCD
:107BF00038E000231A4619461B480088B1DF0446C6
:107C000000BF26463EB100BF19A240F2AD3130465A
:107C1000FFF700FB00BF00BF24E022E0FFE7A888D9
:107C2000132176DF044600BF26463EB100BF10A2F6
:107C30004FF46D713046FFF7EDFA00BF00BF11E061
:107C4000A888132176DF044600BF26463EB100BF58
:107C500007A240F2BB313046FFF7DCFA00BF00BF9D
:107C600000E000BF00BFF8BD443B00208C44002072
:107C70002E2E5C2E2E5C2E2E5C2E2E5C2E2E5C2E3E
:107C80002E5C2E2E5C757365725C757365725F6217
:107C90006C652E630000000010B5044600BF04A20E
:107CA00040F22F212046FFF7B5FA00BF10BD0000BB
:107CB0002E2E5C2E2E5C2E2E5C2E2E5C2E2E5C2EFE
:107CC0002E5C2E2E5C757365725C757365725F62D7
:107CD0006C652E630000000030B587B01C2168463B
:107CE000FFF7F7FB002000904FF4A03001904FF415
:107CF000F020029003208DF80C004FF6FF70ADF8D5
:107D00000E0001208DF81000002005900948069013
:107D1000684603F099F9044600BF25463DB100BF0F
:107D200005A240F22B212846FFF774FA00BF00BFDE
:107D300007B030BD997C02002E2E5C2E2E5C2E2EBC
:107D40005C2E2E5C2E2E5C2E2E5C2E2E5C757365AA
:107D5000725C757365725F626C652E630000000073
:107D600030B58DB0684601F0A7F900BF9DF8280036
:107D700020F00F00401C0A909DF8280020F0F00031
:107D800010300A9000BF6846FFF7BAFB85B22A465A
:107D900069460AA87CDF044600BF25463DB100BF06
:107DA00017A24FF403712846FFF734FA00BF00BF53
:107DB00000200B900C901C48008EADF82C001A4847
:107DC000408EADF82E001848808EADF83000164871
:107DD000C08EADF832000BA87ADF044600BF2546FE
:107DE0003DB100BF06A240F217212846FFF712FA64
:107DF00000BF00BF1021112001F090FB0DB030BD7D
:107E00002E2E5C2E2E5C2E2E5C2E2E5C2E2E5C2EAC
:107E10002E5C2E2E5C757365725C757365725F6285
:107E20006C652E6300000000CC48002070B5002176
:107E3000084805F09FFE044600BF25463DB100BF3F
:107E400005A24FF411712846FFF7E4F900BF00BF07
:107E500070BD0000704400202E2E5C2E2E5C2E2E55
:107E60005C2E2E5C2E2E5C2E2E5C2E2E5C75736589
:107E7000725C757365725F626C652E630000000052
:107E80002DE9F04105462878002829D1002617E081
:107E900000BF2969885D02F033FD04466CB1112CE6
:107EA0000BD000BF27463FB100BF0EA240F26521B4
:107EB0003846FFF7AFF900BF00BF112CE9D0761CA0
:107EC000A88AB042E4D8A88A401E2969085C0D2817
:107ED00005D100BF0A2002F013FD1128FAD000BF1F
:107EE000BDE8F0812E2E5C2E2E5C2E2E5C2E2E5C9C
:107EF0002E2E5C2E2E5C2E2E5C757365725C757357
:107F000065725F626C652E630000000010B5044668
:107F100000BF04A240F25A312046FFF77BF900BFB0
:107F200010BD00002E2E5C2E2E5C2E2E5C2E2E5CA4
:107F30002E2E5C2E2E5C2E2E5C757365725C757316
:107F400065725F626C652E630000000070B50446C8
:107F50002078032802D0042808D104E06568284668
:107F600000F058FA03E000F065F800E000BF00BF41
:107F700070BD00007FB5002000900190029003903A
:107F80001E4800901E4A69461E4805F0BBFF044685
:107F900000BF25463DB100BF1BA240F2B5112846E7
:107FA000FFF738F900BF00BF2148FFF7A9FA88B1F1
:107FB0001F4A0021134805F043FF044600BF254631
:107FC0003DB100BF10A24FF4DE712846FFF722F941
:107FD00000BF00BF00221F210A4805F062FF0446CF
:107FE00000BF25463DB100BF07A24FF4E17128460E
:107FF000FFF710F900BF00BF7FBD0000783B0020F5
:108000004D7F0200CC4800202E2E5C2E2E5C2E2EA2
:108010005C2E2E5C2E2E5C2E2E5C2E2E5C757365D7
:10802000725C757365725F626C652E6300000000A0
:108030001C25030070B50A4806F0B4F8044600BFDA
:1080400025463DB100BF07A24FF4F5712846FFF762
:10805000E1F800BF00BF012001F054FA70BD00003C
:10806000CC4800202E2E5C2E2E5C2E2E5C2E2E5CFC
:108070002E2E5C2E2E5C2E2E5C757365725C7573D5
:1080800065725F626C652E630000000010B506F03B
:10809000B1F8002001F036FA10BD00003EB5002016
:1080A000019000901D48019001A91D4805F026FE91
:1080B000044600BF25463DB100BF1AA240F24B3135
:1080C0002846FFF7A7F800BF00BF002002901F4816
:1080D000029002A91E4803F065FB044600BF254636
:1080E0003DB100BF0FA240F251312846FFF792F890
:1080F00000BF00BF17480090684603F0DDF8044653
:1081000000BF25463DB100BF06A240F255312846CA
:10811000FFF780F800BF00BF3EBD00000D7F0200EA
:108120008C4400202E2E5C2E2E5C2E2E5C2E2E5C7F
:108130002E2E5C2E2E5C2E2E5C757365725C757314
:1081400065725F626C652E6300000000817E020034
:10815000283B002025B5020038B506F059FE04463C
:1081600000BF25463DB100BF15A240F26D31284643
:10817000FFF750F800BF00BF0020009069460120C3
:1081800006F044FD044600BF25463DB100BF0CA2E9
:1081900040F273312846FFF73DF800BF00BF684644
:1081A00006F094FD044600BF25463DB100BF04A281
:1081B00040F277312846FFF72DF800BF00BF38BDE9
:1081C0002E2E5C2E2E5C2E2E5C2E2E5C2E2E5C2EE9
:1081D0002E5C2E2E5C757365725C757365725F62C2
:1081E0006C652E630000000010B50446214602486D
:1081F00000F0F4FB10BD0000C44C002030B500209E
:10820000114C00252560656000211AE00022002342
:1082100013E00E4C04EB8104A45C0CB95C1CE3B2CB
:10822000042B05D10124084D6C54441CE0B202E03B
:108230000024054D6C54541CE2B2042AE9DB4C1CAA
:10824000E1B20829E2DB30BDB83B0020084D002038
:108250002DE9F04186B000240025002600274FF0CC
:108260001008142101A8FFF734F913208DF8040039
:10827000EF208DF8050000BF10E000250AE0284837
:1082800000EB8400415D01AAF01C1154701CC6B2C1
:10829000681CC5B2042DF2DB601CC4B2042CECDBFC
:1082A0008DF8068011210DF1060000F027F9074630
:1082B0008DF81770002101A800F04AFE142101A8D2
:1082C000FFF707F9002713208DF80400EF208DF841
:1082D00005000424002610E000250AE0104800EB09
:1082E0008400415D01AAF01C1154701CC6B2681CC8
:1082F000C5B2042DF2DB601CC4B2082CECDB8DF897
:10830000068011210DF1060000F0F8F807468DF8FF
:108310001770012101A800F01BFE06B0BDE8F08136
:10832000084D00202DE9F04F04464FF0000AD346D7
:10833000D146C846A078314981F85000A078C117CD
:1083400000EB91714FEAA109FFF758FF83462046E1
:1083500000F0FCF88046A8F10200C1B2A01C00F0B9
:10836000CDF8264981F85100084690F8510014F8DC
:108370000810884201D0BDE8F08F002004F8080002
:10838000BBF1000F00D1F6E7B9F1050F13D2DFE81A
:1083900009F00306090C0F004FF0040A0CE04FF03F
:1083A000040A09E04FF0080A06E04FF00C0A03E067
:1083B0004FF0100A00E000BF00BF0025002619E0C2
:1083C0000F48405D012813D10C49485500270AE0A9
:1083D000F01C215C0948303000EB8500C155701C51
:1083E000C6B2781CC7B2042FF2DB564500D1C2E7F3
:1083F000681CC5B2082DE3DB00BFBCE7D84C0020E9
:10840000B83B002010B514210148FFF762F810BDF9
:10841000C44C00202DE9F047064600250027B4692A
:1084200059E014F80580681C14F80090B9F1030FA6
:1084300009D0B9F1090F07D0B9F10A0F05D0B9F188
:10844000FF0F43D123E041E040E0207A13281DD103
:10845000607AEE281AD1A07C0B30C7B2A07A2149ED
:108460000978884212D1E07A1E49497888420DD1B4
:10847000207B1C498978884208D1394604F10800DC
:1084800000F070F8791CC8B2FFF7AEFE1EE0E0798C
:1084900013281AD1207AEE2817D1607C0C30C7B28D
:1084A000607A1049097888420FD1A07A0D4949783D
:1084B00088420AD1E07A0B498978884205D1E01DCB
:1084C00000F012F83846FFF78FFE00BF00BF08F13A
:1084D0000100054400BFB08BA842A2D80520BDE82A
:1084E000F0870000B53B002010B504461422214659
:1084F0000148FEF7D5FF10BDC44C002010B5024660
:108500000B460020002104E0545C0444E0B24C1C03
:10851000E1B29942F8DB10BD10B50B4800210160B3
:1085200041608160C16020211030FEF7D2FF202120
:1085300005483030FEF7CDFF0020034981F8510097
:1085400081F8500010BD0000D84C002001460020EA
:108550008A78012A01D1072002E08A78D21CD0B2A1
:108560007047000070B505460C4600262246294695
:108570000348FEF795FFA01C2E5C0148065570BD10
:10858000C44C002030B503460024002213E0002133
:108590000CE0C81C1D5C0C4800EB8200405C85426E
:1085A00002D0601CC4B203E0481CC1B20429F0DB55
:1085B00000BF501CC2B2082AE9DB082C01D1002000
:1085C00030BD0120FCE70000084D0020FCB502464C
:1085D0000C460026009601960E20002500210EE094
:1085E000165C412E01DB372100E03021165C761A43
:1085F000F6B20DF80560461CF0B26E1CF5B21428F8
:10860000EEDB0020002100230DE01DF80010461CC9
:10861000F0B20E07310E1DF800603143E154461CE4
:10862000F0B25E1CF3B20628EFDBFCBD10B50248C9
:10863000007807F03FFA10BD913B0020052000BFF5
:1086400001070A46012303FA00F1C2F8081500BF2A
:1086500000BF7047F0B5052001210A4600242346DB
:10866000254600BF07073E4641EA420747EA84071E
:1086700047EA032747EA054C06F5E06747F820C0BC
:1086800000BF00BFFFF7DAFFF0BD052000BF010704
:108690000A46012303FA00F1C2F80C1500BF00BF1F
:1086A000704710B506F06CF910BD000070B50024DD
:1086B00000BF25463DB100BF04A240F26711284625
:1086C000FEF7A8FD00BF00BF70BD00002E2E5C2E7F
:1086D0002E5C2E2E5C2E2E5C2E2E5C2E2E5C2E2ED4
:1086E0005C757365725C757365725F6472697665DB
:1086F0002E63000070B506F023F9044600BF25463E
:108700003DB100BF04A24FF4A3712846FEF782FDDD
:1087100000BF00BF70BD00002E2E5C2E2E5C2E2EE2
:108720005C2E2E5C2E2E5C2E2E5C2E2E5C757365C0
:10873000725C757365725F64726976652E630000A2
:1087400030B58BB000243B4B0FCB07AD0FC539497B
:10875000103103C9CDE90101374A01A9374806F0B4
:108760005BFE044600BF254635B100BF34A27F2121
:108770002846FEF74FFD00BF00BF2F4A01A92F4832
:10878000083006F049FE044600BF254635B100BF5B
:108790002BA281212846FEF73DFD00BF00BF264ADF
:1087A00001A92648103006F037FE044600BF2546D2
:1087B00035B100BF22A283212846FEF72BFD00BF62
:1087C00000BF1E48089906F0A5FE04901B4808301B
:1087D000099906F09FFE0590184810300A9906F096
:1087E00099FE069001200090022301461348049A46
:1087F00006F0F0FD01200090042302210F4808300C
:10880000059A06F0E7FD01200090082303210B489C
:108810001030069A06F0DEFD084806F0C9FD07484C
:10882000083006F0C5FD0548103006F0C1FD0BB05C
:1088300030BD000044250300899E02009C3B0020BF
:108840002E2E5C2E2E5C2E2E5C2E2E5C2E2E5C2E62
:108850002E5C2E2E5C757365725C757365725F6439
:10886000726976652E63000070B501F033FF04462F
:1088700000BF254635B100BF03A26E212846FEF792
:10888000C9FC00BF00BF70BD2E2E5C2E2E5C2E2EAC
:108890005C2E2E5C2E2E5C2E2E5C2E2E5C7573654F
:1088A000725C757365725F64726976652E63000031
:1088B00010B50446207830B1012822D0022818D003
:1088C000042827D125E001201449087014480078B5
:1088D0001E280DDA1349144A1278881801F056FF41
:1088E00011480078401C1049087000200C4908709D
:1088F00011E000BF0DA250216068FEF78BFC00BFA5
:1089000009E000BF09A256216068FEF783FC00BFA2
:1089100001E000E000BF00BF10BD00008C3B002064
:10892000903B0020924C0020B43B00202E2E5C2E69
:108930002E5C2E2E5C2E2E5C2E2E5C2E2E5C2E2E71
:108940005C757365725C757365725F647269766578
:108950002E63000030B58BB01822124905A8FEF72F
:108960009FFD00BF104801904FF4807002900F48A7
:1089700003904FF48070049007230D4A01A905A8C5
:1089800001F050FF044600BF00BF254635B100BFCF
:1089900008A22E212846FEF73DFC00BF00BF0BB009
:1089A00030BD00002C2503005E4A00205E4B0020F5
:1089B000B18802002E2E5C2E2E5C2E2E5C2E2E5C9C
:1089C0002E2E5C2E2E5C2E2E5C757365725C75737C
:1089D00065725F64726976652E63000070B5054646
:1089E0000E46002404E0285D01F08AFF601CC4B23A
:1089F000B442F8DB70BD70473EB50024134A07CA85
:108A00008DE807001249684607F06CF8044600BF7D
:108A100025463DB100BF0FA24FF4BE712846FEF7B8
:108A2000F9FB00BF00BF154807F01AF8044600BF65
:108A300025463DB100BF07A240F27F112846FEF750
:108A4000E9FB00BF00BF07F03BF83EBD5C2503001B
:108A5000F78902002E2E5C2E2E5C2E2E5C2E2E5CB4
:108A60002E2E5C2E2E5C2E2E5C757365725C7573DB
:108A700065725F64726976652E630000913B002029
:108A8000017831B101290AD002290ED0052918D167
:108A900011E0416811B900210B4AD17012E0416820
:108AA00011B90021084AD1700CE0416811B90021C8
:108AB000054AD17006E0416811B90021024AD1701F
:108AC00000E000BF00BF7047083E002070B50E48B0
:108AD0008078012817D10C48C078A0B900200A4935
:108AE00088700120C87003F0F3FE044600BF2546DD
:108AF00035B100BF05A250212846FEF78BFB00BF11
:108B000000BF00F033F970BD083E00202E2E5C2E11
:108B10002E5C2E2E5C2E2E5C2E2E5C2E2E5C2E2E8F
:108B20005C757365725C757365725F6664732E63E2
:108B30000000000000487047E03D002030B585B0DF
:108B40000020029003900490009001901D4803F0D3
:108B5000C7FF01201C49C87003F0DCFE044600BFBB
:108B6000254635B100BF19A28A212846FEF752FBDF
:108B700000BF00BF00F0FAF80020009001906B46A3
:108B800002AA41F20101481E03F05EFF0446A4B1AF
:108B900001200D49C870174902A803F097FF044649
:108BA00000BF254635B100BF08A293212846FEF735
:108BB00031FB00BF00BF00F0D9F800F01DF805B090
:108BC00030BD0000818A0200083E00202E2E5C2E5F
:108BD0002E5C2E2E5C2E2E5C2E2E5C2E2E5C2E2ECF
:108BE0005C757365725C757365725F6664732E6322
:108BF000000000007825030030B587B00020049005
:108C000005900690029003900290039002AB04AA94
:108C100041F20101481E03F017FF0446002C26D143
:108C200000900190694604A803F01AFF044600BFB3
:108C3000254635B100BF0FA275212846FEF7EAFA96
:108C400000BF00BF282215480199FEF729FC04A89F
:108C500003F0C6FE044600BF254635B100BF05A29D
:108C60007B212846FEF7D6FA00BF00BF00BF07B041
:108C700030BD00002E2E5C2E2E5C2E2E5C2E2E5C27
:108C80002E2E5C2E2E5C2E2E5C757365725C7573B9
:108C900065725F6664732E6300000000E03D002093
:108CA00010B500F015F8FFF711FF10BD0FB410B5A7
:108CB000282202A90248FEF7F3FB10BC5DF814FB62
:108CC000E03D00200149087070470000083E002088
:108CD00030B585B000200290039004900090019080
:108CE00016480078012826D11448C078002822D1DF
:108CF0000090019001201149C8706B4602AA41F210
:108D00000101000303F0A0FE0446A4B900200B49B2
:108D100008700B4902A803F0CBFE044600BF2546AD
:108D200035B100BF07A2AA212846FEF773FA00BF9B
:108D300000BF00F01BF805B030BD0000083E002069
:108D4000782503002E2E5C2E2E5C2E2E5C2E2E5CA3
:108D50002E2E5C2E2E5C2E2E5C757365725C7573E8
:108D600065725F6664732E630000000000E041DFFF
:108D70000248C0780028FAD170470000083E002061
:108D80002DE9F84F0026002000904FF48077012550
:108D9000002410E0384605F03DFD40B100BF2548F5
:108DA0000068284018B1384605F026FD2E436D00B6
:108DB000381D87B2641C082CECD34FF4BE7005F04C
:108DC00029FD50B14FF4BE7005F016FD46F0004687
:108DD0006A460121002005F0BBFCF0B210B301256A
:108DE00000241DE005EA0600C0B100BF124850F89B
:108DF0002400C0F30420814600BF0F4850F824002F
:108E0000C0F301408246204603F0A4F88046B8F142
:108E1000000F02D051464846C04700BF6D00641C99
:108E2000082CDFD306F0004010B1684607F000FCC4
:108E3000BDE8F88F046300401065004010B54FF4A2
:108E4000807005F0FBF980B14FF4807005F0FFF9F8
:108E5000012005F005FA2048407930B901201E496B
:108E6000487108460168002088474FF4827005F079
:108E7000E5F950B14FF4827005F0E9F9022005F0F0
:108E8000EFF915480168012088474FF4887005F014
:108E9000D5F950B14FF4887005F0D9F9102005F0DC
:108EA000DFF90D480168022088474FF4867005F00D
:108EB000C5F980B10020094908604FF4867005F0BB
:108EC000C6F9082005F0CCF900200349887108464E
:108ED00001680320884710BD403A0020340C004050
:108EE000024611B1012915D109E0002004E00B4B25
:108EF0001B5C1354431CD8B21428F8DB0BE0002091
:108F000005E0064B14331B5C1354431CD8B21428E1
:108F1000F7DB00E000BF00BF704700002C4D0020D1
:108F200010B5012008494870002008701421074836
:108F3000FEF7CFFA142105481430FEF7CAFA0020D4
:108F400000F0E6FA10BD0000D53D00202C4D0020B9
:108F500010B5024611B1012915D109E0002004E045
:108F6000135C0A4C2354431CD8B21428F8D30BE0EA
:108F7000002005E0145C054B14331C54431CD8B28C
:108F80001428F7D300E000BF00BF10BD2C4D002017
:108F900030B587B016A207CA04AB07C30020019002
:108FA0000290039000241548FEF7AAFA05462946C8
:108FB0001248FEF78EFA04A91048FEF7C3FA1048CB
:108FC000C0690A21B0FBF1F084B222460DA101A8CC
:108FD00001F0A6F801A90948FEF786FA0748FEF74E
:108FE0008FFA06493E220A54084607B030BD0000F9
:108FF0003C6164765F64656C61793D00B73D00203B
:10900000544D0020256400001FB512A207CA01AB11
:1090100007C3002000901248FEF772FA044621466A
:109020000F48FEF756FA01A90D48FEF78BFA0D48D6
:109030000DA18269684601F073F869460848FEF799
:1090400053FA0748FEF75CFA05493E220A540846DF
:1090500004B010BD3C6164765F696E743D00000031
:10906000B73D0020544D0020256400001CB50EA122
:1090700003C9CDE900010E48FEF742FA0446214635
:109080000B48FEF726FA69460948FEF75BFA0949DC
:109090000748FEF729FA0648FEF732FA04493E224D
:1090A0000A5408461CBD00003C6E616D653D000021
:1090B000B73D0020544D002010B504460949204614
:1090C000FEF740FA07488069A0610648C069E06180
:1090D0000448006A2062034890F8240084F82400C1
:1090E000012010BD544D002010B588B017A30FCB40
:1090F00004AC0FC400200190029003901748FEF7C3
:10910000FFF9044621461548FEF7E3F904A9134880
:10911000FEF718FA1248006A4FF47A71B0FBF1F0CA
:109120000F49086208460FA1026A01A800F0F8FF83
:1091300001A90A48FEF7D8F90848FEF7E1F90749FE
:109140003E220A54084608B010BD00003C61647617
:109150005F74696D656F75743D000000B73D002058
:10916000544D00202564000010B588B013A30FCB28
:1091700004AC0FC400200190029003901348FEF746
:10918000BFF9044621461148FEF7A3F904A90F4888
:10919000FEF7D8F90E4890F924200EA101A800F09E
:1091A000BFFF01A90948FEF79FF90848FEF7A8F993
:1091B00006493E220A54084608B010BD3C73745F4D
:1091C00074785F706F7765723D000000B73D0020D6
:1091D000544D00202564000010B5FFF7ABFC044699
:1091E00021460F48FEF7AEF9FFF7A4FC80690C4951
:1091F0008861FFF79FFCC0690949C861FFF79AFCC5
:10920000006A07490862FFF795FC90F8240040B215
:10921000034981F8240003490148FFF7D7F910BD3D
:10922000544D0020B53B00202DE9F04188B00546A3
:1092300000200690079000BF0F2680462846FEF7C4
:109240005FF9801B00F0FF08002405E03019285C5E
:1092500006A90855601CC4B24445F7DB06A8FEF712
:1092600089F987B207EB870040000749C8611822D7
:1092700010316846FEF714F903480FC8FFF716FDD2
:1092800008B0BDE8F0810000544D0020F0B589B071
:1092900005460020079008900D2600272846FEF777
:1092A0002FF9801BC7B2002405E03019285C07A9FC
:1092B0000855601CC4B2BC42F7DB07A8FEF75AF998
:1092C00006498861182210316846FEF7E9F803481C
:1092D0000FC8FFF7EBFC09B0F0BD0000544D0020B3
:1092E00038B500BF9DF8000020F00F00401C009032
:1092F0009DF8000020F0F0001030009000BF162212
:10930000074968467CDF044600BF254635B100BFEB
:1093100004A282212846FDF77DFF00BF00BF38BDB3
:10932000544D00202E2E5C2E2E5C2E2E5C2E2E5C9C
:109330002E2E5C2E2E5C2E2E5C757365725C757302
:1093400065725F706172616D2E630000F0B589B067
:109350000546002007900890112600272846FEF7B2
:10936000CFF8801BC7B2002405E03019285C07A99C
:109370000855601CC4B2BC42F7DB07A8FEF7FAF838
:109380004FF47A7148430649086218221031684642
:10939000FEF786F802480FC8FFF788FC09B0F0BD59
:1093A000544D0020F0B589B0054600200790089084
:1093B0000D2600272846FEF7A3F8801B401EC7B2E3
:1093C000A85D2B2812D100240DE03019401C285C28
:1093D00007A9085507A8FEF7CDF840B2144981F84F
:1093E0002400601CC4B2BC42EFDB15E0A85D2D2850
:1093F00012D100240EE03019401C285C07A9085542
:1094000007A8FEF7B7F8404240B2094981F82400A6
:10941000601CC4B2BC42EEDB18220549103168461C
:10942000FEF73EF802480FC8FFF740FC09B0F0BD58
:10943000544D00200148007870470000D73D0020BF
:109440000149087070470000D73D002070B586B014
:10945000054600262846FEF753F80B38C6B21621FB
:109460000E48FEF736F8002406E004F10A00285CF6
:109470000A490855601CC4B2B442F6DB08490748E3
:10948000FFF7A4F81822054910316846FEF708F8DE
:1094900002480FC8FFF70AFC06B070BD544D00200B
:1094A000B53B002010B5FFF7C5FFC8B1FEF7A6FE1B
:1094B000082809D10B48007890B1FEF7F5FAFEF7BD
:1094C00053F9FEF7B1FA0BE00748008840B9FEF700
:1094D00095FE042802DD00F07FF801E000F092F82C
:1094E00010BD0000DB3D0020923B002001480078C9
:1094F00070470000D93D0020014800787047000007
:10950000D83D00200149087070470000D83D002078
:109510000149087070470000D93D00202DE9FC4149
:1095200004460D460020009001908DF804000120B3
:109530008DF8030000208DF802009DF8000020F057
:109540000200801C8DF800009DF8000020F0010052
:10955000401C8DF800009DF8000064F387008DF832
:1095600000009DF8010020F00200801C8DF8010031
:109570009DF8010020F00100401C8DF801009DF8CD
:10958000010065F387008DF801006946012067DF5F
:10959000064600BF37463FB100BF05A240F2162184
:1095A0003846FDF737FE00BF00BFBDE8FC81000074
:1095B0002E2E5C2E2E5C2E2E5C2E2E5C2E2E5C2EE5
:1095C0002E5C2E2E5C757365725C757365725F70B0
:1095D0006172616D2E63000000B585B0142168468C
:1095E000FDF777FFFEF734FE00216846FFF778FCB1
:1095F000FEF75AFA6846FEF74DF9FEF715FA05B080
:1096000000BD000000B585B012216846FDF761FF7E
:109610001848C06918490988884229D8174800782D
:10962000401C16490870002013490880FEF710FE00
:1096300012480078012802D002280DD104E0002150
:109640006846FFF74DFC0BE001216846FFF748FC38
:1096500000200A49087003E000200849087000BF94
:1096600000BFFEF721FA6846FEF714F9FEF7DCF9B1
:1096700005B000BD544D00208E3B0020DC3D002095
:1096800010B5034A1068034A1168884710BD0000EE
:10969000803A00207C3A002010B505F0FBFB10BD9D
:1096A00001480249086070470090D0030C3E00203A
:1096B00010B504F0D1F840B100205E4908604FF0C9
:1096C0008041C1F810015C49086004F0F3F80028FB
:1096D00055D05A4800685A4908605848001D00682B
:1096E000091D0860554808300068091D0860534886
:1096F0000C300068091D0860504810300068091DD2
:1097000008604E4814300068091D08604B48183046
:1097100000684B492031086048481C300068091D2A
:109720000860464820300068091D0860434824301E
:109730000068091D0860414828300068091D08605C
:109740003E482C300068091D08603C4830300068F5
:109750003B4940310860394834300068091D0860D1
:10976000364838300068091D086034483C300068CD
:10977000091D0860314840300068091D086004F088
:109780003DF840B12F48006800F0010018B16FF0BB
:1097900001002C4908602C48006800F0004030B9F6
:1097A0002948001D006800F0004000283ED001203C
:1097B0002649086000BF264800680028FBD0122018
:1097C0002149086000BF224800680028FBD0122110
:1097D0001D48001D016000BF1D4800680028FBD027
:1097E00000201A49086000BF194800680028FBD013
:1097F00000BF00BF00BF00BF00BFBFF34F8F00BF5F
:1098000000BF00BF1348006800F4E060124908433D
:10981000001D1049086000BF00BF00BFBFF34F8F9D
:1098200000BF00BF00BF00BF00BFFDE7FFF738FF6C
:1098300010BD00000C010040380500400404001079
:1098400020C50040000400400012001004E5014063
:1098500000E401400CED00E00000FA0510B5042220
:109860000249034803F0B8FD10BD00006840002025
:109870000080004010B504220249034803F0ACFD0B
:1098800010BD0000744000200090004010B504227C
:109890000249034803F0A0FD10BD000080400020F5
:1098A00000A0004010B506220249034803F094FDD1
:1098B00010BD00008C40002000A0014010B50249FE
:1098C0000868804710BD0000483A0020014600208B
:1098D00006E00023044A02EB81021354421CD0B27A
:1098E0000428F6DB70470000084D00202DE9F04306
:1098F00085B081460E4600216846FFF7F1FAFB4924
:109900003046FDF704FE50B9FEF7FEF8F848FDF7C3
:10991000F7FD84B22146F648FFF760F845E2F549C5
:109920003046FDF7F4FDA0B9FFF7E0FD40B1F24885
:10993000FDF7E6FD84B22146EF48FFF74FF834E229
:10994000EE48FDF7DDFD84B22146EC48FFF746F80E
:109950002BE2EB493046FDF7DAFD50B9FEF796FBF6
:10996000E348FDF7CDFD84B22146E148FFF736F824
:109970001BE2E4493046FDF7CAFD50B9FEF75AFB39
:10998000DB48FDF7BDFD84B22146D948FFF726F834
:109990000BE2DD493046FDF7BAFDA0B9FFF7ACFD9B
:1099A00040B1DA48FDF7ACFD84B22146D748FFF755
:1099B00015F8FAE1D648FDF7A3FD84B22146D44854
:1099C000FFF70CF8F1E10A22D2493046FDF7C3FD5A
:1099D000B0B90120FFF776F9C548FDF791FD84B2D3
:1099E0002146C348FEF7FAFFFEF75EF83046FFF760
:1099F0002DFDFFF775FCFDF7B7FEFEF715F8D4E176
:109A0000C5493046FDF783FD58B9FFF72FFB814666
:109A10004846FDF775FD84B221464846FEF7DEFF55
:109A2000C3E10D22BD493046FDF795FDA0B90120E7
:109A3000FFF748F93046FFF729FCFEF735F8FDF748
:109A400093FEFDF7F1FFAA48FDF75AFD84B22146C7
:109A5000A748FEF7C3FFA8E1B1493046FDF757FD1F
:109A600058B9FFF7D1FA81464846FDF749FD84B25F
:109A700021464846FEF7B2FF97E10F22A94930463A
:109A8000FDF769FD70B90120FFF71CF93046FFF7BB
:109A9000CBFB9748FDF734FD84B221469448FEF78E
:109AA0009DFF82E1A0493046FDF731FD58B9FFF72F
:109AB0006FFA81464846FDF723FD84B221464846A9
:109AC000FEF78CFF71E1112298493046FDF743FD06
:109AD000A0B90120FFF7F6F8FDF7E6FF3046FFF7E3
:109AE00035FCFDF741FEFDF79FFF8148FDF708FDBE
:109AF00084B221467E48FEF771FF56E18C4930461C
:109B0000FDF705FD58B9FFF7EFFA81464846FDF726
:109B1000F7FC84B221464846FEF760FF45E18549DF
:109B20003046FDF7F4FC80B97148FDF7E9FC84B2DA
:109B300021466F48FEF752FFFFF77CFC10B905B0D5
:109B4000BDE8F083FDF742FF2FE17B493046FDF78A
:109B5000DEFC70B96648FDF7D3FC84B22146644848
:109B6000FEF73CFFFFF766FC00B1E8E7FDF75CFF9E
:109B70001BE172493046FDF7CAFCA0B9FFF75AFC59
:109B800040B16F48FDF7BCFC84B221466C48FEF73B
:109B900025FF0AE16B48FDF7B3FC84B22146694812
:109BA000FEF71CFF01E168493046FDF7B0FC40B903
:109BB0004F48FDF7A5FC84B221464D48FEF70EFF45
:109BC000F3E062493046FDF7A2FC40B94848FDF792
:109BD00097FC84B221464648FEF700FFE5E05C4969
:109BE0003046FDF794FC40B94148FDF789FC84B24A
:109BF00021463F48FEF7F2FED7E056493046FDF7D2
:109C000086FC40B93A48FDF77BFC84B221463848CF
:109C1000FEF7E4FEC9E00D224F493046FDF79BFCFC
:109C2000A0B90120FFF74EF8FDF73EFF3046FFF7E1
:109C3000B9FBFDF799FDFDF7F7FE4848FDF760FC1D
:109C400084B221464548FEF7C9FEAEE0444930469D
:109C5000FDF75DFC58B9FFF787FA81464846FDF7E6
:109C60004FFC84B221464846FEF7B8FE9DE03D49D0
:109C70003046FDF74CFCC0BB1D48FDF741FC84B2EB
:109C800021461B48FEF7AAFE4FF4FA7404B90EE011
:109C900000BF4FF47A7505B905E0334F4FEA8518D8
:109CA0004046B84700BF601E041EF2D100BF00BF8F
:109CB00000BF00BF00BF00BFBFF34F8F00BF00BF9A
:109CC00000BF2A48006800F4E06029490843001DED
:109CD0002649086000BF00BF00BFBFF34F8F00BF21
:109CE00000BF00BF00BF00BFFDE743E0C03B002056
:109CF0004B3D0020CD3B0020503D00205C3D00202E
:109D0000DD3B0020E93B0020F63B0020683D0020C1
:109D1000783D0020033C00200F3C00201B3C00202D
:109D20002A3C0020393C00204A3C00205B3C0020BB
:109D30006E3C0020813C00208C3C0020983C0020A0
:109D4000993D0020A83D0020A43C0020B73C002005
:109D5000CA3C0020E33C0020FC3C0020883D002061
:109D60000B3D00201B3D0020712503000CED00E0A1
:109D70000000FA0512493046FDF7C9FB20B904215D
:109D800010A0FEF72BFE10E00C2210493046FDF724
:109D9000E2FB50B90020FFF799FD0D48FDF7B0FB3D
:109DA00084B221460A48FEF719FE1F213046FDF70E
:109DB00090FB1F214846FDF78CFB00BFBFE600006B
:109DC000313D002056312E30000000003D3D002086
:109DD0004B3D00201CB5264800788DF8040024482F
:109DE00040788DF8050023480078009022480078DC
:109DF00000283CD11F480078012838DDFFF776FBAA
:109E000098B19DF804003C2804D119491B48FFF77C
:109E10006DFD06E01A4803886A461549194801F0A5
:109E200083FC00201349087021E09DF804001328EA
:109E30000ED19DF80500EF2819D10D48FEF7A2FBC1
:109E400010B90B48FEF76EFA00200A4908700EE0C0
:109E50009DF804003C2807D105490848FFF746FD56
:109E600000200449087002E00020024908701CBD6F
:109E7000924C0020B43B00208C3B0020604C002022
:109E8000443B0020283B002030B58BB004460D46F3
:109E90008E480088B0F57A7F02DD00208B4908806B
:109EA0008B480088642802DB002089490880B4F5CB
:109EB000A07F09D0B4F5A27F07D0B4F5A47F7DD0F0
:109EC000B4F5A67F7BD1E9E0FCE0FFF7B3FA002808
:109ED00076D001A8FFF7F0F8099808B90BB030BDAB
:109EE0007C480078012812D17A480069401C7949E1
:109EF0000861084600690999884208D3002075491D
:109F000008700861FFF7E2FC01207249087271488D
:109F10004078012815D16F484069401C6D4948615F
:109F200008464069099988420BD300206949487066
:109F30000021684841610120FFF7C8FC0121654804
:109F4000417264488078012815D162488069401CBC
:109F50006049886108468069099988420BD30020CE
:109F60005C49887000215B4881610220FFF7AEFCEC
:109F70000121584881725748C078012815D15548A9
:109F8000C069401C5349C8610846C06909998842A4
:109F90000BD300204F49C87000214E48C1610320F7
:109FA000FFF794FC01214B48C1724A48007901280F
:109FB00019D14848006A401C464902E063E080E04D
:109FC00060E008620846006A099988420BD30020C5
:109FD0004049087100213F4801620420FFF776FCE8
:109FE00001213C4801733B484079012815D139488B
:109FF000406A401C374948620846406A09998842CD
:10A000000BD30020334948710021324841620520BA
:10A01000FFF75CFC01212F4841732E48807901280D
:10A0200015D12C48806A401C2A4988620846806AFB
:10A03000099988420BD300202649887100212548C0
:10A0400081620620FFF742FC0121224881732148EA
:10A05000C079012815D11F48C06A401C1D49C8623B
:10A060000846C06A099988420BD300201949C87173
:10A0700000211848C1620720FFF728FC012115487C
:10A08000C17300BF1EE011480088401C0F490880C2
:10A090000F480088401C0E49088013E00E480078E5
:10A0A00001280DD10D480078401C0C490870084665
:10A0B00000781E2804DD0020074908700749087051
:10A0C00000E000BF00BF00BF08E700008E3B00209B
:10A0D000923B0020D84C00208C3B0020903B00207D
:10A0E00008B500BF4FF480700B49405808B10120FB
:10A0F00000E0002078B109480068804700BF0020D8
:10A100004FF48071044A8850084611464058009028
:10A1100000BF00BF00BF08BD00000140543A00204E
:10A120000FB4084B10B504A902AA039800F062F816
:10A13000044602A9002000F007F9204610BC5DF893
:10A1400014FB000049A3020000BF00BF00BFBFF323
:10A150004F8F00BF00BF00BF0948006800F4E060F7
:10A1600008490843001D0649086000BF00BF00BF42
:10A17000BFF34F8F00BF00BF00BF00BF00BFFDE7B0
:10A180000CED00E00000FA0500487047103E00208A
:10A1900002E008C8121F08C1002AFAD170477047B0
:10A1A000002001E001C1121F002AFBD1704700000E
:10A1B0000146202908DA012088400A4A104008B1E7
:10A1C000012070470020FCE7402909DAA1F12000B6
:10A1D000012202FA00F008B10120F2E70020F0E7C6
:10A1E0000120EEE7FC06FFBD00BFEFF3108108463B
:10A1F00072B670472DE9FF4F89B09B460446002593
:10A2000006E025280BD05A460B999047641C6D1C1C
:10A2100020780028F5D10DB02846BDE8F08F002742
:10A22000B8460122474900E0074314F8013F203BAC
:10A2300002FA03F00842F7D120782E2819D114F839
:10A24000010F47F004072A280ED06FF02F02207864
:10A25000A0F1300109290CD808EB880102EB41017B
:10A2600000EB0108641CF2E70A98641C50F8048BA8
:10A270000A9020780028CED0642808D0692806D01B
:10A2800075281ED05A460B9990476D1C58E00A99C4
:10A290004FF00A0901C90A91002802DA40422D2133
:10A2A00002E0390504D52B218DF82010012103E0AF
:10A2B000F90704D02021F7E78A4608AE0DE0002117
:10A2C000FAE70A994FF00A0901C90A91F7E74946E6
:10A2D000FDF75DF9303106F8011D0028F7D1ADEB2F
:10A2E000060000F12009780701D44FF00108C845A5
:10A2F00002DDA8EB090000E000208046002706E010
:10A3000008A85A46C05D0B9990476D1C7F1C5745A5
:10A31000F6DB04E030205A460B9990476D1CB8F1EB
:10A320000001A8F10108F5DC05E016F8010B5A461A
:10A330000B9990476D1CB9F10001A9F10109F4DCFA
:10A34000641C65E7092801000A68531C0B60107043
:10A350007047014601F0030008B901207047002052
:10A36000FCE7024650680068401E084008B901201A
:10A3700070470020FCE70246002104E0505C08B171
:10A3800001207047491C0629F8D30020F9E710B5D1
:10A390000346D868884206D88818401E1C69A04227
:10A3A00001D8012010BD0020FCE7000010B50446D4
:10A3B0006CB10848C068A04209D806480069A042AC
:10A3C00005D3204603F08AF808B1012010BD002013
:10A3D000FCE70000143E002070B504460D4604F270
:10A3E0002740FFF7C8FF0646012D06D0022D0DD0ED
:10A3F000032D11D0042D19D113E0A07928B194F8C0
:10A40000240010B90EB1012070BD00BFE07910B179
:10A410000EB10220F8E700BF207A08B10320F3E76D
:10A4200000BF607A08B10420EEE700BF0020EBE730
:10A430000146481C052290FBF2F302FB1300C0B258
:10A4400070472DE9F04704460D462F4695F82080C9
:10A45000B4F81C9000260BE007EB46124946A069B1
:10A4600000F03FFC10B10120BDE8F087701CC6B2BF
:10A470004645F1DB0020F7E72DE9F05F06460C4684
:10A4800004F1220A94F82C502A2010F804904FF07E
:10A490000008B6F81CB0002710E00AEB8702594606
:10A4A000B06900F087FC28B108F1010000F0FF0856
:10A4B00015B905E005B103E0781CC7B24F45ECDBE8
:10A4C00000BF0DB1C84503D02DB9B8F1000F02DDB2
:10A4D0000120BDE8F09F0020FBE710B5012202211A
:10A4E000002001F025FB044600BF1CB1072C01D061
:10A4F000204610BD00BF07220221012001F018FBF9
:10A50000044600BF1CB1072C01D02046F1E700BF74
:10A510000A220021084601F00BFB044600BF1CB1D3
:10A52000072C01D02046E4E700BF0020E1E710B58A
:10A5300004462C212046FCF7CCFF012020714FF46B
:10A540009670206144F25060606110BD70B50546A0
:10A550000E46144672B6012D0BD06FF4805028447D
:10A5600040B1B0F5405F08D06FF44051084430B9B5
:10A5700001E005E004E0204602E0204600E000BFE4
:10A5800000BF00BF0648006800F0010000B100BE37
:10A5900000BF22463146284600F004F870BD000096
:10A5A000F0ED00E018B5012300939DF800301E4B3C
:10A5B000186059609A606FF48043034463B1012BC3
:10A5C00019D1194BDA60DB681B68174CA36123466D
:10A5D000DB685B68E3610EE0134B1A611B699B68E3
:10A5E000114C636123461B691B68A36123461B69E9
:10A5F0005B68E36100BF00BF0B4B1B680A4B5B68E5
:10A60000094B9B68084BDB68074B1B69064B5B6972
:10A61000054B9B69044BDB6972B600BF9DF80030A7
:10A62000002BFBD162B618BD9840002070B50446DF
:10A630000D46204602F07AFA28B12946204602F05B
:10A6400069FA002070BD0520FCE7034609B90E2019
:10A65000704712B1501E104008B10920F8E7196088
:10A66000501E988000209860D86000BFF0E770B559
:10A6700004460D46204602F059FAA188884205D8C2
:10A680002946204602F065FA002070BD0420FCE750
:10A690000146022900D101E00120704700BF0120DE
:10A6A000FBE7000010B5024801F0F5FE10BD000008
:10A6B000583A002010B503460C460AB9072010BDD1
:10A6C00019684A61012C01D1012000E000200861D5
:10A6D0000020F4E738B5134800680090082358229A
:10A6E00011491248006803F01EF904460CB12046D7
:10A6F00038BD0F4A69460F4801F0D4FE04460CB13C
:10A700002046F5E701210B4801F03EFF01230A4AEC
:10A710001946084801F091FE0120084908702046BA
:10A72000E6E70000C8230300B8400020B823030078
:10A73000510E0300583A0020FFFF7F00643A0020CA
:10A740002DE9F04106460D4617463446207F10B1EC
:10A750000020BDE8F081A76102F084FC401941F1BE
:10A760000001C4E90201206900B1256121460020F1
:10A7700007F082F8EDE770B50446254600202877FB
:10A780002946012007F078F870BD00002DE9F0415E
:10A7900004461048077821460F48FFF747FF8046D8
:10A7A000A7B100200B49087001220C490C4803F0A6
:10A7B00013FE054600BF2E4636B100BF09A2D621C2
:10A7C0003046FCF727FD00BF00BF00BF4046BDE894
:10A7D000F0810000E63A0020D8420020E53A00204F
:10A7E000CC3A00202E2E5C2E2E5C2E2E5C2E2E5C63
:10A7F0002E2E5C2E2E5C2E2E5C636F6D706F6E6540
:10A800006E74735C6C69627261726965735C7561A8
:10A8100072745C6170705F756172745F6669666F97
:10A820002E6300002DE9F04188B004460E4617461D
:10A8300098462B4807601EB9072008B0BDE8F08194
:10A84000B08882B227483168FFF7FFFE054600BF97
:10A85000284600B1F1E700BFB08982B22248B16852
:10A86000FFF7F3FE054600BF284600B1E5E700BF4D
:10A8700020221E496846FCF713FE60690690207C82
:10A8800008B1012000E000208DF814008DF81C8034
:10A89000607C08B10E2000E000208DF81500E06813
:10A8A0000290A06803902068019060680090104AB0
:10A8B0006946104803F04AFD054600BF284600B12E
:10A8C000BBE700BF00200C4908702068401C28B17D
:10A8D00001220A49074803F07FFDAEE70020ACE7FC
:10A8E000E03A0020D8420020E8420020442403003F
:10A8F0008D190300CC3A0020E63A0020E53A00200A
:10A900002DE9F041054629461448FFF7B0FE0646FA
:10A9100006BB134C002720781249085C20B1201D8B
:10A9200005F08EF8074608E020780E49085C20B94B
:10A9300004F10C0004F02CFF074600BF57B90A4988
:10A940000648FFF773FE28B901220749044803F0BF
:10A9500065FD06463046BDE8F0810000E842002073
:10A96000CC3A00203C3A0020E43A002010B50446DE
:10A97000204606F0F9FB10BD70B5044625460E488A
:10A980008068B0B1ADB9FFF72FFC06460A480068F1
:10A990000A490860084840684FF0E021C1F8040106
:10A9A0000020054988601EB900BF62B600BF00BF25
:10A9B00000BF00BF70BD00002041002000E100E0AA
:10A9C000F8B505460C4617462088001DB84201D947
:10A9D0000C20F8BD684679DF064600BF304600B15E
:10A9E000F7E700BF0320218868542088401C20809E
:10A9F0001920218868542088401C20802088411913
:10AA0000BDF8000007F0B4F9218808442080002038
:10AA1000DFE770B505460C462068401C28B1206869
:10AA200003F0B0FE206803F061FE6068401C18B1BE
:10AA30000321606803F040FE2868A169C0F824156E
:10AA400000BF617D227D286841EA0203C0F86C35B1
:10AA500000BFD4E90012286804F05AFB207D0128C9
:10AA600014D1A068401C18B10321A06803F024FE93
:10AA7000E068401C28B1E06803F084FEE06803F061
:10AA800035FED4E90221286804F02AFB70BD70B5B8
:10AA900005460C462068401C28B1206803F07DFE66
:10AAA000206803F02FFE6068401C18B10021606828
:10AAB00003F00FFE2868A169C0F8241500BF617D6E
:10AAC000227D286841EA0203C0F86C3500BFD4E952
:10AAD0000012286804F056FB207D012814D1A068DC
:10AAE000401C18B10021A06803F0F3FDE068401C91
:10AAF00028B1E06803F051FEE06803F003FED4E9FA
:10AB00000221286804F01FFB70BD2DE9F0410446C6
:10AB10000F46154615B90E20BDE8F08100202860CB
:10AB200000BF0CB90E20F7E700BF00BF206808B9CE
:10AB30000E20F1E700BF00BFE088C11700EB917164
:10AB40008910A0EB810109B10720E5E700BF384675
:10AB500000F0C8FAC6B2142E01D10520DCE7207936
:10AB6000B04201DC0420D7E7E188206806FB010041
:10AB700028600020D0E72DE9FC41054688461646AE
:10AB8000002437880020308095F82D0058B13A46CF
:10AB90003146404600F0CAFA044600BF204608B1DC
:10ABA000BDE8FC8100BFA87850B13A463146404626
:10ABB000FFF706FF044600BF204600B1F0E700BFE4
:10ABC000E87860B1E97848B23B463246414601F048
:10ABD000F2FF044600BF204600B1E1E700BF68680D
:10ABE00068B1696891F900003B463246414606F07B
:10ABF000B1FE044600BF204600B1D1E700BF28895E
:10AC000000280EDD43460622022105F10800CDE9A9
:10AC1000006707F024F9044600BF204600B1BFE7F3
:10AC200000BF288A00280EDD43460722032105F1D4
:10AC30001000CDE9006707F012F9044600BF204676
:10AC400000B1ADE700BF288B00280EDD434615227A
:10AC5000142105F11800CDE9006707F000F904465A
:10AC600000BF204600B19BE700BF286A58B13B46B1
:10AC700032464146286A01F0F9FA044600BF2046F0
:10AC800000B18DE700BF686A58B13B463246414685
:10AC9000686A02F0AEFC044600BF204600B17FE7C0
:10ACA00000BF95F82C0000280BDD3B46324641469C
:10ACB000284606F02BFB044600BF204600B16FE794
:10ACC00000BF287858B13B4632464146284602F03C
:10ACD00030FD044600BF204600B161E700BF2046BA
:10ACE0005EE72DE9F84306468846154600200090A9
:10ACF0000DB9BDE8F88309236A464146304600F0A5
:10AD00002BF80446BDF800003718BDF8000068B104
:10AD100064B12846FCF7F4FBA04207D1224639462D
:10AD20002846FCF702FC08B90120E2E70020E0E732
:10AD3000F8B504460E461546002000902B466A469C
:10AD40003146204600F008F807460FB90020F8BD4C
:10AD5000BDF800002044FAE7F0B504460D461E4653
:10AD600004B10AB90020F0BD002103E0605C401C82
:10AD7000084481B2481CA84206DA10888842F5DCF3
:10AD8000481C205CB042F1D1A94201DB0020EAE777
:10AD9000881C87B2605C10B1605C401E00E000203F
:10ADA00083B213B1F818A84201DD0020DBE7178059
:10ADB0001846D8E72DE9F04788B004460E461746F6
:10ADC0000020079010200690B24602AA06A9384635
:10ADD00064DF814614B1B9F1000F03D0002008B040
:10ADE000BDE8F0879DF81800022804D0042809D097
:10ADF000102815D10DE003208DF8040002208DF8F5
:10AE000005000FE005208DF8040004208DF80500F2
:10AE100008E007208DF8040006208DF8050001E009
:10AE20000020DCE700BF002509E001A8435D07AA78
:10AE300031462046FFF790FF8246681CC5B2022DBE
:10AE400003DABDF81C000028EFD0BDF81C0008B9DB
:10AE50000020C4E7BDF81C0004EB000800250DE04D
:10AE600008EB05009DF8182002A9FCF75EFB08B965
:10AE70000120B4E79DF81800284485B25545EFDB62
:10AE80000020ACE770B504460D462C222946201D53
:10AE9000FCF706FB70BD70B504460D462E462088B3
:10AEA000102804D0112807D026280FD109E0214608
:10AEB000304604F025FF0AE02146304605F002F84E
:10AEC00005E02146304605F06AF900E000BF00BF0A
:10AED00070BD70B504460E46207808B9082070BDD4
:10AEE000A670002140F22C40C4F82614A4F82A14BD
:10AEF0000155A07910B1A078012809D0E07910B1EE
:10AF0000A078012804D0E07970B1A07802280BD194
:10AF1000606B30B1012084F82D040820616B8847F4
:10AF200002E0002084F82D0431462046FFF754FA51
:10AF3000A070606BA0B1A078032802D0A07804288C
:10AF40000ED1607960B194F82E0448B9002084F8DD
:10AF50003004012084F82F040720616B884702E049
:10AF6000002084F82F04182104F13C00FCF7B1FA0A
:10AF7000012084F83C0004F12C0005F04BFB20B1CB
:10AF800094F82C105120015502E001215120015567
:10AF900094F8240060B104F1280005F03BFB20B1D7
:10AFA00094F828105220015502E001215220015549
:10AFB000002150200155A078052824D2DFE800F0B8
:10AFC0001F030A11180004F13C01204606F001FAA3
:10AFD000054619E004F13C01204606F0E2F9054679
:10AFE00012E004F13C01204606F005FA05460BE0AC
:10AFF00004F13C01204606F02CFA054604E000204E
:10B0000084F8310000E000BF00BFA07898B104F1DF
:10B010003C0204F15400D4F8201472DF05460DB14F
:10B0200028465CE794F8301094F8540073DF054626
:10B030000DB1284653E7606B18B194F83100616B8D
:10B04000884700204BE700002DE9F041044600BF8F
:10B0500014B90E20BDE8F08100BF1C2221461C4817
:10B06000FCF71EFA1B481A490860206860B1206886
:10B070007ADF05460DB12846ECE7164821680A68D4
:10B0800002604968416005E012487BDF05460DB16A
:10B090002846DFE7002617E006EB86000E4901EBA5
:10B0A000800700BF4FF6FF70388000BF0B4800EBF1
:10B0B000461078600A4A0021381DFFF7FBFA054662
:10B0C0000DB10320C6E7761C002EE5D00020C1E7B5
:10B0D000CC3E0020083A0020B83E0020983E0020D8
:10B0E000A11D030010B50446204600F011F808B178
:10B0F000204610BD1420FCE770B504460D460349F8
:10B1000088682A46214601F0BFFD70BDE83E002058
:10B1100010B50446142C01DB002010BD2146024866
:10B1200002F05CFCF9E70000EC3E00202DE9FC4158
:10B1300005460C46174620880930B84202D90C2033
:10B14000BDE8FC8168466DDF064600BF304600B1B1
:10B15000F6E700BF0820218868542088401C208022
:10B160001B20218868542088401C20802088284487
:10B17000DDF801100160BDF8051081802088801D78
:10B1800020809DF80000400818B9002021886854EC
:10B1900002E00120218868542088401C2080002083
:10B1A000CEE7000070B503F06DF8044600BF2046FE
:10B1B00000B170BD00BF00BF084D28464FF0030C22
:10B1C00000DF00BF044600BF204600B1F1E700BF2A
:10B1D00003F072F804462046EBE70000643F0020CD
:10B1E000014600BF09B90E20704700BF0148016049
:10B1F0000020F9E7303A002010B54FF0FF31002071
:10B200003DDF044600BF204600B110BD00BFB121A4
:10B2100000203CDF044600BF204600B1F5E700BF38
:10B220000448416901208847022003F0B5FB002053
:10B23000EBE700008C3F002010B50548006841692D
:10B2400000208847FFF7D8FF0446204610BD0000C5
:10B25000303A002010B588B0044620216846FCF73B
:10B2600038F90320ADF8000020788DF802009DF831
:10B270000D0020F0200020308DF80D009DF80D000D
:10B2800020F0080008308DF80D0001208DF8100026
:10B290008DF80C001720ADF8040001208DF8130084
:10B2A0008DF812008DF811006088A21D694600F02B
:10B2B0005FFE08B010BD000030B585B00546244BD8
:10B2C0000FCB8DE80F0000BF15B90E2005B030BDC3
:10B2D00000BF4FF6FF701F49888028684861002032
:10B2E00008760846406908B91B4848611948FFF7C5
:10B2F00077FF044600BF204600B1E7E700BF00BF6C
:10B3000001208DF812004FF65960ADF8100000BF13
:10B31000104A921C04A90120A8DF044600BF204661
:10B3200000B1D3E700BF0B49684662DF044600BFA7
:10B33000204600B1CAE700BF0648FFF78BFF04466E
:10B3400000BF204600B1C1E700BF0020BEE70000FB
:10B35000082303008C3F0020C3C6020070B50446DA
:10B360000D4600BF04B970BD00BF2088102806D06C
:10B37000112808D051280AD0532810D10BE02046BC
:10B3800004F0B8FC0CE0204604F08EFD08E02046F6
:10B3900004F0AEFE04E0204604F020FE00E000BF12
:10B3A00000BF00BFDFE7000070B504460426207B25
:10B3B000012802D0022822D109E001F083F90546D4
:10B3C0000DB9012602E0112D00D1062619E0607B9F
:10B3D000142801DC607B08B905260FE0627B04F1CC
:10B3E0000E011248FCF75CF8607B1049091F886168
:10B3F000084606F05DF8054605B9012601E002267B
:10B4000000BF00BF012E0FD0207B314600F058F85E
:10B41000054625B10648006841690320884704486D
:10B42000006841690220884770BD0000743F002019
:10B43000303A002070B505460E4600BF1E48006831
:10B4400020B11D48406808B1012000E0002000B98B
:10B4500070BD00BF184800F10801426828469047B7
:10B46000044600BF082C24D07CB900201349096889
:10B4700048760121022000F023F80446CCB10F48A1
:10B48000006841690320884713E000200B490968E0
:10B4900048760621022000F013F8044624B107483C
:10B4A0000068416903208847044800684169022018
:10B4B000884700BFCCE70000643F0020303A0020FE
:10B4C000F0B587B004460D46032700200190029096
:10B4D000039004900320069020208DF814008DF82E
:10B4E00015408DF816500E48C088ADF804000220B3
:10B4F0008DF806000020ADF8080006A8039005A806
:10B5000004900749888801A9AEDF064626B9BDF830
:10B510001800032800D00C26304607B0F0BD00000C
:10B520008C3F002030B58BB0044634B1012C14D0D0
:10B53000022C13D0032C16D111E06846FEF7F7FF5A
:10B5400001208DF8000069460948FFF79BFC0021A7
:10B550000848FFF7D1FD054606E005E004E000BF1E
:10B56000002000BF00E000BF00BF0BB030BD0000F6
:10B5700098440020FBC3020070B505460E4628889B
:10B58000102802D011282CD115E01748006860B9A6
:10B5900000F0CAFE044600BF34B11448006818B178
:10B5A000204612490968884700BF0F480068401CC0
:10B5B0000D49086016E00C480068401E0A49086002
:10B5C0000846006860B9FEF788FF044600BF34B142
:10B5D0000648006818B1204604490968884700BF3A
:10B5E00000E000BF00BF70BD043A0020003A002018
:10B5F00070B504460D462088102806D0112808D0C2
:10B6000012280ED0502810D107E0204604F000FB8D
:10B610000CE0204604F02EFC08E0204604F0F0FD8B
:10B6200004E0204604F0DCFA00E000BF00BF70BD7B
:10B630002DE9F04104460F46A6882088102806D040
:10B64000112819D019283FD01A284AD118E005F03E
:10B65000A9FB304605F02AFA30B900BF22A2F0213A
:10B660000420FBF7D7FD06E0E07B022803D131463A
:10B670002C4802F0C2F934E0304605F0B7FB30E068
:10B68000207A0509042D01DB012000E0002002469C
:10B69000314624480C3001F07FFA032D01DB0120F4
:10B6A00000E00020024631461E48083001F074FADE
:10B6B000022D01DB012000E000200246314619483E
:10B6C000001D01F069FA0CE0207A48B9607AC0F3F5
:10B6D000C0052A46314613480C3001F05DFA00BF20
:10B6E00000BF00BFBDE8F0812E2E5C2E2E5C2E2EFA
:10B6F0005C2E2E5C2E2E5C2E2E5C2E2E5C636F6DCF
:10B70000706F6E656E74735C626C655C636F6D6D9B
:10B710006F6E5C626C655F636F6E6E5F7374617495
:10B72000652E6300F43E00202DE9F04186B004460A
:10B73000884617461D4600BF1CB90E2006B0BDE85E
:10B74000F08100BF01AA29466069FFF7DEF90646CD
:10B7500000BF304600B1F1E700BF4FF6FF708542F1
:10B7600001D0019808B90520E8E70198007808B9E8
:10B770000820E3E73888F42801DD0720DEE7002011
:10B780000290039004900590A088ADF80800CDF8D1
:10B790001480049701208DF80A0002A92846AEDF24
:10B7A000CCE7000070B592B004460E465D4B0FCB5F
:10B7B0000DAD0FC500BF14B90E2012B070BD00BF93
:10B7C00000BF0EB90E20F8E700BF3068A061214627
:10B7D0000DA862DF054600BF284600B1EDE700BFB7
:10B7E00020788DF846004FF6F070ADF84400A21CAA
:10B7F00011A90120A8DF054600BF284600B1DCE7FB
:10B8000000BF202105A8FBF764FE002001900290F4
:10B81000039004904FF6F170ADF8140020788DF885
:10B820001600F420ADF818000120ADF81A008DF8CC
:10B8300020009DF8210020F0100010308DF821002C
:10B840009DF8210020F00200801C8DF821000120CD
:10B850008DF825008DF826008DF8270032480290DB
:10B860001420ADF80600ADF804009DF80D0020F09E
:10B870000200801C8DF80D0001208DF8100001A839
:10B880000B906088221D05A900F072FB05460DB1E2
:10B89000284692E7202105A8FBF71BFE4FF6F27021
:10B8A000ADF8140020788DF81600F420ADF81800DB
:10B8B0000120ADF81A008DF820009DF8210020F03D
:10B8C000080008308DF821009DF8210020F00400C8
:10B8D000001D8DF821009DF8210020F00200801C41
:10B8E0008DF8210001208DF825008DF826000F48E5
:10B8F00002901420ADF80600ADF804009DF80D008C
:10B9000020F00200801C8DF80D0001208DF8100041
:10B9100001A80B90608804F10C0205A900F028FB37
:10B920004BE70000F0220300103A00201E3A0020EE
:10B9300070B504460D4605B104B970BD2E46208889
:10B94000102804D0502807D057280FD109E02146ED
:10B95000304604F095F90AE02146304604F07CFCBC
:10B9600005E02146304604F04FFB00E000BF00BF79
:10B9700000BFE2E770B50446204606F0F3F905463D
:10B98000C5F3400070BD70B50446204606F0EAF9E4
:10B99000054605F0010070BD10B502460949885CF6
:10B9A00000BF4FF0A0442146D1F804350124844063
:10B9B0009C43C1F80845012484401C40C1F80C4553
:10B9C00000BF10BD8C22030010B504460249085D7B
:10B9D000012102F0EDFE10BD8C22030010B50446DB
:10B9E0000249085D002102F0E3FE10BD8C22030035
:10B9F00010B50146094B585C00BF4FF0A0442346E8
:10BA000000BFD3F80445C44004F001040CB1012088
:10BA100000E00020024682F0010010BD8C220300ED
:10BA200010B5002403E02046FFF7CEFF641C042C71
:10BA3000F9D310BD10B5002403E02046FFF7CEFF78
:10BA4000641C042CF9D310BD02464FF0FF300021D6
:10BA500006E0054B5B5C934201D1084602E0491CBD
:10BA60000429F6D300BF7047902203002DE9F0416E
:10BA700006460F464FF0000800243046FFF7E4FF6B
:10BA80000446042C3ED20FB3012F02D0022F38D12E
:10BA900030E004EB4400214911F8008004EB44003D
:10BAA0000844407850B11E4A4FF480411D48006858
:10BAB000FEF746FE05460DB91948067004EB440032
:10BAC000164908448078184908551AE01548006856
:10BAD000FEF751FE1448005D04EB44010F4A114487
:10BAE0008978884205D104EB44001146084490F857
:10BAF000028006E004EB44000849084490F8018005
:10BB000000BF00BFB8F1000F06D00848006818B1A8
:10BB10004046064909688847BDE8F081683E002034
:10BB2000F83900209C220300F9390020F439002064
:10BB300030B503460020042B23D2012A07D1012966
:10BB400003D103F10E04E4B200E00024224679B1EF
:10BB5000012902D0022911D104E003EB43040A4D6C
:10BB60002A550DE003EB4304074D2C44627007E0B7
:10BB700003EB4304044D2C44A27001E0072000BFF6
:10BB800000E0072030BD0000683E002070B504468C
:10BB900000250548007800F0010018B1204600F0AB
:10BBA00005F80546284670BDEC3900202DE9F04720
:10BBB000044600260025DA48007820B10020D84944
:10BBC000087001F0ADFC182C7ED2DFE804F00C16F2
:10BBD000174A7EB2F6F4F3F2F1F0EFEEEDECEBEA99
:10BBE000E9E8E7E6E5E401F09BFCCE480068FEF7F3
:10BBF000C2FD0646CC4804708DE100BF0020FFF76F
:10BC0000F7FE58B10020FFF7DFFE022C02D14FF4FF
:10BC1000E16001E04FF47A60054609E00020FFF79B
:10BC2000DDFE022C01D1C82001E04FF4C8700546AA
:10BC3000BD4804704FF40040A5FB00104FF47A7328
:10BC4000CF1840F100015A0000233846FBF7D8FB1B
:10BC5000814600224946B3480068FEF771FD06465A
:10BC600059E10020FFF7C4FE58B10020FFF7ACFEF9
:10BC7000032C02D14FF4487001E04FF47A6005467E
:10BC800009E00020FFF7AAFE032C01D1C82001E043
:10BC90004FF4C8700546A44804704FF40040A5FB5B
:10BCA00000104FF47A728F1840F100015200002307
:10BCB0003846FBF7A5FB81460022494699480068B3
:10BCC000FEF73EFD064626E124E10020FFF790FE48
:10BCD00058B10020FFF778FE042C02D14FF47A60AF
:10BCE00001E04FF47A6005460AE00020FFF776FE97
:10BCF000042C02D14FF4C87001E04FF4C87005461F
:10BD0000894804704FF40040A5FB00104FF47A738B
:10BD1000CF1840F100015A0000233846FBF770FBB2
:10BD20008146002249467F480068FEF709FD064625
:10BD3000F1E00020FFF75CFE50B10020FFF744FE69
:10BD4000052C01D1C82001E04FF47A60054609E0D6
:10BD50000020FFF743FE052C01D1C82001E04FF47D
:10BD6000C8700546704804704FF40040A5FB0020E1
:10BD70004FF47A73D71840F100015A000023384677
:10BD8000FBF73EFB81460022494666480068FEF705
:10BD9000D7FC0646BFE0B8E0B6E0AAE0A1E098E034
:10BDA00092E05FE05DE05BE059E057E051E042E0A7
:10BDB00033E024E015E00EE0FFE70020FFF7ECFDA4
:10BDC00059480470002240F2666156480068FEF748
:10BDD000B7FC06469FE00020FFF700FE52480470C3
:10BDE00099E001204E490870FFF7D6FD002240F28D
:10BDF00066614C480068FEF7A3FC06468BE0012014
:10BE000047490870FFF7C8FD00224FF4005145482C
:10BE10000068FEF795FC06467DE001204049087069
:10BE2000FFF7BAFD002240F266613E480068FEF767
:10BE300087FC06466FE0012039490870FFF7ACFD2A
:10BE400000224FF4005137480068FEF779FC06469F
:10BE500061E0FFF7EFFD344804705CE000BF00BF15
:10BE600000BF00BF31480068FEF785FC0646C4F1FC
:10BE7000110515B30EBB012D18D9A8B2C82148432E
:10BE80004FF4004180FB01104FF47A728F1840F19B
:10BE90000001520000233846FBF7B2FA8146002227
:10BEA000494622480068FEF74BFC06460220FFF791
:10BEB00095FD01201E49087005E00220FFF784FD72
:10BEC00000201B49087026E001F02AFB1648047088
:10BED00021E001F025FB0020FFF780FD12480470EF
:10BEE00019E001F01DFB0120FFF778FD0E480470FA
:10BEF00011E001F015FB0020FFF770FD0120FFF7B6
:10BF00006DFD0948047006E000BFFFF793FD064889
:10BF1000047000E000BF00BF3046BDE8F0870000BD
:10BF2000E939002094220300E83900209822030018
:10BF3000F039002070B504460D46032C06D1A92027
:10BF40000349086000BF002002F026FD70BD00001C
:10BF5000200500400146024850F8210070470000CB
:10BF6000BC3F00200146014840567047EC3F00208E
:10BF700070B590B006460C461546A07818B9012059
:10BF80008DF80E0002E0A0788DF80E002088ADF844
:10BF90000C0000200290607C02A905F0A7FAA07CAA
:10BFA0000DF1090105F0A2FAE07B08B1012000E0E3
:10BFB00000209DF80A1060F3C3018DF80A10207C60
:10BFC00008B1012000E000209DF80A1060F3041180
:10BFD0008DF80A10207B08B1012000E000209DF8B8
:10BFE0000A1060F300018DF80A10207D08B10220CC
:10BFF00000E001209DF80A1060F342018DF80A105C
:10C000001C2109A8FBF765FA607BC0F3001018B982
:10C01000607BC0F34010F8B100200090E07C0DF18F
:10C02000010105F063FA00BF9DF8000020F00F0049
:10C03000401C8DF800009DF8000020F0F00010304A
:10C040008DF8000000BF9DF8020020F00600801C63
:10C050008DF80200CDF838D0607B8DF82400A07BED
:10C060008DF82500142104A8FBF733FA03A80490E7
:10C0700002A80590A088ADF81C00A06820B1E08857
:10C08000ADF81800A0680890A069002849D00020E9
:10C090000190A0690088ADF82C00A0694088ADF837
:10C0A0002E00A06940680A9001A80D90A169087B44
:10C0B00001A905F01BFAA169487B0DF1050105F006
:10C0C00015FAA069807A08B1012000E000209DF8EF
:10C0D000061060F3C3018DF80610A069C07A08B19C
:10C0E000012000E000209DF8061060F304118DF897
:10C0F0000610A069007A08B1012000E000209DF838
:10C10000061060F300018DF80610A069807B08B16D
:10C11000022000E001209DF8061060F342018DF836
:10C120000610E06908B1E0690C902B4604AA09A941
:10C130003046AADF10B070BD70B505460DB9094C88
:10C1400001E0084C083409E0204601F0CFF906462A
:10C1500006B904E028467168884700BFF4E700BFCD
:10C1600070BD0000B03F002010B504462CB901207E
:10C17000064948700020FFF7DFFF012C04D10120A1
:10C1800002498870FFF7D8FF10BD0000A83F0020CB
:10C190002DE9F047024613468C46D3E90245DCE917
:10C1A0000267B6EB040877EB050002D30120BDE877
:10C1B000F0870020FBE70246002007E0536833F8D1
:10C1C00010308B4200D17047431C98B213888342D1
:10C1D000F4DC00BFF7E733B58BB0054600200090D4
:10C1E0000C9878B100240BE021460CA801F0F6FB76
:10C1F00028B1009A501C009001A820F81240641C3D
:10C20000142CF1D32C2269462846FBF749F90DB0CE
:10C2100030BD01460888062808DB0888B0F5486F5D
:10C2200006DD08884FF6FF72904201D00720704764
:10C230004888062808DB4888B0F5486F06DD48883E
:10C240004FF6FF72904201D00720F0E708884FF6C2
:10C25000FF72904208D04888904205D008884A88EA
:10C26000904201DD0720E2E70020E0E72DE9F04100
:10C2700007460D46144698462088801D404502D941
:10C280000C20BDE8F0813846FFF7C3FF064600BF2B
:10C29000304600B1F5E700BF0520218868542088AA
:10C2A000401C20801220218868542088401C208057
:10C2B00022885119388805F05BFD218808442080C8
:10C2C00022885119788805F053FD21880844208080
:10C2D0000020D6E7F8B505460C46607A88B9207A82
:10C2E00010B91048476801E00E4887682A46394669
:10C2F0006068FEF725FA064616B1304604F0E8FFFE
:10C300000EE0002020720748406948B101208DF8F6
:10C310000000ADF80250034841696846884700BFF5
:10C32000F8BD0000CC3E002010B5012200210846D7
:10C33000FFF7FEFB044600BF1CB1072C01D02046CE
:10C3400010BD00BF072202210120FFF7F1FB0446C8
:10C3500000BF1CB1072C01D02046F1E700BF04222A
:10C3600002210020FFF7E4FB044600BF1CB1072CAC
:10C3700001D02046E4E700BF0020E1E77FB5064694
:10C380000C46002002900390ADF80840ADF80A403A
:10C39000009001906A4602A9304690DF054605B13B
:10C3A00000BF284604B070BD70B506460D4616B1F4
:10C3B0004FF4064070BD287920B1012809D0022829
:10C3C00015D111E002202871284604F0CDFB044667
:10C3D00010E0284600F0C6FB044648F2096084429B
:10C3E00001D141F61D5405E041F61D5402E048F22A
:10C3F0000E6400BF00BF2046DCE770B504460E4661
:10C400001321204676DF054670BD70B505460C4603
:10C410004FF4803000FA04F1284600F031FA70BD84
:10C4200070B505460C464FF4A07000EB840086B250
:10C430003146284600F03EFA70BD2DE9F04704462B
:10C440000D4616461F464FF4803000FA05F84FF4AB
:10C45000A07000EB85001FFA80F926F07F46414668
:10C46000206802F0BEFB4146206802F0B4FB49465A
:10C47000206802F0A9FB32462946206802F09BFBA7
:10C480004146206802F0AAFB1FB14146206802F035
:10C49000ABFBBDE8F08710B50446206802F090FBC6
:10C4A00010BD00002DE9F04303460C4616465879AE
:10C4B000284941F820605879274901EBC0000079EC
:10C4C00018B108221046BDE8F08321881868C0F82A
:10C4D000081500BF93F90450A7782846394600286C
:10C4E00008DB4FEA417C4FEA1C68DFF870C00CF8AB
:10C4F00000800BE04FEA417C4FEA1C69DFF860C026
:10C5000000F00F08A8F104080CF8089000BF00BF65
:10C5100093F90410084600280DDB00BF00BF00F0AF
:10C520001F070125BD404709BF0007F1E027C7F8F5
:10C53000005100BF00BF00BF00BF01205979064D68
:10C5400005EBC10108715879294641F830300022C5
:10C550001046B8E77C3A0020803A002000E400E072
:10C5600018ED00E010B5014691F90400002807DB42
:10C5700000F01F0301229A40024B440943F8242093
:10C5800000BF10BD00E200E070B505460C46224633
:10C590000221284600F080F970BD10B504464FF422
:10C5A0008271204600F086F910BD10B504460021C6
:10C5B000206802F01CFB10BD10B504460421206861
:10C5C00002F015FB10BD2DE9F84F044688461546CC
:10C5D00099464FF4803000FA08FA4FF4A07000EB4F
:10C5E00088001FFA80FB25F07F455146204600F069
:10C5F00047F9206802F0E4FA06464146206802F056
:10C60000D4FA009032464146206802F0D4FA5946E6
:10C61000206802F0D9FA3146009805F0A7F8012801
:10C6200006D1102002F0FAFD5946206802F0CCFA3B
:10C63000206802F0C5FA06463146284605F096F80D
:10C6400007465146206802F0C9FA012F0FD16A1C33
:10C650004146206802F0AFFA102002F0DFFD2068AA
:10C6600002F0AEFAB04225D00D20BDE8F88F2A4680
:10C670004146206802F09FFA206802F0A1FA0646BF
:10C68000681E314605F072F807466FF07F40A0EB58
:10C690000900B84201D20D20E7E75FB96A1C4146A4
:10C6A000206802F088FA206802F08AFAB04201D0CD
:10C6B0000D20DAE701225146204600F0EDF8002077
:10C6C000D3E7704710B510480068407E60B106217E
:10C6D0000120FEF7F5FE044624B10B4800684169CD
:10C6E00003208847002010BD01200749096808760B
:10C6F00001210846FEF7E4FE04461CB10020024971
:10C70000096808762046EEE7303A00202DE9F84324
:10C7100005460E461746984669461048006801F0DF
:10C7200016F9044614B90420BDE8F8831C212046FC
:10C73000FAF7CFFE012020712560C4F80880084870
:10C740000068B6FBF0F0E060676169460348006886
:10C7500001F027F904F07EF90020E5E7FC2303004F
:10C76000F023030010B50446D4E90321501828DF54
:10C7700010BD0278072A38D2DFE802F0370407122A
:10C78000222B340000220A7030E001220A70038953
:10C790008B818388CB81C2688A6000230B7425E07B
:10C7A00002220A7003898B818388CB81C2688A60E8
:10C7B000827D062A01D1012300E000230B7415E0DD
:10C7C00003220A70C3888B810389CB81C2688A6087
:10C7D0000CE004220A70C3888B810023CB810022E5
:10C7E0008A6003E005220A7000E000BF00BF7047C6
:10C7F00070B50546002409E0064850F8240020B131
:10C80000044850F8241028468847641C042CF3D3AD
:10C8100070BD00002C41002030B587B004460D46A5
:10C820002068806808B907B030BD182101A8FAF760
:10C8300050FE0295A0680690207910B1012815D10C
:10C8400009E001208DF8040020690390E06804905D
:10C85000606905900BE002208DF804000749E0684C
:10C860000968484303906069059000E000BF00BF7D
:10C870002068816801A8884700BFD4E7F02303003F
:10C8800070B504460D462946206802F0A4F92946F1
:10C89000206802F0A6F970BD70B504460E46154634
:10C8A0003146206802F09AF91DB13146206802F045
:10C8B0009BF970BD70B505460C462868015929B131
:10C8C0002146286802F080F9012070BD0020FCE7B5
:10C8D00038B50E48007810B948F2016038BD684696
:10C8E00003F022FF044614B948F20760F6E7062079
:10C8F0002070684603F028FF0548007810B1012039
:10C900000349087304F09AF80020E7E7883A00200A
:10C910000042002070B586B0142101A8FAF7D9FDB5
:10C920002E48007828B101A8FFF762FF002006B06A
:10C9300070BD2A48001D01F06FF808B10020F6E72D
:10C9400000F094F906460EB13046F0E703F028FFF8
:10C9500003F0A8FD054625B1022D03D0062D0ED10A
:10C9600003E000BF48F20A60E1E701201B490870BC
:10C970000020486001A8FFF73BFF0020D7E700BF79
:10C9800000BF684603F0D0FE044614B948F20760C1
:10C99000CDE7012020700C2D16D2DFE805F015063A
:10C9A000150715111512150A0E0B00BF0020207176
:10C9B0000BE000BF0320207107E00220207104E09B
:10C9C00000BF0120207100E000BF00BF684603F0F7
:10C9D000BBFE04F033F80020A9E70000883A0020ED
:10C9E00038B5044614B948F2046038BD694620469B
:10C9F00004F0D8F808B3BDF8000000EB800011493E
:10CA000001EB8000C068A8B1A07A98B1BDF8000021
:10CA100000EB800001EB8000C068401EBDF80010F4
:10CA200001EB8101074A02EB8101C8600020A0727E
:10CA3000002504E048F2056501E048F20965284652
:10CA4000D3E70000D84100207FB514461D462B4691
:10CA5000224601A9684604F03DF804B070BD00000C
:10CA6000F8B504460D4604B115B948F20460F8BDA6
:10CA70006946204604F096F8A0B16668BDF800103B
:10CA800001EB8101094A02EB810101F10C00012156
:10CA900000F0C9FF2E6060680C3068600120A07251
:10CAA0000020E4E748F20960E1E70000D8410020F7
:10CAB00070B504460D4614B948F2046070BD0323F6
:10CAC00000222946204605F08DFAF7E770B50446A6
:10CAD0000D46022300222946204605F083FA70BD48
