:020000040002F8
:1070000090750020DD730200E5730200E773020053
:10701000E9730200EB730200ED7302000000000050
:10702000000000000000000000000000EF730200FC
:10703000F173020000000000F3730200F573020018
:10704000E18F0200F77302000D9E0200F773020049
:10705000F773020000000000258F0200000000000E
:10706000AD9D0200C59D0200DD9D0200F773020088
:10707000F7730200F7730200F7730200F773020060
:10708000EDA70200459B0200F7730200F7730200B0
:10709000F7730200F7730200E99B0200F773020026
:1070A000F7730200F7730200F59D02000000000074
:1070B00000000000000000000000000000000000D0
:1070C00000000000000000000000000000000000C0
:1070D000000000000000000000000000F773020044
:1070E00000000000000000000000000000000000A0
:1070F0000000000000000000000000000000000090
:10710000000000000000000000000000000000007F
:10711000000000000000000000000000000000006F
:10712000000000000000000000000000000000005F
:10713000000000000000000000000000000000004F
:10714000000000000000000000000000000000003F
:10715000000000000000000000000000000000002F
:10716000000000000000000000000000000000001F
:10717000000000000000000000000000000000000F
:1071800000000000000000000000000000000000FF
:1071900000000000000000000000000000000000EF
:1071A00000000000000000000000000000000000DF
:1071B00000000000000000000000000000000000CF
:1071C00000000000000000000000000000000000BF
:1071D00000000000000000000000000000000000AF
:1071E000000000000000000000000000000000009F
:1071F000000000000000000000000000000000008F
:10720000DFF80CD000F016FA0048004789E20200CF
:107210009075002000B583B002900091019244F275
:10722000010071466A4603F0C7FD03B000BD0000CF
:1072300030B450E8012F93B2C48923448489A34217
:1072400028BF1B1B0489A34202BFBFF32F8F00205E
:1072500007E0C3EA020340E80134002CE9D14FF013
:1072600001000A6030BC704750E8012FC2EA0242B8
:1072700040E801210029F7D1704730B450E8022FCF
:107280001FFAA2F3C488A34202BFBFF32F8F0020CE
:107290000DE0C48923448489A34228BF1B1BC2EA92
:1072A000034340E80234002CE8D14FF001000A60AB
:1072B00030BC704750E8022FC2EA224240E8022167
:1072C0000029F7D17047034653E8022FD988B2EB63
:1072D000324F4FF0000017BF92B241EA014142EA3B
:1072E000014104E05A68B2EB324F08BF012043E885
:1072F0000212002AE8D1704730B4044654E8000F67
:107300000D4644E80053002BF8D1156030BC70479F
:1073100030B4044654E8000F40EA010544E8005345
:10732000002BF7D1156030BC704730B4044654E8E8
:10733000000F00EA010544E80053002BF7D1156067
:1073400030BC704730B4044654E8000F80EA0105B1
:1073500044E80053002BF7D1156030BC704730B4BF
:10736000044654E8000F00EB010544E80053002BED
:10737000F7D1156030BC704730B4044654E8000FB4
:10738000A0EB010544E80053002BF7D1156030BC99
:10739000704770B404464FF0000054E8006F0D6869
:1073A000AE4207BF44E80023012044E800630E60BA
:1073B000002B1CBF0020F0E770BC704730B40446BF
:1073C00054E8000F88422CBF451A054644E8005394
:1073D000002BF5D1156030BC70470000064880478F
:1073E00006480047FEE7FEE7FEE7FEE7FEE7FEE7AA
:1073F000FEE7FEE7FEE7FEE7019C020001720200E5
:107400002DE9F05F0546002092469B4688460646D9
:10741000814640241BE0284641464746224600F06C
:107420002FF853465A46C01A914110D311461846B8
:10743000224600F016F82D1A67EB01084F46224647
:107440000120002100F00DF817EB00094E41201E2D
:10745000A4F10104DFDC484631462A464346BDE834
:10746000F09F202A04DB203A00FA02F10020704746
:107470009140C2F1200320FA03F319439040704772
:10748000202A04DB203A21FA02F00021704721FA79
:1074900002F3D040C2F120029140084319467047E0
:1074A00000487047384D030040EA01039B0703D0B2
:1074B00009E008C9121F08C0042AFAD203E011F833
:1074C000013B00F8013B521EF9D27047D2B201E0F5
:1074D00000F8012B491EFBD270470022F6E710B5D9
:1074E00013460A4604461946FFF7F0FF204610BD32
:1074F000421E12F8013F002BFBD111F8013B02F8AC
:10750000013B002BF9D17047421C10F8011B0029E8
:10751000FBD1801A704710B5002200E0521C835C3A
:107520008C5CA34201D1002BF8D1D8B2E1B2401A51
:1075300010BD30B504460020034600E05B1C9342BA
:1075400003D2E05CCD5C401BF8D030BD034611F89F
:10755000012B00F8012B002AF9D11846704730B5ED
:1075600005460020034600E05B1C934205D2EC5C1C
:10757000C85C201A01D1002CF6D130BD70B506468A
:1075800003F02EFA046805460A220021304600F076
:1075900018F82C6070BD30B50B4601460020202243
:1075A000012409E021FA02F59D4205D303FA02F510
:1075B000491B04FA02F52844151EA2F10102F1DC70
:1075C00030BD2DE9F04791460F468046044600261F
:1075D00014F8015B2DB1FFF763FF0068405DC00741
:1075E000F6D12B2D02D02D2D18D0641E4A463946D7
:1075F000204600F031F827B13968A14201D1C7F81F
:10760000008071054FF002040BD54042002803DDD5
:1076100003F0E6F90460A007BDE8F08746F4806651
:10762000E4E70028F8DA03F0DBF904606FF00040CB
:10763000F2E70000064C074D06E0E06840F0010369
:1076400094E8070098471034AC42F6D3FFF7DCFD0E
:1076500090560300B05603002DE9F05F8246007893
:10766000002715468B460AF10104B946302801D09F
:107670009DB113E014F8010B0127782803D0582896
:1076800001D045B10AE00DB1102D07D1002710251A
:1076900014F8010B02E0082500E00A250026B04698
:1076A0000EE005FB080005FB06F1012701EB104683
:1076B0001FFA80F8B6F5803F00D3B94614F8010BE5
:1076C000294600F018F80028EBDABBF1000F05D0CE
:1076D0000FB1641E00E05446CBF80040B9F1000F32
:1076E00006D003F07DF902210160C81EBDE8F09FBD
:1076F00048EA0640FAE73A2800D2303820F0200263
:10770000412A01D3A2F13700884201D34FF0FF3064
:10771000704770B58C1810F8015B15F0070301D1A4
:1077200010F8013B2A1106D110F8012B03E010F8E4
:10773000016B01F8016B5B1EF9D12B0705D4002307
:10774000521E0DD401F8013BFAE710F8013BCB1AA9
:10775000921C03E013F8015B01F8015B521EF9D59E
:10776000A142D8D3002070BDF8B50446684602F0A7
:107770005DF814B1032C11D111E00321094804F084
:10778000E7F9054600BF2E4636B100BF06A2A2218A
:107790003046FFF73FFD00BF00BF00E000BF00BF65
:1077A000F8BD0000E84C00202E2E5C2E2E5C2E2E04
:1077B0005C2E2E5C2E2E5C2E2E5C2E2E5C75736540
:1077C000725C757365725F626C652E630000000009
:1077D000F0B5BDB0044665784FF6FF7000EA0525A8
:1077E000207805432749284A891AC908032242EA12
:1077F00001402A4625A108F015FD1222A11C38A837
:10780000FFF752FEADF8D45038A935A88160122098
:10781000ADF8D800684601F021FDAC210AA8FFF7B9
:107820005CFE00208DF82A0006208DF82B0009A8A8
:107830000B9035A8139002208DF864000121ADF85B
:10784000741016491E9101218DF8A41006992C91EF
:1078500000212D91124833900AA9124804F0CDF866
:10786000064600BF374637B100BF0FA28C2138460D
:10787000FFF7D0FC00BF00BF01210A4804F0BAF8AE
:107880003DB0F0BD48570300C056030069642D2D7C
:107890002D2D2D206973203078257800983B00200D
:1078A00069770200E84C00202E2E5C2E2E5C2E2ED6
:1078B0005C2E2E5C2E2E5C2E2E5C2E2E5C7573653F
:1078C000725C757365725F626C652E630000000008
:1078D00070B503210A4804F03BF904460CB103F0EB
:1078E0005FF800BF254635B100BF06A2B12128468A
:1078F000FFF790FC00BF00BF012001F029FF70BD21
:10790000E84C00202E2E5C2E2E5C2E2E5C2E2E5C43
:107910002E2E5C2E2E5C2E2E5C757365725C75733C
:1079200065725F626C652E630000000070B50B49E4
:1079300091F8540074DF04460CB103F031F800BF35
:10794000254635B100BF06A2C1212846FFF762FCDB
:1079500000BF00BF002001F0FBFE70BDE84C00201E
:107960002E2E5C2E2E5C2E2E5C2E2E5C2E2E5C2E51
:107970002E5C2E2E5C757365725C757365725F622A
:107980006C652E6300000000F0B5B1B00446657868
:107990004FF6FF7000EA0525207805431222A11C4E
:1079A0000EA8FFF781FD04A801F058FCADF80450C3
:1079B0000EA903911220ADF808003C2122A8FFF780
:1079C0008CFD3C2113A8FFF788FD00208DF88A006C
:1079D0000DA8239001A82B9006208DF88B00012084
:1079E000ADF85C000C49189102208DF84C0013AAE8
:1079F00022A90A4803F09BFF064600BF37463FB165
:107A000000BF07A240F26B213846FFF703FC00BF1E
:107A100000BF31B0F0BD0000983B0020E84C0020D2
:107A20002E2E5C2E2E5C2E2E5C2E2E5C2E2E5C2E90
:107A30002E5C2E2E5C757365725C757365725F6269
:107A40006C652E630000000013210248008876DF79
:107A500070470000883B0020F8B505460F4628888F
:107A6000212851D006DC10280BD0112833D0132840
:107A700071D15CE03B286FD052286FD05628F7D1E7
:107A800091E0012001F0A6FF00F041FE00F00CFBA8
:107A9000002001F05DFE4E494E4A891AC9080322B2
:107AA00042EA01404CA108F0B3FBA8884D49088088
:107AB000084601884C4807F01CF8044600BF2646DB
:107AC0003EB100BF49A24FF431713046FFF7A2FB2F
:107AD00000BF00BF79E0002001F07CFF00F0F0FD66
:107AE000012001F035FE00F0B3FA3949394A891A0C
:107AF000C908032242EA014046A108F089FB4FF67B
:107B0000FF703849088060E000200090A88869462E
:107B10008FDF044600BF26463EB100BF33A240F2CD
:107B2000D9213046FFF776FB00BF00BF4DE00023B0
:107B30001A4685212B4800887FDF044600BF264671
:107B40003EB100BF29A240F2DF213046FFF762FBC1
:107B500000BF00BF39E037E014E0FFE700231A461A
:107B6000194620480088B1DF044600BF26463EB1D2
:107B700000BF1EA240F2E5213046FFF74BFB00BFDD
:107B800000BF22E0A888132176DF044600BF264606
:107B90003EB100BF15A24FF43B713046FFF73AFBF0
:107BA00000BF00BF11E0A888132176DF044600BFA4
:107BB00026463EB100BF0DA240F2F3213046FFF74A
:107BC00029FB00BF00BF00E000BF00BFF8BD000000
:107BD00048570300C0560300436F6E6E65637465BB
:107BE00064000000883B0020DC4C00202E2E5C2E20
:107BF0002E5C2E2E5C2E2E5C2E2E5C2E2E5C2E2EBF
:107C00005C757365725C757365725F626C652E631B
:107C100000000000446973636F6E6E656374656491
:107C20000000000010B5044600BF04A24FF4B1717B
:107C30002046FFF7EFFA00BF10BD00002E2E5C2E8D
:107C40002E5C2E2E5C2E2E5C2E2E5C2E2E5C2E2E6E
:107C50005C757365725C757365725F626C652E63CB
:107C60000000000030B587B01C216846FFF735FCE6
:107C7000002000904FF4A03001904FF4F0200290CB
:107C800003208DF80C004FF6FF70ADF80E000120B8
:107C90008DF810000020059009480690684604F011
:107CA00011F8044600BF25463DB100BF05A24FF4C0
:107CB000AF712846FFF7AEFA00BF00BF07B030BD76
:107CC000257C02002E2E5C2E2E5C2E2E5C2E2E5C31
:107CD0002E2E5C2E2E5C2E2E5C757365725C757379
:107CE00065725F626C652E630000000030B58DB078
:107CF000684601F0B3FA00BF9DF8280020F00F009D
:107D0000401C0A909DF8280020F0F00010300A90E6
:107D100000BF6846FFF7F8FB85B22A4669460AA805
:107D20007CDF044600BF25463DB100BF17A240F2EC
:107D30003F112846FFF76EFA00BF00BF00200B90EE
:107D40000C901C48008EADF82C001A48408EADF8FF
:107D50002E001848808EADF830001648C08EADF861
:107D600032000BA87ADF044600BF25463DB100BFB4
:107D700006A24FF4A5712846FFF74CFA00BF00BFDA
:107D80001021112001F02CFE0DB030BD2E2E5C2EE6
:107D90002E5C2E2E5C2E2E5C2E2E5C2E2E5C2E2E1D
:107DA0005C757365725C757365725F626C652E637A
:107DB000000000001C51002070B50021084806F0AA
:107DC000B6FD044600BF25463DB100BF05A240F206
:107DD00077112846FFF71EFA00BF00BF70BD0000F4
:107DE000C04C00202E2E5C2E2E5C2E2E5C2E2E5C87
:107DF0002E2E5C2E2E5C2E2E5C757365725C757358
:107E000065725F626C652E63000000002DE9F04131
:107E10000546287800283FD12049214A891AC908F7
:107E2000032242EA01401FA108F0F2F9002623E0F4
:107E300000BF2969885D03F099FA0446002C18D028
:107E4000112C16D01549164A891AC908012242EA8E
:107E50000140224617A108F0E5F900BF27463FB1CF
:107E600000BF1FA24FF4CC713846FFF7D3F900BF13
:107E700000BF112CDDD0761CA88AB042D8D8A88AC1
:107E8000401E2969085C0D2805D100BF0A2003F0B7
:107E90006DFA1128FAD000BFBDE8F0814857030001
:107EA000C056030072656365697665207375636308
:107EB000657373004661696C65642072656365690A
:107EC00076696E67204E5553206D657373616765E3
:107ED0002E204572726F7220307825782E20000097
:107EE0002E2E5C2E2E5C2E2E5C2E2E5C2E2E5C2ECC
:107EF0002E5C2E2E5C757365725C757365725F62A5
:107F00006C652E630000000010B5044600BF04A29B
:107F100040F293212046FFF77DF900BF10BD00001D
:107F20002E2E5C2E2E5C2E2E5C2E2E5C2E2E5C2E8B
:107F30002E5C2E2E5C757365725C757365725F6264
:107F40006C652E630000000070B50446207803289D
:107F500002D0042810D104E06568284600F098FAA1
:107F60000BE00749074A891AC908032242EA01407F
:107F700005A108F04DF900E000BF00BF70BD000092
:107F800048570300C05603005363616E2074696D47
:107F90006564206F75742E007FB5002000900190FD
:107FA000029003901C4800901C4A69461C4806F049
:107FB000B4FE044600BF254635B100BF19A2E82132
:107FC0002846FFF727F900BF00BF2048FFF79CFABB
:107FD00080B11E4A0021124806F03DFE044600BF53
:107FE000254635B100BF0FA2EF212846FFF712F951
:107FF00000BF00BF00221F21094806F05DFE0446B5
:1080000000BF254635B100BF06A2F5212846FFF77F
:1080100001F900BF00BF7FBD8A3B0020497F0200FD
:108020001C5100202E2E5C2E2E5C2E2E5C2E2E5CE3
:108030002E2E5C2E2E5C2E2E5C757365725C757315
:1080400065725F626C652E63000000004C4C03009B
:1080500070B50A4806F0B2FF044600BF25463DB1A0
:1080600000BF07A240F21D112846FFF7D3F800BF5A
:1080700000BF012001F0A8FC70BD00001C510020D1
:108080002E2E5C2E2E5C2E2E5C2E2E5C2E2E5C2E2A
:108090002E5C2E2E5C757365725C757365725F6203
:1080A0006C652E630000000010B506F0D1FF0020C3
:1080B00001F08AFC10BD00003EB500200190009048
:1080C0001D48019001A91D4806F023FD044600BF8C
:1080D00025463DB100BF1AA24FF421712846FFF793
:1080E00099F800BF00BF002002901F48029002A92B
:1080F0001E4804F055FA044600BF25463DB100BFB6
:108100000FA240F28A212846FFF784F800BF00BF83
:1081100017480090684603F00DFF044600BF25464F
:108120003DB100BF06A240F28E212846FFF772F84B
:1081300000BF00BF3EBD0000097F0200DC4C0020F4
:108140002E2E5C2E2E5C2E2E5C2E2E5C2E2E5C2E69
:108150002E5C2E2E5C757365725C757365725F6242
:108160006C652E63000000000D7E02006C3B002059
:10817000A1C1020038B508F01BFE044600BF254629
:108180003DB100BF15A240F2A6212846FFF742F8F4
:1081900000BF00BF002000906946012008F002FCEB
:1081A000044600BF25463DB100BF0CA24FF42B7121
:1081B0002846FFF72FF800BF00BF684608F0C2FC52
:1081C000044600BF25463DB100BF04A24FF42C7108
:1081D0002846FFF71FF800BF00BF38BD2E2E5C2ECB
:1081E0002E5C2E2E5C2E2E5C2E2E5C2E2E5C2E2EC9
:1081F0005C757365725C757365725F626C652E6326
:108200000000000010B504462146024800F088FC3A
:1082100010BD0000D454002030B50020114C0025C2
:108220002560656000211AE00022002313E00E4C57
:1082300004EB8104A45C0CB95C1CE3B2042B05D1F3
:108240000124084D6C54441CE0B202E00024054DAA
:108250006C54541CE2B2042AE9DB4C1CE1B208293C
:10826000E2DB30BDC83B0020185500202DE9F0416D
:1082700086B000240025002600274FF010081421A6
:1082800001A8FFF72AF913208DF80400EF208DF8DC
:10829000050000BF10E000250AE0284800EB84003C
:1082A000415D01AAF01C1154701CC6B2681CC5B215
:1082B000042DF2DB601CC4B2042CECDB8DF80680CC
:1082C00011210DF1060000F06BF907468DF81770CB
:1082D000002101A800F00EFF142101A8FFF7FDF80E
:1082E000002713208DF80400EF208DF805000424EA
:1082F000002610E000250AE0104800EB8400415DF4
:1083000001AAF01C1154701CC6B2681CC5B2042D21
:10831000F2DB601CC4B2082CECDB8DF80680112166
:108320000DF1060000F03CF907468DF817700121A9
:1083300001A800F0DFFE06B0BDE8F081185500206E
:108340002DE9F05F04464FF0000AD346D146C846F7
:10835000A0783B4981F85000A078C11700EB9171DB
:108360004FEAA109FFF758FF8346204600F040F985
:108370008046A8F10200C1B2A01C00F011F93049FA
:1083800081F85100084690F8510014F8081088420E
:108390000BD02C492C4A891AC908032242EA014011
:1083A0002AA107F035FFBDE8F09F002004F808007F
:1083B000BBF1000F0AD12349234A891AC9080322B5
:1083C00042EA014025A107F023FFECE7B9F1050FD0
:1083D00013D2DFE809F00306090C0F004FF0040A7E
:1083E0000CE04FF0040A09E04FF0080A06E04FF0F5
:1083F0000C0A03E04FF0100A00E000BF00BF0025A8
:10840000002619E01D48405D012813D10C4948554C
:1084100000270AE0F01C215C0948303000EB8500A1
:10842000C155701CC6B2781CC7B2042FF2DB56458A
:1084300000D1B8E7681CC5B2082DE3DB00BFB2E786
:10844000E854002048570300C05603007561727459
:1084500020637263206661696C2100005468657254
:1084600065206973206E6F20657874726120646185
:10847000746120737061636520210000C83B002097
:1084800010B514210148FFF728F810BDD45400207E
:108490002DE9F047064600250027B46961E014F88D
:1084A0000580681C14F80090B9F1030F09D0B9F1E8
:1084B000090F07D0B9F10A0F05D0B9F1FF0F4BD161
:1084C00021E049E048E0207A13281BD1607AEE28A9
:1084D00018D1A07C0C30C7B2A07A2549097888420F
:1084E00010D1E07A2249497888420BD1207B20497B
:1084F0008978884206D104F1080000F047F8384630
:10850000FFF780FE28E0E079132824D1207AEE28B6
:1085100021D1607C0C30C7B2607A15490978884255
:108520000FD1A07A1249497888420AD1E07A1049DD
:108530008978884205D1E01D00F028F83846FFF719
:1085400061FE0C490C4A891AC908052242EA014019
:108550000AA107F05DFE00BF00BF08F1010005445D
:1085600000BFB08BA8429AD80520BDE8F087000074
:10857000C53B002048570300C05603007363616E7B
:1085800020646174613A30780000000010B5044640
:10859000142221460148FEF787FF10BDD454002065
:1085A00010B502460B460020002104E0545C044450
:1085B000E0B24C1CE1B29942F8DB10BD10B50B489B
:1085C0000021016041608160C16020211030FEF710
:1085D00084FF202105483030FEF77FFF002003494B
:1085E00081F8510081F8500010BD0000E8540020CF
:1085F000014600208A78012A01D1072002E08A780A
:10860000D21CD0B27047000030B5034600240022CF
:1086100013E000210CE0C81C1D5C0C4800EB82003C
:10862000405C854202D0601CC4B203E0481CC1B269
:108630000429F0DB00BF501CC2B2082AE9DB082C79
:1086400001D1002030BD0120FCE7000018550020BA
:10865000FCB502460C460026009601960E20002529
:1086600000210EE0165C412E01DB372100E03021B5
:10867000165C761AF6B20DF80560461CF0B26E1C58
:10868000F5B21428EEDB0020002100230DE01DF8D8
:108690000010461CF0B20E07310E1DF80060314389
:1086A000E154461CF0B25E1CF3B20628EFDBFCBDC1
:1086B00010B50248007809F0FBF910BDA13B00207D
:1086C000052000BF01070A46012303FA00F1C2F8A2
:1086D000081500BF00BF7047F0B5052001210A460C
:1086E00000242346254600BF07073E4641EA4207CD
:1086F00047EA840747EA032747EA054C06F5E0679F
:1087000047F820C000BF00BFFFF7DAFFF0BD05202B
:1087100000BF01070A46012303FA00F1C2F80C1555
:1087200000BF00BF704710B507F0E4FB08B907F0C1
:10873000E5FF10BD70B54FF48041094807F03AFEDF
:10874000044600BF25463DB100BF06A24FF4B471F8
:108750002846FEF75FFD00BF00BF07F0B7FB70BD06
:10876000C9DB02002E2E5C2E2E5C2E2E5C2E2E5C83
:108770002E2E5C2E2E5C2E2E5C757365725C7573CE
:1087800065725F64726976652E63000070B507F0EC
:1087900095FF044600BF25463DB100BF04A24FF43B
:1087A000A3712846FEF736FD00BF00BF70BD000074
:1087B0002E2E5C2E2E5C2E2E5C2E2E5C2E2E5C2EF3
:1087C0002E5C2E2E5C757365725C757365725F64CA
:1087D000726976652E63000030B58BB000243B4B88
:1087E0000FCB07AD0FC53949103103C9CDE90101E0
:1087F000374A01A9374808F00DFE044600BF254658
:1088000035B100BF34A27F212846FEF703FD00BF2B
:1088100000BF2F4A01A92F48083008F0FBFD04468D
:1088200000BF254635B100BF2BA281212846FEF7A7
:10883000F1FC00BF00BF264A01A92648103008F00D
:10884000E9FD044600BF254635B100BF22A28321C1
:108850002846FEF7DFFC00BF00BF1E48089908F05D
:1088600057FE04901B480830099908F051FE059006
:10887000184810300A9908F04BFE0690012000902D
:10888000022301461348049A08F0A2FD012000903B
:10889000042302210F480830059A08F099FD0120B1
:1088A0000090082303210B481030069A08F090FD31
:1088B000084808F07BFD0748083008F077FD0548B8
:1088C000103008F073FD0BB030BD0000744C030095
:1088D00095A40200AC3B00202E2E5C2E2E5C2E2E8A
:1088E0005C2E2E5C2E2E5C2E2E5C2E2E5C757365FF
:1088F000725C757365725F64726976652E630000E1
:1089000070B502F01DFC044600BF254635B100BF1E
:1089100003A26E212846FEF77DFC00BF00BF70BD9C
:108920002E2E5C2E2E5C2E2E5C2E2E5C2E2E5C2E81
:108930002E5C2E2E5C757365725C757365725F6458
:10894000726976652E63000010B50446207830B158
:1089500001282CD0022818D0042845D139E0012064
:1089600023490870234800781E280DDA2249234A3B
:108970001278881802F040FC20480078401C1F49FB
:10898000087000201B4908702FE01D491D4A891AF4
:10899000C908032242EA01401BA107F039FC00BFCD
:1089A00024A250216068FEF735FC00BF1DE0144989
:1089B000144A891AC908032242EA014027A107F094
:1089C00027FC00BF1BA256216068FEF723FC00BFF6
:1089D0000BE00B490B4A891AC908032242EA0140FD
:1089E00026A107F015FC00E000BF00BF10BD00008D
:1089F0009C3B0020A03B0020A2540020C43B002050
:108A000048570300C056030040407561727420410E
:108A100050505F554152545F434F4D4D554E494361
:108A20004154494F4E5F4552524F52206572726F0A
:108A3000720000002E2E5C2E2E5C2E2E5C2E2E5CE4
:108A40002E2E5C2E2E5C2E2E5C757365725C7573FB
:108A500065725F64726976652E6300007561727479
:108A6000204150505F554152545F4649464F5F4543
:108A700052524F52206572726F72000075617274AB
:108A8000204150505F554152545F4441544120654C
:108A900072726F720000000030B58BB0182212495C
:108AA00005A8FEF701FD00BF104801904FF480704B
:108AB00002900F4803904FF48070049007230D4AF2
:108AC00001A905A802F0E4FB044600BF00BF25464B
:108AD00035B100BF08A22E212846FEF79BFB00BF40
:108AE00000BF0BB030BD00005C4C03007052002092
:108AF00070530020498902002E2E5C2E2E5C2E2EF3
:108B00005C2E2E5C2E2E5C2E2E5C2E2E5C757365DC
:108B1000725C757365725F64726976652E630000BE
:108B200070B505460E46002404E0285D02F01EFCE8
:108B3000601CC4B2B442F8DB70BD000010B505493A
:108B4000054A891AC908032242EA014003A107F035
:108B50005FFB10BD48570300C0560300447269769E
:108B6000655F5744545F4576656E5F48616E646C1F
:108B7000650000003EB50024134A07CA8DE80700CF
:108B80001249684608F0ACFF044600BF25463DB1D7
:108B900000BF0FA240F27D112846FEF73BFB00BF4D
:108BA00000BF154808F05AFF044600BF25463DB1F6
:108BB00000BF07A24FF4C0712846FEF72BFB00BF91
:108BC00000BF08F07BFF3EBD8C4C03003D8B0200D4
:108BD0002E2E5C2E2E5C2E2E5C2E2E5C2E2E5C2ECF
:108BE0002E5C2E2E5C757365725C757365725F64A6
:108BF000726976652E630000A13B0020017831B1D7
:108C000001290AD002290ED0052918D111E04168A6
:108C100011B900210B4AD17012E0416811B900214D
:108C2000084AD1700CE0416811B90021054AD170A1
:108C300006E0416811B90021024AD17000E000BF8E
:108C400000BF7047143E002070B50E4880780128A0
:108C500017D10C48C078A0B900200A4988700120BB
:108C6000C87004F0E7FB044600BF254635B100BFDD
:108C700005A250212846FEF7CDFA00BF00BF00F044
:108C800047F970BD143E00202E2E5C2E2E5C2E2E39
:108C90005C2E2E5C2E2E5C2E2E5C2E2E5C7573654B
:108CA000725C757365725F6664732E63000000000A
:108CB00000487047EC3D002030B585B000200290A0
:108CC00003900490009001901D4804F0BBFC01202B
:108CD0001C49C87004F0D0FB044600BF254635B1DE
:108CE00000BF19A28A212846FEF794FA00BF00BFF0
:108CF00000F00EF90020009001906B4602AA41F2AC
:108D00000101481E04F052FC0446A4B101200D49A3
:108D1000C870174902A804F08BFC044600BF254622
:108D200035B100BF08A293212846FEF773FA00BFB1
:108D300000BF00F0EDF800F01DF805B030BD0000F8
:108D4000FD8B0200143E00202E2E5C2E2E5C2E2E5B
:108D50005C2E2E5C2E2E5C2E2E5C2E2E5C7573658A
:108D6000725C757365725F6664732E630000000049
:108D7000A84C030030B587B0002004900590069001
:108D8000029003900290039002AB04AA41F2010109
:108D9000481E04F00BFC0446002C26D100900190E4
:108DA000694604A804F00EFC044600BF254635B110
:108DB00000BF0FA275212846FEF72CFA00BF00BFA6
:108DC000282215480199FEF76FFB04A804F0BAFBAE
:108DD000044600BF254635B100BF05A27B212846C9
:108DE000FEF718FA00BF00BF00BF07B030BD00009B
:108DF0002E2E5C2E2E5C2E2E5C2E2E5C2E2E5C2EAD
:108E00002E5C2E2E5C757365725C757365725F6681
:108E100064732E6300000000EC3D002010B500F0EC
:108E200015F8FFF711FF10BD0FB410B5282202A9E5
:108E30000248FEF739FB10BC5DF814FBEC3D002046
:108E40000149087070470000143E002030B585B01D
:108E50000020029003900490009001901B4800783D
:108E6000012830D11948C07800282CD100900190F9
:108E700001201649C8706B4602AA41F201010003A5
:108E800004F094FB0446F4B91149124A891AC9083E
:108E9000032242EA014010A107F0BAF900200B4971
:108EA0000870104902A804F0B5FB044600BF25462F
:108EB00035B100BF0CA2AA212846FEF7ABF900BFCE
:108EC00000BF00F025F805B030BD0000143E0020C2
:108ED00048570300C0560300207570646174612018
:108EE00066647300A84C03002E2E5C2E2E5C2E2E82
:108EF0005C2E2E5C2E2E5C2E2E5C2E2E5C757365E9
:108F0000725C757365725F6664732E6300000000A7
:108F100000E041DF0248C0780028FAD17047000025
:108F2000143E00202DE9F84F0026002000904FF459
:108F300080770125002410E0384606F0E5FE40B1B8
:108F400000BF25480068284018B1384606F0CEFE1C
:108F50002E436D00381D87B2641C082CECD34FF4EF
:108F6000BE7006F0D1FE50B14FF4BE7006F0BEFEEA
:108F700046F000466A460121002006F081FEF0B26C
:108F800010B3012500241DE005EA0600C0B100BFB2
:108F9000124850F82400C0F30420814600BF0F4857
:108FA00050F82400C0F301408246204603F0C6FC7E
:108FB0008046B8F1000F02D051464846C04700BF76
:108FC0006D00641C082CDFD306F0004010B1684629
:108FD00009F08AFBBDE8F88F04630040106500408B
:108FE00010B54FF4807006F057F880B14FF48070E0
:108FF00006F05BF8012006F061F82048407930B9AE
:1090000001201E49487108460168002088474FF436
:10901000827006F041F850B14FF4827006F045F8C6
:10902000022006F04BF815480168012088474FF4EC
:10903000887006F031F850B14FF4887006F035F8BA
:10904000102006F03BF80D480168022088474FF4D5
:10905000867006F021F880B10020094908604FF4BD
:10906000867006F022F8082006F028F80020034950
:109070008871084601680320884710BD283A0020FF
:10908000340C0040024611B1012915D109E000203D
:1090900004E00B4B1B5C1354431CD8B21428F8DBC0
:1090A0000BE0002005E0064B14331B5C1354431CFB
:1090B000D8B21428F7DB00E000BF00BF7047000003
:1090C0003C55002010B50120084948700020087068
:1090D00014210748FEF701FA142105481430FEF761
:1090E000FCF9002000F076FC10BD0000E53D0020FA
:1090F0003C55002010B5024611B1012915D109E0F7
:10910000002004E0135C0A4C2354431CD8B21428FA
:10911000F8D30BE0002005E0145C054B14331C541D
:10912000431CD8B21428F7D300E000BF00BF10BD25
:109130003C55002030B587B016A207CA04AB07C360
:10914000002001900290039000241548FEF7DCF9FE
:10915000054629461248FEF7C0F904A91048FEF753
:10916000F5F91048C0690A21B0FBF1F084B222463B
:109170000DA101A801F000FC01A90948FEF7B8F90A
:109180000748FEF7C1F906493E220A54084607B0CF
:1091900030BD00003C6164765F64656C61793D00C0
:1091A000C73D002064550020256400001FB512A2B1
:1091B00007CA01AB07C3002000901248FEF7A4F9CC
:1091C000044621460F48FEF788F901A90D48FEF72D
:1091D000BDF90D480DA18269684601F0CDFB6946D5
:1091E0000848FEF785F90748FEF78EF905493E2243
:1091F0000A54084604B010BD3C6164765F696E7421
:109200003D000000C73D002064550020256400009B
:109210001CB50EA103C9CDE900010E48FEF774F993
:10922000044621460B48FEF758F969460948FEF7FF
:109230008DF909490748FEF75BF90648FEF764F91E
:1092400004493E220A5408461CBD00003C6E616D74
:10925000653D0000C73D00206455002010B5044660
:1092600009492046FEF772F907488069A06106485F
:10927000C069E0610448006A2062034890F8240055
:1092800084F82400012010BD6455002010B588B07A
:1092900017A30FCB04AC0FC40020019002900390E1
:1092A0001748FEF731F9044621461548FEF715F92F
:1092B00004A91348FEF74AF91248006A4FF47A717C
:1092C000B0FBF1F00F49086208460FA1026A01A83D
:1092D00001F052FB01A90A48FEF70AF90848FEF717
:1092E00013F907493E220A54084608B010BD000091
:1092F0003C6164765F74696D656F75743D00000054
:10930000C73D0020645500202564000010B588B0DA
:1093100013A30FCB04AC0FC4002001900290039064
:109320001348FEF7F1F8044621461148FEF7D5F838
:1093300004A90F48FEF70AF90E4890F924200EA15F
:1093400001A801F019FB01A90948FEF7D1F8084866
:10935000FEF7DAF806493E220A54084608B010BD66
:109360003C73745F74785F706F7765723D000000C6
:10937000C73D0020645500202564000010B5FFF7AC
:1093800097FC044621461A48FEF7E0F8FFF790FCE8
:10939000806917498861FFF78BFCC0691449C8616F
:1093A000FFF786FC006A12490862FFF781FC90F81B
:1093B000240040B20E4981F82400FFF779FC0446EE
:1093C0000C490D4A891AC908032242EA0140224683
:1093D0000AA106F027FF0749074A891AC90803228C
:1093E00042EA0140024A0EA106F01CFF10BD000037
:1093F0006455002048570300C056030020464453DC
:109400005F4765745F506172616D7328292D3E61FD
:1094100064765F6E616D206973203A2025730000C9
:10942000206164765F70726D2E6164765F6E616D2F
:1094300065206973203A2025730000002DE9F04172
:1094400088B0054600200690079000BF0F27804691
:109450002846FEF759F8C01B00F0FF08002405E07D
:109460003819285C06A90855601CC4B24445F7DBCE
:1094700006A8FEF783F886B206EB860040000D4989
:10948000C861182210316846FEF70EF809480FC867
:10949000FFF7CAFC0749CA690749084BC91AC90836
:1094A000032343EA014006A106F0BCFE08B0BDE874
:1094B000F08100006455002048570300C0560300A7
:1094C0006164765F64656C6179206973202564004E
:1094D000F0B589B005460020079008900D260027BA
:1094E0002846FEF711F8801BC7B2002405E03019AA
:1094F000285C07A90855601CC4B2BC42F7DB07A86A
:10950000FEF73CF80C498861182210316846FDF7D7
:10951000CBFF09480FC8FFF787FC07498A6907494D
:10952000074BC91AC908032343EA014005A106F005
:1095300079FE09B0F0BD00006455002048570300D3
:10954000C05603006164765F6974762069732025D4
:109550006400000038B500BF9DF8000020F00F0047
:10956000401C00909DF8000020F0F00010300090AA
:1095700000BF0A48FDF7C8FF85B22A46074968467A
:109580007CDF044600BF254635B100BF04A2802120
:109590002846FDF73FFE00BF00BF38BD64550020E0
:1095A0002E2E5C2E2E5C2E2E5C2E2E5C2E2E5C2EF5
:1095B0002E5C2E2E5C757365725C757365725F70C0
:1095C0006172616D2E630000F0B589B00546002020
:1095D00007900890112600272846FDF795FF801B6D
:1095E000C7B2002405E03019285C07A90855601CA3
:1095F000C4B2BC42F7DB07A8FDF7C0FF4FF47A7195
:1096000048430C490862182210316846FDF74CFFA8
:1096100008480FC8FFF708FC06490A6A0649074BC5
:10962000C91AC908032343EA014005A106F0FAFD5F
:1096300009B0F0BD6455002048570300C056030030
:109640005E5E5E5E5E5E5E5E5E5E5E5E5E5E5E5E3A
:109650006164765F74696D656F7574206973202528
:1096600064000000F0B589B005460020079008901E
:109670000D2600272846FDF747FF801B401EC7B276
:10968000A85D2B2812D100240DE03019401C285C65
:1096900007A9085507A8FDF771FF40B2204981F8D6
:1096A0002400601CC4B2BC42EFDB20E0A85D2D2882
:1096B00013D100240EE03019401C285C07A908557E
:1096C00007A8FDF75BFF404240B2154981F824002E
:1096D000601CC4B2BC42EEDB09E01249124A891A8E
:1096E000C908032242EA014010A106F091FD1822A8
:1096F0000B4910316846FDF7D7FE09480FC8FFF740
:1097000093FB074991F924200649074BC91AC90858
:10971000032343EA014007A106F084FD09B0F0BD30
:109720006455002048570300C05603006572726FED
:109730007200000074785F706F7765722069732023
:10974000256400000148007870470000E73D0020D4
:109750000149087070470000E73D002070B586B0F1
:10976000054600262846FDF7CFFE0B38C6B2162167
:109770001D48FDF7B2FE002406E004F10A00285C53
:1097800019490855601CC4B2B442F6DB17491648A3
:10979000FEF75EFF1822144910316846FDF784FE7B
:1097A00011480FC8FFF740FB1149124A891AC9082E
:1097B000032242EA01400C4A0FA106F033FD0024C7
:1097C0000EE00A490B5D0A490A4A891AC9080322B0
:1097D00042EA014022460BA106F030FD601CC4B2F3
:1097E000032CEEDB06B070BD64550020C53B0020A5
:1097F00048570300C05603006E616D6520697320F1
:109800002573000021212121212121212121212134
:1098100021212121216E616D655F6865785B25647A
:109820005D3A30782530327800000000034909782D
:10983000017002494978417070470000E53D002001
:1098400000B585B014216846FDF747FEFFF77AFFA3
:1098500078B1094800883C280BD1002006490880CF
:10986000FEF7DAFC042802DD00F018F901E000F050
:109870002BF905B000BD0000A23B00200148007894
:1098800070470000E93D002030B587B005A86DDFC6
:10989000044600BF25463DB100BF25A240F2C511D8
:1098A0002846FDF7B7FC00BF00BF2B492B4A891A99
:1098B000C908032242EA014029A106F0A9FC9DF84B
:1098C0001A009DF819109DF818209DF81730CDE961
:1098D0000032CDE902109DF816309DF815201E4982
:1098E0001E4D491BC908032545EA014023A106F086
:1098F000E5FC1949194A891AC908032242EA0140BC
:1099000027A106F085FC9DF81500401CC0B28DF81B
:10991000150000BF25463DB100BF05A240F2D5119C
:109920002846FDF777FC00BF00BF07B030BD000040
:109930002E2E5C2E2E5C2E2E5C2E2E5C2E2E5C2E61
:109940002E5C2E2E5C757365725C757365725F702C
:109950006172616D2E63000048570300C05603001A
:109960004D414320616464722A2A2A2A2A2A2A2A1B
:109970002A2A2A2A2A2A2A2A2A000000253032786E
:109980002C20253032782C20253032782C202530A0
:1099900032782C20253032782C20253032782C005B
:1099A0002A2A2A2A2A2A2A2A2A2A2A2A2A2A2A2A17
:1099B0002A4D414320616464720000000148007830
:1099C00070470000E83D0020014908707047000022
:1099D000E83D00200149087070470000E93D002083
:1099E0002DE9FC4104460D460020009001908DF8C1
:1099F000040001208DF8030000208DF802009DF87E
:109A0000000020F00200801C8DF800009DF800008E
:109A100020F00100401C8DF800009DF8000064F368
:109A200087008DF800009DF8010020F00200801CE6
:109A30008DF801009DF8010020F00100401C8DF818
:109A400001009DF8010065F387008DF8010069466B
:109A5000012067DF064600BF37463FB100BF05A2C1
:109A600040F2F1113846FDF7D5FB00BF00BFBDE85D
:109A7000FC8100002E2E5C2E2E5C2E2E5C2E2E5C89
:109A80002E2E5C2E2E5C2E2E5C757365725C7573AB
:109A900065725F706172616D2E63000000B585B004
:109AA00014216846FDF719FDFEF7E0FB002168462A
:109AB000FFF7E8FAFDF73AFF6846FDF765FFFDF7A7
:109AC00007FF05B000BD000000B585B01221684653
:109AD000FDF703FD1848C06918490988884229D84C
:109AE00017480078401C1649087000201349088068
:109AF000FEF7BCFB12480078012802D002280DD1E5
:109B000004E000216846FFF7BDFA0BE0012168463A
:109B1000FFF7B8FA00200A49087003E0002008495E
:109B2000087000BF00BFFDF701FF6846FDF72CFF7E
:109B3000FDF7CEFE05B000BD645500209E3B002021
:109B4000EA3D002010B5034A1068034A11688847AF
:109B500010BD0000683A0020643A002010B500F003
:109B600065FE10BD2DE9F047074688461646C246F9
:109B700007EB47011B4800EBC109D9F8140020B1DD
:109B8000012811D0022826D11EE0484600F086FEAA
:109B90000546B54201D2002405E03446324651461E
:109BA000484600F0C2FE18E0484600F077FE054641
:109BB000B54201D2284600E03046044622465146CE
:109BC000484600F0B2FE08E032465146484600F0F2
:109BD00073FE044601E0002400BF00BF2046BDE83C
:109BE000F0870000D848002010B507F023F910BD19
:109BF00001480249086070470090D003183E0020D9
:109C000010B504F0CFFC40B100205E4908604FF071
:109C10008041C1F810015C49086004F0F1FC0028A3
:109C200055D05A4800685A4908605848001D0068D5
:109C3000091D0860554808300068091D0860534830
:109C40000C300068091D0860504810300068091D7C
:109C500008604E4814300068091D08604B481830F1
:109C600000684B492031086048481C300068091DD5
:109C70000860464820300068091D086043482430C9
:109C80000068091D0860414828300068091D086007
:109C90003E482C300068091D08603C4830300068A0
:109CA0003B4940310860394834300068091D08607C
:109CB000364838300068091D086034483C30006878
:109CC000091D0860314840300068091D086004F033
:109CD0003BFC40B12F48006800F0010018B16FF064
:109CE00001002C4908602C48006800F0004030B9A1
:109CF0002948001D006800F0004000283ED00120E7
:109D00002649086000BF264800680028FBD01220C2
:109D10002149086000BF224800680028FBD01221BA
:109D20001D48001D016000BF1D4800680028FBD0D1
:109D300000201A49086000BF194800680028FBD0BD
:109D400000BF00BF00BF00BF00BFBFF34F8F00BF09
:109D500000BF00BF1348006800F4E06012490843E8
:109D6000001D1049086000BF00BF00BFBFF34F8F48
:109D700000BF00BF00BF00BF00BFFDE7FFF738FF17
:109D800010BD00000C010040380500400404001024
:109D900020C50040000400400012001004E501400E
:109DA00000E401400CED00E00000FA0510B50422CB
:109DB0000249034804F045F910BD00007840002036
:109DC0000080004010B504220249034804F039F92C
:109DD00010BD0000844000200090004010B5042217
:109DE0000249034804F02DF910BD00009040002006
:109DF00000A0004010B506220249034804F021F9F2
:109E000010BD00009C40002000A0014010B5024998
:109E10000868804710BD0000303A0020014600204D
:109E200006E00023044A02EB81021354421CD0B224
:109E30000428F6DB70470000185500202DE9F04398
:109E400085B081460E4600216846FFF71BF9F949A7
:109E50003046FDF760FB50B9FDF7F6FDF648FDF71B
:109E600053FB84B22146F448FEF75AFE7FE2F349E1
:109E70003046FDF750FBF0B9F149F24A891AC9089A
:109E8000032242EA0140F0A106F0C2F9FFF7F6FC16
:109E900040B1F348FDF738FB84B22146F048FEF7A5
:109EA0003FFE64E2EF48FDF72FFB84B22146ED4808
:109EB000FEF736FE5BE2EC493046FDF72CFB50B96D
:109EC000FEF7F2F8DC48FDF71FFB84B22146DA48C2
:109ED000FEF726FE4BE2E5493046FDF71CFB50B984
:109EE000FEF7B6F8D448FDF70FFB84B22146D248FE
:109EF000FEF716FE3BE2DE493046FDF70CFBA0B94B
:109F0000FFF75CFD40B1DB48FDF7FEFA84B2214665
:109F1000D848FEF705FE2AE2D748FDF7F5FA84B2E5
:109F20002146D548FEF7FCFD21E20A22D3493046FE
:109F3000FDF715FBB8B90120FEF782FFBE48FDF71B
:109F4000E3FA84B22146BC48FEF7EAFDFDF7EEFCD9
:109F50003046FFF703FCFFF7FDFA6846FDF738FCD3
:109F6000FDF7B6FC03E2C6493046FDF7D4FA58B90E
:109F7000FFF74EF981464846FDF7C6FA84B22146FE
:109F80004846FEF7CDFDF2E10D22BE493046FDF711
:109F9000E6FAA8B90120FEF753FFFDF7C7FC3046EB
:109FA000FFF796FA6846FDF713FCFDF791FCA2480F
:109FB000FDF7AAFA84B221469F48FEF7B1FDD6E12B
:109FC000B1493046FDF7A7FA58B9FFF7EFF88146D7
:109FD0004846FDF799FA84B221464846FEF7A0FDAF
:109FE000C5E10F22A9493046FDF7B9FA70B9012041
:109FF000FEF726FF3046FFF721FA8F48FDF784FA77
:10A0000084B221468C48FEF78BFDB0E1A049304672
:10A01000FDF781FA58B9FFF78DF881464846FDF7FC
:10A0200073FA84B221464846FEF77AFD9FE1112279
:10A0300098493046FDF793FAA8B90120FEF700FFD2
:10A04000FDF774FC3046FFF7BFFA6846FDF7C0FB2A
:10A05000FDF73EFC7848FDF757FA84B22146764872
:10A06000FEF75EFD83E18C493046FDF754FA58B99E
:10A07000FFF70CF981464846FDF746FA84B22146BF
:10A080004846FEF74DFD72E184493046FDF743FA3C
:10A09000D0B96B496B4A891AC908032242EA0140C8
:10A0A0007FA106F0B5F86448FDF72EFA84B2214688
:10A0B0006148FEF735FDFFF745FB10B905B0BDE877
:10A0C000F083FDF733FC52E178493046FDF723FA7F
:10A0D000C0B95B495B4A891AC908032242EA0140B8
:10A0E00073A106F095F85448FDF70EFA84B22146A4
:10A0F0005148FEF715FDFFF725FB00B1DEE7FDF740
:10A10000E7FB34E16D493046FDF705FAA0B9FFF7EA
:10A1100019FB40B16A48FDF7F7F984B22146684857
:10A12000FEF7FEFC23E16748FDF7EEF984B2214615
:10A130006448FEF7F5FC1AE163493046FDF7EBF998
:10A1400040B93D48FDF7E0F984B221463A48FEF7B0
:10A15000E7FC0CE15D493046FDF7DDF940B93648D2
:10A16000FDF7D2F984B221463348FEF7D9FCFEE070
:10A1700057493046FDF7CFF940B92F48FDF7C4F9EC
:10A1800084B221462C48FEF7CBFCF0E05149304622
:10A19000FDF7C1F940B92848FDF7B6F984B2214668
:10A1A0002548FEF7BDFCE2E00D224B493046FDF7A5
:10A1B000D6F9A8B90120FEF743FEFDF7B7FB3046FC
:10A1C000FFF750FA6846FDF703FBFDF781FB4348B4
:10A1D000FDF79AF984B221464048FEF7A1FCC6E09B
:10A1E0003F493046FDF797F958B9FFF78FF8814698
:10A1F0004846FDF789F984B221464846FEF790FCAF
:10A20000B5E038493046FDF786F980B90A48FDF7D0
:10A210007BF984B221460848FEF782FC4FF4FA74B9
:10A2200004B96BE000BF4FF47A750DB962E083E0CA
:10A230005AE00000D03B00205B3D0020DD3B0020C9
:10A2400048570300C05603005669657720636F6E58
:10A250006E656374696F6E2073746174757300004A
:10A26000603D00206C3D0020ED3B0020F93B0020CC
:10A27000063C0020783D0020883D0020133C002053
:10A280001F3C00202B3C00203A3C0020493C002091
:10A290005A3C00206B3C00207E3C0020913C00207A
:10A2A00053746F7020416476000000009C3C0020D5
:10A2B000537461727420416476000000A83C002051
:10A2C000A93D0020B83D0020B43C0020C73C002040
:10A2D000DA3C0020F33C00200C3D0020983D00209B
:10A2E0001B3D00202B3D0020264F4FEA851840469D
:10A2F000B84700BF601E041E95D100BF00BF00BF5D
:10A3000000BF00BF00BFBFF34F8F00BF00BF00BF43
:10A310001D48006800F4E0601C490843001D1A490C
:10A32000086000BF00BF00BFBFF34F8F00BF00BF7A
:10A3300000BF00BF00BFFDE715493046FDF7EBF851
:10A3400020B9042113A0FEF7EBFB10E00C22134907
:10A350003046FDF704F950B90020FFF75FFD1048C3
:10A36000FDF7D2F884B221460D48FEF7D9FB1F2134
:10A370003046FDF7B2F81F214846FDF7AEF800BFA2
:10A380009CE60000A14C03000CED00E00000FA0583
:10A39000413D002056312E30000000004D3D002090
:10A3A0005B3D00201CB5304800788DF804002E4835
:10A3B00040788DF805002D48007800902C480078F2
:10A3C000002850D12948007801284CDDFFF756FAC3
:10A3D00098B19DF804003C2804D123492548FFF793
:10A3E0002DFD06E0244803886A461F49234802F0F1
:10A3F00099F800201D49087035E09DF804001328E5
:10A400000ED19DF80500EF282DD11748FEF7FCF876
:10A4100010B91548FDF794FF00201449087022E098
:10A420009DF804003C2811D11549164A891AC9081B
:10A43000032242EA014014A105F0EAFE0A490D4850
:10A44000FFF7FCFC0020094908700CE00C490D4A9C
:10A45000891AC908032242EA01400CA105F0D8FE7E
:10A460000020024908701CBDA2540020C43B0020FB
:10A470009C3B002070540020883B00206C3B002057
:10A4800048570300C05603003C0000007561727419
:10A49000206E6F0030B58BB004460D46B148008881
:10A4A000B0F57A7F02DD0020AE490880AE48008812
:10A4B000B0F57A7F02DD0020AB490880B4F5A07FBB
:10A4C00009D0B4F5A27F11D0B4F5A47F7ED0B4F545
:10A4D000A67F7CD12FE1A549A54A891AC908032284
:10A4E00042EA0140A3A105F093FE38E1FFF72AF903
:10A4F00000286DD001A8FEF7B1FE099808B90BB08D
:10A5000030BD9F480078012812D19D480069401C49
:10A510009B490861084600690999884208D30020D0
:10A52000974908700861FFF779FC01209449087287
:10A5300093484078012815D191484069401C9049C2
:10A54000486108464069099988420BD300208C492C
:10A55000487000218A4841610120FFF75FFC01211A
:10A56000874841728648807801281FD184488069D5
:10A57000401C83498861084680690999884215D33F
:10A580007A497B4A891AC908032242EA01407DA11F
:10A5900005F03EFE00207A498870002178488161EC
:10A5A0000220FFF73BFC0121754881727448C07896
:10A5B000012823D17248C069401C7149C86108460E
:10A5C000C0690999884219D3684902E0A8E0C5E04A
:10A5D000A5E0674A891AC908032242EA01406DA131
:10A5E00005F016FE00206649C87000216448C1616C
:10A5F0000320FFF713FC01216148C1726048007914
:10A6000001281FD15E48006A401C5D490862084667
:10A61000006A0999884215D35449554A891AC908CC
:10A62000032242EA01405FA105F0F2FD00205449F7
:10A6300008710021524801620420FFF7EFFB01215D
:10A640004F4801734E48407901281FD14C48406A59
:10A65000401C4B4948620846406A0999884215D314
:10A660004249434A891AC908032242EA014051A1DA
:10A6700005F0CEFD0020424948710021404841626A
:10A680000520FFF7CBFB01213D4841733C48807911
:10A6900001281FD13A48806A401C3949886208461F
:10A6A000806A0999884215D33049314A891AC90804
:10A6B000032242EA014043A105F0AAFD00203049EF
:10A6C000887100212E4881620620FFF7A7FB012137
:10A6D0002B4881732A48C07901281FD12848C06AB5
:10A6E000401C2749C8620846C06A0999884215D3A8
:10A6F0001E491F4A891AC908032242EA014035A1AE
:10A7000005F086FD00201E49C87100211C48C16269
:10A710000720FFF783FB01211948C17300BF1EE02A
:10A7200010480088401C0F4908800F480088401CD2
:10A730000D49088013E02B48007801280DD12A48E4
:10A740000078401C28490870084600781E2804DD5F
:10A750000020244908702449087000E000BF00BFB1
:10A7600000BFCCE69E3B0020A23B002048570300E0
:10A77000C056030074696D657220494E5430000064
:10A78000E8540020436C65616E20426C6F636B324D
:10A7900000000000436C65616E20426C6F636B3398
:10A7A00000000000436C65616E20426C6F636B3487
:10A7B00000000000436C65616E20426C6F636B3576
:10A7C00000000000436C65616E20426C6F636B3665
:10A7D00000000000436C65616E20426C6F636B3754
:10A7E000000000009C3B0020A03B002008B500BFFB
:10A7F0004FF480700B49405808B1012000E0002060
:10A8000078B109480068804700BF00204FF480718C
:10A81000044A8850084611464058009000BF00BFC7
:10A8200000BF08BD000001403C3A002010B5124CAA
:10A8300002202061606111A0A0611349E1614FF421
:10A84000007121620021A1626162E1620BA0A0643B
:10A850000E49E164102121650021A1656165E16572
:10A860000BA1E01DFCF772FE0AA12046FCF76EFE6C
:10A870002020A07110BD0000C04800205465726DFA
:10A88000696E616C0000000038490020384B0020E0
:10A8900052545400534547474552000010B50146F5
:10A8A0000A69CB689A4204D88C68641EE41AA0181E
:10A8B00001E0D41A601E10BD2DE9F0470446894618
:10A8C00017464FF0000AE56800BFD4F81080A8458D
:10A8D00003D9A8EB0500461E04E0A5EB0800401CC8
:10A8E000A1680E1AA068401BB04201D9304601E0B1
:10A8F000A068401B0646BE4201D2304600E0384602
:10A9000006466168481932464946FCF7CDFDB24417
:10A91000B144BF1B3544A068A84200D10025E560C2
:10A92000002FD2D15046BDE8F0872DE9F04704460C
:10A9300089461546E668A068871BAF4208D961685A
:10A9400088192A464946FCF7AFFD7019E06010E00F
:10A95000B8466168881942464946FCF7A5FDA5EB53
:10A96000070809EB070142466068FCF79DFDC4F843
:10A970000C80BDE8F08700000FB4084B10B504A9A7
:10A9800002AA039800F062F8044602A9002000F031
:10A9900007F9204610BC5DF814FB0000A1AB0200D3
:10A9A00000BF00BF00BFBFF34F8F00BF00BF00BF9D
:10A9B0000948006800F4E06008490843001D0649A2
:10A9C000086000BF00BF00BFBFF34F8F00BF00BFD4
:10A9D00000BF00BF00BFFDE70CED00E00000FA057E
:10A9E000004870471C3E002002E008C8121F08C142
:10A9F000002AFAD170477047002001E001C1121F00
:10AA0000002AFBD1704700000146202908DA012006
:10AA100088400A4A104008B1012070470020FCE736
:10AA2000402909DAA1F12000012202FA00F008B160
:10AA30000120F2E70020F0E70120EEE7FC06FFBD71
:10AA400000BFEFF31081084672B670472DE9FF4F43
:10AA500089B09B460446002506E025280BD05A46BF
:10AA60000B999047641C6D1C20780028F5D10DB01F
:10AA70002846BDE8F08F0027B8460122474900E08C
:10AA8000074314F8013F203B02FA03F00842F7D1D4
:10AA900020782E2819D114F8010F47F004072A282E
:10AAA0000ED06FF02F022078A0F1300109290CD8C8
:10AAB00008EB880102EB410100EB0108641CF2E79E
:10AAC0000A98641C50F8048B0A9020780028CED095
:10AAD000642808D0692806D075281ED05A460B99DC
:10AAE00090476D1C58E00A994FF00A0901C90A9174
:10AAF000002802DA40422D2102E0390504D52B213D
:10AB00008DF82010012103E0F90704D02021F7E798
:10AB10008A4608AE0DE00021FAE70A994FF00A09CB
:10AB200001C90A91F7E74946FCF735FD303106F8CF
:10AB3000011D0028F7D1ADEB060000F120097807D0
:10AB400001D44FF00108C84502DDA8EB090000E080
:10AB500000208046002706E008A85A46C05D0B99F1
:10AB600090476D1C7F1C5745F6DB04E030205A46A9
:10AB70000B9990476D1CB8F10001A8F10108F5DCB4
:10AB800005E016F8010B5A460B9990476D1CB9F178
:10AB90000001A9F10109F4DC641C65E70928010042
:10ABA0000A68531C0B6010707047014601F00300E7
:10ABB00008B9012070470020FCE702465068006891
:10ABC000401E084008B9012070470020FCE70246FB
:10ABD000002104E0505C08B101207047491C06299F
:10ABE000F8D30020F9E710B50346D868884206D8A4
:10ABF0008818401E1C69A04201D8012010BD002009
:10AC0000FCE7000010B504466CB10848C068A042DB
:10AC100009D806480069A04205D3204603F094FAFB
:10AC200008B1012010BD0020FCE70000203E0020FC
:10AC300070B504460D4604F22740FFF7C8FF0646EC
:10AC4000012D06D0022D0DD0032D11D0042D19D1C8
:10AC500013E0A07928B194F8240010B90EB10120B6
:10AC600070BD00BFE07910B10EB10220F8E700BF5F
:10AC7000207A08B10320F3E700BF607A08B104200E
:10AC8000EEE700BF0020EBE70146481C052290FBE1
:10AC9000F2F302FB1300C0B270472DE9F0470446FF
:10ACA0000D462F4695F82080B4F81C9000260BE046
:10ACB00007EB46124946A06900F068FD10B101207B
:10ACC000BDE8F087701CC6B24645F1DB0020F7E70F
:10ACD000014691F82420012A01D1EE2000E01F2036
:10ACE00070472DE9F05F06460C4604F1220A94F8FD
:10ACF0002C502A2010F804904FF00008B6F81CB031
:10AD0000002710E00AEB87025946B06900F0A7FD62
:10AD100028B108F1010000F0FF0815B905E005B100
:10AD200003E0781CC7B24F45ECDB00BF0DB1C8454E
:10AD300003D02DB9B8F1000F02DD0120BDE8F09F6E
:10AD40000020FBE710B501220221002001F022FDC6
:10AD5000044600BF1CB1072C01D0204610BD00BF27
:10AD600007220221012001F015FD044600BF1CB19D
:10AD7000072C01D02046F1E700BF0A220021084637
:10AD800001F008FD044600BF1CB1072C01D020468D
:10AD9000E4E700BF0020E1E710B504462C2120467F
:10ADA000FCF79BFB012020714FF49670206144F268
:10ADB0005060606110BD00002DE9FE4307460E465D
:10ADC000144672B600BF05F03DFB00BF00BF05F0A2
:10ADD00091F80028FBD100BF00BF012F0CD06FF409
:10ADE0008050384498B1B0F5405F2CD06FF440519A
:10ADF0000844002847D115E03149324A891AC90868
:10AE0000012242EA014030A105F002FA47E02C4954
:10AE10002C4A891AC908012242EA014032A105F0F0
:10AE2000F7F93CE025462649DFF898C0A1EB0C0174
:10AE3000C9084FF0010C4CEA014034A1D5E90032B9
:10AE400005F0FCF92BE02546A86806F003F98046DA
:10AE5000D5E900108DE8430019491A4BC91AC908F1
:10AE6000012343EA014043462FA1AA6805F00AFAEC
:10AE70001349144A891AC908012242EA014034A13F
:10AE800005F0C6F90BE00E490E4A891AC9080122DD
:10AE900042EA0140324633A105F0C4F900BF00BFC9
:10AEA00000BF3648006800F0010000B100BE00BFDE
:10AEB00022463146384600F063F8BDE8FE830000C4
:10AEC00048570300C0560300534F46544445564963
:10AED00043453A20415353455254494F4E20464131
:10AEE000494C454400000000534F465444455649E0
:10AEF00043453A20494E56414C4944204D454D4F1B
:10AF00005259204143434553530000004153534598
:10AF10005254494F4E204641494C454420617420CB
:10AF200025733A25750000004552524F5220257571
:10AF3000205B25735D2061742025733A25750D0A09
:10AF400050432061743A2030782530387800000072
:10AF5000456E64206F66206572726F722072657034
:10AF60006F727400554E4B4E4F574E204641554C14
:10AF7000542061742030782530385800F0ED00E01E
:10AF800018B5012300939DF800301E4B18605960DE
:10AF90009A606FF48043034463B1012B19D1194BBC
:10AFA000DA60DB681B68174CA3612346DB685B68CB
:10AFB000E3610EE0134B1A611B699B68114C6361DE
:10AFC00023461B691B68A36123461B695B68E36119
:10AFD00000BF00BF0B4B1B680A4B5B68094B9B68AB
:10AFE000084BDB68074B1B69064B5B69054B9B698C
:10AFF000044BDB6972B600BF9DF80030002BFBD11B
:10B0000062B618BDA840002070B504460D46204623
:10B0100002F03EFB28B12946204602F02DFB00201D
:10B0200070BD0520FCE7034609B90E20704712B138
:10B03000501E104008B10920F8E71960501E988092
:10B0400000209860D86000BFF0E770B504460D4658
:10B05000204602F01DFBA188884205D829462046DB
:10B0600002F029FB002070BD0420FCE710B5044667
:10B07000022C0AD10C490D4A891AC908032242EA56
:10B0800001400BA105F0C4F801E0012010BD00BF94
:10B090000549064A891AC908032242EA014010A15B
:10B0A00005F0B6F80120F1E748570300C056030049
:10B0B000506F776572206D616E6167656D656E7446
:10B0C0002077616E747320746F20726573657420CD
:10B0D000746F20444655206D6F64652E000000009B
:10B0E000506F776572206D616E6167656D656E7416
:10B0F00020616C6C6F77656420746F207265736576
:10B100007420746F20444655206D6F64652E0000D6
:10B1100010B5024801F03EFF10BD0000403A00208B
:10B1200010B503460C460AB9072010BD19684A61DC
:10B13000012C01D1012000E0002008610020F4E78B
:10B1400038B5134800680090082358221149124866
:10B15000006803F08EFA04460CB1204638BD0F4A51
:10B1600069460F4801F01CFF04460CB12046F5E784
:10B1700001210B4801F0BAFF01230A4A1946084889
:10B1800001F0DAFE0120084908702046E6E70000D9
:10B1900024490300C8400020144903006330030021
:10B1A000403A0020FFFF7F004C3A00202DE9F0419B
:10B1B00006460D4617463446207F10B10020BDE8F4
:10B1C000F081A76102F000FD401941F10001C4E9DE
:10B1D0000201206900B125612146002008F062FDCE
:10B1E000EDE770B504462546002028772946012062
:10B1F00008F058FD70BD00002DE9F04104461048EC
:10B20000077821460F48FFF7FFFE8046A7B10020D0
:10B210000B49087001220C490C4804F0B3F80546AC
:10B2200000BF2E4636B100BF09A2D6213046FBF73B
:10B23000F1FF00BF00BF00BF4046BDE8F081000045
:10B24000CE3A0020E8420020CD3A0020B43A002057
:10B250002E2E5C2E2E5C2E2E5C2E2E5C2E2E5C2E28
:10B260002E5C2E2E5C636F6D706F6E656E74735CFA
:10B270006C69627261726965735C756172745C613C
:10B2800070705F756172745F6669666F2E6300002F
:10B290002DE9F04188B004460E46174698462B48E3
:10B2A00007601EB9072008B0BDE8F081B08882B2FF
:10B2B00027483168FFF7B7FE054600BF284600B1B2
:10B2C000F1E700BFB08982B22248B168FFF7ABFE58
:10B2D000054600BF284600B1E5E700BF20221E4911
:10B2E0006846FCF7E1F860690690207C08B101200F
:10B2F00000E000208DF814008DF81C80607C08B1FF
:10B300000E2000E000208DF81500E0680290A06893
:10B3100003902068019060680090104A69461048C8
:10B3200003F0EAFF054600BF284600B1BBE700BFB7
:10B3300000200C4908702068401C28B101220A49ED
:10B34000074804F01FF8AEE70020ACE7C83A002039
:10B35000E8420020F8420020504B0300653E030005
:10B36000B43A0020CE3A0020CD3A00202DE9F04139
:10B37000054629461448FFF768FE064606BB134CEF
:10B38000002720781249085C20B1201D06F056FBEA
:10B39000074608E020780E49085C20B904F10C004B
:10B3A00006F0F4F9074600BF57B90A490648FFF707
:10B3B0002BFE28B901220749044804F005F8064687
:10B3C0003046BDE8F0810000F8420020B43A002089
:10B3D000243A0020CC3A002010B50446204607F05D
:10B3E000CBFF10BD70B5044625460E488068B0B14D
:10B3F000ADB9FFF725FB06460A4800680A49086010
:10B40000084840684FF0E021C1F8040100200549D8
:10B4100088601EB900BF62B600BF00BF00BF00BF9A
:10B4200070BD00003041002000E100E0F8B50546A5
:10B430000C4617462088001DB84201D90C20F8BDE3
:10B44000684679DF064600BF304600B1F7E700BF27
:10B450000320218868542088401C208019202188DE
:10B4600068542088401C208020884119BDF80000C5
:10B4700008F0EAFE2188084420800020DFE770B54C
:10B4800005460C462068401C28B1206804F012FCD8
:10B49000206804F0C3FB6068401C18B10321606899
:10B4A00004F0A2FB2868A169C0F8241500BF617DE3
:10B4B000227D286841EA0203C0F86C3500BFD4E958
:10B4C0000012286805F022FE207D012814D1A06812
:10B4D000401C18B10321A06804F086FBE068401C02
:10B4E00028B1E06804F0E6FBE06804F097FBD4E9DB
:10B4F0000221286805F0F2FD70BD70B505460C46C6
:10B500002068401C28B1206804F0DFFB206804F0AC
:10B5100091FB6068401C18B10021606804F071FB69
:10B520002868A169C0F8241500BF617D227D2868C4
:10B5300041EA0203C0F86C3500BFD4E90012286864
:10B5400005F01EFE207D012814D1A068401C18B112
:10B550000021A06804F055FBE068401C28B1E068B9
:10B5600004F0B3FBE06804F065FBD4E9022128682D
:10B5700005F0E7FD70BD0000002114E00C48D0F894
:10B580001024012308E000BFD0680079884201D16F
:10B59000002303E0D0680268002AF4D100BF0BB199
:10B5A00008467047491C0A29E8DB4FF0FF30F8E7EE
:10B5B000A04400202DE9F04104460F46154615B978
:10B5C0000E20BDE8F0810020286000BF0CB90E20DD
:10B5D000F7E700BF00BF206808B90E20F1E700BF01
:10B5E00000BFE088C11700EB91718910A0EB8101C9
:10B5F00009B10720E5E700BF384600F0B1FBC6B24D
:10B60000142E01D10520DCE72079B04201DC0420B2
:10B61000D7E7E188206806FB010028600020D0E71A
:10B620002DE9FC410546884616460024378800204F
:10B63000308095F82D0058B13A463146404600F02A
:10B64000B3FB044600BF204608B1BDE8FC8100BF43
:10B65000A87850B13A4631464046FFF7E7FE044627
:10B6600000BF204600B1F0E700BFE87860B1E9789C
:10B6700048B23B463246414602F04FF8044600BF0E
:10B68000204600B1E1E700BF686868B1696891F9D8
:10B6900000003B463246414608F0C8FB044600BF66
:10B6A000204600B1D1E700BF288900280EDD4346BF
:10B6B0000622022105F10800CDE9006708F097FE97
:10B6C000044600BF204600B1BFE700BF288A00281B
:10B6D0000EDD43460722032105F11000CDE9006786
:10B6E00008F085FE044600BF204600B1ADE700BF6C
:10B6F000288B00280EDD43461522142105F1180081
:10B70000CDE9006708F073FE044600BF204600B193
:10B710009BE700BF286A58B13B4632464146286A3B
:10B7200001F0A4FA044600BF204600B18DE700BF37
:10B73000686A58B13B4632464146686A02F0E4FD09
:10B74000044600BF204600B17FE700BF95F82C00FB
:10B7500000280BDD3B4632464146284607F020FFD5
:10B76000044600BF204600B16FE700BF287858B1FB
:10B770003B4632464146284602F082FE044600BF60
:10B78000204600B161E700BF20465EE72DE9F8439F
:10B79000064688461546002000900DB9BDE8F8839E
:10B7A00009236A464146304600F02BF80446BDF8AE
:10B7B00000003718BDF8000068B164B12846FBF7F7
:10B7C000A3FEA04207D1224639462846FBF7B1FE28
:10B7D00008B90120E2E70020E0E7F8B504460E468C
:10B7E0001546002000902B466A463146204600F060
:10B7F00008F807460FB90020F8BDBDF80000204446
:10B80000FAE7F0B504460D461E4604B10AB9002019
:10B81000F0BD002103E0605C401C084481B2481C7C
:10B82000A84206DA10888842F5DC481C205CB04249
:10B83000F1D1A94201DB0020EAE7881C87B2605CF5
:10B8400010B1605C401E00E0002083B213B1F81814
:10B85000A84201DD0020DBE717801846D8E72DE974
:10B86000F04788B004460E46174600200790102087
:10B870000690B24602AA06A9384664DF814614B192
:10B88000B9F1000F03D0002008B0BDE8F0879DF8A3
:10B890001800022804D0042809D0102815D10DE082
:10B8A00003208DF8040002208DF805000FE005202C
:10B8B0008DF8040004208DF8050008E007208DF8BD
:10B8C000040006208DF8050001E00020DCE700BF41
:10B8D000002509E001A8435D07AA31462046FFF78D
:10B8E00090FF8246681CC5B2022D03DABDF81C0029
:10B8F0000028EFD0BDF81C0008B90020C4E7BDF84F
:10B900001C0004EB000800250DE008EB05009DF885
:10B91000182002A9FBF70DFE08B90120B4E79DF835
:10B920001800284485B25545EFDB0020ACE72DE92F
:10B93000FF4104460D46164600BF1CB90E2004B058
:10B94000BDE8F08100BF207808B90820F7E715B9F5
:10B950000EB90E20F3E700200090019002900390B2
:10B96000DDB1D4F82004016804F15500814200D013
:10B9700001E004F2431000902046FFF7A9F9ADF86A
:10B98000040001AA28460099FFF74AFE074600BFB7
:10B99000384600B1D3E700BF00BFDEB1D4F82004C1
:10B9A000816804F23120814200D001E004F21F30AE
:10B9B00002902046FFF78CF9ADF80C0003AA304640
:10B9C0000299FFF72DFE074600BF384600B1B6E7E3
:10B9D00000BF00BF04F580609DE88E0010308EC06F
:10B9E0001038C4F82004002204F15400D4F82014C4
:10B9F00072DFA4E780F83010704770B504460D463A
:10BA000005B10CB90E2070BD05F1780001F0C7F842
:10BA100008B90720F7E70020A0702C2205F1780173
:10BA2000201DFBF741FD002084F83000D5F8A4006C
:10BA30006063D5F8A800A0634FF6FF70A4F8240453
:10BA400004F58260C4F82004002140F22C40C4F8C0
:10BA50002614A4F82A140155207810B9FF2084F880
:10BA6000540004F15500C4F810042046FFF730F9E3
:10BA700040F21441085304F2144204F155012846DF
:10BA8000FFF7CEFD064600BF304600B1BBE700BF62
:10BA900004F231204FF4836108512046FFF718F972
:10BAA000A4F81C044FF48360015904F21C4205F110
:10BAB0003C00FFF7B5FD064600BF304600B1A2E7E7
:10BAC00000BF012151200155208B81B24820015334
:10BAD000012084F83C000021216450200155616957
:10BAE000616404F13C02002104F1540072DF064657
:10BAF00000BF304600B186E700BF0120207030460D
:10BB000081E770B504460D462C222946201DFBF71F
:10BB1000CBFC70BD70B504460D462E46208810281B
:10BB200004D0112807D026280FD109E0214630463D
:10BB300006F0E4F80AE02146304606F0F1F905E0A7
:10BB40002146304606F087FB00E000BF00BF70BD15
:10BB500070B504460E46207808B9082070BDA6705E
:10BB6000002140F22C40C4F82614A4F82A140155F0
:10BB7000A07910B1A078012809D0E07910B1A0789F
:10BB8000012804D0E07970B1A07802280BD1606B55
:10BB900030B1012084F82D040820616B884702E051
:10BBA000002084F82D0431462046FFF741F8A070AC
:10BBB000606BA0B1A078032802D0A07804280ED131
:10BBC000607960B194F82E0448B9002084F83004FC
:10BBD000012084F82F040720616B884702E00020D1
:10BBE00084F82F04182104F13C00FBF776FC0120B7
:10BBF00084F83C0004F12C0006F068FD20B194F8B4
:10BC00002C105120015502E001215120015594F8DA
:10BC1000240060B104F1280006F058FD20B194F82A
:10BC200028105220015502E0012152200155002127
:10BC300050200155A078052824D2DFE800F01F032A
:10BC40000A11180004F13C01204607F00CFD0546DE
:10BC500019E004F13C01204607F0EDFC054612E036
:10BC600004F13C01204607F010FD05460BE004F10D
:10BC70003C01204607F037FD054604E0002084F82B
:10BC8000310000E000BF00BFA07898B104F13C0291
:10BC900004F15400D4F8201472DF05460DB1284693
:10BCA0005CE794F8301094F8540073DF05460DB14A
:10BCB000284653E7606B18B194F83100616B8847F0
:10BCC00000204BE72DE9F041044600BF14B90E20D7
:10BCD000BDE8F08100BF1C2221461C48FBF7E4FBB5
:10BCE0001B481A490860206860B120687ADF054661
:10BCF0000DB12846ECE7164821680A6802604968D9
:10BD0000416005E012487BDF05460DB12846DFE7BC
:10BD1000002617E006EB86000E4901EB800700BF06
:10BD20004FF6FF70388000BF0B4800EB461078607C
:10BD30000A4A0021381DFFF7F3F905460DB103202B
:10BD4000C6E7761C002EE5D00020C1E7DC3E0020CF
:10BD5000F0390020C83E0020A83E002031430300F7
:10BD600010B50446204600F011F808B1204610BD79
:10BD70001420FCE770B504460D46034988682A463E
:10BD8000214601F033FD70BDF83E002010B5044699
:10BD9000142C01DB002010BD2146024802F0C4FC37
:10BDA000F9E70000FC3E00202DE9FC4105460C4669
:10BDB000174620880930B84202D90C20BDE8FC8122
:10BDC00068466DDF064600BF304600B1F6E700BFAB
:10BDD0000820218868542088401C20801B2021884E
:10BDE00068542088401C208020882844DDF80110F9
:10BDF0000160BDF8051081802088801D20809DF89D
:10BE00000000400818B900202188685402E0012091
:10BE1000218868542088401C20800020CEE7000044
:10BE200070B503F05DF9044600BF204600B170BD57
:10BE300000BF00BF084D28464FF0030C00DF00BFD5
:10BE4000044600BF204600B1F1E700BF03F0C2F98D
:10BE500004462046EBE70000743F0020014600BF87
:10BE600009B90E20704700BF014801600020F9E7C2
:10BE7000183A002010B54FF0FF3100203DDF044696
:10BE800000BF204600B110BD00BFB12100203CDF43
:10BE9000044600BF204600B1F5E700BF04484169F1
:10BEA00001208847022004F035FC0020EBE7000069
:10BEB0009C3F002010B50548006841690020884774
:10BEC000FFF7D8FF0446204610BD0000183A0020B6
:10BED00010B588B0044620216846FBF7FEFA03201F
:10BEE000ADF8000020788DF802009DF80D0020F0DC
:10BEF000200020308DF80D009DF80D0020F0080086
:10BF000008308DF80D0001208DF810008DF80C0020
:10BF10001720ADF8040001208DF813008DF81200F1
:10BF20008DF811006088A21D694600F015FD08B06B
:10BF300010BD000030B585B00546244B0FCB8DE811
:10BF40000F0000BF15B90E2005B030BD00BF4FF681
:10BF5000FF701F49888028684861002008760846DD
:10BF6000406908B91B4848611948FFF777FF044644
:10BF700000BF204600B1E7E700BF00BF01208DF8F9
:10BF800012004FF65960ADF8100000BF104A921C25
:10BF900004A90120A8DF044600BF204600B1D3E772
:10BFA00000BF0B49684662DF044600BF204600B16F
:10BFB000CAE700BF0648FFF78BFF044600BF2046D4
:10BFC00000B1C1E700BF0020BEE7000064480300E5
:10BFD0009C3F002027D2020070B504460D4600BFEA
:10BFE00004B970BD00BF2088102806D0112808D0E1
:10BFF00051280AD0532810D10BE0204605F078FED6
:10C000000CE0204605F07EFF08E0204606F0CCF864
:10C0100004E0204606F03EF800E000BF00BF00BF8D
:10C02000DFE7000070B504460426207B012802D01B
:10C03000022822D109E001F0F7F805460DB90126E2
:10C0400002E0112D00D1062619E0607B142801DCE6
:10C05000607B08B905260FE0627B04F10E011248EF
:10C06000FBF722FA607B1049091F8861084607F038
:10C0700069FB054605B9012601E0022600BF00BFA5
:10C08000012E0FD0207B314600F058F8054625B12F
:10C0900006480068416903208847044800684169F0
:10C0A0000220884770BD0000843F0020183A00201D
:10C0B00070B505460E4600BF1E48006820B11D48F9
:10C0C000406808B1012000E0002000B970BD00BF49
:10C0D000184800F10801426828469047044600BF0E
:10C0E000082C24D07CB90020134909684876012126
:10C0F000022000F023F80446CCB10F4800684169E3
:10C100000320884713E000200B4909684876062180
:10C11000022000F013F8044624B107480068416982
:10C12000032088470448006841690220884700BF0F
:10C13000CCE70000743F0020183A0020F0B587B02B
:10C1400004460D46032700200190029003900490BE
:10C150000320069020208DF814008DF815408DF8EE
:10C1600016500E48C088ADF8040002208DF8060075
:10C170000020ADF8080006A8039005A80490074920
:10C18000888801A9AEDF064626B9BDF81800032845
:10C1900000D00C26304607B0F0BD00009C3F0020C8
:10C1A00030B58BB0044634B1012C29D0022C32D0EA
:10C1B000032C49D13AE02B492B4A891AC90803229A
:10C1C00042EA014029A104F023F86846FEF7E4FDA5
:10C1D00001208DF8000069463048FFF792FC0021ED
:10C1E0002F48FFF7C7FD05461E491F4A891AC9088F
:10C1F000032242EA01402A462AA104F013F82EE065
:10C200001849194A891AC908032242EA01402BA198
:10C2100003F0FEFF23E01349134A891AC9080122DB
:10C2200042EA01402EA103F0F3FF18E00D490E4A47
:10C23000891AC908012242EA014038A103F0E8FF47
:10C2400000BF002000BF0AE00649074A891AC90852
:10C25000012242EA01403DA103F0DAFF00BF00BF26
:10C260000BB030BD48570300C056030044657669E3
:10C27000636520697320707265706172696E6720F2
:10C28000746F20656E74657220626F6F746C6F617D
:10C29000646572206D6F64652E000000E84C00201C
:10C2A000B9CE0200446973636F6E6E656374656432
:10C2B000202564206C696E6B732E000044657669DE
:10C2C00063652077696C6C20656E74657220626F9F
:10C2D0006F746C6F61646572206D6F64652E000011
:10C2E0005265717565737420746F20656E74657224
:10C2F00020626F6F746C6F61646572206D6F64652E
:10C30000206661696C6564206173796E6368726F21
:10C310006E656F75736C792E000000005265717543
:10C3200065737420746F2073656E6420612072657C
:10C3300073706F6E736520746F20636C69656E74C3
:10C34000206661696C65642E00000000556E6B6E9E
:10C350006F776E206576656E742066726F6D2062F1
:10C360006C655F6466755F627574746F6E6C65731F
:10C37000732E000070B505460E462888102802D09E
:10C3800011282CD115E01748006860B900F0CCFCEA
:10C39000044600BF34B11448006818B12046124961
:10C3A0000968884700BF0F480068401C0D490860B5
:10C3B00016E00C480068401E0A49086008460068FC
:10C3C00060B9FEF7BFFC044600BF34B10648006800
:10C3D00018B1204604490968884700BF00E000BF43
:10C3E00000BF70BDEC390020E839002070B504466C
:10C3F0000D462088102806D0112808D012280ED00B
:10C40000502810D107E0204605F000FC0CE0204643
:10C4100005F05EFD08E0204605F04EFF04E02046F2
:10C4200005F0DCFB00E000BF00BF70BD2DE9F0416E
:10C4300004460F46A6882088102806D0112819D057
:10C4400019283FD01A284AD118E006F0A1FD30463D
:10C4500006F022FC30B900BF22A2F0210420FAF736
:10C46000D9FE06E0E07B022803D131462C4802F0D9
:10C470006AF934E0304606F0AFFD30E0207A050975
:10C48000042D01DB012000E0002002463146244853
:10C490000C3001F033F9032D01DB012000E0002016
:10C4A000024631461E48083001F028F9022D01DB12
:10C4B000012000E00020024631461948001D01F02D
:10C4C0001DF90CE0207A48B9607AC0F3C0052A460D
:10C4D000314613480C3001F011F900BF00BF00BF16
:10C4E000BDE8F0812E2E5C2E2E5C2E2E5C2E2E5C56
:10C4F0002E2E5C2E2E5C2E2E5C636F6D706F6E6523
:10C500006E74735C626C655C636F6D6D6F6E5C62A4
:10C510006C655F636F6E6E5F73746174652E63002C
:10C52000043F00202DE9F04186B0044688461746B6
:10C530001D4600BF1CB90E2006B0BDE8F08100BF4B
:10C5400001AA29466069FFF735F8064600BF304664
:10C5500000B1F1E700BF4FF6FF70854201D00198AE
:10C5600008B90520E8E70198007808B90820E3E752
:10C570003888F42801DD0720DEE7002002900390D0
:10C5800004900590A088ADF80800CDF814800497B9
:10C5900001208DF80A0002A92846AEDFCCE7000092
:10C5A00070B592B004460E465D4B0FCB0DAD0FC576
:10C5B00000BF14B90E2012B070BD00BF00BF0EB98D
:10C5C0000E20F8E700BF3068A06121460DA862DFA9
:10C5D000054600BF284600B1EDE700BF20788DF882
:10C5E00046004FF6F070ADF84400A21C11A90120DE
:10C5F000A8DF054600BF284600B1DCE700BF2021C8
:10C6000005A8FAF76AFF00200190029003900490B9
:10C610004FF6F170ADF8140020788DF81600F42074
:10C62000ADF818000120ADF81A008DF820009DF833
:10C63000210020F0100010308DF821009DF821001D
:10C6400020F00200801C8DF8210001208DF82500CB
:10C650008DF826008DF82700324802901420ADF89E
:10C660000600ADF804009DF80D0020F00200801CCB
:10C670008DF80D0001208DF8100001A80B90608846
:10C68000221D05A900F068F905460DB1284692E77C
:10C69000202105A8FAF721FF4FF6F270ADF814003B
:10C6A00020788DF81600F420ADF818000120ADF8C0
:10C6B0001A008DF820009DF8210020F008000830B5
:10C6C0008DF821009DF8210020F00400001D8DF858
:10C6D00021009DF8210020F00200801C8DF821002F
:10C6E00001208DF825008DF826000F4802901420B7
:10C6F000ADF80600ADF804009DF80D0020F0020032
:10C70000801C8DF80D0001208DF8100001A80B9001
:10C71000608804F10C0205A900F01EF94BE7000047
:10C720004C480300F8390020063A002070B5044652
:10C730000D4605B104B970BD2E462088102804D0DE
:10C74000502807D057280FD109E02146304605F080
:10C7500095FA0AE02146304605F0DAFD05E021466B
:10C76000304605F0ADFC00E000BF00BF00BFE2E7CF
:10C7700070B50446204607F061FD0546C5F340004C
:10C7800070BD70B50446204607F058FD054605F01B
:10C79000010070BD30B503460020042B23D2012ACE
:10C7A00007D1012903D103F10E04E4B200E0002413
:10C7B000224679B1012902D0022911D104E003EB0C
:10C7C00043040A4D2A550DE003EB4304074D2C4466
:10C7D000627007E003EB4304044D2C44A27001E0B7
:10C7E000072000BF00E0072030BD0000783E002099
:10C7F0002DE9FC4704460D461646E71C4FF001089C
:10C800000020019001A8FEF7E7FD3048406828604D
:10C810002E4840682D498968411A2D480068401CFF
:10C82000A0EB010915E001212A4801F0B0FF01F059
:10C83000C5FC82465146274801F0A9FF23484068BD
:10C8400022498968411A22480068401CA0EB01096E
:10C8500000BF4F45E7D8B8F1000F30D0002100915C
:10C8600076B1009921F00301491C0091009921F053
:10C870000401091D0091009964F3891100910DE0F4
:10C88000009921F00301891C0091009921F0040115
:10C89000091D0091009964F39F5100910B4949686B
:10C8A0000B4A12681140094A0C3202EB81000099D0
:10C8B00001600649496839440C3A516000BF9DF84F
:10C8C0000400FEF78FFD4046BDE8FC87A044002031
:10C8D000E83A0020BC48002070B504460D460A2DF9
:10C8E00003D10D212046FFF7F7FFA168481CA06087
:10C8F00020684554D4E90110884202D3204602F052
:10C900009AFD70BD0448806803494968884201D196
:10C91000012070470020FCE7A044002070B50446C9
:10C920000D46032C06D1A9200349086000BF002052
:10C9300003F0F0FE70BD00002005004001460248F3
:10C9400050F8210070470000CC3F0020014601480C
:10C9500040567047FC3F002070B590B006460C462C
:10C960001546A07818B901208DF80E0002E0A078D5
:10C970008DF80E002088ADF80C0000200290607C3D
:10C9800002A906F00FFFA07C0DF1090106F00AFFD5
:10C99000E07B08B1012000E000209DF80A1060F360
:10C9A000C3018DF80A10207C08B1012000E00020AE
:10C9B0009DF80A1060F304118DF80A10207B08B16D
:10C9C000012000E000209DF80A1060F300018DF8BE
:10C9D0000A10207D08B1022000E001209DF80A1015
:10C9E00060F342018DF80A101C2109A8FAF775FDC1
:10C9F000607BC0F3001018B9607BC0F34010F8B141
:10CA000000200090E07C0DF1010106F0CBFE00BF9C
:10CA10009DF8000020F00F00401C8DF800009DF8EC
:10CA2000000020F0F00010308DF8000000BF9DF8ED
:10CA3000020020F00600801C8DF80200CDF838D0EE
:10CA4000607B8DF82400A07B8DF82500142104A8BC
:10CA5000FAF743FD03A8049002A80590A088ADF85A
:10CA60001C00A06820B1E088ADF81800A06808900C
:10CA7000A069002849D000200190A0690088ADF885
:10CA80002C00A0694088ADF82E00A06940680A908B
:10CA900001A80D90A169087B01A906F083FEA16998
:10CAA000487B0DF1050106F07DFEA069807A08B192
:10CAB000012000E000209DF8061060F3C3018DF80E
:10CAC0000610A069C07A08B1012000E000209DF89E
:10CAD000061060F304118DF80610A069007A08B101
