:020000040002F8
:1070000020750020DD730200E5730200E7730200C3
:10701000E9730200EB730200ED7302000000000050
:10702000000000000000000000000000EF730200FC
:10703000F173020000000000F3730200F573020018
:10704000057F0200F77302009D820200F7730200C1
:10705000F7730200F7730200397E0200F773020033
:10706000258202003D82020055820200F773020071
:10707000F7730200F7730200F7730200F773020060
:10708000F7730200597F0200F7730200F7730200E2
:10709000F7730200F7730200FD7F0200F77302002E
:1070A000F7730200F77302006D820200858202000E
:1070B000F7730200F77302000000000000000000F8
:1070C000F7730200F7730200F7730200F773020010
:1070D000F7730200F7730200F7730200F773020000
:1070E000F773020000000000000000000000000034
:1070F00000000000F773020000000000F7730200B8
:10710000000000000000000000000000000000007F
:10711000000000000000000000000000000000006F
:10712000000000000000000000000000000000005F
:10713000000000000000000000000000000000004F
:10714000000000000000000000000000000000003F
:10715000000000000000000000000000000000002F
:10716000000000000000000000000000000000001F
:10717000000000000000000000000000000000000F
:1071800000000000000000000000000000000000FF
:1071900000000000000000000000000000000000EF
:1071A00000000000000000000000000000000000DF
:1071B00000000000000000000000000000000000CF
:1071C00000000000000000000000000000000000BF
:1071D00000000000000000000000000000000000AF
:1071E000000000000000000000000000000000009F
:1071F000000000000000000000000000000000008F
:10720000DFF80CD000F0D6F900480047D9C20200E0
:107210002075002000B583B002900091019244F2E5
:10722000010071466A4602F029F903B000BD000072
:1072300030B450E8012F93B2C48923448489A34217
:1072400028BF1B1B0489A34202BFBFF32F8F00205E
:1072500007E0C3EA020340E80134002CE9D14FF013
:1072600001000A6030BC704750E8012FC2EA0242B8
:1072700040E801210029F7D1704730B450E8022FCF
:107280001FFAA2F3C488A34202BFBFF32F8F0020CE
:107290000DE0C48923448489A34228BF1B1BC2EA92
:1072A000034340E80234002CE8D14FF001000A60AB
:1072B00030BC704750E8022FC2EA224240E8022167
:1072C0000029F7D17047034653E8022FD988B2EB63
:1072D000324F4FF0000017BF92B241EA014142EA3B
:1072E000014104E05A68B2EB324F08BF012043E885
:1072F0000212002AE8D1704730B4044654E8000F67
:107300000D4644E80053002BF8D1156030BC70479F
:1073100030B4044654E8000F40EA010544E8005345
:10732000002BF7D1156030BC704730B4044654E8E8
:10733000000F00EA010544E80053002BF7D1156067
:1073400030BC704730B4044654E8000F80EA0105B1
:1073500044E80053002BF7D1156030BC704730B4BF
:10736000044654E8000F00EB010544E80053002BED
:10737000F7D1156030BC704730B4044654E8000FB4
:10738000A0EB010544E80053002BF7D1156030BC99
:10739000704770B404464FF0000054E8006F0D6869
:1073A000AE4207BF44E80023012044E800630E60BA
:1073B000002B1CBF0020F0E770BC704730B40446BF
:1073C00054E8000F88422CBF451A054644E8005394
:1073D000002BF5D1156030BC70470000064880478F
:1073E00006480047FEE7FEE7FEE7FEE7FEE7FEE7AA
:1073F000FEE7FEE7FEE7FEE74980020001720200B9
:10740000202A04DB203A21FA02F00021704721FAF9
:1074100002F3D040C2F12002914008431946704760
:10742000004870478825030040EA01039B0703D00A
:1074300009E008C9121F08C0042AFAD203E011F8B3
:10744000013B00F8013B521EF9D27047D2B201E075
:1074500000F8012B491EFBD270470022F6E710B559
:1074600013460A4604461946FFF7F0FF204610BDB2
:10747000421E12F8013F002BFBD111F8013B02F82C
:10748000013B002BF9D17047421C10F8011B002969
:10749000FBD1801A704710B5002200E0521C835CBB
:1074A0008C5CA34201D1002BF8D1D8B2E1B2401AD2
:1074B00010BD30B504460020034600E05B1C93423B
:1074C00003D2E05CCD5C401BF8D030BD034611F820
:1074D000012B00F8012B002AF9D11846704730B56E
:1074E00005460020034600E05B1C934205D2EC5C9D
:1074F000C85C201A01D1002CF6D130BD70B506460B
:1075000001F0FCFC046805460A220021304600F028
:1075100018F82C6070BD30B50B46014600202022C3
:10752000012409E021FA02F59D4205D303FA02F590
:10753000491B04FA02F52844151EA2F10102F1DCF0
:1075400030BD2DE9F04791460F468046044600269F
:1075500014F8015B2DB1FFF763FF0068405DC007C1
:10756000F6D12B2D02D02D2D18D0641E4A46394657
:10757000204600F031F827B13968A14201D1C7F89F
:10758000008071054FF002040BD54042002803DD56
:1075900001F0B4FC0460A007BDE8F08746F4806603
:1075A000E4E70028F8DA01F0A9FC04606FF000407D
:1075B000F2E70000064C074D06E0E06840F00103EA
:1075C00094E8070098471034AC42F6D3FFF71CFE4E
:1075D000D42D0300F42D03002DE9F05F82460078DE
:1075E000002715468B460AF10104B946302801D020
:1075F0009DB113E014F8010B0127782803D0582817
:1076000001D045B10AE00DB1102D07D1002710259A
:1076100014F8010B02E0082500E00A250026B04618
:107620000EE005FB080005FB06F1012701EB104603
:107630001FFA80F8B6F5803F00D3B94614F8010B65
:10764000294600F018F80028EBDABBF1000F05D04E
:107650000FB1641E00E05446CBF80040B9F1000FB2
:1076600006D001F04BFC02210160C81EBDE8F09F6E
:1076700048EA0640FAE73A2800D2303820F02002E3
:10768000412A01D3A2F13700884201D34FF0FF30E5
:10769000704770B58C1810F8015B15F0070301D125
:1076A00010F8013B2A1106D110F8012B03E010F865
:1076B000016B01F8016B5B1EF9D12B0705D4002388
:1076C000521E0DD401F8013BFAE710F8013BCB1A2A
:1076D000921C03E013F8015B01F8015B521EF9D51F
:1076E000A142D8D3002070BD024611B1012914D1A6
:1076F00009E0002004E00A4B1B5C1354431CD8B281
:107700001428F8DB0AE0002004E0054B1B5C13544E
:10771000431CD8B21428F8DB00E000BF00BF70475C
:107720002054002010B512210448FFF796FE1221C4
:1077300002481230FFF791FE10BD000020540020D7
:1077400010B5024611B1012917D109E0002004E06B
:10775000135C0B4C2354431CD8B21228F8D30DE011
:10776000002007E002F112031C5C054B12331C548D
:10777000431CD8B21228F5D300E000BF00BF10BDF3
:107780002054002030B587B016A207CA04AB07C347
:10779000002001900290039000241548FFF774FE2A
:1077A000054629461248FFF758FE04A91048FFF77E
:1077B0008DFE1048006B0A21B0FBF1F084B2224626
:1077C0000DA101A801F086FB01A90948FFF750FEB1
:1077D0000748FFF759FE06493E220A54084607B0FB
:1077E00030BD00003C6164765F64656C61793D008A
:1077F0009C3B0020C8540020256400001FB512A245
:1078000007CA01AB07C3002000901248FFF73CFEF7
:10781000044621460F48FFF720FE01A90D48FFF757
:1078200055FE0D480DA14269684601F053FB6946BB
:107830000848FFF71DFE0748FFF726FE05493E22D0
:107840000A54084604B010BD3C6164765F696E74EA
:107850003D0000009C3B00204454002025640000B3
:107860001CB50EA103C9CDE900010E48FFF70CFEBF
:10787000044621460B48FFF7F0FD69460948FFF72B
:1078800025FE09490748FFF7F3FD0648FFF7FCFD11
:1078900004493E220A5408461CBD00003C6E616D3E
:1078A000653D00009C3B00204454002010B5044678
:1078B00008492046FFF70AFE06484069606105480E
:1078C0008069A0610348007F20770248407F60778D
:1078D000012010BD4454002010B588B013A30FCB75
:1078E00004AC0FC400200190029003901348FFF7EE
:1078F000CBFD044621461148FFF7AFFD04A90F4810
:10790000FFF7E4FD0E48027F0EA101A801F0E2FAA4
:1079100001A90A48FFF7ACFD0848FFF7B5FD074984
:107920003E220A54084608B010BD00003C6164764F
:107930005F74696D656F75743D0000009C3B0020AD
:10794000445400202564000010B588B013A30FCB69
:1079500004AC0FC400200190029003901348FFF77D
:1079600093FD044621461148FFF777FD04A90F480F
:10797000FFF7ACFD0E4890F91D200EA101A801F003
:10798000A9FA01A90948FFF773FD0848FFF77CFD34
:1079900006493E220A54084608B010BD3C73745F85
:1079A00074785F706F7765723D0000009C3B00202B
:1079B000445400202564000010B507A10B48FFF7D0
:1079C00085FD4020094948616420886100200877CE
:1079D0000420487710BD00004A5344383A31463AF3
:1079E00031433A39433A41433A313100445400205B
:1079F0002DE9FC41054600200090019000BF0F27B3
:107A000080462846FFF740FDC01B00F0FF08002419
:107A100005E03819285C0DF80400601CC4B2444528
:107A2000F7DB6846FFF76AFD86B206EB860040008A
:107A3000074908630A6B0749074BC91AC90803239A
:107A400043EA014005A106F027FBBDE8FC810000E8
:107A5000C85400208C2E0300042E03006164765F5E
:107A600064656C6179206973202564002DE9FC410F
:107A700005460020009001900D2600272846FFF7BC
:107A800003FD801BC7B2002405E03019285C0DF807
:107A90000400601CC4B2BC42F7DB6846FFF72EFD51
:107AA000074948614A690749074BC91AC9080323AE
:107AB00043EA014005A106F0EFFABDE8FC810000B1
:107AC000445400208C2E0300042E03006164765F72
:107AD00069747620697320256400000038B500BF02
:107AE0009DF8000020F00F00401C00909DF8000061
:107AF00020F0F0001030009000BF0A48FFF7C4FCEF
:107B000085B22A46074968467CDF044600BF254601
:107B100035B100BF04A282212846FFF77BFB00BFDE
:107B200000BF38BD445400202E2E5C2E2E5C2E2E1D
:107B30005C2E2E5C2E2E5C2E2E5C2E2E5C757365BC
:107B4000725C757365725F6164762E63000000007D
:107B50002DE9FC41054600200090019011260027E8
:107B60002846FFF791FC801BC7B2002405E03019BE
:107B7000285C0DF80400601CC4B2BC42F7DB684608
:107B8000FFF7BCFC074908770A7F0749074BC91A6A
:107B9000C908032343EA014005A106F07DFABDE8C8
:107BA000FC810000445400208C2E0300042E0300AE
:107BB0006164765F74696D656F75742069732025E3
:107BC000640000002DE9FC41054600200090019072
:107BD0000D2600272846FFF757FC801B401EC7B222
:107BE000A85D2B2811D100240CE03019401C285C22
:107BF0000DF804006846FFF781FC40B21A49487747
:107C0000601CC4B2BC42F0DB1FE0A85D2D2812D17D
:107C100000240DE03019401C285C0DF80400684673
:107C2000FFF76CFC404240B20F494877601CC4B279
:107C3000BC42EFDB09E00D490D4A891AC90803224D
:107C400042EA01400BA106F01DFA074991F91D20F7
:107C50000649074BC91AC908032343EA014007A193
:107C600006F01AFABDE8FC81445400208C2E030073
:107C7000042E03006572726F7200000074785F70EA
:107C80006F776572206973202564000001480078D1
:107C900070470000BA3B002001490870704700009F
:107CA000BA3B002070B5054600262846FFF7ECFBDE
:107CB0000B38C6B214210D48FFF7CFFB002406E0B5
:107CC00004F10A00285C09490855601CC4B2B4429A
:107CD000F6DB0749074A891AC908032242EA01402C
:107CE000024A05A106F0D8F970BD000044540020F6
:107CF0008C2E0300042E03006E616D6520697320D5
:107D00002573000010B5FFF7C1FFB0B1002412E0E9
:107D10000A48005D01280CD100210848015501F0F6
:107D20008DFB00F01BFF01F06BFA01F00DFB01F081
:107D300065FB601CC4B2082CEADB10BDD0540020E7
:107D400010B514210148FFF788FB10BD0C5400202A
:107D50002DE9F04706460025B46947E014F8058090
:107D6000681C14F80090B9F1030F06D0B9F1090F9F
:107D700004D0B9F1FF0F34D101E032E031E0607995
:107D800013282DD1A079EE282AD1601D00F042F8E9
:107D900019491A4A891AC908052242EA014018A15C
:107DA00006F070F900270DE01749CA5D1249134B20
:107DB000C91AC908052343EA014014A106F06CF969
:107DC000781CC7B2A8F10100B842EDDC0A490B4AA1
:107DD000891AC908052242EA01400DA106F052F9AC
:107DE00000BF00BF08F10100054400BFB08BA842EE
:107DF000B4D80520BDE8F0878C2E0300042E0300C4
:107E0000646174613A3078000C54002025780000D9
:107E10000A00000010B50446142221460148FFF76D
:107E200003FB10BD0C54002013210248008876DFAC
:107E300070470000343A00202DE9FC47002600205E
:107E4000009001904FF480770125002410E038461F
:107E500005F094FE40B100BF25480068284018B1E5
:107E6000384605F07DFE2E436D00381D87B2641C38
:107E7000082CECD34FF4BE7005F080FE50B14FF4E7
:107E8000BE7005F06DFE46F000466A4602210020F5
:107E900005F0FCFDF0B210B3012500241DE005EA59
:107EA0000600C0B100BF134850F82400C0F30520FD
:107EB000814600BF0F4850F82400C0F301408246BD
:107EC000204602F033FE8046B8F1000F02D0514642
:107ED0004846C04700BF6D00641C082CDFD306F085
:107EE000004010B1684608F031F9BDE8FC87000099
:107EF00004630040106500400148007870470000AE
:107F0000443A002010B54FF4807005F0CFF880B1EE
:107F10004FF4807005F0D3F8012005F0D9F80D4832
:107F2000407930B901200B494871084601680020AA
:107F300088474FF4827005F0B9F850B14FF4827061
:107F400005F0BDF8022005F0C3F8024801680120E1
:107F5000884710BD6C3A002010B5034A1068034AE8
:107F60001168884710BD0000A83A0020A43A0020FC
:107F700010B500F009FF10BD2DE9F047074688460F
:107F80001646C24607EB47011B4800EBC109D9F86A
:107F9000140020B1012811D0022826D11EE0484645
:107FA00000F02AFF0546B54201D2002405E0344620
:107FB00032465146484600F066FF18E0484600F059
:107FC0001BFF0546B54201D2284600E03046044674
:107FD00022465146484600F056FF08E032465146D8
:107FE000484600F017FF044601E0002400BF00BF30
:107FF0002046BDE8F08700009C51002010B506F037
:1080000017FE10BD0148007870470000BB3B002000
:108010000149087070470000BB3B002010B505F017
:1080200021F80020FFF7F4FF10BD0000014908709F
:1080300070470000443A0020014802490860704738
:108040000090D003E03D002010B504F0C9FA40B123
:1080500000206A4908604FF08041C1F8100168496A
:10806000086004F0E7FA002855D0664800686649C1
:1080700008606448001D0068091D086061480830F8
:108080000068091D08605F480C300068091D086021
:108090005C4810300068091D08605A4814300068B8
:1080A000091D08605748183000685749203108609A
:1080B00054481C300068091D086052482030006890
:1080C000091D08604F4824300068091D08604D48AC
:1080D00028300068091D08604A482C300068091DD6
:1080E00008604848303000684749403108604548DA
:1080F00034300068091D0860424838300068091DA6
:10810000086040483C300068091D08603D48403028
:108110000068091D086004F039FA40B13B48006866
:1081200000F0010018B16FF00100384908603848CC
:10813000006840F470003649086000BF00BF00BF0F
:10814000BFF34F8F00BF00BF00BF00BF00BF00BF25
:10815000BFF36F8F00BF00BF00BF2E48006800F064
:10816000004030B92B48001D006800F00040002896
:1081700040D001202849086000BF28480068002836
:10818000FBD012202349086000BF24480068002863
:10819000FBD012211F48001D016000BF1F4800686E
:1081A0000028FBD000201C49086000BF1B48006865
:1081B0000028FBD000BF00BF00BF00BF00BFBFF35F
:1081C0004F8F00BF00BF00BF11487C38006800F42B
:1081D000E06013490843001D0D497C39086000BF69
:1081E00000BF00BFBFF34F8F00BF00BF00BF00BF85
:1081F00000BFFDE7FFF720FF10BD00000C010040AD
:10820000380500400404001020C500400004004070
:1082100088ED00E00012001004E5014000E4014098
:108220000000FA0510B504220249034803F013FFC9
:1082300010BD0000304900200080004010B504222D
:108240000249034803F007FF10BD00003C4900202D
:108250000090004010B504220249034803F0FBFEE1
:1082600010BD00004849002000A0004010B50622C3
:108270000249034803F0EFFE10BD000054490020FE
:1082800000A0014010B506220249034803F0E3FEB6
:1082900010BD00006049002000B0014010B5024947
:1082A0000868804710BD0000743A002010B50446ED
:1082B000207830B101282DD0022818D0042847D1C9
:1082C0003BE0012024490870244800781E280DDA7C
:1082D0002349244A1278881801F09EFA2148007830
:1082E000401C2049087000201C49087031E01E49DC
:1082F0001E4A891AC908032242EA01401CA105F05E
:10830000C1FE00BF25A24FF4BE716068FEF782FF78
:1083100000BF1EE01449154A891AC908032242EA1F
:10832000014022A105F0AEFE00BF1CA24FF4C171B6
:108330006068FEF76FFF00BF0BE00B490B4A891A1C
:10834000C908032242EA014020A105F09BFE00E09B
:1083500000BF00BF10BD0000703B0020783B002034
:1083600096540020E83B00208C2E0300042E0300CE
:10837000404075617274204150505F554152545FC6
:10838000434F4D4D554E49434154494F4E5F455221
:10839000524F52206572726F720000002E2E5C2EBA
:1083A0002E5C2E2E5C6D61696E2E63007561727499
:1083B000204150505F554152545F4649464F5F45FA
:1083C00052524F52206572726F7200007561727462
:1083D000204150505F554152545F44415441206503
:1083E00072726F720000000030B58BB01822124913
:1083F00005A8FFF719F800BF104801904FF48070EE
:1084000002900F4803904FF48070049007230D4AA8
:1084100001A905A801F04CFA044600BF00BF25469B
:108420003DB100BF08A240F253212846FEF7F2FEFC
:1084300000BF00BF0BB030BDC020030024450020AA
:1084400024460020AD8202002E2E5C2E2E5C2E2EA5
:108450005C6D61696E2E630070B505460E460024A2
:1084600004E0285D01F092FA601CC4B2B442F8DB6B
:1084700070BD00000146002006E00023044A02EB24
:1084800081021354421CD0B20428F6DB704700006E
:10849000FC54002070B505460C46FC492046FEF70A
:1084A000FAFF50B9FFF7C0FCF948FEF7EDFF86B2BE
:1084B0003146F748FFF7D0FFDEE1F6492046FEF7E8
:1084C000EAFFA0B9FFF718FD40B1F348FEF7DCFF63
:1084D00086B23146F048FFF7BFFFCDE1EF48FEF727
:1084E000D3FF86B23146ED48FFF7B6FFC4E1EC4951
:1084F0002046FEF7D0FF50B9FFF790FDE448FEF7A5
:10850000C3FF86B23146E248FFF7A6FFB4E1E54972
:108510002046FEF7C0FF50B908F02AFCDC48FEF701
:10852000B3FF86B23146DA48FFF796FFA4E1DE4991
:108530002046FEF7B0FFA0B9FFF764FD40B1DB486D
:10854000FEF7A2FF86B23146D848FFF785FF93E1D8
:10855000D748FEF799FF86B23146D548FFF77CFF32
:108560008AE10A22D3492046FEF7B9FF98B9C848E4
:10857000FEF78AFF86B23146C548FFF76DFF00F06F
:108580005DFF2046FFF78EFBFFF7A8FA00F0DCFE48
:1085900000F034FF70E1C8492046FEF77CFF58B96F
:1085A000FFF75EF905462846FEF76EFF86B23146B4
:1085B0002846FFF751FF5FE10D22C0492046FEF734
:1085C0008EFF88B900F03AFF2046FFF74FFA00F01F
:1085D000BBFE00F013FFAE48FEF756FF86B23146F1
:1085E000AB48FFF739FF47E1B5492046FEF753FF97
:1085F00058B9FFF703F905462846FEF745FF86B24E
:1086000031462846FFF728FF36E10F22AD492046C4
:10861000FEF765FF58B92046FFF7EAF99C48FEF7D8
:1086200033FF86B231469A48FFF716FF24E1A64988
:108630002046FEF730FF58B9FFF7A4F80546284654
:10864000FEF722FF86B231462846FFF705FF13E109
:1086500011229E492046FEF742FF88B900F0EEFE47
:108660002046FFF775FA00F06FFE00F0C7FE88485D
:10867000FEF70AFF86B231468548FFF7EDFEFBE0C4
:1086800093492046FEF707FF58B9FFF725F905463D
:108690002846FEF7F9FE86B231462846FFF7DCFE93
:1086A000EAE08C492046FEF7F6FE68B97848FEF706
:1086B000EBFE86B231467648FFF7CEFE0A2004F084
:1086C00011FD00F0BBFED7E083492046FEF7E3FE34
:1086D00068B96F48FEF7D8FE86B231466C48FFF79E
:1086E000BBFE0A2004F0FEFC00F088FEC4E07B49DB
:1086F0002046FEF7D0FEA0B9FFF7C8FA40B178488F
:10870000FEF7C2FE86B231467548FFF7A5FEB3E01C
:108710007448FEF7B9FE86B231467248FFF79CFEF8
:10872000AAE071492046FEF7B6FE40B95848FEF768
:10873000ABFE86B231465648FFF78EFE9CE06B4991
:108740002046FEF7A8FE40B95148FEF79DFE86B2CE
:1087500031464F48FFF780FE8EE065492046FEF720
:108760009AFE40B94A48FEF78FFE86B23146484825
:10877000FFF772FE80E05F492046FEF78CFE40B9AD
:108780004348FEF781FE86B231464148FFF764FE5A
:1087900072E00D2258492046FEF7A1FE88B900F08C
:1087A0004DFE2046FFF70EFA00F0CEFD00F026FE4B
:1087B0005248FEF769FE86B231465048FFF74CFE3C
:1087C0005AE04F492046FEF766FE58B9FFF7BCF85D
:1087D00005462846FEF758FE86B231462846FFF782
:1087E0003BFE49E047492046FEF755FE48BB284876
:1087F000FEF74AFE86B231462548FFF72DFE4FF4BC
:10880000FA7004F06FFC00BF00BF00BF00BF00BFE4
:10881000BFF34F8F00BF00BF00BF3B48006800F4AC
:10882000E0603A490843001D3749086000BF00BFB7
:1088300000BFBFF34F8F00BF00BF00BF00BF00BF2E
:10884000FDE733492046FEF726FE20B9042131A07A
:10885000FFF702FE10E00C2230492046FEF73FFEF3
:1088600050B90020FFF706FE0948FEF70DFE86B25C
:1088700031460748FFF7F0FD1F212046FEF7EDFDCA
:108880001F212846FEF7E9FD70BD0000E93B0020EE
:10889000743D0020F63B0020793D0020853D0020FE
:1088A000063C0020123C00201F3C0020913D00208F
:1088B000A13D00202C3C0020383C0020443C0020FE
:1088C000533C0020623C0020733C0020843C00208C
:1088D000973C0020AA3C0020B53C0020C13C002071
:1088E000C23D0020D13D0020CD3C0020E03C0020D6
:1088F000F33C00200C3D0020253D0020B13D002030
:10890000343D0020443D00200CED00E00000FA055D
:108910005A3D002056312E3000000000663D0020F8
:108920002DE9F04781460D4600240027A046002689
:10893000A878801C00F0FF0AA878C11700EB91719D
:1089400089102B4A82F85410114691F85420294975
:10895000294BC91AC908032343EA014027A105F09E
:108960009BFB04E0012022498855701CC6B22048B8
:10897000805D08B9082EF5DB2DE01D48343010F875
:10898000240030BB1A48343000EB8400407800BB30
:108990001748343000EB84008078D0B91448343064
:1089A00000EB8400C078A0B900270DE008F10300B7
:1089B000295C0F48343000EB8400C15508F10100F8
:1089C00000F0FF08781CC7B2042FEFDBD04500D1C0
:1089D00003E0601CC4B2082CCFDB00BF1421284682
:1089E000FEF73BFD14214846FEF737FDBDE8F08752
:1089F000C85400208C2E0300042E03005468652008
:108A0000756172745F646174612E6C656E67746801
:108A10002069732025640000F8B500262B480678ED
:108A20002B480078002850D12A48007801284CDDD6
:108A3000132E09D03C2E23D124492748FFF72AFDC5
:108A40000020244908703FE02449254A891AC908B2
:108A5000032242EA014023A105F014FB1B491E48F2
:108A6000FFF75EFF00F07AF800F0E8FC00F0C8FBCA
:108A700000F06AFC00F0C2FC00201649087023E0F8
:108A800000BF144800780090194803886A460F49CF
:108A9000184801F05DFE0446082C0FD0132C0DD0B1
:108AA000052C0BD000BF25463DB100BF12A24FF4EC
:108AB0002A712846FEF7AEFB00BF00BF132CE0D0A2
:108AC00000200449087000BF00BFF8BD9654002084
:108AD000703B0020E83B0020645400208C2E0300F3
:108AE000042E0300484541445F44415441000000C6
:108AF000343A0020183A00202E2E5C2E2E5C2E2EAA
:108B00005C6D61696E2E630010B500201249086328
:108B100008460021016041608160C1602021103061
:108B2000FEF79BFC20210C483430FEF796FC002019
:108B3000094981F8550081F854000220FFF79AFC9A
:108B4000002405E0EE2104483C300155601CC4B20D
:108B5000042CF7DB10BD0000C854002070B58AB0AB
:108B600000240025002600BF0FE0002509E0104882
:108B700000EB8400405D01A98855701CC6B2681CDA
:108B8000C5B2042DF3DB601CC4B2042CEDDB094933
:108B9000094A891AC908032242EA014007A105F0DF
:108BA00071FA002101A8FEF7CBFD0AB070BD0000EC
:108BB000FC5400208C2E0300042E030055617274B7
:108BC0005F446174615F5472616E73666572000028
:108BD00070B504460D46B4F5A07F09D0B4F5A27F68
:108BE00011D0B4F5A47F14D0B4F5A67F25D111E03F
:108BF0001349144A891AC908032242EA014012A102
:108C000005F040FA1AE013480068401C114908605A
:108C100014E013E01048007801280DD10F480078C7
:108C2000401C0E490870084600781E2804DD00200C
:108C3000094908700949087000E000BF00BF70BD15
:108C40008C2E0300042E030074696D657220494E5A
:108C500054300000743B0020703B0020783B002023
:108C600030B58BB000243B4B0FCB07AD0FC5394956
:108C7000103103C9CDE90101374A01A9374806F08F
:108C8000BFFA044600BF254635B100BF34A2B42167
:108C90002846FEF7BFFA00BF00BF2F4A01A92F48A0
:108CA000083006F0ADFA044600BF254635B100BFD6
:108CB0002BA2B6212846FEF7ADFA00BF00BF264A18
:108CC00001A92648103006F09BFA044600BF25464D
:108CD00035B100BF22A2B8212846FEF79BFA00BF9B
:108CE00000BF1E48089906F009FB04901B48083095
:108CF000099906F003FB0590184810300A9906F010
:108D0000FDFA069001200090022301461348049AC0
:108D100006F054FA01200090042302210F48083085
:108D2000059A06F04BFA01200090082303210B4816
:108D30001030069A06F042FA084806F02DFA074865
:108D4000083006F029FA0548103006F025FA0BB075
:108D500030BD0000E0240300D18B0200843B0020E2
:108D60002E2E5C2E2E5C2E2E5C2E2E5C2E2E5C2E3D
:108D70002E5C2E2E5C757365725C757365725F7404
:108D8000696D65722E63000010B5124C02202061DF
:108D9000606111A0A0611349E1614FF4007121628B
:108DA0000021A1626162E1620BA0A0640E49E1644E
:108DB000102121650021A1656165E1650BA1E01D20
:108DC000FEF784FB0AA12046FEF780FB2020A0715D
:108DD00010BD0000845100205465726D696E616C95
:108DE00000000000FC510020FC53002052545400AD
:108DF000534547474552000010B501460A69CB6804
:108E00009A4204D88C68641EE41AA01801E0D41AAF
:108E1000601E10BD2DE9F0470446894617464FF005
:108E2000000AE56800BFD4F81080A84503D9A8EB74
:108E30000500461E04E0A5EB0800401CA1680E1AC0
:108E4000A068401BB04201D9304601E0A068401B39
:108E50000646BE4201D2304600E03846064661680A
:108E6000481932464946FEF7DFFAB244B144BF1B07
:108E70003544A068A84200D10025E560002FD2D17A
:108E80005046BDE8F0872DE9F0470446894615466F
:108E9000E668A068871BAF4208D9616888192A462E
:108EA0004946FEF7C1FA7019E06010E0B846616803
:108EB000881942464946FEF7B7FAA5EB070809EBC1
:108EC000070142466068FEF7AFFAC4F80C80BDE8BF
:108ED000F08700000FB4084B10B504A902AA03984C
:108EE00000F042F8044602A9002000F0E7F820460E
:108EF00010BC5DF814FB0000BD90020000487047F4
:108F0000E43D002002E008C8121F08C1002AFAD17F
:108F100070477047002001E001C1121F002AFBD1F9
:108F2000704700000146202908DA012088400A4ADB
:108F3000104008B1012070470020FCE7402909DA01
:108F4000A1F12000012202FA00F008B10120F2E7AD
:108F50000020F0E70120EEE7FC06FFBD00BFEFF3C5
:108F60001081084672B670472DE9FF4F89B09B46C5
:108F70000446002506E025280BD05A460B99904759
:108F8000641C6D1C20780028F5D10DB02846BDE882
:108F9000F08F0027B8460122474900E0074314F844
:108FA000013F203B02FA03F00842F7D120782E2837
:108FB00019D114F8010F47F004072A280ED06FF0DA
:108FC0002F022078A0F1300109290CD808EB880184
:108FD00002EB410100EB0108641CF2E70A98641CF3
:108FE00050F8048B0A9020780028CED0642808D04E
:108FF000692806D075281ED05A460B9990476D1CDB
:1090000058E00A994FF00A0901C90A91002802DACA
:1090100040422D2102E0390504D52B218DF8201086
:10902000012103E0F90704D02021F7E78A4608AEC2
:109030000DE00021FAE70A994FF00A0901C90A91E7
:10904000F7E74946FEF767FA303106F8011D0028B8
:10905000F7D1ADEB060000F12009780701D44FF0FD
:109060000108C84502DDA8EB090000E000208046A9
:10907000002706E008A85A46C05D0B9990476D1C72
:109080007F1C5745F6DB04E030205A460B99904789
:109090006D1CB8F10001A8F10108F5DC05E016F837
:1090A000010B5A460B9990476D1CB9F10001A9F1CB
:1090B0000109F4DC641C65E7092801000A68531CF7
:1090C0000B6010707047014601F0030008B90120E1
:1090D00070470020FCE7024650680068401E0840C8
:1090E00008B9012070470020FCE70246002104E097
:1090F000505C08B101207047491C0629F8D30020B4
:10910000F9E710B50346D868884206D88818401E8B
:109110001C69A04201D8012010BD0020FCE700001E
:1091200010B504466CB10848C068A04209D806488A
:109130000069A04205D3204603F010F808B10120D1
:1091400010BD0020FCE70000E83D002070B504469B
:109150000D4604F22740FFF7C8FF0646012D06D052
:10916000022D0DD0032D11D0042D19D113E0A079BB
:1091700028B194F8240010B90EB1012070BD00BFD1
:10918000E07910B10EB10220F8E700BF207A08B1F3
:109190000320F3E700BF607A08B10420EEE700BFC8
:1091A0000020EBE70146481C052290FBF2F302FB8E
:1091B0001300C0B270472DE9F04704460D462F4614
:1091C00095F82080B4F81C9000260BE007EB4612BF
:1091D0004946A06900F0EAFD10B10120BDE8F08722
:1091E000701CC6B24645F1DB0020F7E7014691F856
:1091F0002420012A01D1EE2000E01F20704700004A
:1092000030B5ABB0002104A8FEF76EFA41F2EF30A2
:10921000ADF8040004A903911220ADF808003C2128
:109220001CA8FEF71AF93C210DA8FEF716F900203C
:109230008DF8720001A8259006208DF8730001209A
:10924000ADF844000C49129102208DF834000DAAAB
:109250001CA90A4800F07BFE044600BF25463DB12C
:1092600000BF07A24FF41F712846FDF7D3FF00BFD0
:1092700000BF2BB030BD0000D83900209C3F00203B
:109280002E2E5C2E2E5C2E2E5C6D61696E2E630080
:109290002DE9F05F06460C4604F1220A94F82C50A2
:1092A0002A2010F804904FF00008B6F81CB00027F0
:1092B00010E00AEB87025946B06900F0E0FD28B1E2
:1092C00008F1010000F0FF0815B905E005B103E061
:1092D000781CC7B24F45ECDB00BF0DB1C84503D0C9
:1092E0002DB9B8F1000F02DD0120BDE8F09F00208C
:1092F000FBE710B501220221002001F053FB0446D8
:1093000000BF1CB1072C01D0204610BD00BF0722B2
:109310000221012001F046FB044600BF1CB1072CCE
:1093200001D02046F1E700BF0A220021084601F0E3
:1093300039FB044600BF1CB1072C01D02046E4E7EE
:1093400000BF0020E1E7000030B5BFB0002136A823
:10935000FEF7CAF94EF61370ADF8CC0036A933A863
:1093600081601220ADF8D0006846FEF79FFAAC216C
:1093700008A8FEF772F800208DF8220006208DF86C
:1093800023000DF11D00099033A8119002208DF8E3
:109390005C000121ADF86C1011491C9101218DF880
:1093A0009C1005992A919DF81C102B910D48319025
:1093B00008A90D4800F031FE044600BF25463DB126
:1093C00000BF0AA24FF4FF712846FDF723FF00BF3C
:1093D00000BF0121044800F01DFE3FB030BD000079
:1093E000D83900202DF902009C3F00202E2E5C2E43
:1093F0002E5C2E2E5C6D61696E2E630070B50321AC
:10940000094800F0ACFE044600BF25463DB100BF50
:1094100006A240F206212846FDF7FCFE00BF00BF71
:109420000120FEF739FC70BD9C3F00202E2E5C2EE3
:109430002E5C2E2E5C6D61696E2E630070B50A493C
:1094400091F8540074DF044600BF25463DB100BFCB
:1094500006A240F20F212846FDF7DCFE00BF00BF48
:109460000020FEF719FC70BD9C3F00202E2E5C2EC4
:109470002E5C2E2E5C6D61696E2E63002DE9FE431D
:1094800007460E46144672B600BF04F0EFFE00BF5A
:1094900000BF04F069FC0028FBD100BF00BF012F12
:1094A0000CD06FF48050384498B1B0F5405F2CD0A8
:1094B0006FF440510844002847D115E03149324A41
:1094C000891AC908012242EA014030A104F0DAFDFC
:1094D00047E02C492C4A891AC908012242EA014076
:1094E00032A104F0CFFD3CE025462649DFF898C0C4
:1094F000A1EB0C01C9084FF0010C4CEA014034A16A
:10950000D5E9003204F0D4FD2BE02546A86805F02B
:109510009FFC8046D5E900108DE8430019491A4B9D
:10952000C91AC908012343EA014043462FA1AA688A
:1095300004F0E2FD1349144A891AC908012242EADB
:10954000014034A104F09EFD0BE00E490E4A891A39
:10955000C908012242EA0140324633A104F09CFDD1
:1095600000BF00BF00BF3648006800F0010000B136
:1095700000BE00BF22463146384600F063F8BDE821
:10958000FE8300008C2E0300042E0300534F46542C
:109590004445564943453A20415353455254494F57
:1095A0004E204641494C454400000000534F46546C
:1095B0004445564943453A20494E56414C4944207A
:1095C0004D454D4F525920414343455353000000F0
:1095D000415353455254494F4E204641494C45440E
:1095E0002061742025733A25750000004552524FC2
:1095F00052202575205B25735D2061742025733A08
:1096000025750D0A50432061743A20307825303892
:1096100078000000456E64206F66206572726F727C
:10962000207265706F727400554E4B4E4F574E202E
:109630004641554C5420617420307825303858000C
:10964000F0ED00E018B5012300939DF800301E4BAB
:10965000186059609A606FF48043034463B1012B32
:1096600019D1194BDA60DB681B68174CA3612346DC
:10967000DB685B68E3610EE0134B1A611B699B6852
:10968000114C636123461B691B68A36123461B6958
:109690005B68E36100BF00BF0B4B1B680A4B5B6854
:1096A000094B9B68084BDB68074B1B69064B5B69E2
:1096B000054B9B69044BDB6972B600BF9DF8003017
:1096C000002BFBD162B618BD6C49002070B5044672
:1096D0000D46204601F0BCFF28B12946204601F086
:1096E000ABFF002070BD0520FCE7034609B90E2042
:1096F000704712B1501E104008B10920F8E71960F8
:10970000501E988000209860D86000BFF0E770B5C8
:1097100004460D46204601F09BFFA188884205D8EB
:109720002946204601F0A7FF002070BD0420FCE779
:1097300010B5024801F054FD10BD0000803A002031
:1097400010B503460C460AB9072010BD19684A61D6
:10975000012C01D1012000E0002008610020F4E785
:1097600038B5134800680090082358221149124860
:10977000006802F094FF04460CB1204638BD0F4A41
:1097800069460F4801F032FD04460CB12046F5E76A
:1097900001210B4801F0D0FD01230A4A194608486F
:1097A00001F0F0FC0120084908702046E6E70000BF
:1097B000CC2103008C490020BC210300870A030050
:1097C000803A0020FFFF7F008C3A00202DE9F04115
:1097D00006460D4617463446207F10B10020BDE8EE
:1097E000F081A76102F0F2F9401941F10001C4E9EA
:1097F0000201206900B125612146002007F0B0FF79
:10980000EDE770B50446254600202877294601205B
:1098100007F0A6FF70BD00002DE9F0410446104896
:10982000077821460F48FFF751FF8046A7B1002077
:109830000B49087001220C490C4803F0EFFC054667
:1098400000BF2E4636B100BF09A2D6213046FDF733
:10985000E1FC00BF00BF00BF4046BDE8F081000052
:109860000E3B0020AC4B00200D3B0020F43A0020C2
:109870002E2E5C2E2E5C2E2E5C2E2E5C2E2E5C2E22
:109880002E5C2E2E5C636F6D706F6E656E74735CF4
:109890006C69627261726965735C756172745C6136
:1098A00070705F756172745F6669666F2E63000029
:1098B0002DE9F04188B004460E46174698462B48DD
:1098C00007601EB9072008B0BDE8F081B08882B2F9
:1098D00027483168FFF709FF054600BF284600B159
:1098E000F1E700BFB08982B22248B168FFF7FDFE00
:1098F000054600BF284600B1E5E700BF20221E490B
:109900006846FDF791FD60690690207C08B1012052
:1099100000E000208DF814008DF81C80607C08B1F8
:109920000E2000E000208DF81500E0680290A0688D
:1099300003902068019060680090104A69461048C2
:1099400003F026FC054600BF284600B1BBE700BF78
:1099500000200C4908702068401C28B101220A49E7
:10996000074803F05BFCAEE70020ACE7083B0020B3
:10997000AC4B0020BC4B0020F02303007518030003
:10998000F43A00200E3B00200D3B00202DE9F04171
:10999000054629461448FFF7BAFE064606BB134C97
:1099A000002720781249085C20B1201D05F03CFFFB
:1099B000074608E020780E49085C20B904F10C0045
:1099C00005F0DAFD074600BF57B90A490648FFF718
:1099D0007DFE28B901220749044803F041FC0646F0
:1099E0003046BDE8F0810000BC4B0020F43A002076
:1099F000683A00200C3B002010B50446204607F0D2
:109A000065FA10BD70B5044625460E488068B0B1B1
:109A1000ADB9FFF7A3FA06460A4800680A4908608C
:109A2000084840684FF0E021C1F8040100200549D2
:109A300088601EB900BF62B600BF00BF00BF00BF94
:109A400070BD0000F449002000E100E0F8B50546D3
:109A50000C4617462088001DB84201D90C20F8BDDD
:109A6000684679DF064600BF304600B1F7E700BF21
:109A70000320218868542088401C208019202188D8
:109A800068542088401C208020884119BDF80000BF
:109A900008F0E2F82188084420800020DFE770B554
:109AA00005460C462068401C28B1206804F038F8B0
:109AB000206803F0B5FF6068401C18B100216068A1
:109AC00003F094FF2868A169C0F8241500BF617DE8
:109AD000227D286841EA0203C0F86C3500BFD4E952
:109AE0000012286805F010FA207D012814D1A06822
:109AF000401C18B10021A06803F078FFE068401C0A
:109B000028B1E06804F00CF8E06803F089FFD4E9BC
:109B10000221286805F0E0F970BD70B505460C46D5
:109B20002068401C28B1206804F007F8206803F082
:109B300083FF6068401C18B10021606803F063FF78
:109B40002868A169C0F8241500BF617D227D2868BE
:109B500041EA0203C0F86C3500BFD4E9001228685E
:109B600005F00CFA207D012814D1A068401C18B122
:109B70000021A06803F047FFE068401C28B1E068BE
:109B800003F0DBFFE06803F057FFD4E90221286807
:109B900005F0D5F970BD0000002114E00C48D0F8A4
:109BA0001024012308E000BFD0680079884201D169
:109BB000002303E0D0680268002AF4D100BF0BB193
:109BC00008467047491C0A29E8DB4FF0FF30F8E7E8
:109BD000644D00202DE9F04104460F46154615B9A5
:109BE0000E20BDE8F0810020286000BF0CB90E20D7
:109BF000F7E700BF00BF206808B90E20F1E700BFFB
:109C000000BFE088C11700EB91718910A0EB8101C2
:109C100009B10720E5E700BF384600F0A9FBC6B24E
:109C2000142E01D10520DCE72079B04201DC0420AC
:109C3000D7E7E188206806FB010028600020D0E714
:109C40002DE9FC4105468846164600243788002049
:109C5000308095F82D0058B13A463146404600F024
:109C60009FFB044600BF204608B1BDE8FC8100BF51
:109C7000A87850B13A4631464046FFF7E7FE044621
:109C800000BF204600B1F0E700BFE87860B1E97896
:109C900048B23B463246414601F01FFD044600BF34
:109CA000204600B1E1E700BF686868B1696891F9D2
:109CB00000003B463246414607F0C1FD044600BF66
:109CC000204600B1D1E700BF288900280EDD4346B9
:109CD0000622022105F10800CDE9006708F08FF89F
:109CE000044600BF204600B1BFE700BF288A002815
:109CF0000EDD43460722032105F11000CDE9006780
:109D000008F07DF8044600BF204600B1ADE700BF73
:109D1000288B00280EDD43461522142105F118007A
:109D2000CDE9006708F06BF8044600BF204600B19B
:109D30009BE700BF286A58B13B4632464146286A35
:109D400001F08CF8044600BF204600B18DE700BF4B
:109D5000686A58B13B4632464146686A02F0F6FAF4
:109D6000044600BF204600B17FE700BF95F82C00F5
:109D700000280BDD3B4632464146284607F0BAF93B
:109D8000044600BF204600B16FE700BF287858B1F5
:109D90003B4632464146284602F094FB044600BF4B
:109DA000204600B161E700BF20465EE72DE9F84399
:109DB000064688461546002000900DB9BDE8F88398
:109DC00009236A464146304600F02BF80446BDF8A8
:109DD00000003718BDF8000068B164B12846FDF7EF
:109DE00053FBA04207D1224639462846FDF761FBC6
:109DF00008B90120E2E70020E0E7F8B504460E4686
:109E00001546002000902B466A463146204600F059
:109E100008F807460FB90020F8BDBDF8000020443F
:109E2000FAE7F0B504460D461E4604B10AB9002013
:109E3000F0BD002103E0605C401C084481B2481C76
:109E4000A84206DA10888842F5DC481C205CB04243
:109E5000F1D1A94201DB0020EAE7881C87B2605CEF
:109E600010B1605C401E00E0002083B213B1F8180E
:109E7000A84201DD0020DBE717801846D8E72DE96E
:109E8000F04788B004460E46174600200790102081
:109E90000690B24602AA06A9384664DF814614B18C
:109EA000B9F1000F03D0002008B0BDE8F0879DF89D
:109EB0001800022804D0042809D0102815D10DE07C
:109EC00003208DF8040002208DF805000FE0052026
:109ED0008DF8040004208DF8050008E007208DF8B7
:109EE000040006208DF8050001E00020DCE700BF3B
:109EF000002509E001A8435D07AA31462046FFF787
:109F000090FF8246681CC5B2022D03DABDF81C0022
:109F10000028EFD0BDF81C0008B90020C4E7BDF848
:109F20001C0004EB000800250DE008EB05009DF87F
:109F3000182002A9FDF7BDFA08B90120B4E79DF881
:109F40001800284485B25545EFDB0020ACE72DE929
:109F5000FF4104460D46164600BF1CB90E2004B052
:109F6000BDE8F08100BF207808B90820F7E715B9EF
:109F70000EB90E20F3E700200090019002900390AC
:109F8000DDB1D4F82004016804F15500814200D00D
:109F900001E004F2431000902046FFF727F9ADF8E6
:109FA000040001AA28460099FFF74AFE074600BFB1
:109FB000384600B1D3E700BF00BFDEB1D4F82004BB
:109FC000816804F23120814200D001E004F21F30A8
:109FD00002902046FFF70AF9ADF80C0003AA3046BC
:109FE0000299FFF72DFE074600BF384600B1B6E7DD
:109FF00000BF00BF04F580609DE88E0010308EC069
:10A000001038C4F82004002204F15400D4F82014BD
:10A0100072DFA4E780F83010704770B504460D4633
:10A0200005B10CB90E2070BD05F1780000F0AFFE4F
:10A0300008B90720F7E70020A0702C2205F178016D
:10A04000201DFDF7F1F9002084F83000D5F8A400B8
:10A050006063D5F8A800A0634FF6FF70A4F824044D
:10A0600004F58260C4F82004002140F22C40C4F8BA
:10A070002614A4F82A140155207810B9FF2084F87A
:10A08000540004F15500C4F810042046FFF7AEF860
:10A0900040F21441085304F2144204F155012846D9
:10A0A000FFF7CEFD064600BF304600B1BBE700BF5C
:10A0B00004F231204FF4836108512046FFF796F8EF
:10A0C000A4F81C044FF48360015904F21C4205F10A
:10A0D0003C00FFF7B5FD064600BF304600B1A2E7E1
:10A0E00000BF012151200155208B81B2482001532E
:10A0F000012084F83C000021216450200155616951
:10A10000616404F13C02002104F1540072DF064650
:10A1100000BF304600B186E700BF01202070304606
:10A1200081E770B504460D462E462088102804D0DD
:10A13000112807D026280FD109E02146304605F026
:10A14000D5FC0AE02146304605F095FD05E02146A4
:10A15000304605F0F2FE00E000BF00BF70BD70B5F4
:10A1600004460E46207808B9082070BDA67000216C
:10A1700040F22C40C4F82614A4F82A140155A07902
:10A1800010B1A078012809D0E07910B1A078012899
:10A1900004D0E07970B1A07802280BD1606B30B1A7
:10A1A000012084F82D040820616B884702E000201C
:10A1B00084F82D0431462046FEF7C8FFA070606B7E
:10A1C000A0B1A078032802D0A07804280ED160792D
:10A1D00060B194F82E0448B9002084F830040120BE
:10A1E00084F82F040720616B884702E0002084F880
:10A1F0002F04182104F13C00FDF72FF9012084F809
:10A200003C0004F12C0005F093FF20B194F82C10D1
:10A210005120015502E001215120015594F82400FC
:10A2200060B104F1280005F083FF20B194F82810F4
:10A230005220015502E001215220015500215020F9
:10A240000155A078052824D2DFE800F01F030A1189
:10A25000180004F13C01204606F0ECFF054619E029
:10A2600004F13C01204606F0CDFF054612E004F162
:10A270003C01204606F0F0FF05460BE004F13C01EE
:10A28000204607F017F8054604E0002084F8310066
:10A2900000E000BF00BFA07898B104F13C0204F1D7
:10A2A0005400D4F8201472DF05460DB128465CE74F
:10A2B00094F8301094F8540073DF05460DB1284629
:10A2C00053E7606B18B194F83100616B8847002048
:10A2D0004BE700002DE9F041044600BF14B90E2001
:10A2E000BDE8F08100BF1C2221461C48FDF79CF808
:10A2F0001B481A490860206860B120687ADF05466B
:10A300000DB12846ECE7164821680A6802604968E2
:10A31000416005E012487BDF05460DB12846DFE7C6
:10A32000002617E006EB86000E4901EB800700BF10
:10A330004FF6FF70388000BF0B4800EB4610786086
:10A340000A4A0021381DFFF7FBF905460DB103202D
:10A35000C6E7761C002EE5D00020C1E7CC470020E0
:10A36000503A0020B847002098470020411D0300C4
:10A3700010B50446204600F005F808B1204610BD8F
:10A380001420FCE710B50446142C01DB002010BD9E
:10A390002146024802F0DEF9F9E70000EC47002010
:10A3A0002DE9FC4105460C46174620880930B84285
:10A3B00002D90C20BDE8FC8168466DDF064600BF6F
:10A3C000304600B1F6E700BF082021886854208895
:10A3D000401C20801B20218868542088401C20803D
:10A3E00020882844DDF801100160BDF80510818047
:10A3F0002088801D20809DF80000400818B90020AA
:10A400002188685402E00120218868542088401C7B
:10A4100020800020CEE70000F8B505460F462888CA
:10A42000212842D006DC10280BD011282BD013286D
:10A4300073D14CE03B2872D052285BD05628F7D11C
:10A440007DE00120FDF7F2FD4649474A891AC90817
:10A45000032242EA014045A103F014FEA8884649C0
:10A46000088008460188454802F04DFB044600BFBD
:10A47000264636B100BF42A2CC213046FCF7CAFEC8
:10A4800000BF00BF6CE00020FDF7D0FD3549364A23
:10A49000891AC908032242EA01403DA103F0F2FDF6
:10A4A0004FF6FF70344908805AE000200090A888D9
:10A4B00069468FDF044600BF264636B100BF30A292
:10A4C000DF213046FCF7A6FE00BF00BF48E00023B6
:10A4D0001A468521284800887FDF044600BF2646AB
:10A4E00036B100BF26A2E5213046FCF793FE00BF3F
:10A4F00000BF35E000231A4619461F480088B1DF27
:10A50000044600BF264636B100BF1DA2EB213046EF
:10A51000FCF780FE00BF00BF22E020E0FFE7A88834
:10A52000132176DF044600BF264636B100BF14A2D1
:10A53000F2213046FCF76EFE00BF00BF10E0A88895
:10A54000132176DF044600BF264636B100BF0CA2B9
:10A55000F9213046FCF75EFE00BF00BF00E000BFFF
:10A5600000BFF8BD8C2E0300042E0300436F6E6EF7
:10A570006563746564000000343A0020903F002059
:10A580002E2E5C2E2E5C2E2E5C6D61696E2E63006D
:10A59000446973636F6E6E656374656400000000E8
:10A5A00070B505460E462888102802D011282CD1F7
:10A5B00015E01748006860B900F0F8FC044600BFD9
:10A5C00034B11448006818B1204612490968884718
:10A5D00000BF0F480068401C0D49086016E00C4899
:10A5E0000068401E0A4908600846006860B9FEF726
:10A5F00080FE044600BF34B10648006818B120460A
:10A6000004490968884700BF00E000BF00BF70BD73
:10A610004C3A0020483A002070B504460D46208888
:10A62000102806D0112808D012280ED0502810D19A
:10A6300007E0204605F0E8F90CE0204605F002FBB3
:10A6400008E0204605F0AAFC04E0204605F0C4F925
:10A6500000E000BF00BF70BD2DE9F04104460F4689
:10A66000A6882088102806D0112819D019283FD094
:10A670001A284AD118E006F09DF9304606F026F86F
:10A6800030B900BF22A2F0210420FCF7C3FD06E090
:10A69000E07B022803D131462C4802F06AF834E00E
:10A6A000304606F0ABF930E0207A0509042D01DBD5
:10A6B000012000E000200246314624480C3000F022
:10A6C000FDFF032D01DB012000E0002002463146A2
:10A6D0001E48083000F0F2FF022D01DB012000E0EF
:10A6E0000020024631461948001D00F0E7FF0CE04B
:10A6F000207A48B9607AC0F3C0052A46314613482B
:10A700000C3000F0DBFF00BF00BF00BFBDE8F081F0
:10A710002E2E5C2E2E5C2E2E5C2E2E5C2E2E5C2E73
:10A720002E5C2E2E5C636F6D706F6E656E74735C45
:10A73000626C655C636F6D6D6F6E5C626C655F63B0
:10A740006F6E6E5F73746174652E6300F447002052
:10A750002DE9F04186B00446884617461D4600BFE5
:10A760001CB90E2006B0BDE8F08100BF01AA294641
:10A770006069FFF72FFA064600BF304600B1F1E7E7
:10A7800000BF4FF6FF70854201D0019808B905203F
:10A79000E8E70198007808B90820E3E73888F4284A
:10A7A00001DD0720DEE70020029003900490059071
:10A7B000A088ADF80800CDF81480049701208DF82A
:10A7C0000A0002A92846AEDFCCE7000070B58EB0C3
:10A7D00004460E463E4B0FCB09AD0FC500BF14B962
:10A7E0000E200EB070BD00BF00BF0EB90E20F8E7FE
:10A7F00000BF3068A061214609A862DF054600BF9E
:10A80000284600B1EDE700BF20788DF83600012022
:10A81000ADF83400A21C0DA9A8DF054600BF2846EC
:10A8200000B1DEE700BF202101A8FCF716FE0220E0
:10A83000ADF8040020788DF80600F420ADF808008B
:10A840000120ADF80A008DF810009DF8110020F0ED
:10A85000080008308DF811009DF8110020F0040068
:10A86000001D8DF8110001208DF815008DF81600DF
:10A87000608804F10C0201A900F066F905460DB1EB
:10A880002846AEE7202101A8FCF7E7FD0320ADF83C
:10A89000040020788DF80600F420ADF808000120AF
:10A8A000ADF80A008DF810009DF8110020F010009E
:10A8B00010308DF8110001208DF815008DF816006C
:10A8C0008DF817006088221D01A900F03DF988E786
:10A8D0000821030070B504460D4605B104B970BDEA
:10A8E0002E462088102804D0502807D057280FD192
:10A8F00009E02146304605F0BFF80AE0214630461F
:10A9000005F078FB05E02146304605F06DFA00E0E1
:10A9100000BF00BF00BFE2E770B50446204607F065
:10A9200095F9054605F0010070BD000038B504F04A
:10A930003DF9044600BF25463DB100BF15A240F2D7
:10A940000D112846FCF766FC00BF00BF00200090F8
:10A950006946012003F026FF044600BF25463DB1AD
:10A9600000BF0CA240F213112846FCF753FC00BFB5
:10A9700000BF684603F0E4FF044600BF25463DB132
:10A9800000BF04A240F217112846FCF743FC00BFA9
:10A9900000BF38BD2E2E5C2E2E5C2E2E5C6D6169A4
:10A9A0006E2E630030B503460020042B23D2012A0B
:10A9B00007D1012903D103F10E04E4B200E0002421
:10A9C000224679B1012902D0022911D104E003EB1A
:10A9D00043040A4D2A550DE003EB4304074D2C4474
:10A9E000627007E003EB4304044D2C44A27001E0C5
:10A9F000072000BF00E0072030BD000068470020AE
:10AA00002DE9FC4704460D461646A71C4FF00108E9
:10AA10000020019001A8FEF7EFFF30484068286051
:10AA20002E4840682D498968411A2D480068401C0D
:10AA3000A0EB010915E001212A4801F0BEFE01F05A
:10AA4000E5FB82465146274801F0B7FE234840689F
:10AA500022498968411A22480068401CA0EB01097C
:10AA600000BF4F45E7D8B8F1000F30D0002100916A
:10AA700076B1009921F00301491C0091009921F061
:10AA80000401091D0091009964F3891100910DE002
:10AA9000009921F00301891C0091009921F0040123
:10AAA000091D0091009964F39F5100910B49496879
:10AAB0000B4A12681140094A0C3202EB81000099DE
:10AAC00001600649496839440C3A516000BF9DF85D
:10AAD0000400FEF797FF4046BDE8FC87644D002068
:10AAE000283B00208051002070B504460D460A2DF9
:10AAF00003D10D212046FFF7F7FFA168481CA06095
:10AB000020684554D4E90110884202D3204602F05F
:10AB1000DEFB70BD0448806803494968884201D162
:10AB2000012070470020FCE7644D002001460248E8
:10AB300050F8210070470000784800200146014885
:10AB400040567047A848002070B590B006460C46A5
:10AB50001546A07818B901208DF80E0002E0A07803
:10AB60008DF80E002088ADF80C0000200290607C6B
:10AB700002A906F0CDFBA07C0DF1090106F0C8FB8F
:10AB8000E07B08B1012000E000209DF80A1060F38E
:10AB9000C3018DF80A10207C08B1012000E00020DC
:10ABA0009DF80A1060F304118DF80A10207B08B19B
:10ABB000012000E000209DF80A1060F300018DF8EC
:10ABC0000A10207D08B1022000E001209DF80A1043
:10ABD00060F342018DF80A101C2109A8FCF73DFC26
:10ABE000607BC0F3001018B9607BC0F34010F8B16F
:10ABF00000200090E07C0DF1010106F089FB00BF10
:10AC00009DF8000020F00F00401C8DF800009DF81A
:10AC1000000020F0F00010308DF8000000BF9DF81B
:10AC2000020020F00600801C8DF80200CDF838D01C
:10AC3000607B8DF82400A07B8DF82500142104A8EA
:10AC4000FCF70BFC03A8049002A80590A088ADF8BF
:10AC50001C00A06820B1E088ADF81800A06808903A
:10AC6000A069002849D000200190A0690088ADF8B3
:10AC70002C00A0694088ADF82E00A06940680A90B9
:10AC800001A80D90A169087B01A906F041FBA1690B
:10AC9000487B0DF1050106F03BFBA069807A08B105
:10ACA000012000E000209DF8061060F3C3018DF83C
:10ACB0000610A069C07A08B1012000E000209DF8CC
:10ACC000061060F304118DF80610A069007A08B12F
:10ACD000012000E000209DF8061060F300018DF8CF
:10ACE0000610A069807B08B1022000E001209DF8D9
:10ACF000061060F342018DF80610E06908B1E069C2
:10AD00000C902B4604AA09A93046AADF10B070BDEA
:10AD100070B505460DB9094C01E0084C083409E04E
:10AD2000204601F023FA064606B904E02846716879
:10AD3000884700BFF4E700BF70BD00006C480020EA
:10AD400010B504462CB90120064948700020FFF7D1
:10AD5000DFFF012C04D1012002498870FFF7D8FFE2
:10AD600010BD0000644800202DE9F047024613465C
:10AD70008C46D3E90245DCE90267B6EB040877EBC1
:10AD8000050002D30120BDE8F0870020FBE7014663
:10AD90008878012805D191F82000012801D10020F0
:10ADA00070470120FCE70246002007E0536833F8B3
:10ADB00010308B4200D17047431C98B213888342F5
:10ADC000F4DC00BFF7E733B58BB0054600200090F8
:10ADD0000C9878B100240BE021460CA801F0BAFCD5
:10ADE00028B1009A501C009001A820F81240641C61
:10ADF000142CF1D32C2269462846FCF715FB0DB024
:10AE000030BD01460888062808DB0888B0F5486F81
:10AE100006DD08884FF6FF72904201D00720704788
:10AE20004888062808DB4888B0F5486F06DD488862
:10AE30004FF6FF72904201D00720F0E708884FF6E6
:10AE4000FF72904208D04888904205D008884A880E
:10AE5000904201DD0720E2E70020E0E72DE9F04124
:10AE600007460D46144698462088801D404502D965
:10AE70000C20BDE8F0813846FFF7C3FF064600BF4F
:10AE8000304600B1F5E700BF0520218868542088CE
:10AE9000401C20801220218868542088401C20807B
:10AEA00022885119388806F0D7FE2188084420806E
:10AEB00022885119788806F0CFFE21880844208026
:10AEC0000020D6E710B5044600BF03A25821204653
:10AED000FCF7A0F900BF10BD2E2E5C2E2E5C2E2E8E
:10AEE0005C6D61696E2E630030B587B01C216846C9
:10AEF000FCF7B3FA002000904FF4A03001904FF41B
:10AF0000F020029003208DF80C004FF6FF70ADF892
:10AF10000E0001208DF810000020059009480690D1
:10AF20006846FFF7D7F9044600BF25463DB100BF8C
:10AF300005A240F257112846FCF76CF900BF00BF8C
:10AF400007B030BDC5AE02002E2E5C2E2E5C2E2E1C
:10AF50005C6D61696E2E6300F8B505460C46607A3B
:10AF600088B9207A10B91048476801E00E48876810
:10AF70002A4639466068FEF729FC064616B1304677
:10AF800006F058F80EE0002020720748406948B1EA
:10AF900001208DF80000ADF8025003484169684671
:10AFA000884700BFF8BD0000CC47002010B5012243
:10AFB00000210846FFF7F6FC044600BF1CB1072C31
:10AFC00001D0204610BD00BF072202210120FFF75B
:10AFD000E9FC044600BF1CB1072C01D02046F1E774
:10AFE00000BF042202210020FFF7DCFC044600BF62
:10AFF0001CB1072C01D02046E4E700BF0020E1E7A8
:10B000002DE9FF4105460C46002002900390ADF863
:10B010000840ADF80A40009001906A4602A928460F
:10B0200090DF0646002E32D0304603F011FF07466F
:10B0300019491A4A891AC908012242EA01403B46C5
:10B040002A46174903F034F8BDF8000010B9BDF8DE
:10B05000020068B1BDF80230BDF800200E490F4F64
:10B06000C91BC908012747EA01400EA103F020F8D7
:10B07000BDF8040058B1BDF804200749074BC91AB0
:10B08000C908012343EA0140164903F005F8304698
:10B0900004B0BDE8F08100000C2E0300042E030074
:10B0A0008C2503005468652072657175657374653D
:10B0B000642054582F5258207061636B6574206C63
:10B0C000656E67746820697320746F6F206C6F6E93
:10B0D000672062792025752F2575206F637465744C
:10B0E000732E0000D825030070B506460D4616B134
:10B0F0004FF4064070BD287920B1012809D00228FC
:10B1000015D111E002202871284605F03DFB0446C8
:10B1100010E0284600F0B8FA044648F2096084427C
:10B1200001D141F61D5405E041F61D5402E048F2FC
:10B130000E6400BF00BF2046DCE7000010B5002110
:10B14000034801F066FB044684F3100010BD0000C4
:10B150008051002070B505460C464FF4803000FA4F
:10B1600004F1284600F040FA70BD70B505460C4663
:10B170004FF4A07000EB840086B23146284600F000
:10B180004DFA70BD2DE9F04704460D4616461F46A0
:10B190004FF4803000FA05F84FF4A07000EB850002
:10B1A0001FFA80F926F07F464146206803F0E4FA52
:10B1B0004146206803F0DAFA4946206803F0CFFAE6
:10B1C00032462946206803F0C1FA4146206803F060
:10B1D000D0FA1FB14146206803F0D1FABDE8F087EC
:10B1E00010B50446206803F0B6FA10BD2DE9F0470B
:10B1F00004460D4617466079324941F8207060795F
:10B20000314901EBC000007968B108262F49304A66
:10B21000891AC908022242EA01402EA102F032FF37
:10B220003046BDE8F08729882068C0F8081500BFBF
:10B2300094F90420AB7810461946002808DB4FEA41
:10B24000417C4FEA1C68DFF8B0C00CF800800BE0CE
:10B250004FEA417C4FEA1C69DFF8A0C000F00F08FC
:10B26000A8F104080CF8089000BF00BF94F904107E
:10B27000084600280DDB00BF00BF00F01F030122BD
:10B280009A4043099B0003F1E023C3F8002100BF6B
:10B2900000BF00BF00BF012061790B4A02EBC10172
:10B2A00008716079114641F8304000260749084A84
:10B2B000891AC908032242EA014011A102F0E2FE04
:10B2C0003046AEE7A43A0020A83A00206C2E0300D6
:10B2D000042E030052544320696E7374616E6365DB
:10B2E00020616C726561647920696E697469616C52
:10B2F000697A65642E00000000E400E018ED00E0CB
:10B300005254433A20696E697469616C697A656464
:10B310002E00000010B5014691F90400002807DB5B
:10B3200000F01F0301229A40024B440943F82420F5
:10B3300000BF10BD00E200E070B505460C46224695
:10B340000221284600F05CF970BD10B504464FF4A8
:10B350008271204600F062F910BD10B5044600214C
:10B36000206803F00FFA10BD10B5044604212068D0
:10B3700003F008FA10BD2DE9F84F0446884615463B
:10B3800099464FF4803000FA08FA4FF4A07000EBB1
:10B3900088001FFA80FB25F07F455146204600F0CB
:10B3A00023F9206803F0D7F906464146206803F0E8
:10B3B000C7F9009032464146206803F0C7F9594664
:10B3C000206803F0CCF93146009806F029F90128ED
:10B3D00006D1102003F016FE5946206803F0BFF98D
:10B3E000206803F0B8F906463146284606F018F9F9
:10B3F00007465146206803F0BCF9012F0FD16A1CA3
:10B400004146206803F0A2F9102003F0FBFD2068FC
:10B4100003F0A1F9B04225D00D20BDE8F88F2A46EF
:10B420004146206803F092F9206803F094F906463B
:10B43000681E314606F0F4F807466FF07F40A0EB37
:10B440000900B84201D20D20E7E75FB96A1C414606
:10B45000206803F07BF9206803F07DF9B04201D049
:10B460000D20DAE701225146204600F0C9F80020FD
:10B47000D3E700002DE9F84305460E4617469846E7
:10B4800069461048006801F01EF9044614B904200A
:10B49000BDE8F8831C212046FBF7DFFF0120207167
:10B4A0002560C4F8088008480068B6FBF0F0E0604A
:10B4B000676169460348006801F02FF905F0D2F88A
:10B4C0000020E5E76C2203006022030010B504466B
:10B4D000D4E90321501828DF10BD0278072A38D29A
:10B4E000DFE802F037040712222B340000220A7032
:10B4F00030E001220A7003898B818388CB81C26886
:10B500008A6000230B7425E002220A7003898B8174
:10B510008388CB81C2688A60827D062A01D101239B
:10B5200000E000230B7415E003220A70C3888B81AE
:10B530000389CB81C2688A600CE004220A70C38848
:10B540008B810023CB8100228A6003E005220A70F0
:10B5500000E000BF00BF704770B50546002409E059
:10B56000064850F8240020B1044850F8241028461A
:10B570008847641C042CF3D370BD0000004A0020EF
:10B5800030B587B004460D462068806808B907B01A
:10B5900030BD182101A8FBF760FF0295A068069056
:10B5A000207910B1012815D109E001208DF804009F
:10B5B00020690390E0680490606905900BE0022028
:10B5C0008DF804000749E068096848430390606902
:10B5D000059000E000BF00BF2068816801A888478F
:10B5E00000BFD4E76022030070B504460D4629462B
:10B5F000206803F0BBF82946206803F0BDF870BD51
:10B6000070B504460E4615463146206803F0B1F881
:10B610001DB13146206803F0B2F870BD70B5054623
:10B620000C462868015929B12146286803F097F88B
:10B63000012070BD0020FCE770B504460D462A4687
:10B640000021204600F00EF8A068401CA06070BDEC
:10B6500001468A68C868801A704701468A68C868C7
:10B66000801A704710B583680B44848823400468AF
:10B67000E35C137010BDC26883881A400368995454
:10B68000C268521CC26070473EB504460A4B6A4607
:10B690000021A01D05F02EF8054635B9064A91880F
:10B6A000019805F009F9054603E00348002101600F
:10B6B000416028463EBD0000CC3A002070B50546EA
:10B6C0000E46144624B13146284601F052F803E0F4
:10B6D0003146284601F02FF870BD30B50446108879
:10B6E000C01C984201D90C2030BD02201588485555
:10B6F0001088401C10800120158848551088401C77
:10B70000108015884C551088401C10800020EBE7F5
:10B7100070B504460D4640F21442115B0122D4F884
:10B720001004FEF76AFB064606B1357004F13C02D0
:10B7300004F5826104F1540072DF70BD10B5044657
:10B74000606804F0E5FE10BD30B58BB06846FCF7CC
:10B75000ADF800BF9DF8200020F00F00401C0890BD
:10B760009DF8200020F0F0001030089000BF6846DF
:10B77000FBF78AFE85B22A46694608A87CDF0446A4
:10B7800000BF25463DB100BF15A240F22D1128464D
:10B79000FBF740FD00BF00BF002009900A9014484D
:10B7A000008EADF824001248408EADF826001048F7
:10B7B000808EADF828000E48C08EADF82A0009A88A
:10B7C0007ADF044600BF25463DB100BF04A240F227
:10B7D00037112846FBF71EFD00BF00BF0BB030BD80
:10B7E0002E2E5C2E2E5C2E2E5C6D61696E2E6300FB
:10B7F000D043002070B50021084801F0A3F80446AA
:10B8000000BF25463DB100BF05A24FF4A0712846F8
:10B81000FBF700FD00BF00BF70BD0000743F0020BB
:10B820002E2E5C2E2E5C2E2E5C6D61696E2E6300BA
:10B8300070B506460C4604F11005E888022801DDC3
:10B84000092070BDE988304602F08EFD60606068B6
:10B8500008B90420F5E7EA88A9680023606802F0C7
:10B860000EFE0020EDE770B506460C4604F110050B
:10B87000A8680088102801DD092070BDA86800882C
:10B88000811C304602F070FD6060606808B90420D9
:10B89000F3E7A96800230222606802F0F0FDAB68BC
:10B8A0001A88E9680223606802F0E9FD0020E4E7F5
:10B8B00070B5054615B14FF4064070BD1848007BC1
:10B8C00018B100201649087301E000F0DFF81448B1
:10B8D000007808281DD2DFE800F01C04080C101CBA
:10B8E000141800F03FF8044616E000F0BDF80446D6
:10B8F00012E000F099F804460EE000F047F8044624
:10B900000AE000F035F9044606E000F043F9044689
:10B9100002E048F20E6400BF00BF2046CDE7000001
:10B92000D44A00200D480089401C0C4908810020A1
:10B930004880087300BF0DE000EB8001084A12F850
:10B94000211009B9012200E0002204490A310A54F9
:10B95000411C88B20228EFDB70470000D44A002067
:10B96000AC4A002010B5084800F036F840B9002075
:10B970000549891E08704880486041F61D5010BD79
:10B9800000F072F8FBE70000D64A002070B50F48BF
:10B99000458805EB85000E4901EB8000C06878B949
:10B9A00004200A49087005EB8500094A02EB800073
:10B9B000002301224168074801F090FD044602E09F
:10B9C00000F090F80446204670BD0000D44A0020E4
:10B9D000AC4A0020E83D002010B5014600220020BE
:10B9E00018E00F4B1B5C9BB100240D4B1C5400EB6B
:10B9F00080030C4C04EB8303DB684BB900EB800342
:10BA000004EB83031B7C012B02D10880012203E09D
:10BA1000431C98B20228E4DB00BF104610BD0000B2
:10BA2000DE4A0020AC4A0020F8B50C4844680C48B7
:10BA300000680B49898800EB81056088C01C86B2CC
:10BA40000320064908700020B300009008462946EC
:10BA50004268044801F064FEF8BD0000D44A0020AA
:10BA6000C43A0020E83D002010B507494888091D68
:10BA700004F0E6FE18B1FFF7D7FF044602E0FFF737
:10BA800085FF0446204610BDD44A002010B5144856
:10BA90000078082820D2DFE800F0041F1F0A1016E3
:10BAA000171BFFF73FFF01200D49087015E000F05C
:10BAB0007DF802200A4908700FE000F029F80620FE
:10BAC0000749087009E000BF07200549087004E035
:10BAD00001200349087000E000BF00BF10BD000056
:10BAE000D44A002010B505200649087002200649F6
:10BAF00088800846002301220168044801F0EEFC1A
:10BB000010BD0000D44A0020C43A0020E83D0020C7
:10BB1000144908681449498801EB8101134A02EB72
:10BB2000810149680F4A11600F49498801EB810181
:10BB30000E4A02EB810148600A4989880A4A528804
:10BB400002EB8202094B03EB820211810221054ABA
:10BB500091800021044A528802EB820203EB8202A8
:10BB600011747047C43A0020D44A0020AC4A002027
:10BB700010B5062005490870498801EB8101044A87
:10BB800002EB8101486804F0B1FA10BDD44A0020EC
:10BB9000AC4A002010B50720034908700020486017
:10BBA00004F0B4FA10BD0000D44A0020054A5068E1
:10BBB0004288D21C91B2044A92880A44024B9A806D
:10BBC00070470000D44A0020C43A002070B50B48EA
:10BBD000FFF706FB0A4B0CCB841843F1000509491B
:10BBE00003C9201A75EB010004D24FF08073E418EA
:10BBF00045F100052046294670BD0000803A00202E
:10BC0000903A0020983A002070B504460D46204630
:10BC100000F01DF8A84201D9022070BDA0884FF69F
:10BC2000FF71884204D0208810B1A068401C08B978
:10BC30000120F2E70020F0E7024613468B4204D2CF
:10BC40001868401C08B1012070470020FCE701463D
:10BC50004A8801F10C0000EB8200704710B502F039
:10BC600083F808B902F03CFC10BD000070B5044632
:10BC70000D4609486060094800F098FD50B902F08F
:10BC8000EFFF064908741C238C220549054800680B
:10BC900000F005FD002070BD602203008C4B0020E9
:10BCA000F04A00206C2203002DE9F04106460C46C4
:10BCB00048F20E6736B10020434948604FF4064011
:10BCC000BDE8F081207930B101280AD0022835D0B2
:10BCD00003286DD140E00120207104F017FA0746D7
:10BCE00067E04FF00008002519E005EB85003749B3
:10BCF00011F82000022810D1002005EB8501334AFD
:10BD000002F821004FF0010805EB850102EB8101EB
:10BD1000486804F0EBF9074603E0681C85B2022D81
:10BD2000E3DB00BFB8F1000F07D1012026490870FE
:10BD30000020486041F61D50C2E73AE00020207123
:10BD400002202349888008460023012201682148F7
:10BD500001F0C4FB07462CE0002020711C49086854
:10BD600004F0C4F907461C4845881948D0F80080FB
:10BD700005EB8500154901EB800040681449086017
:10BD800005EB8500114901EB8000C0F804801048E4
:10BD9000808805EB85010D4A02EB810108810220B4
:10BDA0000B498880002005EB850102F8210000E0A6
:10BDB00000BF00BF2FB100200349486048F20D606A
:10BDC0007EE700207CE70000B03A0020AC4A00206B
:10BDD000C43A0020E83D0020D44A00200246002159
:10BDE0000CE001EB8100074B33F82000904204D1B6
:10BDF00001EB810003EB80007047491C0029F0D063
:10BE00000020F9E7B84700202DE9FC5F83460E4685
:10BE100091461F46DDE90C45002E01DA704200E034
:10BE2000304682464FF0010803E09AFBF9FA08F128
:10BE30000108CA45F9DA474500D9B84634B1002EA1
:10BE400003DB05F00400042800D1641E05F00200A5
:10BE500000B167B105F0010048B944B104E0641EC7
:10BE600020215846FEF740FE0CB1A045F7D3002E26
:10BE700005DA76422D215846FEF736FE07E005F03A
:10BE80000400042803D12B215846FEF72DFE05F0AF
:10BE9000020002280DD105F0010050B94FB944B19C
:10BEA00004E0641E30215846FEF71EFE0CB1A0458A
:10BEB000F7D33B464A4631465846CDE9004505F0A2
:10BEC000E3FEBDE8FC9F00002DE9F04104460E466C
:10BED0004FF48E71206802F0F8FF4FF4A2712068D1
:10BEE00002F0F3FF1A49206802F0FFFF206803F018
:10BEF00099F80546374628463946002804DB4A07A4
:10BF0000130E144A135408E04A074FEA126C124AFF
:10BF100000F00F031B1F02F803C000BF00BF206822
:10BF200003F080F80546284600280DDB00BF00BF5F
:10BF300000F01F02012191404209920002F1E0222B
:10BF4000C2F8001100BF00BF00BF00BFBDE8F08114
:10BF50008000020000E400E018ED00E02DE9F0416F
:10BF600004460E464FF48871206802F0E1FF4FF45A
:10BF70009071206802F0DCFF4FF49271206802F0AB
:10BF8000D7FF4FF4A271206802F0D2FF4FF4AC71DA
:10BF9000206802F0CDFF1B49206802F0D9FF20681D
:10BFA00003F044F80546374628463946002804DBA6
:10BFB0004A07130E144A135408E04A074FEA126C5A
:10BFC000124A00F00F031B1F02F803C000BF00BF9E
:10BFD000206803F02BF80546284600280DDB00BF3B
:10BFE00000BF00F01F02012191404209920002F1BE
:10BFF000E022C2F8001100BF00BF00BF00BFBDE8D3
:10C00000F08100001003420000E400E018ED00E0C1
:10C0100030B5024600201378C3F38003D3B1137800
:10C0200003F00303012B02D0022B10D107E0138889
:10C03000C3F383139B1C0C6823440B6008E00B685C
:10C040000225146805EB945423440B6000E000BF04
:10C0500000BF012030BD2DE9F04704460E46904652
:10C06000002722E0384602F001FF0546384602F07C
:10C0700004FF81462046294642580AB1012200E0C9
:10C08000002282B14846D4F80413014009B10121CD
:10C0900000E0002139B12946204602F0F3FE28468F
:10C0A000D6E900219047781CC7B24745DADBBDE8E6
:10C0B000F087000001460348007A08B1012070476C
:10C0C0000020FCE78C4B00202DE9F0410446A088BD
:10C0D00000EB020CB4F80480904501DD104600E04E
:10C0E000A088A8EB0005E088C618B4F8068098453B
:10C0F00001DD184600E0E088A8EB00074888B4F8A6
:10C100000080404504DB4888B4F80280404502DDE9
:10C110000020BDE8F0818888A84202D38888604565
:10C1200001D90020F5E7C888B84202D3C888B042D8
:10C1300001D90020EDE70120EBE7014691F83A0034
:10C14000C0F3C100012805D091F83A00C0F3C10046
:10C15000032801D1012070470020FCE7014601F0CF
:10C16000030008B9012070470020FCE70146086879
:10C1700008B102680A60704710B5044622460221E1
:10C18000002001F083FC002105E054F8210008B1F3
:10C19000012010BD491C0229F7D30020F9E7000057
:10C1A00010B502F0F3FE20B902F016FF002001499D
:10C1B000887010BD64480020F7210180172141805C
:10C1C000002101714171FB2181711B21C1717047F7
:10C1D00070B54FF48041002002F008F8044600BF1B
:10C1E00025463DB100BF05A240F217212846FBF7C6
:10C1F00011F800BF00BF01F0A3FD70BD2E2E5C2E14
:10C200002E5C2E2E5C6D61696E2E63002DE9FF4160
:10C2100000272E4800F0C3FA2C48001F00F0BFFA98
:10C220002B48806803902B480568039828402849CC
:10C230000C3101EB800800BF03A94046FFF7E8FE80
:10C2400030B10398284022490C3101EB800800E00E
:10C2500000E0F1E700BF00240AE00398411C2840F9
:10C2600003911B490C3151F820004DF82400641C47
:10C27000022CF2D3009800F0030001280DD0022810
:10C2800014D1BDF806700421009801EB9050401EB7
:10C29000039901EB9000039009E0BDF80670009847
:10C2A000C0F3831003990844039000E000BF00BF6F
:10C2B0000648001F00F06CFA064616B104490398C0
:10C2C0008860384604B0BDE8F08100007C51002051
:10C2D000644D0020283B0020FFF77AFFFBF722FA8D
:10C2E00005F0DAF9FCF7BCFCFCF77EF8FBF728FD5B
:10C2F00003F0C2FFFEF71AFBFBF714FAFCF704FC8D
:10C30000FBF75AFB04F0E4FCFFF71EFAFFF772FAA2
:10C31000FEF7EAFD04F03AFFFDF716F8FDF76EF8B8
:10C3200004F026FD0DE0FCF777FBFBF7EBFCFFF7D5
:10C3300095FC044800680449884202D9002001495C
:10C340000860F0E7743B002040420F002DE9F04107
:10C3500005460E4614469846A888871C2088801CEF
:10C360003844404502D90C20BDE8F081FE2F01D9A8
:10C370000C20F9E7781C218870542088401C20800C
:10C38000FF20218870542088401C20802288911929
:10C39000288805F061FC218808442080A8880028AE
:10C3A0000DDDA86808B90720DEE7AA882388981958
:10C3B000A968FBF739F82088A98808442080002064
:10C3C000D2E72DE9FF4F87B0044691461E46A246AC
:10C3D0002546BAF806009AF805104843001F069053
:10C3E000BAF806B0301DB0FBFBF00590301DB0FB75
:10C3F000FBF10BFB11000490D9F80000811906989D
:10C40000814202D90698801B01E0D9F80000074656
:10C41000C9F8007003E02D680598401E0590059846
:10C420000028F8D103900498ABEB0008B84501D977
:10C43000384600E04046804623E0039908980844C7
:10C440000290281D049908440190149828B142468E
:10C45000DDE90110FAF7E8FF04E04246DDE90101F9
:10C46000FAF7E2FF002004902D68A7EB0807039875
:10C4700040440390BB4501D9384600E05846804609
:10C4800000BF002FD9D10BB0BDE8F08F70B50346C7
:10C490000C469CB101F0CEFE054600220AE0084899
:10C4A00000EB820108881E68B04202D11A600020A9
:10C4B00070BD521CAA42F2D30520F9E70020F7E72D
:10C4C000000000002DE9F84F05460F461446984637
:10C4D0002878012804D1687810B90720BDE8F88FC2
:10C4E0002088801C404508D82878012807D120885A
:10C4F000801C69780844404501D90C20EEE720886B
:10C50000A8EB0000801E86B200962188891CC819FD
:10C5100069467DDF814600BF484600B1DEE700BFC7
:10C520002878022804D06878BDF80010884206DB1D
:10C53000BDF80000B04202DC4FF0090A0BE04FF0FA
:10C54000080A2878012805D16878B04202DC6878AA
:10C55000009000E00096BDF80000FE2801D90C20F4
:10C56000BCE7BDF80000401C218878542088401C9E
:10C570002080208807F800A02088401C2080208888
:10C58000BDF80010084420800020A7E71348026887
:10C590004FF08050D0F83411082A11D131B101295F
:10C5A00006D0022906D0032908D105E001207047F2
:10C5B0000120FCE70120FAE70120F8E70120F6E777
:10C5C0000D2A09D111B1012904D101E00120EEE7C2
:10C5D0000120ECE70120EAE70020E8E73001001045
:10C5E000134802684FF08050D0F83411082A11D156
:10C5F00031B1012906D0022906D0032908D105E06E
:10C60000012070470120FCE70120FAE70120F8E74C
:10C610000120F6E70D2A09D111B1012904D101E069
:10C620000120EEE70120ECE70120EAE70020E8E73F
:10C6300030010010134802684FF08050D0F83411D8
:10C64000082A11D131B1012906D0022906D00329C7
:10C6500008D105E0012070470120FCE70120FAE73E
:10C660000120F8E70120F6E70D2A09D111B10129CF
:10C6700004D101E00120EEE70120ECE70120EAE728
:10C680000020E8E73001001070B504462046FAF7B4
:10C690001AFE05460DB1002070BD1120FCE710B553
:10C6A000044609B90E2010BD92FBF3F003FB1020E5
:10C6B00008B10920F7E7216000206060A060A28136
:10C6C000E38100BFEFE770B504460D4629462046DA
:10C6D000FAF7AEFD18B12A882168881870BD0020CD
:10C6E000FCE770B505460C4620886188884204D175
:10C6F0002846FAF7DFFD012070BD0020FCE770B589
:10C7000004460D4629462046FAF7B7FD18B16A8857
:10C710002168881870BD0020FCE770B505460C46FE
:10C7200020886188884204D12846FAF79DFD0120BF
:10C7300070BD0020FCE770B505460C4604F01F03F1
:10C7400001229A40D143620905EB820000F040F8D3
:10C75000064670BD10B50246480952F8200001F0A7
:10C760001F040123A340184008B1012010BD002080
:10C77000FCE770B505460C4604F01F03012202FADF
:10C7800003F1620905EB820000F04EF8064670BD29
:10C7900010B504460021204600F025F810BD10B564
:10C7A00004460121204600F03FF810BD10B50446B4
:10C7B0000121204600F022F810BDF8B504460D46D0
:10C7C0006A4629462046FAF7CAFD06460098F8BD93
:10C7D000F8B504460D466A4629462046FAF7A5FDF7
:10C7E00006460098F8BDF8B504460D466A46294647
:10C7F0002046FAF79AFD06463046F8BDF8B50446DD
:10C800000D466A4629462046FAF782FD064630461E
:10C81000F8BDF8B504460D466A4629462046FAF7A3
:10C820006BFD06463046F8BDF8B504460D466A462F
:10C8300029462046FAF76CFD06460098F8BDF8B583
:10C8400004460D466A4629462046FAF795FD0646F7
:10C850000098F8BDF8B50446002600200090684610
:10C86000FDF7CAF8206800686168884215D9206819
:10C870000068401E226810600178204600F033F8FE
:10C880000646207A21680978401AC5B220680079E6
:10C89000A84201DA2068057100BF9DF80000FDF78D
:10C8A000B1F83046F8BD0246D068081A138AB0FBCA
:10C8B000F3F0C0B27047F8B504460D462E4600208E
:10C8C00000906846FDF798F831462046FFF7EBFFE9
:10C8D00021680A68511C2368196010709DF80000D7
:10C8E000FDF790F8F8BD0246138AD06801FB0300FB
:10C8F000704710B5014600BF09B90E2010BD00BF3A
:10C90000087A0B79C01AC2B2D1E90030186005E08C
:10C9100008680368581C0C6820601A70101EA2F189
:10C920000103DAB2F4D10B68187100BFE6E730B545
:10C9300002460B46D40802F00702012090401D5D1C
:10C94000284030BD70B504460E4600BF0CB90E201D
:10C9500070BD00BFA661F72020806080FB202071A1
:10C96000002505E0A11D01EBC500FFF725FC6D1CAE
:10C97000022DF7D30020EBE72DE9F0470646884665
:10C980004546B488022C01DBBDE8F08730882428B6
:10C9900020D006DC102809D011280CD0232823D160
:10C9A0001DE03A280CD055281ED10EE0314628460D
:10C9B00003F0A4F819E03146284603F075F914E0B5
:10C9C0003146284603F0DEF90FE03146284603F0F1
:10C9D00075F90AE03146284603F0F2F805E03146E1
:10C9E000284603F017F900E000BF00BFA81D00EBC8
:10C9F000C400007918B3A81D30F834102046A5DF14
:10CA0000074657B90021A81D00EBC40001710121A0
:10CA1000A81D00EBC400417110E0112F0ED0384664
:10CA200002F016FA81460749074A891AC908012205
:10CA300042EA01404A4605A101F02EFB00BF00BFBB
:10CA4000A2E700000C2E0300042E030073645F6253
:10CA50006C655F67617474635F65786368616E6756
:10CA6000655F6D74755F72657175657374282920D3
:10CA700072657475726E65642025732E0000000067
:10CA8000F8B504460F463D4604B105B9F8BD208807
:10CA9000112801D1A68810E02088302804DB2088E6
:10CAA0004F2801DCA68808E02088502804DB208875
:10CAB0006F2801DCA68800E0E8E731462846FEF74B
:10CAC00072F900902888BDF80010884200D1DDE797
:10CAD000208811280BD14FF6FF70BDF8002069683F
