:020000040002F8
:1070000068780020DD730200E5730200E773020078
:10701000E9730200EB730200ED7302000000000050
:10702000000000000000000000000000EF730200FC
:10703000F173020000000000F3730200F573020018
:10704000597F0200F7730200F1820200F773020019
:10705000F7730200F77302008D7E0200F7730200DF
:107060007982020091820200A9820200F773020075
:10707000F7730200F7730200F7730200F773020060
:10708000F7730200AD7F0200F7730200F77302008E
:10709000F7730200F773020051800200F7730200D9
:1070A000F7730200F7730200C1820200D982020066
:1070B000F7730200F77302000000000000000000F8
:1070C000F7730200F7730200F7730200F773020010
:1070D000F7730200F7730200F7730200F773020000
:1070E000F773020000000000000000000000000034
:1070F00000000000F773020000000000F7730200B8
:10710000000000000000000000000000000000007F
:10711000000000000000000000000000000000006F
:10712000000000000000000000000000000000005F
:10713000000000000000000000000000000000004F
:10714000000000000000000000000000000000003F
:10715000000000000000000000000000000000002F
:10716000000000000000000000000000000000001F
:10717000000000000000000000000000000000000F
:1071800000000000000000000000000000000000FF
:1071900000000000000000000000000000000000EF
:1071A00000000000000000000000000000000000DF
:1071B00000000000000000000000000000000000CF
:1071C00000000000000000000000000000000000BF
:1071D00000000000000000000000000000000000AF
:1071E000000000000000000000000000000000009F
:1071F000000000000000000000000000000000008F
:10720000DFF80CD000F000FA00480047D1DD0200A2
:107210006878002000B583B002900091019244F29A
:10722000010071466A4602F029FB03B000BD000070
:1072300030B450E8012F93B2C48923448489A34217
:1072400028BF1B1B0489A34202BFBFF32F8F00205E
:1072500007E0C3EA020340E80134002CE9D14FF013
:1072600001000A6030BC704750E8012FC2EA0242B8
:1072700040E801210029F7D1704730B450E8022FCF
:107280001FFAA2F3C488A34202BFBFF32F8F0020CE
:107290000DE0C48923448489A34228BF1B1BC2EA92
:1072A000034340E80234002CE8D14FF001000A60AB
:1072B00030BC704750E8022FC2EA224240E8022167
:1072C0000029F7D17047034653E8022FD988B2EB63
:1072D000324F4FF0000017BF92B241EA014142EA3B
:1072E000014104E05A68B2EB324F08BF012043E885
:1072F0000212002AE8D1704730B4044654E8000F67
:107300000D4644E80053002BF8D1156030BC70479F
:1073100030B4044654E8000F40EA010544E8005345
:10732000002BF7D1156030BC704730B4044654E8E8
:10733000000F00EA010544E80053002BF7D1156067
:1073400030BC704730B4044654E8000F80EA0105B1
:1073500044E80053002BF7D1156030BC704730B4BF
:10736000044654E8000F00EB010544E80053002BED
:10737000F7D1156030BC704730B4044654E8000FB4
:10738000A0EB010544E80053002BF7D1156030BC99
:10739000704770B404464FF0000054E8006F0D6869
:1073A000AE4207BF44E80023012044E800630E60BA
:1073B000002B1CBF0020F0E770BC704730B40446BF
:1073C00054E8000F88422CBF451A054644E8005394
:1073D000002BF5D1156030BC70470000064880478F
:1073E00006480047FEE7FEE7FEE7FEE7FEE7FEE7AA
:1073F000FEE7FEE7FEE7FEE79D8002000172020065
:107400002DE9F05F0546002092469B4688460646D9
:10741000814640241BE0284641464746224600F06C
:107420002FF853465A46C01A914110D311461846B8
:10743000224600F016F82D1A67EB01084F46224647
:107440000120002100F00DF817EB00094E41201E2D
:10745000A4F10104DFDC484631462A464346BDE834
:10746000F09F202A04DB203A00FA02F10020704746
:107470009140C2F1200320FA03F319439040704772
:10748000202A04DB203A21FA02F00021704721FA79
:1074900002F3D040C2F120029140084319467047E0
:1074A000004870474860030040EA01039B0703D08F
:1074B00009E008C9121F08C0042AFAD203E011F833
:1074C000013B00F8013B521EF9D27047D2B201E0F5
:1074D00000F8012B491EFBD270470022F6E710B5D9
:1074E00013460A4604461946FFF7F0FF204610BD32
:1074F000421E12F8013F002BFBD111F8013B02F8AC
:10750000013B002BF9D17047421C10F8011B0029E8
:10751000FBD1801A704710B5002200E0521C835C3A
:107520008C5CA34201D1002BF8D1D8B2E1B2401A51
:1075300010BD30B504460020034600E05B1C9342BA
:1075400003D2E05CCD5C401BF8D030BD034611F89F
:10755000012B00F8012B002AF9D11846704730B5ED
:1075600005460020034600E05B1C934205D2EC5C1C
:10757000C85C201A01D1002CF6D130BD70B506468A
:1075800001F0E6FC046805460A220021304600F0BE
:1075900002F82C6070BD2DE9F04791460F468046F9
:1075A0000446002614F8015B2DB1FFF779FF00684F
:1075B000405DC007F6D12B2D02D02D2D18D0641EB2
:1075C0004A463946204600F031F827B13968A142D1
:1075D00001D1C7F8008071054FF002040BD540427D
:1075E000002803DD01F0B4FC0460A007BDE8F087CB
:1075F00046F48066E4E70028F8DA01F0A9FC0460AC
:107600006FF00040F2E70000064C074D06E0E0682E
:1076100040F0010394E8070098471034AC42F6D3D9
:10762000FFF7F2FD00730300207303002DE9F05F04
:1076300082460078002715468B460AF10104B946B8
:10764000302801D09DB113E014F8010B01277828F0
:1076500003D0582801D045B10AE00DB1102D07D153
:107660000027102514F8010B02E0082500E00A2588
:107670000026B0460EE005FB080005FB06F10127D9
:1076800001EB10461FFA80F8B6F5803F00D3B946EB
:1076900014F8010B294600F018F80028EBDABBF1CA
:1076A000000F05D00FB1641E00E05446CBF8004037
:1076B000B9F1000F06D001F04BFC02210160C81E99
:1076C000BDE8F09F48EA0640FAE73A2800D2303891
:1076D00020F02002412A01D3A2F13700884201D3D1
:1076E0004FF0FF30704770B58C1810F8015B15F043
:1076F000070301D110F8013B2A1106D110F8012B24
:1077000003E010F8016B01F8016B5B1EF9D12B0748
:1077100005D40023521E0DD401F8013BFAE710F8FE
:10772000013BCB1A921C03E013F8015B01F8015BEB
:10773000521EF9D5A142D8D3002070BD024611B126
:10774000012914D109E0002004E00A4B1B5C13540A
:10775000431CD8B21428F8DB0AE0002004E0054BF3
:107760001B5C1354431CD8B21428F8DB00E000BFA4
:1077700000BF70476457002010B512210448FFF77E
:10778000ACFE122102481230FFF7A7FE10BD000028
:107790006457002010B5024611B1012917D109E044
:1077A000002004E0135C0B4C2354431CD8B2122875
:1077B000F8D30DE0002007E002F112031C5C054B3A
:1077C00012331C54431CD8B21228F5D300E000BF7A
:1077D00000BF10BD6457002030B587B016A207CA9D
:1077E00004AB07C3002001900290039000241548C9
:1077F000FFF78AFE054629461248FFF76EFE04A9E8
:107800001048FFF7A3FE1048006B0A21B0FBF1F00F
:1078100084B222460DA101A801F086FB01A9094806
:10782000FFF766FE0748FFF76FFE06493E220A543F
:10783000084607B030BD00003C6164765F64656C4B
:1078400061793D00FC3B00200C58002025640000BD
:107850001FB512A207CA01AB07C30020009012484F
:10786000FFF752FE044621460F48FFF736FE01A9F6
:107870000D48FFF76BFE0D480DA14269684601F007
:1078800053FB69460848FFF733FE0748FFF73CFE05
:1078900005493E220A54084604B010BD3C61647696
:1078A0005F696E743D000000FC3B0020885700209B
:1078B000256400001CB50EA103C9CDE900010E48E6
:1078C000FFF722FE044621460B48FFF706FE6946F5
:1078D0000948FFF73BFE09490748FFF709FE06483C
:1078E000FFF712FE04493E220A5408461CBD000060
:1078F0003C6E616D653D0000FC3B00208857002018
:1079000010B5044608492046FFF720FE06484069A6
:10791000606105488069A0610348007F20770248C4
:10792000407F6077012010BD8857002010B588B0D7
:1079300013A30FCB04AC0FC400200190029003905E
:107940001348FFF7E1FD044621461148FFF7C5FD46
:1079500004A90F48FFF7FAFD0E48027F0EA101A807
:1079600001F0E2FA01A90A48FFF7C2FD0848FFF753
:10797000CBFD07493E220A54084608B010BD00005E
:107980003C6164765F74696D656F75743D000000DD
:10799000FC3B0020885700202564000010B588B00B
:1079A00013A30FCB04AC0FC40020019002900390EE
:1079B0001348FFF7A9FD044621461148FFF78DFD46
:1079C00004A90F48FFF7C2FD0E4890F91D200EA133
:1079D00001A801F0A9FA01A90948FFF789FD0848A3
:1079E000FFF792FD06493E220A54084608B010BD32
:1079F0003C73745F74785F706F7765723D00000050
:107A0000FC3B0020885700202564000010B507A12A
:107A10000B48FFF79BFD40200949486164208861BD
:107A2000002008770420487710BD00004A534438EE
:107A30003A31463A31433A39433A41433A313100D7
:107A4000885700202DE9FC41054600200090019058
:107A500000BF0F2780462846FFF756FDC01B00F0E9
:107A6000FF08002405E03819285C0DF80400601CAC
:107A7000C4B24445F7DB6846FFF780FD86B206EBEB
:107A800086004000074908630A6B0749074BC91A7B
:107A9000C908032343EA014005A108F043F9BDE802
:107AA000FC8100000C5800200074030030730300B8
:107AB0006164765F64656C61792069732025640078
:107AC0002DE9FC4105460020009001900D2600277D
:107AD0002846FFF719FD801BC7B2002405E03019C6
:107AE000285C0DF80400601CC4B2BC42F7DB684699
:107AF000FFF744FD074948614A690749074BC91A1E
:107B0000C908032343EA014005A108F00BF9BDE8C9
:107B1000FC810000885700200074030030730300CC
:107B20006164765F697476206973202564000000C3
:107B300038B500BF9DF8000020F00F00401C0090F9
:107B40009DF8000020F0F0001030009000BF0A48BF
:107B5000FFF7DAFC85B22A46074968467CDF04460F
:107B600000BF254635B100BF04A282212846FFF799
:107B700051FB00BF00BF38BD885700202E2E5C2E61
:107B80002E5C2E2E5C2E2E5C2E2E5C2E2E5C2E2E2F
:107B90005C757365725C757365725F6164762E6384
:107BA000000000002DE9FC410546002000900190F6
:107BB000112600272846FFF7A7FC801BC7B2002428
:107BC00005E03019285C0DF80400601CC4B2BC420A
:107BD000F7DB6846FFF7D2FC074908770A7F0749B9
:107BE000074BC91AC908032343EA014005A108F05D
:107BF00099F8BDE8FC81000088570020007403005C
:107C0000307303006164765F74696D656F7574200D
:107C100069732025640000002DE9FC410546002021
:107C2000009001900D2600272846FFF76DFC801B71
:107C3000401EC7B2A85D2B2811D100240CE03019DA
:107C4000401C285C0DF804006846FFF797FC40B222
:107C50001A494877601CC4B2BC42F0DB1FE0A85D43
:107C60002D2812D100240DE03019401C285C0DF89D
:107C700004006846FFF782FC404240B20F49487753
:107C8000601CC4B2BC42EFDB09E00D490D4A891A01
:107C9000C908032242EA01400BA108F039F807495C
:107CA00091F91D200649074BC91AC908032343EA65
:107CB000014007A108F036F8BDE8FC818857002094
:107CC00000740300307303006572726F720000006D
:107CD00074785F706F776572206973202564000087
:107CE00001480078704700001A3C002001490870E4
:107CF000704700001A3C002070B505460026284653
:107D0000FFF702FC0B38C6B214210D48FFF7E5FB64
:107D1000002406E004F10A00285C09490855601CAB
:107D2000C4B2B442F6DB0749074A891AC9080322DC
:107D300042EA0140024A05A107F0F4FF70BD0000CD
:107D40008857002000740300307303006E616D6576
:107D5000206973202573000010B5FFF7C1FFB0B193
:107D6000002412E00A48005D01280CD100210848D7
:107D7000015501F02DFD00F01BFF01F00BFC01F09F
:107D8000ADFC01F005FD601CC4B2082CEADB10BD9F
:107D90001458002010B514210148FFF79EFB10BDB8
:107DA000505700202DE9F04706460025B46947E00A
:107DB00014F80580681C14F80090B9F1030F06D080
:107DC000B9F1090F04D0B9F1FF0F34D101E032E06D
:107DD00031E0607913282DD1A079EE282AD1601DD9
:107DE00000F042F819491A4A891AC908052242EADC
:107DF000014018A107F08CFF00270DE01749CA5D6C
:107E00001249134BC91AC908052343EA014014A1BA
:107E100007F088FF781CC7B2A8F10100B842EDDC7A
:107E20000A490B4A891AC908052242EA01400DA1F4
:107E300007F06EFF00BF00BF08F10100054400BF5E
:107E4000B08BA842B4D80520BDE8F08700740300C9
:107E500030730300646174613A3078005057002039
:107E6000257800000A00000010B5044614222146BF
:107E70000148FFF719FB10BD50570020132102489D
:107E8000008876DF70470000343A00202DE9FC4777
:107E900000260020009001904FF4807701250024F7
:107EA00010E0384607F0B0FC40B100BF254800683C
:107EB000284018B1384607F099FC2E436D00381D54
:107EC00087B2641C082CECD34FF4BE7007F09CFC06
:107ED00050B14FF4BE7007F089FC46F000466A4688
:107EE0000221002007F018FCF0B210B30125002495
:107EF0001DE005EA0600C0B100BF134850F8240099
:107F0000C0F30520814600BF0F4850F82400C0F39D
:107F100001408246204603F0FDF98046B8F1000F8B
:107F200002D051464846C04700BF6D00641C082C73
:107F3000DFD306F0004010B168460AF053FDBDE8FB
:107F4000FC87000004630040106500400148007891
:107F500070470000443A002010B54FF4807006F0DE
:107F6000EBFE80B14FF4807006F0EFFE012006F0CA
:107F7000F5FE0D48407930B901200B49487108469B
:107F80000168002088474FF4827006F0D5FE50B19A
:107F90004FF4827006F0D9FE022006F0DFFE0248A0
:107FA00001680120884710BDCC3A002010B5034A73
:107FB0001068034A1168884710BD0000083B002084
:107FC000043B002010B500F009FF10BD2DE9F0477B
:107FD000074688461646C24607EB47011B4800EB9A
:107FE000C109D9F8140020B1012811D0022826D1E6
:107FF0001EE0484600F02AFF0546B54201D20024A3
:1080000005E0344632465146484600F066FF18E027
:10801000484600F01BFF0546B54201D2284600E065
:108020003046044622465146484600F056FF08E0D6
:1080300032465146484600F017FF044601E000244E
:1080400000BF00BF2046BDE8F0870000E0540020DC
:1080500010B508F03FFC10BD0148007870470000E3
:108060001B3C002001490870704700001B3C0020A9
:1080700010B506F03DFE0020FFF7F4FF10BD000034
:108080000149087070470000443A00200148024945
:10809000086070470090D003403E002010B506F005
:1080A00093F840B100206A4908604FF08041C1F860
:1080B00010016849086006F0B1F8002855D06648FC
:1080C0000068664908606448001D0068091D086072
:1080D000614808300068091D08605F480C3000687E
:1080E000091D08605C4810300068091D08605A4886
:1080F00014300068091D0860574818300068574957
:108100002031086054481C300068091D086052483E
:1081100020300068091D08604F4824300068091DA0
:1081200008604D4828300068091D08604A482C3016
:108130000068091D086048483030006847494031F0
:108140000860454834300068091D086042483830EE
:108150000068091D086040483C300068091D08603F
:108160003D4840300068091D086006F003F840B142
:108170003B48006800F0010018B16FF00100384979
:1081800008603848006840F470003649086000BF55
:1081900000BF00BFBFF34F8F00BF00BF00BF00BFD5
:1081A00000BF00BFBFF36F8F00BF00BF00BF2E48EE
:1081B000006800F0004030B92B48001D006800F056
:1081C0000040002840D001202849086000BF28480E
:1081D00000680028FBD012202349086000BF244813
:1081E00000680028FBD012211F48001D016000BF5D
:1081F0001F4800680028FBD000201C49086000BF11
:108200001B4800680028FBD000BF00BF00BF00BFB4
:1082100000BFBFF34F8F00BF00BF00BF11487C38C5
:10822000006800F4E06013490843001D0D497C39E3
:10823000086000BF00BF00BFBFF34F8F00BF00BF8B
:1082400000BF00BF00BFFDE7FFF720FF10BD00002B
:108250000C010040380500400404001020C5004017
:108260000004004088ED00E00012001004E5014029
:1082700000E401400000FA0510B504220249034859
:1082800005F0F5F910BD0000744C0020008000409E
:1082900010B504220249034805F0E9F910BD0000B9
:1082A000804C00200090004010B504220249034891
:1082B00005F0DDF910BD00008C4C002000A000404E
:1082C00010B506220249034805F0D1F910BD00009F
:1082D000984C002000A0014010B506220249034836
:1082E00005F0C5F910BD0000A44C002000B001400D
:1082F00010B502490868804710BD0000D43A00203C
:1083000010B50446207830B101282DD0022818D0AD
:10831000042847D13BE00120244908702448007814
:108320001E280DDA2349244A1278881801F074FCBB
:1083300021480078401C2049087000201C49087022
:1083400031E01E491E4A891AC908032242EA014047
:108350001CA107F0DDFC00BF25A24FF4BE716068D0
:10836000FEF758FF00BF1EE01449154A891AC908D4
:10837000032242EA014022A107F0CAFC00BF1CA26E
:108380004FF4C1716068FEF745FF00BF0BE00B4979
:108390000B4A891AC908032242EA014020A107F0CA
:1083A000B7FC00E000BF00BF10BD0000D03B0020C4
:1083B000D83B0020DA570020483C0020007403001E
:1083C00030730300404075617274204150505F5516
:1083D0004152545F434F4D4D554E49434154494FCF
:1083E0004E5F4552524F52206572726F720000000C
:1083F0002E2E5C2E2E5C2E2E5C6D61696E2E63001F
:1084000075617274204150505F554152545F464926
:10841000464F5F4552524F52206572726F72000094
:1084200075617274204150505F554152545F444110
:108430005441206572726F720000000030B58BB03D
:108440001822124905A8FFF72FF800BF1048019025
:108450004FF4807002900F4803904FF480700490A6
:1084600007230D4A01A905A801F022FC044600BF1C
:1084700000BF25463DB100BF08A240F25321284667
:10848000FEF7C8FE00BF00BF0BB030BD2C5A030082
:108490008445002084460020018302002E2E5C2E9D
:1084A0002E5C2E2E5C6D61696E2E630070B50546E4
:1084B0000E46002404E0285D01F068FC601CC4B294
:1084C000B442F8DB70BD00000146002006E0002346
:1084D000044A02EB81021354421CD0B20428F6DB9A
:1084E000704700004058002070B505460C46FC4916
:1084F0002046FFF710F850B9FFF7C0FCF948FFF726
:1085000003F886B23146F748FFF7D0FFDEE1F649BF
:108510002046FFF700F8A0B9FFF718FD40B1F34877
:10852000FEF7F2FF86B23146F048FFF7BFFFCDE11C
:10853000EF48FEF7E9FF86B23146ED48FFF7B6FF98
:10854000C4E1EC492046FEF7E6FF50B9FFF790FD85
:10855000E448FEF7D9FF86B23146E248FFF7A6FFAE
:10856000B4E1E5492046FEF7D6FF50B90BF0F0F82C
:10857000DC48FEF7C9FF86B23146DA48FFF796FFBE
:10858000A4E1DE492046FEF7C6FFA0B9FFF764FD6F
:1085900040B1DB48FEF7B8FF86B23146D848FFF756
:1085A00085FF93E1D748FEF7AFFF86B23146D54845
:1085B000FFF77CFF8AE10A22D3492046FEF7CFFF6E
:1085C00098B9C848FEF7A0FF86B23146C548FFF704
:1085D0006DFF01F0FDF82046FFF78EFBFFF7A8FACC
:1085E00001F07CF801F0D4F870E1C8492046FEF7AC
:1085F00092FF58B9FFF75EF905462846FEF784FF5B
:1086000086B231462846FFF751FF5FE10D22C0498F
:108610002046FEF7A4FF88B901F0DAF82046FFF7FC
:108620004FFA01F05BF801F0B3F8AE48FEF76CFFCB
:1086300086B23146AB48FFF739FF47E1B5492046DE
:10864000FEF769FF58B9FFF703F905462846FEF71C
:108650005BFF86B231462846FFF728FF36E10F223E
:10866000AD492046FEF77BFF58B92046FFF7EAF9EF
:108670009C48FEF749FF86B231469A48FFF716FF3D
:1086800024E1A6492046FEF746FF58B9FFF7A4F8B3
:1086900005462846FEF738FF86B231462846FFF7E2
:1086A00005FF13E111229E492046FEF758FF88B9C5
:1086B00001F08EF82046FFF775FA01F00FF801F08F
:1086C00067F88848FEF720FF86B231468548FFF7F5
:1086D000EDFEFBE093492046FEF71DFF58B9FFF77A
:1086E00025F905462846FEF70FFF86B23146284693
:1086F000FFF7DCFEEAE08C492046FEF70CFF68B984
:108700007848FEF701FF86B231467648FFF7CEFE85
:108710000A2006F02DFB01F05BF8D7E083492046E4
:10872000FEF7F9FE68B96F48FEF7EEFE86B23146F5
:108730006C48FFF7BBFE0A2006F01AFB01F028F890
:10874000C4E07B492046FEF7E6FEA0B9FFF7C8FA71
:1087500040B17848FEF7D8FE86B231467548FFF73B
:10876000A5FEB3E07448FEF7CFFE86B231467248EC
:10877000FFF79CFEAAE071492046FEF7CCFE40B907
:108780005848FEF7C1FE86B231465648FFF78EFEC6
:108790009CE06B492046FEF7BEFE40B95148FEF70B
:1087A000B3FE86B231464F48FFF780FE8EE0654942
:1087B0002046FEF7B0FE40B94A48FEF7A5FE86B255
:1087C00031464848FFF772FE80E05F492046FEF7D9
:1087D000A2FE40B94348FEF797FE86B231464148B3
:1087E000FFF764FE72E00D2258492046FEF7B7FEFF
:1087F00088B900F0EDFF2046FFF70EFA00F06EFF9B
:1088000000F0C6FF5248FEF77FFE86B23146504860
:10881000FFF74CFE5AE04F492046FEF77CFE58B960
:10882000FFF7BCF805462846FEF76EFE86B23146D5
:108830002846FFF73BFE49E047492046FEF76BFE1E
:1088400048BB2848FEF760FE86B231462548FFF750
:108850002DFE4FF4FA7006F08BFA00BF00BF00BF88
:1088600000BF00BFBFF34F8F00BF00BF00BF3B483A
:10887000006800F4E0603A490843001D3749086089
:1088800000BF00BF00BFBFF34F8F00BF00BF00BFDE
:1088900000BF00BFFDE733492046FEF73CFE20B98C
:1088A000042131A0FFF702FE10E00C2230492046DF
:1088B000FEF755FE50B90020FFF706FE0948FEF707
:1088C00023FE86B231460748FFF7F0FD1F21204600
:1088D000FEF703FE1F212846FEF7FFFD70BD0000D6
:1088E000493C0020D43D0020563C0020D93D0020CA
:1088F000E53D0020663C0020723C00207F3C0020CB
:10890000F13D0020013E00208C3C0020983C0020DE
:10891000A43C0020B33C0020C23C0020D33C0020FB
:10892000E43C0020F73C00200A3D0020153D0020DB
:10893000213D0020223E0020313E00202D3D002020
:10894000403D0020533D00206C3D0020853D00202F
:10895000113E0020943D0020A43D00200CED00E0DD
:108960000000FA05BA3D002056312E30000000000C
:10897000C63D00202DE9F04781460D460024002722
:10898000A0460026A878801C00F0FF0AA878C1172E
:1089900000EB917189102B4A82F85410114691F81E
:1089A00054202949294BC91AC908032343EA014025
:1089B00027A107F0B7F904E0012022498855701C6F
:1089C000C6B22048805D08B9082EF5DB2DE01D48B1
:1089D000343010F8240030BB1A48343000EB8400E7
:1089E000407800BB1748343000EB84008078D0B961
:1089F0001448343000EB8400C078A0B900270DE0A3
:108A000008F10300295C0F48343000EB8400C155A5
:108A100008F1010000F0FF08781CC7B2042FEFDB5B
:108A2000D04500D103E0601CC4B2082CCFDB00BFEE
:108A300014212846FEF751FD14214846FEF74DFD4E
:108A4000BDE8F0870C580020007403003073030069
:108A500054686520756172745F646174612E6C6521
:108A60006E6774682069732025640000F8B50026DD
:108A70002B4806782B480078002850D12A480078E7
:108A800001284CDD132E09D03C2E23D12449274840
:108A9000FFF72AFD0020244908703FE02449254AB9
:108AA000891AC908032242EA014023A107F030F9DC
:108AB0001B491E48FFF75EFF00F07AF800F088FEC1
:108AC00000F068FD00F00AFE00F062FE002016498A
:108AD000087023E000BF144800780090194803880C
:108AE0006A460F49184802F0E1F90446082C0FD0F5
:108AF000132C0DD0052C0BD000BF25463DB100BF77
:108B000012A24FF42A712846FEF784FB00BF00BF73
:108B1000132CE0D000200449087000BF00BFF8BD4E
:108B2000DA570020D03B0020483C0020A857002006
:108B30000074030030730300484541445F444154CE
:108B400041000000343A0020183A00202E2E5C2EFE
:108B50002E5C2E2E5C6D61696E2E630010B50020B8
:108B60001249086308460021016041608160C160CC
:108B700020211030FEF7B1FC20210C483430FEF7E4
:108B8000ACFC0020094981F8550081F8540002200E
:108B9000FFF79AFC002405E0EE2104483C30015523
:108BA000601CC4B2042CF7DB10BD00000C58002080
:108BB00070B58AB000240025002600BF0FE0002514
:108BC00009E0104800EB8400405D01A98855701C45
:108BD000C6B2681CC5B2042DF3DB601CC4B2042C01
:108BE000EDDB0949094A891AC908032242EA014012
:108BF00007A107F08DF8002101A8FEF7CBFD0AB010
:108C000070BD000040580020007403003073030062
:108C1000556172745F446174615F5472616E736612
:108C20006572000070B504460D46B4F5A07F09D00A
:108C3000B4F5A27F11D0B4F5A47F14D0B4F5A67F0B
:108C400025D111E01349144A891AC908032242EABE
:108C5000014012A107F05CF81AE013480068401CBC
:108C60001149086014E013E01048007801280DD184
:108C70000F480078401C0E490870084600781E28EE
:108C800004DD0020094908700949087000E000BFB0
:108C900000BF70BD007403003073030074696D651C
:108CA0007220494E54300000D43B0020D03B0020BD
:108CB000D83B002030B58BB000243B4B0FCB07AD29
:108CC0000FC53949103103C9CDE90101374A01A95E
:108CD000374808F0E7F8044600BF254635B100BF25
:108CE00034A2B4212846FEF795FA00BF00BF2F4AF0
:108CF00001A92F48083008F0D5F8044600BF2546E2
:108D000035B100BF2BA2B6212846FEF783FA00BF7B
:108D100000BF264A01A92648103008F0C3F80446CF
:108D200000BF254635B100BF22A2B8212846FEF774
:108D300071FA00BF00BF1E48089908F031F904908D
:108D40001B480830099908F02BF905901848103095
:108D50000A9908F025F906900120009002230146A7
:108D60001348049A08F07CF80120009004230221A3
:108D70000F480830059A08F073F801200090082386
:108D800003210B481030069A08F06AF8084808F0EA
:108D900055F80748083008F051F80548103008F039
:108DA0004DF80BB030BD0000A05F0300258C020021
:108DB000E43B00202E2E5C2E2E5C2E2E5C2E2E5C94
:108DC0002E2E5C2E2E5C2E2E5C757365725C757378
:108DD00065725F74696D65722E63000010B5124C88
:108DE00002202061606111A0A0611349E1614FF48C
:108DF000007121620021A1626162E1620BA0A064A6
:108E00000E49E164102121650021A1656165E165DC
:108E10000BA1E01DFEF79AFB0AA12046FEF796FB88
:108E20002020A07110BD0000C85400205465726D50
:108E3000696E616C00000000405500204057002022
:108E400052545400534547474552000010B501465F
:108E50000A69CB689A4204D88C68641EE41AA01888
:108E600001E0D41A601E10BD2DE9F0470446894682
:108E700017464FF0000AE56800BFD4F81080A845F7
:108E800003D9A8EB0500461E04E0A5EB0800401C32
:108E9000A1680E1AA068401BB04201D9304601E01B
:108EA000A068401B0646BE4201D2304600E038466C
:108EB00006466168481932464946FEF7F5FAB2445B
:108EC000B144BF1B3544A068A84200D10025E5602D
:108ED000002FD2D15046BDE8F0872DE9F047044677
:108EE00089461546E668A068871BAF4208D96168C5
:108EF00088192A464946FEF7D7FA7019E06010E053
:108F0000B8466168881942464946FEF7CDFAA5EB96
:108F1000070809EB070142466068FEF7C5FAC4F886
:108F20000C80BDE8F08700000FB4084B10B504A911
:108F300002AA039800F042F8044602A9002000F0BB
:108F40006EFA204610BC5DF814FB00001F9402006E
:108F500000487047443E002002E008C8121F08C1C4
:108F6000002AFAD170477047002001E001C1121FAA
:108F7000002AFBD1704700000146202908DA0120B1
:108F800088400A4A104008B1012070470020FCE7E1
:108F9000402909DAA1F12000012202FA00F008B10B
:108FA0000120F2E70020F0E70120EEE7FC06FFBD1C
:108FB00000BFEFF31081084672B670472DE9FF4FEE
:108FC0008DB00F460546002606E025280BD0DDE9CA
:108FD0000F1290476D1C761C28780028F5D111B02F
:108FE0003046BDE8F08F0024A246A1460122EC499C
:108FF00000E0044315F8013F203B02FA03F0084269
:10900000F7D128782A2810D06FF02F022878A0F105
:109010003001092914D80AEB8A0102EB410144F01E
:10902000020400EB010A6D1CF0E701CF5FEA000AC1
:1090300003D544F40054CAF1000A44F002046D1C44
:1090400028782E2817D115F8010F44F004042A2897
:109050000ED06FF02F022878A0F1300109290AD82C
:1090600009EB890102EB410100EB01096D1CF2E7FC
:1090700057F8049B6D1C28786C280FD006DC4C2810
:1090800017D068280DD06A2814D104E0742810D0B5
:109090007A280FD10DE044F400140AE044F480145F
:1090A00001E044F440146978814202D104F580144F
:1090B0006D1C6D1C2A786E2A1FD00CDC632A31D0FF
:1090C00004DC002A8BD0582A11D1A3E0642A68D08E
:1090D000692A0CD165E0732A2ED004DC6F2A73D084
:1090E000702A04D19BE0752A6FD0782A6ED0104682
:1090F000DDE90F129047761C50E1C4F302500228BC
:1091000006D0032809D0042801CF09D0066045E124
:1091100001CFF117C0E9006140E101CF06803DE1D8
:1091200006703BE117F8040B8DF8000000208DF865
:109130000100EB46012003E057F804BB4FF0FF307D
:1091400061074FF0000102D40DE008F101018846EB
:1091500049450FDA8045F8DB1BF808100029F4D1E7
:1091600008E008F1010188468142FADB1BF808108B
:109170000029F6D1DDE90F23AAEB0800814621463C
:1091800000F036F9304400EB080604E0DDE90F1288
:109190001BF8010B9047B8F10108F7D22146484669
:1091A000F7E00A21C4F302534FF0000B0891022BA1
:1091B00004D001CFC117032B09D00AE0FF1D27F00F
:1091C0000707F7E8020108E032E01FE020E000B204
:1091D000C117042B01D140B2C117031E71F1000366
:1091E00007DA4FF0000CD0EB0C006CEB01012D23E3
:1091F00002E0230504D52B238DF82430012303E05E
:10920000E30701D02023F7E7984658E00A2110E051
:1092100010210EE010204FF0000B08900CE0102100
:109220004FF0000B44F004044FF00809089103E0EC
:1092300008214FF0000B0891C4F30253022B04D015
:1092400001CF0021032B06D006E0FF1D27F0070702
:10925000F7E8020103E080B2042B00D1C0B24FF066
:10926000000823072BD5702A07D0DDF820C08CF02A
:10927000100C5CEA0B0C05D00EE040238DF8243076
:10928000012308E050EA010306D030238DF8243092
:109290008DF8252002239846DDF820C08CF0080CBC
:1092A0005CEA0B0C0BD150EA010301D1630706D530
:1092B00030238DF824304FF00108A9F10109582A14
:1092C00004D038A20B9208AA0A920BE03AA2F9E75E
:1092D0005B46089AFEF794F80B9B9B5C0A9A521E19
:1092E0000A92137050EA0102F2D10A98ADEB000025
:1092F00000F1200B600702D524F4803401E04FF028
:109300000109D94502DDA9EB0B0000E0002000EBCC
:109310000B0141440890AAEB010AE00306D4DDE901
:109320000F232146504600F063F806444FF0000931
:1093300008E009A911F80900DDE90F12904709F1C9
:109340000109761CC145F4DBE0030CD5DDE90F23F0
:109350002146504600F04CF8064404E0DDE90F12C7
:1093600030209047761C0899481E08900029F5DCAB
:1093700008E00A980A990078491C0A91DDE90F1261
:109380009047761CBBF10001ABF1010BF1DC2146EB
:109390005046DDE90F2300F019F806446D1C1BE66A
:1093A00009280100303132333435363738396162BB
:1093B000636465660000000030313233343536377F
:1093C0003839414243444546000000002DE9F04150
:1093D000044600251E461746880404D405E0394695
:1093E0002020B0476D1C641EF9D52846BDE8F081E9
:1093F0002DE9F041044600251E469046C80301D5DC
:10940000302700E02027880404D505E0414638468F
:10941000B0476D1C641EF9D52846BDE8F0810A6886
:10942000531C0B601070704770B505460C4605B1B3
:109430000CB9002070BD287840082178B0EB510F9E
:1094400001D00020F6E70622611C681CFEF771F8C7
:1094500008B90120EEE70020ECE7014601F0030027
:1094600008B9012070470020FCE7024650680068F8
:10947000401E084008B9012070470020FCE7024662
:10948000002104E0505C08B101207047491C062906
:10949000F8D30020F9E710B50346D868884206D80B
:1094A0008818401E1C69A04201D8012010BD002070
:1094B000FCE7000010B504466CB10848C068A04243
:1094C00009D806480069A04205D3204604F05EF999
:1094D00008B1012010BD0020FCE70000483E00203C
:1094E00070B504460D4604F22740FFF7C8FF064654
:1094F000012D06D0022D0DD0032D11D0042D19D130
:1095000013E0A07928B194F8240010B90EB101201D
:1095100070BD00BFE07910B10EB10220F8E700BFC6
:10952000207A08B10320F3E700BF607A08B1042075
:10953000EEE700BF0020EBE70146481C052290FB48
:10954000F2F302FB1300C0B270472DE9F047044666
:109550000D462F4695F82080B4F81C9000260BE0AD
:1095600007EB46124946A06900F01CFF10B101202C
:10957000BDE8F087701CC6B24645F1DB0020F7E776
:10958000014691F82420012A01D1EE2000E01F209D
:109590007047000030B5ABB0002104A8FEF7CEF84C
:1095A00041F2EF30ADF8040004A903911220ADF8A8
:1095B00008003C211CA8FDF790FF3C210DA8FDF7F9
:1095C0008CFF00208DF8720001A8259006208DF8F0
:1095D00073000120ADF844000C49129102208DF86F
:1095E00034000DAA1CA90A4800F0ADFF044600BFD4
:1095F00025463DB100BF07A24FF41F712846FDF775
:1096000009FE00BF00BF2BB030BD0000D8390020DC
:10961000FC3F00202E2E5C2E2E5C2E2E5C6D616990
:109620006E2E63002DE9F05F06460C4604F1220A17
:1096300094F82C502A2010F804904FF00008B6F847
:109640001CB0002710E00AEB87025946B06900F011
:1096500012FF28B108F1010000F0FF0815B905E07C
:1096600005B103E0781CC7B24F45ECDB00BF0DB17C
:10967000C84503D02DB9B8F1000F02DD0120BDE8C7
:10968000F09F0020FBE710B501220221002001F02D
:1096900037FD044600BF1CB1072C01D0204610BD89
:1096A00000BF07220221012001F02AFD044600BF6D
:1096B0001CB1072C01D02046F1E700BF0A2200218F
:1096C000084601F01DFD044600BF1CB1072C01D067
:1096D0002046E4E700BF0020E1E7000030B5BFB05E
:1096E000002136A8FEF72AF84EF61370ADF8CC002C
:1096F00036A933A881601220ADF8D0006846FEF785
:10970000FFF8AC2108A8FDF7E8FE00208DF8220044
:1097100006208DF823000DF11D00099033A811904B
:1097200002208DF85C000121ADF86C1011491C91EC
:1097300001218DF89C1005992A919DF81C102B9100
:109740000D48319008A90D4800F063FF044600BFA2
:1097500025463DB100BF0AA24FF4FF712846FDF730
:1097600059FD00BF00BF0121044800F04FFF3FB08A
:1097700030BD0000D8390020D1150300FC3F002087
:109780002E2E5C2E2E5C2E2E5C6D61696E2E63007B
:1097900070B50321094800F0DEFF044600BF2546EE
:1097A0003DB100BF06A240F206212846FDF732FD7A
:1097B00000BF00BF0120FEF799FA70BDFC3F0020FA
:1097C0002E2E5C2E2E5C2E2E5C6D61696E2E63003B
:1097D00070B50A4991F8540074DF044600BF25466D
:1097E0003DB100BF06A240F20F212846FDF712FD51
:1097F00000BF00BF0020FEF779FA70BDFC3F0020DB
:109800002E2E5C2E2E5C2E2E5C6D61696E2E6300FA
:1098100070B58CB004460D461646002005E0C0F138
:109820000F01615C0DF80010401C1028F7D30D21CA
:1098300004A8FDF752FE002005E02A5CC0F10F03EA
:1098400004A9CA54401C0328F7D3684646DF002009
:1098500005E0C0F10F0208A9895C3154401C0328BF
:10986000F7D30CB070BD000010B504460248017873
:10987000204601F0F3F810BD9F3A00202DE9FE4389
:1098800007460E46144672B600BF06F035FB00BF11
:1098900000BF06F0AFF80028FBD100BF00BF012FCA
:1098A0000CD06FF48050384498B1B0F5405F2CD0A4
:1098B0006FF440510844002847D115E03149324A3D
:1098C000891AC908012242EA014030A106F020FAB3
:1098D00047E02C492C4A891AC908012242EA014072
:1098E00032A106F015FA3CE025462649DFF898C07B
:1098F000A1EB0C01C9084FF0010C4CEA014034A166
:10990000D5E9003206F01AFA2BE02546A86807F0E0
:10991000F1F88046D5E900108DE8430019491A4B4B
:10992000C91AC908012343EA014043462FA1AA6886
:1099300006F028FA1349144A891AC908012242EA92
:10994000014034A106F0E4F90BE00E490E4A891AF1
:10995000C908012242EA0140324633A106F0E2F989
:1099600000BF00BF00BF3648006800F0010000B132
:1099700000BE00BF22463146384600F063F8BDE81D
:10998000FE8300000074030030730300534F4654FD
:109990004445564943453A20415353455254494F53
:1099A0004E204641494C454400000000534F465468
:1099B0004445564943453A20494E56414C49442076
:1099C0004D454D4F525920414343455353000000EC
:1099D000415353455254494F4E204641494C45440A
:1099E0002061742025733A25750000004552524FBE
:1099F00052202575205B25735D2061742025733A04
:109A000025750D0A50432061743A2030782530388E
:109A100078000000456E64206F66206572726F7278
:109A2000207265706F727400554E4B4E4F574E202A
:109A30004641554C54206174203078253038580008
:109A4000F0ED00E018B5012300939DF800301E4BA7
:109A5000186059609A606FF48043034463B1012B2E
:109A600019D1194BDA60DB681B68174CA3612346D8
:109A7000DB685B68E3610EE0134B1A611B699B684E
:109A8000114C636123461B691B68A36123461B6954
:109A90005B68E36100BF00BF0B4B1B680A4B5B6850
:109AA000094B9B68084BDB68074B1B69064B5B69DE
:109AB000054B9B69044BDB6972B600BF9DF8003013
:109AC000002BFBD162B618BDB04C002070B5044627
:109AD0000D46204602F0EEFB28B12946204602F052
:109AE000DDFB002070BD0520FCE7034609B90E2010
:109AF000704712B1501E104008B10920F8E71960F4
:109B0000501E988000209860D86000BFF0E770B5C4
:109B100004460D46204602F0CDFBA188884205D8B8
:109B20002946204602F0D9FB002070BD0420FCE746
:109B300010B5024801F0F2FF10BD0000E03A00202D
:109B400010B503460C460AB9072010BD19684A61D2
:109B5000012C01D1012000E0002008610020F4E781
:109B600038B513480068009008235822114912485C
:109B7000006804F088FB04460CB1204638BD0F4A4B
:109B800069460F4801F0D0FF04460CB12046F5E7C6
:109B900001210B4802F06EF801230A4A19460848D1
:109BA00001F08EFF0120084908702046E6E700001A
:109BB000805C0300D04C0020705C0300473403003D
:109BC000E03A0020FFFF7F00EC3A00202DE9F04151
:109BD00006460D4617463446207F10B10020BDE8EA
:109BE000F081A76103F018F8401941F10001C4E9C0
:109BF0000201206900B12561214600200AF0E0FF42
:109C0000EDE770B504462546002028772946012057
:109C10000AF0D6FF70BD00002DE9F041044610485F
:109C2000077821460F48FFF751FF8046A7B1002073
:109C30000B49087001220C490C4805F035F905461E
:109C400000BF2E4636B100BF09A2D6213046FDF72F
:109C5000E1FA00BF00BF00BF4046BDE8F081000050
:109C60006E3B0020F04E00206D3B0020543B002056
:109C70002E2E5C2E2E5C2E2E5C2E2E5C2E2E5C2E1E
:109C80002E5C2E2E5C636F6D706F6E656E74735CF0
:109C90006C69627261726965735C756172745C6132
:109CA00070705F756172745F6669666F2E63000025
:109CB0002DE9F04188B004460E46174698462B48D9
:109CC00007601EB9072008B0BDE8F081B08882B2F5
:109CD00027483168FFF709FF054600BF284600B155
:109CE000F1E700BFB08982B22248B168FFF7FDFEFC
:109CF000054600BF284600B1E5E700BF20221E4907
:109D00006846FDF7D1FB60690690207C08B1012010
:109D100000E000208DF814008DF81C80607C08B1F4
:109D20000E2000E000208DF81500E0680290A06889
:109D300003902068019060680090104A69461048BE
:109D400005F06CF8054600BF284600B1BBE700BF30
:109D500000200C4908702068401C28B101220A49E3
:109D6000074805F0A1F8AEE70020ACE7683B00200B
:109D7000F04E0020004F0020B05E0300D54C0300E1
:109D8000543B00206E3B00206D3B00202DE9F0414C
:109D9000054629461448FFF7BAFE064606BB134C93
:109DA000002720781249085C20B1201D07F08EFBA7
:109DB000074608E020780E49085C20B904F10C0041
:109DC00007F02CFA074600BF57B90A490648FFF7C3
:109DD0007DFE28B901220749044805F087F80646A8
:109DE0003046BDE8F0810000004F0020543B0020C9
:109DF000C83A00206C3B002010B50446204609F00C
:109E000055FD10BD70B5044625460E488068B0B1BA
:109E1000ADB9FFF7CDF806460A4800680A49086060
:109E2000084840684FF0E021C1F8040100200549CE
:109E300088601EB900BF62B600BF00BF00BF00BF90
:109E400070BD0000384D002000E100E0F8B5054687
:109E50000C4617462088001DB84201D90C20F8BDD9
:109E6000684679DF064600BF304600B1F7E700BF1D
:109E70000320218868542088401C208019202188D4
:109E800068542088401C208020884119BDF80000BB
:109E90000BF012F92188084420800020DFE770B51C
:109EA00005460C462068401C28B1206805F07EFC61
:109EB000206805F0FBFB6068401C18B10021606859
:109EC00005F0DAFB2868A169C0F8241500BF617DA0
:109ED000227D286841EA0203C0F86C3500BFD4E94E
:109EE0000012286806F062FE207D012814D1A068C7
:109EF000401C18B10021A06805F0BEFBE068401CC2
:109F000028B1E06805F052FCE06805F0CFFBD4E929
:109F10000221286806F032FE70BD70B505460C4679
:109F20002068401C28B1206805F04DFC206805F031
:109F3000C9FB6068401C18B10021606805F0A9FBEE
:109F40002868A169C0F8241500BF617D227D2868BA
:109F500041EA0203C0F86C3500BFD4E9001228685A
:109F600006F05EFE207D012814D1A068401C18B1C7
:109F70000021A06805F08DFBE068401C28B1E06876
:109F800005F021FCE06805F09DFBD4E9022128687A
:109F900006F027FE70BD70B504460D46204603F05E
:109FA00095FD70BD10B50446637903F00302217975
:109FB000208803F049FD10BD10B50446207918B97A
:109FC000204600F007F803E02046FFF7EBFF00BF54
:109FD00000BF10BD2DE9FE4307463E884FF0000844
:109FE000002259480178304600F04EFD7879C0F3E0
:109FF000800028B90021384607F050FFBDE8FE83F5
:10A0000006F5807188B201AB0122072108F022F821
:10A010000546C5B1284606F06DFD81464B494C4AC0
:10A02000891AC908012242EA014033464A46494991
:10A0300005F084FE2946304609F00EFF002138461F
:10A0400007F02CFFDAE7304603F0E8F804464FF655
:10A05000FF718C421BD1029803F030F804464FF692
:10A06000FF70844213D02146304603F0B5F83046E5
:10A07000FFF7FAFB58B9304609F082FE3046FFF789
:10A08000F3FB20B90021384607F008FFB6E74FF68A
:10A09000FF7084421FD108F09BF904464FF6FF7011
:10A0A000844212D129492A4A891AC908012242EA5E
:10A0B000014029A105F02CFE0421304609F0CCFE18
:10A0C0000021384607F0EAFE98E72146304603F0C3
:10A0D00083F84FF0010806F5807188B22246072107
:10A0E00008F040F8054625B90121384607F0D6FEAC
:10A0F00028E0862D07D1304609F074FE012138464C
:10A1000007F0CCFE1EE0284606F0F4FC81460F491D
:10A110000F4A891AC908012242EA014033464A46D9
:10A120001A49009405F01AFE2946304609F094FEBB
:10A130000021384607F0B2FEB8F1000F02D02046E9
:10A1400003F054F800BF59E79C3A002088730300DD
:10A150003073030054670300436F756C64206E6FA7
:10A160007420616C6C6F63617465206E657720701C
:10A170006565725F696420666F7220696E636F6DDA
:10A18000696E6720626F6E642E00000070680300C5
:10A19000002114E00C48D0F81024012308E000BF8F
:10A1A000D0680079884201D1002303E0D0680268BA
:10A1B000002AF4D100BF0BB108467047491C0A2998
:10A1C000E8DB4FF0FF30F8E7A85000202DE9F04120
:10A1D00004460F46154615B90E20BDE8F081002053
:10A1E000286000BF0CB90E20F7E700BF00BF206851
:10A1F00008B90E20F1E700BF00BFE088C11700EBEF
:10A2000091718910A0EB810109B10720E5E700BF3A
:10A21000384600F0A9FBC6B2142E01D10520DCE7B8
:10A220002079B04201DC0420D7E7E188206806FBF2
:10A23000010028600020D0E72DE9FC410546884652
:10A240001646002437880020308095F82D0058B13C
:10A250003A463146404600F03BFC044600BF2046EB
:10A2600008B1BDE8FC8100BFA87850B13A4631463C
:10A270004046FFF7EBFD044600BF204600B1F0E783
:10A2800000BFE87860B1E97848B23B4632464146C3
:10A2900002F05AF8044600BF204600B1E1E700BFD3
:10A2A000686868B1696891F900003B4632464146EA
:10A2B0000AF0F5FC044600BF204600B1D1E700BF1C
:10A2C000288900280EDD43460622022105F10800F8
:10A2D000CDE900670AF0E8FF044600BF204600B160
:10A2E000BFE700BF288A00280EDD4346072203216E
:10A2F00005F11000CDE900670AF0D6FF044600BF63
:10A30000204600B1ADE700BF288B00280EDD434694
:10A310001522142105F11800CDE900670AF0C4FFE9
:10A32000044600BF204600B19BE700BF286A58B131
:10A330003B4632464146286A01F0AAF9044600BF6E
:10A34000204600B18DE700BF686A58B13B463246EF
:10A350004146686A03F076FD044600BF204600B11E
:10A360007FE700BF95F82C0000280BDD3B46324606
:10A370004146284609F024FF044600BF204600B1AC
:10A380006FE700BF287858B13B4632464146284621
:10A3900003F047FE044600BF204600B161E700BF5E
:10A3A00020465EE72DE9F84306468846154600201C
:10A3B00000900DB9BDE8F88309236A46414630464E
:10A3C00000F02BF80446BDF800003718BDF8000077
:10A3D00068B164B12846FDF797F8A04207D122463C
:10A3E00039462846FDF7A5F808B90120E2E7002024
:10A3F000E0E7F8B504460E461546002000902B46CF
:10A400006A463146204600F008F807460FB900209A
:10A41000F8BDBDF800002044FAE7F0B504460D464B
:10A420001E4604B10AB90020F0BD002103E0605CC3
:10A43000401C084481B2481CA84206DA10888842B1
:10A44000F5DC481C205CB042F1D1A94201DB0020C0
:10A45000EAE7881C87B2605C10B1605C401E00E0D7
:10A46000002083B213B1F818A84201DD0020DBE719
:10A4700017801846D8E72DE9F04788B004460E4605
:10A4800017460020079010200690B24602AA06A99F
:10A49000384664DF814614B1B9F1000F03D00020C3
:10A4A00008B0BDE8F0879DF81800022804D0042801
:10A4B00009D0102815D10DE003208DF804000220EA
:10A4C0008DF805000FE005208DF8040004208DF8BC
:10A4D000050008E007208DF8040006208DF805002F
:10A4E00001E00020DCE700BF002509E001A8435D92
:10A4F00007AA31462046FFF790FF8246681CC5B286
:10A50000022D03DABDF81C000028EFD0BDF81C00B6
:10A5100008B90020C4E7BDF81C0004EB00080025C2
:10A520000DE008EB05009DF8182002A9FDF701F8E1
:10A5300008B90120B4E79DF81800284485B25545B4
:10A54000EFDB0020ACE72DE9FF4104460D4616463F
:10A5500000BF1CB90E2004B0BDE8F08100BF207818
:10A5600008B90820F7E715B90EB90E20F3E7002067
:10A570000090019002900390DDB1D4F820040168AE
:10A5800004F15500814200D001E004F24310009034
:10A590002046FEF7F5FFADF8040001AA2846009911
:10A5A000FFF74AFE074600BF384600B1D3E700BFB9
:10A5B00000BFDEB1D4F82004816804F2312081426A
:10A5C00000D001E004F21F3002902046FEF7D8FFD1
:10A5D000ADF80C0003AA30460299FFF72DFE07469E
:10A5E00000BF384600B1B6E700BF00BF04F5806089
:10A5F0009DE88E0010308EC01038C4F82004002270
:10A6000004F15400D4F8201472DFA4E780F830106D
:10A61000704770B504460D4605B10CB90E2070BDEB
:10A6200005F1780000F0CDFF08B90720F7E700201A
:10A63000A0702C2205F17801201DFCF735FF0020C9
:10A6400084F83000D5F8A4006063D5F8A800A063B2
:10A650004FF6FF70A4F8240404F58260C4F82004C7
:10A66000002140F22C40C4F82614A4F82A14015505
:10A67000207810B9FF2084F8540004F15500C4F884
:10A6800010042046FEF77CFF40F21441085304F208
:10A69000144204F155012846FFF7CEFD064600BFDF
:10A6A000304600B1BBE700BF04F231204FF48361B4
:10A6B00008512046FEF764FFA4F81C044FF48360A1
:10A6C000015904F21C4205F13C00FFF7B5FD0646B6
:10A6D00000BF304600B1A2E700BF01215120015563
:10A6E000208B81B248200153012084F83C000021D6
:10A6F0002164502001556169616404F13C0200212C
:10A7000004F1540072DF064600BF304600B186E710
:10A7100000BF01202070304681E770B504460D4629
:10A720002E462088102804D0112807D026280FD1C3
:10A7300009E02146304607F02BF80AE02146304672
:10A7400007F0EBF805E02146304607F048FA00E054
:10A7500000BF00BF70BD70B504460E46207808B932
:10A76000082070BDA670002140F22C40C4F82614C9
:10A77000A4F82A140155A07910B1A078012809D0B5
:10A78000E07910B1A078012804D0E07970B1A07808
:10A7900002280BD1606B30B1012084F82D04082011
:10A7A000616B884702E0002084F82D043146204682
:10A7B000FEF796FEA070606BA0B1A078032802D0CF
:10A7C000A07804280ED1607960B194F82E0448B9BD
:10A7D000002084F83004012084F82F040720616BE6
:10A7E000884702E0002084F82F04182104F13C007F
:10A7F000FCF773FE012084F83C0004F12C0007F004
:10A8000020FF20B194F82C105120015502E00121C5
:10A810005120015594F8240060B104F1280007F09C
:10A8200010FF20B194F828105220015502E00121B8
:10A8300052200155002150200155A078052824D22E
:10A84000DFE800F01F030A11180004F13C01204664
:10A8500009F056FD054619E004F13C01204609F0D7
:10A8600037FD054612E004F13C01204609F05AFD8F
:10A8700005460BE004F13C01204609F081FD054648
:10A8800004E0002084F8310000E000BF00BFA078A1
:10A8900098B104F13C0204F15400D4F8201472DFA2
:10A8A00005460DB128465CE794F8301094F8540042
:10A8B00073DF05460DB1284653E7606B18B194F875
:10A8C0003100616B884700204BE700002DE9F04123
:10A8D000044600BF14B90E20BDE8F08100BF1C2261
:10A8E00021461C48FCF7E0FD1B481A490860206817
:10A8F00060B120687ADF05460DB12846ECE71648BE
:10A9000021680A6802604968416005E012487BDFFF
:10A9100005460DB12846DFE7002617E006EB860066
:10A920000E4901EB800700BF4FF6FF70388000BF73
:10A930000B4800EB461078600A4A0021381DFFF7EB
:10A94000FFF805460DB10320C6E7761C002EE5D0C2
:10A950000020C1E72C480020503A00201848002071
:10A96000F8470020D551030010B50446204600F0FA
:10A97000A1F808B1204610BD1420FCE710B504462C
:10A98000204600F097F820B12146034803F01DFD52
:10A9900010BD0020FCE700005848002070B50446B8
:10A9A0000D46164620460AF05FFC08B9002070BD2F
:10A9B000034951F824003246294601F01DFDF6E70F
:10A9C0006448002010B50446204600F073F820B11A
:10A9D0002146034803F0F9FC10BD0020FCE700000D
:10A9E0006048002010B50446204600F063F820B10E
:10A9F0002146034803F0E9FC10BD0020FCE70000FD
:10AA00005C48002070B504460025204600F052F84E
:10AA100050B12146054803F0D8FC06460EB102208D
:10AA200000E00120054600BF284670BD54480020C4
:10AA300070B504460025204600F03CF850B1214690
:10AA4000054803F0C2FC06460EB1022000E00120DA
:10AA5000054600BF284670BD5048002070B5054629
:10AA60000C4620460AF000FC50B1284600F022F8BF
:10AA700030B1044901EB8400294603F0A6FC70BD07
:10AA80000020FCE76448002070B505460C461646D9
:10AA900020460AF0E9FB50B1284600F00BF830B12F
:10AAA000034901EB84003246294601F03EFC70BDAB
:10AAB0006448002010B50446142C01DB002010BDB2
:10AAC0002146024803F081FCF9E700004C480020D1
:10AAD0002DE9FC4105460C46174620880930B8424E
:10AAE00002D90C20BDE8FC8168466DDF064600BF38
:10AAF000304600B1F6E700BF08202188685420885E
:10AB0000401C20801B20218868542088401C208005
:10AB100020882844DDF801100160BDF8051081800F
:10AB20002088801D20809DF80000400818B9002072
:10AB30002188685402E00120218868542088401C44
:10AB400020800020CEE70000F8B505460F46288893
:10AB5000212842D006DC10280BD011282BD0132836
:10AB600073D14CE03B2872D052285BD05628F7D1E5
:10AB70007DE00120FDF784FA4649474A891AC90851
:10AB8000032242EA014045A105F0C2F8A8884649DF
:10AB9000088008460188454803F0FBFD044600BFD5
:10ABA000264636B100BF42A2CC213046FCF732FB2C
:10ABB00000BF00BF6CE00020FDF762FA3549364A5D
:10ABC000891AC908032242EA01403DA105F0A0F814
:10ABD0004FF6FF70344908805AE000200090A888A2
:10ABE00069468FDF044600BF264636B100BF30A25B
:10ABF000DF213046FCF70EFB00BF00BF48E000231A
:10AC00001A468521284800887FDF044600BF264673
:10AC100036B100BF26A2E5213046FCF7FBFA00BFA3
:10AC200000BF35E000231A4619461F480088B1DFEF
:10AC3000044600BF264636B100BF1DA2EB213046B8
:10AC4000FCF7E8FA00BF00BF22E020E0FFE7A88899
:10AC5000132176DF044600BF264636B100BF14A29A
:10AC6000F2213046FCF7D6FA00BF00BF10E0A888FA
:10AC7000132176DF044600BF264636B100BF0CA282
:10AC8000F9213046FCF7C6FA00BF00BF00E000BF64
:10AC900000BFF8BD0074030030730300436F6E6E95
:10ACA0006563746564000000343A0020F03F0020C2
:10ACB0002E2E5C2E2E5C2E2E5C6D61696E2E630036
:10ACC000446973636F6E6E656374656400000000B1
:10ACD00070B505460E462888102802D011282CD1C0
:10ACE00015E01748006860B900F0C8FD044600BFD1
:10ACF00034B11448006818B12046124909688847E1
:10AD000000BF0F480068401C0D49086016E00C4861
:10AD10000068401E0A4908600846006860B9FEF7EE
:10AD2000B2FC044600BF34B10648006818B12046A2
:10AD300004490968884700BF00E000BF00BF70BD3C
:10AD40004C3A0020483A002070B504460D46208851
:10AD5000102806D0112808D012280ED0502810D163
:10AD600007E0204606F0A2FC0CE0204606F0BCFD01
:10AD700008E0204606F064FF04E0204606F07EFC72
:10AD800000E000BF00BF70BD2DE9F04104460F4652
:10AD9000A6882088102806D0112819D019283FD05D
:10ADA0001A284AD118E008F0DBFA304608F05CF9BE
:10ADB00030B900BF22A2F0210420FCF72BFA06E0F4
:10ADC000E07B022803D131462C4803F00DFB34E030
:10ADD000304608F0E9FA30E0207A0509042D01DB5D
:10ADE000012000E000200246314624480C3001F0EA
:10ADF0009CFA032D01DB012000E0002002463146D1
:10AE00001E48083001F091FA022D01DB012000E01C
:10AE10000020024631461948001D01F086FA0CE078
:10AE2000207A48B9607AC0F3C0052A4631461348F3
:10AE30000C3001F07AFA00BF00BF00BFBDE8F0811E
:10AE40002E2E5C2E2E5C2E2E5C2E2E5C2E2E5C2E3C
:10AE50002E5C2E2E5C636F6D706F6E656E74735C0E
:10AE6000626C655C636F6D6D6F6E5C626C655F6379
:10AE70006F6E6E5F73746174652E630054480020BA
:10AE800070B504460D4600BF0748007800B970BD94
:10AE900000BF204602F07CF8204609F0FFFA204669
:10AEA00001F00CFD00BFF2E78C3A00202DE9F041E3
:10AEB00086B00446884617461D4600BF1CB90E20C2
:10AEC00006B0BDE8F08100BF01AA29466069FFF71E
:10AED0007DF9064600BF304600B1F1E700BF4FF6EE
:10AEE000FF70854201D0019808B90520E8E7019874
:10AEF000007808B90820E3E73888F42801DD072046
:10AF0000DEE700200290039004900590A088ADF841
:10AF10000800CDF81480049701208DF80A0002A9DA
:10AF20002846AEDFCCE7000070B58EB004460E4672
:10AF30003E4B0FCB09AD0FC500BF14B90E200EB0AC
:10AF400070BD00BF00BF0EB90E20F8E700BF30682B
:10AF5000A061214609A862DF054600BF284600B16E
:10AF6000EDE700BF20788DF836000120ADF8340001
:10AF7000A21C0DA9A8DF054600BF284600B1DEE7E8
:10AF800000BF202101A8FCF7A8FA0220ADF80400B8
:10AF900020788DF80600F420ADF808000120ADF807
:10AFA0000A008DF810009DF8110020F0080008300C
:10AFB0008DF811009DF8110020F00400001D8DF89F
:10AFC000110001208DF815008DF81600608804F13D
:10AFD0000C0201A900F0ACF905460DB12846AEE718
:10AFE000202101A8FCF779FA0320ADF804002078AD
:10AFF0008DF80600F420ADF808000120ADF80A0035
:10B000008DF810009DF8110020F0100010308DF820
:10B01000110001208DF815008DF816008DF817002D
:10B020006088221D01A900F083F988E7BC5B03005A
:10B0300070B504460D4605B104B970BD2E46208892
:10B04000102804D0502807D057280FD109E02146F6
:10B05000304606F063FB0AE02146304606F01CFE4F
:10B0600005E02146304606F011FD00E000BF00BFBC
:10B0700000BFE2E770B5044620460AF017F805461F
:10B0800005F0010070BD000038B505F0E1FB044695
:10B0900000BF25463DB100BF15A240F20D11284664
:10B0A000FCF7B8F800BF00BF0020009069460120FF
:10B0B00005F0CAF9044600BF25463DB100BF0CA209
:10B0C00040F213112846FCF7A5F800BF00BF684600
:10B0D00005F088FA044600BF25463DB100BF04A232
:10B0E00040F217112846FCF795F800BF00BF38BDA5
:10B0F0002E2E5C2E2E5C2E2E5C6D61696E2E6300F2
:10B1000030B503460020042B23D2012A07D10129A0
:10B1100003D103F10E04E4B200E00024224679B129
:10B12000012902D0022911D104E003EB43040A4DA6
:10B130002A550DE003EB4304074D2C44627007E0F1
:10B1400003EB4304044D2C44A27001E0072000BF30
:10B1500000E0072030BD0000C84700202DE9FC4773
:10B1600004460D461646A71C4FF00108002001902A
:10B1700001A8FEF741FE3048406828602E4840682C
:10B180002D498968411A2D480068401CA0EB01092F
:10B1900015E001212A4803F04BF902F0B3FD824685
:10B1A0005146274803F044F92348406822498968FA
:10B1B000411A22480068401CA0EB010900BF4F451E
:10B1C000E7D8B8F1000F30D00021009176B1009996
:10B1D00021F00301491C0091009921F00401091D8F
:10B1E0000091009964F3891100910DE0009921F01C
:10B1F0000301891C0091009921F00401091D0091AF
:10B20000009964F39F5100910B4949680B4A1268F9
:10B210001140094A0C3202EB810000990160064995
:10B22000496839440C3A516000BF9DF80400FEF7AC
:10B23000E9FD4046BDE8FC87A8500020883B00207F
:10B24000C454002070B504460D460A2D03D10D21CB
:10B250002046FFF7F7FFA168481CA060206845540E
:10B26000D4E90110884202D3204603F076FE70BD77
:10B270000448806803494968884201D10120704729
:10B280000020FCE7A85000207CB50446204601F0D1
:10B29000C5FF054600236A46092106F0E1FF05289F
:10B2A00005D10122024801782046FFF7EDFB7CBD65
:10B2B000683A00207CB504460E460020019042F614
:10B2C000A620ADF8040001208DF8060007480068AC
:10B2D00000906A4601A92046A0DF05462DB901224B
:10B2E000034801782046FFF7CFFB7CBD885A030056
:10B2F000693A002001468879012809D10879012896
:10B3000006D1488842F60212904201D101207047CE
:10B310000020FCE70146024850F821007047000079
:10B32000BC4B00200146014840567047EC4B0020C2
:10B3300070B590B006460C461546A07818B90120A5
:10B340008DF80E0002E0A0788DF80E002088ADF890
:10B350000C0000200290607C02A909F03FF8A07C5C
:10B360000DF1090109F03AF8E07B08B1012000E095
:10B3700000209DF80A1060F3C3018DF80A10207CAC
:10B3800008B1012000E000209DF80A1060F30411CC
:10B390008DF80A10207B08B1012000E000209DF804
:10B3A0000A1060F300018DF80A10207D08B1022018
:10B3B00000E001209DF80A1060F342018DF80A10A8
:10B3C0001C2109A8FCF789F8607BC0F3001018B9AC
:10B3D000607BC0F34010F8B100200090E07C0DF1DC
:10B3E000010108F0FBFF00BF9DF8000020F00F00F6
:10B3F000401C8DF800009DF8000020F0F000103097
:10B400008DF8000000BF9DF8020020F00600801CAF
:10B410008DF80200CDF838D0607B8DF82400A07B39
:10B420008DF82500142104A8FCF757F803A8049010
:10B4300002A80590A088ADF81C00A06820B1E088A3
:10B44000ADF81800A0680890A069002849D0002035
:10B450000190A0690088ADF82C00A0694088ADF883
:10B460002E00A06940680A9001A80D90A169087B90
:10B4700001A908F0B3FFA169487B0DF1050108F0AF
:10B48000ADFFA069807A08B1012000E000209DF89E
:10B49000061060F3C3018DF80610A069C07A08B1E8
:10B4A000012000E000209DF8061060F304118DF8E3
:10B4B0000610A069007A08B1012000E000209DF884
:10B4C000061060F300018DF80610A069807B08B1BA
:10B4D000022000E001209DF8061060F342018DF883
:10B4E0000610E06908B1E0690C902B4604AA09A98E
:10B4F0003046AADF10B070BD2DE9F04104460D467C
:10B500004FF6FF76304684420AD14FF480712846C8
:10B5100002F02BFF86B2B6F5807F10D126460EE0F2
:10B52000FF2C0CDC2146284602F008FF80F00107C2
:10B530000FB1204601E04FF6FF70064600BF3046CF
:10B54000BDE8F08170B505460DB9094C01E0084C25
:10B55000083409E0204602F021F9064606B904E065
:10B5600028467168884700BFF4E700BF70BD00003F
:10B57000B04B002010B504462CB901200649487094
:10B580000020FFF7DFFF012C04D101200249887061
:10B59000FFF7D8FF10BD0000A84B00202DE9F047B1
:10B5A000024613468C46D3E90245DCE90267B6EB56
:10B5B000040877EB050002D30120BDE8F0870020E6
:10B5C000FBE701468878012805D191F82000012881
:10B5D00001D1002070470120FCE70246002007E06F
:10B5E000536833F810308B4200D17047431C98B237
:10B5F00013888342F4DC00BFF7E733B58BB0054610
:10B60000002000900C9878B100240BE021460CA893
:10B6100002F0DBFE28B1009A501C009001A820F82F
:10B620001240641C142CF1D32C2269462846FBF7E7
:10B630003BFF0DB030BD01460888062808DB0888AE
:10B64000B0F5486F06DD08884FF6FF72904201D0D2
:10B65000072070474888062808DB4888B0F5486FFF
:10B6600006DD48884FF6FF72904201D00720F0E7D0
:10B6700008884FF6FF72904208D04888904205D063
:10B6800008884A88904201DD0720E2E70020E0E7D1
:10B690002DE9F04107460D46144698462088801D46
:10B6A000404502D90C20BDE8F0813846FFF7C3FFC2
:10B6B000064600BF304600B1F5E700BF05202188EF
:10B6C00068542088401C20801220218868542088DB
:10B6D000401C208022885119388809F0EDFC21880F
:10B6E0000844208022885119788809F0E5FC2188D7
:10B6F000084420800020D6E710B5044600BF03A20E
:10B7000058212046FBF786FD00BF10BD2E2E5C2E73
:10B710002E5C2E2E5C6D61696E2E630030B587B095
:10B720001C216846FBF7D9FE002000904FF4A030A2
:10B7300001904FF4F020029003208DF80C004FF69A
:10B74000FF70ADF80E0001208DF81000002005906C
:10B75000094806906846FFF7B9F8044600BF254639
:10B760003DB100BF05A240F257112846FBF752FD3C
:10B7700000BF00BF07B030BDF9B602002E2E5C2E10
:10B780002E5C2E2E5C6D61696E2E6300F8B5054649
:10B790000C46607A88B9207A10B91048476801E0F1
:10B7A0000E4887682A4639466068FEF70FFA064653
:10B7B00016B1304608F0F6FA0EE000202072074875
:10B7C000406948B101208DF80000ADF802500348EF
:10B7D00041696846884700BFF8BD00002C4800203A
:10B7E000F0B585B004460D4617461E4614220B4997
:10B7F0006846FBF759FEADF802408DF80850ADF8E9
:10B800000A708DF80C600022054801782046FFF789
:10B810003BF9684600F05AFC05B0F0BD685B0300D8
:10B820009C3A002010B586B00446208806F0ECFA59
:10B8300000BB2088FFF7A2F830B92088012241F22E
:10B84000060100F0B4FA15E0208800220A490978C0
:10B85000FFF71AF902208DF804002088ADF80600E1
:10B8600000208DF80C0000218DF80D1001A800F0CB
:10B870002DFC00BF06B010BD9C3A002010B501227F
:10B8800000210846FFF73CFC044600BF1CB1072C12
:10B8900001D0204610BD00BF072202210120FFF782
:10B8A0002FFC044600BF1CB1072C01D02046F1E755
:10B8B00000BF042202210020FFF722FC044600BF43
:10B8C0001CB1072C01D02046E4E700BF0020E1E7CF
:10B8D0002DE9FF4105460C46002002900390ADF88B
:10B8E0000840ADF80A40009001906A4602A9284637
:10B8F00090DF0646002E32D0304605F0FBF80746B2
:10B9000019491A4A891AC908012242EA01403B46EC
:10B910002A46174904F012FABDF8000010B9BDF824
:10B92000020068B1BDF80230BDF800200E490F4F8B
:10B93000C91BC908012747EA01400EA104F0FEF91E
:10B94000BDF8040058B1BDF804200749074BC91AD7
:10B95000C908012343EA0140164904F0E3F93046DF
:10B9600004B0BDE8F08100005073030030730300A1
:10B970001C63030054686520726571756573746596
:10B98000642054582F5258207061636B6574206C8A
:10B99000656E67746820697320746F6F206C6F6EBA
:10B9A000672062792025752F2575206F6374657473
:10B9B000732E0000686303002DE9F04105460F4631
:10B9C0000F4C0121204602F06AFD064600BF00BF71
:10B9D00000BF00BFBFF35F8F00BF00BF00BF0EB945
:10B9E000012000E0002040B1284602F0DDF808B157
:10B9F000BDE8F081024804F099FB00BFF8E70000C1
:10BA0000603A002070B506460D4616B14FF4064068
:10BA100070BD287920B1012809D0022815D111E084
:10BA200002202871284607F07DFB044610E02846D6
:10BA300000F05CFC044648F20960844201D141F602
:10BA40001D5405E041F61D5402E048F20E6400BFAB
:10BA500000BF2046DCE770B5044620793D2802D1BE
:10BA600041F23D0001E04FF4885005462088002255
:10BA7000294601F0E9FF70BD10B50021034802F02E
:10BA80000EFD044684F3100010BD0000C4540020D5
:10BA900070B505460C464FF4803000FA04F1284694
:10BAA00000F09AFA70BD70B505460C464FF4A070D0
:10BAB00000EB840086B23146284600F0ADFA70BD36
:10BAC0002DE9F04704460D4616461F464FF48030D8
:10BAD00000FA05F84FF4A07000EB85001FFA80F91A
:10BAE00026F07F464146206804F098FC41462068D5
:10BAF00004F08EFC4946206804F083FC3246294657
:10BB0000206804F075FC4146206804F084FC1FB1F5
:10BB10004146206804F085FCBDE8F08710B5044676
:10BB2000206804F06AFC10BD2DE9F04704460D467C
:10BB300017466079324941F820706079314901EB4C
:10BB4000C000007968B108262F49304A891AC9080F
:10BB5000022242EA01402EA104F0DAF83046BDE8A4
:10BB6000F08729882068C0F8081500BF94F90420E0
:10BB7000AB7810461946002808DB4FEA417C4FEAB3
:10BB80001C68DFF8B0C00CF800800BE04FEA417C85
:10BB90004FEA1C69DFF8A0C000F00F08A8F1040804
:10BBA0000CF8089000BF00BF94F904100846002864
:10BBB0000DDB00BF00BF00F01F0301229A404309C4
:10BBC0009B0003F1E023C3F8002100BF00BF00BFCA
:10BBD00000BF012061790B4A02EBC1010871607955
:10BBE000114641F8304000260749084A891AC90819
:10BBF000032242EA014011A104F08AF83046AEE780
:10BC0000043B0020083B0020E07303003073030076
:10BC100052544320696E7374616E636520616C7267
:10BC20006561647920696E697469616C697A6564BB
:10BC30002E00000000E400E018ED00E05254433A0A
:10BC400020696E697469616C697A65642E00000010
:10BC500010B5014691F90400002807DB00F01F032E
:10BC600001229A40024B440943F8242000BF10BD32
:10BC700000E200E070B505460C4622460221284647
:10BC800000F0B6F970BD10B504464FF4827120463D
:10BC900000F0C2F910BD10B504460021206804F080
:10BCA000C3FB10BD10B504460421206804F0BCFBA2
:10BCB00010BD2DE9F84F04468846154699464FF4C5
:10BCC000803000FA08FA4FF4A07000EB88001FFAE9
:10BCD00080FB25F07F455146204600F07DF9206825
:10BCE00004F08BFB06464146206804F07BFB009085
:10BCF00032464146206804F07BFB5946206804F038
:10BD000080FB3146009808F0BBFE012806D11020C8
:10BD100004F0CAFF5946206804F073FB206804F061
:10BD20006CFB06463146284608F0AAFE07465146F7
:10BD3000206804F070FB012F0FD16A1C4146206877
:10BD400004F056FB102004F0AFFF206804F055FB10
:10BD5000B04225D00D20BDE8F88F2A464146206824
:10BD600004F046FB206804F048FB0646681E314696
:10BD700008F086FE07466FF07F40A0EB0900B8424E
:10BD800001D20D20E7E75FB96A1C4146206804F044
:10BD90002FFB206804F031FBB04201D00D20DAE720
:10BDA00001225146204600F023F90020D3E770B568
:10BDB00006460C4615462B46224600213046FFF724
:10BDC0000FFD70BD2DE9F84305460E46174698460F
:10BDD00069461048006802F06AFA044614B9042063
:10BDE000BDE8F8831C212046FBF777FB012020717A
:10BDF0002560C4F8088008480068B6FBF0F0E060F1
:10BE0000676169460348006802F07BFA07F09CF816
:10BE10000020E5E72C5D0300205D030010B504461B
:10BE2000D4E90321501828DF10BD0278072A38D240
:10BE3000DFE802F037040712222B340000220A70D8
:10BE400030E001220A7003898B818388CB81C2682C
:10BE50008A6000230B7425E002220A7003898B811B
:10BE60008388CB81C2688A60827D062A01D1012342
:10BE700000E000230B7415E003220A70C3888B8155
:10BE80000389CB81C2688A600CE004220A70C388EF
:10BE90008B810023CB8100228A6003E005220A7097
:10BEA00000E000BF00BF704770B50546002409E000
:10BEB000064850F8240020B1044850F824102846C1
:10BEC0008847641C042CF3D370BD0000444D00204F
:10BED00030B587B004460D462068806808B907B0C1
:10BEE00030BD182101A8FBF7F8FA0295A06806906A
:10BEF000207910B1012815D109E001208DF8040046
:10BF000020690390E0680490606905900BE00220CE
:10BF10008DF804000749E0680968484303906069A8
:10BF2000059000E000BF00BF2068816801A8884735
:10BF300000BFD4E7205D0300F0B585B005460C4690
:10BF40001646002C3ED0112C3CD0082C3AD00D2C9B
:10BF500024D11D491D4A891AC908022242EA01401A
:10BF60002A461B4903F0DEFE2A460321684602F0FA
:10BF7000CDF82EB1307800F0010008B1012000E0CA
:10BF800002208DF8080000218DF80C1041F20111FB
:10BF9000ADF80A10684600F0ADF813E0204604F052
:10BFA000A9FD07460849094A891AC908012242EA37
:10BFB00001402B463A46074903F0C0FE2146284679
:10BFC00007F05EFF05B0F0BD90730300307303000F
:10BFD00080690300906A030070B504460D46294647
:10BFE000206804F015FA2946206804F017FA70BD9D
:10BFF00070B504460E4615463146206804F00BFA2B
:10C000001DB13146206804F00CFA70BD10B504462D
:10C01000204600F06FF810BD70B505460C46286844
:10C02000015929B12146286804F0EBF9012070BDBF
:10C030000020FCE770B50446608801F0EFF8A080AE
:10C04000002505E0044850F82510204688476D1C5F
:10C05000002DF7D070BD0000583A002070B504469E
:10C06000A08801F00BF86080002505E0044850F836
:10C070002510204688476D1C002DF7D070BD0000AC
:10C080006C3A002070B50546002405E0044850F8DD
:10C09000241028468847641C022CF7D370BD00008A
:10C0A000C85A030070B50546002405E0054850F85D
:10C0B000241028468847641C034800788442F5DB36
:10C0C00070BD00005C4B00209A3A002070B5044619
:10C0D000608801F0A3F8A080002505E0044850F82E
:10C0E0002510204688476D1C002DF7D070BD00003C
:10C0F000285B030070B50546002405E0044850F8AD
:10C10000241028468847641C002CF7D070BD00001E
:10C11000B45B030038B505461048007810B948F202
:10C12000016038BD4FF6FF70854202D148F20360CE
:10C13000F7E7684606F064FD044614B948F2076064
:10C14000EFE70520207001202071E580684606F0A9
:10C1500067FD06F0EDFE0020E3E70000103B002045
:10C1600038B5044614B948F2046038BD6946204623
:10C1700006F0F6FF08B3BDF8000000EB800011499F
:10C1800001EB8000C068A8B1A07A98B1BDF80000AA
:10C1900000EB800001EB8000C068401EBDF800107D
:10C1A00001EB8101074A02EB8101C8600020A07207
:10C1B000002504E048F2056501E048F209652846DB
:10C1C000D3E70000F04D00207FB514461D462B46F6
:10C1D000224601A9684606F05BFF04B070BD37B582
:10C1E0000C4615462B4622466946002006F050FFB5
:10C1F0003EBD37B50C4615462B4622460021684603
:10C2000006F046FF3EBD024602B111B948F2046095
:10C210007047106808600020FAE70000F8B504468F
:10C220000D4604B115B948F20460F8BD69462046D0
:10C2300006F096FFA0B16668BDF8001001EB810121
:10C24000094A02EB810101F10C00012102F0F0F832
:10C250002E6060680C3068600120A0720020E4E766
:10C2600048F20960E1E70000F04D002070B5044697
:10C270000D4614B948F2046070BD0323002229461C
:10C28000204609F071FAF7E770B504460D4602231F
:10C2900000222946204609F067FA70BD70B50446B1
:10C2A0000D462A460021204600F00EF8A068401CEA
:10C2B000A06070BD01468A68C868801A7047014650
:10C2C0008A68C868801A704710B583680B448488F0
:10C2D00023400468E35C137010BDC26883881A4071
:10C2E00003689954C268521CC26070473EB5044648
:10C2F0000A4B6A460021A01D06F0CAFE054635B964
:10C30000064A9188019806F0A5FF054603E0034818
:10C3100000210160416028463EBD00002C3B00200A
:10C320000146A1F5404080B2704770B505460E4603
:10C33000144624B13146284602F056F803E031464F
:10C34000284601F0ECFF70BD30B504461088C01CD3
:10C35000984201D90C2030BD02201588485510881C
:10C36000401C10800120158848551088401C108002
:10C3700015884C551088401C10800020EBE770B5E4
:10C3800004460D4640F21442115B0122D4F8100419
:10C39000FEF72FF8064606B1357004F13C0204F5AD
:10C3A000826104F1540072DF70BD00002DE9F0419C
:10C3B00006460C4615460027112C01D1012700E046
:10C3C000002765B13A460A4801783046FEF75CFB23
:10C3D0000022084801783046FEF756FB05E03A4651
:10C3E000044801783046FEF74FFBBDE8F0810000BD
:10C3F000B73A0020B43A0020F7B50D4617460DB9FC
:10C400000020FEBD0026009868B1002409E0214606
:10C41000684601F0DAFF18B1A0B23946A847761C89
:10C42000641C142CF3D33046EBE710B50446606867
:10C4300006F0D4FC10BD000030B58BB06846FBF7A9
:10C440005FFA00BF9DF8200020F00F00401C08900C
:10C450009DF8200020F0F0001030089000BF6846E2
:10C46000FBF752F885B22A46694608A87CDF0446E5
:10C4700000BF25463DB100BF15A240F22D11284650
:10C48000FAF7C8FE00BF00BF002009900A901448C8
:10C49000008EADF824001248408EADF826001048FA
:10C4A000808EADF828000E48C08EADF82A0009A88D
:10C4B0007ADF044600BF25463DB100BF04A240F22A
:10C4C00037112846FAF7A6FE00BF00BF0BB030BDFB
:10C4D0002E2E5C2E2E5C2E2E5C6D61696E2E6300FE
:10C4E0003044002070B50021084802F071F804467D
:10C4F00000BF25463DB100BF05A24FF4A0712846FC
:10C50000FAF788FE00BF00BF70BD0000D43F0020D6
:10C510002E2E5C2E2E5C2E2E5C6D61696E2E6300BD
:10C5200070B506460C4604F11005E888022801DDC6
:10C53000092070BDE988304603F05CFD60606068EA
:10C5400008B90420F5E7EA88A9680023606803F0C9
:10C55000DCFD0020EDE770B506460C4604F1100541
:10C56000A8680088102801DD092070BDA86800882F
:10C57000811C304603F03EFD6060606808B904200D
:10C58000F3E7A96800230222606803F0BEFDAB68F0
:10C590001A88E9680223606803F0B7FD0020E4E729
:10C5A00070B5054615B14FF4064070BD1848007BC4
:10C5B00018B100201649087301E000F0DFF81448B4
:10C5C000007808281DD2DFE800F01C04080C101CBD
:10C5D000141800F03FF8044616E000F0BDF80446D9
:10C5E00012E000F099F804460EE000F047F8044627
:10C5F0000AE000F035F9044606E000F043F904468D
:10C6000002E048F20E6400BF00BF2046CDE7000004
:10C61000184E00200D480089401C0C49088100205C
:10C620004880087300BF0DE000EB8001084A12F853
:10C63000211009B9012200E0002204490A310A54FC
:10C64000411C88B20228EFDB70470000184E002022
:10C65000F04D002010B5084800F036F840B9002031
:10C660000549891E08704880486041F61D5010BD7C
:10C6700000F072F8FBE700001A4E002070B50F487A
:10C68000458805EB85000E4901EB8000C06878B94C
:10C6900004200A49087005EB8500094A02EB800076
:10C6A000002301224168074802F05EFD044602E0D3
:10C6B00000F090F80446204670BD0000184E00209F
:10C6C000F04D0020483E002010B501460022002019
:10C6D00018E00F4B1B5C9BB100240D4B1C5400EB6E
:10C6E00080030C4C04EB8303DB684BB900EB800345
:10C6F00004EB83031B7C012B02D10880012203E0A1
:10C70000431C98B20228E4DB00BF104610BD0000B5
:10C71000224E0020F04D0020F8B50C4844680C482B
:10C7200000680B49898800EB81056088C01C86B2CF
:10C730000320064908700020B300009008462946EF
:10C740004268044802F032FEF8BD0000184E002096
:10C75000243B0020483E002010B507494888091DA9
:10C7600006F03CFD18B1FFF7D7FF044602E0FFF7E3
:10C7700085FF0446204610BD184E002010B5144811
:10C780000078082820D2DFE800F0041F1F0A1016E6
:10C79000171BFFF73FFF01200D49087015E000F05F
:10C7A0007DF802200A4908700FE000F029F8062001
:10C7B0000749087009E000BF07200549087004E038
:10C7C00001200349087000E000BF00BF10BD000059
:10C7D000184E002010B505200649087002200649B1
:10C7E00088800846002301220168044802F0BCFC4E
:10C7F00010BD0000184E0020243B0020483E0020C1
:10C80000144908681449498801EB8101134A02EB75
:10C81000810149680F4A11600F49498801EB810184
:10C820000E4A02EB810148600A4989880A4A528807
:10C8300002EB8202094B03EB820211810221054ABD
:10C8400091800021044A528802EB820203EB8202AB
:10C8500011747047243B0020184E0020F04D00203A
:10C8600010B5062005490870498801EB8101044A8A
:10C8700002EB8101486805F0A5FA10BD184E0020B2
:10C88000F04D002010B507200349087000204860D3
:10C8900005F0A8FA10BD0000184E0020054A5068A7
:10C8A0004288D21C91B2044A92880A44024B9A8070
:10C8B00070470000184E0020243B00202DE9F04175
:10C8C00086B00446A688208850282ED004DC35285F
:10C8D00036D0362808D189E0522802D05428F9D120
:10C8E00003E0304601F0F2F8B9E01422634901A8F0
:10C8F000FAF7DAFDADF80660304600F08FFCADF8CF
:10C900000800BDF8080000F0A5F900225C48017895
:10C910003046FEF7B9F800225A4801783046FEF753
:10C92000B3F801A8FFF786FB99E0A01DFEF7E2FC33
:10C9300028B10121304601F02BF908F031FC8EE0DE
:10C940000027A68804F10A054F4801783046FEF713
:10C9500085F800B983E000224B4801783046FEF7A5
:10C9600093F8E088B0F5857F3AD0E08858B1E28846
:10C970004649474BC91AC908022343EA014045A169
:10C9800003F0D0F92CE0288801280AD02A883F49F2
:10C990003F4BC91AC908022343EA01404CA103F0E6
:10C9A000C1F9688801280BD06A883849384BC91A00
:10C9B000C908022343EA014054A103F0B3F90FE090
:10C9C000A98800223046A1DF8046B8F1000F06D1C9
:10C9D000012701225C4801783046FEF755F800BF78
:10C9E0001FB90021304607F0D5FF38E00027A688A0
:10C9F00004F10A05544801783046FEF72FF800B9D3
:10CA00002DE00022504801783046FEF73DF8E088DE
:10CA100058B1E2881D491E4BC91AC908022343EACE
:10CA200001401CA103F07EF914E0A88801280BD076
:10CA3000AA881649164BC91AC908022343EA0140BD
:10CA400032A103F06FF905E0A87908B1012000E0F8
:10CA5000002007463946304607F09CFF00BF00BF64
:10CA600000BF002239493A480078FDF797FF00BF20
:10CA700007F0B4FA06B0BDE8F08100009C5A03004C
:10CA8000673A0020663A0020693A002038730300B4
:10CA900030730300556E6578706563746564204774
:10CAA00041545420737461747573207768696C65A0
:10CAB0002067657474696E67204341522063686122
:10CAC000722076616C75653A203078257800000018
:10CAD0004D756C7469706C6520282564292043416C
