:020000040002F8
:1070000040750020DD730200E5730200E7730200A3
:10701000E9730200EB730200ED7302000000000050
:10702000000000000000000000000000EF730200FC
:10703000F173020000000000F3730200F573020018
:107040002D8D0200F77302009D990200F773020074
:10705000F773020000000000718C020000000000C5
:107060003D990200559902006D990200F7730200E4
:10707000F7730200F7730200F7730200F773020060
:1070800059A20200D5960200F7730200F7730200BE
:10709000F7730200F773020079970200F77302009A
:1070A000F7730200F77302008599020000000000E8
:1070B00000000000000000000000000000000000D0
:1070C00000000000000000000000000000000000C0
:1070D000000000000000000000000000F773020044
:1070E00000000000000000000000000000000000A0
:1070F0000000000000000000000000000000000090
:10710000000000000000000000000000000000007F
:10711000000000000000000000000000000000006F
:10712000000000000000000000000000000000005F
:10713000000000000000000000000000000000004F
:10714000000000000000000000000000000000003F
:10715000000000000000000000000000000000002F
:10716000000000000000000000000000000000001F
:10717000000000000000000000000000000000000F
:1071800000000000000000000000000000000000FF
:1071900000000000000000000000000000000000EF
:1071A00000000000000000000000000000000000DF
:1071B00000000000000000000000000000000000CF
:1071C00000000000000000000000000000000000BF
:1071D00000000000000000000000000000000000AF
:1071E000000000000000000000000000000000009F
:1071F000000000000000000000000000000000008F
:10720000DFF80CD000F016FA0048004741D9020020
:107210004075002000B583B002900091019244F2C5
:10722000010071466A4603F0FDFA03B000BD00009C
:1072300030B450E8012F93B2C48923448489A34217
:1072400028BF1B1B0489A34202BFBFF32F8F00205E
:1072500007E0C3EA020340E80134002CE9D14FF013
:1072600001000A6030BC704750E8012FC2EA0242B8
:1072700040E801210029F7D1704730B450E8022FCF
:107280001FFAA2F3C488A34202BFBFF32F8F0020CE
:107290000DE0C48923448489A34228BF1B1BC2EA92
:1072A000034340E80234002CE8D14FF001000A60AB
:1072B00030BC704750E8022FC2EA224240E8022167
:1072C0000029F7D17047034653E8022FD988B2EB63
:1072D000324F4FF0000017BF92B241EA014142EA3B
:1072E000014104E05A68B2EB324F08BF012043E885
:1072F0000212002AE8D1704730B4044654E8000F67
:107300000D4644E80053002BF8D1156030BC70479F
:1073100030B4044654E8000F40EA010544E8005345
:10732000002BF7D1156030BC704730B4044654E8E8
:10733000000F00EA010544E80053002BF7D1156067
:1073400030BC704730B4044654E8000F80EA0105B1
:1073500044E80053002BF7D1156030BC704730B4BF
:10736000044654E8000F00EB010544E80053002BED
:10737000F7D1156030BC704730B4044654E8000FB4
:10738000A0EB010544E80053002BF7D1156030BC99
:10739000704770B404464FF0000054E8006F0D6869
:1073A000AE4207BF44E80023012044E800630E60BA
:1073B000002B1CBF0020F0E770BC704730B40446BF
:1073C00054E8000F88422CBF451A054644E8005394
:1073D000002BF5D1156030BC70470000064880478F
:1073E00006480047FEE7FEE7FEE7FEE7FEE7FEE7AA
:1073F000FEE7FEE7FEE7FEE791970200017202005A
:107400002DE9F05F0546002092469B4688460646D9
:10741000814640241BE0284641464746224600F06C
:107420002FF853465A46C01A914110D311461846B8
:10743000224600F016F82D1A67EB01084F46224647
:107440000120002100F00DF817EB00094E41201E2D
:10745000A4F10104DFDC484631462A464346BDE834
:10746000F09F202A04DB203A00FA02F10020704746
:107470009140C2F1200320FA03F319439040704772
:10748000202A04DB203A21FA02F00021704721FA79
:1074900002F3D040C2F120029140084319467047E0
:1074A00000487047F83D030040EA01039B0703D002
:1074B00009E008C9121F08C0042AFAD203E011F833
:1074C000013B00F8013B521EF9D27047D2B201E0F5
:1074D00000F8012B491EFBD270470022F6E710B5D9
:1074E00013460A4604461946FFF7F0FF204610BD32
:1074F000421E12F8013F002BFBD111F8013B02F8AC
:10750000013B002BF9D17047421C10F8011B0029E8
:10751000FBD1801A704710B5002200E0521C835C3A
:107520008C5CA34201D1002BF8D1D8B2E1B2401A51
:1075300010BD30B504460020034600E05B1C9342BA
:1075400003D2E05CCD5C401BF8D030BD034611F89F
:10755000012B00F8012B002AF9D11846704730B5ED
:1075600005460020034600E05B1C934205D2EC5C1C
:10757000C85C201A01D1002CF6D130BD70B506468A
:1075800002F064FF046805460A220021304600F03C
:1075900018F82C6070BD30B50B4601460020202243
:1075A000012409E021FA02F59D4205D303FA02F510
:1075B000491B04FA02F52844151EA2F10102F1DC70
:1075C00030BD2DE9F04791460F468046044600261F
:1075D00014F8015B2DB1FFF763FF0068405DC00741
:1075E000F6D12B2D02D02D2D18D0641E4A463946D7
:1075F000204600F031F827B13968A14201D1C7F81F
:10760000008071054FF002040BD54042002803DDD5
:1076100002F01CFF0460A007BDE8F08746F4806616
:10762000E4E70028F8DA02F011FF04606FF0004090
:10763000F2E70000064C074D06E0E06840F0010369
:1076400094E8070098471034AC42F6D3FFF7DCFD0E
:1076500050470300704703002DE9F05F8246007831
:10766000002715468B460AF10104B946302801D09F
:107670009DB113E014F8010B0127782803D0582896
:1076800001D045B10AE00DB1102D07D1002710251A
:1076900014F8010B02E0082500E00A250026B04698
:1076A0000EE005FB080005FB06F1012701EB104683
:1076B0001FFA80F8B6F5803F00D3B94614F8010BE5
:1076C000294600F018F80028EBDABBF1000F05D0CE
:1076D0000FB1641E00E05446CBF80040B9F1000F32
:1076E00006D002F0B3FE02210160C81EBDE8F09F83
:1076F00048EA0640FAE73A2800D2303820F0200263
:10770000412A01D3A2F13700884201D34FF0FF3064
:10771000704770B58C1810F8015B15F0070301D1A4
:1077200010F8013B2A1106D110F8012B03E010F8E4
:10773000016B01F8016B5B1EF9D12B0705D4002307
:10774000521E0DD401F8013BFAE710F8013BCB1AA9
:10775000921C03E013F8015B01F8015B521EF9D59E
:10776000A142D8D3002070BDF8B50446684601F0A8
:1077700085FE14B1032C11D111E00321094803F057
:107780001DFF054600BF2E4636B100BF06A25F2191
:107790003046FFF73FFD00BF00BF00E000BF00BF65
:1077A000F8BD0000984C00202E2E5C2E2E5C2E2E54
:1077B0005C2E2E5C2E2E5C2E2E5C2E2E5C75736540
:1077C000725C757365725F626C652E630000000009
:1077D000F0B5BDB0044665784FF6FF7000EA0525A8
:1077E000207805432749284A891AC908032242EA12
:1077F00001402A4625A108F03BF81222A11C38A816
:10780000FFF752FEADF8D45038A935A88160122098
:10781000ADF8D800684601F0C3FBAC210AA8FFF719
:107820005CFE00208DF82A0006208DF82B0009A8A8
:107830000B9035A8139002208DF864000121ADF85B
:10784000741016491E9101218DF8A41006992C91EF
:1078500000212D91124833900AA9124803F003FE2B
:10786000064600BF374637B100BF0FA24921384650
:10787000FFF7D0FC00BF00BF01210A4803F0F0FD74
:107880003DB0F0BD084803008047030069642D2D1A
:107890002D2D2D206973203078257800783B00202D
:1078A00069770200984C00202E2E5C2E2E5C2E2E26
:1078B0005C2E2E5C2E2E5C2E2E5C2E2E5C7573653F
:1078C000725C757365725F626C652E630000000008
:1078D00070B503210A4803F071FE04460CB102F0B2
:1078E00095FD00BF254635B100BF06A26E21284692
:1078F000FFF790FC00BF00BF012001F05DFD70BDEF
:10790000984C00202E2E5C2E2E5C2E2E5C2E2E5C93
:107910002E2E5C2E2E5C2E2E5C757365725C75733C
:1079200065725F626C652E630000000070B50B49E4
:1079300091F8540074DF04460CB102F067FD00BFFB
:10794000254635B100BF06A27C212846FFF762FC20
:1079500000BF00BF002001F02FFD70BD984C00203B
:107960002E2E5C2E2E5C2E2E5C2E2E5C2E2E5C2E51
:107970002E5C2E2E5C757365725C757365725F622A
:107980006C652E6300000000F0B5B1B00446657868
:107990004FF6FF7000EA0525207805431222A11C4E
:1079A0000EA8FFF781FD04A801F0FAFAADF8045023
:1079B0000EA903911220ADF808003C2122A8FFF780
:1079C0008CFD3C2113A8FFF788FD00208DF88A006C
:1079D0000DA8239001A82B9006208DF88B00012084
:1079E000ADF85C000C49189102208DF84C0013AAE8
:1079F00022A90A4803F0D1FC064600BF37463FB132
:107A000000BF07A24FF407713846FFF703FC00BF21
:107A100000BF31B0F0BD0000783B0020984C002042
:107A20002E2E5C2E2E5C2E2E5C2E2E5C2E2E5C2E90
:107A30002E5C2E2E5C757365725C757365725F6269
:107A40006C652E630000000013210248008876DF79
:107A500070470000683B0020F8B505460F462888AF
:107A6000212851D006DC10280BD0112833D0132840
:107A700071D15CE03B286FD052286FD05628F7D1E7
:107A800091E0012001F0CCFD00F07DFE00F006FB4E
:107A9000002001F091FC4E494E4A891AC908032280
:107AA00042EA01404CA107F0D9FEA8884D49088060
:107AB000084601884C4806F080FB044600BF264675
:107AC0003EB100BF49A240F275213046FFF7A2FB4C
:107AD00000BF00BF79E0002001F0A2FD00F02CFE05
:107AE000012001F069FC00F0AFFA3949394A891ADE
:107AF000C908032242EA014046A107F0AFFE4FF653
:107B0000FF703849088060E000200090A88869462E
:107B10008FDF044600BF26463EB100BF33A240F2CD
:107B20008A213046FFF776FB00BF00BF4DE00023FF
:107B30001A4685212B4800887FDF044600BF264671
:107B40003EB100BF29A24FF424713046FFF762FB1B
:107B500000BF00BF39E037E014E0FFE700231A461A
:107B6000194620480088B1DF044600BF26463EB1D2
:107B700000BF1EA240F296213046FFF74BFB00BF2C
:107B800000BF22E0A888132176DF044600BF264606
:107B90003EB100BF15A240F29D213046FFF73AFBEF
:107BA00000BF00BF11E0A888132176DF044600BFA4
:107BB00026463EB100BF0DA24FF429713046FFF7B3
:107BC00029FB00BF00BF00E000BF00BFF8BD000000
:107BD0000848030080470300436F6E6E6563746559
:107BE00064000000683B00208C4C00202E2E5C2E90
:107BF0002E5C2E2E5C2E2E5C2E2E5C2E2E5C2E2EBF
:107C00005C757365725C757365725F626C652E631B
:107C100000000000446973636F6E6E656374656491
:107C20000000000010B5044600BF04A240F21B1182
:107C30002046FFF7EFFA00BF10BD00002E2E5C2E8D
:107C40002E5C2E2E5C2E2E5C2E2E5C2E2E5C2E2E6E
:107C50005C757365725C757365725F626C652E63CB
:107C60000000000030B587B01C216846FFF735FCE6
:107C7000002000904FF4A03001904FF4F0200290CB
:107C800003208DF80C004FF6FF70ADF80E000120B8
:107C90008DF810000020059009480690684603F012
:107CA00047FD044600BF25463DB100BF05A240F296
:107CB00017112846FFF7AEFA00BF00BF07B030BD6E
:107CC000257C02002E2E5C2E2E5C2E2E5C2E2E5C31
:107CD0002E2E5C2E2E5C2E2E5C757365725C757379
:107CE00065725F626C652E630000000030B58DB078
:107CF000684601F055F900BF9DF8280020F00F00FC
:107D0000401C0A909DF8280020F0F00010300A90E6
:107D100000BF6846FFF7F8FB85B22A4669460AA805
:107D20007CDF044600BF254635B100BF15A2FA210D
:107D30002846FFF76FFA00BF00BF00200B900C90A1
:107D40001A48008EADF82C001848408EADF82E0071
:107D50001648808EADF830001448C08EADF8320061
:107D60000BA87ADF044600BF25463DB100BF05A23F
:107D70004FF482712846FFF74DFA00BF00BF0DB0E7
:107D800030BD00002E2E5C2E2E5C2E2E5C2E2E5C26
:107D90002E2E5C2E2E5C2E2E5C757365725C7573B8
:107DA00065725F626C652E6300000000CC5000209D
:107DB00070B50021084806F01FF9044600BF2546AB
:107DC0003DB100BF05A24FF498712846FFF722FA93
:107DD00000BF00BF70BD0000704C00202E2E5C2E36
:107DE0002E5C2E2E5C2E2E5C2E2E5C2E2E5C2E2ECD
:107DF0005C757365725C757365725F626C652E632A
:107E0000000000002DE9F0410546287800283FD108
:107E10002049214A891AC908032242EA01401FA1C8
:107E200007F01CFD002623E000BF2969885D02F0F1
:107E3000D3FF0446002C18D0112C16D01549164A31
:107E4000891AC908012242EA0140224617A107F017
:107E50000FFD00BF27463FB100BF1FA240F25111E6
:107E60003846FFF7D7F900BF00BF112CDDD0761CD4
:107E7000A88AB042D8D8A88A401E2969085C0D2873
:107E800005D100BF0A2002F0A7FF1128FAD000BFD9
:107E9000BDE8F08108480300804703007265636510
:107EA0006976652073756363657373004661696CF9
:107EB000656420726563656976696E67204E555307
:107EC000206D6573736167652E204572726F722035
:107ED000307825782E2000002E2E5C2E2E5C2E2E43
:107EE0005C2E2E5C2E2E5C2E2E5C2E2E5C75736509
:107EF000725C757365725F626C652E6300000000D2
:107F000010B5044600BF04A24FF411712046FFF7DC
:107F100081F900BF10BD00002E2E5C2E2E5C2E2E8F
:107F20005C2E2E5C2E2E5C2E2E5C2E2E5C757365C8
:107F3000725C757365725F626C652E630000000091
:107F400070B504462078032802D0042810D104E03C
:107F50006568284600F0F6FA0BE00749074A891AD7
:107F6000C908032242EA014005A107F077FC00E0BE
:107F700000BF00BF70BD0000084803008047030039
:107F80005363616E2074696D6564206F75742E0093
:107F90007FB5002000900190029003901C48009053
:107FA0001C4A69461C4806F01DFA044600BF2546D7
:107FB00035B100BF19A2A3212846FFF72BF900BF56
:107FC00000BF2048FFF7A0FA80B11E4A00211248E6
:107FD00006F0A6F9044600BF254635B100BF0FA242
:107FE000AA212846FFF716F900BF00BF00221F2173
:107FF000094806F0C6F9044600BF254635B100BF62
:1080000006A2B0212846FFF705F900BF00BF7FBDDB
:108010006A3B0020417F0200CC5000202E2E5C2EB7
:108020002E5C2E2E5C2E2E5C2E2E5C2E2E5C2E2E8A
:108030005C757365725C757365725F626C652E63E7
:10804000000000001C3D030070B5094806F01AFB53
:10805000044600BF254635B100BF06A2D8212846F8
:10806000FFF7D8F800BF00BF012001F0D3FA70BDC0
:10807000CC5000202E2E5C2E2E5C2E2E5C2E2E5CE4
:108080002E2E5C2E2E5C2E2E5C757365725C7573C5
:1080900065725F626C652E630000000010B506F02B
:1080A0003BFB002001F0B6FA10BD00003EB50020F9
:1080B000019000901D48019001A91D4806F08DF81F
:1080C000044600BF25463DB100BF1AA240F235214B
:1080D0002846FFF79FF800BF00BF002002901F480E
:1080E000029002A91E4803F053FF044600BF254634
:1080F0003DB100BF0FA240F23B212846FFF78AF8AE
:1081000000BF00BF17480090684603F049FC0446D2
:1081100000BF25463DB100BF06A240F23F212846E0
:10812000FFF778F800BF00BF3EBD0000017F0200EE
:108130008C4C00202E2E5C2E2E5C2E2E5C2E2E5C67
:108140002E2E5C2E2E5C2E2E5C757365725C757304
:1081500065725F626C652E6300000000057E0200A0
:108160004C3B00200DBC020038B508F029F904464C
:1081700000BF25463DB100BF15A240F25721284659
:10818000FFF748F800BF00BF0020009069460120BB
:1081900007F010FF044600BF25463DB100BF0CA20A
:1081A00040F25D212846FFF735F800BF00BF684662
:1081B00007F0D0FF044600BF25463DB100BF04A232
:1081C00040F261212846FFF725F800BF00BF38BD07
:1081D0002E2E5C2E2E5C2E2E5C2E2E5C2E2E5C2ED9
:1081E0002E5C2E2E5C757365725C757365725F62B2
:1081F0006C652E630000000010B51421014800F0EA
:10820000C9FC10BD8454002030B50020124C00255C
:108210002560656000211BE00022002314E00F4C64
:1082200004EB8104A45C0CB95C1CE3B2042B05D103
:108230000124094D6C54441CE0B203E00124074DB5
:10824000303D6C54541CE2B2042AE8DB4C1CE1B211
:108250000829E1DB30BD0000A83B0020C854002005
:1082600000B585B00C490D4A891AC908032242EAB3
:1082700001400BA107F0F2FA00F01CF8002168465B
:1082800000F0A6FDFFF752FB6846FFF77DFBFFF706
:108290001FFB05B000BD0000084803008047030035
:1082A0002D2D2D2D2D2D2D2D2D2D2D434D434E5F5F
:1082B000446F00002DE9F04186B00024002500261F
:1082C00000274FF01008142101A8FFF706F913202A
:1082D0008DF80400EF208DF8050000BF10E00025A8
:1082E0000AE0284800EB8400415D01AAF01C11540B
:1082F000701CC6B2681CC5B2042DF2DB601CC4B28F
:10830000042CECDB8DF8068011210DF1060000F045
:1083100067F907468DF81770002101A800F08CFD61
:10832000142101A8FFF7D9F8002713208DF80400C5
:10833000EF208DF805000424002610E000250AE057
:10834000104800EB8400415D01AAF01C1154701C20
:10835000C6B2681CC5B2042DF2DB601CC4B2082C86
:10836000ECDB8DF8068011210DF1060000F038F9E4
:1083700007468DF81770012101A800F05DFD06B0D9
:10838000BDE8F081C85400202DE9F05F04464FF0AD
:10839000000AD346D1460026A078494981F850000A
:1083A000A078C11700EB91714FEAA109FFF72CFFEC
:1083B0008346204600F03CF90646B01EC1B2A01C20
:1083C00000F00EF93E4981F851003E493E4A891AB3
:1083D000C908032242EA014032463CA107F048FAAC
:1083E000A35D374991F851203649DFF8DCC0A1EB95
:1083F0000C01C9084FF0030C4CEA014037A107F00B
:1084000043FA2F4890F85100A15D88420BD02D49C6
:108410002D4A891AC908032242EA014038A107F00F
:108420001DFABDE8F09F0020A055BBF1000F0AD156
:108430002449254A891AC908032242EA014034A185
:1084400007F00CFAEDE7B9F1050F13D2DFE809F0F8
:108450000306090C0F004FF0040A0CE04FF0040A69
:1084600009E04FF0080A06E04FF00C0A03E04FF075
:10847000100A00E000BF00BF002500271CE02C48C8
:10848000405D012816D14FF000080DE0F81C215C7A
:108490000B48303000EB850000F80810781CC7B29C
:1084A00008F1010000F0FF08B8F1040FEEDB5745BA
:1084B00000D1B6E7681CC5B2082DE0DB00BFB0E70D
:1084C0009854002008480300804703006372635FEC
:1084D0006469676974206973202564006372635F4F
:1084E00076616C756520616E642072785B375D2003
:1084F00069732030782578203078257800000000D6
:108500007561727420637263206661696C2100007A
:108510005468657265206973206E6F206578747287
:1085200061206461746120737061636520210000C3
:10853000A83B002010B514210148FEF7CEFF10BD66
:10854000845400202DE9F04106460025B46935E049
:10855000675D681C14F80080B8F1030F06D0B8F10D
:10856000090F04D0B8F1FF0F24D101E022E021E08F
:10857000E07913281DD1207AEE281AD1607A1249A9
:10858000097888420ED1A07A0F494978884209D1EA
:10859000E07A0D498978884204D1E01D00F016F890
:1085A000FFF72AFE002001E0411CC8B2791E81427B
:1085B000FADC00BF00BF781C054400BFB08BA842A6
:1085C000C6D80520BDE8F081A53B002010B50446C3
:1085D000142221460148FEF767FF10BD8454002095
:1085E00010B502460B460020002104E0545C044410
:1085F000E0B24C1CE1B29942F8DB10BD10B50B485B
:108600000021016041608160C16020211030FEF7CF
:1086100064FF202105483030FEF75FFF002003494A
:1086200081F8510081F8500010BD000098540020DE
:10863000014600208A78012A01D1072002E08A78C9
:10864000D21CD0B27047000070B505460026002449
:1086500009E0E01C295C1248005D814201D1701CD8
:10866000C6B2601CC4B2042CF3DB042E0BD10D493E
:108670000D4A891AC908032242EA01400BA107F0FA
:10868000EDF8012070BD0749074A891AC90803227D
:1086900042EA014008A107F0E1F80020F2E70000FB
:1086A000C8540020084803008047030072657475B1
:1086B000726E20747275650072657475726E2066D4
:1086C000616C736500000000FCB502460C46002694
:1086D000009601960E20002500210EE0165C412E2A
:1086E00001DB372100E03021165C761AF6B20DF876
:1086F0000560461CF0B26E1CF5B21428EEDB0020BB
:10870000002100230DE01DF80010461CF0B20E07FA
:10871000310E1DF800603143E154461CF0B25E1C7E
:10872000F3B20628EFDBFCBD10B50248007808F074
:10873000C7FC10BD813B0020052000BF01070A4691
:10874000012303FA00F1C2F8081500BF00BF70470B
:10875000F0B5052001210A4600242346254600BF26
:1087600007073E4641EA420747EA840747EA0327EC
:1087700047EA054C06F5E06747F820C000BF00BF98
:10878000FFF7DAFFF0BD052000BF01070A4601230D
:1087900003FA00F1C2F80C1500BF00BF704710B516
:1087A00006F0CEFE08B907F0B1FA10BD70B54FF46F
:1087B0008041002007F024F9044600BF25463DB162
:1087C00000BF05A240F259112846FEF723FD00BF65
:1087D00000BF06F0A1FE70BD2E2E5C2E2E5C2E2E4C
:1087E0005C2E2E5C2E2E5C2E2E5C2E2E5C75736500
:1087F000725C757365725F64726976652E630000E2
:1088000070B507F063FA044600BF25463DB100BFCE
:1088100004A240F239112846FEF7FCFC00BF00BF5D
:1088200070BD00002E2E5C2E2E5C2E2E5C2E2E5C3B
:108830002E2E5C2E2E5C2E2E5C757365725C75730D
:1088400065725F64726976652E63000030B58BB027
:1088500000243B4B0FCB07AD0FC53949103103C97D
:10886000CDE90101374A01A9374808F0DBF8044691
:1088700000BF254635B100BF34A27A212846FEF755
:10888000C9FC00BF00BF2F4A01A92F48083008F0DB
:10889000C9F8044600BF254635B100BF2BA27C2194
:1088A0002846FEF7B7FC00BF00BF264A01A92648AC
:1088B000103008F0B7F8044600BF254635B100BFB8
:1088C00022A27E212846FEF7A5FC00BF00BF1E485D
:1088D000089908F025F904901B480830099908F018
:1088E0001FF90590184810300A9908F019F90690F8
:1088F00001200090022301461348049A08F070F802
:1089000001200090042302210F480830059A08F046
:1089100067F801200090082303210B481030069AC5
:1089200008F05EF8084808F049F80748083008F0F1
:1089300045F80548103008F041F80BB030BD000094
:10894000443D0300D19F02008C3B00202E2E5C2E64
:108950002E5C2E2E5C2E2E5C2E2E5C2E2E5C2E2E51
:108960005C757365725C757365725F647269766558
:108970002E63000070B502F019F9044600BF2546C9
:1089800035B100BF03A269212846FEF743FC00BFB2
:1089900000BF70BD2E2E5C2E2E5C2E2E5C2E2E5C0B
:1089A0002E2E5C2E2E5C2E2E5C757365725C75739C
:1089B00065725F64726976652E63000010B50446C7
:1089C000207830B101282CD0022818D0042845D1B5
:1089D00039E0012023490870234800781E280DDA69
:1089E0002249234A1278881802F03CF9204800787E
:1089F000401C1F49087000201B4908702FE01D49CA
:108A00001D4A891AC908032242EA01401BA106F047
:108A100025FF00BF24A24B216068FEF7FBFB00BFCF
:108A20001DE01449144A891AC908032242EA014088
:108A300027A106F013FF00BF1BA251216068FEF7BB
:108A4000E9FB00BF0BE00B490B4A891AC908032256
:108A500042EA014026A106F001FF00E000BF00BF8E
:108A600010BD00007C3B0020803B002052540020C1
:108A7000A43B002008480300804703004040756184
:108A80007274204150505F554152545F434F4D4DD9
:108A9000554E49434154494F4E5F4552524F522023
:108AA0006572726F720000002E2E5C2E2E5C2E2ED0
:108AB0005C2E2E5C2E2E5C2E2E5C2E2E5C7573652D
:108AC000725C757365725F64726976652E6300000F
:108AD00075617274204150505F554152545F464950
:108AE000464F5F4552524F52206572726F720000BE
:108AF00075617274204150505F554152545F44413A
:108B00005441206572726F720000000030B58BB066
:108B10001822124905A8FEF7C7FC00BF10480190B3
:108B20004FF4807002900F4803904FF480700490CF
:108B300007230D4A01A905A802F0E0F8044600BF8A
:108B400000BF254635B100BF08A22C212846FEF7FC
:108B500061FB00BF00BF0BB030BD00002C3D030027
:108B60002052002020530020BD8902002E2E5C2EB2
:108B70002E5C2E2E5C2E2E5C2E2E5C2E2E5C2E2E2F
:108B80005C757365725C757365725F647269766536
:108B90002E63000070B505460E46002404E0285DF3
:108BA00002F01AF9601CC4B2B442F8DB70BD0000D8
:108BB00010B50549054A891AC908032242EA01404D
:108BC00003A106F04BFE10BD0848030080470300D8
:108BD00044726976655F5744545F4576656E5F48B9
:108BE000616E646C650000003EB50024134A07CA3C
:108BF0008DE807001249684608F07AFA044600BF7B
:108C000025463DB100BF0FA24FF4B7712846FEF7CD
:108C100001FB00BF00BF154808F028FA044600BF5A
:108C200025463DB100BF07A240F271112846FEF76C
:108C3000F1FA00BF00BF08F049FA3EBD5C3D0300F9
:108C4000B18B02002E2E5C2E2E5C2E2E5C2E2E5C06
:108C50002E2E5C2E2E5C2E2E5C757365725C7573E9
:108C600065725F64726976652E630000813B002047
:108C70002DE9F84F0026002000904FF48077012561
:108C8000002410E0384606F065FB40B100BF2548DF
:108C90000068284018B1384606F04EFB2E436D00A0
:108CA000381D87B2641C082CECD34FF4BE7006F05C
:108CB00051FB50B14FF4BE7006F03EFB46F000464B
:108CC0006A460121002006F001FBF0B210B3012535
:108CD00000241DE005EA0600C0B100BF124850F8AC
:108CE0002400C0F30420814600BF0F4850F8240040
:108CF000C0F301408246204603F0D6FA8046B8F120
:108D0000000F02D051464846C04700BF6D00641CAA
:108D1000082CDFD306F0004010B1684608F0ACFE26
:108D2000BDE8F88F046300401065004010B54FF4B3
:108D3000807005F015FD80B14FF4807005F019FDCD
:108D4000012005F01FFD2048407930B901201E495F
:108D5000487108460168002088474FF4827005F08A
:108D6000FFFC50B14FF4827005F003FD022005F0C6
:108D700009FD15480168012088474FF4887005F007
:108D8000EFFC50B14FF4887005F0F3FC102005F0B3
:108D9000F9FC0D480168022088474FF4867005F001
:108DA000DFFC80B10020094908604FF4867005F0AF
:108DB000E0FC082005F0E6FC002003498871084625
:108DC00001680320884710BD083A0020340C004099
:108DD000024611B1012915D109E0002004E00B4B36
:108DE0001B5C1354431CD8B21428F8DB0BE00020A2
:108DF00005E0064B14331B5C1354431CD8B21428F3
:108E0000F7DB00E000BF00BF70470000EC5400201B
:108E100010B501200649487000200870142105484B
:108E2000FEF75BFB142103481430FEF756FB10BD20
:108E3000C53D0020EC54002010B5024611B10129B7
:108E400015D109E0002004E0135C0A4C2354431CB4
:108E5000D8B21428F8D30BE0002005E0145C054BD1
:108E600014331C54431CD8B21428F7D300E000BFBD
:108E700000BF10BDEC54002030B587B016A207CA61
:108E800004AB07C300200190029003900024154812
:108E9000FEF73AFB054629461248FEF71EFB04A9D9
:108EA0001048FEF753FB1048C0690A21B0FBF1F0EF
:108EB00084B222460DA101A801F094FA01A9094843
:108EC000FEF716FB0748FEF71FFB06493E220A5431
:108ED000084607B030BD00003C6164765F64656C95
:108EE00061793D00A73D0020145500202564000055
:108EF0001FB512A207CA01AB07C300200090124899
:108F0000FEF702FB044621460F48FEF7E6FA01A9E8
:108F10000D48FEF71BFB0D480DA18269684601F064
:108F200061FA69460848FEF7E3FA0748FEF7ECFAEB
:108F300005493E220A54084604B010BD3C616476DF
:108F40005F696E743D000000A73D002014550020AD
:108F5000256400001CB50EA103C9CDE900010E482F
:108F6000FEF7D2FA044621460B48FEF7B6FA6946E8
:108F70000948FEF7EBFA09490748FEF7B9FA06482F
:108F8000FEF7C2FA04493E220A5408461CBD0000FE
:108F90003C6E616D653D0000A73D0020145500202A
:108FA00010B5044609492046FEF7D0FA0748806903
:108FB000A0610648C069E0610448006A2062034875
:108FC00090F8240084F82400012010BD14550020DE
:108FD00010B588B017A30FCB04AC0FC400200190CC
:108FE000029003901748FEF78FFA04462146154871
:108FF000FEF773FA04A91348FEF7A8FA1248006AAC
:109000004FF47A71B0FBF1F00F49086208460FA1E6
:10901000026A01A801F0E6F901A90A48FEF768FA18
:109020000848FEF771FA07493E220A54084608B07C
:1090300010BD00003C6164765F74696D656F757486
:109040003D000000A73D00201455002025640000CD
:1090500010B588B013A30FCB04AC0FC4002001904F
:10906000029003901348FEF74FFA04462146114838
:10907000FEF733FA04A90F48FEF768FA0E4890F994
:1090800024200EA101A801F0ADF901A90948FEF7BD
:109090002FFA0848FEF738FA06493E220A540846D5
:1090A00008B010BD3C73745F74785F706F77657241
:1090B0003D000000A73D002014550020256400005D
:1090C00010B508A10B48FEF741FA30200949886124
:1090D0006420C86142F210700862042081F8240004
:1090E00010BD00004A533133355F303030303031FD
:1090F00000000000145500202DE9FC410546002029
:109100000090019000BF0F2780462846FEF7FCF92B
:10911000C01B00F0FF08002405E03819285C0DF89A
:109120000400601CC4B24445F7DB6846FEF726FA2B
:1091300086B206EB860040000749C861CA69074944
:10914000074BC91AC908032343EA014005A106F0E9
:109150008FFBBDE8FC810000145500200848030087
:10916000804703006164765F64656C617920697390
:10917000202564002DE9FC41054600200090019067
:109180000D2600272846FEF7BFF9801BC7B2002432
:1091900005E03019285C0DF80400601CC4B2BC4224
:1091A000F7DB6846FEF7EAF9074988618A690749EB
:1091B000074BC91AC908032343EA014005A106F079
:1091C00057FBBDE8FC81000014550020084803004F
:1091D000804703006164765F697476206973202597
:1091E0006400000038B500BF9DF8000020F00F00BB
:1091F000401C00909DF8000020F0F000103000901E
:1092000000BF0A48FEF780F985B22A46074968463A
:109210007CDF044600BF254635B100BF04A27E2195
:109220002846FDF7F7FF00BF00BF38BD14550020EA
:109230002E2E5C2E2E5C2E2E5C2E2E5C2E2E5C2E68
:109240002E5C2E2E5C757365725C757365725F7033
:109250006172616D2E6300002DE9FC41054600201E
:1092600000900190112600272846FEF74DF9801B3B
:10927000C7B2002405E03019285C0DF80400601C1A
:10928000C4B2BC42F7DB6846FEF778F94FF47A7156
:109290004843074908620A6A0649074BC91AC908C0
:1092A000032343EA014005A106F0E2FABDE8FC8190
:1092B0001455002008480300804703005E5E5E5E90
:1092C0005E5E5E5E5E5E5E5E5E5E5E5E6164765F9C
:1092D00074696D656F7574206973202564000000E2
:1092E0002DE9FC4105460020009001900D26002745
:1092F0002846FEF709F9801B401EC7B2A85D2B283F
:1093000012D100240DE03019401C285C0DF8040037
:109310006846FEF733F940B21B4981F82400601C0F
:10932000C4B2BC42EFDB20E0A85D2D2813D100249D
:109330000EE03019401C285C0DF804006846FEF76A
:109340001DF9404240B2104981F82400601CC4B2AB
:10935000BC42EEDB09E00D490D4A891AC908032217
:1093600042EA01400BA106F079FA074991F924205D
:109370000649074BC91AC908032343EA014007A15C
:1093800006F076FABDE8FC81145500200848030079
:10939000804703006572726F7200000074785F701E
:1093A0006F7765722069732025640000014800789A
:1093B00070470000C73D0020014908707047000059
:1093C000C73D002070B5054600262846FEF79CF8EC
:1093D0000B38C6B216211848FEF77FF8002406E0C5
:1093E00004F10A00285C14490855601CC4B2B44258
:1093F000F6DB12491048FFF767F91149114A891A3B
:10940000C908032242EA01400B4A0FA106F030FAD4
:1094100000240EE009490B5D09490A4A891AC90866
:10942000032242EA014022460AA106F02DFA601CFE
:10943000C4B2032CEEDB70BD14550020A53B002008
:1094400008480300804703006E616D652069732042
:1094500025730000212121212121212121212121E8
:1094600021212121216E616D655F6865785B25642E
:109470005D3A3078253032780000000003490978E1
:10948000017002494978417070470000C53D0020D5
:1094900010B586B0142101A8FEF71FF8FFF786FF6C
:1094A000A0B100240AE00A48005D012804D100218F
:1094B0000748015500F0BAF8601CC4B2082CF2DB72
:1094C000FEF7A2FE042801DA00F0C6F806B010BDCF
:1094D000A05400200148007870470000C93D0020DA
:1094E00030B587B005A86DDF044600BF25463DB105
:1094F00000BF22A24FF4F6712846FDF78BFE00BF95
:1095000000BF2849284A891AC908032242EA0140B3
:1095100026A106F0A3F99DF81A009DF819109DF8F0
:1095200018209DF81730CDE90032CDE902109DF8E2
:1095300016309DF815201B491B4D491BC9080325F2
:1095400045EA014020A106F0DFF91649164A891ABA
:10955000C908032242EA014024A106F07FF900BFB6
:1095600025463DB100BF05A24FF4FE712846FDF728
:1095700051FE00BF00BF07B030BD00002E2E5C2E94
:109580002E5C2E2E5C2E2E5C2E2E5C2E2E5C2E2E15
:109590005C757365725C757365725F706172616D25
:1095A0002E63000008480300804703004D4143201C
:1095B000616464722A2A2A2A2A2A2A2A2A2A2A2A18
:1095C0002A2A2A2A2A000000253032782C20253029
:1095D00032782C20253032782C20253032782C20FF
:1095E000253032782C20253032782C002A2A2A2A5D
:1095F0002A2A2A2A2A2A2A2A2A2A2A2A2A4D414378
:109600002061646472000000014800787047000027
:10961000C83D00200149087070470000C83D002087
:109620000149087070470000C93D002000B585B0B1
:1096300014216846FDF751FFFEF778F9FEF73AFE70
:1096400000216846FFF7C4FB6846FEF79DF9FEF768
:109650003FF905B000BD000000B585B01421684693
:10966000FDF73BFF1848C06918490988884229D886
:1096700017480078401C16490870002013490880DC
:10968000FEF754F9FEF716FE11480078012802D0C3
:1096900002280DD104E000216846FFF799FB0BE09A
:1096A00001216846FFF794FB00200949087003E098
:1096B00000200749087000BF00BF6846FEF764F944
:1096C000FEF706F905B000BD145500207E3B0020D2
:1096D000CB3D002010B5034A1068034A1168884743
:1096E00010BD0000483A0020443A002010B500F0B8
:1096F000D3FD10BD2DE9F047074688461646C24601
:1097000007EB47011B4800EBC109D9F8140020B151
:10971000012811D0022826D11EE0484600F0F4FDB1
:109720000546B54201D2002405E034463246514692
:10973000484600F030FE18E0484600F0E5FD0546DA
:10974000B54201D2284600E0304604462246514642
:10975000484600F020FE08E032465146484600F0F8
:10976000E1FD044601E0002400BF00BF2046BDE843
:10977000F08700008848002010B506F063FE10BD99
:1097800001480249086070470090D003CC3D00209A
:1097900010B504F077FA40B100205E4908604FF040
:1097A0008041C1F810015C49086004F099FA002872
:1097B00055D05A4800685A4908605848001D00684A
:1097C000091D0860554808300068091D08605348A5
:1097D0000C300068091D0860504810300068091DF1
:1097E00008604E4814300068091D08604B48183066
:1097F00000684B492031086048481C300068091D4A
:109800000860464820300068091D0860434824303D
:109810000068091D0860414828300068091D08607B
:109820003E482C300068091D08603C483030006814
:109830003B4940310860394834300068091D0860F0
:10984000364838300068091D086034483C300068EC
:10985000091D0860314840300068091D086004F0A7
:10986000E3F940B12F48006800F0010018B16FF033
:1098700001002C4908602C48006800F0004030B915
:109880002948001D006800F0004000283ED001205B
:109890002649086000BF264800680028FBD0122037
:1098A0002149086000BF224800680028FBD012212F
:1098B0001D48001D016000BF1D4800680028FBD046
:1098C00000201A49086000BF194800680028FBD032
:1098D00000BF00BF00BF00BF00BFBFF34F8F00BF7E
:1098E00000BF00BF1348006800F4E060124908435D
:1098F000001D1049086000BF00BF00BFBFF34F8FBD
:1099000000BF00BF00BF00BF00BFFDE7FFF738FF8B
:1099100010BD00000C010040380500400404001098
:1099200020C50040000400400012001004E5014082
:1099300000E401400CED00E00000FA0510B504223F
:109940000249034803F0D9FE10BD00002840002062
:109950000080004010B504220249034803F0CDFE08
:1099600010BD0000344000200090004010B50422DB
:109970000249034803F0C1FE10BD00004040002032
:1099800000A0004010B506220249034803F0B5FECE
:1099900010BD00004C40002000A0014010B502495D
:1099A0000868804710BD0000103A002001460020E2
:1099B00006E00023044A02EB81021354421CD0B299
:1099C0000428F6DB70470000C854002070B586B04C
:1099D00005460C46002101A8FFF7FAF9FB4920468D
:1099E000FDF799FD50B9FEF72FF8F948FDF78CFD0A
:1099F00086B23146F648FFF7CDF858E2F5492046E1
:109A0000FDF789FDF0B9F449F44A891AC90803221F
:109A100042EA0140F2A105F021FFFFF75BFD40B1F2
:109A2000F548FDF771FD86B23146F348FFF7B2F80D
:109A30003DE2F248FDF768FD86B23146EF48FFF798
:109A4000A9F834E2EE492046FDF765FD50B9FEF76E
:109A500025FBDF48FDF758FD86B23146DC48FFF7AD
:109A600099F824E2E7492046FDF755FD50B9FEF785
:109A7000EBFAD748FDF748FD86B23146D448FFF7E8
:109A800089F814E2E0492046FDF745FDA0B9FFF74B
:109A9000BBFD40B1DD48FDF737FD86B23146DB48FE
:109AA000FFF778F803E2DA48FDF72EFD86B231467B
:109AB000D748FFF76FF8FAE10A22D6492046FDF7AA
:109AC0004EFDF0B9C449C54A891AC908032242EAC1
:109AD0000140D1A105F0C2FEBD48FDF715FD86B2DB
:109AE0003146BB48FFF756F8FDF720FF2046FFF749
:109AF00069FCFFF777FB01A8FDF76AFEFDF7E8FEBA
:109B0000D5E1C9492046FDF706FD58B9FFF722FA0D
:109B100005462846FDF7F8FC86B231462846FFF791
:109B200039F8C4E10D22C1492046FDF718FD90B96E
:109B3000FDF7FCFE2046FFF71DFB01A8FDF748FEE0
:109B4000FDF7C6FEA248FDF7DFFC86B23146A0480D
:109B5000FFF720F8ABE1B6492046FDF7DCFC58B929
:109B6000FFF7C6F905462846FDF7CEFC86B231461A
:109B70002846FFF70FF89AE10F22AE492046FDF77D
:109B8000EEFC58B92046FFF7B7FA9148FDF7BCFC48
:109B900086B231468E48FEF7FDFF88E1A649204691
:109BA000FDF7B9FC58B9FFF767F905462846FDF7F8
:109BB000ABFC86B231462846FEF7ECFF77E1112276
:109BC0009E492046FDF7CBFC90B9FDF7AFFE20463D
:109BD000FFF742FB01A8FDF7FBFDFDF779FE7C488E
:109BE000FDF792FC86B231467948FEF7D3FF5EE17D
:109BF00093492046FDF78FFC58B9FFF7E9F9054670
:109C00002846FDF781FC86B231462846FEF7C2FFA2
:109C10004DE18C492046FDF77EFC68B96C48FDF7A4
:109C200073FC86B231466A48FEF7B4FF0A2004F09E
:109C3000BBFDFDF77BFE3AE183492046FDF76BFC57
:109C400068B96348FDF760FC86B231466048FEF7AC
:109C5000A1FF0A2004F0A8FDFDF73AFE27E17B49A9
:109C60002046FDF758FCA0B9FFF7A0FB40B17848AB
:109C7000FDF74AFC86B231467548FEF78BFF16E1C8
:109C80007448FDF741FC86B231467248FEF782FF08
:109C90000DE171492046FDF73EFC40B94C48FDF707
:109CA00033FC86B231464A48FEF774FFFFE06B4949
:109CB0002046FDF730FC40B94548FDF725FC86B24B
:109CC00031464348FEF766FFF1E065492046FDF75F
:109CD00022FC40B93E48FDF717FC86B231463C48AD
:109CE000FEF758FFE3E05F492046FDF714FC40B95A
:109CF0003748FDF709FC86B231463548FEF74AFF82
:109D0000D5E00D2258492046FDF729FC90B9FDF712
:109D10000DFE2046FFF7E4FA01A8FDF759FDFDF717
:109D2000D7FD5248FDF7F0FB86B231464F48FEF7AB
:109D300031FFBCE04E492046FDF7EDFB58B9FFF777
:109D400087F905462846FDF7DFFB86B231462846EF
:109D5000FEF720FFABE047492046FDF7DCFB48BBA0
:109D60001B48FDF7D1FB86B231461948FEF712FFBA
:109D70004FF4FA7004F018FD00BF00BF00BF00BF31
:109D800000BFBFF34F8F00BF00BF00BF3A4800685D
:109D900000F4E06039490843001D3749086000BFFE
:109DA00000BF00BFBFF34F8F00BF00BF00BF00BFA9
:109DB00000BFFDE732492046FDF7ADFB20B9042185
:109DC00030A0FEF7E7FE72E060E00000B03B00204C
:109DD0003B3D0020BD3B00200848030080470300B6
:109DE0005669657720636F6E6E656374696F6E2068
:109DF0007374617475730000403D00204C3D002079
:109E0000CD3B0020D93B0020E63B0020583D002000
:109E1000683D0020F33B002053657420626C652090
:109E20006E616D6500000000FF3B00200B3C0020D0
:109E30001A3C0020293C00203A3C00204B3C0020EA
:109E40005E3C0020713C00207C3C0020883C0020CF
:109E5000893D0020983D0020943C0020A73C002034
:109E6000BA3C0020D33C0020EC3C0020783D002090
:109E7000FB3C00200B3D00200CED00E00000FA054B
:109E8000213D002056312E30000000000C220D49EB
:109E90002046FDF764FB50B90020FFF787FD0A4814
:109EA000FDF732FB86B231460748FEF773FE1F21ED
:109EB0002046FDF712FB1F212846FDF70EFB06B0DA
:109EC00070BD00002D3D00203B3D002038B53148DD
:109ED00000788DF800002F4840788DF801002E485A
:109EE0000078002855D12D480078012851DD002444
:109EF00001E0601CC4B2082CFBDB9DF800001328B5
:109F000024D12749274A891AC908032242EA014075
:109F100025A105F0A3FC9DF80100EF2839D12049C7
:109F2000204A891AC908032242EA014020A105F00B
:109F300095FC1848FEF788FB20B91648FEF724FA6E
:109F4000FEF78EF900201549087022E09DF8000008
:109F50003C2811D11249134A891AC908032242EA3E
:109F6000014015A105F07AFC0A491548FFF72EFDBE
:109F700000200A4908700CE009490A4A891AC908F0
:109F8000032242EA01400FA105F068FC00200349CA
:109F9000087038BD525400207C3B0020A43B0020B8
:109FA000084803008047030048445F310000000078
:109FB00046445F310000000048445F32000000006A
:109FC000205400204844206572726F720000000027
:109FD00030B58BB004460D4692480088B0F57A7FC4
:109FE00002DD00208F490880B4F5A07F09D0B4F5C8
:109FF000A27F11D0B4F5A47F7ED0B4F5A67F7CD12A
:10A00000F8E08949894A891AC908032242EA0140CD
:10A0100087A105F023FC01E1FFF7C8F900286DD006
:10A0200001A8FEF7BDFF099808B90BB030BD834801
:10A03000007801281CD181480069401C7F490861D3
:10A04000084600690999884212D37749774A891AE4
:10A05000C908032242EA014079A105F0FFFB002074
:10A06000764908700861FFF7A1FC01207349087266
:10A0700072484078012815D170484069401C6F49EA
:10A08000486108464069099988420BD300206B4912
:10A0900048700021694841610120FFF787FC0121D8
:10A0A0006648417265488078012815D16348806907
:10A0B000401C6249886108468069099988420BD32F
:10A0C00000205E49887000215C4881610220FFF712
:10A0D0006DFC0121594881725848C078012819D176
:10A0E0005648C069401C5549C8610846C06909996D
:10A0F00088420FD3002002E076E08EE073E04F4903
:10A10000C87000214D48C1610320FFF74FFC0121B9
:10A110004A48C17249480079012815D14748006A68
:10A12000401C464908620846006A099988420BD3D8
:10A130000020424908710021404801620420FFF7D5
:10A1400035FC01213D4801733C484079012815D177
:10A150003A48406A401C394948620846406A0999B1
:10A1600088420BD3002035494871002133484162B1
:10A170000520FFF71BFC0121304841732F488079EF
:10A18000012815D12D48806A401C2C498862084658
:10A19000806A099988420BD30020284988710021E0
:10A1A000264881620620FFF701FC012123488173C4
:10A1B0002248C079012815D12048C06A401C1F4997
:10A1C000C8620846C06A099988420BD300201B491F
:10A1D000C87100211948C1620720FFF7E7FB012180
:10A1E0001648C17300BF19E00E480088401C0D4995
:10A1F000088013E01648007801280DD11548007832
:10A20000401C14490870084600781E2804DD002010
:10A210000F4908700F49087000E000BF00BF00BF81
:10A2200003E700007E3B002008480300804703004E
:10A2300074696D657220494E5430000098540020B6
:10A24000436C65616E20426C6F636B3000000000F0
:10A250007C3B0020803B002008B500BF4FF480709D
:10A260000B49405808B1012000E0002078B10948AE
:10A270000068804700BF00204FF48071044A885076
:10A28000084611464058009000BF00BF00BF08BDFF
:10A29000000001401C3A002010B5124C0220206141
:10A2A000606111A0A0611349E1614FF40071216266
:10A2B0000021A1626162E1620BA0A0640E49E16429
:10A2C000102121650021A1656165E1650BA1E01DFB
:10A2D000FDF73CF90AA12046FDF738F92020A071CE
:10A2E00010BD0000704800205465726D696E616C8D
:10A2F00000000000E8480020E84A002052545400C2
:10A30000534547474552000010B501460A69CB68DE
:10A310009A4204D88C68641EE41AA01801E0D41A8A
:10A32000601E10BD2DE9F0470446894617464FF0E0
:10A33000000AE56800BFD4F81080A84503D9A8EB4F
:10A340000500461E04E0A5EB0800401CA1680E1A9B
:10A35000A068401BB04201D9304601E0A068401B14
:10A360000646BE4201D2304600E0384606466168E5
:10A37000481932464946FDF797F8B244B144BF1B2D
:10A380003544A068A84200D10025E560002FD2D155
:10A390005046BDE8F0872DE9F0470446894615464A
:10A3A000E668A068871BAF4208D9616888192A4609
:10A3B0004946FDF779F87019E06010E0B846616829
:10A3C000881942464946FDF76FF8A5EB070809EBE7
:10A3D000070142466068FDF767F8C4F80C80BDE8E5
:10A3E000F08700000FB4084B10B504A902AA039827
:10A3F00000F062F8044602A9002000F007F92046A8
:10A4000010BC5DF814FB00000DA6020000BF00BFE9
:10A4100000BFBFF34F8F00BF00BF00BF09480068F7
:10A4200000F4E06008490843001D0649086000BFC9
:10A4300000BF00BFBFF34F8F00BF00BF00BF00BF12
:10A4400000BFFDE70CED00E00000FA050048704792
:10A45000D03D002002E008C8121F08C1002AFAD12E
:10A4600070477047002001E001C1121F002AFBD194
:10A47000704700000146202908DA012088400A4A76
:10A48000104008B1012070470020FCE7402909DA9C
:10A49000A1F12000012202FA00F008B10120F2E748
:10A4A0000020F0E70120EEE7FC06FFBD00BFEFF360
:10A4B0001081084672B670472DE9FF4F89B09B4660
:10A4C0000446002506E025280BD05A460B999047F4
:10A4D000641C6D1C20780028F5D10DB02846BDE81D
:10A4E000F08F0027B8460122474900E0074314F8DF
:10A4F000013F203B02FA03F00842F7D120782E28D2
:10A5000019D114F8010F47F004072A280ED06FF074
:10A510002F022078A0F1300109290CD808EB88011E
:10A5200002EB410100EB0108641CF2E70A98641C8D
:10A5300050F8048B0A9020780028CED0642808D0E8
:10A54000692806D075281ED05A460B9990476D1C75
:10A5500058E00A994FF00A0901C90A91002802DA65
:10A5600040422D2102E0390504D52B218DF8201021
:10A57000012103E0F90704D02021F7E78A4608AE5D
:10A580000DE00021FAE70A994FF00A0901C90A9182
:10A59000F7E74946FCF7FFFF303106F8011D0028B8
:10A5A000F7D1ADEB060000F12009780701D44FF098
:10A5B0000108C84502DDA8EB090000E00020804644
:10A5C000002706E008A85A46C05D0B9990476D1C0D
:10A5D0007F1C5745F6DB04E030205A460B99904724
:10A5E0006D1CB8F10001A8F10108F5DC05E016F8D2
:10A5F000010B5A460B9990476D1CB9F10001A9F166
:10A600000109F4DC641C65E7092801000A68531C91
:10A610000B6010707047014601F0030008B901207B
:10A6200070470020FCE7024650680068401E084062
:10A6300008B9012070470020FCE70246002104E031
:10A64000505C08B101207047491C0629F8D300204E
:10A65000F9E710B50346D868884206D88818401E26
:10A660001C69A04201D8012010BD0020FCE70000B9
:10A6700010B504466CB10848C068A04209D8064825
:10A680000069A04205D3204603F0BAF808B10120C2
:10A6900010BD0020FCE70000D43D002070B504464A
:10A6A0000D4604F22740FFF7C8FF0646012D06D0ED
:10A6B000022D0DD0032D11D0042D19D113E0A07956
:10A6C00028B194F8240010B90EB1012070BD00BF6C
:10A6D000E07910B10EB10220F8E700BF207A08B18E
:10A6E0000320F3E700BF607A08B10420EEE700BF63
:10A6F0000020EBE70146481C052290FBF2F302FB29
:10A700001300C0B270472DE9F04704460D462F46AE
:10A7100095F82080B4F81C9000260BE007EB461259
:10A720004946A06900F068FD10B10120BDE8F0873E
:10A73000701CC6B24645F1DB0020F7E7014691F8F0
:10A740002420012A01D1EE2000E01F2070472DE9CE
:10A75000F05F06460C4604F1220A94F82C502A2099
:10A7600010F804904FF00008B6F81CB0002710E075
:10A770000AEB87025946B06900F0A7FD28B108F13D
:10A78000010000F0FF0815B905E005B103E0781CF1
:10A79000C7B24F45ECDB00BF0DB1C84503D02DB9A2
:10A7A000B8F1000F02DD0120BDE8F09F0020FBE7BB
:10A7B00010B501220221002001F0A2FC044600BFD6
:10A7C0001CB1072C01D0204610BD00BF072202217A
:10A7D000012001F095FC044600BF1CB1072C01D0FC
:10A7E0002046F1E700BF0A220021084601F088FC5C
:10A7F000044600BF1CB1072C01D02046E4E700BF8F
:10A800000020E1E710B504462C212046FCF765FE48
:10A81000012020714FF49670206144F25060606115
:10A8200010BD00002DE9FE4307460E46144672B6E1
:10A8300000BF05F025F900BF00BF04F081FE00282D
:10A84000FBD100BF00BF012F0CD06FF48050384403
:10A8500098B1B0F5405F2CD06FF440510844002807
:10A8600047D115E03149324A891AC908012242EA22
:10A87000014030A104F0F2FF47E02C492C4A891A2C
:10A88000C908012242EA014032A104F0E7FF3CE09E
:10A8900025462649DFF898C0A1EB0C01C9084FF006
:10A8A000010C4CEA014034A1D5E9003204F0ECFF80
:10A8B0002BE02546A86805F0D5FE8046D5E90010B6
:10A8C0008DE8430019491A4BC91AC908012343EA04
:10A8D000014043462FA1AA6804F0FAFF1349144A25
:10A8E000891AC908012242EA014034A104F0B6FFE6
:10A8F0000BE00E490E4A891AC908012242EA0140BA
:10A90000324633A104F0B4FF00BF00BF00BF364899
:10A91000006800F0010000B100BE00BF22463146D1
:10A92000384600F063F8BDE8FE83000008480300E5
:10A9300080470300534F46544445564943453A2007
:10A94000415353455254494F4E204641494C45448A
:10A9500000000000534F46544445564943453A20B1
:10A96000494E56414C4944204D454D4F5259204186
:10A970004343455353000000415353455254494FFC
:10A980004E204641494C45442061742025733A25A8
:10A99000750000004552524F52202575205B2573EB
:10A9A0005D2061742025733A25750D0A504320619E
:10A9B000743A20307825303878000000456E6420E5
:10A9C0006F66206572726F72207265706F727400AC
:10A9D000554E4B4E4F574E204641554C54206174B6
:10A9E0002030782530385800F0ED00E018B501230C
:10A9F00000939DF800301E4B186059609A606FF408
:10AA00008043034463B1012B19D1194BDA60DB6831
:10AA10001B68174CA3612346DB685B68E3610EE0AB
:10AA2000134B1A611B699B68114C636123461B69B8
:10AA30001B68A36123461B695B68E36100BF00BF1D
:10AA40000B4B1B680A4B5B68094B9B68084BDB6828
:10AA5000074B1B69064B5B69054B9B69044BDB6924
:10AA600072B600BF9DF80030002BFBD162B618BD56
:10AA70005840002070B504460D46204602F09CF96F
:10AA800028B12946204602F08BF9002070BD052030
:10AA9000FCE7034609B90E20704712B1501E104062
:10AAA00008B10920F8E71960501E988000209860CE
:10AAB000D86000BFF0E770B504460D46204602F0AE
:10AAC0007BF9A188884205D82946204602F087F9FB
:10AAD000002070BD0420FCE710B50446022C0AD10A
:10AAE0000C490D4A891AC908032242EA01400BA108
:10AAF00004F0B4FE01E0012010BD00BF0549064A84
:10AB0000891AC908032242EA014010A104F0A6FEF6
:10AB10000120F1E70848030080470300506F776584
:10AB200072206D616E6167656D656E742077616E10
:10AB3000747320746F20726573657420746F204481
:10AB40004655206D6F64652E00000000506F7765DC
:10AB500072206D616E6167656D656E7420616C6CED
:10AB60006F77656420746F20726573657420746FED
:10AB700020444655206D6F64652E000010B50248D4
:10AB800001F0BEFE10BD0000203A002010B50346C3
:10AB90000C460AB9072010BD19684A61012C01D181
:10ABA000012000E0002008610020F4E738B51348D8
:10ABB000006800900823582211491248006803F0E9
:10ABC000C8F804460CB1204638BD0F4A69460F4804
:10ABD00001F09CFE04460CB12046F5E701210B482C
:10ABE00001F03AFF01230A4A1946084801F05AFECB
:10ABF0000120084908702046E6E70000F03903000C
:10AC000078400020E03903007B230300203A002035
:10AC1000FFFF7F002C3A00202DE9F04106460D464B
:10AC200017463446207F10B10020BDE8F081A761AF
:10AC300002F026FB401941F10001C4E9020120693C
:10AC400000B125612146002008F0ACF9EDE770B5B0
:10AC500004462546002028772946012008F0A2F95D
:10AC600070BD00002DE9F0410446104807782146E8
:10AC70000F48FFF7FFFE8046A7B100200B49087080
:10AC800001220C490C4803F0F9FE054600BF2E4690
:10AC900036B100BF09A2D6213046FCF7BBFA00BF8F
:10ACA00000BF00BF4046BDE8F0810000AE3A002082
:10ACB00098420020AD3A0020943A00202E2E5C2EBF
:10ACC0002E5C2E2E5C2E2E5C2E2E5C2E2E5C2E2EBE
:10ACD0005C636F6D706F6E656E74735C6C696272CD
:10ACE00061726965735C756172745C6170705F75C7
:10ACF0006172745F6669666F2E6300002DE9F04132
:10AD000088B004460E46174698462B4807601EB981
:10AD1000072008B0BDE8F081B08882B227483168CA
:10AD2000FFF7B7FE054600BF284600B1F1E700BFB8
:10AD3000B08982B22248B168FFF7ABFE054600BF7A
:10AD4000284600B1E5E700BF20221E496846FCF70F
:10AD5000ABFB60690690207C08B1012000E0002078
:10AD60008DF814008DF81C80607C08B10E2000E086
:10AD700000208DF81500E0680290A068039020681C
:10AD8000019060680090104A6946104803F030FE58
:10AD9000054600BF284600B1BBE700BF00200C49B4
:10ADA00008702068401C28B101220A49074803F0B6
:10ADB00065FEAEE70020ACE7A83A002098420020EC
:10ADC000A8420020203C0300B9300300943A002040
:10ADD000AE3A0020AD3A00202DE9F0410546294663
:10ADE0001448FFF768FE064606BB134C0027207880
:10ADF0001249085C20B1201D06F028F9074608E03A
:10AE000020780E49085C20B904F10C0005F0C6FF5B
:10AE1000074600BF57B90A490648FFF72BFE28B975
:10AE200001220749044803F04BFE06463046BDE8C0
:10AE3000F0810000A8420020943A0020043A00204B
:10AE4000AC3A002010B50446204607F021FC10BDA6
:10AE500070B5044625460E488068B0B1ADB9FFF71D
:10AE600025FB06460A4800680A4908600848406809
:10AE70004FF0E021C1F804010020054988601EB9A7
:10AE800000BF62B600BF00BF00BF00BF70BD0000C2
:10AE9000E040002000E100E0F8B505460C4617460A
:10AEA0002088001DB84201D90C20F8BD684679DF22
:10AEB000064600BF304600B1F7E700BF03202188F7
:10AEC00068542088401C20801920218868542088DC
:10AED000401C208020884119BDF8000008F0DEFAEF
:10AEE0002188084420800020DFE770B505460C4625
:10AEF0002068401C28B1206804F002FA206804F0A1
:10AF0000B3F96068401C18B10321606804F092F93D
:10AF10002868A169C0F8241500BF617D227D2868DA
:10AF200041EA0203C0F86C3500BFD4E9001228687A
:10AF300005F0F4FB207D012814D1A068401C18B155
:10AF40000321A06804F076F9E068401C28B1E068AD
:10AF500004F0D6F9E06804F087F9D4E90221286802
:10AF600005F0C4FB70BD70B505460C462068401C5A
:10AF700028B1206804F0CFF9206804F081F96068F6
:10AF8000401C18B10021606804F061F92868A169CB
:10AF9000C0F8241500BF617D227D286841EA0203C4
:10AFA000C0F86C3500BFD4E90012286805F0F0FB4A
:10AFB000207D012814D1A068401C18B10021A06890
:10AFC00004F045F9E068401C28B1E06804F0A3F9FA
:10AFD000E06804F055F9D4E90221286805F0B9FBCE
:10AFE00070BD0000002114E00C48D0F810240123AB
:10AFF00008E000BFD0680079884201D1002303E057
:10B00000D0680268002AF4D100BF0BB1084670472F
:10B01000491C0A29E8DB4FF0FF30F8E750440020D4
:10B020002DE9F04104460F46154615B90E20BDE83E
:10B03000F0810020286000BF0CB90E20F7E700BFA8
:10B0400000BF206808B90E20F1E700BF00BFE0880C
:10B05000C11700EB91718910A0EB810109B10720A4
:10B06000E5E700BF384600F0B1FBC6B2142E01D1AF
:10B070000520DCE72079B04201DC0420D7E7E18835
:10B08000206806FB010028600020D0E72DE9FC4184
:10B09000054688461646002437880020308095F8FB
:10B0A0002D0058B13A463146404600F0B3FB044605
:10B0B00000BF204608B1BDE8FC8100BFA87850B1B0
:10B0C0003A4631464046FFF7E7FE044600BF2046B9
:10B0D00000B1F0E700BFE87860B1E97848B23B46DC
:10B0E0003246414601F0ADFE044600BF204600B1A5
:10B0F000E1E700BF686868B1696891F900003B4604
:10B100003246414607F0BDFF044600BF204600B16D
:10B11000D1E700BF288900280EDD43460622022120
:10B1200005F10800CDE9006708F08BFA044600BF7E
:10B13000204600B1BFE700BF288A00280EDD434645
:10B140000722032105F11000CDE9006708F079FA24
:10B15000044600BF204600B1ADE700BF288B0028A1
:10B160000EDD43461522142105F11800CDE90067D4
:10B1700008F067FA044600BF204600B19BE700BF15
:10B18000286A58B13B4632464146286A01F024FA03
:10B19000044600BF204600B18DE700BF686A58B181
:10B1A0003B4632464146686A02F01EFC044600BF38
:10B1B000204600B17FE700BF95F82C0000280BDD8A
:10B1C0003B4632464146284607F076FB044600BF20
:10B1D000204600B16FE700BF287858B13B463246A1
:10B1E0004146284602F0BCFC044600BF204600B1A0
:10B1F00061E700BF20465EE72DE9F8430646884632
:10B200001546002000900DB9BDE8F88309236A4671
:10B210004146304600F02BF80446BDF800003718D0
:10B22000BDF8000068B164B12846FCF76DF9A04292
:10B2300007D1224639462846FCF77BF908B9012098
:10B24000E2E70020E0E7F8B504460E461546002088
:10B2500000902B466A463146204600F008F8074623
:10B260000FB90020F8BDBDF800002044FAE7F0B5A2
:10B2700004460D461E4604B10AB90020F0BD002167
:10B2800003E0605C401C084481B2481CA84206DA16
:10B2900010888842F5DC481C205CB042F1D1A942FC
:10B2A00001DB0020EAE7881C87B2605C10B1605CBB
:10B2B000401E00E0002083B213B1F818A84201DD5F
:10B2C0000020DBE717801846D8E72DE9F04788B063
:10B2D00004460E4617460020079010200690B246FE
:10B2E00002AA06A9384664DF814614B1B9F1000FFD
:10B2F00003D0002008B0BDE8F0879DF818000228B0
:10B3000004D0042809D0102815D10DE003208DF8B1
:10B31000040002208DF805000FE005208DF80400E0
:10B3200004208DF8050008E007208DF804000620B1
:10B330008DF8050001E00020DCE700BF002509E0F2
:10B3400001A8435D07AA31462046FFF790FF8246D9
:10B35000681CC5B2022D03DABDF81C000028EFD02E
:10B36000BDF81C0008B90020C4E7BDF81C0004EBC0
:10B37000000800250DE008EB05009DF8182002A943
:10B38000FCF7D7F808B90120B4E79DF81800284465
:10B3900085B25545EFDB0020ACE72DE9FF410446BF
:10B3A0000D46164600BF1CB90E2004B0BDE8F08162
:10B3B00000BF207808B90820F7E715B90EB90E20AC
:10B3C000F3E700200090019002900390DDB1D4F8E3
:10B3D0002004016804F15500814200D001E004F22C
:10B3E000431000902046FFF7A9F9ADF8040001AA28
:10B3F00028460099FFF74AFE074600BF384600B1CD
:10B40000D3E700BF00BFDEB1D4F82004816804F2A6
:10B410003120814200D001E004F21F30029020462A
:10B42000FFF78CF9ADF80C0003AA30460299FFF73C
:10B430002DFE074600BF384600B1B6E700BF00BF8B
:10B4400004F580609DE88E0010308EC01038C4F87E
:10B450002004002204F15400D4F8201472DFA4E781
:10B4600080F83010704770B504460D4605B10CB930
:10B470000E2070BD05F1780001F047F808B90720EB
:10B48000F7E70020A0702C2205F17801201DFCF7C1
:10B490000BF8002084F83000D5F8A4006063D5F8DC
:10B4A000A800A0634FF6FF70A4F8240404F582609E
:10B4B000C4F82004002140F22C40C4F82614A4F85B
:10B4C0002A140155207810B9FF2084F8540004F1A3
:10B4D0005500C4F810042046FFF730F940F214413B
:10B4E000085304F2144204F155012846FFF7CEFD3B
:10B4F000064600BF304600B1BBE700BF04F2312072
:10B500004FF4836108512046FFF718F9A4F81C0492
:10B510004FF48360015904F21C4205F13C00FFF72F
:10B52000B5FD064600BF304600B1A2E700BF0121CD
:10B5300051200155208B81B248200153012084F80D
:10B540003C0000212164502001556169616404F1CF
:10B550003C02002104F1540072DF064600BF304671
:10B5600000B186E700BF01202070304681E770B54A
:10B5700004460D462C222946201DFBF795FF70BD81
:10B5800070B504460D462E462088102804D0112898
:10B5900007D026280FD109E02146304605F0B6FE37
:10B5A0000AE02146304605F0C3FF05E0214630465B
:10B5B00006F059F900E000BF00BF70BD70B5044649
:10B5C0000E46207808B9082070BDA670002140F210
:10B5D0002C40C4F82614A4F82A140155A07910B1FF
:10B5E000A078012809D0E07910B1A078012804D012
:10B5F000E07970B1A07802280BD1606B30B10120E6
:10B6000084F82D040820616B884702E0002084F84C
:10B610002D0431462046FFF741F8A070606BA0B1C1
:10B62000A078032802D0A07804280ED1607960B1F8
:10B6300094F82E0448B9002084F83004012084F8DE
:10B640002F040720616B884702E0002084F82F0454
:10B65000182104F13C00FBF740FF012084F83C0076
:10B6600004F12C0006F0FAF920B194F82C105120C6
:10B67000015502E001215120015594F8240060B1E8
:10B6800004F1280006F0EAF920B194F828105220BD
:10B69000015502E0012152200155002150200155A1
:10B6A000A078052824D2DFE800F01F030A11180053
:10B6B00004F13C01204607F062F9054619E004F167
:10B6C0003C01204607F043F9054612E004F13C0135
:10B6D000204607F066F905460BE004F13C012046E0
:10B6E00007F08DF9054604E0002084F8310000E001
:10B6F00000BF00BFA07898B104F13C0204F15400EF
:10B70000D4F8201472DF05460DB128465CE794F8A2
:10B71000301094F8540073DF05460DB1284653E706
:10B72000606B18B194F83100616B884700204BE7DB
:10B730002DE9F041044600BF14B90E20BDE8F081A8
:10B7400000BF1C2221461C48FBF7AEFE1B481A49CD
:10B750000860206860B120687ADF05460DB1284690
:10B76000ECE7164821680A6802604968416005E014
:10B7700012487BDF05460DB12846DFE7002617E0BB
:10B7800006EB86000E4901EB800700BF4FF6FF7005
:10B79000388000BF0B4800EB461078600A4A002151
:10B7A000381DFFF7F3F905460DB10320C6E7761CF7
:10B7B000002EE5D00020C1E78C3E0020F0390020AB
:10B7C000783E0020583E00208535030010B5044621
:10B7D000204600F011F808B1204610BD1420FCE707
:10B7E00070B504460D46034988682A46214601F093
:10B7F00059FB70BDA83E002010B50446142C01DB97
:10B80000002010BD2146024802F0FEFAF9E70000D0
:10B81000AC3E00202DE9FC4105460C461746208829
:10B820000930B84202D90C20BDE8FC8168466DDFC2
:10B83000064600BF304600B1F6E700BF0820218869
:10B8400068542088401C20801B2021886854208850
:10B85000401C208020882844DDF801100160BDF8DC
:10B86000051081802088801D20809DF80000400800
:10B8700018B900202188685402E00120218868540A
:10B880002088401C20800020CEE7000070B502F028
:10B89000A3FF044600BF204600B170BD00BF00BF3B
:10B8A000084D28464FF0030C00DF00BF044600BFE0
:10B8B000204600B1F1E700BF03F008F80446204637
:10B8C000EBE70000243F0020014600BF09B90E202D
:10B8D000704700BF014801600020F9E7F8390020F7
:10B8E00010B54FF0FF3100203DDF044600BF204679
:10B8F00000B110BD00BFB12100203CDF044600BFF5
:10B90000204600B1F5E700BF04484169012088479F
:10B91000022004F007FA0020EBE700004C3F002073
:10B9200010B505480068416900208847FFF7D8FF37
:10B930000446204610BD0000F839002010B588B03C
:10B94000044620216846FBF7C8FD0320ADF800003F
:10B9500020788DF802009DF80D0020F020002030A6
:10B960008DF80D009DF80D0020F0080008308DF8CE
:10B970000D0001208DF810008DF80C001720ADF897
:10B98000040001208DF813008DF812008DF81100CD
:10B990006088A21D694600F095FC08B010BD00004B
:10B9A00030B585B00546244B0FCB8DE80F0000BFA6
:10B9B00015B90E2005B030BD00BF4FF6FF701F490E
:10B9C000888028684861002008760846406908B9E0
:10B9D0001B4848611948FFF777FF044600BF20461F
:10B9E00000B1E7E700BF00BF01208DF812004FF65D
:10B9F0005960ADF8100000BF104A921C04A9012044
:10BA0000A8DF044600BF204600B1D3E700BF0B49C2
:10BA1000684662DF044600BF204600B1CAE700BFA7
:10BA20000648FFF78BFF044600BF204600B1C1E780
:10BA300000BF0020BEE70000303903004C3F00206B
:10BA400093CB020070B504460D4600BF04B970BD2B
:10BA500000BF2088102806D0112808D051280AD00D
:10BA6000532810D10BE0204605F04AFC0CE020469C
:10BA700005F050FD08E0204605F09EFE04E020465B
:10BA800005F010FE00E000BF00BF00BFDFE70000D0
:10BA900070B504460426207B012802D0022822D15A
:10BAA00009E001F077F805460DB9012602E0112DF5
:10BAB00000D1062619E0607B142801DC607B08B900
:10BAC00005260FE0627B04F10E011248FBF7ECFC47
:10BAD000607B1049091F8861084606F0BFFF0546D4
:10BAE00005B9012601E0022600BF00BF012E0FD0DC
:10BAF000207B314600F058F8054625B1064800681D
:10BB0000416903208847044800684169022088474A
:10BB100070BD0000343F0020F839002070B50546A4
:10BB20000E4600BF1E48006820B11D48406808B19D
:10BB3000012000E0002000B970BD00BF184800F1EE
:10BB40000801426828469047044600BF082C24D0CC
:10BB50007CB900201349096848760121022000F0D1
:10BB600023F80446CCB10F48006841690320884798
:10BB700013E000200B49096848760621022000F0F6
:10BB800013F8044624B10748006841690320884738
:10BB90000448006841690220884700BFCCE70000E4
:10BBA000243F0020F8390020F0B587B004460D4648
:10BBB0000327002001900290039004900320069038
:10BBC00020208DF814008DF815408DF816500E4881
:10BBD000C088ADF8040002208DF806000020ADF802
:10BBE000080006A8039005A804900749888801A9C1
:10BBF000AEDF064626B9BDF81800032800D00C2693
:10BC0000304607B0F0BD00004C3F002030B58BB08F
:10BC1000044634B1012C29D0022C32D0032C49D156
:10BC20003AE02B492B4A891AC908032242EA01400B
:10BC300029A103F013FE6846FEF7E4FD01208DF80C
:10BC4000000069463048FFF792FC00212F48FFF7BB
:10BC5000C7FD05461E491F4A891AC908032242EA40
:10BC600001402A462AA103F003FE2EE01849194A92
:10BC7000891AC908032242EA01402BA103F0EEFD14
:10BC800023E01349134A891AC908012242EA0140F4
:10BC90002EA103F0E3FD18E00D490E4A891AC908E8
:10BCA000012242EA014038A103F0D8FD00BF002084
:10BCB00000BF0AE00649074A891AC908012242EA78
:10BCC00001403DA103F0CAFD00BF00BF0BB030BD75
:10BCD000084803008047030044657669636520696E
:10BCE0007320707265706172696E6720746F206571
:10BCF0006E74657220626F6F746C6F616465722020
:10BD00006D6F64652E000000984C002025C802006D
:10BD1000446973636F6E6E65637465642025642087
:10BD20006C696E6B732E00004465766963652077DD
:10BD3000696C6C20656E74657220626F6F746C6FD5
:10BD400061646572206D6F64652E000052657175C7
:10BD500065737420746F20656E74657220626F6FF6
:10BD6000746C6F61646572206D6F646520666169D3
:10BD70006C6564206173796E6368726F6E656F7550
:10BD8000736C792E00000000526571756573742024
:10BD9000746F2073656E64206120726573706F6EBE
:10BDA000736520746F20636C69656E7420666169C9
:10BDB0006C65642E00000000556E6B6E6F776E2010
:10BDC0006576656E742066726F6D20626C655F6467
:10BDD00066755F627574746F6E6C6573732E0000A8
:10BDE00070B505460E462888102802D011282CD19F
:10BDF00015E01748006860B900F04CFC044600BF2D
:10BE000034B11448006818B12046124909688847BF
:10BE100000BF0F480068401C0D49086016E00C4840
:10BE20000068401E0A4908600846006860B9FEF7CD
:10BE3000BFFC044600BF34B10648006818B1204674
:10BE400004490968884700BF00E000BF00BF70BD1B
:10BE5000EC390020E839002070B504460D462088F2
:10BE6000102806D0112808D012280ED0502810D142
:10BE700007E0204605F0D2F90CE0204605F030FB43
:10BE800008E0204605F020FD04E0204605F0AEF96C
:10BE900000E000BF00BF70BD2DE9F04104460F4631
:10BEA000A6882088102806D0112819D019283FD03C
:10BEB0001A284AD118E006F0F7F9304606F080F863
:10BEC00030B900BF22A2F0210420FBF7A3F906E05D
:10BED000E07B022803D131462C4801F0A4FF34E076
:10BEE000304606F005FA30E0207A0509042D01DB22
:10BEF000012000E000200246314624480C3000F0CA
:10BF000091FF032D01DB012000E0002002463146B5
:10BF10001E48083000F086FF022D01DB012000E002
:10BF20000020024631461948001D00F07BFF0CE05E
:10BF3000207A48B9607AC0F3C0052A4631461348D2
:10BF40000C3000F06FFF00BF00BF00BFBDE8F08104
:10BF50002E2E5C2E2E5C2E2E5C2E2E5C2E2E5C2E1B
:10BF60002E5C2E2E5C636F6D706F6E656E74735CED
:10BF7000626C655C636F6D6D6F6E5C626C655F6358
:10BF80006F6E6E5F73746174652E6300B43E002043
:10BF900070B58EB004460E463E4B0FCB09AD0FC5B3
:10BFA00000BF14B90E200EB070BD00BF00BF0EB9A7
:10BFB0000E20F8E700BF3068A061214609A862DFC3
:10BFC000054600BF284600B1EDE700BF20788DF898
:10BFD00036000120ADF83400A21C0DA9A8DF0546EB
:10BFE00000BF284600B1DEE700BF202101A8FBF713
:10BFF00074FA0220ADF8040020788DF80600F420D1
:10C00000ADF808000120ADF80A008DF810009DF889
:10C01000110020F0080008308DF811009DF8110083
:10C0200020F00400001D8DF8110001208DF815008E
:10C030008DF81600608804F10C0201A900F042F9A5
:10C0400005460DB12846AEE7202101A8FBF745FAC9
:10C050000320ADF8040020788DF80600F420ADF838
:10C0600008000120ADF80A008DF810009DF81100BD
:10C0700020F0100010308DF8110001208DF815000F
:10C080008DF816008DF817006088221D01A900F0B8
:10C0900019F988E71839030070B504460D4605B153
:10C0A00004B970BD2E462088102804D0502807D02F
:10C0B00057280FD109E02146304605F0E7F80AE09D
:10C0C0002146304605F02CFC05E02146304605F0BF
:10C0D000FFFA00E000BF00BF00BFE2E770B5044612
:10C0E000204607F0D5F90546C5F3400070BD70B590
:10C0F0000446204607F0CCF9054605F0010070BD66
:10C1000030B503460020042B23D2012A07D1012990
:10C1100003D103F10E04E4B200E00024224679B119
:10C12000012902D0022911D104E003EB43040A4D96
:10C130002A550DE003EB4304074D2C44627007E0E1
:10C1400003EB4304044D2C44A27001E0072000BF20
:10C1500000E0072030BD0000283E00202DE9FC470C
:10C1600004460D461646A71C4FF00108002001901A
:10C1700001A8FEF767FE3048406828602E484068F6
:10C180002D498968411A2D480068401CA0EB01091F
:10C1900015E001212A4801F06AFE01F06BFB82469E
:10C1A0005146274801F063FE2348406822498968C8
:10C1B000411A22480068401CA0EB010900BF4F450E
:10C1C000E7D8B8F1000F30D00021009176B1009986
:10C1D00021F00301491C0091009921F00401091D7F
:10C1E0000091009964F3891100910DE0009921F00C
:10C1F0000301891C0091009921F00401091D00919F
:10C20000009964F39F5100910B4949680B4A1268E9
:10C210001140094A0C3202EB810000990160064985
:10C22000496839440C3A516000BF9DF80400FEF79C
:10C230000FFE4046BDE8FC8750440020C83A00206D
:10C240006C48002070B504460D460A2D03D10D211F
:10C250002046FFF7F7FFA168481CA06020684554FE
:10C26000D4E90110884202D3204602F060FC70BD80
:10C270000448806803494968884201D10120704719
:10C280000020FCE75044002070B504460D46032C06
:10C2900006D1A9200349086000BF002003F042FD39
:10C2A00070BD0000200500400146024850F8210002
:10C2B000704700007C3F002001460148405670470F
:10C2C000AC3F002070B590B006460C461546A078ED
:10C2D00018B901208DF80E0002E0A0788DF80E004C
:10C2E0002088ADF80C0000200290607C02A906F0C6
:10C2F000E5FBA07C0DF1090106F0E0FBE07B08B155
:10C30000012000E000209DF80A1060F3C3018DF8C1
:10C310000A10207C08B1012000E000209DF80A10DE
:10C3200060F304118DF80A10207B08B1012000E0B1
:10C3300000209DF80A1060F300018DF80A10207D9E
:10C3400008B1022000E001209DF80A1060F34201CC
:10C350008DF80A101C2109A8FBF7BFF8607BC0F319
:10C36000001018B9607BC0F34010F8B100200090B5
:10C37000E07C0DF1010106F0A1FB00BF9DF800007B
:10C3800020F00F00401C8DF800009DF8000020F008
:10C39000F00010308DF8000000BF9DF8020020F082
:10C3A0000600801C8DF80200CDF838D0607B8DF837
:10C3B0002400A07B8DF82500142104A8FBF78DF83C
:10C3C00003A8049002A80590A088ADF81C00A068FE
:10C3D00020B1E088ADF81800A0680890A069002896
:10C3E00049D000200190A0690088ADF82C00A06918
:10C3F0004088ADF82E00A06940680A9001A80D9011
:10C40000A169087B01A906F059FBA169487B0DF1E0
:10C41000050106F053FBA069807A08B1012000E015
:10C4200000209DF8061060F3C3018DF80610A06986
:10C43000C07A08B1012000E000209DF8061060F3EA
:10C4400004118DF80610A069007A08B1012000E0FF
:10C4500000209DF8061060F300018DF80610A06919
:10C46000807B08B1022000E001209DF8061060F3F7
:10C4700042018DF80610E06908B1E0690C902B4686
:10C4800004AA09A93046AADF10B070BD70B50546F0
:10C490000DB9094C01E0084C083409E0204601F0D0
:10C4A000B7F9064606B904E028467168884700BF18
:10C4B000F4E700BF70BD0000703F002010B50446D7
:10C4C0002CB90120064948700020FFF7DFFF012C3E
:10C4D00004D1012002498870FFF7D8FF10BD000089
:10C4E000683F00202DE9F047024613468C46D3E909
:10C4F0000245DCE90267B6EB040877EB050002D3DE
:10C500000120BDE8F0870020FBE70146887801287C
:10C5100005D191F82000012801D1002070470120A9
:10C52000FCE70246002007E0536833F810308B42E6
:10C5300000D17047431C98B213888342F4DC00BFDB
:10C54000F7E733B58BB00546002000900C9878B122
:10C5500000240BE021460CA801F056FC28B1009AFB
:10C56000501C009001A820F81240641C142CF1D338
:10C570002C2269462846FAF797FF0DB030BD0146D8
:10C580000888062808DB0888B0F5486F06DD0888AB
:10C590004FF6FF72904201D0072070474888062866
:10C5A00008DB4888B0F5486F06DD48884FF6FF7213
:10C5B000904201D00720F0E708884FF6FF729042C2
:10C5C00008D04888904205D008884A88904201DD0A
:10C5D0000720E2E70020E0E72DE9F04107460D469D
:10C5E000144698462088801D404502D90C20BDE89D
:10C5F000F0813846FFF7C3FF064600BF304600B162
:10C60000F5E700BF0520218868542088401C208061
:10C610001220218868542088401C208022885119CB
:10C62000388806F03BFF2188084420802288511971
:10C63000788806F033FF2188084420800020D6E760
:10C64000F8B505460C46607A88B9207A10B91048CA
:10C65000476801E00E4887682A4639466068FEF759
:10C66000DBFA064616B1304606F0C6F80EE00020AA
:10C6700020720748406948B101208DF80000ADF8EC
:10C680000250034841696846884700BFF8BD000072
:10C690008C3E002010B5012200210846FFF730FD36
:10C6A000044600BF1CB1072C01D0204610BD00BFBE
:10C6B000072202210120FFF723FD044600BF1CB121
:10C6C000072C01D02046F1E700BF04220221002000
:10C6D000FFF716FD044600BF1CB1072C01D0204611
:10C6E000E4E700BF0020E1E72DE9FF4105460C46E5
:10C6F000002002900390ADF80840ADF80A40009089
:10C7000001906A4602A9284690DF0646002E32D0E4
:10C71000304603F0A7FF074619491A4A891AC90883
:10C72000012242EA01403B462A46174903F0ACF891
:10C73000BDF8000010B9BDF8020068B1BDF80230C4
:10C74000BDF800200E490F4FC91BC908012747EA51
:10C7500001400EA103F098F8BDF8040058B1BDF8EF
:10C7600004200749074BC91AC908012343EA0140BD
:10C77000164903F07DF8304604B0BDE8F0810000B2
:10C780008047030080470300FC3D03005468652098
:10C790007265717565737465642054582F52582002
:10C7A0007061636B6574206C656E67746820697373
:10C7B00020746F6F206C6F6E672062792025752F53
:10C7C0002575206F63746574732E0000483E030066
:10C7D00070B506460D4616B14FF4064070BD287977
:10C7E00020B1012809D0022815D111E002202871BA
:10C7F000284605F043FC044610E0284600F0F8FA0D
:10C80000044648F20960844201D141F61D5405E016
:10C8100041F61D5402E048F20E6400BF00BF2046FE
:10C82000DCE7000070B504460E461321204676DF93
:10C8300005465DB10649074A891AC908022242EA3B
:10C8400001402B462246044903F01EF870BD00004B
:10C8500008480300804703003046030010B500215C
:10C86000034801F030FB044684F3100010BD0000C3
:10C870006C48002070B505460C464FF4803000FA35
:10C8800004F1284600F064FA70BD70B505460C4608
:10C890004FF4A07000EB840086B23146284600F0C9
:10C8A00071FA70BD2DE9F04704460D4616461F4645
:10C8B0004FF4803000FA05F84FF4A07000EB8500CB
:10C8C0001FFA80F926F07F464146206803F05DFBA1
:10C8D0004146206803F053FB4946206803F048FBBB
:10C8E00032462946206803F03AFB4146206803F0AF
:10C8F00049FB1FB14146206803F04AFBBDE8F087C1
:10C9000010B50446206803F02FFB10BD2DE9F04759
:10C9100004460D4617466079324941F82070607927
:10C92000314901EBC000007968B108262F49304A2F
:10C93000891AC908022242EA01402EA102F08EFFA4
:10C940003046BDE8F08729882068C0F8081500BF88
:10C9500094F90420AB7810461946002808DB4FEA0A
:10C96000417C4FEA1C68DFF8B0C00CF800800BE097
:10C970004FEA417C4FEA1C69DFF8A0C000F00F08C5
:10C98000A8F104080CF8089000BF00BF94F9041047
:10C99000084600280DDB00BF00BF00F01F03012286
:10C9A0009A4043099B0003F1E023C3F8002100BF34
:10C9B00000BF00BF00BF012061790B4A02EBC1013B
:10C9C00008716079114641F8304000260749084A4D
:10C9D000891AC908032242EA014011A102F03EFF70
:10C9E0003046AEE7443A0020483A0020E8470300CA
:10C9F0008047030052544320696E7374616E63650F
:10CA000020616C726561647920696E697469616C1A
:10CA1000697A65642E00000000E400E018ED00E093
:10CA20005254433A20696E697469616C697A65642D
:10CA30002E00000010B5014691F90400002807DB24
:10CA400000F01F0301229A40024B440943F82420BE
:10CA500000BF10BD00E200E070B505460C4622465E
:10CA60000221284600F080F970BD10B504464FF44D
:10CA70008271204600F086F910BD10B504460021F1
:10CA8000206803F088FA10BD10B504460421206820
:10CA900003F081FA10BD2DE9F84F0446884615468B
:10CAA00099464FF4803000FA08FA4FF4A07000EB7A
:10CAB00088001FFA80FB25F07F455146204600F094
:10CAC00047F9206803F050FA06464146206803F013
:10CAD00040FA009032464146206803F040FA594639
