:020000040002F8
:1070000060750020DD730200E5730200E773020083
:10701000E9730200EB730200ED7302000000000050
:10702000000000000000000000000000EF730200FC
:10703000F173020000000000F3730200F573020018
:10704000658E0200F7730200219A0200F7730200B6
:10705000F773020000000000A98D0200000000008C
:10706000C1990200D9990200F1990200F773020058
:10707000F7730200F7730200F7730200F773020060
:1070800011A3020059970200F7730200F773020080
:10709000F7730200F7730200FD970200F773020016
:1070A000F7730200F7730200099A02000000000063
:1070B00000000000000000000000000000000000D0
:1070C00000000000000000000000000000000000C0
:1070D000000000000000000000000000F773020044
:1070E00000000000000000000000000000000000A0
:1070F0000000000000000000000000000000000090
:10710000000000000000000000000000000000007F
:10711000000000000000000000000000000000006F
:10712000000000000000000000000000000000005F
:10713000000000000000000000000000000000004F
:10714000000000000000000000000000000000003F
:10715000000000000000000000000000000000002F
:10716000000000000000000000000000000000001F
:10717000000000000000000000000000000000000F
:1071800000000000000000000000000000000000FF
:1071900000000000000000000000000000000000EF
:1071A00000000000000000000000000000000000DF
:1071B00000000000000000000000000000000000CF
:1071C00000000000000000000000000000000000BF
:1071D00000000000000000000000000000000000AF
:1071E000000000000000000000000000000000009F
:1071F000000000000000000000000000000000008F
:10720000DFF80CD000F016FA00480047F9DA020067
:107210006075002000B583B002900091019244F2A5
:10722000010071466A4603F059FB03B000BD00003F
:1072300030B450E8012F93B2C48923448489A34217
:1072400028BF1B1B0489A34202BFBFF32F8F00205E
:1072500007E0C3EA020340E80134002CE9D14FF013
:1072600001000A6030BC704750E8012FC2EA0242B8
:1072700040E801210029F7D1704730B450E8022FCF
:107280001FFAA2F3C488A34202BFBFF32F8F0020CE
:107290000DE0C48923448489A34228BF1B1BC2EA92
:1072A000034340E80234002CE8D14FF001000A60AB
:1072B00030BC704750E8022FC2EA224240E8022167
:1072C0000029F7D17047034653E8022FD988B2EB63
:1072D000324F4FF0000017BF92B241EA014142EA3B
:1072E000014104E05A68B2EB324F08BF012043E885
:1072F0000212002AE8D1704730B4044654E8000F67
:107300000D4644E80053002BF8D1156030BC70479F
:1073100030B4044654E8000F40EA010544E8005345
:10732000002BF7D1156030BC704730B4044654E8E8
:10733000000F00EA010544E80053002BF7D1156067
:1073400030BC704730B4044654E8000F80EA0105B1
:1073500044E80053002BF7D1156030BC704730B4BF
:10736000044654E8000F00EB010544E80053002BED
:10737000F7D1156030BC704730B4044654E8000FB4
:10738000A0EB010544E80053002BF7D1156030BC99
:10739000704770B404464FF0000054E8006F0D6869
:1073A000AE4207BF44E80023012044E800630E60BA
:1073B000002B1CBF0020F0E770BC704730B40446BF
:1073C00054E8000F88422CBF451A054644E8005394
:1073D000002BF5D1156030BC70470000064880478F
:1073E00006480047FEE7FEE7FEE7FEE7FEE7FEE7AA
:1073F000FEE7FEE7FEE7FEE71598020001720200D5
:107400002DE9F05F0546002092469B4688460646D9
:10741000814640241BE0284641464746224600F06C
:107420002FF853465A46C01A914110D311461846B8
:10743000224600F016F82D1A67EB01084F46224647
:107440000120002100F00DF817EB00094E41201E2D
:10745000A4F10104DFDC484631462A464346BDE834
:10746000F09F202A04DB203A00FA02F10020704746
:107470009140C2F1200320FA03F319439040704772
:10748000202A04DB203A21FA02F00021704721FA79
:1074900002F3D040C2F120029140084319467047E0
:1074A00000487047083F030040EA01039B0703D0F0
:1074B00009E008C9121F08C0042AFAD203E011F833
:1074C000013B00F8013B521EF9D27047D2B201E0F5
:1074D00000F8012B491EFBD270470022F6E710B5D9
:1074E00013460A4604461946FFF7F0FF204610BD32
:1074F000421E12F8013F002BFBD111F8013B02F8AC
:10750000013B002BF9D17047421C10F8011B0029E8
:10751000FBD1801A704710B5002200E0521C835C3A
:107520008C5CA34201D1002BF8D1D8B2E1B2401A51
:1075300010BD30B504460020034600E05B1C9342BA
:1075400003D2E05CCD5C401BF8D030BD034611F89F
:10755000012B00F8012B002AF9D11846704730B5ED
:1075600005460020034600E05B1C934205D2EC5C1C
:10757000C85C201A01D1002CF6D130BD70B506468A
:1075800002F0C0FF046805460A220021304600F0E0
:1075900018F82C6070BD30B50B4601460020202243
:1075A000012409E021FA02F59D4205D303FA02F510
:1075B000491B04FA02F52844151EA2F10102F1DC70
:1075C00030BD2DE9F04791460F468046044600261F
:1075D00014F8015B2DB1FFF763FF0068405DC00741
:1075E000F6D12B2D02D02D2D18D0641E4A463946D7
:1075F000204600F031F827B13968A14201D1C7F81F
:10760000008071054FF002040BD54042002803DDD5
:1076100002F078FF0460A007BDE8F08746F48066BA
:10762000E4E70028F8DA02F06DFF04606FF0004034
:10763000F2E70000064C074D06E0E06840F0010369
:1076400094E8070098471034AC42F6D3FFF7DCFD0E
:1076500060480300804803002DE9F05F824600780F
:10766000002715468B460AF10104B946302801D09F
:107670009DB113E014F8010B0127782803D0582896
:1076800001D045B10AE00DB1102D07D1002710251A
:1076900014F8010B02E0082500E00A250026B04698
:1076A0000EE005FB080005FB06F1012701EB104683
:1076B0001FFA80F8B6F5803F00D3B94614F8010BE5
:1076C000294600F018F80028EBDABBF1000F05D0CE
:1076D0000FB1641E00E05446CBF80040B9F1000F32
:1076E00006D002F00FFF02210160C81EBDE8F09F26
:1076F00048EA0640FAE73A2800D2303820F0200263
:10770000412A01D3A2F13700884201D34FF0FF3064
:10771000704770B58C1810F8015B15F0070301D1A4
:1077200010F8013B2A1106D110F8012B03E010F8E4
:10773000016B01F8016B5B1EF9D12B0705D4002307
:10774000521E0DD401F8013BFAE710F8013BCB1AA9
:10775000921C03E013F8015B01F8015B521EF9D59E
:10776000A142D8D3002070BDF8B50446684601F0A8
:1077700023FF14B1032C11D111E00321094803F0B8
:1077800079FF054600BF2E4636B100BF06A29921FB
:107790003046FFF73FFD00BF00BF00E000BF00BF65
:1077A000F8BD0000B84C00202E2E5C2E2E5C2E2E34
:1077B0005C2E2E5C2E2E5C2E2E5C2E2E5C75736540
:1077C000725C757365725F626C652E630000000009
:1077D000F0B5BDB0044665784FF6FF7000EA0525A8
:1077E000207805432749284A891AC908032242EA12
:1077F00001402A4625A108F0E7F81222A11C38A86A
:10780000FFF752FEADF8D45038A935A88160122098
:10781000ADF8D800684601F063FCAC210AA8FFF778
:107820005CFE00208DF82A0006208DF82B0009A8A8
:107830000B9035A8139002208DF864000121ADF85B
:10784000741016491E9101218DF8A41006992C91EF
:1078500000212D91124833900AA9124803F05FFECF
:10786000064600BF374637B100BF0FA28321384616
:10787000FFF7D0FC00BF00BF01210A4803F04CFE17
:107880003DB0F0BD184903009048030069642D2DF8
:107890002D2D2D206973203078257800983B00200D
:1078A00069770200B84C00202E2E5C2E2E5C2E2E06
:1078B0005C2E2E5C2E2E5C2E2E5C2E2E5C7573653F
:1078C000725C757365725F626C652E630000000008
:1078D00070B503210A4803F0CDFE04460CB102F056
:1078E000F1FD00BF254635B100BF06A2A8212846FC
:1078F000FFF790FC00BF00BF012001F0FBFD70BD51
:10790000B84C00202E2E5C2E2E5C2E2E5C2E2E5C73
:107910002E2E5C2E2E5C2E2E5C757365725C75733C
:1079200065725F626C652E630000000070B50B49E4
:1079300091F8540074DF04460CB102F0C3FD00BF9F
:10794000254635B100BF06A2B6212846FFF762FCE6
:1079500000BF00BF002001F0CDFD70BDB84C00207D
:107960002E2E5C2E2E5C2E2E5C2E2E5C2E2E5C2E51
:107970002E5C2E2E5C757365725C757365725F622A
:107980006C652E6300000000F0B5B1B00446657868
:107990004FF6FF7000EA0525207805431222A11C4E
:1079A0000EA8FFF781FD04A801F09AFBADF8045082
:1079B0000EA903911220ADF808003C2122A8FFF780
:1079C0008CFD3C2113A8FFF788FD00208DF88A006C
:1079D0000DA8239001A82B9006208DF88B00012084
:1079E000ADF85C000C49189102208DF84C0013AAE8
:1079F00022A90A4803F02DFD064600BF37463FB1D5
:107A000000BF07A240F256213846FFF703FC00BF33
:107A100000BF31B0F0BD0000983B0020B84C002002
:107A20002E2E5C2E2E5C2E2E5C2E2E5C2E2E5C2E90
:107A30002E5C2E2E5C757365725C757365725F6269
:107A40006C652E630000000013210248008876DF79
:107A500070470000883B0020F8B505460F4628888F
:107A6000212851D006DC10280BD0112833D0132840
:107A700071D15CE03B286FD052286FD05628F7D1E7
:107A800091E0012001F00EFE00F019FF00F008FB6C
:107A9000002001F02FFD4E494E4A891AC9080322E1
:107AA00042EA01404CA107F085FFA8884D490880B3
:107AB000084601884C4806F044FC044600BF2646B0
:107AC0003EB100BF49A240F2AF213046FFF7A2FB12
:107AD00000BF00BF79E0002001F0E4FD00F0C8FE27
:107AE000012001F007FD00F0AFFA3949394A891A3F
:107AF000C908032242EA014046A107F05BFF4FF6A6
:107B0000FF703849088060E000200090A88869462E
:107B10008FDF044600BF26463EB100BF33A24FF4BC
:107B200031713046FFF776FB00BF00BF4DE0002308
:107B30001A4685212B4800887FDF044600BF264671
:107B40003EB100BF29A240F2CA213046FFF762FBD6
:107B500000BF00BF39E037E014E0FFE700231A461A
:107B6000194620480088B1DF044600BF26463EB1D2
:107B700000BF1EA24FF434713046FFF74BFB00BF2D
:107B800000BF22E0A888132176DF044600BF264606
:107B90003EB100BF15A240F2D7213046FFF73AFBB5
:107BA00000BF00BF11E0A888132176DF044600BFA4
:107BB00026463EB100BF0DA240F2DE213046FFF75F
:107BC00029FB00BF00BF00E000BF00BFF8BD000000
:107BD0001849030090480300436F6E6E6563746537
:107BE00064000000883B0020AC4C00202E2E5C2E50
:107BF0002E5C2E2E5C2E2E5C2E2E5C2E2E5C2E2EBF
:107C00005C757365725C757365725F626C652E631B
:107C100000000000446973636F6E6E656374656491
:107C20000000000010B5044600BF04A240F2551148
:107C30002046FFF7EFFA00BF10BD00002E2E5C2E8D
:107C40002E5C2E2E5C2E2E5C2E2E5C2E2E5C2E2E6E
:107C50005C757365725C757365725F626C652E63CB
:107C60000000000030B587B01C216846FFF735FCE6
:107C7000002000904FF4A03001904FF4F0200290CB
:107C800003208DF80C004FF6FF70ADF80E000120B8
:107C90008DF810000020059009480690684603F012
:107CA000A3FD044600BF25463DB100BF05A240F23A
:107CB00051112846FFF7AEFA00BF00BF07B030BD34
:107CC000257C02002E2E5C2E2E5C2E2E5C2E2E5C31
:107CD0002E2E5C2E2E5C2E2E5C757365725C757379
:107CE00065725F626C652E630000000030B58DB078
:107CF000684601F0F5F900BF9DF8280020F00F005C
:107D0000401C0A909DF8280020F0F00010300A90E6
:107D100000BF6846FFF7F8FB85B22A4669460AA805
:107D20007CDF044600BF25463DB100BF15A24FF4DD
:107D30009A712846FFF76EFA00BF00BF00200B9033
:107D40000C901A48008EADF82C001848408EADF803
:107D50002E001648808EADF830001448C08EADF865
:107D600032000BA87ADF044600BF25463DB100BFB4
:107D700004A24FF49F712846FFF74CFA00BF00BFE2
:107D80000DB030BD2E2E5C2E2E5C2E2E5C2E2E5C69
:107D90002E2E5C2E2E5C2E2E5C757365725C7573B8
:107DA00065725F626C652E6300000000EC5000207D
:107DB00070B50021084806F0E3F9044600BF2546E7
:107DC0003DB100BF05A24FF4B5712846FFF722FA76
:107DD00000BF00BF70BD0000904C00202E2E5C2E16
:107DE0002E5C2E2E5C2E2E5C2E2E5C2E2E5C2E2ECD
:107DF0005C757365725C757365725F626C652E632A
:107E0000000000002DE9F0410546287800283FD108
:107E10002049214A891AC908032242EA01401FA1C8
:107E200007F0C8FD002623E000BF2969885D03F044
:107E30002FF80446002C18D0112C16D01549164ADC
:107E4000891AC908012242EA0140224617A107F017
:107E5000BBFD00BF27463FB100BF1FA240F28B1100
:107E60003846FFF7D7F900BF00BF112CDDD0761CD4
:107E7000A88AB042D8D8A88A401E2969085C0D2873
:107E800005D100BF0A2003F003F81128FAD000BF83
:107E9000BDE8F081184903009048030072656365EE
:107EA0006976652073756363657373004661696CF9
:107EB000656420726563656976696E67204E555307
:107EC000206D6573736167652E204572726F722035
:107ED000307825782E2000002E2E5C2E2E5C2E2E43
:107EE0005C2E2E5C2E2E5C2E2E5C2E2E5C75736509
:107EF000725C757365725F626C652E6300000000D2
:107F000010B5044600BF04A240F27E212046FFF7D0
:107F100081F900BF10BD00002E2E5C2E2E5C2E2E8F
:107F20005C2E2E5C2E2E5C2E2E5C2E2E5C757365C8
:107F3000725C757365725F626C652E630000000091
:107F400070B504462078032802D0042810D104E03C
:107F50006568284600F03AFB0BE00749074A891A92
:107F6000C908032242EA014005A107F023FD00E011
:107F700000BF00BF70BD0000184903009048030017
:107F80005363616E2074696D6564206F75742E0093
:107F90007FB5002000900190029003901C48009053
:107FA0001C4A69461C4806F0E0FA044600BF254614
:107FB00035B100BF19A2DD212846FFF72BF900BF1C
:107FC00000BF2048FFF7A0FA80B11E4A00211248E6
:107FD00006F069FA044600BF254635B100BF0FA27E
:107FE000E4212846FFF716F900BF00BF00221F2139
:107FF000094806F089FA044600BF254635B100BF9E
:1080000006A2EA212846FFF705F900BF00BF7FBDA1
:108010008A3B0020417F0200EC5000202E2E5C2E77
:108020002E5C2E2E5C2E2E5C2E2E5C2E2E5C2E2E8A
:108030005C757365725C757365725F626C652E63E7
:10804000000000002C3E030070B50A4806F0DEFB7D
:10805000044600BF25463DB100BF07A24FF4897119
:108060002846FFF7D7F800BF00BF012001F014FB3E
:1080700070BD0000EC5000202E2E5C2E2E5C2E2EAB
:108080005C2E2E5C2E2E5C2E2E5C2E2E5C75736567
:10809000725C757365725F626C652E630000000030
:1080A00010B506F0FDFB002001F0F6FA10BD00004F
:1080B0003EB50020019000901D48019001A91D4887
:1080C00006F04FF9044600BF25463DB100BF1AA295
:1080D00040F26F212846FFF79DF800BF00BF002047
:1080E00002901F48029002A91E4803F0EBFF0446CD
:1080F00000BF25463DB100BF0FA240F275212846C2
:10810000FFF788F800BF00BF17480090684603F0EB
:10811000A3FC044600BF25463DB100BF06A240F2C5
:1081200079212846FFF776F800BF00BF3EBD00006A
:10813000017F0200AC4C00202E2E5C2E2E5C2E2ED9
:108140005C2E2E5C2E2E5C2E2E5C2E2E5C757365A6
:10815000725C757365725F626C652E63000000006F
:10816000057E02006C3B0020C5BC020038B508F05B
:10817000B5F9044600BF25463DB100BF15A240F247
:1081800091212846FFF746F800BF00BF002000906D
:108190006946012007F09CFF044600BF25463DB11B
:1081A00000BF0CA240F297212846FFF733F800BF2A
:1081B00000BF684608F05CF8044600BF25463DB1A4
:1081C00000BF04A240F29B212846FFF723F800BF1E
:1081D00000BF38BD2E2E5C2E2E5C2E2E5C2E2E5C0B
:1081E0002E2E5C2E2E5C2E2E5C757365725C757364
:1081F00065725F626C652E630000000010B514218B
:10820000014800F063FD10BDA454002030B50020EB
:10821000124C00252560656000211BE00022002330
:1082200014E00F4C04EB8104A45C0CB95C1CE3B2B9
:10823000042B05D10124094D6C54441CE0B203E029
:108240000124074D303D6C54541CE2B2042AE8DB93
:108250004C1CE1B20829E1DB30BD0000C83B002026
:10826000E854002000B585B00C490D4A891AC908A8
:10827000032242EA01400BA107F09CFB00F01CF82E
:108280000021684600F040FEFFF750FB6846FFF70C
:108290007BFBFFF71DFB05B000BD00001849030084
:1082A000904803002D2D2D2D2D2D2D2D2D2D2D43C1
:1082B0004D434E5F446F00002DE9F04186B000242D
:1082C0000025002600274FF01008142101A8FFF711
:1082D00004F913208DF80400EF208DF8050000BF8D
:1082E00010E000250AE0284800EB8400415D01AA67
:1082F000F01C1154701CC6B2681CC5B2042DF2DB10
:10830000601CC4B2042CECDB8DF8068011210DF149
:10831000060000F0EFF907468DF81770002101A85C
:1083200000F02AFE142101A8FFF7D7F80027132038
:108330008DF80400EF208DF805000424002610E0DD
:1083400000250AE0104800EB8400415D01AAF01C02
:108350001154701CC6B2681CC5B2042DF2DB601C3F
:10836000C4B2082CECDB8DF8068011210DF106005B
:1083700000F0C0F907468DF81770012101A800F040
:10838000FBFD06B0BDE8F081E85400202DE9F05F68
:1083900004464FF0000AD346D1460026A0785B4938
:1083A00081F85000A078C11700EB91714FEAA10944
:1083B000FFF72CFF8346204600F0C4F90646B01EA6
:1083C000C1B2A01C00F096F9504981F85100504903
:1083D000504A891AC908032242EA014032464EA196
:1083E00007F0F2FAA35D494991F851204849DFF8B6
:1083F00024C1A1EB0C01C9084FF0030C4CEA014069
:1084000049A107F0EDFA414890F85100A15D88427A
:108410000BD03F493F4A891AC908032242EA01406A
:108420004AA107F0C7FABDE8F09F0020A055BBF1B4
:10843000000F0AD13649374A891AC908032242EA8D
:10844000014046A107F0B6FAEDE7B9F1050F13D2E6
:10845000DFE809F00306090C0F004FF0040A0CE0F6
:108460004FF0040A09E04FF0080A06E04FF00C0A4A
:1084700003E04FF0100A00E000BF00BF0025002716
:108480003FE03E48405D012839D14FF000080DE043
:10849000F81C215C1D48303000EB850000F8081006
:1084A000781CC7B208F1010000F0FF08B8F1040F12
:1084B000EEDB1749174A891AC908032242EA01402C
:1084C0002A462FA107F080FA62791149114BC91A87
:1084D000C908032343EA01402CA107F075FA0B49B0
:1084E00091F832200A490B4BC91AC908032343EA01
:1084F00001402CA107F068FA574500D193E7681CAA
:10850000C5B2082DBDDB00BF8DE70000B8540020C8
:1085100018490300904803006372635F64696769E8
:1085200074206973202564006372635F76616C75E3
:108530006520616E642072785B375D20697320303E
:1085400078257820307825780000000075617274F5
:1085500020637263206661696C2100005468657253
:1085600065206973206E6F20657874726120646184
:10857000746120737061636520210000C83B002096
:108580006C6F6F70312069732025640061667465BB
:1085900072204144562078752068616F20697320ED
:1085A000257800006265666F722041445620787518
:1085B0002068616F206973202578000010B51421B0
:1085C0000148FEF78AFF10BDA45400202DE9F047B2
:1085D00006460025B46960E014F80580681C14F8AC
:1085E0000090B9F1030F06D0B9F1090F04D0B9F129
:1085F000FF0F4DD101E04BE04AE0E079132846D16E
:10860000207AEE2843D1607A27490978884218D128
:10861000A07A25494978884213D1E07A224989789D
:1086200088420ED12149224A891AC908052242EA04
:10863000014020A107F0BEF9E01D00F051F8FFF75E
:10864000DDFD1A491A4A891AC908052242EA014081
:108650001DA107F0AFF900270DE01D49CA5D1349C0
:10866000134BC91AC908052343EA014019A107F0B1
:10867000ABF9781CC7B2142FEFDB0C490C4A891AEE
:10868000C908052242EA014014A107F093F900BF8E
:1086900000BF08F10100054400BFB08BA8429BD881
:1086A0000520BDE8F0870000C53B00201849030005
:1086B000904803006F2D2D2D2D2D2D2D2D2D2D2D81
:1086C0002D2D2D6B00000000646174613A3078003C
:1086D000A454002025303278000000000A00000079
:1086E00010B50446142221460148FEF7DDFE10BDF8
:1086F000A454002010B502460B460020002104E0DF
:10870000545C0444E0B24C1CE1B29942F8DB10BD69
:1087100010B50B480021016041608160C1602021DB
:108720001030FEF7DAFE202105483030FEF7D5FE86
:108730000020034981F8510081F8500010BD00006D
:10874000B8540020014600208A78012A01D1072070
:1087500002E08A78D21CD0B2704700002DE9F041C7
:1087600006460027B846002500BF17E0002411E0A8
:10877000E01C315C184800EB8500005D814201D1AE
:10878000781CC7B2042F03D108F1010000F0FF08E4
:10879000601CC4B2042CEBDB681CC5B2082DE5DB01
:1087A000B8F1010F0CDB0D490D4A891AC9080322E3
:1087B00042EA01400BA107F0FDF80120BDE8F0817D
:1087C0000649074A891AC908032242EA014008A15A
:1087D00007F0F0F80020F1E7E85400201849030002
:1087E0009048030072657475726E2074727565002E
:1087F00072657475726E2066616C736500000000AE
:10880000FCB502460C460026009601960E20002577
:1088100000210EE0165C412E01DB372100E0302103
:10882000165C761AF6B20DF80560461CF0B26E1CA6
:10883000F5B21428EEDB0020002100230DE01DF826
:108840000010461CF0B20E07310E1DF800603143D7
:10885000E154461CF0B25E1CF3B20628EFDBFCBD0F
:1088600010B50248007808F0B9FC10BDA13B00200B
:10887000052000BF01070A46012303FA00F1C2F8F0
:10888000081500BF00BF7047F0B5052001210A465A
:1088900000242346254600BF07073E4641EA42071B
:1088A00047EA840747EA032747EA054C06F5E067ED
:1088B00047F820C000BF00BFFFF7DAFFF0BD05207A
:1088C00000BF01070A46012303FA00F1C2F80C15A4
:1088D00000BF00BF704710B506F0DEFE08B907F014
:1088E000A3FA10BD70B54FF48041002007F016F9CF
:1088F000044600BF25463DB100BF05A24FF4AE714E
:108900002846FEF787FC00BF00BF06F0B1FE70BD31
:108910002E2E5C2E2E5C2E2E5C2E2E5C2E2E5C2E91
:108920002E5C2E2E5C757365725C757365725F6468
:10893000726976652E63000070B507F055FA04463B
:1089400000BF25463DB100BF04A24FF49E712846EA
:10895000FEF760FC00BF00BF70BD00002E2E5C2E35
:108960002E5C2E2E5C2E2E5C2E2E5C2E2E5C2E2E41
:108970005C757365725C757365725F647269766548
:108980002E63000030B58BB000243B4B0FCB07ADFE
:108990000FC53949103103C9CDE90101374A01A991
:1089A000374808F0CDF8044600BF254635B100BF72
:1089B00034A27D212846FEF72DFC00BF00BF2F4AC0
:1089C00001A92F48083008F0BBF8044600BF25462F
:1089D00035B100BF2BA27F212846FEF71BFC00BF4C
:1089E00000BF264A01A92648103008F0A9F804461D
:1089F00000BF254635B100BF22A281212846FEF7DF
:108A000009FC00BF00BF1E48089908F017F9049040
:108A10001B480830099908F011F9059018481030E2
:108A20000A9908F00BF906900120009002230146F4
:108A30001348049A08F062F80120009004230221F0
:108A40000F480830059A08F059F8012000900823D3
:108A500003210B481030069A08F050F8084808F037
:108A60003BF80748083008F037F80548103008F0A0
:108A700033F80BB030BD0000543E0300ADA002003F
:108A8000AC3B00202E2E5C2E2E5C2E2E5C2E2E5CFF
:108A90002E2E5C2E2E5C2E2E5C757365725C7573AB
:108AA00065725F64726976652E63000070B502F0CE
:108AB000D9F8044600BF254635B100BF03A26C219A
:108AC0002846FEF7A7FB00BF00BF70BD2E2E5C2E10
:108AD0002E5C2E2E5C2E2E5C2E2E5C2E2E5C2E2ED0
:108AE0005C757365725C757365725F6472697665D7
:108AF0002E63000010B50446207830B101282CD038
:108B0000022818D0042845D139E0012023490870F3
:108B1000234800781E280DDA2249234A1278881843
:108B200002F0FCF820480078401C1F490870002023
:108B30001B4908702FE01D491D4A891AC9080322E4
:108B400042EA01401BA106F035FF00BF24A24E21DE
:108B50006068FEF75FFB00BF1DE01449144A891AE4
:108B6000C908032242EA014027A106F023FF00BF03
:108B70001BA254216068FEF74DFB00BF0BE00B49C0
:108B80000B4A891AC908032242EA014026A106F0CD
:108B900011FF00E000BF00BF10BD00009C3B0020A3
:108BA000A03B002072540020C43B00201849030061
:108BB00090480300404075617274204150505F55E9
:108BC0004152545F434F4D4D554E49434154494FD7
:108BD0004E5F4552524F52206572726F7200000014
:108BE0002E2E5C2E2E5C2E2E5C2E2E5C2E2E5C2EBF
:108BF0002E5C2E2E5C757365725C757365725F6496
:108C0000726976652E630000756172742041505060
:108C10005F554152545F4649464F5F4552524F524D
:108C2000206572726F72000075617274204150503D
:108C30005F554152545F44415441206572726F72D6
:108C40000000000030B58BB01822124905A8FEF7CD
:108C50002BFC00BF104801904FF4807002900F4829
:108C600003904FF48070049007230D4A01A905A8D2
:108C700002F0A0F8044600BF00BF254635B100BF92
:108C800008A22C212846FEF7C5FA00BF00BF0BB092
:108C900030BD00003C3E0300405200204053002005
:108CA000F58A02002E2E5C2E2E5C2E2E5C2E2E5C63
:108CB0002E2E5C2E2E5C2E2E5C757365725C757389
:108CC00065725F64726976652E63000070B5054653
:108CD0000E46002404E0285D02F0DAF8601CC4B2FD
:108CE000B442F8DB70BD000010B50549054A891A89
:108CF000C908032242EA014003A106F05BFE10BD51
:108D0000184903009048030044726976655F574430
:108D1000545F4576656E5F48616E646C6500000067
:108D20003EB50024134A07CA8DE807001249684679
:108D300008F06CFA044600BF25463DB100BF0FA203
:108D400040F271112846FEF765FA00BF00BF1548D2
:108D500008F01AFA044600BF25463DB100BF07A23D
:108D60004FF4BA712846FEF755FA00BF00BF08F06D
:108D70003BFA3EBD6C3E0300E98C02002E2E5C2EB9
:108D80002E5C2E2E5C2E2E5C2E2E5C2E2E5C2E2E1D
:108D90005C757365725C757365725F647269766524
:108DA0002E630000A13B00202DE9F84F0026002093
:108DB00000904FF480770125002410E0384606F03B
:108DC00075FB40B100BF25480068284018B13846FF
:108DD00006F05EFB2E436D00381D87B2641C082C24
:108DE000ECD34FF4BE7006F061FB50B14FF4BE708F
:108DF00006F04EFB46F000466A460121002006F0D0
:108E000011FBF0B210B3012500241DE005EA0600B5
:108E1000C0B100BF124850F82400C0F304208146BE
:108E200000BF0F4850F82400C0F30140824620469E
:108E300003F016FB8046B8F1000F02D051464846B9
:108E4000C04700BF6D00641C082CDFD306F0004053
:108E500010B1684608F09EFEBDE8F88F046300403C
:108E60001065004010B54FF4807005F03DFD80B1F5
:108E70004FF4807005F041FD012005F047FD2048CA
:108E8000407930B901201E49487108460168002028
:108E900088474FF4827005F027FD50B14FF482707F
:108EA00005F02BFD022005F031FD15480168012079
:108EB00088474FF4887005F017FD50B14FF4887063
:108EC00005F01BFD102005F021FD0D480168022072
:108ED00088474FF4867005F007FD80B100200949EE
:108EE00008604FF4867005F008FD082005F00EFDBF
:108EF000002003498871084601680320884710BD97
:108F0000283A0020340C0040024611B1012915D145
:108F100009E0002004E00B4B1B5C1354431CD8B247
:108F20001428F8DB0BE0002005E0064B14331B5C33
:108F30001354431CD8B21428F7DB00E000BF00BF75
:108F4000704700000C55002010B5012008494870FA
:108F50000020087014210748FEF7BFFA14210548C5
:108F60001430FEF7BAFA002000F09CFB10BD0000A0
:108F7000E53D00200C55002010B5024611B1012935
:108F800015D109E0002004E0135C0A4C2354431C73
:108F9000D8B21428F8D30BE0002005E0145C054B90
:108FA00014331C54431CD8B21428F7D300E000BF7C
:108FB00000BF10BD0C55002030B587B016A207CAFF
:108FC00004AB07C3002001900290039000241548D1
:108FD000FEF79AFA054629461248FEF77EFA04A9DA
:108FE0001048FEF7B3FA1048C0690A21B0FBF1F04F
:108FF00084B222460DA101A801F050FA01A9094846
:10900000FEF776FA0748FEF77FFA06493E220A5431
:10901000084607B030BD00003C6164765F64656C53
:1090200061793D00C73D00203455002025640000D3
:109030001FB512A207CA01AB07C300200090124857
:10904000FEF762FA044621460F48FEF746FA01A9E8
:109050000D48FEF77BFA0D480DA18269684601F0C4
:109060001DFA69460848FEF743FA0748FEF74CFA2E
:1090700005493E220A54084604B010BD3C6164769E
:109080005F696E743D000000C73D0020345500202C
:10909000256400001CB50EA103C9CDE900010E48EE
:1090A000FEF732FA044621460B48FEF716FA6946E7
:1090B0000948FEF74BFA09490748FEF719FA06482E
:1090C000FEF722FA04493E220A5408461CBD00005D
:1090D0003C6E616D653D0000C73D002034550020A9
:1090E00010B5044609492046FEF730FA0748806962
:1090F000A0610648C069E0610448006A2062034834
:1091000090F8240084F82400012010BD345500207C
:1091100010B588B017A30FCB04AC0FC4002001908A
:10912000029003901748FEF7EFF9044621461548D0
:10913000FEF7D3F904A91348FEF708FA1248006AAB
:109140004FF47A71B0FBF1F00F49086208460FA1A5
:10915000026A01A801F0A2F901A90A48FEF7C8F9BC
:109160000848FEF7D1F907493E220A54084608B0DC
:1091700010BD00003C6164765F74696D656F757445
:109180003D000000C73D002034550020256400004C
:1091900010B588B013A30FCB04AC0FC4002001900E
:1091A000029003901348FEF7AFF904462146114898
:1091B000FEF793F904A90F48FEF7C8F90E4890F995
:1091C00024200EA101A801F069F901A90948FEF7C0
:1091D0008FF90848FEF798F906493E220A540846D6
:1091E00008B010BD3C73745F74785F706F77657200
:1091F0003D000000C73D00203455002025640000DC
:1092000010B507A10A48FEF7A1F920200849886196
:10921000C86141F288300862042081F8240010BD42
:109220004A533133355F3030303030310000000088
:10923000345500202DE9FC410546002000900190A6
:1092400000BF0F2780462846FEF75EF9C01B00F0DE
:10925000FF08002405E03819285C0DF80400601CA4
:10926000C4B24445F7DB6846FEF788F986B206EBE0
:10927000860040000749C861CA690749074BC91AF7
:10928000C908032343EA014005A106F09DFBBDE8A0
:10929000FC81000034550020184903009048030069
:1092A0006164765F64656C61792069732025640070
:1092B0002DE9FC4105460020009001900D26002775
:1092C0002846FEF721F9801BC7B2002405E03019BB
:1092D000285C0DF80400601CC4B2BC42F7DB684691
:1092E000FEF74CF9074988618A690749074BC91A93
:1092F000C908032343EA014005A106F065FBBDE868
:10930000FC810000345500201849030090480300F8
:109310006164765F697476206973202564000000BB
:1093200038B500BF9DF8000020F00F00401C0090F1
:109330009DF8000020F0F0001030009000BF0A48B7
:10934000FEF7E2F885B22A46074968467CDF044604
:1093500000BF254635B100BF04A27F212846FDF796
:1093600059FF00BF00BF38BD345500202E2E5C2EA3
:109370002E5C2E2E5C2E2E5C2E2E5C2E2E5C2E2E27
:109380005C757365725C757365725F706172616D37
:109390002E6300002DE9FC4105460020009001905D
:1093A000112600272846FEF7AFF8801BC7B200241D
:1093B00005E03019285C0DF80400601CC4B2BC4202
:1093C000F7DB6846FEF7DAF84FF47A71484307494D
:1093D00008620A6A0649074BC91AC908032343EA07
:1093E000014005A106F0F0FABDE8FC8134550020EB
:1093F00018490300904803005E5E5E5E5E5E5E5E3E
:109400005E5E5E5E5E5E5E5E6164765F74696D6523
:109410006F75742069732025640000002DE9FC41FC
:1094200005460020009001900D2600272846FEF7F3
:109430006BF8801B401EC7B2A85D2B2812D10024F8
:109440000DE03019401C285C0DF804006846FEF75A
:1094500095F840B21B4981F82400601CC4B2BC429C
:10946000EFDB20E0A85D2D2813D100240EE0301999
:10947000401C285C0DF804006846FEF77FF8404267
:1094800040B2104981F82400601CC4B2BC42EEDB3B
:1094900009E00D490D4A891AC908032242EA014030
:1094A0000BA106F087FA074991F924200649074BDA
:1094B000C91AC908032343EA014007A106F084FA48
:1094C000BDE8FC8134550020184903009048030092
:1094D0006572726F7200000074785F706F776572EA
:1094E000206973202564000001480078704700005F
:1094F000E73D00200149087070470000E73D00206B
:1095000070B5054600262846FDF7FEFF0B38C6B2AB
:1095100016211848FDF7E1FF002406E004F10A00D7
:10952000285C14490855601CC4B2B442F6DB1249E9
:109530001048FFF765F91149114A891AC908032231
:1095400042EA01400B4A0FA106F03EFA00240EE069
:1095500009490B5D09490A4A891AC908032242EAE6
:10956000014022460AA106F03BFA601CC4B2032C5B
:10957000EEDB70BD34550020C53B002018490300C8
:10958000904803006E616D652069732025730000AB
:1095900021212121212121212121212121212121BB
:1095A000216E616D655F6865785B25645D3A307832
:1095B0002530327800000000034909780170024923
:1095C0004978417070470000E53D002010B586B035
:1095D000142101A8FDF781FFFFF786FFA0B1002449
:1095E0000AE00A48005D012804D10021074801551E
:1095F00000F05EF8601CC4B2082CF2DBFEF706FE39
:10960000042801DA00F06AF806B010BDC05400204A
:109610000148007870470000E93D00207CB56846AD
:109620006DDF044600BF25463DB100BF0DA240F2EC
:10963000ED112846FDF7EEFD00BF00BF9DF80100CB
:10964000401CC0B28DF8010000BF25463DB100BFEF
:1096500004A240F2FD112846FDF7DCFD00BF00BF6B
:109660007CBD00002E2E5C2E2E5C2E2E5C2E2E5CE1
:109670002E2E5C2E2E5C2E2E5C757365725C7573BF
:1096800065725F706172616D2E6300000148007841
:1096900070470000E83D0020014908707047000055
:1096A000E83D00200149087070470000E93D0020B6
:1096B00000B585B014216846FDF70FFFFEF736F9B7
:1096C000FEF7FAFD00216846FFF71EFC6846FEF72C
:1096D0005BF9FEF7FDF805B000BD000000B585B0F0
:1096E00014216846FDF7F9FE1848C0691849098831
:1096F000884229D817480078401C16490870002075
:1097000013490880FEF712F9FEF7D6FD11480078DC
:10971000012802D002280DD104E000216846FFF79D
:10972000F3FB0BE001216846FFF7EEFB002009493F
:10973000087003E000200749087000BF00BF6846BA
:10974000FEF722F9FEF7C4F805B000BD345500203D
:109750009E3B0020EB3D002010B5034A1068034AF1
:109760001168884710BD0000683A0020643A002064
:1097700010B500F0EDFD10BD2DE9F0470746884615
:109780001646C24607EB47011B4800EBC109D9F852
:10979000140020B1012811D0022826D11EE048462D
:1097A00000F00EFE0546B54201D2002405E0344625
:1097B00032465146484600F04AFE18E0484600F05E
:1097C000FFFD0546B54201D2284600E0304604467A
:1097D00022465146484600F03AFE08E032465146DD
:1097E000484600F0FBFD044601E0002400BF00BF36
:1097F0002046BDE8F0870000A848002010B506F01C
:10980000AFFE10BD01480249086070470090D003C8
:10981000EC3D002010B504F0F9FA40B100205E499B
:1098200008604FF08041C1F810015C49086004F005
:109830001BFB002855D05A4800685A490860584810
:10984000001D0068091D0860554808300068091DA2
:10985000086053480C300068091D086050481030FB
:109860000068091D08604E4814300068091D086032
:109870004B48183000684B492031086048481C307C
:109880000068091D0860464820300068091D08600E
:10989000434824300068091D0860414828300068AA
:1098A000091D08603E482C300068091D08603C48CE
:1098B000303000683B494031086039483430006836
:1098C000091D0860364838300068091D08603448B2
:1098D0003C300068091D0860314840300068091DAF
:1098E000086004F065FA40B12F48006800F00100FC
:1098F00018B16FF001002C4908602C48006800F096
:10990000004030B92948001D006800F000400028E0
:109910003ED001202649086000BF26480068002884
:10992000FBD012202149086000BF224800680028AF
:10993000FBD012211D48001D016000BF1D480068BA
:109940000028FBD000201A49086000BF19480068B1
:109950000028FBD000BF00BF00BF00BF00BFBFF3A7
:109960004F8F00BF00BF00BF1348006800F4E060E5
:1099700012490843001D1049086000BF00BF00BF26
:10998000BFF34F8F00BF00BF00BF00BF00BFFDE7A8
:10999000FFF738FF10BD00000C0100403805004003
:1099A0000404001020C50040000400400012001014
:1099B00004E5014000E401400CED00E00000FA0580
:1099C00010B504220249034803F073FF10BD0000E4
:1099D000484000200080004010B50422024903489E
:1099E00003F067FF10BD00005440002000900040CD
:1099F00010B504220249034803F05BFF10BD0000CC
:109A00006040002000A0004010B506220249034833
:109A100003F04FFF10BD00006C40002000A001408B
:109A200010B502490868804710BD0000303A002098
:109A30000146002006E00023044A02EB8102135491
:109A4000421CD0B20428F6DB70470000E854002026
:109A50002DE9F04385B081460E4600216846FFF7A8
:109A600053FAFE493046FDF756FD50B9FDF7ECFFBD
:109A7000FB48FDF749FD84B22146F948FFF726F976
:109A800084E2F8493046FDF746FDF0B9F649F74A59
:109A9000891AC908032242EA0140F5A105F08AFFAC
:109AA000FFF7B6FD40B1F848FDF72EFD84B2214620
:109AB000F548FFF70BF969E2F448FDF725FD84B29C
:109AC0002146F248FFF702F960E2F1493046FDF71E
:109AD00022FD50B9FEF7E4FAE148FDF715FD84B226
:109AE0002146DF48FFF7F2F850E2EA493046FDF739
:109AF00012FD50B9FEF7A8FAD948FDF705FD84B26A
:109B00002146D748FFF7E2F840E2E3493046FDF747
:109B100002FDA0B9FFF7BAFD40B1E048FDF7F4FC43
:109B200084B22146DD48FFF7D1F82FE2DC48FDF78B
:109B3000EBFC84B22146DA48FFF7C8F826E20A2295
:109B4000D8493046FDF70BFDF0B9C749C74A891A15
:109B5000C908032242EA0140D3A105F02BFFC04807
:109B6000FDF7D2FC84B22146BD48FFF7AFF8FDF700
:109B7000DDFE3046FFF7C4FCFFF7D2FB6846FDF779
:109B800027FEFDF7A5FE01E2CB493046FDF7C3FCF9
:109B900058B9FFF77FFA81464846FDF7B5FC84B215
:109BA00021464846FFF792F8F0E10D22C3493046BE
:109BB000FDF7D5FC90B9FDF7B9FE3046FFF778FB0D
:109BC0006846FDF705FEFDF783FEA548FDF79CFC02
:109BD00084B22146A248FFF779F8D7E1B849304668
:109BE000FDF799FC58B9FFF723FA81464846FDF77F
:109BF0008BFC84B221464846FFF768F8C6E10F2285
:109C0000B0493046FDF7ABFC58B93046FFF712FBC0
:109C10009348FDF779FC84B221469148FFF756F846
:109C2000B4E1A9493046FDF776FC58B9FFF7C4F90D
:109C300081464846FDF768FC84B221464846FFF756
:109C400045F8A3E11122A1493046FDF788FC90B9FF
:109C5000FDF76CFE3046FFF79DFB6846FDF7B8FD4B
:109C6000FDF736FE7E48FDF74FFC84B221467C4866
:109C7000FFF72CF88AE196493046FDF74CFC58B9BD
:109C8000FFF746FA81464846FDF73EFC84B221467E
:109C90004846FFF71BF879E18E493046FDF73BFC5B
:109CA000D0B97149714A891AC908032242EA0140B0
:109CB00089A105F07FFE6A48FDF726FC84B22146A3
:109CC0006748FFF703F8FFF70FFC10B905B0BDE8D0
:109CD000F083FDF72BFE59E182493046FDF71BFC6E
:109CE000C0B96149614A891AC908032242EA0140A0
:109CF0007DA105F05FFE5A48FDF706FC84B22146BF
:109D00005748FEF7E3FFFFF7EFFB00B1DEE7FDF793
:109D1000DFFD3BE177493046FDF7FDFBA0B9FFF7DA
:109D2000E3FB40B17448FDF7EFFB84B22146724873
:109D3000FEF7CCFF2AE17148FDF7E6FB84B221462D
:109D40006E48FEF7C3FF21E16D493046FDF7E3FBA6
:109D500040B94348FDF7D8FB84B221464048FEF79E
:109D6000B5FF13E167493046FDF7D5FB40B93C48E4
:109D7000FDF7CAFB84B221463948FEF7A7FF05E18B
:109D800061493046FDF7C7FB40B93548FDF7BCFBDC
:109D900084B221463248FEF799FFF7E05B4930462E
:109DA000FDF7B9FB40B92E48FDF7AEFB84B2214662
:109DB0002B48FEF78BFFE9E00D2255493046FDF7B1
:109DC000CEFB90B9FDF7B2FD3046FFF727FB6846A2
:109DD000FDF7FEFCFDF77CFD4E48FDF795FB84B2D8
:109DE00021464C48FEF772FFD0E04B493046FDF764
:109DF00092FB58B9FFF7CCF981464846FDF784FB42
:109E000084B221464846FEF761FFBFE04349304631
:109E1000FDF781FB00BB1248FDF776FB84B22146BB
:109E20000F48FEF753FF4FF4FA7404B90EE000BF79
:109E30004FF47A7505B905E0394F4FEA8518404669
:109E4000B84700BF601E041EF2D100BF00BF00BFB4
:109E500000BF00BF00BF65E07DE00000D03B0020F8
:109E60005B3D0020DD3B00201849030090480300C3
:109E70005669657720636F6E6E656374696F6E20D7
:109E80007374617475730000603D00206C3D0020A8
:109E9000ED3B0020F93B0020063C0020783D0020EF
:109EA000883D0020133C002053657420626C6520BF
:109EB0006E616D65000000001F3C00202B3C0020FF
:109EC0003A3C0020493C00205A3C00206B3C0020DA
:109ED0007E3C0020913C002053746F7020416476DA
:109EE000000000009C3C00205374617274204164A7
:109EF00076000000A83C0020A93D0020B83D0020CD
:109F0000B43C0020C73C0020DA3C0020F33C002099
:109F10000C3D0020983D00201B3D00202B3D0020E3
:109F2000813E0300BFF34F8F00BF00BF00BF1C483E
:109F3000006800F4E0601B490843001D18490860F0
:109F400000BF00BF00BFBFF34F8F00BF00BF00BF07
:109F500000BF00BFFDE714493046FDF7DCFA20B929
:109F6000042112A0FEF7B2FE10E00C221149304687
:109F7000FDF7F5FA50B90020FFF75AFD0E48FDF73E
:109F8000C3FA84B221460C48FEF7A0FE1F213046DA
:109F9000FDF7A3FA1F214846FDF79FFA00BF95E69B
:109FA0000CED00E00000FA05413D002056312E3056
:109FB000000000004D3D00205B3D00201CB53048F6
:109FC00000788DF804002E4840788DF805002D4863
:109FD0000078002852D12C48007801284EDDFFF788
:109FE00017FBB0B12848007800909DF804003C2889
:109FF00004D123492548FFF72BFD06E024480388B8
:10A000006A461F49234802F01FF800201E490870C5
:10A0100034E09DF80400132810D19DF80500EF28C6
:10A020002CD11748FEF79AFB20B91548FEF7AEF978
:10A03000FEF718F90020144908701FE09DF804008D
:10A040003C2811D11449154A891AC908032242EA49
:10A05000014013A105F0AEFC09490C48FFF7F8FCDC
:10A0600000200949087009E00B490C4A891AC908FF
:10A07000032242EA01400BA105F09CFC1CBD00003C
:10A08000725400209C3B0020C43B00204054002020
:10A09000883B00206C3B00201849030090480300D7
:10A0A0003C00000075617274206E6F0030B58BB09B
:10A0B00004460D468D480088B0F57A7F02DD002009
:10A0C0008A490880B4F5A07F09D0B4F5A27F11D0E9
:10A0D000B4F5A47F7ED0B4F5A67F7CD1EEE08449B0
:10A0E000844A891AC908032242EA014082A105F084
:10A0F00061FCF7E0FFF7F8F900286DD001A8FEF742
:10A10000EFFF099808B90BB030BD7E4800780128F0
:10A1100012D17C480069401C7A49086108460069F0
:10A120000999884208D30020764908700861FFF732
:10A130007FFC01207349087272484078012815D1CC
:10A1400070484069401C6F49486108464069099958
:10A1500088420BD300206B49487000216948416157
:10A160000120FFF765FC012166484172654880784F
:10A17000012815D163488069401C624988610846FE
:10A180008069099988420BD300205E4988700021BC
:10A190005C4881610220FFF74BFC01215948817224
:10A1A0005848C078012819D15648C069401C554903
:10A1B000C8610846C069099988420FD300205149F7
:10A1C000C87000214F48C1610320FFF731FC012115
:10A1D0004C4802E06CE084E069E0C17249480079D3
:10A1E000012815D14748006A401C464908620846C4
:10A1F000006A099988420BD3002042490871002166
:10A20000404801620420FFF713FC01213D4801731F
:10A210003C484079012815D13A48406A401C3949E8
:10A2200048620846406A099988420BD300203549A4
:10A2300048710021334841620520FFF7F9FB0121F5
:10A24000304841732F488079012815D12D48806A04
:10A25000401C2C4988620846806A099988420BD3C1
:10A260000020284988710021264881620620FFF7D6
:10A27000DFFB0121234881732248C079012815D1D1
:10A280002048C06A401C1F49C8620846C06A099934
:10A2900088420BD300201B49C87100211948C162B4
:10A2A0000720FFF7C5FB01211648C17300BF19E065
:10A2B0000E480088401C0D49088013E012480078C1
:10A2C00001280DD111480078401C1049087008463B
:10A2D00000781E2804DD00200B4908700B49087027
:10A2E00000E000BF00BF00BF0DE700009E3B002064
:10A2F000184903009048030074696D657220494E47
:10A3000054300000B85400209C3B0020A03B0020AB
:10A3100008B500BF4FF480700B49405808B10120C8
:10A3200000E0002078B109480068804700BF0020A5
:10A330004FF48071044A88500846114640580090F6
:10A3400000BF00BF00BF08BD000001403C3A002034
:10A3500010B5124C02202061606111A0A061134968
:10A36000E1614FF4007121620021A1626162E1624A
:10A370000BA0A0640E49E164102121650021A165B4
:10A380006165E1650BA1E01DFDF7E0F80AA120463B
:10A39000FDF7DCF82020A07110BD000090480020DF
:10A3A0005465726D696E616C000000000849002000
:10A3B000084B002052545400534547474552000073
:10A3C00010B501460A69CB689A4204D88C68641EAD
:10A3D000E41AA01801E0D41A601E10BD2DE9F04760
:10A3E0000446894617464FF0000AE56800BFD4F8D6
:10A3F0001080A84503D9A8EB0500461E04E0A5EB94
:10A400000800401CA1680E1AA068401BB04201D988
:10A41000304601E0A068401B0646BE4201D23046ED
:10A4200000E0384606466168481932464946FDF75D
:10A430003BF8B244B144BF1B3544A068A84200D1E8
:10A440000025E560002FD2D15046BDE8F0872DE908
:10A45000F047044689461546E668A068871BAF4268
:10A4600008D9616888192A464946FDF71DF8701910
:10A47000E06010E0B8466168881942464946FDF739
:10A4800013F8A5EB070809EB070142466068FDF7E2
:10A490000BF8C4F80C80BDE8F08700000FB4084B3F
:10A4A00010B504A902AA039800F062F8044602A9B4
:10A4B000002000F007F9204610BC5DF814FB0000F6
:10A4C000C5A6020000BF00BF00BFBFF34F8F00BF93
:10A4D00000BF00BF0948006800F4E0600849084375
:10A4E000001D0649086000BF00BF00BFBFF34F8FCB
:10A4F00000BF00BF00BF00BF00BFFDE70CED00E0E4
:10A500000000FA0500487047F03D002002E008C84E
:10A51000121F08C1002AFAD170477047002001E0DD
:10A5200001C1121F002AFBD17047000001462029FB
:10A5300008DA012088400A4A104008B1012070471B
:10A540000020FCE7402909DAA1F12000012202FAEB
:10A5500000F008B10120F2E70020F0E70120EEE76B
:10A56000FC06FFBD00BFEFF31081084672B67047CE
:10A570002DE9FF4F89B09B460446002506E02528BB
:10A580000BD05A460B999047641C6D1C207800280C
:10A59000F5D10DB02846BDE8F08F0027B84601225E
:10A5A000474900E0074314F8013F203B02FA03F05B
:10A5B0000842F7D120782E2819D114F8010F47F05E
:10A5C00004072A280ED06FF02F022078A0F1300166
:10A5D00009290CD808EB880102EB410100EB0108C6
:10A5E000641CF2E70A98641C50F8048B0A902078E7
:10A5F0000028CED0642808D0692806D075281ED03F
:10A600005A460B9990476D1C58E00A994FF00A0979
:10A6100001C90A91002802DA40422D2102E03905E1
:10A6200004D52B218DF82010012103E0F90704D077
:10A630002021F7E78A4608AE0DE00021FAE70A99E3
:10A640004FF00A0901C90A91F7E74946FCF7A3FF51
:10A65000303106F8011D0028F7D1ADEB060000F1FE
:10A660002009780701D44FF00108C84502DDA8EBA6
:10A67000090000E000208046002706E008A85A46AE
:10A68000C05D0B9990476D1C7F1C5745F6DB04E0BD
:10A6900030205A460B9990476D1CB8F10001A8F183
:10A6A0000108F5DC05E016F8010B5A460B999047B6
:10A6B0006D1CB9F10001A9F10109F4DC641C65E726
:10A6C000092801000A68531C0B601070704701468E
:10A6D00001F0030008B9012070470020FCE70246A2
:10A6E00050680068401E084008B9012070470020EB
:10A6F000FCE70246002104E0505C08B101207047ED
:10A70000491C0629F8D30020F9E710B50346D8689C
:10A71000884206D88818401E1C69A04201D8012032
:10A7200010BD0020FCE7000010B504466CB10848DD
:10A73000C068A04209D806480069A04205D3204657
:10A7400003F03AF908B1012010BD0020FCE7000039
:10A75000F43D002070B504460D4604F22740FFF793
:10A76000C8FF0646012D06D0022D0DD0032D11D0B5
:10A77000042D19D113E0A07928B194F8240010B960
:10A780000EB1012070BD00BFE07910B10EB1022002
:10A79000F8E700BF207A08B10320F3E700BF607A32
:10A7A00008B10420EEE700BF0020EBE70146481C9B
:10A7B000052290FBF2F302FB1300C0B270472DE9B3
:10A7C000F04704460D462F4695F82080B4F81C90BB
:10A7D00000260BE007EB46124946A06900F068FD31
:10A7E00010B10120BDE8F087701CC6B24645F1DB10
:10A7F0000020F7E7014691F82420012A01D1EE203C
:10A8000000E01F2070472DE9F05F06460C4604F17A
:10A81000220A94F82C502A2010F804904FF00008D7
:10A82000B6F81CB0002710E00AEB87025946B06961
:10A8300000F0A7FD28B108F1010000F0FF0815B9EC
:10A8400005E005B103E0781CC7B24F45ECDB00BF63
:10A850000DB1C84503D02DB9B8F1000F02DD0120BC
:10A86000BDE8F09F0020FBE710B501220221002087
:10A8700001F022FD044600BF1CB1072C01D0204688
:10A8800010BD00BF07220221012001F015FD044682
:10A8900000BF1CB1072C01D02046F1E700BF0A22FF
:10A8A0000021084601F008FD044600BF1CB1072C3A
:10A8B00001D02046E4E700BF0020E1E710B50446E0
:10A8C0002C212046FCF709FE012020714FF49670E0
:10A8D000206144F25060606110BD00002DE9FE432C
:10A8E00007460E46144672B600BF05F057F900BF82
:10A8F00000BF04F0D1FE0028FBD100BF00BF012F34
:10A900000CD06FF48050384498B1B0F5405F2CD033
:10A910006FF440510844002847D115E03149324ACC
:10A92000891AC908012242EA014030A105F042F823
:10A9300047E02C492C4A891AC908012242EA014001
:10A9400032A105F037F83CE025462649DFF898C0EB
:10A95000A1EB0C01C9084FF0010C4CEA014034A1F5
:10A96000D5E9003205F03CF82BE02546A86805F053
:10A9700007FF8046D5E900108DE8430019491A4BBE
:10A98000C91AC908012343EA014043462FA1AA6816
:10A9900005F04AF81349144A891AC908012242EA03
:10A9A000014034A105F006F80BE00E490E4A891A61
:10A9B000C908012242EA0140324633A105F004F8F9
:10A9C00000BF00BF00BF3648006800F0010000B1C2
:10A9D00000BE00BF22463146384600F063F8BDE8AD
:10A9E000FE8300001849030090480300534F46546B
:10A9F0004445564943453A20415353455254494FE3
:10AA00004E204641494C454400000000534F4654F7
:10AA10004445564943453A20494E56414C49442005
:10AA20004D454D4F5259204143434553530000007B
:10AA3000415353455254494F4E204641494C454499
:10AA40002061742025733A25750000004552524F4D
:10AA500052202575205B25735D2061742025733A93
:10AA600025750D0A50432061743A2030782530381E
:10AA700078000000456E64206F66206572726F7208
:10AA8000207265706F727400554E4B4E4F574E20BA
:10AA90004641554C54206174203078253038580098
:10AAA000F0ED00E018B5012300939DF800301E4B37
:10AAB000186059609A606FF48043034463B1012BBE
:10AAC00019D1194BDA60DB681B68174CA361234668
:10AAD000DB685B68E3610EE0134B1A611B699B68DE
:10AAE000114C636123461B691B68A36123461B69E4
:10AAF0005B68E36100BF00BF0B4B1B680A4B5B68E0
:10AB0000094B9B68084BDB68074B1B69064B5B696D
:10AB1000054B9B69044BDB6972B600BF9DF80030A2
:10AB2000002BFBD162B618BD7840002070B50446FA
:10AB30000D46204602F01CFA28B12946204602F0B4
:10AB40000BFA002070BD0520FCE7034609B90E2072
:10AB5000704712B1501E104008B10920F8E7196083
:10AB6000501E988000209860D86000BFF0E770B554
:10AB700004460D46204602F0FBF9A188884205D81C
:10AB80002946204602F007FA002070BD0420FCE7A9
:10AB900010B50446022C0AD10C490D4A891AC9087D
:10ABA000032242EA01400BA104F004FF01E001206E
:10ABB00010BD00BF0549064A891AC908032242EAA6
:10ABC000014010A104F0F6FE0120F1E7184903004E
:10ABD00090480300506F776572206D616E61676504
:10ABE0006D656E742077616E747320746F2072656A
:10ABF00073657420746F20444655206D6F64652E14
:10AC000000000000506F776572206D616E616765AE
:10AC10006D656E7420616C6C6F77656420746F2055
:10AC2000726573657420746F20444655206D6F649F
:10AC3000652E000010B5024801F03EFF10BD000077
:10AC4000403A002010B503460C460AB9072010BD53
:10AC500019684A61012C01D1012000E0002008613F
:10AC60000020F4E738B51348006800900823582204
:10AC700011491248006803F030F904460CB120462F
:10AC800038BD0F4A69460F4801F01CFF04460CB15D
:10AC90002046F5E701210B4801F0BAFF01230A4ADB
:10ACA0001946084801F0DAFE0120084908702046DC
:10ACB000E6E700000C3B030098400020FC3A03004C
:10ACC00097240300403A0020FFFF7F004C3A002009
:10ACD0002DE9F04106460D4617463446207F10B157
:10ACE0000020BDE8F081A76102F0A6FB401941F108
:10ACF0000001C4E90201206900B12561214600205C
:10AD000008F0DEF9EDE770B5044625460020287707
:10AD10002946012008F0D4F970BD00002DE9F0416A
:10AD200004461048077821460F48FFF7FFFE80468B
:10AD3000A7B100200B49087001220C490C4803F010
:10AD400049FF054600BF2E4636B100BF09A2D621F5
:10AD50003046FCF75FFA00BF00BF00BF4046BDE8C9
:10AD6000F0810000CE3A0020B8420020CD3A002009
:10AD7000B43A00202E2E5C2E2E5C2E2E5C2E2E5CE5
:10AD80002E2E5C2E2E5C2E2E5C636F6D706F6E65AA
:10AD90006E74735C6C69627261726965735C756113
:10ADA00072745C6170705F756172745F6669666F02
:10ADB0002E6300002DE9F04188B004460E46174688
:10ADC00098462B4807601EB9072008B0BDE8F081FF
:10ADD000B08882B227483168FFF7B7FE054600BF4A
:10ADE000284600B1F1E700BFB08982B22248B168BD
:10ADF000FFF7ABFE054600BF284600B1E5E700BF00
:10AE000020221E496846FCF74FFB60690690207CB3
:10AE100008B1012000E000208DF814008DF81C809E
:10AE2000607C08B10E2000E000208DF81500E0687D
:10AE30000290A06803902068019060680090104A1A
:10AE40006946104803F080FE054600BF284600B161
:10AE5000BBE700BF00200C4908702068401C28B1E7
:10AE600001220A49074803F0B5FEAEE70020ACE72F
:10AE7000C83A0020B8420020C8420020303D0300FC
:10AE8000D5310300B43A0020CE3A0020CD3A00205C
:10AE90002DE9F041054629461448FFF768FE0646AD
:10AEA00006BB134C002720781249085C20B1201DF6
:10AEB00006F05AF9074608E020780E49085C20B9E8
:10AEC00004F10C0005F0F8FF074600BF57B90A4926
:10AED0000648FFF72BFE28B901220749044803F072
:10AEE0009BFE06463046BDE8F0810000C8420020C7
:10AEF000B43A0020243A0020CC3A002010B5044691
:10AF0000204607F053FC10BD70B5044625460E4898
:10AF10008068B0B1ADB9FFF725FB06460A48006866
:10AF20000A490860084840684FF0E021C1F8040170
:10AF30000020054988601EB900BF62B600BF00BF8F
:10AF400000BF00BF70BD00000041002000E100E034
:10AF5000F8B505460C4617462088001DB84201D9B1
:10AF60000C20F8BD684679DF064600BF304600B1C8
:10AF7000F7E700BF0320218868542088401C208008
:10AF80001920218868542088401C2080208841197D
:10AF9000BDF8000008F010FB218808442080002044
:10AFA000DFE770B505460C462068401C28B12068D4
:10AFB00004F052FA206804F003FA6068401C18B1EB
:10AFC0000321606804F0E2F92868A169C0F824153B
:10AFD00000BF617D227D286841EA0203C0F86C351C
:10AFE00000BFD4E90012286805F026FC207D012866
:10AFF00014D1A068401C18B10321A06804F0C6F960
:10B00000E068401C28B1E06804F026FAE06804F02B
:10B01000D7F9D4E90221286805F0F6FB70BD70B5B8
:10B0200005460C462068401C28B1206804F01FFA31
:10B03000206804F0D1F96068401C18B100216068F4
:10B0400004F0B1F92868A169C0F8241500BF617D3A
:10B05000227D286841EA0203C0F86C3500BFD4E9BC
:10B060000012286805F022FC207D012814D1A06878
:10B07000401C18B10021A06804F095F9E068401C5C
:10B0800028B1E06804F0F3F9E06804F0A5F9D4E928
:10B090000221286805F0EBFB70BD0000002114E0E0
:10B0A0000C48D0F81024012308E000BFD0680079D4
:10B0B000884201D1002303E0D0680268002AF4D15D
:10B0C00000BF0BB108467047491C0A29E8DB4FF066
:10B0D000FF30F8E7704400202DE9F04104460F46A8
:10B0E000154615B90E20BDE8F0810020286000BF8C
:10B0F0000CB90E20F7E700BF00BF206808B90E208A
:10B10000F1E700BF00BFE088C11700EB9171891023
:10B11000A0EB810109B10720E5E700BF384600F048
:10B12000B1FBC6B2142E01D10520DCE72079B04274
:10B1300001DC0420D7E7E188206806FB01002860D5
:10B140000020D0E72DE9FC4105468846164600243C
:10B1500037880020308095F82D0058B13A463146A6
:10B16000404600F0B3FB044600BF204608B1BDE8EE
:10B17000FC8100BFA87850B13A4631464046FFF7FF
:10B18000E7FE044600BF204600B1F0E700BFE878C4
:10B1900060B1E97848B23B463246414601F02DFFA6
:10B1A000044600BF204600B1E1E700BF686868B10F
:10B1B000696891F900003B463246414607F0EFFFCF
:10B1C000044600BF204600B1D1E700BF288900280F
:10B1D0000EDD43460622022105F10800CDE9006795
:10B1E00008F0BDFA044600BF204600B1BFE700BF2B
:10B1F000288A00280EDD43460722032105F11000AE
:10B20000CDE9006708F0ABFA044600BF204600B164
:10B21000ADE700BF288B00280EDD43461522142120
:10B2200005F11800CDE9006708F099FA044600BF5F
:10B23000204600B19BE700BF286A58B13B46324622
:10B240004146286A01F0A4FA044600BF204600B136
:10B250008DE700BF686A58B13B4632464146686A8E
:10B2600002F086FC044600BF204600B17FE700BF25
:10B2700095F82C0000280BDD3B4632464146284617
:10B2800007F0A8FB044600BF204600B16FE700BFEF
:10B29000287858B13B4632464146284602F024FD04
:10B2A000044600BF204600B161E700BF20465EE7CC
:10B2B0002DE9F843064688461546002000900DB952
:10B2C000BDE8F88309236A464146304600F02BF872
:10B2D0000446BDF800003718BDF8000068B164B13D
:10B2E0002846FCF711F9A04207D1224639462846E4
:10B2F000FCF71FF908B90120E2E70020E0E7F8B504
:10B3000004460E461546002000902B466A463146FC
:10B31000204600F008F807460FB90020F8BDBDF838
:10B3200000002044FAE7F0B504460D461E4604B17D
:10B330000AB90020F0BD002103E0605C401C084415
:10B3400081B2481CA84206DA10888842F5DC481C05
:10B35000205CB042F1D1A94201DB0020EAE7881C61
:10B3600087B2605C10B1605C401E00E0002083B2D8
:10B3700013B1F818A84201DD0020DBE7178018465A
:10B38000D8E72DE9F04788B004460E46174600205E
:10B39000079010200690B24602AA06A9384664DF3C
:10B3A000814614B1B9F1000F03D0002008B0BDE808
:10B3B000F0879DF81800022804D0042809D010282E
:10B3C00015D10DE003208DF8040002208DF8050052
:10B3D0000FE005208DF8040004208DF8050008E03A
:10B3E00007208DF8040006208DF8050001E00020FC
:10B3F000DCE700BF002509E001A8435D07AA31464C
:10B400002046FFF790FF8246681CC5B2022D03DA82
:10B41000BDF81C000028EFD0BDF81C0008B90020C2
:10B42000C4E7BDF81C0004EB000800250DE008EBA4
:10B4300005009DF8182002A9FCF77BF808B9012047
:10B44000B4E79DF81800284485B25545EFDB00208D
:10B45000ACE72DE9FF4104460D46164600BF1CB976
:10B460000E2004B0BDE8F08100BF207808B90820A4
:10B47000F7E715B90EB90E20F3E700200090019010
:10B4800002900390DDB1D4F82004016804F1550066
:10B49000814200D001E004F2431000902046FFF703
:10B4A000A9F9ADF8040001AA28460099FFF74AFE61
:10B4B000074600BF384600B1D3E700BF00BFDEB18A
:10B4C000D4F82004816804F23120814200D001E0E8
:10B4D00004F21F3002902046FFF78CF9ADF80C0003
:10B4E00003AA30460299FFF72DFE074600BF3846F3
:10B4F00000B1B6E700BF00BF04F580609DE88E0094
:10B5000010308EC01038C4F82004002204F154001A
:10B51000D4F8201472DFA4E780F83010704770B5BB
:10B5200004460D4605B10CB90E2070BD05F178003A
:10B5300001F0C7F808B90720F7E70020A0702C2217
:10B5400005F17801201DFBF7AFFF002084F83000E3
:10B55000D5F8A4006063D5F8A800A0634FF6FF708B
:10B56000A4F8240404F58260C4F82004002140F209
:10B570002C40C4F82614A4F82A140155207810B9D8
:10B58000FF2084F8540004F15500C4F8100420464C
:10B59000FFF730F940F21441085304F2144204F169
:10B5A00055012846FFF7CEFD064600BF304600B1E4
:10B5B000BBE700BF04F231204FF4836108512046FD
:10B5C000FFF718F9A4F81C044FF48360015904F242
:10B5D0001C4205F13C00FFF7B5FD064600BF3046B2
:10B5E00000B1A2E700BF012151200155208B81B29B
:10B5F00048200153012084F83C00002121645020A0
:10B6000001556169616404F13C02002104F15400B8
:10B6100072DF064600BF304600B186E700BF01205A
:10B620002070304681E770B504460D462C2229462D
:10B63000201DFBF739FF70BD70B504460D462E4640
:10B640002088102804D0112807D026280FD109E01F
:10B650002146304605F0E8FE0AE02146304605F076
:10B66000F5FF05E02146304606F08BF900E000BF0B
:10B6700000BF70BD70B504460E46207808B908209A
:10B6800070BDA670002140F22C40C4F82614A4F826
:10B690002A140155A07910B1A078012809D0E079C9
:10B6A00010B1A078012804D0E07970B1A078022808
:10B6B0000BD1606B30B1012084F82D040820616B40
:10B6C000884702E0002084F82D0431462046FFF729
:10B6D00041F8A070606BA0B1A078032802D0A078D8
:10B6E00004280ED1607960B194F82E0448B9002086
:10B6F00084F83004012084F82F040720616B884708
:10B7000002E0002084F82F04182104F13C00FBF72C
:10B71000E4FE012084F83C0004F12C0006F02CFA31
:10B7200020B194F82C105120015502E00121512044
:10B73000015594F8240060B104F1280006F01CFAC9
:10B7400020B194F828105220015502E00121522026
:10B750000155002150200155A078052824D2DFE8AA
:10B7600000F01F030A11180004F13C01204607F005
:10B7700094F9054619E004F13C01204607F075F9FB
:10B78000054612E004F13C01204607F098F9054611
:10B790000BE004F13C01204607F0BFF9054604E048
:10B7A000002084F8310000E000BF00BFA07898B10D
:10B7B00004F13C0204F15400D4F8201472DF054671
:10B7C0000DB128465CE794F8301094F8540073DF0C
:10B7D00005460DB1284653E7606B18B194F8310067
:10B7E000616B884700204BE72DE9F041044600BF1C
:10B7F00014B90E20BDE8F08100BF1C2221461C4870
:10B80000FBF752FE1B481A490860206860B12068A7
:10B810007ADF05460DB12846ECE7164821680A682C
:10B8200002604968416005E012487BDF05460DB1C2
:10B830002846DFE7002617E006EB86000E4901EBFD
:10B84000800700BF4FF6FF70388000BF0B4800EB49
:10B85000461078600A4A0021381DFFF7F3F90546C3
:10B860000DB10320C6E7761C002EE5D00020C1E70D
:10B87000AC3E0020F0390020983E0020783E0020A9
:10B88000A136030010B50446204600F011F808B1B7
:10B89000204610BD1420FCE770B504460D46034950
:10B8A00088682A46214601F0D9FB70BDC83E0020B9
:10B8B00010B50446142C01DB002010BD21460248BF
:10B8C00002F066FBF9E70000CC3E00202DE9FC41C8
:10B8D00005460C46174620880930B84202D90C208C
:10B8E000BDE8FC8168466DDF064600BF304600B10A
:10B8F000F6E700BF0820218868542088401C20807B
:10B900001B20218868542088401C208020882844DF
:10B91000DDF801100160BDF8051081802088801DD0
:10B9200020809DF80000400818B900202188685444
:10B9300002E00120218868542088401C20800020DB
:10B94000CEE7000070B502F0F3FF044600BF2046CA
:10B9500000B170BD00BF00BF084D28464FF0030C7A
:10B9600000DF00BF044600BF204600B1F1E700BF82
:10B9700003F058F804462046EBE70000443F00205F
:10B98000014600BF09B90E20704700BF01480160A1
:10B990000020F9E7183A002010B54FF0FF310020E1
:10B9A0003DDF044600BF204600B110BD00BFB121FD
:10B9B00000203CDF044600BF204600B1F5E700BF91
:10B9C0000448416901208847022004F039FA002028
:10B9D000EBE700006C3F002010B5054800684169A6
:10B9E00000208847FFF7D8FF0446204610BD00001E
:10B9F000183A002010B588B0044620216846FBF7AD
:10BA00006CFD0320ADF8000020788DF802009DF851
:10BA10000D0020F0200020308DF80D009DF80D0065
:10BA200020F0080008308DF80D0001208DF810007E
:10BA30008DF80C001720ADF8040001208DF81300DC
:10BA40008DF812008DF811006088A21D694600F083
:10BA500015FD08B010BD000030B585B00546244B7B
:10BA60000FCB8DE80F0000BF15B90E2005B030BD1B
:10BA700000BF4FF6FF701F4988802868486100208A
:10BA800008760846406908B91B4848611948FFF71D
:10BA900077FF044600BF204600B1E7E700BF00BFC4
:10BAA00001208DF812004FF65960ADF8100000BF6C
:10BAB000104A921C04A90120A8DF044600BF2046BA
:10BAC00000B1D3E700BF0B49684662DF044600BF00
:10BAD000204600B1CAE700BF0648FFF78BFF0446C7
:10BAE00000BF204600B1C1E700BF0020BEE7000054
:10BAF0004C3A03006C3F00204BCD020070B5044669
:10BB00000D4600BF04B970BD00BF2088102806D0C4
:10BB1000112808D051280AD0532810D10BE0204614
:10BB200005F07CFC0CE0204605F082FD08E0204694
:10BB300005F0D0FE04E0204605F042FE00E000BF24
:10BB400000BF00BFDFE7000070B504460426207B7D
:10BB5000012802D0022822D109E001F0F7F80546B9
:10BB60000DB9012602E0112D00D1062619E0607BF7
:10BB7000142801DC607B08B905260FE0627B04F124
:10BB80000E011248FBF790FC607B1049091F886189
:10BB9000084606F0F1FF054605B9012601E0022638
:10BBA00000BF00BF012E0FD0207B314600F058F8B7
:10BBB000054625B1064800684169032088470448C6
:10BBC000006841690220884770BD0000543F002092
:10BBD000183A002070B505460E4600BF1E480068A2
:10BBE00020B11D48406808B1012000E0002000B9E4
:10BBF00070BD00BF184800F1080142682846904710
:10BC0000044600BF082C24D07CB9002013490968E1
:10BC100048760121022000F023F80446CCB10F48F9
:10BC2000006841690320884713E000200B49096838
:10BC300048760621022000F013F8044624B1074894
:10BC40000068416903208847044800684169022070
:10BC5000884700BFCCE70000443F0020183A00208E
:10BC6000F0B587B004460D460327002001900290EE
:10BC7000039004900320069020208DF814008DF886
:10BC800015408DF816500E48C088ADF8040002200B
:10BC90008DF806000020ADF8080006A8039005A85E
:10BCA00004900749888801A9AEDF064626B9BDF889
:10BCB0001800032800D00C26304607B0F0BD000065
:10BCC0006C3F002030B58BB0044634B1012C29D034
:10BCD000022C32D0032C49D13AE02B492B4A891A45
:10BCE000C908032242EA014029A103F063FE684625
:10BCF000FEF7E4FD01208DF8000069463048FFF7AB
:10BD000092FC00212F48FFF7C7FD05461E491F4A38
:10BD1000891AC908032242EA01402A462AA103F0EF
:10BD200053FE2EE01849194A891AC908032242EA2B
:10BD300001402BA103F03EFE23E01349134A891A68
:10BD4000C908012242EA01402EA103F033FE18E0A7
:10BD50000D490E4A891AC908012242EA014038A158
:10BD600003F028FE00BF002000BF0AE00649074A92
:10BD7000891AC908012242EA01403DA103F01AFED6
:10BD800000BF00BF0BB030BD18490300904803004E
:10BD900044657669636520697320707265706172AD
:10BDA000696E6720746F20656E74657220626F6FB4
:10BDB000746C6F61646572206D6F64652E000000A5
:10BDC000B84C0020DDC90200446973636F6E6E6574
:10BDD00063746564202564206C696E6B732E0000AB
:10BDE0004465766963652077696C6C20656E74655F
:10BDF0007220626F6F746C6F61646572206D6F6426
:10BE0000652E00005265717565737420746F20652E
:10BE10006E74657220626F6F746C6F6164657220FE
:10BE20006D6F6465206661696C6564206173796E0D
:10BE30006368726F6E656F75736C792E0000000019
:10BE40005265717565737420746F2073656E64201C
:10BE50006120726573706F6E736520746F20636C00
:10BE600069656E74206661696C65642E000000006F
:10BE7000556E6B6E6F776E206576656E7420667298
:10BE80006F6D20626C655F6466755F627574746F58
:10BE90006E6C6573732E000070B505460E462888DB
:10BEA000102802D011282CD115E01748006860B97D
:10BEB00000F0CCFC044600BF34B11448006818B14F
:10BEC000204612490968884700BF0F480068401C97
:10BED0000D49086016E00C480068401E0A490860D9
:10BEE0000846006860B9FEF7BFFC044600BF34B1E5
:10BEF0000648006818B1204604490968884700BF11
:10BF000000E000BF00BF70BDEC390020E839002020
:10BF100070B504460D462088102806D0112808D098
:10BF200012280ED0502810D107E0204605F004FA60
:10BF30000CE0204605F062FB08E0204605F052FDCB
:10BF400004E0204605F0E0F900E000BF00BF70BD4E
:10BF50002DE9F04104460F46A6882088102806D017
:10BF6000112819D019283FD01A284AD118E006F014
:10BF700029FA304606F0B2F830B900BF22A2F0210B
:10BF80000420FBF747F906E0E07B022803D13146A5
:10BF90002C4802F00CF834E0304606F037FA30E076
:10BFA000207A0509042D01DB012000E00020024673
:10BFB000314624480C3001F011F8032D01DB01203B
:10BFC00000E00020024631461E48083001F006F825
:10BFD000022D01DB012000E0002002463146194815
:10BFE000001D00F0FBFF0CE0207A48B9607AC0F336
:10BFF000C0052A46314613480C3000F0EFFF00BF61
:10C0000000BF00BFBDE8F0812E2E5C2E2E5C2E2ED0
:10C010005C2E2E5C2E2E5C2E2E5C2E2E5C636F6DA5
:10C02000706F6E656E74735C626C655C636F6D6D72
:10C030006F6E5C626C655F636F6E6E5F737461746C
:10C04000652E6300D43E00202DE9F04186B0044601
:10C05000884617461D4600BF1CB90E2006B0BDE835
:10C06000F08100BF01AA29466069FFF735F806464E
:10C0700000BF304600B1F1E700BF4FF6FF708542C8
:10C0800001D0019808B90520E8E70198007808B9BF
:10C090000820E3E73888F42801DD0720DEE70020E8
:10C0A0000290039004900590A088ADF80800CDF8A8
:10C0B0001480049701208DF80A0002A92846AEDFFB
:10C0C000CCE7000070B592B004460E465D4B0FCB36
:10C0D0000DAD0FC500BF14B90E2012B070BD00BF6A
:10C0E00000BF0EB90E20F8E700BF3068A0612146FE
:10C0F0000DA862DF054600BF284600B1EDE700BF8E
:10C1000020788DF846004FF6F070ADF84400A21C80
:10C1100011A90120A8DF054600BF284600B1DCE7D1
:10C1200000BF202105A8FBF7D8F90020019002905C
:10C13000039004904FF6F170ADF8140020788DF85C
:10C140001600F420ADF818000120ADF81A008DF8A3
:10C1500020009DF8210020F0100010308DF8210003
:10C160009DF8210020F00200801C8DF821000120A4
:10C170008DF825008DF826008DF8270032480290B2
:10C180001420ADF80600ADF804009DF80D0020F075
:10C190000200801C8DF80D0001208DF8100001A810
:10C1A0000B906088221D05A900F068F905460DB1C5
:10C1B000284692E7202105A8FBF78FF94FF6F27089
:10C1C000ADF8140020788DF81600F420ADF81800B2
:10C1D0000120ADF81A008DF820009DF8210020F014
:10C1E000080008308DF821009DF8210020F004009F
:10C1F000001D8DF821009DF8210020F00200801C18
:10C200008DF8210001208DF825008DF826000F48BB
:10C2100002901420ADF80600ADF804009DF80D0062
:10C2200020F00200801C8DF80D0001208DF8100018
:10C2300001A80B90608804F10C0205A900F01EF91A
:10C240004BE70000343A0300F8390020063A00209A
:10C2500070B504460D4605B104B970BD2E46208860
:10C26000102804D0502807D057280FD109E02146C4
:10C27000304605F099F80AE02146304605F0DEFB2D
:10C2800005E02146304605F0B1FA00E000BF00BFEE
:10C2900000BFE2E770B50446204607F087F905467F
:10C2A000C5F3400070BD70B50446204607F07EF926
:10C2B000054605F0010070BD30B503460020042B93
:10C2C00023D2012A07D1012903D103F10E04E4B2DC
:10C2D00000E00024224679B1012902D0022911D1BF
:10C2E00004E003EB43040A4D2A550DE003EB43043D
:10C2F000074D2C44627007E003EB4304044D2C44CB
:10C30000A27001E0072000BF00E0072030BD000060
:10C31000483E00202DE9FC4704460D461646A71C62
:10C320004FF001080020019001A8FEF7E7FD30481A
:10C33000406828602E4840682D498968411A2D4878
:10C340000068401CA0EB010915E001212A4801F01A
:10C3500052FE01F06BFB82465146274801F04BFE2E
:10C360002348406822498968411A22480068401CD5
:10C37000A0EB010900BF4F45E7D8B8F1000F30D05E
:10C380000021009176B1009921F00301491C009130
:10C39000009921F00401091D0091009964F38911AD
:10C3A00000910DE0009921F00301891C0091009992
:10C3B00021F00401091D0091009964F39F5100913F
:10C3C0000B4949680B4A12681140094A0C3202EBCA
:10C3D0008100009901600649496839440C3A51606E
:10C3E00000BF9DF80400FEF78FFD4046BDE8FC87C6
:10C3F00070440020E83A00208C48002070B50446C4
:10C400000D460A2D03D10D212046FFF7F7FFA16845
:10C41000481CA06020684554D4E90110884202D32A
:10C42000204602F030FC70BD04488068034949682A
:10C43000884201D1012070470020FCE770440020B1
:10C4400070B504460D46032C06D1A92003490860A7
:10C4500000BF002003F0F4FC70BD00002005004088
:10C460000146024850F82100704700009C3F002020
:10C470000146014840567047CC3F002070B590B04F
:10C4800006460C461546A07818B901208DF80E0016
:10C4900002E0A0788DF80E002088ADF80C00002096
:10C4A0000290607C02A906F097FBA07C0DF10901C7
:10C4B00006F092FBE07B08B1012000E000209DF82F
:10C4C0000A1060F3C3018DF80A10207C08B1012026
:10C4D00000E000209DF80A1060F304118DF80A10A6
:10C4E000207B08B1012000E000209DF80A1060F3D5
:10C4F00000018DF80A10207D08B1022000E0012023
:10C500009DF80A1060F342018DF80A101C2109A859
:10C51000FAF7E3FF607BC0F3001018B9607BC0F34B
:10C520004010F8B100200090E07C0DF1010106F010
:10C5300053FB00BF9DF8000020F00F00401C8DF859
:10C5400000009DF8000020F0F00010308DF8000091
:10C5500000BF9DF8020020F00600801C8DF802004C
:10C56000CDF838D0607B8DF82400A07B8DF82500B5
:10C57000142104A8FAF7B1FF03A8049002A80590BB
:10C58000A088ADF81C00A06820B1E088ADF81800C4
:10C59000A0680890A069002849D000200190A069F7
:10C5A0000088ADF82C00A0694088ADF82E00A06985
:10C5B00040680A9001A80D90A169087B01A906F0C6
:10C5C0000BFBA169487B0DF1050106F005FBA06995
:10C5D000807A08B1012000E000209DF8061060F389
:10C5E000C3018DF80610A069C07A08B1012000E0EF
:10C5F00000209DF8061060F304118DF80610A06964
:10C60000007A08B1012000E000209DF8061060F3D8
:10C6100000018DF80610A069807B08B1022000E0BF
:10C6200001209DF8061060F342018DF80610E069C4
:10C6300008B1E0690C902B4604AA09A93046AADF8C
:10C6400010B070BD70B505460DB9094C01E0084C3D
:10C65000083409E0204601F0B7F9064606B904E0BF
:10C6600028467168884700BFF4E700BF70BD00002E
:10C67000903F002010B504462CB9012006494870AF
:10C680000020FFF7DFFF012C04D101200249887050
:10C69000FFF7D8FF10BD0000883F00202DE9F047CC
:10C6A000024613468C46D3E90245DCE90267B6EB45
:10C6B000040877EB050002D30120BDE8F0870020D5
:10C6C000FBE701468878012805D191F82000012870
:10C6D00001D1002070470120FCE70246002007E05E
:10C6E000536833F810308B4200D17047431C98B226
:10C6F00013888342F4DC00BFF7E733B58BB00546FF
:10C70000002000900C9878B100240BE021460CA882
:10C7100001F03EFC28B1009A501C009001A820F8BE
:10C720001240641C142CF1D32C2269462846FAF7D7
:10C73000BBFE0DB030BD01460888062808DB08881E
:10C74000B0F5486F06DD08884FF6FF72904201D0C1
:10C75000072070474888062808DB4888B0F5486FEE
:10C7600006DD48884FF6FF72904201D00720F0E7BF
:10C7700008884FF6FF72904208D04888904205D052
:10C7800008884A88904201DD0720E2E70020E0E7C0
:10C790002DE9F04107460D46144698462088801D35
:10C7A000404502D90C20BDE8F0813846FFF7C3FFB1
:10C7B000064600BF304600B1F5E700BF05202188DE
:10C7C00068542088401C20801220218868542088CA
:10C7D000401C208022885119388806F0EDFE2188FF
:10C7E0000844208022885119788806F0E5FE2188C7
:10C7F000084420800020D6E7F8B505460C46607A4C
:10C8000088B9207A10B91048476801E00E48876857
:10C810002A4639466068FEF75BFA064616B130468E
:10C8200006F078F80EE0002020720748406948B111
:10C8300001208DF80000ADF80250034841696846B8
:10C84000884700BFF8BD0000AC3E002010B50122B3
:10C8500000210846FFF730FD044600BF1CB1072C3D
:10C8600001D0204610BD00BF072202210120FFF7A2
:10C8700023FD044600BF1CB1072C01D02046F1E780
:10C8800000BF042202210020FFF716FD044600BF6E
:10C890001CB1072C01D02046E4E700BF0020E1E7EF
:10C8A0002DE9FF4105460C46002002900390ADF8AB
:10C8B0000840ADF80A40009001906A4602A9284657
:10C8C00090DF0646002E32D0304603F059FF07466F
:10C8D00019491A4A891AC908012242EA01403B460D
:10C8E0002A46174903F07CF8BDF8000010B9BDF8DE
:10C8F000020068B1BDF80230BDF800200E490F4FAC
:10C90000C91BC908012747EA01400EA103F068F8D6
:10C91000BDF8040058B1BDF804200749074BC91AF7
:10C92000C908012343EA0140164903F04DF8304697
:10C9300004B0BDE8F0810000904803009048030077
:10C940000C3F0300546865207265717565737465EA
:10C95000642054582F5258207061636B6574206CAA
:10C96000656E67746820697320746F6F206C6F6EDA
:10C97000672062792025752F2575206F6374657493
:10C98000732E0000583F030070B506460D4616B1E1
:10C990004FF4064070BD287920B1012809D0022843
:10C9A00015D111E002202871284605F0F5FB044658
:10C9B00010E0284600F0F8FA044648F20960844284
:10C9C00001D141F61D5405E041F61D5402E048F244
:10C9D0000E6400BF00BF2046DCE7000070B50446CF
:10C9E0000E461321204676DF05465DB10649074A0B
:10C9F000891AC908022242EA01402B46224604490C
:10CA000002F0EEFF70BD00001849030090480300DB
:10CA10004047030010B50021034801F018FB04460D
:10CA200084F3100010BD00008C48002070B505464E
:10CA30000C464FF4803000FA04F1284600F064FA06
:10CA400070BD70B505460C464FF4A07000EB840035
:10CA500086B23146284600F071FA70BD2DE9F047E4
:10CA600004460D4616461F464FF4803000FA05F87E
:10CA70004FF4A07000EB85001FFA80F926F07F4686
:10CA80004146206803F00FFB4146206803F005FB98
:10CA90004946206803F0FAFA32462946206803F036
:10CAA000ECFA4146206803F0FBFA1FB141462068CA
:10CAB00003F0FCFABDE8F08710B50446206803F0E7
:10CAC000E1FA10BD2DE9F04704460D46174660799E
:10CAD000324941F820706079314901EBC00000799A
