:020000040002F8
:1070000008750020DD730200E5730200E7730200DB
:10701000E9730200EB730200ED7302000000000050
:10702000000000000000000000000000EF730200FC
:10703000F173020000000000F3730200F573020018
:10704000497F0200F7730200E9820200F773020031
:10705000F773020000000000817E020000000000C3
:1070600089820200A1820200B9820200F773020045
:10707000F7730200F7730200F7730200F773020060
:10708000F7730200ED7F0200F7730200F77302004E
:10709000F7730200F773020091800200F773020099
:1070A000F7730200F7730200D182020000000000B3
:1070B00000000000000000000000000000000000D0
:1070C00000000000000000000000000000000000C0
:1070D000000000000000000000000000F773020044
:1070E00000000000000000000000000000000000A0
:1070F0000000000000000000000000000000000090
:10710000000000000000000000000000000000007F
:10711000000000000000000000000000000000006F
:10712000000000000000000000000000000000005F
:10713000000000000000000000000000000000004F
:10714000000000000000000000000000000000003F
:10715000000000000000000000000000000000002F
:10716000000000000000000000000000000000001F
:10717000000000000000000000000000000000000F
:1071800000000000000000000000000000000000FF
:1071900000000000000000000000000000000000EF
:1071A00000000000000000000000000000000000DF
:1071B00000000000000000000000000000000000CF
:1071C00000000000000000000000000000000000BF
:1071D00000000000000000000000000000000000AF
:1071E000000000000000000000000000000000009F
:1071F000000000000000000000000000000000008F
:10720000DFF80CD000F0D6F90048004711C70200A3
:107210000875002000B583B002900091019244F2FD
:10722000010071466A4602F045FB03B000BD000054
:1072300030B450E8012F93B2C48923448489A34217
:1072400028BF1B1B0489A34202BFBFF32F8F00205E
:1072500007E0C3EA020340E80134002CE9D14FF013
:1072600001000A6030BC704750E8012FC2EA0242B8
:1072700040E801210029F7D1704730B450E8022FCF
:107280001FFAA2F3C488A34202BFBFF32F8F0020CE
:107290000DE0C48923448489A34228BF1B1BC2EA92
:1072A000034340E80234002CE8D14FF001000A60AB
:1072B00030BC704750E8022FC2EA224240E8022167
:1072C0000029F7D17047034653E8022FD988B2EB63
:1072D000324F4FF0000017BF92B241EA014142EA3B
:1072E000014104E05A68B2EB324F08BF012043E885
:1072F0000212002AE8D1704730B4044654E8000F67
:107300000D4644E80053002BF8D1156030BC70479F
:1073100030B4044654E8000F40EA010544E8005345
:10732000002BF7D1156030BC704730B4044654E8E8
:10733000000F00EA010544E80053002BF7D1156067
:1073400030BC704730B4044654E8000F80EA0105B1
:1073500044E80053002BF7D1156030BC704730B4BF
:10736000044654E8000F00EB010544E80053002BED
:10737000F7D1156030BC704730B4044654E8000FB4
:10738000A0EB010544E80053002BF7D1156030BC99
:10739000704770B404464FF0000054E8006F0D6869
:1073A000AE4207BF44E80023012044E800630E60BA
:1073B000002B1CBF0020F0E770BC704730B40446BF
:1073C00054E8000F88422CBF451A054644E8005394
:1073D000002BF5D1156030BC70470000064880478F
:1073E00006480047FEE7FEE7FEE7FEE7FEE7FEE7AA
:1073F000FEE7FEE7FEE7FEE7DD8002000172020025
:10740000202A04DB203A21FA02F00021704721FAF9
:1074100002F3D040C2F12002914008431946704760
:10742000004870473829030040EA01039B0703D056
:1074300009E008C9121F08C0042AFAD203E011F8B3
:10744000013B00F8013B521EF9D27047D2B201E075
:1074500000F8012B491EFBD270470022F6E710B559
:1074600013460A4604461946FFF7F0FF204610BDB2
:10747000421E12F8013F002BFBD111F8013B02F82C
:10748000013B002BF9D17047421C10F8011B002969
:10749000FBD1801A704710B5002200E0521C835CBB
:1074A0008C5CA34201D1002BF8D1D8B2E1B2401AD2
:1074B00010BD30B504460020034600E05B1C93423B
:1074C00003D2E05CCD5C401BF8D030BD034611F820
:1074D000012B00F8012B002AF9D11846704730B56E
:1074E00005460020034600E05B1C934205D2EC5C9D
:1074F000C85C201A01D1002CF6D130BD70B506460B
:1075000001F0F6FE046805460A220021304600F02C
:1075100018F82C6070BD30B50B46014600202022C3
:10752000012409E021FA02F59D4205D303FA02F590
:10753000491B04FA02F52844151EA2F10102F1DCF0
:1075400030BD2DE9F04791460F468046044600269F
:1075500014F8015B2DB1FFF763FF0068405DC007C1
:10756000F6D12B2D02D02D2D18D0641E4A46394657
:10757000204600F031F827B13968A14201D1C7F89F
:10758000008071054FF002040BD54042002803DD56
:1075900001F0AEFE0460A007BDE8F08746F4806607
:1075A000E4E70028F8DA01F0A3FE04606FF0004081
:1075B000F2E70000064C074D06E0E06840F00103EA
:1075C00094E8070098471034AC42F6D3FFF71CFE4E
:1075D00078310300983103002DE9F05F824600788E
:1075E000002715468B460AF10104B946302801D020
:1075F0009DB113E014F8010B0127782803D0582817
:1076000001D045B10AE00DB1102D07D1002710259A
:1076100014F8010B02E0082500E00A250026B04618
:107620000EE005FB080005FB06F1012701EB104603
:107630001FFA80F8B6F5803F00D3B94614F8010B65
:10764000294600F018F80028EBDABBF1000F05D04E
:107650000FB1641E00E05446CBF80040B9F1000FB2
:1076600006D001F045FE02210160C81EBDE8F09F72
:1076700048EA0640FAE73A2800D2303820F02002E3
:10768000412A01D3A2F13700884201D34FF0FF30E5
:10769000704770B58C1810F8015B15F0070301D125
:1076A00010F8013B2A1106D110F8012B03E010F865
:1076B000016B01F8016B5B1EF9D12B0705D4002388
:1076C000521E0DD401F8013BFAE710F8013BCB1A2A
:1076D000921C03E013F8015B01F8015B521EF9D51F
:1076E000A142D8D3002070BD024611B1012915D1A5
:1076F00009E0002004E00B4B1B5C1354431CD8B280
:107700001228F8D30BE0002005E0064B12331B5C77
:107710001354431CD8B21228F7D300E000BF00BFB7
:10772000704700000054002010B501200749487040
:1077300000200870112212210548FFF787FE22223F
:10774000122103481230FFF781FE10BDB23B00202A
:107750000054002010B5024611B1012915D109E0ED
:10776000002004E0135C0A4C2354431CD8B21228B6
:10777000F8D30BE0002005E0145C054B12331C54D9
:10778000431CD8B21228F7D300E000BF00BF10BDE1
:107790000054002030B587B016A207CA04AB07C357
:1077A000002001900290039000241548FFF76CFE22
:1077B000054629461248FFF750FE04A91048FFF776
:1077C00085FE1048006B0A21B0FBF1F084B222461E
:1077D0000DA101A801F078FD01A90948FFF748FEB5
:1077E0000748FFF751FE06493E220A54084607B0F3
:1077F00030BD00003C6164765F64656C61793D007A
:10780000943B0020B0540020256400001FB512A254
:1078100007CA01AB07C3002000901248FFF734FEEF
:10782000044621460F48FFF718FE01A90D48FFF74F
:107830004DFE0D480DA18269684601F045FD69467F
:107840000848FFF715FE0748FFF71EFE05493E22D0
:107850000A54084604B010BD3C6164765F696E74DA
:107860003D000000943B00202454002025640000CB
:107870001CB50EA103C9CDE900010E48FFF704FEB7
:10788000044621460B48FFF7E8FD69460948FFF723
:107890001DFE09490748FFF7EBFD0648FFF7F4FD19
:1078A00004493E220A5408461CBD00003C6E616D2E
:1078B000653D0000943B00202454002010B5044690
:1078C00009492046FFF702FE07488069A061064883
:1078D000C069E0610448006A2062034890F824000F
:1078E00084F82400012010BD2454002010B588B075
:1078F00013A30FCB04AC0FC400200190029003909F
:107900001348FFF7C1FD044621461148FFF7A5FDC6
:1079100004A90F48FFF7DAFD0E480FA1026A01A87B
:1079200001F0D2FC01A90A48FFF7A2FD0848FFF7C1
:10793000ABFD07493E220A54084608B010BD0000BE
:107940003C6164765F74696D656F75743D0000001D
:10795000943B0020245400202564000010B588B01A
:1079600013A30FCB04AC0FC400200190029003902E
:107970001348FFF789FD044621461148FFF76DFDC6
:1079800004A90F48FFF7A2FD0E4890F924200EA18C
:1079900001A801F099FC01A90948FFF769FD084811
:1079A000FFF772FD06493E220A54084608B010BD92
:1079B0003C73745F74785F706F7765723D00000090
:1079C000943B0020245400202564000010B507A13A
:1079D0000948FFF77BFD4020074988616420C861A2
:1079E0000A200862042081F8240010BD4A53313374
:1079F000352D2D2D32000000245400202DE9FC41AE
:107A0000054600200090019000BF0F2780462846C1
:107A1000FFF73AFDC01B00F0FF08002405E038190D
:107A2000285C0DF80400601CC4B24445F7DB6846CE
:107A3000FFF764FD86B206EB860040000C49086340
:107A4000002404E001200A490855601CC4B2042C3B
:107A5000F8DB07490A6B0749074BC91AC908032312
:107A600043EA014005A106F003FDBDE8FC810000EA
:107A7000B054002028320300A83103006164765F0F
:107A800064656C6179206973202564002DE9FC41EF
:107A900005460020009001900D2600272846FFF79C
:107AA000F3FC801BC7B2002405E03019285C0DF8F8
:107AB0000400601CC4B2BC42F7DB6846FFF71EFD41
:107AC000074988618A690749074BC91AC90803230E
:107AD00043EA014005A106F0CBFCBDE8FC810000B3
:107AE0002454002028320300A83103006164765F2B
:107AF00069747620697320256400000038B500BFE2
:107B00009DF8000020F00F00401C00909DF8000040
:107B100020F0F0001030009000BF0A48FFF7B4FCDE
:107B200085B22A46074968467CDF044600BF2546E1
:107B300035B100BF04A291212846FFF76BFB00BFBF
:107B400000BF38BD245400202E2E5C2E2E5C2E2E1D
:107B50005C2E2E5C2E2E5C2E2E5C2E2E5C7573659C
:107B6000725C757365725F6164762E63000000005D
:107B70002DE9FC41054600200090019011260027C8
:107B80002846FFF781FC801BC7B2002405E03019AE
:107B9000285C0DF80400601CC4B2BC42F7DB6846E8
:107BA000FFF7ACFC074908620A6A0749074BC91A84
:107BB000C908032343EA014005A106F059FCBDE8CA
:107BC000FC8100002454002028320300A831030067
:107BD0006164765F74696D656F75742069732025C3
:107BE000640000002DE9FC41054600200090019052
:107BF0000D2600272846FFF747FC801B401EC7B212
:107C0000A85D2B2812D100240DE03019401C285CFF
:107C10000DF804006846FFF771FC40B21B4981F87B
:107C20002400601CC4B2BC42EFDB20E0A85D2D281C
:107C300013D100240EE03019401C285C0DF804001C
:107C40006846FFF75BFC404240B2104981F82400CF
:107C5000601CC4B2BC42EEDB09E00D490D4A891A32
:107C6000C908032242EA01400BA106F0F7FB0749CD
:107C700091F924200649074BC91AC908032343EA8E
:107C8000014007A106F0F4FBBDE8FC81245400206C
:107C900028320300A83103006572726F7200000081
:107CA00074785F706F7765722069732025640000B7
:107CB0000148007870470000B43B0020014908707B
:107CC00070470000B43B002070B5054600262846EA
:107CD000FFF7DAFB0B38C6B216210D48FFF7BDFBE4
:107CE000002406E004F10A00285C09490855601CDC
:107CF000C4B2B442F6DB0749074A891AC90803220D
:107D000042EA0140024A05A106F0B2FB70BD000044
:107D10002454002028320300A83103006E616D65F1
:107D20002069732025730000034909780170024916
:107D30004978417070470000B23B00200178024A48
:107D40001170417851707047B23B002010B5FFF7B9
:107D5000AFFFB0B1002412E00A48005D01280CD149
:107D600000210848015501F085FD00F001FF01F0F8
:107D700041FC01F007FD01F05DFD601CC4B2082C60
:107D8000EADB10BDB854002010B514210148FFF7FC
:107D900064FB10BDEC5300202DE9F047064600259A
:107DA000B46947E014F80580681C14F80090B9F134
:107DB000030F06D0B9F1090F04D0B9F1FF0F34D188
:107DC00001E032E031E0607913282DD1A079EE286E
:107DD0002AD1601D00F042F819491A4A891AC908C7
:107DE000052242EA014018A106F038FB00270DE009
:107DF0001749CA5D1249134BC91AC908052343EA3A
:107E0000014014A106F034FB781CC7B2A8F10100B0
:107E1000B842EDDC0A490B4A891AC908052242EA30
:107E200001400DA106F01AFB00BF00BF08F10100E0
:107E3000054400BFB08BA842B4D80520BDE8F08748
:107E400028320300A8310300646174613A3078007D
:107E5000EC530020257800000A00000010B504460D
:107E6000142221460148FFF7DFFA10BDEC53002031
:107E700013210248008876DF70470000343A002062
:107E80002DE9F84F0026002000904FF4807701255F
:107E9000002410E0384606F05DF840B100BF2548E8
:107EA0000068284018B1384606F046F82E436D00A9
:107EB000381D87B2641C082CECD34FF4BE7006F05A
:107EC00049F850B14FF4BE7006F036F846F000465F
:107ED0006A460121002005F0F9FFF0B210B3012538
:107EE00000241DE005EA0600C0B100BF124850F8AA
:107EF0002400C0F30420814600BF0F4850F824003E
:107F0000C0F301408246204603F02CF88046B8F1C9
:107F1000000F02D051464846C04700BF6D00641CA8
:107F2000082CDFD306F0004010B1684608F0E6FAEE
:107F3000BDE8F88F046300401065004001480078F8
:107F400070470000443A002010B54FF4807005F0EF
:107F5000D5FA80B14FF4807005F0D9FA012005F010
:107F6000DFFA2048407930B901201E49487108469F
:107F70000168002088474FF4827005F0BFFA50B1C5
:107F80004FF4827005F0C3FA022005F0C9FA1548D3
:107F90000168012088474FF4887005F0AFFA50B1AE
:107FA0004FF4887005F0B3FA102005F0B9FA0D48C7
:107FB0000168022088474FF4867005F09FFA80B16F
:107FC0000020094908604FF4867005F0A0FA0820E7
:107FD00005F0A6FA002003498871084601680320CD
:107FE000884710BD643A0020340C004010B5034AA5
:107FF0001068034A1168884710BD0000A03A0020AD
:108000009C3A002010B501F0B9F810BD2DE9F047F9
:10801000074688461646C24607EB47011B4800EB59
:10802000C109D9F8140020B1012811D0022826D1A5
:108030001EE0484601F0DAF80546B54201D20024B8
:1080400005E0344632465146484601F016F918E03C
:10805000484601F0CBF80546B54201D2284600E07B
:108060003046044622465146484601F006F908E0EB
:1080700032465146484601F0C7F8044601E0002464
:1080800000BF00BF2046BDE8F08700007C51002003
:1080900010B506F08DFF10BD014800787047000054
:1080A000B53B00200149087070470000B53B002037
:1080B00010B505F0FFF90020FFF7F4FF10BD000038
:1080C0000149087070470000443A00200148024905
:1080D000086070470090D003DC3D002010B504F02C
:1080E0009FFC40B100205E4908604FF08041C1F81C
:1080F00010015C49086004F0C1FC002855D05A48C2
:1081000000685A4908605848001D0068091D086049
:10811000554808300068091D086053480C30006855
:10812000091D0860504810300068091D08604E485D
:1081300014300068091D08604B48183000684B492E
:108140002031086048481C300068091D0860464816
:1081500020300068091D0860434824300068091D6C
:108160000860414828300068091D08603E482C30EE
:108170000068091D08603C48303000683B494031C8
:108180000860394834300068091D086036483830C6
:108190000068091D086034483C300068091D08600B
:1081A000314840300068091D086004F00BFC40B104
:1081B0002F48006800F0010018B16FF001002C4951
:1081C00008602C48006800F0004030B92948001DC4
:1081D000006800F0004000283ED0012026490860D9
:1081E00000BF264800680028FBD012202149086003
:1081F00000BF224800680028FBD012211D48001D46
:10820000016000BF1D4800680028FBD000201A490B
:10821000086000BF194800680028FBD000BF00BFFD
:1082200000BF00BF00BFBFF34F8F00BF00BF00BF44
:108230001348006800F4E06012490843001D10492B
:10824000086000BF00BF00BFBFF34F8F00BF00BF7B
:1082500000BF00BF00BFFDE7FFF738FF10BD000003
:108260000C010040380500400404001020C5004007
:10827000000400400012001004E5014000E4014049
:108280000CED00E00000FA0510B504220249034895
:1082900004F0FDF810BD00001C49002000800040E3
:1082A00010B504220249034804F0F1F810BD0000A3
:1082B000284900200090004010B5042202490348DC
:1082C00004F0E5F810BD00003449002000A0004093
:1082D00010B506220249034804F0D9F810BD000089
:1082E0004049002000A0014010B5024908688047BD
:1082F00010BD00006C3A002010B50446207830B163
:1083000001282DD0022818D0042847D13BE00120B5
:1083100024490870244800781E280DDA2349244A8D
:108320001278881801F094FC21480078401C2049FC
:10833000087000201C49087031E01E491E4A891A45
:10834000C908032242EA01401CA106F087F800BFD9
:1083500025A240F281116068FEF75CFF00BF1EE0BD
:108360001449154A891AC908032242EA014022A188
:1083700006F074F800BF1CA240F287116068FEF797
:1083800049FF00BF0BE00B490B4A891AC9080322B9
:1083900042EA014020A106F061F800E000BF00BF02
:1083A00010BD0000683B0020703B00207E54002080
:1083B000E43B002028320300A831030040407561EF
:1083C0007274204150505F554152545F434F4D4DA0
:1083D000554E49434154494F4E5F4552524F5220EA
:1083E0006572726F720000002E2E5C2E2E5C2E2E97
:1083F0005C6D61696E2E630075617274204150502E
:108400005F554152545F4649464F5F4552524F5265
:10841000206572726F720000756172742041505055
:108420005F554152545F44415441206572726F72EE
:108430000000000030B58BB01822124905A8FEF7E5
:10844000F3FF00BF104801904FF4807002900F4876
:1084500003904FF48070049007230D4A01A905A8EA
:1084600001F042FC044600BF00BF25463DB100BFFD
:1084700008A240F243212846FEF7CCFE00BF00BF11
:108480000BB030BD6C2403002045002020460020A6
:10849000F98202002E2E5C2E2E5C2E2E5C6D616900
:1084A0006E2E630070B505460E46002404E0285D7C
:1084B00001F088FC601CC4B2B442F8DB70BD00005F
:1084C0000146002006E00023044A02EB8102135417
:1084D000421CD0B20428F6DB70470000E4540020B0
:1084E00070B505460C46FC492046FEF7D4FF50B94E
:1084F000FFF7BEFCF948FEF7C7FF86B23146F748E2
:10850000FFF7D0FFDEE1F6492046FEF7C4FFA0B931
:10851000FFF714FD40B1F348FEF7B6FF86B23146CF
:10852000F048FFF7BFFFCDE1EF48FEF7ADFF86B2A1
:108530003146ED48FFF7B6FFC4E1EC492046FEF7AF
:10854000AAFF50B9FFF7B4FDE448FEF79DFF86B2DD
:108550003146E248FFF7A6FFB4E1E5492046FEF7C1
:108560009AFF50B908F0DAFDDC48FEF78DFF86B2BD
:108570003146DA48FFF796FFA4E1DE492046FEF7D0
:108580008AFFA0B9FFF788FD40B1DB48FEF77CFF0A
:1085900086B23146D848FFF785FF93E1D748FEF70A
:1085A00073FF86B23146D548FFF77CFF8AE10A2285
:1085B000D3492046FEF793FF98B9C848FEF764FFF9
:1085C00086B23146C548FFF76DFF01F053F92046EA
:1085D000FFF77AFBFFF792FA01F0D4F801F02AF9DD
:1085E00070E1C8492046FEF756FF58B9FFF740F939
:1085F00005462846FEF748FF86B231462846FFF773
:1086000051FF5FE10D22C0492046FEF768FF88B99F
:1086100001F030F92046FFF739FA01F0B3F801F024
:1086200009F9AE48FEF730FF86B23146AB48FFF796
:1086300039FF47E1B5492046FEF72DFF58B9FFF74E
:10864000E5F805462846FEF71FFF86B23146284664
:10865000FFF728FF36E10F22AD492046FEF73FFF26
:1086600058B92046FFF7CAF99C48FEF70DFF86B2BD
:1086700031469A48FFF716FF24E1A6492046FEF747
:108680000AFF58B9FFF786F805462846FEF7FCFEB4
:1086900086B231462846FFF705FF13E111229E49B5
:1086A0002046FEF71CFF88B901F0E4F82046FFF7EA
:1086B0005FFA01F067F801F0BDF88848FEF7E4FEC4
:1086C00086B231468548FFF7EDFEFBE09349204630
:1086D000FEF7E1FE58B9FFF709F905462846FEF70F
:1086E000D3FE86B231462846FFF7DCFEEAE08C492D
:1086F0002046FEF7D0FE68B97848FEF7C5FE86B280
:1087000031467648FFF7CEFE0A2004F01BFF01F049
:10871000B1F8D7E083492046FEF7BDFE68B96F483F
:10872000FEF7B2FE86B231466C48FFF7BBFE0A2068
:1087300004F008FF01F07EF8C4E07B492046FEF714
:10874000AAFEA0B9FFF7B4FA40B17848FEF79CFE44
:1087500086B231467548FFF7A5FEB3E07448FEF7D0
:1087600093FE86B231467248FFF79CFEAAE071493B
:108770002046FEF790FE40B95848FEF785FE86B2C7
:1087800031465648FFF78EFE9CE06B492046FEF7C7
:1087900082FE40B95148FEF777FE86B231464F4817
:1087A000FFF780FE8EE065492046FEF774FE40B973
:1087B0004A48FEF769FE86B231464848FFF772FE26
:1087C00080E05F492046FEF766FE40B94348FEF769
:1087D0005BFE86B231464148FFF764FE72E00D222F
:1087E00058492046FEF77BFE88B901F043F8204641
:1087F000FFF7F8F900F0C6FF01F01CF85248FEF749
:1088000043FE86B231465048FFF74CFE5AE04F49CE
:108810002046FEF740FE58B9FFF7A0F80546284667
:10882000FEF732FE86B231462846FFF73BFE49E0AE
:1088300047492046FEF72FFE48BB2848FEF724FE96
:1088400086B231462548FFF72DFE4FF4FA7004F04A
:1088500079FE00BF00BF00BF00BF00BFBFF34F8F56
:1088600000BF00BF00BF3B48006800F4E0603A4929
:108870000843001D3749086000BF00BF00BFBFF3B9
:108880004F8F00BF00BF00BF00BF00BFFDE73349EF
:108890002046FEF700FE20B9042131A0FFF702FEBA
:1088A00010E00C2230492046FEF719FE50B9002096
:1088B000FFF706FE0948FEF7E7FD86B23146074896
:1088C000FFF7F0FD1F212046FEF7C7FD1F212846B8
:1088D000FEF7C3FD70BD0000E53B0020703D0020A9
:1088E000F23B0020753D0020813D0020023C00202D
:1088F0000E3C00201B3C00208D3D00209D3D0020B3
:10890000283C0020343C0020403C00204F3C00200C
:108910005E3C00206F3C0020803C0020933C002007
:10892000A63C0020B13C0020BD3C0020BE3D002004
:10893000CD3D0020C93C0020DC3C0020EF3C002065
:10894000083D0020213D0020AD3D0020303D0020AD
:10895000403D00200CED00E00000FA05563D0020EF
:1089600056312E3000000000623D00202DE9F04716
:1089700080460D46002400260027A878801C00F0C1
:10898000FF09A878C11700EB91718910244A82F879
:108990005410114691F854202249234BC91AC90892
:1089A000032343EA014021A105F062FD2AE01C48AF
:1089B000343010F8240018BB1948343000EB840020
:1089C0004078E8B91648343000EB84008078B8B9B4
:1089D0001348343000EB8400C07888B900260AE0E0
:1089E000F81C295C0E48343000EB84008155781C5B
:1089F000C7B2701CC6B2042EF2DB4F4500D103E0B3
:108A0000601CC4B2082CD2DB00BF14212846FEF73C
:108A100024FD14214046FEF720FDBDE8F08700004C
:108A2000B054002028320300A831030054686520A8
:108A3000756172745F646174612E6C656E677468D1
:108A40002069732025640000F8B500262B480678BD
:108A50002B480078002850D12A48007801284CDDA6
:108A6000132E09D03C2E23D124492748FFF738FD87
:108A70000020244908703FE02449254A891AC90882
:108A8000032242EA014023A105F0E8FC1B491E48ED
:108A9000FFF76CFF00F06CF800F0ECFE00F0AAFDB0
:108AA00000F070FE00F0C6FE00201649087023E0BA
:108AB00000BF144800780090194803886A460F499F
:108AC000184802F061F80446082C0FD0132C0DD082
:108AD000052C0BD000BF25463DB100BF12A240F2CD
:108AE000AF212846FEF796FB00BF00BF132CE0D055
:108AF00000200449087000BF00BFF8BD7E5400206C
:108B0000683B0020E43B00204C5400202832030046
:108B1000A8310300484541445F44415441000000EE
:108B2000343A0020183A00202E2E5C2E2E5C2E2E79
:108B30005C6D61696E2E630010B500200B490863FF
:108B400008460021016041608160C1602021103031
:108B5000FEF783FC202105483430FEF77EFC002020
:108B6000024981F8550081F8540010BDB05400202E
:108B700070B586B000240025002600BF0FE0002558
:108B800009E0174800EB8400405D01A98855701C7E
:108B9000C6B2681CC5B2042DF3DB601CC4B2042C41
:108BA000EDDB002101A8FEF7D5FD04240FE0002530
:108BB00009E00B4800EB8400405D01A98855701C5A
:108BC000C6B2681CC5B2042DF3DB601CC4B2082C0D
:108BD000EDDB012101A8FEF7BDFD06B070BD000070
:108BE000E454002070B504460D46B4F5A07F09D0CA
:108BF000B4F5A27F11D0B4F5A47F7DD0B4F5A67FE3
:108C00007BD18EE1D249D34A891AC908032242EAAC
:108C10000140D1A105F022FC97E1D2480068401C38
:108C2000D0490860FFF744F8002867D0CE480078A4
:108C3000012827D1CC480069401CCB490861C449B0
:108C4000C44A891AC908032242EA0140C7A105F0B3
:108C500005FCC5480069C449096B884212D3BC4968
:108C6000BC4A891AC908032242EA0140C2A105F0A0
:108C7000F5FB0020BC4908700861FFF721FC0120CA
:108C8000B9490872B848407801282AD1B6484069E5
:108C9000401CB5494861AE49AE4A891AC908032249
:108CA00042EA0140B8A105F0D9FBAF484069AE499E
:108CB000096B884215D3A649A64A891AC908032216
:108CC00042EA0140B3A105F0C9FB0020A649487063
:108CD0000021A54841610120FFF7F2FB0121A248D4
:108CE0004172A148807801282ED19F488069401C9C
:108CF0009D498861964902E012E125E10FE1954A1C
:108D0000891AC908032242EA0140A6A105F0A6FB80
:108D1000954880699449096B884215D38C498D4ADE
:108D2000891AC908032242EA0140A1A105F096FB75
:108D300000208D49887000218B4881610220FFF757
:108D4000BFFB0121884881728748C07801282AD159
:108D50008548C069401C8449C8617D497D4A891A9B
:108D6000C908032242EA014095A105F077FB7E483D
:108D7000C0697D49096B884215D37549754A891ABE
:108D8000C908032242EA014090A105F067FB0020D8
:108D90007549C87000217448C1610320FFF790FB3A
:108DA00001217148C1727048007901282AD16E48AA
:108DB000006A401C6C4908626549664A891AC908FC
:108DC000032242EA014085A105F048FB6648006A9B
:108DD0006549096B884215D35D495E4A891AC908FD
:108DE000032242EA014080A105F038FB00205E49E1
:108DF000087100215C4801620420FFF761FB01213A
:108E0000594801735848407901282AD15648406A88
:108E1000401C554948624E494E4A891AC9080322E6
:108E200042EA014074A105F019FB4F48406A4E49DF
:108E3000096B884215D34649464A891AC908032254
:108E400042EA01406FA105F009FB00204649487144
:108E50000021454841620520FFF732FB01214248CD
:108E600041734148807901282AD13F48806A401CDB
:108E70003D4988623649374A891AC908032242EABD
:108E8000014064A105F0EAFA3748806A3649096B67
:108E9000884215D32E492F4A891AC908032242EA6B
:108EA00001405FA105F0DAFA00202F498871002106
:108EB0002D4881620620FFF703FB01212A488173B8
:108EC0002948C07901282AD12748C06A401C264970
:108ED000C8621F491F4A891AC908032242EA014091
:108EE00053A105F0BBFA2048C06A1F49096B8842AC
:108EF00015D31749174A891AC908032242EA0140C3
:108F00004EA105F0ABFA00201749C87100211648A0
:108F1000C1620720FFF7D4FA01211348C17314E09E
:108F200013E04A48007801280DD149480078401CD8
:108F300047490870084600781E2804DD0020434990
:108F400008704349087000E000BF00BF70BD00001A
:108F500028320300A831030074696D657220494E00
:108F6000543000006C3B0020B054002074696D65E3
:108F700020626C6F636B3000436C65616E20426CE5
:108F80006F636B300000000074696D6520626C6F68
:108F9000636B3100436C65616E20426C6F636B31B3
:108FA0000000000074696D6520626C6F636B3200B5
:108FB000436C65616E20426C6F636B320000000091
:108FC00074696D6520626C6F636B3300436C65611F
:108FD0006E20426C6F636B330000000074696D6536
:108FE00020626C6F636B3400436C65616E20426C71
:108FF0006F636B340000000074696D6520626C6FF4
:10900000636B3500436C65616E20426C6F636B353A
:109010000000000074696D6520626C6F636B360040
:10902000436C65616E20426C6F636B36000000001C
:1090300074696D6520626C6F636B3700436C6561AA
:109040006E20426C6F636B3700000000683B0020AD
:10905000703B002030B58BB000243B4B0FCB07ADED
:109060000FC53949103103C9CDE90101374A01A9BA
:10907000374806F083FA044600BF254635B100BFE5
:1090800034A2B4212846FEF7C5F800BF00BF2F4A1E
:1090900001A92F48083006F071FA044600BF2546A2
:1090A00035B100BF2BA2B6212846FEF7B3F800BFAA
:1090B00000BF264A01A92648103006F05FFA044690
:1090C00000BF254635B100BF22A2B8212846FEF7D1
:1090D000A1F800BF00BF1E48089906F0CDFA049021
:1090E0001B480830099906F0C7FA05901848103057
:1090F0000A9906F0C1FA0690012000900223014669
:109100001348049A06F018FA012000900423022163
:109110000F480830059A06F00FFA01200090082346
:1091200003210B481030069A06F006FA084806F0AC
:10913000F1F90748083006F0EDF90548103006F05F
:10914000E9F90BB030BD000090280300E58B020068
:109150007C3B00202E2E5C2E2E5C2E2E5C2E2E5C58
:109160002E2E5C2E2E5C2E2E5C757365725C7573D4
:1091700065725F74696D65722E63000010B5124CE4
:1091800002202061606111A0A0611349E1614FF4E8
:10919000007121620021A1626162E1620BA0A06402
:1091A0000E49E164102121650021A1656165E16539
:1091B0000BA1E01DFEF78AF90AA12046FEF786F909
:1091C0002020A07110BD0000645100205465726D14
:1091D000696E616C00000000DC510020DC5300204F
:1091E00052545400534547474552000010B50146BC
:1091F0000A69CB689A4204D88C68641EE41AA018E5
:1092000001E0D41A601E10BD2DE9F04704468946DE
:1092100017464FF0000AE56800BFD4F81080A84553
:1092200003D9A8EB0500461E04E0A5EB0800401C8E
:10923000A1680E1AA068401BB04201D9304601E077
:10924000A068401B0646BE4201D2304600E03846C8
:1092500006466168481932464946FEF7E5F8B244C9
:10926000B144BF1B3544A068A84200D10025E56089
:10927000002FD2D15046BDE8F0872DE9F0470446D3
:1092800089461546E668A068871BAF4208D9616821
:1092900088192A464946FEF7C7F87019E06010E0C1
:1092A000B8466168881942464946FEF7BDF8A5EB05
:1092B000070809EB070142466068FEF7B5F8C4F8F5
:1092C0000C80BDE8F08700000FB4084B10B504A96E
:1092D00002AA039800F042F8044602A9002000F018
:1092E000E7F8204610BC5DF814FB0000B1940200C2
:1092F00000487047E03D002002E008C8121F08C186
:10930000002AFAD170477047002001E001C1121F06
:10931000002AFBD1704700000146202908DA01200D
:1093200088400A4A104008B1012070470020FCE73D
:10933000402909DAA1F12000012202FA00F008B167
:109340000120F2E70020F0E70120EEE7FC06FFBD78
:1093500000BFEFF31081084672B670472DE9FF4F4A
:1093600089B09B460446002506E025280BD05A46C6
:109370000B999047641C6D1C20780028F5D10DB026
:109380002846BDE8F08F0027B8460122474900E093
:10939000074314F8013F203B02FA03F00842F7D1DB
:1093A00020782E2819D114F8010F47F004072A2835
:1093B0000ED06FF02F022078A0F1300109290CD8CF
:1093C00008EB880102EB410100EB0108641CF2E7A5
:1093D0000A98641C50F8048B0A9020780028CED09C
:1093E000642808D0692806D075281ED05A460B99E3
:1093F00090476D1C58E00A994FF00A0901C90A917B
:10940000002802DA40422D2102E0390504D52B2143
:109410008DF82010012103E0F90704D02021F7E79F
:109420008A4608AE0DE00021FAE70A994FF00A09D2
:1094300001C90A91F7E74946FEF76DF8303106F8A1
:10944000011D0028F7D1ADEB060000F120097807D7
:1094500001D44FF00108C84502DDA8EB090000E087
:1094600000208046002706E008A85A46C05D0B99F8
:1094700090476D1C7F1C5745F6DB04E030205A46B0
:109480000B9990476D1CB8F10001A8F10108F5DCBB
:1094900005E016F8010B5A460B9990476D1CB9F17F
:1094A0000001A9F10109F4DC641C65E70928010049
:1094B0000A68531C0B6010707047014601F00300EE
:1094C00008B9012070470020FCE702465068006898
:1094D000401E084008B9012070470020FCE7024602
:1094E000002104E0505C08B101207047491C0629A6
:1094F000F8D30020F9E710B50346D868884206D8AB
:109500008818401E1C69A04201D8012010BD00200F
:10951000FCE7000010B504466CB10848C068A042E2
:1095200009D806480069A04205D3204603F032F866
:1095300008B1012010BD0020FCE70000E43D002040
:1095400070B504460D4604F22740FFF7C8FF0646F3
:10955000012D06D0022D0DD0032D11D0042D19D1CF
:1095600013E0A07928B194F8240010B90EB10120BD
:1095700070BD00BFE07910B10EB10220F8E700BF66
:10958000207A08B10320F3E700BF607A08B1042015
:10959000EEE700BF0020EBE70146481C052290FBE8
:1095A000F2F302FB1300C0B270472DE9F047044606
:1095B0000D462F4695F82080B4F81C9000260BE04D
:1095C00007EB46124946A06900F00CFE10B10120DD
:1095D000BDE8F087701CC6B24645F1DB0020F7E716
:1095E000014691F82420012A01D1EE2000E01F203D
:1095F0007047000030B5A7B0142104A8FDF72DFF77
:1096000003A8FEF791FB9DF80D00012818D19DF8E5
:109610000C0050B901208DF80C0003A8FEF78EFB5A
:10962000002104A8FEF760F80EE000208DF80C0081
:1096300003A8FEF783FB012104A8FEF755F803E019
:10964000002104A8FEF750F841F2EF30ADF8000019
:1096500004A902911220ADF804003C2118A8FDF7DE
:10966000FCFE3C2109A8FDF7F8FE00208DF8620001
:10967000CDF884D006208DF863000120ADF83400C9
:109680000C490E9102208DF8240009AA18A90A4855
:1096900000F079FE044600BF25463DB100BF07A299
:1096A00040F283212846FDF7B5FD00BF00BF27B07B
:1096B00030BD0000D8390020983F00202E2E5C2EAF
:1096C0002E5C2E2E5C6D61696E2E63002DE9F05FBD
:1096D00006460C4604F1220A94F82C502A2010F871
:1096E00004904FF00008B6F81CB0002710E00AEB19
:1096F00087025946B06900F0DEFD28B108F101008B
:1097000000F0FF0815B905E005B103E0781CC7B209
:109710004F45ECDB00BF0DB1C84503D02DB9B8F102
:10972000000F02DD0120BDE8F09F0020FBE710B52F
:1097300001220221002001F051FB044600BF1CB1B0
:10974000072C01D0204610BD00BF072202210120B6
:1097500001F044FB044600BF1CB1072C01D0204699
:10976000F1E700BF0A220021084601F037FB04465A
:1097700000BF1CB1072C01D02046E4E700BF002049
:10978000E1E7000030B5BDB0002138A8FDF7ACFF1F
:109790004EF61370ADF8D40038A935A881601420B6
:1097A000ADF8D8006846FEF789F8AC210AA8FDF7A5
:1097B00054FE00208DF82A0006208DF82B0009A801
:1097C0000B9035A8139002208DF864000121ADF8AC
:1097D000741011491E9101218DF8A41006992C9145
:1097E00008992D910D4833900AA90D4800F031FEDB
:1097F000044600BF25463DB100BF0AA24FF4F771F1
:109800002846FDF707FD00BF00BF0121044800F016
:109810001DFE3DB030BD0000D8390020A9FC02007B
:10982000983F00202E2E5C2E2E5C2E2E5C6D6169E2
:109830006E2E630070B50321094800F0ACFE0446AB
:1098400000BF25463DB100BF06A24FF4FB7128467C
:10985000FDF7E0FC00BF00BF0120FEF72FFA70BD4E
:10986000983F00202E2E5C2E2E5C2E2E5C6D6169A2
:109870006E2E630070B50A4991F8540074DF0446F7
:1098800000BF25463DB100BF06A240F2FF112846A9
:10989000FDF7C0FC00BF00BF0020FEF70FFA70BD4F
:1098A000983F00202E2E5C2E2E5C2E2E5C6D616962
:1098B0006E2E63002DE9FE4307460E46144672B62F
:1098C00000BF04F0BFFE00BF00BF04F039FC002859
:1098D000FBD100BF00BF012F0CD06FF48050384483
:1098E00098B1B0F5405F2CD06FF440510844002887
:1098F00047D115E03149324A891AC908012242EAA2
:10990000014030A104F0AAFD47E02C492C4A891AF5
:10991000C908012242EA014032A104F09FFD3CE067
:1099200025462649DFF898C0A1EB0C01C9084FF085
:10993000010C4CEA014034A1D5E9003204F0A4FD49
:109940002BE02546A86805F043FC8046D5E90010C9
:109950008DE8430019491A4BC91AC908012343EA83
:10996000014043462FA1AA6804F0B2FD1349144AEE
:10997000891AC908012242EA014034A104F06EFDAF
:109980000BE00E490E4A891AC908012242EA014039
:10999000324633A104F06CFD00BF00BF00BF364863
:1099A000006800F0010000B100BE00BF2246314651
:1099B000384600F063F8BDE8FE830000283203005B
:1099C000A8310300534F46544445564943453A2075
:1099D000415353455254494F4E204641494C45440A
:1099E00000000000534F46544445564943453A2031
:1099F000494E56414C4944204D454D4F5259204106
:109A00004343455353000000415353455254494F7B
:109A10004E204641494C45442061742025733A2527
:109A2000750000004552524F52202575205B25736A
:109A30005D2061742025733A25750D0A504320611D
:109A4000743A20307825303878000000456E642064
:109A50006F66206572726F72207265706F7274002B
:109A6000554E4B4E4F574E204641554C5420617435
:109A70002030782530385800F0ED00E018B501238B
:109A800000939DF800301E4B186059609A606FF487
:109A90008043034463B1012B19D1194BDA60DB68B1
:109AA0001B68174CA3612346DB685B68E3610EE02B
:109AB000134B1A611B699B68114C636123461B6938
:109AC0001B68A36123461B695B68E36100BF00BF9D
:109AD0000B4B1B680A4B5B68094B9B68084BDB68A8
:109AE000074B1B69064B5B69054B9B69044BDB69A4
:109AF00072B600BF9DF80030002BFBD162B618BDD6
:109B00004C49002070B504460D46204601F0BCFFCC
:109B100028B12946204601F0ABFF002070BD05208A
:109B2000FCE7034609B90E20704712B1501E1040E1
:109B300008B10920F8E71960501E9880002098604D
:109B4000D86000BFF0E770B504460D46204601F02E
:109B50009BFFA188884205D82946204601F0A7FF2F
:109B6000002070BD0420FCE710B5024801F054FD50
:109B700010BD0000783A002010B503460C460AB923
:109B8000072010BD19684A61012C01D1012000E0B5
:109B9000002008610020F4E738B513480068009001
:109BA0000823582211491248006802F0A0FF044619
:109BB0000CB1204638BD0F4A69460F4801F032FD0E
:109BC00004460CB12046F5E701210B4801F0D0FD19
:109BD00001230A4A1946084801F0F0FC012008490F
:109BE00008702046E6E70000742503006C49002059
:109BF00064250300330E0300783A0020FFFF7F0046
:109C0000843A00202DE9F04106460D4617463446B9
:109C1000207F10B10020BDE8F081A76102F0F2F9C9
:109C2000401941F10001C4E90201206900B1256138
:109C30002146002007F06AFFEDE770B5044625468F
:109C4000002028772946012007F060FF70BD000042
:109C50002DE9F04104461048077821460F48FFF7E8
:109C600051FF8046A7B100200B49087001220C4922
:109C70000C4803F003FD054600BF2E4636B100BF79
:109C800009A2D6213046FDF7C5FA00BF00BF00BFCC
:109C90004046BDE8F0810000063B00208C4B0020D0
:109CA000053B0020EC3A00202E2E5C2E2E5C2E2E42
:109CB0005C2E2E5C2E2E5C2E2E5C2E2E5C636F6D29
:109CC000706F6E656E74735C6C69627261726965E7
:109CD000735C756172745C6170705F756172745FE2
:109CE0006669666F2E6300002DE9F04188B0044676
:109CF0000E46174698462B4807601EB9072008B045
:109D0000BDE8F081B08882B227483168FFF709FFCB
:109D1000054600BF284600B1F1E700BFB08982B216
:109D20002248B168FFF7FDFE054600BF284600B196
:109D3000E5E700BF20221E496846FDF775FB606914
:109D40000690207C08B1012000E000208DF814006E
:109D50008DF81C80607C08B10E2000E000208DF89A
:109D60001500E0680290A068039020680190606888
:109D70000090104A6946104803F03AFC054600BFBF
:109D8000284600B1BBE700BF00200C4908702068DE
:109D9000401C28B101220A49074803F06FFCAEE7D6
:109DA0000020ACE7003B00208C4B00209C4B0020A7
:109DB000A0270300211C0300EC3A0020063B0020F2
:109DC000053B00202DE9F041054629461448FFF7E0
:109DD000BAFE064606BB134C002720781249085CE1
:109DE00020B1201D05F0DEFE074608E020780E4970
:109DF000085C20B904F10C0005F07CFD074600BFAB
:109E000057B90A490648FFF77DFE28B901220749DC
:109E1000044803F055FC06463046BDE8F0810000DA
:109E20009C4B0020EC3A0020603A0020043B0020CC
:109E300010B50446204607F01FFA10BD70B5044661
:109E400025460E488068B0B1ADB9FFF781FA0646E5
:109E50000A4800680A490860084840684FF0E02155
:109E6000C1F804010020054988601EB900BF62B630
:109E700000BF00BF00BF00BF70BD0000D44900207C
:109E800000E100E0F8B505460C4617462088001DA5
:109E9000B84201D90C20F8BD684679DF064600BFFC
:109EA000304600B1F7E700BF0320218868542088BE
:109EB000401C20801920218868542088401C208064
:109EC00020884119BDF8000008F09CF8218808445A
:109ED00020800020DFE770B505460C462068401C56
:109EE00028B1206804F00CF8206803F0BDFF60681A
:109EF000401C18B10021606803F09CFF2868A1692C
:109F0000C0F8241500BF617D227D286841EA020364
:109F1000C0F86C3500BFD4E90012286805F0B4F928
:109F2000207D012814D1A068401C18B10021A06830
:109F300003F080FFE068401C28B1E06803F0E0FF18
:109F4000E06803F091FFD4E90221286805F084F964
:109F500070BD70B505460C462068401C28B12068CD
:109F600003F0D9FF206803F08BFF6068401C18B134
:109F70000021606803F06BFF2868A169C0F8241510
:109F800000BF617D227D286841EA0203C0F86C357C
:109F900000BFD4E90012286805F0B0F9207D01283F
:109FA00014D1A068401C18B10021A06803F04FFF35
:109FB000E068401C28B1E06803F0ADFFE06803F002
:109FC0005FFFD4E90221286805F079F970BD00002F
:109FD000002114E00C48D0F81024012308E000BF51
:109FE000D0680079884201D1002303E0D06802687C
:109FF000002AF4D100BF0BB108467047491C0A295A
:10A00000E8DB4FF0FF30F8E7444D00202DE9F04148
:10A0100004460F46154615B90E20BDE8F081002014
:10A02000286000BF0CB90E20F7E700BF00BF206812
:10A0300008B90E20F1E700BF00BFE088C11700EBB0
:10A0400091718910A0EB810109B10720E5E700BFFC
:10A05000384600F0A9FBC6B2142E01D10520DCE77A
:10A060002079B04201DC0420D7E7E188206806FBB4
:10A07000010028600020D0E72DE9FC410546884614
:10A080001646002437880020308095F82D0058B1FE
:10A090003A463146404600F09FFB044600BF20464A
:10A0A00008B1BDE8FC8100BFA87850B13A463146FE
:10A0B0004046FFF7E7FE044600BF204600B1F0E748
:10A0C00000BFE87860B1E97848B23B463246414685
:10A0D00001F01FFD044600BF204600B1E1E700BFCC
:10A0E000686868B1696891F900003B4632464146AC
:10A0F00007F07BFD044600BF204600B1D1E700BF5A
:10A10000288900280EDD43460622022105F10800B9
:10A11000CDE9006708F049F8044600BF204600B1C9
:10A12000BFE700BF288A00280EDD4346072203212F
:10A1300005F11000CDE9006708F037F8044600BFCC
:10A14000204600B1ADE700BF288B00280EDD434656
:10A150001522142105F11800CDE9006708F025F853
:10A16000044600BF204600B19BE700BF286A58B1F3
:10A170003B4632464146286A01F08CF8044600BF4F
:10A18000204600B18DE700BF686A58B13B463246B1
:10A190004146686A02F0F6FA044600BF204600B164
:10A1A0007FE700BF95F82C0000280BDD3B463246C8
:10A1B0004146284607F074F9044600BF204600B126
:10A1C0006FE700BF287858B13B46324641462846E3
:10A1D00002F094FB044600BF204600B161E700BFD7
:10A1E00020465EE72DE9F8430646884615460020DE
:10A1F00000900DB9BDE8F88309236A464146304610
:10A2000000F02BF80446BDF800003718BDF8000038
:10A2100068B164B12846FDF737F9A04207D122465C
:10A2200039462846FDF745F908B90120E2E7002044
:10A23000E0E7F8B504460E461546002000902B4690
:10A240006A463146204600F008F807460FB900205C
:10A25000F8BDBDF800002044FAE7F0B504460D460D
:10A260001E4604B10AB90020F0BD002103E0605C85
:10A27000401C084481B2481CA84206DA1088884273
:10A28000F5DC481C205CB042F1D1A94201DB002082
:10A29000EAE7881C87B2605C10B1605C401E00E099
:10A2A000002083B213B1F818A84201DD0020DBE7DB
:10A2B00017801846D8E72DE9F04788B004460E46C7
:10A2C00017460020079010200690B24602AA06A961
:10A2D000384664DF814614B1B9F1000F03D0002085
:10A2E00008B0BDE8F0879DF81800022804D00428C3
:10A2F00009D0102815D10DE003208DF804000220AC
:10A300008DF805000FE005208DF8040004208DF87D
:10A31000050008E007208DF8040006208DF80500F0
:10A3200001E00020DCE700BF002509E001A8435D53
:10A3300007AA31462046FFF790FF8246681CC5B247
:10A34000022D03DABDF81C000028EFD0BDF81C0078
:10A3500008B90020C4E7BDF81C0004EB0008002584
:10A360000DE008EB05009DF8182002A9FDF7A1F803
:10A3700008B90120B4E79DF81800284485B2554576
:10A38000EFDB0020ACE72DE9FF4104460D46164601
:10A3900000BF1CB90E2004B0BDE8F08100BF2078DA
:10A3A00008B90820F7E715B90EB90E20F3E7002029
:10A3B0000090019002900390DDB1D4F82004016870
:10A3C00004F15500814200D001E004F243100090F6
:10A3D0002046FFF705F9ADF8040001AA28460099C8
:10A3E000FFF74AFE074600BF384600B1D3E700BF7B
:10A3F00000BFDEB1D4F82004816804F2312081422C
:10A4000000D001E004F21F3002902046FFF7E8F888
:10A41000ADF80C0003AA30460299FFF72DFE07465F
:10A4200000BF384600B1B6E700BF00BF04F580604A
:10A430009DE88E0010308EC01038C4F82004002231
:10A4400004F15400D4F8201472DFA4E780F830102F
:10A45000704770B504460D4605B10CB90E2070BDAD
:10A4600005F1780000F0AFFE08B90720F7E70020FB
:10A47000A0702C2205F17801201DFCF7D5FF0020EB
:10A4800084F83000D5F8A4006063D5F8A800A06374
:10A490004FF6FF70A4F8240404F58260C4F8200489
:10A4A000002140F22C40C4F82614A4F82A140155C7
:10A4B000207810B9FF2084F8540004F15500C4F846
:10A4C00010042046FFF78CF840F21441085304F2C0
:10A4D000144204F155012846FFF7CEFD064600BFA1
:10A4E000304600B1BBE700BF04F231204FF4836176
:10A4F00008512046FFF774F8A4F81C044FF4836059
:10A50000015904F21C4205F13C00FFF7B5FD064677
:10A5100000BF304600B1A2E700BF01215120015524
:10A52000208B81B248200153012084F83C00002197
:10A530002164502001556169616404F13C020021ED
:10A5400004F1540072DF064600BF304600B186E7D2
:10A5500000BF01202070304681E770B504460D46EB
:10A560002E462088102804D0112807D026280FD185
:10A5700009E02146304605F091FC0AE021463046CC
:10A5800005F051FD05E02146304605F0AEFE00E045
:10A5900000BF00BF70BD70B504460E46207808B9F4
:10A5A000082070BDA670002140F22C40C4F826148B
:10A5B000A4F82A140155A07910B1A078012809D077
:10A5C000E07910B1A078012804D0E07970B1A078CA
:10A5D00002280BD1606B30B1012084F82D040820D3
:10A5E000616B884702E0002084F82D043146204644
:10A5F000FEF7A6FFA070606BA0B1A078032802D080
:10A60000A07804280ED1607960B194F82E0448B97E
:10A61000002084F83004012084F82F040720616BA7
:10A62000884702E0002084F82F04182104F13C0040
:10A63000FCF713FF012084F83C0004F12C0005F026
:10A640004FFF20B194F82C105120015502E0012158
:10A650005120015594F8240060B104F1280005F060
:10A660003FFF20B194F828105220015502E001214B
:10A6700052200155002150200155A078052824D2F0
:10A68000DFE800F01F030A11180004F13C01204626
:10A6900006F0A6FF054619E004F13C01204606F04D
:10A6A00087FF054612E004F13C01204606F0AAFFB0
:10A6B00005460BE004F13C01204606F0D1FF0546BB
:10A6C00004E0002084F8310000E000BF00BFA07863
:10A6D00098B104F13C0204F15400D4F8201472DF64
:10A6E00005460DB128465CE794F8301094F8540004
:10A6F00073DF05460DB1284653E7606B18B194F837
:10A700003100616B884700204BE700002DE9F041E4
:10A71000044600BF14B90E20BDE8F08100BF1C2222
:10A7200021461C48FCF780FE1B481A490860206837
:10A7300060B120687ADF05460DB12846ECE716487F
:10A7400021680A6802604968416005E012487BDFC1
:10A7500005460DB12846DFE7002617E006EB860028
:10A760000E4901EB800700BF4FF6FF70388000BF35
:10A770000B4800EB461078600A4A0021381DFFF7AD
:10A78000FBF905460DB10320C6E7761C002EE5D087
:10A790000020C1E7C4470020503A0020B047002005
:10A7A00090470020ED20030010B50446204600F03D
:10A7B00005F808B1204610BD1420FCE710B504468A
:10A7C000142C01DB002010BD2146024802F0EAF9FA
:10A7D000F9E70000E44700202DE9FC4105460C465E
:10A7E000174620880930B84202D90C20BDE8FC8108
:10A7F00068466DDF064600BF304600B1F6E700BF91
:10A800000820218868542088401C20801B20218833
:10A8100068542088401C208020882844DDF80110DE
:10A820000160BDF8051081802088801D20809DF882
:10A830000000400818B900202188685402E0012077
:10A84000218868542088401C20800020CEE700002A
:10A85000F8B505460F462888212842D006DC102886
:10A860000BD011282BD0132873D14CE03B2872D089
:10A8700052285BD05628F7D17DE00120FDF720FC5F
:10A880004649474A891AC908032242EA014045A1BC
:10A8900003F0E4FDA8884649088008460188454839
:10A8A00002F059FB044600BF264636B100BF42A263
:10A8B000D1213046FCF7AEFC00BF00BF6CE00020A9
:10A8C000FDF7FEFB3549364A891AC908032242EAD8
:10A8D00001403DA103F0C2FD4FF6FF7034490880EE
:10A8E0005AE000200090A88869468FDF044600BF28
:10A8F000264636B100BF30A2E4213046FCF78AFC80
:10A9000000BF00BF48E000231A4685212848008880
:10A910007FDF044600BF264636B100BF26A2EA21EB
:10A920003046FCF777FC00BF00BF35E000231A4635
:10A9300019461F480088B1DF044600BF264636B1DD
:10A9400000BF1DA2F0213046FCF764FC00BF00BF31
:10A9500022E020E0FFE7A888132176DF044600BF4D
:10A96000264636B100BF14A2F7213046FCF752FC50
:10A9700000BF00BF10E0A888132176DF044600BFA7
:10A98000264636B100BF0CA2FE213046FCF742FC41
:10A9900000BF00BF00E000BF00BFF8BD28320300C9
:10A9A000A8310300436F6E6E656374656400000038
:10A9B000343A00208C3F00202E2E5C2E2E5C2E2E52
:10A9C0005C6D61696E2E6300446973636F6E6E65C2
:10A9D000637465640000000070B505460E46288863
:10A9E000102802D011282CD115E01748006860B952
:10A9F00000F0F8FC044600BF34B11448006818B1F8
:10AA0000204612490968884700BF0F480068401C6B
:10AA10000D49086016E00C480068401E0A490860AD
:10AA20000846006860B9FEF782FE044600BF34B1F4
:10AA30000648006818B1204604490968884700BFE5
:10AA400000E000BF00BF70BD4C3A0020483A002033
:10AA500070B504460D462088102806D0112808D06D
:10AA600012280ED0502810D107E0204605F0A4F996
:10AA70000CE0204605F0BEFA08E0204605F066FC32
:10AA800004E0204605F080F900E000BF00BF70BD83
:10AA90002DE9F04104460F46A6882088102806D0EC
:10AAA000112819D019283FD01A284AD118E006F0E9
:10AAB00057F9304605F0E0FF30B900BF22A2F0217F
:10AAC0000420FCF7A7FB06E0E07B022803D1314617
:10AAD0002C4802F076F834E0304606F065F930E0B4
:10AAE000207A0509042D01DB012000E00020024648
:10AAF000314624480C3000F0FDFF032D01DB01201E
:10AB000000E00020024631461E48083000F0F2FF07
:10AB1000022D01DB012000E00020024631461948E9
:10AB2000001D00F0E7FF0CE0207A48B9607AC0F31E
:10AB3000C0052A46314613480C3000F0DBFF00BF49
:10AB400000BF00BFBDE8F0812E2E5C2E2E5C2E2EA5
:10AB50005C2E2E5C2E2E5C2E2E5C2E2E5C636F6D7A
:10AB6000706F6E656E74735C626C655C636F6D6D47
:10AB70006F6E5C626C655F636F6E6E5F7374617441
:10AB8000652E6300EC4700202DE9F04186B00446B5
:10AB9000884617461D4600BF1CB90E2006B0BDE80A
:10ABA000F08100BF01AA29466069FFF72FFA064627
:10ABB00000BF304600B1F1E700BF4FF6FF7085429D
:10ABC00001D0019808B90520E8E70198007808B994
:10ABD0000820E3E73888F42801DD0720DEE70020BD
:10ABE0000290039004900590A088ADF80800CDF87D
:10ABF0001480049701208DF80A0002A92846AEDFD0
:10AC0000CCE7000070B58EB004460E463E4B0FCB2D
:10AC100009AD0FC500BF14B90E200EB070BD00BF46
:10AC200000BF0EB90E20F8E700BF3068A0612146D2
:10AC300009A862DF054600BF284600B1EDE700BF66
:10AC400020788DF836000120ADF83400A21C0DA943
:10AC5000A8DF054600BF284600B1DEE700BF20217F
:10AC600001A8FCF7FAFB0220ADF8040020788DF86B
:10AC70000600F420ADF808000120ADF80A008DF8B8
:10AC800010009DF8110020F0080008308DF8110028
:10AC90009DF8110020F00400001D8DF81100012026
:10ACA0008DF815008DF81600608804F10C0201A9DA
:10ACB00000F066F905460DB12846AEE7202101A84F
:10ACC000FCF7CBFB0320ADF8040020788DF80600DC
:10ACD000F420ADF808000120ADF80A008DF810004E
:10ACE0009DF8110020F0100010308DF811000120A7
:10ACF0008DF815008DF816008DF817006088221D5C
:10AD000001A900F03DF988E7B424030070B50446BA
:10AD10000D4605B104B970BD2E462088102804D018
:10AD2000502807D057280FD109E02146304605F0BA
:10AD30007BF80AE02146304605F034FB05E0214669
:10AD4000304605F029FA00E000BF00BF00BFE2E78F
:10AD500070B50446204607F04FF9054605F001009E
:10AD600070BD000038B504F0E1F8044600BF254688
:10AD70003DB100BF15A24FF489712846FCF74AFA8D
:10AD800000BF00BF002000906946012003F0CAFE0A
:10AD9000044600BF25463DB100BF0CA24FF48C71A4
:10ADA0002846FCF737FA00BF00BF684603F088FF6B
:10ADB000044600BF25463DB100BF04A24FF48E718A
:10ADC0002846FCF727FA00BF00BF38BD2E2E5C2EA8
:10ADD0002E5C2E2E5C6D61696E2E630030B50346CD
:10ADE0000020042B23D2012A07D1012903D103F12A
:10ADF0000E04E4B200E00024224679B1012902D019
:10AE0000022911D104E003EB43040A4D2A550DE059
:10AE100003EB4304074D2C44627007E003EB43044B
:10AE2000044D2C44A27001E0072000BF00E0072081
:10AE300030BD0000604700202DE9FC4704460D4668
:10AE40001646A71C4FF001080020019001A8FEF74C
:10AE5000EFFF3048406828602E4840682D498968D7
:10AE6000411A2D480068401CA0EB010915E00121A2
:10AE70002A4801F0CAFE01F0E5FB82465146274808
:10AE800001F0C3FE2348406822498968411A2248DC
:10AE90000068401CA0EB010900BF4F45E7D8B8F19E
:10AEA000000F30D00021009176B1009921F003010C
:10AEB000491C0091009921F00401091D009100999D
:10AEC00064F3891100910DE0009921F00301891CC0
:10AED0000091009921F00401091D0091009964F38B
:10AEE0009F5100910B4949680B4A12681140094A69
:10AEF0000C3202EB8100009901600649496839442F
:10AF00000C3A516000BF9DF80400FEF797FF4046E1
:10AF1000BDE8FC87444D0020203B0020605100200C
:10AF200070B504460D460A2D03D10D212046FFF7CA
:10AF3000F7FFA168481CA06020684554D4E90110BF
:10AF4000884202D3204602F0F2FB70BD04488068BC
:10AF500003494968884201D1012070470020FCE77D
:10AF6000444D00200146024850F82100704700007F
:10AF7000704800200146014840567047A048002014
:10AF800070B590B006460C461546A07818B9012059
:10AF90008DF80E0002E0A0788DF80E002088ADF844
:10AFA0000C0000200290607C02A906F087FBA07CC8
:10AFB0000DF1090106F082FBE07B08B1012000E001
:10AFC00000209DF80A1060F3C3018DF80A10207C60
:10AFD00008B1012000E000209DF80A1060F3041180
:10AFE0008DF80A10207B08B1012000E000209DF8B8
:10AFF0000A1060F300018DF80A10207D08B10220CC
:10B0000000E001209DF80A1060F342018DF80A105B
:10B010001C2109A8FCF721FA607BC0F3001018B9C5
:10B02000607BC0F34010F8B100200090E07C0DF18F
:10B03000010106F043FB00BF9DF8000020F00F0067
:10B04000401C8DF800009DF8000020F0F00010304A
:10B050008DF8000000BF9DF8020020F00600801C63
:10B060008DF80200CDF838D0607B8DF82400A07BED
:10B070008DF82500142104A8FCF7EFF903A804902B
:10B0800002A80590A088ADF81C00A06820B1E08857
:10B09000ADF81800A0680890A069002849D00020E9
:10B0A0000190A0690088ADF82C00A0694088ADF837
:10B0B0002E00A06940680A9001A80D90A169087B44
:10B0C00001A906F0FBFAA169487B0DF1050106F024
:10B0D000F5FAA069807A08B1012000E000209DF80F
:10B0E000061060F3C3018DF80610A069C07A08B19C
:10B0F000012000E000209DF8061060F304118DF897
:10B100000610A069007A08B1012000E000209DF837
:10B11000061060F300018DF80610A069807B08B16D
:10B12000022000E001209DF8061060F342018DF836
:10B130000610E06908B1E0690C902B4604AA09A941
:10B140003046AADF10B070BD70B505460DB9094C88
:10B1500001E0084C083409E0204601F023FA0646D5
:10B1600006B904E028467168884700BFF4E700BFCD
:10B1700070BD00006448002010B504462CB90120C1
:10B18000064948700020FFF7DFFF012C04D10120A1
:10B1900002498870FFF7D8FF10BD00005C4800200E
:10B1A0002DE9F047024613468C46D3E90245DCE917
:10B1B0000267B6EB040877EB050002D30120BDE877
:10B1C000F0870020FBE701468878012805D191F837
:10B1D0002000012801D1002070470120FCE7024631
:10B1E000002007E0536833F810308B4200D17047DD
:10B1F000431C98B213888342F4DC00BFF7E733B5F1
:10B200008BB00546002000900C9878B100240BE02C
:10B2100021460CA801F0C6FC28B1009A501C0090F1
:10B2200001A820F81240641C142CF1D32C2269468A
:10B230002846FCF7F9F80DB030BD0146088806280D
:10B2400008DB0888B0F5486F06DD08884FF6FF7206
:10B25000904201D0072070474888062808DB4888BC
:10B26000B0F5486F06DD48884FF6FF72904201D076
:10B270000720F0E708884FF6FF72904208D0488810
:10B28000904205D008884A88904201DD0720E2E715
:10B290000020E0E72DE9F04107460D4614469846A8
:10B2A0002088801D404502D90C20BDE8F081384639
:10B2B000FFF7C3FF064600BF304600B1F5E700BF09
:10B2C0000520218868542088401C20801220218875
:10B2D00068542088401C208022885119388806F044
:10B2E00091FE21880844208022885119788806F030
:10B2F00089FE2188084420800020D6E710B5044646
:10B3000000BF03A258212046FBF784FF00BF10BDF9
:10B310002E2E5C2E2E5C2E2E5C6D61696E2E6300CF
:10B3200030B587B01C216846FCF797F800200090E4
:10B330004FF4A03001904FF4F020029003208DF8DC
:10B340000C004FF6FF70ADF80E0001208DF81000D4
:10B3500000200590094806906846FFF7D7F9044693
:10B3600000BF25463DB100BF05A24FF4AE7128468F
:10B37000FBF750FF00BF00BF07B030BDFDB20200B9
:10B380002E2E5C2E2E5C2E2E5C6D61696E2E63005F
:10B39000F8B505460C46607A88B9207A10B910488D
:10B3A000476801E00E4887682A4639466068FEF71C
:10B3B00029FC064616B1304606F012F80EE00020D1
:10B3C00020720748406948B101208DF80000ADF8AF
:10B3D0000250034841696846884700BFF8BD000035
:10B3E000C447002010B5012200210846FFF7F6FCF3
:10B3F000044600BF1CB1072C01D0204610BD00BF81
:10B40000072202210120FFF7E9FC044600BF1CB11E
:10B41000072C01D02046F1E700BF042202210020C2
:10B42000FFF7DCFC044600BF1CB1072C01D020460E
:10B43000E4E700BF0020E1E72DE9FF4105460C46A7
:10B44000002002900390ADF80840ADF80A4000904B
:10B4500001906A4602A9284690DF0646002E32D0A7
:10B46000304603F0B5FE074619491A4A891AC90839
:10B47000012242EA01403B462A46174903F004F8FC
:10B48000BDF8000010B9BDF8020068B1BDF8023087
:10B49000BDF800200E490F4FC91BC908012747EA14
:10B4A00001400EA102F0F0FFBDF8040058B1BDF854
:10B4B00004200749074BC91AC908012343EA014080
:10B4C000164902F0D5FF304604B0BDE8F081000017
:10B4D000A8310300A83103003C290300546865200B
:10B4E0007265717565737465642054582F525820C5
:10B4F0007061636B6574206C656E67746820697336
:10B5000020746F6F206C6F6E672062792025752F15
:10B510002575206F63746574732E000088290300FD
:10B5200070B506460D4616B14FF4064070BD287939
:10B5300020B1012809D0022815D111E0022028717C
:10B54000284605F0F7FA044610E0284600F0B8FA5D
:10B55000044648F20960844201D141F61D5405E0D9
:10B5600041F61D5402E048F20E6400BF00BF2046C1
:10B57000DCE7000010B50021034801F072FB04462F
:10B5800084F3100010BD00006051002070B5054626
:10B590000C464FF4803000FA04F1284600F040FADF
:10B5A00070BD70B505460C464FF4A07000EB8400EA
:10B5B00086B23146284600F04DFA70BD2DE9F047BD
:10B5C00004460D4616461F464FF4803000FA05F833
:10B5D0004FF4A07000EB85001FFA80F926F07F463B
:10B5E0004146206803F088FA4146206803F07EFA5D
:10B5F0004946206803F073FA32462946206803F072
:10B6000065FA4146206803F074FA1FB1414620688C
:10B6100003F075FABDE8F08710B50446206803F022
:10B620005AFA10BD2DE9F04704460D4617466079D9
:10B63000324941F820706079314901EBC00000794E
:10B6400068B108262F49304A891AC908022242EAFD
:10B6500001402EA102F002FF3046BDE8F0872988A4
:10B660002068C0F8081500BF94F90420AB78104694
:10B670001946002808DB4FEA417C4FEA1C68DFF8D6
:10B68000B0C00CF800800BE04FEA417C4FEA1C6927
:10B69000DFF8A0C000F00F08A8F104080CF808902B
:10B6A00000BF00BF94F90410084600280DDB00BF5E
:10B6B00000BF00F01F0301229A4043099B0003F1E1
:10B6C000E023C3F8002100BF00BF00BF00BF01207E
:10B6D00061790B4A02EBC10108716079114641F8AA
:10B6E000304000260749084A891AC908032242EA5D
:10B6F000014011A102F0B2FE3046AEE79C3A0020B4
:10B70000A03A002008320300A8310300525443201D
:10B71000696E7374616E636520616C7265616479D2
:10B7200020696E697469616C697A65642E00000035
:10B7300000E400E018ED00E05254433A20696E69DD
:10B740007469616C697A65642E00000010B5014669
:10B7500091F90400002807DB00F01F0301229A4042
:10B76000024B440943F8242000BF10BD00E200E072
:10B7700070B505460C4622460221284600F05CF9C9
:10B7800070BD10B504464FF48271204600F062F996
:10B7900010BD10B504460021206803F0B3F910BDB8
:10B7A00010B504460421206803F0ACF910BD2DE962
:10B7B000F84F04468846154699464FF4803000FA03
:10B7C00008FA4FF4A07000EB88001FFA80FB25F008
:10B7D0007F455146204600F023F9206803F07BF9AD
:10B7E00006464146206803F06BF900903246414618
:10B7F000206803F06BF95946206803F070F9314670
:10B80000009806F0E3F8012806D1102003F0B8FDF7
:10B810005946206803F063F9206803F05CF9064696
:10B820003146284606F0D2F807465146206803F014
:10B8300060F9012F0FD16A1C4146206803F046F9D8
:10B84000102003F09DFD206803F045F9B04225D09B
:10B850000D20BDE8F88F2A464146206803F036F9EE
:10B86000206803F038F90646681E314606F0AEF847
:10B8700007466FF07F40A0EB0900B84201D20D20CF
:10B88000E7E75FB96A1C4146206803F01FF92068AA
:10B8900003F021F9B04201D00D20DAE70122514630
:10B8A000204600F0C9F80020D3E700002DE9F84356
:10B8B00005460E461746984669461048006801F04E
:10B8C0002AF9044614B90420BDE8F8831C21204657
:10B8D000FBF7C3FD012020712560C4F808800848EB
:10B8E0000068B6FBF0F0E0606761694603480068F5
:10B8F00001F03BF905F08CF80020E5E71C26030079
:10B900001026030010B50446D4E90321501828DF9F
:10B9100010BD0278072A38D2DFE802F03704071298
:10B92000222B340000220A7030E001220A700389C1
:10B930008B818388CB81C2688A6000230B7425E0E9
:10B9400002220A7003898B818388CB81C2688A6056
:10B95000827D062A01D1012300E000230B7415E04B
:10B9600003220A70C3888B810389CB81C2688A60F5
:10B970000CE004220A70C3888B810023CB81002253
:10B980008A6003E005220A7000E000BF00BF704734
:10B9900070B50546002409E0064850F8240020B19F
:10B9A000044850F8241028468847641C042CF3D31C
:10B9B00070BD0000E049002030B587B004460D4658
:10B9C0002068806808B907B030BD182101A8FBF7CE
:10B9D00044FD0295A0680690207910B1012815D188
:10B9E00009E001208DF8040020690390E0680490CC
:10B9F000606905900BE002208DF804000749E068BB
:10BA00000968484303906069059000E000BF00BFEB
:10BA10002068816801A8884700BFD4E7102603008A
:10BA200070B504460D462946206803F05FF82946A4
:10BA3000206803F061F870BD70B504460E461546E7
:10BA40003146206803F055F81DB13146206803F0F7
:10BA500056F870BD70B505460C462868015929B1E5
:10BA60002146286803F03BF8012070BD0020FCE768
:10BA700070B504460D462A460021204600F00EF817
:10BA8000A068401CA06070BD01468A68C868801A22
:10BA9000704701468A68C868801A704710B5836885
:10BAA0000B44848823400468E35C137010BDC268B3
:10BAB00083881A4003689954C268521CC260704758
:10BAC0003EB504460A4B6A460021A01D04F0E8FF7B
:10BAD000054635B9064A9188019805F0C3F8054630
:10BAE00003E0034800210160416028463EBD00009C
:10BAF000C43A002070B505460E46144624B13146BE
:10BB0000284601F05EF803E03146284601F03BF894
:10BB100070BD30B504461088C01C984201D90C2075
:10BB200030BD0220158848551088401C1080012027
:10BB3000158848551088401C108015884C55108871
:10BB4000401C10800020EBE770B504460D4640F223
:10BB50001442115B0122D4F81004FEF76AFB06467A
:10BB600006B1357004F13C0204F5826104F1540021
:10BB700072DF70BD10B50446606804F09FFE10BD12
:10BB800030B58DB06846FBF799FE00BF9DF82800E0
:10BB900020F00F00401C0A909DF8280020F0F000D3
:10BBA00010300A9000BF6846FBF76EFC85B22A464B
:10BBB00069460AA87CDF044600BF25463DB100BFA8
:10BBC00015A24FF499712846FBF724FB00BF00BF74
:10BBD00000200B900C901448008EADF82C001248F9
:10BBE000408EADF82E001048808EADF830000E4823
:10BBF000C08EADF832000BA87ADF044600BF2546A0
:10BC00003DB100BF04A24FF49E712846FBF702FB32
:10BC100000BF00BF0DB030BD2E2E5C2E2E5C2E2E30
:10BC20005C6D61696E2E6300CC43002070B500210D
:10BC3000084801F0AFF8044600BF25463DB100BFFB
:10BC400005A240F245112846FBF7E4FA00BF00BF09
:10BC500070BD0000703F00202E2E5C2E2E5C2E2E1C
:10BC60005C6D61696E2E630070B506460C4604F18A
:10BC70001005E888022801DD092070BDE9883046FA
:10BC800002F05EFD6060606808B90420F5E7EA88AC
:10BC9000A9680023606802F0DEFD0020EDE770B5C2
:10BCA00006460C4604F11005A8680088102801DD3E
:10BCB000092070BDA8680088811C304602F040FD54
:10BCC0006060606808B90420F3E7A96800230222D5
:10BCD000606802F0C0FDAB681A88E96802236068FA
:10BCE00002F0B9FD0020E4E770B5054615B14FF448
:10BCF000064070BD1848007B18B100201649087333
:10BD000001E000F0DFF81448007808281DD2DFE8D1
:10BD100000F01C04080C101C141800F03FF8044636
:10BD200016E000F0BDF8044612E000F099F8044671
:10BD30000EE000F047F804460AE000F035F904464A
:10BD400006E000F043F9044602E048F20E6400BF4A
:10BD500000BF2046CDE70000B44A00200D4800890E
:10BD6000401C0C49088100204880087300BF0DE08A
:10BD700000EB8001084A12F8211009B9012200E005
:10BD8000002204490A310A54411C88B20228EFDB20
:10BD900070470000B44A00208C4A002010B50848C3
:10BDA00000F036F840B900200549891E0870488027
:10BDB000486041F61D5010BD00F072F8FBE700002E
:10BDC000B64A002070B50F48458805EB85000E493E
:10BDD00001EB8000C06878B904200A49087005EBBF
:10BDE0008500094A02EB80000023012241680748D0
:10BDF00001F0A4FD044602E000F090F8044620465D
:10BE000070BD0000B44A00208C4A0020E43D0020B0
:10BE100010B501460022002018E00F4B1B5C9BB1BF
:10BE200000240D4B1C5400EB80030C4C04EB8303EB
:10BE3000DB684BB900EB800304EB83031B7C012B15
:10BE400002D10880012203E0431C98B20228E4DBFF
:10BE500000BF104610BD0000BE4A00208C4A0020E2
:10BE6000F8B50C4844680C4800680B49898800EB19
:10BE700081056088C01C86B2032006490870002036
:10BE8000B3000090084629464268044801F078FE55
:10BE9000F8BD0000B44A0020BC3A0020E43D002078
:10BEA00010B507494888091D04F0A0FE18B1FFF736
:10BEB000D7FF044602E0FFF785FF0446204610BD89
:10BEC000B44A002010B514480078082820D2DFE8D2
:10BED00000F0041F1F0A1016171BFFF73FFF012079
:10BEE0000D49087015E000F07DF802200A4908703D
:10BEF0000FE000F029F806200749087009E000BFAC
:10BF000007200549087004E001200349087000E09B
:10BF100000BF00BF10BD0000B44A002010B50520CE
:10BF2000064908700220064988800846002301223D
:10BF30000168044801F002FD10BD0000B44A002071
:10BF4000BC3A0020E43D002014490868144949889F
:10BF500001EB8101134A02EB810149680F4A11602C
:10BF60000F49498801EB81010E4A02EB81014860CB
:10BF70000A4989880A4A528802EB8202094B03EB7C
:10BF8000820211810221054A91800021044A5288CF
:10BF900002EB820203EB820211747047BC3A00206C
:10BFA000B44A00208C4A002010B5062005490870CC
:10BFB000498801EB8101044A02EB8101486804F0E1
:10BFC0006DFA10BDB44A00208C4A002010B507203D
:10BFD000034908700020486004F070FA10BD0000AA
:10BFE000B44A0020054A50684288D21C91B2044AE3
:10BFF00092880A44024B9A8070470000B44A00209D
:10C00000BC3A002070B50B48FFF706FB0A4B0CCB7F
:10C01000841843F10005094903C9201A75EB010092
:10C0200004D24FF08073E41845F1000520462946FC
:10C0300070BD0000783A0020883A0020903A002035
:10C0400070B504460D46204600F01DF8A84201D9FF
:10C05000022070BDA0884FF6FF71884204D020886E
:10C0600010B1A068401C08B90120F2E70020F0E7F9
:10C07000024613468B4204D21868401C08B10120C6
:10C0800070470020FCE701464A8801F10C0000EBF4
:10C090008200704710B502F053F808B902F00CFCAA
:10C0A00010BD000070B504460D460948606009489F
:10C0B00000F0A4FD50B902F093FF064908741C2358
:10C0C0008C2205490548006800F011FD002070BD74
:10C0D000102603006C4B0020D04A00201C260300D1
:10C0E0002DE9F04106460C4648F20E6736B10020B5
:10C0F000434948604FF40640BDE8F081207930B1F3
:10C1000001280AD0022835D003286DD140E0012053
:10C11000207104F0D3F9074667E04FF000080025CE
:10C1200019E005EB8500374911F82000022810D1ED
:10C13000002005EB8501334A02F821004FF0010889
:10C1400005EB850102EB8101486804F0A7F9074679
:10C1500003E0681C85B2022DE3DB00BFB8F1000FDD
:10C1600007D10120264908700020486041F61D5083
:10C17000C2E73AE000202071022023498880084667
:10C18000002301220168214801F0D8FB07462CE07A
:10C19000002020711C49086804F080F907461C48FB
:10C1A00045881948D0F8008005EB8500154901EB5A
:10C1B000800040681449086005EB8500114901EBD7
:10C1C0008000C0F804801048808805EB85010D4A86
:10C1D00002EB8101088102200B498880002005EBD9
:10C1E000850102F8210000E000BF00BF2FB1002050
:10C1F0000349486048F20D607EE700207CE70000BC
:10C20000A83A00208C4A0020BC3A0020E43D0020DF
:10C21000B44A0020024600210CE001EB8100074BEC
:10C2200033F82000904204D101EB810003EB800041
:10C230007047491C0029F0D00020F9E7B0470020E2
:10C240002DE9FC5F83460E4691461F46DDE90C450D
:10C25000002E01DA704200E0304682464FF00108BD
:10C2600003E09AFBF9FA08F10108CA45F9DA4745F3
:10C2700000D9B84634B1002E03DB05F004000428D1
:10C2800000D1641E05F0020000B167B105F00100A5
:10C2900048B944B104E0641E20215846FEF740FE30
:10C2A0000CB1A045F7D3002E05DA76422D21584671
:10C2B000FEF736FE07E005F00400042803D12B2129
:10C2C0005846FEF72DFE05F0020002280DD105F0BC
:10C2D000010050B94FB944B104E0641E3021584602
:10C2E000FEF71EFE0CB1A045F7D33B464A46314649
:10C2F0005846CDE9004505F09DFEBDE8FC9F0000D5
:10C300002DE9F04104460E464FF48E71206802F08C
:10C310009CFF4FF4A271206802F097FF1A49206831
:10C3200002F0A3FF206803F03BF805463746284695
:10C330003946002804DB4A07130E144A135408E058
:10C340004A074FEA126C124A00F00F031B1F02F853
:10C3500003C000BF00BF206803F022F8054628464E
:10C3600000280DDB00BF00BF00F01F02012191403B
:10C370004209920002F1E022C2F8001100BF00BFA2
:10C3800000BF00BFBDE8F0818000020000E400E0D3
:10C3900018ED00E02DE9F04104460E464FF4887197
:10C3A000206802F085FF4FF49071206802F080FF52
:10C3B0004FF49271206802F07BFF4FF4A271206865
:10C3C00002F076FF4FF4AC71206802F071FF1B4958
:10C3D000206802F07DFF206802F0E6FF0546374640
:10C3E00028463946002804DB4A07130E144A135422
:10C3F00008E04A074FEA126C124A00F00F031B1FB5
:10C4000002F803C000BF00BF206802F0CDFF054660
:10C41000284600280DDB00BF00BF00F01F020121ED
:10C4200091404209920002F1E022C2F8001100BFDF
:10C4300000BF00BF00BFBDE8F08100001003420054
:10C4400000E400E018ED00E030B50246002013786B
:10C45000C3F38003D3B1137803F00303012B02D09D
:10C46000022B10D107E01388C3F383139B1C0C68C5
:10C4700023440B6008E00B680225146805EB945414
:10C4800023440B6000E000BF00BF012030BD2DE958
:10C49000F04704460E469046002722E0384602F058
:10C4A000A5FE0546384602F0A8FE814620462946EC
:10C4B00042580AB1012200E0002282B14846D4F875
:10C4C0000413014009B1012100E0002139B12946DE
:10C4D000204602F097FE2846D6E900219047781CB6
:10C4E000C7B24745DADBBDE8F087000001460348E4
:10C4F000007A08B1012070470020FCE76C4B002057
:10C500002DE9F0410446A08800EB020CB4F8048049
:10C51000904501DD104600E0A088A8EB0005E0880A
:10C52000C618B4F80680984501DD184600E0E0889A
:10C53000A8EB00074888B4F80080404504DB488831
:10C54000B4F80280404502DD0020BDE8F081888813
:10C55000A84202D38888604501D90020F5E7C88841
:10C56000B84202D3C888B04201D90020EDE70120CB
:10C57000EBE7014691F83A00C0F3C100012805D06D
:10C5800091F83A00C0F3C100032801D1012070479F
:10C590000020FCE7014601F0030008B901207047C4
:10C5A0000020FCE70146086808B102680A6070478D
:10C5B00010B5044622460121002001F087FC00212D
:10C5C00005E054F8210008B1012010BD491C0029E4
:10C5D000F7D00020F9E7000010B502F097FE20B96F
:10C5E00002F0BCFE00200149887010BD5C480020AC
:10C5F000F721018017214180002101714171FB2148
:10C6000081711B21C171704770B54FF480410020CA
:10C6100001F0D8FF044600BF25463DB100BF05A28A
:10C6200040F207212846FAF7F5FD00BF00BF01F0F0
:10C6300073FD70BD2E2E5C2E2E5C2E2E5C6D6169FE
:10C640006E2E63002DE9FF4100272E4800F0CFFA3F
:10C650002C48001F00F0CBFA2B48806803902B4831
:10C6600005680398284028490C3101EB800800BF79
:10C6700003A94046FFF7E8FE30B10398284022495D
:10C680000C3101EB800800E000E0F1E700BF00247E
:10C690000AE00398411C284003911B490C3151F8D2
:10C6A00020004DF82400641C022CF2D3009800F006
:10C6B000030001280DD0022814D1BDF80670042112
:10C6C000009801EB9050401E039901EB90000390FD
:10C6D00009E0BDF806700098C0F383100399084480
:10C6E000039000E000BF00BF0648001F00F078FA8A
:10C6F000064616B1044903988860384604B0BDE880
:10C70000F08100005C510020444D0020203B0020BF
:10C71000FFF77AFFFBF708F805F094F9FCF79AFCAD
:10C72000FBF788FEFBF730FB03F07CFFFEF71AFBFC
:10C73000FAF7FAFFFCF700FAFBF748F904F09EFC61
:10C74000FFF71EFAFFF772FAFEF7EAFD04F0F4FEB7
:10C75000FDF718F8FDF76EF804F0E0FC0DE0FCF7CB
:10C7600073F9FBF7F3FAFFF795FC044800680449F6
:10C77000884202D9002001490860F0E76C3B0020A4
:10C7800040420F002DE9F04105460E4614469846FA
:10C79000A888871C2088801C3844404502D90C207A
:10C7A000BDE8F081FE2F01D90C20F9E7781C218823
:10C7B00070542088401C2080FF20218870542088DD
:10C7C000401C208022889119288805F01BFC2188B4
:10C7D00008442080A88800280DDDA86808B9072033
:10C7E000DEE7AA8823889819A968FAF71DFE208831
:10C7F000A988084420800020D2E72DE9FF4F87B0A8
:10C80000044691461E46A2462546BAF806009AF806
:10C8100005104843001F0690BAF806B0301DB0FB63
:10C82000FBF00590301DB0FBFBF10BFB11000490F9
:10C83000D9F8000081190698814202D90698801B18
:10C8400001E0D9F800000746C9F8007003E02D6840
:10C850000598401E059005980028F8D1039004988B
:10C86000ABEB0008B84501D9384600E040468046A9
:10C8700023E00399089808440290281D049908446D
:10C880000190149828B14246DDE90110FAF7CCFD79
:10C8900004E04246DDE90101FAF7C6FD00200490FC
:10C8A0002D68A7EB0807039840440390BB4501D9C6
:10C8B000384600E05846804600BF002FD9D10BB063
:10C8C000BDE8F08F70B503460C469CB101F09EFEAA
:10C8D000054600220AE0084800EB820108881E682D
:10C8E000B04202D11A60002070BD521CAA42F2D39D
:10C8F0000520F9E70020F7E7000000002DE9F84FD8
:10C9000005460F46144698462878012804D16878D1
:10C9100010B90720BDE8F88F2088801C404508D852
:10C920002878012807D12088801C69780844404570
:10C9300001D90C20EEE72088A8EB0000801E86B20B
:10C9400000962188891CC81969467DDF814600BF91
:10C95000484600B1DEE700BF2878022804D0687896
:10C96000BDF80010884206DBBDF80000B04202DCD2
:10C970004FF0090A0BE04FF0080A2878012805D18A
:10C980006878B04202DC6878009000E00096BDF85C
:10C990000000FE2801D90C20BCE7BDF80000401CB7
:10C9A000218878542088401C2080208807F800A027
:10C9B0002088401C20802088BDF80010084420807A
:10C9C0000020A7E7154802684FF08050D0F83411D6
:10C9D000082A11D131B1012906D0022906D0032934
:10C9E00008D105E0012070470120FCE70120FAE7AB
:10C9F0000120F8E70120F6E7102A0DD121B1012925
:10CA000004D0022906D103E00120ECE70120EAE787
:10CA10000120E8E70120E6E70020E4E7300100100C
:10CA2000154802684FF08050D0F83411082A11D10F
:10CA300031B1012906D0022906D0032908D105E029
:10CA4000012070470120FCE70120FAE70120F8E708
:10CA50000120F6E7102A0DD121B1012904D00229C5
:10CA600006D103E00120ECE70120EAE70120E8E736
:10CA70000120E6E70020E4E73001001015480268D5
:10CA80004FF08050D0F83411082A11D131B101296A
:10CA900006D0022906D0032908D105E001207047FD
:10CAA0000120FCE70120FAE70120F8E70120F6E782
:10CAB000102A0DD121B1012904D0022906D103E0A9
:10CAC0000120ECE70120EAE70120E8E70120E6E7A2
:10CAD0000020E4E73001001070B504462046FAF764
