:020000040002F8
:10700000E8740020DD730200E5730200E7730200FC
:10701000E9730200EB730200ED7302000000000050
:10702000000000000000000000000000EF730200FC
:10703000F173020000000000F3730200F573020018
:10704000A18C0200F7730200E1980200F7730200BE
:10705000F773020000000000E58B02000000000052
:107060008198020099980200B1980200F77302001B
:10707000F7730200F7730200F7730200F773020060
:1070800069A2020019960200F7730200F77302006A
:10709000F7730200F7730200BD960200F773020057
:1070A000F7730200F7730200C998020000000000A5
:1070B00000000000000000000000000000000000D0
:1070C00000000000000000000000000000000000C0
:1070D000000000000000000000000000F773020044
:1070E00000000000000000000000000000000000A0
:1070F0000000000000000000000000000000000090
:10710000000000000000000000000000000000007F
:10711000000000000000000000000000000000006F
:10712000000000000000000000000000000000005F
:10713000000000000000000000000000000000004F
:10714000000000000000000000000000000000003F
:10715000000000000000000000000000000000002F
:10716000000000000000000000000000000000001F
:10717000000000000000000000000000000000000F
:1071800000000000000000000000000000000000FF
:1071900000000000000000000000000000000000EF
:1071A00000000000000000000000000000000000DF
:1071B00000000000000000000000000000000000CF
:1071C00000000000000000000000000000000000BF
:1071D00000000000000000000000000000000000AF
:1071E000000000000000000000000000000000009F
:1071F000000000000000000000000000000000008F
:10720000DFF80CD000F016FA004800472DD202003B
:10721000E874002000B583B002900091019244F21E
:10722000010071466A4603F0F5FA03B000BD0000A4
:1072300030B450E8012F93B2C48923448489A34217
:1072400028BF1B1B0489A34202BFBFF32F8F00205E
:1072500007E0C3EA020340E80134002CE9D14FF013
:1072600001000A6030BC704750E8012FC2EA0242B8
:1072700040E801210029F7D1704730B450E8022FCF
:107280001FFAA2F3C488A34202BFBFF32F8F0020CE
:107290000DE0C48923448489A34228BF1B1BC2EA92
:1072A000034340E80234002CE8D14FF001000A60AB
:1072B00030BC704750E8022FC2EA224240E8022167
:1072C0000029F7D17047034653E8022FD988B2EB63
:1072D000324F4FF0000017BF92B241EA014142EA3B
:1072E000014104E05A68B2EB324F08BF012043E885
:1072F0000212002AE8D1704730B4044654E8000F67
:107300000D4644E80053002BF8D1156030BC70479F
:1073100030B4044654E8000F40EA010544E8005345
:10732000002BF7D1156030BC704730B4044654E8E8
:10733000000F00EA010544E80053002BF7D1156067
:1073400030BC704730B4044654E8000F80EA0105B1
:1073500044E80053002BF7D1156030BC704730B4BF
:10736000044654E8000F00EB010544E80053002BED
:10737000F7D1156030BC704730B4044654E8000FB4
:10738000A0EB010544E80053002BF7D1156030BC99
:10739000704770B404464FF0000054E8006F0D6869
:1073A000AE4207BF44E80023012044E800630E60BA
:1073B000002B1CBF0020F0E770BC704730B40446BF
:1073C00054E8000F88422CBF451A054644E8005394
:1073D000002BF5D1156030BC70470000064880478F
:1073E00006480047FEE7FEE7FEE7FEE7FEE7FEE7AA
:1073F000FEE7FEE7FEE7FEE7D59602000172020017
:107400002DE9F05F0546002092469B4688460646D9
:10741000814640241BE0284641464746224600F06C
:107420002FF853465A46C01A914110D311461846B8
:10743000224600F016F82D1A67EB01084F46224647
:107440000120002100F00DF817EB00094E41201E2D
:10745000A4F10104DFDC484631462A464346BDE834
:10746000F09F202A04DB203A00FA02F10020704746
:107470009140C2F1200320FA03F319439040704772
:10748000202A04DB203A21FA02F00021704721FA79
:1074900002F3D040C2F120029140084319467047E0
:1074A000004870475832030040EA01039B0703D0AD
:1074B00009E008C9121F08C0042AFAD203E011F833
:1074C000013B00F8013B521EF9D27047D2B201E0F5
:1074D00000F8012B491EFBD270470022F6E710B5D9
:1074E00013460A4604461946FFF7F0FF204610BD32
:1074F000421E12F8013F002BFBD111F8013B02F8AC
:10750000013B002BF9D17047421C10F8011B0029E8
:10751000FBD1801A704710B5002200E0521C835C3A
:107520008C5CA34201D1002BF8D1D8B2E1B2401A51
:1075300010BD30B504460020034600E05B1C9342BA
:1075400003D2E05CCD5C401BF8D030BD034611F89F
:10755000012B00F8012B002AF9D11846704730B5ED
:1075600005460020034600E05B1C934205D2EC5C1C
:10757000C85C201A01D1002CF6D130BD70B506468A
:1075800002F06CFF046805460A220021304600F034
:1075900018F82C6070BD30B50B4601460020202243
:1075A000012409E021FA02F59D4205D303FA02F510
:1075B000491B04FA02F52844151EA2F10102F1DC70
:1075C00030BD2DE9F04791460F468046044600261F
:1075D00014F8015B2DB1FFF763FF0068405DC00741
:1075E000F6D12B2D02D02D2D18D0641E4A463946D7
:1075F000204600F031F827B13968A14201D1C7F81F
:10760000008071054FF002040BD54042002803DDD5
:1076100002F024FF0460A007BDE8F08746F480660E
:10762000E4E70028F8DA02F019FF04606FF0004088
:10763000F2E70000064C074D06E0E06840F0010369
:1076400094E8070098471034AC42F6D3FFF7DCFD0E
:107650009C3A0300BC3A03002DE9F05F82460078B3
:10766000002715468B460AF10104B946302801D09F
:107670009DB113E014F8010B0127782803D0582896
:1076800001D045B10AE00DB1102D07D1002710251A
:1076900014F8010B02E0082500E00A250026B04698
:1076A0000EE005FB080005FB06F1012701EB104683
:1076B0001FFA80F8B6F5803F00D3B94614F8010BE5
:1076C000294600F018F80028EBDABBF1000F05D0CE
:1076D0000FB1641E00E05446CBF80040B9F1000F32
:1076E00006D002F0BBFE02210160C81EBDE8F09F7B
:1076F00048EA0640FAE73A2800D2303820F0200263
:10770000412A01D3A2F13700884201D34FF0FF3064
:10771000704770B58C1810F8015B15F0070301D1A4
:1077200010F8013B2A1106D110F8012B03E010F8E4
:10773000016B01F8016B5B1EF9D12B0705D4002307
:10774000521E0DD401F8013BFAE710F8013BCB1AA9
:10775000921C03E013F8015B01F8015B521EF9D59E
:10776000A142D8D3002070BDF8B50446684601F0A8
:1077700013FE14B1032C11D111E00321094803F0C9
:10778000BAFE054600BF2E4636B100BF06A25F21F5
:107790003046FFF73FFD00BF00BF00E000BF00BF65
:1077A000F8BD0000444C00202E2E5C2E2E5C2E2EA8
:1077B0005C2E2E5C2E2E5C2E2E5C2E2E5C75736540
:1077C000725C757365725F626C652E630000000009
:1077D000F0B5BDB0044665784FF6FF7000EA0525A8
:1077E000207805432749284A891AC908032242EA12
:1077F00001402A4625A107F0E1FB1222A11C38A86E
:10780000FFF752FEADF8D45038A935A88160122098
:10781000ADF8D800684601F07DFBAC210AA8FFF75F
:107820005CFE00208DF82A0006208DF82B0009A8A8
:107830000B9035A8139002208DF864000121ADF85B
:10784000741016491E9101218DF8A41006992C91EF
:1078500000212D91124833900AA9124803F0A9FD86
:10786000064600BF374637B100BF0FA24921384650
:10787000FFF7D0FC00BF00BF01210A4803F096FDCE
:107880003DB0F0BD543B0300CC3A030069642D2D9C
:107890002D2D2D206973203078257800683B00203D
:1078A00069770200444C00202E2E5C2E2E5C2E2E7A
:1078B0005C2E2E5C2E2E5C2E2E5C2E2E5C7573653F
:1078C000725C757365725F626C652E630000000008
:1078D00070B503210A4803F00EFE04460CB102F015
:1078E0009DFD00BF254635B100BF06A26E2128468A
:1078F000FFF790FC00BF00BF012001F017FD70BD35
:10790000444C00202E2E5C2E2E5C2E2E5C2E2E5CE7
:107910002E2E5C2E2E5C2E2E5C757365725C75733C
:1079200065725F626C652E630000000070B50B49E4
:1079300091F8540074DF04460CB102F06FFD00BFF3
:10794000254635B100BF06A27C212846FFF762FC20
:1079500000BF00BF002001F0E9FC70BD444C0020D6
:107960002E2E5C2E2E5C2E2E5C2E2E5C2E2E5C2E51
:107970002E5C2E2E5C757365725C757365725F622A
:107980006C652E6300000000F0B5B1B00446657868
:107990004FF6FF7000EA0525207805431222A11C4E
:1079A0000EA8FFF781FD04A801F0B4FAADF8045069
:1079B0000EA903911220ADF808003C2122A8FFF780
:1079C0008CFD3C2113A8FFF788FD00208DF88A006C
:1079D0000DA8239001A82B9006208DF88B00012084
:1079E000ADF85C000C49189102208DF84C0013AAE8
:1079F00022A90A4803F077FC064600BF37463FB18C
:107A000000BF07A240F293113846FFF703FC00BF06
:107A100000BF31B0F0BD0000683B0020444C0020A6
:107A20002E2E5C2E2E5C2E2E5C2E2E5C2E2E5C2E90
:107A30002E5C2E2E5C757365725C757365725F6269
:107A40006C652E630000000013210248008876DF79
:107A500070470000583B0020F8B505460F462888BF
:107A6000212851D006DC10280BD0112833D0132840
:107A700071D15CE03B286FD052286FD05628F7D1E7
:107A800091E0012001F06EFD00F037FE00F006FBF2
:107A9000002001F04BFC4E494E4A891AC9080322C6
:107AA00042EA01404CA107F07FFAA8884D490880BE
:107AB000084601884C4805F0F4FF044600BF2646FE
:107AC0003EB100BF49A24FF4F5713046FFF7A2FB6B
:107AD00000BF00BF79E0002001F044FD00F0E6FDAA
:107AE000012001F023FC00F0AFFA3949394A891A24
:107AF000C908032242EA014046A107F055FA4FF6B1
:107B0000FF703849088060E000200090A88869462E
:107B10008FDF044600BF26463EB100BF33A240F2CD
:107B2000FF113046FFF776FB00BF00BF4DE000239A
:107B30001A4685212B4800887FDF044600BF264671
:107B40003EB100BF29A240F205213046FFF762FB9B
:107B500000BF00BF39E037E014E0FFE700231A461A
:107B6000194620480088B1DF044600BF26463EB1D2
:107B700000BF1EA240F20B213046FFF74BFB00BFB7
:107B800000BF22E0A888132176DF044600BF264606
:107B90003EB100BF15A240F212213046FFF73AFB7A
:107BA00000BF00BF11E0A888132176DF044600BFA4
:107BB00026463EB100BF0DA240F219213046FFF724
:107BC00029FB00BF00BF00E000BF00BFF8BD000000
:107BD000543B0300CC3A0300436F6E6E65637465DB
:107BE00064000000583B0020384C00202E2E5C2EF4
:107BF0002E5C2E2E5C2E2E5C2E2E5C2E2E5C2E2EBF
:107C00005C757365725C757365725F626C652E631B
:107C100000000000446973636F6E6E656374656491
:107C20000000000010B5044600BF04A240F21B1182
:107C30002046FFF7EFFA00BF10BD00002E2E5C2E8D
:107C40002E5C2E2E5C2E2E5C2E2E5C2E2E5C2E2E6E
:107C50005C757365725C757365725F626C652E63CB
:107C60000000000030B587B01C216846FFF735FCE6
:107C7000002000904FF4A03001904FF4F0200290CB
:107C800003208DF80C004FF6FF70ADF80E000120B8
:107C90008DF810000020059009480690684603F012
:107CA000E5FC044600BF25463DB100BF05A240F2F9
:107CB00017112846FFF7AEFA00BF00BF07B030BD6E
:107CC000257C02002E2E5C2E2E5C2E2E5C2E2E5C31
:107CD0002E2E5C2E2E5C2E2E5C757365725C757379
:107CE00065725F626C652E630000000030B58DB078
:107CF000684601F00FF900BF9DF8280020F00F0042
:107D0000401C0A909DF8280020F0F00010300A90E6
:107D100000BF6846FFF7F8FB85B22A4669460AA805
:107D20007CDF044600BF254635B100BF15A2FA210D
:107D30002846FFF76FFA00BF00BF00200B900C90A1
:107D40001A48008EADF82C001848408EADF82E0071
:107D50001648808EADF830001448C08EADF8320061
:107D60000BA87ADF044600BF25463DB100BF05A23F
:107D70004FF482712846FFF74DFA00BF00BF0DB0E7
:107D800030BD00002E2E5C2E2E5C2E2E5C2E2E5C26
:107D90002E2E5C2E2E5C2E2E5C757365725C7573B8
:107DA00065725F626C652E630000000078500020F1
:107DB00070B50021084805F093FD044600BF254634
:107DC0003DB100BF05A24FF498712846FFF722FA93
:107DD00000BF00BF70BD00001C4C00202E2E5C2E8A
:107DE0002E5C2E2E5C2E2E5C2E2E5C2E2E5C2E2ECD
:107DF0005C757365725C757365725F626C652E632A
:107E0000000000002DE9F0410546287800283FD108
:107E10002049214A891AC908032242EA01401FA1C8
:107E200007F0C2F8002623E000BF2969885D02F050
:107E300079FF0446002C18D0112C16D01549164A8B
:107E4000891AC908012242EA0140224617A107F017
:107E5000B5F800BF27463FB100BF1FA240F2511145
:107E60003846FFF7D7F900BF00BF112CDDD0761CD4
:107E7000A88AB042D8D8A88A401E2969085C0D2873
:107E800005D100BF0A2002F04DFF1128FAD000BF33
:107E9000BDE8F081543B0300CC3A03007265636592
:107EA0006976652073756363657373004661696CF9
:107EB000656420726563656976696E67204E555307
:107EC000206D6573736167652E204572726F722035
:107ED000307825782E2000002E2E5C2E2E5C2E2E43
:107EE0005C2E2E5C2E2E5C2E2E5C2E2E5C75736509
:107EF000725C757365725F626C652E6300000000D2
:107F000010B5044600BF04A240F2B9112046FFF7A5
:107F100081F900BF10BD00002E2E5C2E2E5C2E2E8F
:107F20005C2E2E5C2E2E5C2E2E5C2E2E5C757365C8
:107F3000725C757365725F626C652E630000000091
:107F400070B504462078032802D0042810D104E03C
:107F50006568284600F0E0FA0BE00749074A891AED
:107F6000C908032242EA014005A107F01DF800E01C
:107F700000BF00BF70BD0000543B0300CC3A0300BB
:107F80005363616E2074696D6564206F75742E0093
:107F90007FB5002000900190029003901C48009053
:107FA0001C4A69461C4805F091FE044600BF254660
:107FB00035B100BF19A2A3212846FFF72BF900BF56
:107FC00000BF2048FFF7A0FA80B11E4A00211248E6
:107FD00005F01AFE044600BF254635B100BF0FA2CA
:107FE000AA212846FFF716F900BF00BF00221F2173
:107FF000094805F03AFE044600BF254635B100BFEA
:1080000006A2B0212846FFF705F900BF00BF7FBDDB
:108010005A3B0020417F0200785000202E2E5C2E1B
:108020002E5C2E2E5C2E2E5C2E2E5C2E2E5C2E2E8A
:108030005C757365725C757365725F626C652E63E7
:10804000000000007C31030070B5094805F08EFF88
:10805000044600BF254635B100BF06A2D8212846F8
:10806000FFF7D8F800BF00BF012001F075FA70BD1E
:10807000785000202E2E5C2E2E5C2E2E5C2E2E5C38
:108080002E2E5C2E2E5C2E2E5C757365725C7573C5
:1080900065725F626C652E630000000010B505F02C
:1080A000AFFF002001F058FA10BD00007CB50020A1
:1080B0000090144800906946134805F002FD0446FC
:1080C00000BF25463DB100BF10A24FF4D67128462F
:1080D000FFF7A0F800BF00BF0020019015480190F5
:1080E00001A9154803F03CFC044600BF25463DB1FC
:1080F00000BF06A24FF4DA712846FFF78BF800BFE5
:1081000000BF7CBD017F0200384C00202E2E5C2E6B
:108110002E5C2E2E5C2E2E5C2E2E5C2E2E5C2E2E99
:108120005C757365725C757365725F626C652E63F6
:1081300000000000057E02003C3B002038B507F03F
:10814000A5FC044600BF25463DB100BF15A24FF473
:10815000E6712846FFF75EF800BF00BF00200090E0
:108160006946012007F08EFA044600BF25463DB15E
:1081700000BF0CA24FF4E9712846FFF74BF800BF8F
:1081800000BF684607F04CFB044600BF25463DB1E2
:1081900000BF04A24FF4EB712846FFF73BF800BF85
:1081A00000BF38BD2E2E5C2E2E5C2E2E5C2E2E5C3B
:1081B0002E2E5C2E2E5C2E2E5C757365725C757394
:1081C00065725F626C652E630000000010B51421BB
:1081D000014800F099FC10BD3054002030B500205B
:1081E000124C00252560656000211BE00022002361
:1081F00014E00F4C04EB8104A45C0CB95C1CE3B2EA
:10820000042B05D10124094D6C54441CE0B203E059
:108210000124074D303D6C54541CE2B2042AE8DBC3
:108220004C1CE1B20829E1DB30BD0000953B002089
:108230007454002000B585B00C490D4A891AC9084C
:10824000032242EA01400BA106F0AEFE00F01CF84A
:108250000021684600F076FDFFF768FB6846FFF7EF
:1082600093FBFFF735FB05B000BD0000543B030056
:10827000CC3A03002D2D2D2D2D2D2D2D2D2D2D43C3
:108280004D434E5F446F00002DE9F04186B000245D
:108290000025002600274FF01008142101A8FFF741
:1082A0001CF913208DF80400EF208DF8050000BFA5
:1082B00010E000250AE0284800EB8400415D01AA97
:1082C000F01C1154701CC6B2681CC5B2042DF2DB40
:1082D000601CC4B2042CECDB8DF8068011210DF17A
:1082E000060000F087F907468DF81770002101A8F5
:1082F00000F05CFD142101A8FFF7EFF80027132020
:108300008DF80400EF208DF805000424002610E00D
:1083100000250AE0104800EB8400415D01AAF01C32
:108320001154701CC6B2681CC5B2042DF2DB601C6F
:10833000C4B2082CECDB8DF8068011210DF106008B
:1083400000F058F907468DF81770012101A800F0D8
:108350002DFD06B0BDE8F081745400202DE9F05FDA
:1083600004464FF00009CA46CB460027A078494989
:1083700081F85000A078C11700EB91714FEAA10B72
:10838000FFF72CFF8246204600F05CF90746B81E36
:10839000C1B2A01C00F02EF93E4981F851003E49BF
:1083A0003E4A891AC908032242EA01403A463CA1E2
:1083B00006F004FEE35D374991F851203649DFF8B5
:1083C000DCC0A1EB0C01C9084FF0030C4CEA0140E2
:1083D00037A106F0FFFD2F4890F85100E15D88427B
:1083E0000BD02D492D4A891AC908032242EA0140BF
:1083F00038A106F0D9FDBDE8F09FBAF1000F0AD10F
:108400002549264A891AC908032242EA014035A1B2
:1084100006F0CAFDEFE7BBF1010F09D0BBF1020F77
:1084200009D0BBF1030F09D0BBF1040F0CD108E058
:108430004FF0040909E04FF0080906E04FF00C097D
:1084400003E04FF0100900E000BF00BF0025002648
:108450001CE02C48405D012816D14FF000080DE0CB
:10846000F01C215C0B48303000EB850000F8081050
:10847000701CC6B208F1010000F0FF08B8F1040F4B
:10848000EEDB4E4500D1B6E7681CC5B2082DE0DB37
:1084900000BFB0E744540020543B0300CC3A030033
:1084A0006372635F6469676974206973202564007F
:1084B0006372635F76616C756520616E64207278AB
:1084C0005B375D20697320307825782030782578F7
:1084D0000000000075617274206372632066616938
:1084E0006C2100005468657265206973206E6F20EE
:1084F0006578747261206461746120737061636572
:1085000020210000953B002010B514210148FEF702
:10851000E4FF10BD305400202DE9F0470646002549
:10852000B46949E014F80580681C14F80090B9F1AA
:10853000030F06D0B9F1090F04D0B9F1FF0F36D1FE
:1085400001E034E033E0E07913282FD1207AEE28DF
:108550002CD1E01D00F044F8FFF738FE19491A4A03
:10856000891AC908052242EA014018A106F01CFD3B
:1085700000270DE01749CA5D1249134BC91AC908F3
:10858000052343EA014014A106F018FD781CC7B288
:10859000A8F10100B842EDDC0A490B4A891AC90862
:1085A000052242EA01400DA106F0FEFC00BF00BF1B
:1085B00008F10100054400BFB08BA842B2D80520E5
:1085C000BDE8F087543B0300CC3A0300646174615A
:1085D0003A30780030540020257800000A0000006E
:1085E00010B50446142221460148FEF75DFF10BD78
:1085F0003054002010B502460B460020002104E054
:10860000545C0444E0B24C1CE1B29942F8DB10BD6A
:1086100010B50B480021016041608160C1602021DC
:108620001030FEF75AFF202105483030FEF755FF85
:108630000020034981F8510081F8500010BD00006E
:108640004454002070B505460026002415E0285D3E
:1086500020B9132C02DA601EC6B210E0132C0AD126
:108660000849094A891AC908032242EA014007A1B8
:1086700006F09AFC1326601CC4B2142CE7DB00BF82
:10868000304670BD543B0300CC3A03006372632054
:1086900064696769742069732031390010B5024834
:1086A000007808F073F810BD713B0020052000BF72
:1086B00001070A46012303FA00F1C2F8081500BFBA
:1086C00000BF7047F0B5052001210A46002423466B
:1086D000254600BF07073E4641EA420747EA8407AE
:1086E00047EA032747EA054C06F5E06747F820C04C
:1086F00000BF00BFFFF7DAFFF0BD052000BF010794
:108700000A46012303FA00F1C2F80C1500BF00BFAE
:10871000704710B506F0BAFA08B906F091FE10BD20
:1087200070B54FF48041002006F010FD044600BFF4
:1087300025463DB100BF05A240F259112846FEF77B
:1087400069FD00BF00BF06F08DFA70BD2E2E5C2EB5
:108750002E5C2E2E5C2E2E5C2E2E5C2E2E5C2E2E53
:108760005C757365725C757365725F64726976655A
:108770002E63000070B506F043FE044600BF254698
:108780003DB100BF04A240F239112846FEF742FD78
:1087900000BF00BF70BD00002E2E5C2E2E5C2E2E62
:1087A0005C2E2E5C2E2E5C2E2E5C2E2E5C75736540
:1087B000725C757365725F64726976652E63000022
:1087C00030B58BB000243B4B0FCB07AD0FC53949FB
:1087D000103103C9CDE90101374A01A9374807F033
:1087E00087FC044600BF254635B100BF34A27A217C
:1087F0002846FEF70FFD00BF00BF2F4A01A92F48F2
:10880000083007F075FC044600BF254635B100BFAF
:108810002BA27C212846FEF7FDFC00BF00BF264AA4
:1088200001A92648103007F063FC044600BF254626
:1088300035B100BF22A27E212846FEF7EBFC00BF27
:1088400000BF1E48089907F0D1FC04901B4808306F
:10885000099907F0CBFC0590184810300A9907F0E9
:10886000C5FC069001200090022301461348049A9B
:1088700007F01CFC01200090042302210F4808305F
:10888000059A07F013FC01200090082303210B48F0
:108890001030069A07F00AFC084807F0F5FB074875
:1088A000083007F0F1FB0548103007F0EDFB0BB086
:1088B00030BD0000A4310300E59E02007C3B002097
:1088C0002E2E5C2E2E5C2E2E5C2E2E5C2E2E5C2EE2
:1088D0002E5C2E2E5C757365725C757365725F64B9
:1088E000726976652E63000070B502F005F90446E2
:1088F00000BF254635B100BF03A269212846FEF717
:1089000089FC00BF00BF70BD2E2E5C2E2E5C2E2E6B
:108910005C2E2E5C2E2E5C2E2E5C2E2E5C757365CE
:10892000725C757365725F64726976652E630000B0
:1089300010B50446207830B101282CD0022818D078
:10894000042845D139E001202349087023480078E4
:108950001E280DDA2249234A1278881802F028F9D5
:1089600020480078401C1F49087000201B490870EF
:108970002FE01D491D4A891AC908032242EA014015
:108980001BA106F011FB00BF24A24B216068FEF77B
:1089900041FC00BF1DE01449144A891AC90803228A
:1089A00042EA014027A106F0FFFA00BF1BA25121B5
:1089B0006068FEF72FFC00BF0BE00B490B4A891AD9
:1089C000C908032242EA014026A106F0EDFA00E0C0
:1089D00000BF00BF10BD00006C3B0020703B0020BA
:1089E000FE530020943B0020543B0300CC3A03008C
:1089F000404075617274204150505F554152545F40
:108A0000434F4D4D554E49434154494F4E5F45529A
:108A1000524F52206572726F720000002E2E5C2E33
:108A20002E5C2E2E5C2E2E5C2E2E5C2E2E5C2E2E80
:108A30005C757365725C757365725F647269766587
:108A40002E63000075617274204150505F55415291
:108A5000545F4649464F5F4552524F5220657272ED
:108A60006F72000075617274204150505F55415221
:108A7000545F44415441206572726F7200000000DF
:108A800030B58BB01822124905A8FEF70DFD00BFC6
:108A9000104801904FF4807002900F4803904FF4FB
:108AA0008070049007230D4A01A905A802F0CCF8B4
:108AB000044600BF00BF254635B100BF08A22C21E7
:108AC0002846FEF7A7FB00BF00BF0BB030BD00007B
:108AD0008C310300CC510020CC520020318902009F
:108AE0002E2E5C2E2E5C2E2E5C2E2E5C2E2E5C2EC0
:108AF0002E5C2E2E5C757365725C757365725F6497
:108B0000726976652E63000070B505460E46002436
:108B100004E0285D02F006F9601CC4B2B442F8DB40
:108B200070BD000010B50549054A891AC90803221D
:108B300042EA014003A106F037FA10BD543B03009E
:108B4000CC3A030044726976655F5744545F4576BA
:108B5000656E5F48616E646C650000003EB5002480
:108B6000134A07CA8DE807001249684607F026FE37
:108B7000044600BF25463DB100BF0FA24FF4B771B8
:108B80002846FEF747FB00BF00BF154807F0D4FD9D
:108B9000044600BF25463DB100BF07A240F2711157
:108BA0002846FEF737FB00BF00BF07F0F5FD3EBDCE
:108BB000BC310300258B02002E2E5C2E2E5C2E2E47
:108BC0005C2E2E5C2E2E5C2E2E5C2E2E5C7573651C
:108BD000725C757365725F64726976652E630000FE
:108BE000713B00202DE9F84F0026002000904FF443
:108BF00080770125002410E0384605F051FF40B190
:108C000000BF25480068284018B1384605F03AFFF3
:108C10002E436D00381D87B2641C082CECD34FF432
:108C2000BE7005F03DFF50B14FF4BE7005F02AFF55
:108C300046F000466A460121002005F0EDFEF0B244
:108C400010B3012500241DE005EA0600C0B100BFF5
:108C5000124850F82400C0F30420814600BF0F489A
:108C600050F82400C0F301408246204602F0ECFF99
:108C70008046B8F1000F02D051464846C04700BFB9
:108C80006D00641C082CDFD306F0004010B168466C
:108C900008F0CCF9BDE8F88F04630040106500408F
:108CA00010B54FF4807005F0CFF980B14FF48070AB
:108CB00005F0D3F9012005F0D9F92048407930B901
:108CC00001201E49487108460168002088474FF47A
:108CD000827005F0B9F950B14FF4827005F0BDF91A
:108CE000022005F0C3F915480168012088474FF4B8
:108CF000887005F0A9F950B14FF4887005F0ADF90E
:108D0000102005F0B3F90D480168022088474FF4A0
:108D1000867005F099F980B10020094908604FF488
:108D2000867005F09AF9082005F0A0F900200349A3
:108D30008871084601680320884710BDF439002077
:108D4000340C0040024611B1012915D109E0002080
:108D500004E00B4B1B5C1354431CD8B21428F8DB03
:108D60000BE0002005E0064B14331B5C1354431C3E
:108D7000D8B21428F7DB00E000BF00BF7047000046
:108D80009854002010B50120064948700020087052
:108D900014210548FEF7A1FB142103481430FEF707
:108DA0009CFB10BDB23D00209854002010B5024637
:108DB00011B1012915D109E0002004E0135C0A4C2F
:108DC0002354431CD8B21428F8D30BE0002005E04C
:108DD000145C054B14331C54431CD8B21428F7D32D
:108DE00000E000BF00BF10BD9854002030B587B030
:108DF00016A207CA04AB07C300200190029003909B
:108E000000241548FEF780FB054629461248FEF768
:108E100064FB04A91048FEF799FB1048C0690A21B9
:108E2000B0FBF1F084B222460DA101A801F0E2FAF4
:108E300001A90948FEF75CFB0748FEF765FB0649F8
:108E40003E220A54084607B030BD00003C616476FB
:108E50005F64656C61793D00943D0020C054002042
:108E6000256400001FB512A207CA01AB07C300208A
:108E700000901248FEF748FB044621460F48FEF7D3
:108E80002CFB01A90D48FEF761FB0D480DA182697D
:108E9000684601F0AFFA69460848FEF729FB074823
:108EA000FEF732FB05493E220A54084604B010BDC5
:108EB0003C6164765F696E743D000000943D002063
:108EC000C0540020256400001CB50EA103C9CDE9E3
:108ED00000010E48FEF718FB044621460B48FEF73A
:108EE000FCFA69460948FEF731FB09490748FEF7D5
:108EF000FFFA0648FEF708FB04493E220A540846DA
:108F00001CBD00003C6E616D653D0000943D00207D
:108F1000C054002010B5044609492046FEF716FB50
:108F200007488069A0610648C069E0610448006A9A
:108F30002062034890F8240084F82400012010BD2A
:108F4000C054002010B588B017A30FCB04AC0FC4D9
:108F500000200190029003901748FEF7D5FA0446CE
:108F600021461548FEF7B9FA04A91348FEF7EEFAB0
:108F70001248006A4FF47A71B0FBF1F00F490862B1
:108F800008460FA1026A01A801F034FA01A90A48B3
:108F9000FEF7AEFA0848FEF7B7FA07493E220A5430
:108FA000084608B010BD00003C6164765F74696DCE
:108FB000656F75743D000000943D0020C054002092
:108FC0002564000010B588B013A30FCB04AC0FC408
:108FD00000200190029003901348FEF795FA044692
:108FE00021461148FEF779FA04A90F48FEF7AEFAB8
:108FF0000E4890F924200EA101A801F0FBF901A967
:109000000948FEF775FA0848FEF77EFA06493E223F
:109010000A54084608B010BD3C73745F74785F70E2
:109020006F7765723D000000943D0020C054002021
:109030002564000010B508A10B48FEF787FA202030
:10904000094988616420C86141F2883008620420BF
:1090500081F8240010BD00004A533133355F3030B1
:109060003030303100000000C05400202DE9FC41B8
:10907000054600200090019000BF0F27804628463B
:10908000FEF742FAC01B00F0FF08002405E0381983
:10909000285C0DF80400601CC4B24445F7DB684648
:1090A000FEF76CFA86B206EB860040000749C861FD
:1090B000CA690749074BC91AC908032343EA014093
:1090C00005A105F07BFFBDE8FC810000C054002035
:1090D000543B0300CC3A03006164765F64656C61C5
:1090E00079206973202564002DE9FC4105460020A4
:1090F000009001900D2600272846FEF705FA801BF8
:10910000C7B2002405E03019285C0DF80400601C8B
:10911000C4B2BC42F7DB6846FEF730FA0749886103
:109120008A690749074BC91AC908032343EA014062
:1091300005A105F043FFBDE8FC810000C0540020FC
:10914000543B0300CC3A03006164765F6974762077
:10915000697320256400000038B500BF9DF8000049
:1091600020F00F00401C00909DF8000020F0F0005F
:109170001030009000BF0A48FEF7C6F985B22A46B3
:10918000074968467CDF044600BF254635B100BF6D
:1091900004A27E212846FEF73DF800BF00BF38BD7F
:1091A000C05400202E2E5C2E2E5C2E2E5C2E2E5CAB
:1091B0002E2E5C2E2E5C2E2E5C757365725C757384
:1091C00065725F706172616D2E6300002DE9FC4174
:1091D0000546002000900190112600272846FEF742
:1091E00093F9801BC7B2002405E03019285C0DF804
:1091F0000400601CC4B2BC42F7DB6846FEF7BEF94F
:109200004FF47A714843074908620A6A0649074BD6
:10921000C91AC908032343EA014005A105F0CEFE9F
:10922000BDE8FC81C0540020543B0300CC3A03004D
:109230005E5E5E5E5E5E5E5E5E5E5E5E5E5E5E5E4E
:109240006164765F74696D656F757420697320253C
:10925000640000002DE9FC410546002000900190CB
:109260000D2600272846FEF74FF9801B401EC7B287
:10927000A85D2B2812D100240DE03019401C285C79
:109280000DF804006846FEF779F940B21B4981F8F1
:109290002400601CC4B2BC42EFDB20E0A85D2D2896
:1092A00013D100240EE03019401C285C0DF8040096
:1092B0006846FEF763F9404240B2104981F8240045
:1092C000601CC4B2BC42EEDB09E00D490D4A891AAC
:1092D000C908032242EA01400BA105F065FE0749D7
:1092E00091F924200649074BC91AC908032343EA08
:1092F000014007A105F062FEBDE8FC81C0540020DA
:10930000543B0300CC3A03006572726F7200000098
:1093100074785F706F776572206973202564000030
:109320000148007870470000B43D002001490870F2
:1093300070470000B43D002070B505460026284661
:10934000FEF7E2F80B38C6B216210D48FEF7C5F855
:10935000002406E004F10A00285C09490855601C55
:10936000C4B2B442F6DB0749074A891AC908032286
:1093700042EA0140024A05A105F020FE70BD00004E
:10938000C0540020543B0300CC3A03006E616D656D
:109390002069732025730000034909780170024990
:1093A0004978417070470000B23D002010B586B08A
:1093B000142101A8FEF791F8FFF7B2FFF0B10024E5
:1093C00014E00F48005D01280ED10E490E4A891A9B
:1093D000C908032242EA01400CA105F0E5FD002185
:1093E0000748015500F0C4F8601CC4B2082CE8DB43
:1093F000FEF7F4FE042801DA00F0D0F806B010BD44
:109400004C540020543B0300CC3A03007570646157
:109410007465206164762000014800787047000080
:10942000B63D002030B587B005A86DDF044600BF0B
:1094300025463DB100BF22A24FF4F4712846FDF746
:10944000E9FE00BF00BF2849284A891AC90803223B
:1094500042EA014026A105F0A7FD9DF81A009DF8FB
:1094600019109DF818209DF81730CDE90032CDE98C
:1094700002109DF816309DF815201B491B4D491B05
:10948000C908032545EA014020A105F0E3FD16497E
:10949000164A891AC908032242EA014024A105F0AC
:1094A00083FD00BF25463DB100BF05A24FF4FC710E
:1094B0002846FDF7AFFE00BF00BF07B030BD00007B
:1094C0002E2E5C2E2E5C2E2E5C2E2E5C2E2E5C2ED6
:1094D0002E5C2E2E5C757365725C757365725F70A1
:1094E0006172616D2E630000543B0300CC3A0300AF
:1094F0004D414320616464722A2A2A2A2A2A2A2A90
:109500002A2A2A2A2A2A2A2A2A00000025303278E2
:109510002C20253032782C20253032782C20253014
:1095200032782C20253032782C20253032782C00CF
:109530002A2A2A2A2A2A2A2A2A2A2A2A2A2A2A2A8B
:109540002A4D4143206164647200000001480078A4
:1095500070470000B53D00200149087070470000C9
:10956000B53D00200149087070470000B63D00205D
:1095700000B585B014216846FDF7AFFFFEF7D6F9B8
:10958000FEF782FE00216846FFF7DCFB6846FEF727
:10959000FBF9FEF79DF905B000BD000000B585B0F0
:1095A00014216846FDF799FF1848C06918490988D1
:1095B000884229D817480078401C164908700020B6
:1095C00013490880FEF7B2F9FEF75EFE11480078F5
:1095D000012802D002280DD104E000216846FFF7DF
:1095E000B1FB0BE001216846FFF7ACFB0020094905
:1095F000087003E000200749087000BF00BF6846FC
:10960000FEF7C2F9FEF764F905B000BDC0540020B2
:109610006E3B0020B83D002010B5034A1068034A95
:109620001168884710BD0000383A0020343A002005
:1096300010B500F039FE10BD2DE9F0470746884609
:109640001646C24607EB47011B4800EBC109D9F893
:10965000140020B1012811D0022826D11EE048466E
:1096600000F05AFE0546B54201D2002405E034461A
:1096700032465146484600F096FE18E0484600F053
:109680004BFE0546B54201D2284600E0304604466E
:1096900022465146484600F086FE08E032465146D2
:1096A000484600F047FE044601E0002400BF00BF2A
:1096B0002046BDE8F08700003448002010B506F0D1
:1096C00027FA10BD01480249086070470090D00396
:1096D000BC3D002010B503F049FF40B100205E49B9
:1096E00008604FF08041C1F810015C49086003F048
:1096F0006BFF002855D05A4800685A4908605848FE
:10970000001D0068091D0860554808300068091DE3
:10971000086053480C300068091D0860504810303C
:109720000068091D08604E4814300068091D086073
:109730004B48183000684B492031086048481C30BD
:109740000068091D0860464820300068091D08604F
:10975000434824300068091D0860414828300068EB
:10976000091D08603E482C300068091D08603C480F
:10977000303000683B494031086039483430006877
:10978000091D0860364838300068091D08603448F3
:109790003C300068091D0860314840300068091DF0
:1097A000086003F0B5FE40B12F48006800F00100EA
:1097B00018B16FF001002C4908602C48006800F0D7
:1097C000004030B92948001D006800F00040002822
:1097D0003ED001202649086000BF264800680028C6
:1097E000FBD012202149086000BF224800680028F1
:1097F000FBD012211D48001D016000BF1D480068FC
:109800000028FBD000201A49086000BF19480068F2
:109810000028FBD000BF00BF00BF00BF00BFBFF3E8
:109820004F8F00BF00BF00BF1348006800F4E06026
:1098300012490843001D1049086000BF00BF00BF67
:10984000BFF34F8F00BF00BF00BF00BF00BFFDE7E9
:10985000FFF738FF10BD00000C0100403805004044
:109860000404001020C50040000400400012001055
:1098700004E5014000E401400CED00E00000FA05C1
:1098800010B504220249034803F0ADFB10BD0000EF
:10989000D43F00200080004010B504220249034854
:1098A00003F0A1FB10BD0000E03F0020009000404D
:1098B00010B504220249034803F095FB10BD0000D7
:1098C000EC3F002000A0004010B5062202490348EA
:1098D00003F089FB10BD0000F83F002000A001400C
:1098E00010B502490868804710BD0000FC3900200F
:1098F0000146002006E00023044A02EB81021354D3
:10990000421CD0B20428F6DB7047000074540020DB
:1099100070B586B005460C46002101A8FFF712FA83
:10992000FE492046FDF7F7FD50B9FEF78DF8FC48DB
:10993000FDF7EAFD86B23146F948FFF7E5F849E25E
:10994000F8492046FDF7E7FDF0B9F749F74A891ACB
:10995000C908032242EA0140F5A105F025FBFFF703
:109960005BFD40B1F848FDF7CFFD86B23146F648C1
:10997000FFF7CAF82EE2F548FDF7C6FD86B231467C
:10998000F248FFF7C1F825E2F1492046FDF7C3FD93
:1099900050B9FEF783FBE248FDF7B6FD86B23146CB
:1099A000DF48FFF7B1F815E2EA492046FDF7B3FDBD
:1099B00050B9FEF749FBDA48FDF7A6FD86B23146FD
:1099C000D748FFF7A1F805E2E3492046FDF7A3FDDC
:1099D000A0B9FFF7BBFD40B1E048FDF795FD86B2A9
:1099E0003146DE48FFF790F8F4E1DD48FDF78CFDE5
:1099F00086B23146DA48FFF787F8EBE10A22D94907
:109A00002046FDF7ACFDA0B9C548FDF77DFD86B247
:109A10003146C348FFF778F8FDF788FF2046FFF787
:109A20008BFCFFF799FB01A8FDF7D2FEFDF750FF75
:109A3000D0E1CD492046FDF76EFD58B9FFF744FA55
:109A400005462846FDF760FD86B231462846FFF7F9
:109A50005BF8BFE10D22C5492046FDF780FD90B9B6
:109A6000FDF764FF2046FFF73FFB01A8FDF7B0FEBE
:109A7000FDF72EFFAA48FDF747FD86B23146A848FC
:109A8000FFF742F8A6E1BA492046FDF744FD58B970
:109A9000FFF7E8F905462846FDF736FD86B2314660
:109AA0002846FFF731F895E10F22B2492046FDF72D
:109AB00056FD58B92046FFF7D9FA9948FDF724FD1D
:109AC00086B231469648FFF71FF883E1AA4920463F
:109AD000FDF721FD58B9FFF789F905462846FDF73E
:109AE00013FD86B231462846FFF70EF872E11122C7
:109AF000A2492046FDF733FD90B9FDF717FF204638
:109B0000FFF764FB01A8FDF763FEFDF7E1FE844863
:109B1000FDF7FAFC86B231468148FEF7F5FF59E1C0
:109B200097492046FDF7F7FC58B9FFF70BFA0546B1
:109B30002846FDF7E9FC86B231462846FEF7E4FFE9
:109B400048E190492046FDF7E6FC68B97448FDF706
:109B5000DBFC86B231467248FEF7D6FF0A2004F0DD
:109B600097FAFDF7E3FE35E187492046FDF7D3FC80
:109B700068B96B48FDF7C8FC86B231466848FEF705
:109B8000C3FF0A2004F084FAFDF7A2FE22E17F4918
:109B90002046FDF7C0FCA0B9FFF7C2FB40B17C48EE
:109BA000FDF7B2FC86B231467948FEF7ADFF11E110
:109BB0007848FDF7A9FC86B231467648FEF7A4FF47
:109BC00008E175492046FDF7A6FC40B95448FDF769
:109BD0009BFC86B231465248FEF796FFFAE06F4989
:109BE0002046FDF798FC40B94D48FDF78DFC86B244
:109BF00031464B48FEF788FFECE069492046FDF707
:109C00008AFC40B94648FDF77FFC86B2314644489D
:109C1000FEF77AFFDEE063492046FDF77CFC40B9A1
:109C20003F48FDF771FC86B231463D48FEF76CFFB8
:109C3000D0E00D225C492046FDF791FC90B9FDF77C
:109C400075FE2046FFF706FB01A8FDF7C1FDFDF7F5
:109C50003FFE5648FDF758FC86B231465348FEF7A2
:109C600053FFB7E052492046FDF755FC58B9FFF7BE
:109C7000A9F905462846FDF747FC86B23146284635
:109C8000FEF742FFA6E04B492046FDF744FC48BBE7
:109C90002348FDF739FC86B231462148FEF734FFF0
:109CA0004FF4FA7004F0F4F900BF00BF00BF00BF2A
:109CB00000BFBFF34F8F00BF00BF00BF3E4800682A
:109CC00000F4E0603D490843001D3B49086000BFC7
:109CD00000BF00BFBFF34F8F00BF00BF00BF00BF7A
:109CE00000BFFDE736492046FDF715FC20B90421E9
:109CF00034A0FEF709FF6DE00C2234492046FDF741
:109D00002EFC48B90020FFF7F3FD0548FDF7FCFBEA
:109D100086B2314602485BE05CE000009D3B0020DB
:109D2000283D0020AA3B0020543B0300CC3A03000E
:109D30005669657720636F6E6E656374696F6E2018
:109D400073746174757300002D3D0020393D00204F
:109D5000BA3B0020C63B0020D33B0020453D0020FD
:109D6000553D0020E03B0020EC3B0020F83B00206C
:109D7000073C0020163C0020273C0020383C0020F7
:109D80004B3C00205E3C0020693C0020753C0020DC
:109D9000763D0020853D0020813C0020943C002041
:109DA000A73C0020C03C0020D93C0020653D00209D
:109DB000E83C0020F83C00200CED00E00000FA0533
:109DC0000E3D002056312E30000000001A3D0020CC
:109DD000FEF79AFE1F212046FDF77FFB1F21284634
:109DE000FDF77BFB06B070BD38B52F4800788DF8C5
:109DF00000002D4840788DF801002C48007800289C
:109E000051D12B48007801284DDD002401E0601C71
:109E1000C4B2142CFBDB9DF80000132820D1254987
:109E2000254A891AC908032242EA014023A105F004
:109E3000BBF89DF80100EF2835D11E491E4A891A4A
:109E4000C908032242EA01401EA105F0ADF81648F8
:109E5000FEF784FAFEF7EEF900201549087022E0BB
:109E60009DF800003C2811D11249134A891AC908EB
:109E7000032242EA014015A105F096F80A49154867
:109E8000FFF746FD00200A4908700CE009490A4A1C
:109E9000891AC908032242EA01400FA105F084F89B
:109EA00000200349087038BDFE5300206C3B0020A1
:109EB000943B0020543B0300CC3A030048445F31FC
:109EC0000000000046445F310000000048445F325B
:109ED00000000000CC5300204844206572726F726D
:109EE0000000000030B58BB004460D46B548008830
:109EF000B0F57A7F02DD0020B2490880B4F5A07F7A
:109F000009D0B4F5A27F11D0B4F5A47F7ED0B4F50A
:109F1000A67F7CD13EE1AC49AC4A891AC90803222C
:109F200042EA0140AAA105F03FF847E1FFF7F8F93E
:109F300000286DD001A8FEF7EDFF099808B90BB015
:109F400030BDA648007801281CD1A4480069401CF7
:109F5000A2490861084600690999884212D39A49C2
:109F60009A4A891AC908032242EA01409CA105F0D5
:109F70001BF80020994908700861FFF7B9FC01201F
:109F8000964908729548407801281FD19348406946
:109F9000401C92494861084640690999884215D396
:109FA00089498A4A891AC908032242EA014090A1D4
:109FB00004F0FAFF00208949487000218748416178
:109FC0000120FFF795FC0121844841728348807885
:109FD000012823D181488069401C80498861084656
:109FE00080690999884219D37749784A891AC9083A
:109FF000032242EA014082A104F0D6FF0020774903
:10A000008870002175488161022002E0BCE0D4E044
:10A01000B9E0FFF76DFC0121704881726F48C0788C
:10A0200001281FD16D48C069401C6C49C8610846B1
:10A03000C0690999884215D36349644A891AC908D5
:10A04000032242EA014072A104F0AEFF00206349FE
:10A05000C87000216148C1610320FFF749FC01215C
:10A060005E48C1725D48007901281FD15B48006AD3
:10A07000401C5A4908620846006A0999884215D36B
:10A080005149524A891AC908032242EA014064A18F
:10A0900004F08AFF00205149087100214F480162F5
:10A0A0000420FFF725FC01214C4801734B484079FF
:10A0B00001281FD14948406A401C48494862084667
:10A0C000406A0999884215D33F49404A891AC9080C
:10A0D000032242EA014056A104F066FF00203F49F6
:10A0E000487100213D4841620520FFF701FC012134
:10A0F0003A4841733948807901281FD13748806A2E
:10A10000401C364988620846806A0999884215D3FE
:10A110002D492E4A891AC908032242EA014048A162
:10A1200004F042FF00202D49887100212B488162F4
:10A130000620FFF7DDFB0121284881732748C079FD
:10A1400001281FD12548C06A401C2449C86208461E
:10A15000C06A0999884215D31B491C4A891AC90843
:10A16000032242EA01403AA104F01EFF00201B49ED
:10A17000C87100211948C1620720FFF7B9FB01210E
:10A180001648C17300BF19E00E480088401C0D49F5
:10A19000088013E03248007801280DD1314800785A
:10A1A000401C30490870084600781E2804DD002055
:10A1B0002B4908702B49087000E000BF00BF00BFAA
:10A1C000BDE600006E3B0020543B0300CC3A030088
:10A1D00074696D657220494E54300000445400206B
:10A1E000436C65616E20426C6F636B300000000051
:10A1F000436C65616E20426C6F636B310000000040
:10A20000436C65616E20426C6F636B32000000002E
:10A21000436C65616E20426C6F636B33000000001D
:10A22000436C65616E20426C6F636B34000000000C
:10A23000436C65616E20426C6F636B3500000000FB
:10A24000436C65616E20426C6F636B3600000000EA
:10A25000436C65616E20426C6F636B3700000000D9
:10A260006C3B0020703B002008B500BF4FF48070AD
:10A270000B49405808B1012000E0002078B109489E
:10A280000068804700BF00204FF48071044A885066
:10A29000084611464058009000BF00BF00BF08BDEF
:10A2A00000000140083A002010B5124C0220206145
:10A2B000606111A0A0611349E1614FF40071216256
:10A2C0000021A1626162E1620BA0A0640E49E16419
:10A2D000102121650021A1656165E1650BA1E01DEB
:10A2E000FDF734F90AA12046FDF730F92020A071CE
:10A2F00010BD00001C4800205465726D696E616CD1
:10A300000000000094480020944A00205254540059
:10A31000534547474552000010B501460A69CB68CE
:10A320009A4204D88C68641EE41AA01801E0D41A7A
:10A33000601E10BD2DE9F0470446894617464FF0D0
:10A34000000AE56800BFD4F81080A84503D9A8EB3F
:10A350000500461E04E0A5EB0800401CA1680E1A8B
:10A36000A068401BB04201D9304601E0A068401B04
:10A370000646BE4201D2304600E0384606466168D5
:10A38000481932464946FDF78FF8B244B144BF1B25
:10A390003544A068A84200D10025E560002FD2D145
:10A3A0005046BDE8F0872DE9F0470446894615463A
:10A3B000E668A068871BAF4208D9616888192A46F9
:10A3C0004946FDF771F87019E06010E0B846616821
:10A3D000881942464946FDF767F8A5EB070809EBDF
:10A3E000070142466068FDF75FF8C4F80C80BDE8DD
:10A3F000F08700000FB4084B10B504A902AA039817
:10A4000000F062F8044602A9002000F007F9204697
:10A4100010BC5DF814FB00001DA6020000BF00BFC9
:10A4200000BFBFF34F8F00BF00BF00BF09480068E7
:10A4300000F4E06008490843001D0649086000BFB9
:10A4400000BF00BFBFF34F8F00BF00BF00BF00BF02
:10A4500000BFFDE70CED00E00000FA050048704782
:10A46000C03D002002E008C8121F08C1002AFAD12E
:10A4700070477047002001E001C1121F002AFBD184
:10A48000704700000146202908DA012088400A4A66
:10A49000104008B1012070470020FCE7402909DA8C
:10A4A000A1F12000012202FA00F008B10120F2E738
:10A4B0000020F0E70120EEE7FC06FFBD00BFEFF350
:10A4C0001081084672B670472DE9FF4F89B09B4650
:10A4D0000446002506E025280BD05A460B999047E4
:10A4E000641C6D1C20780028F5D10DB02846BDE80D
:10A4F000F08F0027B8460122474900E0074314F8CF
:10A50000013F203B02FA03F00842F7D120782E28C1
:10A5100019D114F8010F47F004072A280ED06FF064
:10A520002F022078A0F1300109290CD808EB88010E
:10A5300002EB410100EB0108641CF2E70A98641C7D
:10A5400050F8048B0A9020780028CED0642808D0D8
:10A55000692806D075281ED05A460B9990476D1C65
:10A5600058E00A994FF00A0901C90A91002802DA55
:10A5700040422D2102E0390504D52B218DF8201011
:10A58000012103E0F90704D02021F7E78A4608AE4D
:10A590000DE00021FAE70A994FF00A0901C90A9172
:10A5A000F7E74946FCF7F7FF303106F8011D0028B0
:10A5B000F7D1ADEB060000F12009780701D44FF088
:10A5C0000108C84502DDA8EB090000E00020804634
:10A5D000002706E008A85A46C05D0B9990476D1CFD
:10A5E0007F1C5745F6DB04E030205A460B99904714
:10A5F0006D1CB8F10001A8F10108F5DC05E016F8C2
:10A60000010B5A460B9990476D1CB9F10001A9F155
:10A610000109F4DC641C65E7092801000A68531C81
:10A620000B6010707047014601F0030008B901206B
:10A6300070470020FCE7024650680068401E084052
:10A6400008B9012070470020FCE70246002104E021
:10A65000505C08B101207047491C0629F8D300203E
:10A66000F9E710B50346D868884206D88818401E16
:10A670001C69A04201D8012010BD0020FCE70000A9
:10A6800010B504466CB10848C068A04209D8064815
:10A690000069A04205D3204602F028FD08B1012040
:10A6A00010BD0020FCE70000C43D002070B504464A
:10A6B0000D4604F22740FFF7C8FF0646012D06D0DD
:10A6C000022D0DD0032D11D0042D19D113E0A07946
:10A6D00028B194F8240010B90EB1012070BD00BF5C
:10A6E000E07910B10EB10220F8E700BF207A08B17E
:10A6F0000320F3E700BF607A08B10420EEE700BF53
:10A700000020EBE70146481C052290FBF2F302FB18
:10A710001300C0B270472DE9F04704460D462F469E
:10A7200095F82080B4F81C9000260BE007EB461249
:10A730004946A06900F006FD10B10120BDE8F08790
:10A74000701CC6B24645F1DB0020F7E7014691F8E0
:10A750002420012A01D1EE2000E01F2070472DE9BE
:10A76000F05F06460C4604F1220A94F82C502A2089
:10A7700010F804904FF00008B6F81CB0002710E065
:10A780000AEB87025946B06900F045FD28B108F18F
:10A79000010000F0FF0815B905E005B103E0781CE1
:10A7A000C7B24F45ECDB00BF0DB1C84503D02DB992
:10A7B000B8F1000F02DD0120BDE8F09F0020FBE7AB
:10A7C00010B501220221002001F07AF9044600BFF1
:10A7D0001CB1072C01D0204610BD00BF072202216A
:10A7E000012001F06DF9044600BF1CB1072C01D017
:10A7F0002046F1E700BF0A220021084601F060F977
:10A80000044600BF1CB1072C01D02046E4E700BF7E
:10A810000020E1E72DE9FE4307460E46144672B6D6
:10A8200000BF04F0D3FC00BF00BF04F02FFA0028E3
:10A83000FBD100BF00BF012F0CD06FF48050384413
:10A8400098B1B0F5405F2CD06FF440510844002817
:10A8500047D115E03149324A891AC908012242EA32
:10A86000014030A104F0A0FB47E02C492C4A891A92
:10A87000C908012242EA014032A104F095FB3CE004
:10A8800025462649DFF898C0A1EB0C01C9084FF016
:10A89000010C4CEA014034A1D5E9003204F09AFBE6
:10A8A0002BE02546A86805F043FA8046D5E900105C
:10A8B0008DE8430019491A4BC91AC908012343EA14
:10A8C000014043462FA1AA6804F0A8FB1349144A8B
:10A8D000891AC908012242EA014034A104F064FB4C
:10A8E0000BE00E490E4A891AC908012242EA0140CA
:10A8F000324633A104F062FB00BF00BF00BF364800
:10A90000006800F0010000B100BE00BF22463146E1
:10A91000384600F063F8BDE8FE830000543B0300B6
:10A92000CC3A0300534F46544445564943453A20D8
:10A93000415353455254494F4E204641494C45449A
:10A9400000000000534F46544445564943453A20C1
:10A95000494E56414C4944204D454D4F5259204196
:10A960004343455353000000415353455254494F0C
:10A970004E204641494C45442061742025733A25B8
:10A98000750000004552524F52202575205B2573FB
:10A990005D2061742025733A25750D0A50432061AE
:10A9A000743A20307825303878000000456E6420F5
:10A9B0006F66206572726F72207265706F727400BC
:10A9C000554E4B4E4F574E204641554C54206174C6
:10A9D0002030782530385800F0ED00E018B501231C
:10A9E00000939DF800301E4B186059609A606FF418
:10A9F0008043034463B1012B19D1194BDA60DB6842
:10AA00001B68174CA3612346DB685B68E3610EE0BB
:10AA1000134B1A611B699B68114C636123461B69C8
:10AA20001B68A36123461B695B68E36100BF00BF2D
:10AA30000B4B1B680A4B5B68094B9B68084BDB6838
:10AA4000074B1B69064B5B69054B9B69044BDB6934
:10AA500072B600BF9DF80030002BFBD162B618BD66
:10AA60000440002070B504460D46204601F034FE37
:10AA700028B12946204601F023FE002070BD0520A4
:10AA8000FCE7034609B90E20704712B1501E104072
:10AA900008B10920F8E71960501E988000209860DE
:10AAA000D86000BFF0E770B504460D46204601F0BF
:10AAB00013FEA188884205D82946204601F01FFED2
:10AAC000002070BD0420FCE710B5024801F0CCFB6B
:10AAD00010BD0000103A002010B503460C460AB91C
:10AAE000072010BD19684A61012C01D1012000E046
:10AAF000002008610020F4E738B513480068009092
:10AB00000823582211491248006802F096FD0446B5
:10AB10000CB1204638BD0F4A69460F4801F0AAFB28
:10AB200004460CB12046F5E701210B4801F048FC32
:10AB300001230A4A1946084801F068FB0120084928
:10AB400008702046E6E700005C2E03002440002049
:10AB50004C2E03002F190300103A0020FFFF7F0046
:10AB60001C3A00202DE9F04106460D4617463446B2
:10AB7000207F10B10020BDE8F081A76101F0F6FF51
:10AB8000401941F10001C4E90201206900B12561C9
:10AB90002146002007F048FCEDE770B50446254645
:10ABA000002028772946012007F03EFC70BD0000F8
:10ABB0002DE9F04104461048077821460F48FFF779
:10ABC00051FF8046A7B100200B49087001220C49B3
:10ABD0000C4803F0F9FA054600BF2E4636B100BF17
:10ABE00009A2D6213046FCF715FB00BF00BF00BF0D
:10ABF0004046BDE8F08100009E3A0020444200201B
:10AC00009D3A0020843A00202E2E5C2E2E5C2E2EA3
:10AC10005C2E2E5C2E2E5C2E2E5C2E2E5C636F6DB9
:10AC2000706F6E656E74735C6C6962726172696577
:10AC3000735C756172745C6170705F756172745F72
:10AC40006669666F2E6300002DE9F04188B0044606
:10AC50000E46174698462B4807601EB9072008B0D5
:10AC6000BDE8F081B08882B227483168FFF709FF5C
:10AC7000054600BF284600B1F1E700BFB08982B2A7
:10AC80002248B168FFF7FDFE054600BF284600B127
:10AC9000E5E700BF20221E496846FCF705FC606915
:10ACA0000690207C08B1012000E000208DF81400FF
:10ACB0008DF81C80607C08B10E2000E000208DF82B
:10ACC0001500E0680290A068039020680190606819
:10ACD0000090104A6946104803F030FA054600BF5C
:10ACE000284600B1BBE700BF00200C49087020686F
:10ACF000401C28B101220A49074803F065FAAEE773
:10AD00000020ACE7983A0020444200205442002042
:10AD1000803003003D250300843A00209E3A002045
:10AD20009D3A00202DE9F041054629461448FFF7D9
:10AD3000BAFE064606BB134C002720781249085C71
:10AD400020B1201D05F0E8FC074608E020780E49F8
:10AD5000085C20B904F10C0005F086FB074600BF33
:10AD600057B90A490648FFF77DFE28B9012207496D
:10AD7000044803F04BFA06463046BDE8F081000077
:10AD800054420020843A0020F03900209C3A0020F0
:10AD900010B50446204606F055FF10BD70B50446B8
:10ADA00025460E488068B0B1ADB9FFF787FB06466F
:10ADB0000A4800680A490860084840684FF0E021E6
:10ADC000C1F804010020054988601EB900BF62B6C1
:10ADD00000BF00BF00BF00BF70BD00008C4000205E
:10ADE00000E100E0F8B505460C4617462088001D36
:10ADF000B84201D90C20F8BD684679DF064600BF8D
:10AE0000304600B1F7E700BF03202188685420884E
:10AE1000401C20801920218868542088401C2080F4
:10AE200020884119BDF8000007F07AFD2188084408
:10AE300020800020DFE770B505460C462068401CE6
:10AE400028B1206803F002FE206803F0B3FD6068BB
:10AE5000401C18B10321606803F092FD2868A169C5
:10AE6000C0F8241500BF617D227D286841EA0203F5
:10AE7000C0F86C3500BFD4E90012286804F0B4FFB4
:10AE8000207D012814D1A068401C18B10321A068BE
:10AE900003F076FDE068401C28B1E06803F0D6FDC1
:10AEA000E06803F087FDD4E90221286804F084FFFC
:10AEB00070BD70B505460C462068401C28B120685E
:10AEC00003F0CFFD206803F081FD6068401C18B1DD
:10AED0000021606803F061FD2868A169C0F82415AD
:10AEE00000BF617D227D286841EA0203C0F86C350D
:10AEF00000BFD4E90012286804F0B0FF207D0128CB
:10AF000014D1A068401C18B10021A06803F045FDD1
:10AF1000E068401C28B1E06803F0A3FDE06803F09E
:10AF200055FDD4E90221286804F079FF70BD0000C6
:10AF3000002114E00C48D0F81024012308E000BFE1
:10AF4000D0680079884201D1002303E0D06802680C
:10AF5000002AF4D100BF0BB108467047491C0A29EA
:10AF6000E8DB4FF0FF30F8E7FC4300202DE9F0412B
:10AF700004460F46154615B90E20BDE8F0810020A5
:10AF8000286000BF0CB90E20F7E700BF00BF2068A3
:10AF900008B90E20F1E700BF00BFE088C11700EB41
:10AFA00091718910A0EB810109B10720E5E700BF8D
:10AFB000384600F0A9FBC6B2142E01D10520DCE70B
:10AFC0002079B04201DC0420D7E7E188206806FB45
:10AFD000010028600020D0E72DE9FC4105468846A5
:10AFE0001646002437880020308095F82D0058B18F
:10AFF0003A463146404600F09FFB044600BF2046DB
:10B0000008B1BDE8FC8100BFA87850B13A4631468E
:10B010004046FFF7E7FE044600BF204600B1F0E7D8
:10B0200000BFE87860B1E97848B23B463246414615
:10B0300001F097FB044600BF204600B1E1E700BFE6
:10B04000686868B1696891F900003B46324641463C
:10B0500007F059FA044600BF204600B1D1E700BF0F
:10B06000288900280EDD43460622022105F108004A
:10B07000CDE9006707F027FD044600BF204600B178
:10B08000BFE700BF288A00280EDD434607220321C0
:10B0900005F11000CDE9006707F015FD044600BF7B
:10B0A000204600B1ADE700BF288B00280EDD4346E7
:10B0B0001522142105F11800CDE9006707F003FD02
:10B0C000044600BF204600B19BE700BF286A58B184
:10B0D0003B4632464146286A00F04EFF044600BF18
:10B0E000204600B18DE700BF686A58B13B46324642
:10B0F0004146686A02F0ECF8044600BF204600B101
:10B100007FE700BF95F82C0000280BDD3B46324658
:10B110004146284606F0AAFE044600BF204600B17C
:10B120006FE700BF287858B13B4632464146284673
:10B1300002F08AF9044600BF204600B161E700BF73
:10B1400020465EE72DE9F84306468846154600206E
:10B1500000900DB9BDE8F88309236A4641463046A0
:10B1600000F02BF80446BDF800003718BDF80000C9
:10B1700068B164B12846FCF7C7F9A04207D122465E
:10B1800039462846FCF7D5F908B90120E2E7002046
:10B19000E0E7F8B504460E461546002000902B4621
:10B1A0006A463146204600F008F807460FB90020ED
:10B1B000F8BDBDF800002044FAE7F0B504460D469E
:10B1C0001E4604B10AB90020F0BD002103E0605C16
:10B1D000401C084481B2481CA84206DA1088884204
:10B1E000F5DC481C205CB042F1D1A94201DB002013
:10B1F000EAE7881C87B2605C10B1605C401E00E02A
:10B20000002083B213B1F818A84201DD0020DBE76B
:10B2100017801846D8E72DE9F04788B004460E4657
:10B2200017460020079010200690B24602AA06A9F1
:10B23000384664DF814614B1B9F1000F03D0002015
:10B2400008B0BDE8F0879DF81800022804D0042853
:10B2500009D0102815D10DE003208DF8040002203C
:10B260008DF805000FE005208DF8040004208DF80E
:10B27000050008E007208DF8040006208DF8050081
:10B2800001E00020DCE700BF002509E001A8435DE4
:10B2900007AA31462046FFF790FF8246681CC5B2D8
:10B2A000022D03DABDF81C000028EFD0BDF81C0009
:10B2B00008B90020C4E7BDF81C0004EB0008002515
:10B2C0000DE008EB05009DF8182002A9FCF731F904
:10B2D00008B90120B4E79DF81800284485B2554507
:10B2E000EFDB0020ACE72DE9FF4104460D46164692
:10B2F00000BF1CB90E2004B0BDE8F08100BF20786B
:10B3000008B90820F7E715B90EB90E20F3E70020B9
:10B310000090019002900390DDB1D4F82004016800
:10B3200004F15500814200D001E004F24310009086
:10B330002046FFF70BFAADF8040001AA2846009951
:10B34000FFF74AFE074600BF384600B1D3E700BF0B
:10B3500000BFDEB1D4F82004816804F231208142BC
:10B3600000D001E004F21F3002902046FFF7EEF912
:10B37000ADF80C0003AA30460299FFF72DFE0746F0
:10B3800000BF384600B1B6E700BF00BF04F58060DB
:10B390009DE88E0010308EC01038C4F820040022C2
:10B3A00004F15400D4F8201472DFA4E780F83010C0
:10B3B000704770B504460D4605B10CB90E2070BD3E
:10B3C00005F1780000F071FD08B90720F7E70020CB
:10B3D000A0702C2205F17801201DFCF765F80020F3
:10B3E00084F83000D5F8A4006063D5F8A800A06305
:10B3F0004FF6FF70A4F8240404F58260C4F820041A
:10B40000002140F22C40C4F82614A4F82A14015557
:10B41000207810B9FF2084F8540004F15500C4F8D6
:10B4200010042046FFF792F940F21441085304F249
:10B43000144204F155012846FFF7CEFD064600BF31
:10B44000304600B1BBE700BF04F231204FF4836106
:10B4500008512046FFF77AF9A4F81C044FF48360E2
:10B46000015904F21C4205F13C00FFF7B5FD064608
:10B4700000BF304600B1A2E700BF012151200155B5
:10B48000208B81B248200153012084F83C00002128
:10B490002164502001556169616404F13C0200217E
:10B4A00004F1540072DF064600BF304600B186E763
:10B4B00000BF01202070304681E770B504460D467C
:10B4C0002E462088102804D0112807D026280FD116
:10B4D00009E02146304605F079FA0AE02146304677
:10B4E00005F039FB05E02146304605F096FC00E00A
:10B4F00000BF00BF70BD70B504460E46207808B985
:10B50000082070BDA670002140F22C40C4F826141B
:10B51000A4F82A140155A07910B1A078012809D007
:10B52000E07910B1A078012804D0E07970B1A0785A
:10B5300002280BD1606B30B1012084F82D04082063
:10B54000616B884702E0002084F82D0431462046D4
:10B55000FFF7ACF8A070606BA0B1A078032802D010
:10B56000A07804280ED1607960B194F82E0448B90F
:10B57000002084F83004012084F82F040720616B38
:10B58000884702E0002084F82F04182104F13C00D1
:10B59000FBF7A3FF012084F83C0004F12C0005F028
:10B5A00037FD20B194F82C105120015502E0012103
:10B5B0005120015594F8240060B104F1280005F0F1
:10B5C00027FD20B194F828105220015502E00121F6
:10B5D00052200155002150200155A078052824D281
:10B5E000DFE800F01F030A11180004F13C012046B7
:10B5F00006F09FFC054619E004F13C01204606F0E8
:10B6000080FC054612E004F13C01204606F0A3FC54
:10B6100005460BE004F13C01204606F0CAFC054655
:10B6200004E0002084F8310000E000BF00BFA078F3
:10B6300098B104F13C0204F15400D4F8201472DFF4
:10B6400005460DB128465CE794F8301094F8540094
:10B6500073DF05460DB1284653E7606B18B194F8C7
:10B660003100616B884700204BE700002DE9F04175
:10B67000044600BF14B90E20BDE8F08100BF1C22B3
:10B6800021461C48FBF710FF1B481A490860206838
:10B6900060B120687ADF05460DB12846ECE7164810
:10B6A00021680A6802604968416005E012487BDF52
:10B6B00005460DB12846DFE7002617E006EB8600B9
:10B6C0000E4901EB800700BF4FF6FF70388000BFC6
:10B6D0000B4800EB461078600A4A0021381DFFF73E
:10B6E000FBF905460DB10320C6E7761C002EE5D018
:10B6F0000020C1E77C3E0020E0390020683E0020A9
:10B70000483E0020092A030010B50446204600F0F8
:10B7100005F808B1204610BD1420FCE710B504461A
:10B72000142C01DB002010BD2146024801F0E0FF8F
:10B73000F9E700009C3E00202DE9FC4105460C463F
:10B74000174620880930B84202D90C20BDE8FC8198
:10B7500068466DDF064600BF304600B1F6E700BF21
:10B760000820218868542088401C20801B202188C4
:10B7700068542088401C208020882844DDF801106F
:10B780000160BDF8051081802088801D20809DF813
:10B790000000400818B900202188685402E0012008
:10B7A000218868542088401C20800020CEE70000BB
:10B7B00070B505460E462888102802D011282CD1D5
:10B7C00015E01748006860B900F034FC044600BF7B
:10B7D00034B11448006818B12046124909688847F6
:10B7E00000BF0F480068401C0D49086016E00C4877
:10B7F0000068401E0A4908600846006860B9FEF704
:10B80000DFFF044600BF34B10648006818B1204687
:10B8100004490968884700BF00E000BF00BF70BD51
:10B82000DC390020D839002070B504460D46208848
:10B83000102806D0112808D012280ED0502810D178
:10B8400007E0204605F050F80CE0204605F06AF9C4
:10B8500008E0204605F012FB04E0204605F02CF835
:10B8600000E000BF00BF70BD2DE9F04104460F4667
:10B87000A6882088102806D0112819D019283FD072
:10B880001A284AD118E005F0E9FF304605F072FEAB
:10B8900030B900BF22A2F0210420FBF7BBFC06E078
:10B8A000E07B022803D131462C4801F030FF34E020
:10B8B000304605F0F7FF30E0207A0509042D01DB62
:10B8C000012000E000200246314624480C3000F000
:10B8D00039FF032D01DB012000E000200246314644
:10B8E0001E48083000F02EFF022D01DB012000E091
:10B8F0000020024631461948001D00F023FF0CE0ED
:10B90000207A48B9607AC0F3C0052A463146134808
:10B910000C3000F017FF00BF00BF00BFBDE8F08192
:10B920002E2E5C2E2E5C2E2E5C2E2E5C2E2E5C2E51
:10B930002E5C2E2E5C636F6D706F6E656E74735C23
:10B94000626C655C636F6D6D6F6E5C626C655F638E
:10B950006F6E6E5F73746174652E6300A43E002089
:10B9600070B58EB004460E463E4B0FCB09AD0FC5E9
:10B9700000BF14B90E200EB070BD00BF00BF0EB9DD
:10B980000E20F8E700BF3068A061214609A862DFF9
:10B99000054600BF284600B1EDE700BF20788DF8CE
:10B9A00036000120ADF83400A21C0DA9A8DF054621
:10B9B00000BF284600B1DEE700BF202101A8FBF749
:10B9C0008CFD0220ADF8040020788DF80600F420EC
:10B9D000ADF808000120ADF80A008DF810009DF8C0
:10B9E000110020F0080008308DF811009DF81100BA
:10B9F00020F00400001D8DF8110001208DF81500C5
:10BA00008DF81600608804F10C0201A900F02AF9F3
:10BA100005460DB12846AEE7202101A8FBF75DFDE4
:10BA20000320ADF8040020788DF80600F420ADF86E
:10BA300008000120ADF80A008DF810009DF81100F3
:10BA400020F0100010308DF8110001208DF8150045
:10BA50008DF816008DF817006088221D01A900F0EE
:10BA600001F988E79C2D030070B504460D4605B129
:10BA700004B970BD2E462088102804D0502807D065
:10BA800057280FD109E02146304604F065FF0AE04F
:10BA90002146304605F01EFA05E02146304605F005
:10BAA00013F900E000BF00BF00BFE2E770B5044635
:10BAB000204606F02FFF054605F0010070BD00008E
:10BAC00030B503460020042B23D2012A07D10129D7
:10BAD00003D103F10E04E4B200E00024224679B160
:10BAE000012902D0022911D104E003EB43040A4DDD
:10BAF0002A550DE003EB4304074D2C44627007E028
:10BB000003EB4304044D2C44A27001E0072000BF66
:10BB100000E0072030BD0000183E00202DE9FC4762
:10BB200004460D461646A71C4FF001080020019060
:10BB300001A8FFF72DF93048406828602E4840687A
:10BB40002D498968411A2D480068401CA0EB010965
:10BB500015E001212A4801F0FEFD01F001FB8246BB
:10BB60005146274801F0F7FD23484068224989687B
:10BB7000411A22480068401CA0EB010900BF4F4554
:10BB8000E7D8B8F1000F30D00021009176B10099CC
:10BB900021F00301491C0091009921F00401091DC5
:10BBA0000091009964F3891100910DE0009921F052
:10BBB0000301891C0091009921F00401091D0091E5
:10BBC000009964F39F5100910B4949680B4A126830
:10BBD0001140094A0C3202EB8100009901600649CC
:10BBE000496839440C3A516000BF9DF80400FFF7E2
:10BBF000D5F84046BDE8FC87FC430020B83A002059
:10BC00001848002070B504460D460A2D03D10D21B9
:10BC10002046FFF7F7FFA168481CA0602068455444
:10BC2000D4E90110884202D3204602F026FB70BD01
:10BC30000448806803494968884201D1012070475F
:10BC40000020FCE7FC4300200146024850F8210098
:10BC500070470000283F00200146014840567047C9
:10BC6000583F002070B590B006460C461546A078A7
:10BC700018B901208DF80E0002E0A0788DF80E00B2
:10BC80002088ADF80C0000200290607C02A906F02C
:10BC9000BEF9A07C0DF1090106F0B9F9E07B08B10D
:10BCA000012000E000209DF80A1060F3C3018DF828
:10BCB0000A10207C08B1012000E000209DF80A1045
:10BCC00060F304118DF80A10207B08B1012000E018
:10BCD00000209DF80A1060F300018DF80A10207D05
:10BCE00008B1022000E001209DF80A1060F3420133
:10BCF0008DF80A101C2109A8FBF7EFFB607BC0F34D
:10BD0000001018B9607BC0F34010F8B1002000901B
:10BD1000E07C0DF1010106F07AF900BF9DF800000A
:10BD200020F00F00401C8DF800009DF8000020F06E
:10BD3000F00010308DF8000000BF9DF8020020F0E8
:10BD40000600801C8DF80200CDF838D0607B8DF89D
:10BD50002400A07B8DF82500142104A8FBF7BDFB6F
:10BD600003A8049002A80590A088ADF81C00A06864
:10BD700020B1E088ADF81800A0680890A0690028FC
:10BD800049D000200190A0690088ADF82C00A0697E
:10BD90004088ADF82E00A06940680A9001A80D9077
:10BDA000A169087B01A906F032F9A169487B0DF170
:10BDB000050106F02CF9A069807A08B1012000E0A5
:10BDC00000209DF8061060F3C3018DF80610A069ED
:10BDD000C07A08B1012000E000209DF8061060F351
:10BDE00004118DF80610A069007A08B1012000E066
:10BDF00000209DF8061060F300018DF80610A06980
:10BE0000807B08B1022000E001209DF8061060F35D
:10BE100042018DF80610E06908B1E0690C902B46EC
:10BE200004AA09A93046AADF10B070BD70B5054656
:10BE30000DB9094C01E0084C083409E0204601F036
:10BE40005DF9064606B904E028467168884700BFD8
:10BE5000F4E700BF70BD00001C3F002010B5044691
:10BE60002CB90120064948700020FFF7DFFF012CA4
:10BE700004D1012002498870FFF7D8FF10BD0000EF
:10BE8000143F00202DE9F047024613468C46D3E9C3
:10BE90000245DCE90267B6EB040877EB050002D344
:10BEA0000120BDE8F0870020FBE7014688780128E3
:10BEB00005D191F82000012801D100207047012010
:10BEC000FCE70246002007E0536833F810308B424D
:10BED00000D17047431C98B213888342F4DC00BF42
:10BEE000F7E733B58BB00546002000900C9878B189
:10BEF00000240BE021460CA801F0FAFB28B1009ABF
:10BF0000501C009001A820F81240641C142CF1D39E
:10BF10002C2269462846FBF7C7FA0DB030BD014612
:10BF20000888062808DB0888B0F5486F06DD088811
:10BF30004FF6FF72904201D00720704748880628CC
:10BF400008DB4888B0F5486F06DD48884FF6FF7279
:10BF5000904201D00720F0E708884FF6FF72904228
:10BF600008D04888904205D008884A88904201DD70
:10BF70000720E2E70020E0E72DE9F04107460D4603
:10BF8000144698462088801D404502D90C20BDE803
:10BF9000F0813846FFF7C3FF064600BF304600B1C8
:10BFA000F5E700BF0520218868542088401C2080C8
:10BFB0001220218868542088401C20802288511932
:10BFC000388806F0ADFC2188084420802288511969
:10BFD000788806F0A5FC2188084420800020D6E758
:10BFE000F8B505460C46607A88B9207A10B9104831
:10BFF000476801E00E4887682A4639466068FEF7C0
:10C00000B1FD064616B1304605F0D0FE0EE0002028
:10C0100020720748406948B101208DF80000ADF852
:10C020000250034841696846884700BFF8BD0000D8
:10C030007C3E002010B5012200210846FFF740FD9C
:10C04000044600BF1CB1072C01D0204610BD00BF24
:10C05000072202210120FFF733FD044600BF1CB177
:10C06000072C01D02046F1E700BF04220221002066
:10C07000FFF726FD044600BF1CB1072C01D0204667
:10C08000E4E700BF0020E1E72DE9FF4105460C464B
:10C09000002002900390ADF80840ADF80A400090EF
:10C0A00001906A4602A9284690DF0646002E32D04B
:10C0B000304603F03DFE074619491A4A891AC90855
:10C0C000012242EA01403B462A46174902F082FF1C
:10C0D000BDF8000010B9BDF8020068B1BDF802302B
:10C0E000BDF800200E490F4FC91BC908012747EAB8
:10C0F00001400EA102F06EFFBDF8040058B1BDF87A
:10C1000004200749074BC91AC908012343EA014023
:10C11000164902F053FF304604B0BDE8F08100003C
:10C12000CC3A0300CC3A03005C320300546865202B
:10C130007265717565737465642054582F52582068
:10C140007061636B6574206C656E677468206973D9
:10C1500020746F6F206C6F6E672062792025752FB9
:10C160002575206F63746574732E0000A832030078
:10C1700070B506460D4616B14FF4064070BD2879DD
:10C1800020B1012809D0022815D111E00220287120
:10C19000284605F04DFA044610E0284600F0B8FAAB
:10C1A000044648F20960844201D141F61D5405E07D
:10C1B00041F61D5402E048F20E6400BF00BF204665
:10C1C000DCE7000010B50021034801F0F0FA044656
:10C1D00084F3100010BD00001848002070B505461B
:10C1E0000C464FF4803000FA04F1284600F040FA83
:10C1F00070BD70B505460C464FF4A07000EB84008E
:10C2000086B23146284600F04DFA70BD2DE9F04760
:10C2100004460D4616461F464FF4803000FA05F8D6
:10C220004FF4A07000EB85001FFA80F926F07F46DE
:10C230004146206803F010FA4146206803F006FAF0
:10C240004946206803F0FBF932462946206803F08E
:10C25000EDF94146206803F0FCF91FB14146206822
:10C2600003F0FDF9BDE8F08710B50446206803F03F
:10C27000E2F910BD2DE9F04704460D4617466079F6
:10C28000324941F820706079314901EBC0000079F2
:10C2900068B108262F49304A891AC908022242EAA1
:10C2A00001402EA102F080FE3046BDE8F0872988CB
:10C2B0002068C0F8081500BF94F90420AB78104638
:10C2C0001946002808DB4FEA417C4FEA1C68DFF87A
:10C2D000B0C00CF800800BE04FEA417C4FEA1C69CB
:10C2E000DFF8A0C000F00F08A8F104080CF80890CF
:10C2F00000BF00BF94F90410084600280DDB00BF02
:10C3000000BF00F01F0301229A4043099B0003F184
:10C31000E023C3F8002100BF00BF00BF00BF012021
:10C3200061790B4A02EBC10108716079114641F84D
:10C33000304000260749084A891AC908032242EA00
:10C34000014011A102F030FE3046AEE7343A002041
:10C35000383A0020343B0300CC3A030052544320C7
:10C36000696E7374616E636520616C726561647976
:10C3700020696E697469616C697A65642E000000D9
:10C3800000E400E018ED00E05254433A20696E6981
:10C390007469616C697A65642E00000010B501460D
:10C3A00091F90400002807DB00F01F0301229A40E6
:10C3B000024B440943F8242000BF10BD00E200E016
:10C3C00070B505460C4622460221284600F05CF96D
:10C3D00070BD10B504464FF48271204600F062F93A
:10C3E00010BD10B504460021206803F03BF910BDD4
:10C3F00010B504460421206803F034F910BD2DE97E
:10C40000F84F04468846154699464FF4803000FAA6
:10C4100008FA4FF4A07000EB88001FFA80FB25F0AB
:10C420007F455146204600F023F9206803F003F9C8
:10C4300006464146206803F0F3F800903246414634
:10C44000206803F0F3F85946206803F0F8F8314605
:10C45000009805F063FF012806D1102003F04AFD83
:10C460005946206803F0EBF8206803F0E4F806462C
:10C470003146284605F052FF07465146206803F032
:10C48000E8F8012F0FD16A1C4146206803F0CEF86E
:10C49000102003F02FFD206803F0CDF8B04225D026
:10C4A0000D20BDE8F88F2A464146206803F0BEF80B
:10C4B000206803F0C0F80646681E314605F02EFFDE
:10C4C00007466FF07F40A0EB0900B84201D20D2073
:10C4D000E7E75FB96A1C4146206803F0A7F82068C7
:10C4E00003F0A9F8B04201D00D20DAE7012251464D
:10C4F000204600F0C9F80020D3E700002DE9F843FA
:10C5000005460E461746984669461048006801F0F1
:10C51000A8F8044614B90420BDE8F8831C2120467D
:10C52000FAF7DBFF012020712560C4F80880084875
:10C530000068B6FBF0F0E060676169460348006898
:10C5400001F0B9F804F0E2FF0020E5E7FC2E03005B
:10C55000F02E030010B50446D4E90321501828DF5B
:10C5600010BD0278072A38D2DFE802F0370407123C
:10C57000222B340000220A7030E001220A70038965
:10C580008B818388CB81C2688A6000230B7425E08D
:10C5900002220A7003898B818388CB81C2688A60FA
:10C5A000827D062A01D1012300E000230B7415E0EF
:10C5B00003220A70C3888B810389CB81C2688A6099
:10C5C0000CE004220A70C3888B810023CB810022F7
:10C5D0008A6003E005220A7000E000BF00BF7047D8
:10C5E00070B50546002409E0064850F8240020B143
:10C5F000044850F8241028468847641C042CF3D3C0
:10C6000070BD00009840002030B587B004460D464C
:10C610002068806808B907B030BD182101A8FAF772
:10C620005CFF0295A0680690207910B1012815D111
:10C6300009E001208DF8040020690390E06804906F
:10C64000606905900BE002208DF804000749E0685E
:10C650000968484303906069059000E000BF00BF8F
:10C660002068816801A8884700BFD4E7F02E030046
:10C6700070B504460D462946206802F0E7FF2946BA
:10C68000206802F0E9FF70BD70B504460E461546FD
:10C690003146206802F0DDFF1DB13146206802F00E
:10C6A000DEFF70BD70B505460C462868015929B1FA
:10C6B0002146286802F0C3FF012070BD0020FCE77E
:10C6C00070B504460D462A460021204600F00EF8BB
:10C6D000A068401CA06070BD01468A68C868801AC6
:10C6E000704701468A68C868801A704710B5836829
:10C6F0000B44848823400468E35C137010BDC26857
:10C7000083881A4003689954C268521CC2607047FB
:10C710003EB504460A4B6A460021A01D04F03EFFC8
:10C72000054635B9064A9188019805F019F805467D
:10C7300003E0034800210160416028463EBD00003F
:10C740005C3A002070B505460E46144624B13146C9
:10C75000284600F0DCFF03E03146284600F0B9FF30
:10C7600070BD30B504461088C01C984201D90C2019
:10C7700030BD0220158848551088401C10800120CB
:10C78000158848551088401C108015884C55108815
:10C79000401C10800020EBE770B504460D4640F2C7
:10C7A0001442115B0122D4F81004FEF7F2FC064695
:10C7B00006B1357004F13C0204F5826104F15400C5
:10C7C00072DF70BD10B50446606804F0F5FD10BD61
:10C7D00070B506460C4604F11005E888022801DD14
:10C7E000092070BDE988304602F06EFD6060606827
:10C7F00008B90420F5E7EA88A9680023606802F018
:10C80000EEFD0020EDE770B506460C4604F110057C
:10C81000A8680088102801DD092070BDA86800887C
:10C82000811C304602F050FD6060606808B9042049
:10C83000F3E7A96800230222606802F0D0FDAB682C
:10C840001A88E9680223606802F0C9FD0020E4E765
:10C8500070B5054615B14FF4064070BD1848007B11
:10C8600018B100201649087301E000F0DFF8144801
:10C87000007808281DD2DFE800F01C04080C101C0A
:10C88000141800F03FF8044616E000F0BDF8044626
:10C8900012E000F099F804460EE000F047F8044674
:10C8A0000AE000F035F9044606E000F043F90446DA
:10C8B00002E048F20E6400BF00BF2046CDE7000052
:10C8C0006C4100200D480089401C0C490881002063
:10C8D0004880087300BF0DE000EB8001084A12F8A1
:10C8E000211009B9012200E0002204490A310A544A
:10C8F000411C88B20228EFDB704700006C41002029
:10C900004441002010B5084800F036F840B9002036
:10C910000549891E08704880486041F61D5010BDC9
:10C9200000F072F8FBE700006E41002070B50F4880
:10C93000458805EB85000E4901EB8000C06878B999
:10C9400004200A49087005EB8500094A02EB8000C3
:10C95000002301224168074801F096FD044602E0E9
:10C9600000F090F80446204670BD00006C410020A5
:10C9700044410020C43D002010B5014600220020A3
:10C9800018E00F4B1B5C9BB100240D4B1C5400EBBB
:10C9900080030C4C04EB8303DB684BB900EB800392
:10C9A00004EB83031B7C012B02D10880012203E0EE
:10C9B000431C98B20228E4DB00BF104610BD000003
:10C9C0007641002044410020F8B50C4844680C48EA
:10C9D00000680B49898800EB81056088C01C86B21D
:10C9E0000320064908700020B3000090084629463D
:10C9F0004268044801F06AFEF8BD00006C41002066
:10CA0000543A0020C43D002010B507494888091D4C
:10CA100004F06AFE18B1FFF7D7FF044602E0FFF703
:10CA200085FF0446204610BD6C41002010B5144817
:10CA30000078082820D2DFE800F0041F1F0A101633
:10CA4000171BFFF73FFF01200D49087015E000F0AC
:10CA50007DF802200A4908700FE000F029F806204E
:10CA60000749087009E000BF07200549087004E085
:10CA700001200349087000E000BF00BF10BD0000A6
:10CA80006C41002010B505200649087002200649B7
:10CA900088800846002301220168044801F0F4FC64
:10CAA00010BD00006C410020543A0020C43D00201D
:10CAB000144908681449498801EB8101134A02EBC3
:10CAC000810149680F4A11600F49498801EB8101D2
:10CAD0000E4A02EB810148600A4989880A4A528855
