:020000040002F8
:10700000E8740020DD730200E5730200E7730200FC
:10701000E9730200EB730200ED7302000000000050
:10702000000000000000000000000000EF730200FC
:10703000F173020000000000F3730200F573020018
:10704000518D0200F7730200D5980200F773020019
:10705000F773020000000000958C020000000000A1
:10706000759802008D980200A5980200F77302003F
:10707000F7730200F7730200F7730200F773020060
:1070800085A202000D960200F7730200F77302005A
:10709000F7730200F7730200B1960200F773020063
:1070A000F7730200F7730200BD98020000000000B1
:1070B00000000000000000000000000000000000D0
:1070C00000000000000000000000000000000000C0
:1070D000000000000000000000000000F773020044
:1070E00000000000000000000000000000000000A0
:1070F0000000000000000000000000000000000090
:10710000000000000000000000000000000000007F
:10711000000000000000000000000000000000006F
:10712000000000000000000000000000000000005F
:10713000000000000000000000000000000000004F
:10714000000000000000000000000000000000003F
:10715000000000000000000000000000000000002F
:10716000000000000000000000000000000000001F
:10717000000000000000000000000000000000000F
:1071800000000000000000000000000000000000FF
:1071900000000000000000000000000000000000EF
:1071A00000000000000000000000000000000000DF
:1071B00000000000000000000000000000000000CF
:1071C00000000000000000000000000000000000BF
:1071D00000000000000000000000000000000000AF
:1071E000000000000000000000000000000000009F
:1071F000000000000000000000000000000000008F
:10720000DFF80CD000F016FA0048004749D202001F
:10721000E874002000B583B002900091019244F21E
:10722000010071466A4603F003FB03B000BD000095
:1072300030B450E8012F93B2C48923448489A34217
:1072400028BF1B1B0489A34202BFBFF32F8F00205E
:1072500007E0C3EA020340E80134002CE9D14FF013
:1072600001000A6030BC704750E8012FC2EA0242B8
:1072700040E801210029F7D1704730B450E8022FCF
:107280001FFAA2F3C488A34202BFBFF32F8F0020CE
:107290000DE0C48923448489A34228BF1B1BC2EA92
:1072A000034340E80234002CE8D14FF001000A60AB
:1072B00030BC704750E8022FC2EA224240E8022167
:1072C0000029F7D17047034653E8022FD988B2EB63
:1072D000324F4FF0000017BF92B241EA014142EA3B
:1072E000014104E05A68B2EB324F08BF012043E885
:1072F0000212002AE8D1704730B4044654E8000F67
:107300000D4644E80053002BF8D1156030BC70479F
:1073100030B4044654E8000F40EA010544E8005345
:10732000002BF7D1156030BC704730B4044654E8E8
:10733000000F00EA010544E80053002BF7D1156067
:1073400030BC704730B4044654E8000F80EA0105B1
:1073500044E80053002BF7D1156030BC704730B4BF
:10736000044654E8000F00EB010544E80053002BED
:10737000F7D1156030BC704730B4044654E8000FB4
:10738000A0EB010544E80053002BF7D1156030BC99
:10739000704770B404464FF0000054E8006F0D6869
:1073A000AE4207BF44E80023012044E800630E60BA
:1073B000002B1CBF0020F0E770BC704730B40446BF
:1073C00054E8000F88422CBF451A054644E8005394
:1073D000002BF5D1156030BC70470000064880478F
:1073E00006480047FEE7FEE7FEE7FEE7FEE7FEE7AA
:1073F000FEE7FEE7FEE7FEE7C99602000172020023
:107400002DE9F05F0546002092469B4688460646D9
:10741000814640241BE0284641464746224600F06C
:107420002FF853465A46C01A914110D311461846B8
:10743000224600F016F82D1A67EB01084F46224647
:107440000120002100F00DF817EB00094E41201E2D
:10745000A4F10104DFDC484631462A464346BDE834
:10746000F09F202A04DB203A00FA02F10020704746
:107470009140C2F1200320FA03F319439040704772
:10748000202A04DB203A21FA02F00021704721FA79
:1074900002F3D040C2F120029140084319467047E0
:1074A000004870477832030040EA01039B0703D08D
:1074B00009E008C9121F08C0042AFAD203E011F833
:1074C000013B00F8013B521EF9D27047D2B201E0F5
:1074D00000F8012B491EFBD270470022F6E710B5D9
:1074E00013460A4604461946FFF7F0FF204610BD32
:1074F000421E12F8013F002BFBD111F8013B02F8AC
:10750000013B002BF9D17047421C10F8011B0029E8
:10751000FBD1801A704710B5002200E0521C835C3A
:107520008C5CA34201D1002BF8D1D8B2E1B2401A51
:1075300010BD30B504460020034600E05B1C9342BA
:1075400003D2E05CCD5C401BF8D030BD034611F89F
:10755000012B00F8012B002AF9D11846704730B5ED
:1075600005460020034600E05B1C934205D2EC5C1C
:10757000C85C201A01D1002CF6D130BD70B506468A
:1075800002F07AFF046805460A220021304600F026
:1075900018F82C6070BD30B50B4601460020202243
:1075A000012409E021FA02F59D4205D303FA02F510
:1075B000491B04FA02F52844151EA2F10102F1DC70
:1075C00030BD2DE9F04791460F468046044600261F
:1075D00014F8015B2DB1FFF763FF0068405DC00741
:1075E000F6D12B2D02D02D2D18D0641E4A463946D7
:1075F000204600F031F827B13968A14201D1C7F81F
:10760000008071054FF002040BD54042002803DDD5
:1076100002F032FF0460A007BDE8F08746F4806600
:10762000E4E70028F8DA02F027FF04606FF000407A
:10763000F2E70000064C074D06E0E06840F0010369
:1076400094E8070098471034AC42F6D3FFF7DCFD0E
:10765000BC3A0300DC3A03002DE9F05F8246007873
:10766000002715468B460AF10104B946302801D09F
:107670009DB113E014F8010B0127782803D0582896
:1076800001D045B10AE00DB1102D07D1002710251A
:1076900014F8010B02E0082500E00A250026B04698
:1076A0000EE005FB080005FB06F1012701EB104683
:1076B0001FFA80F8B6F5803F00D3B94614F8010BE5
:1076C000294600F018F80028EBDABBF1000F05D0CE
:1076D0000FB1641E00E05446CBF80040B9F1000F32
:1076E00006D002F0C9FE02210160C81EBDE8F09F6D
:1076F00048EA0640FAE73A2800D2303820F0200263
:10770000412A01D3A2F13700884201D34FF0FF3064
:10771000704770B58C1810F8015B15F0070301D1A4
:1077200010F8013B2A1106D110F8012B03E010F8E4
:10773000016B01F8016B5B1EF9D12B0705D4002307
:10774000521E0DD401F8013BFAE710F8013BCB1AA9
:10775000921C03E013F8015B01F8015B521EF9D59E
:10776000A142D8D3002070BDF8B50446684601F0A8
:1077700097FE14B1032C11D111E00321094803F045
:10778000C8FE054600BF2E4636B100BF06A25F21E7
:107790003046FFF73FFD00BF00BF00E000BF00BF65
:1077A000F8BD0000444C00202E2E5C2E2E5C2E2EA8
:1077B0005C2E2E5C2E2E5C2E2E5C2E2E5C75736540
:1077C000725C757365725F626C652E630000000009
:1077D000F0B5BDB0044665784FF6FF7000EA0525A8
:1077E000207805432749284A891AC908032242EA12
:1077F00001402A4625A107F0EDFB1222A11C38A862
:10780000FFF752FEADF8D45038A935A88160122098
:10781000ADF8D800684601F0D5FBAC210AA8FFF707
:107820005CFE00208DF82A0006208DF82B0009A8A8
:107830000B9035A8139002208DF864000121ADF85B
:10784000741016491E9101218DF8A41006992C91EF
:1078500000212D91124833900AA9124803F0B7FD78
:10786000064600BF374637B100BF0FA24921384650
:10787000FFF7D0FC00BF00BF01210A4803F0A4FDC0
:107880003DB0F0BD743B0300EC3A030069642D2D5C
:107890002D2D2D206973203078257800683B00203D
:1078A00069770200444C00202E2E5C2E2E5C2E2E7A
:1078B0005C2E2E5C2E2E5C2E2E5C2E2E5C7573653F
:1078C000725C757365725F626C652E630000000008
:1078D00070B503210A4803F01CFE04460CB102F007
:1078E000ABFD00BF254635B100BF06A26E2128467C
:1078F000FFF790FC00BF00BF012001F06FFD70BDDD
:10790000444C00202E2E5C2E2E5C2E2E5C2E2E5CE7
:107910002E2E5C2E2E5C2E2E5C757365725C75733C
:1079200065725F626C652E630000000070B50B49E4
:1079300091F8540074DF04460CB102F07DFD00BFE5
:10794000254635B100BF06A27C212846FFF762FC20
:1079500000BF00BF002001F041FD70BD444C00207D
:107960002E2E5C2E2E5C2E2E5C2E2E5C2E2E5C2E51
:107970002E5C2E2E5C757365725C757365725F622A
:107980006C652E6300000000F0B5B1B00446657868
:107990004FF6FF7000EA0525207805431222A11C4E
:1079A0000EA8FFF781FD04A801F00CFBADF8045010
:1079B0000EA903911220ADF808003C2122A8FFF780
:1079C0008CFD3C2113A8FFF788FD00208DF88A006C
:1079D0000DA8239001A82B9006208DF88B00012084
:1079E000ADF85C000C49189102208DF84C0013AAE8
:1079F00022A90A4803F085FC064600BF37463FB17E
:107A000000BF07A240F293113846FFF703FC00BF06
:107A100000BF31B0F0BD0000683B0020444C0020A6
:107A20002E2E5C2E2E5C2E2E5C2E2E5C2E2E5C2E90
:107A30002E5C2E2E5C757365725C757365725F6269
:107A40006C652E630000000013210248008876DF79
:107A500070470000583B0020F8B505460F462888BF
:107A6000212851D006DC10280BD0112833D0132840
:107A700071D15CE03B286FD052286FD05628F7D1E7
:107A800091E0012001F0BCFD00F08FFE00F006FB4C
:107A9000002001F0A3FC4E494E4A891AC90803226E
:107AA00042EA01404CA107F08BFAA8884D490880B2
:107AB000084601884C4806F000F8044600BF2646F8
:107AC0003EB100BF49A24FF4F5713046FFF7A2FB6B
:107AD00000BF00BF79E0002001F092FD00F03EFE03
:107AE000012001F07BFC00F0AFFA3949394A891ACC
:107AF000C908032242EA014046A107F061FA4FF6A5
:107B0000FF703849088060E000200090A88869462E
:107B10008FDF044600BF26463EB100BF33A240F2CD
:107B2000FF113046FFF776FB00BF00BF4DE000239A
:107B30001A4685212B4800887FDF044600BF264671
:107B40003EB100BF29A240F205213046FFF762FB9B
:107B500000BF00BF39E037E014E0FFE700231A461A
:107B6000194620480088B1DF044600BF26463EB1D2
:107B700000BF1EA240F20B213046FFF74BFB00BFB7
:107B800000BF22E0A888132176DF044600BF264606
:107B90003EB100BF15A240F212213046FFF73AFB7A
:107BA00000BF00BF11E0A888132176DF044600BFA4
:107BB00026463EB100BF0DA240F219213046FFF724
:107BC00029FB00BF00BF00E000BF00BFF8BD000000
:107BD000743B0300EC3A0300436F6E6E656374659B
:107BE00064000000583B0020384C00202E2E5C2EF4
:107BF0002E5C2E2E5C2E2E5C2E2E5C2E2E5C2E2EBF
:107C00005C757365725C757365725F626C652E631B
:107C100000000000446973636F6E6E656374656491
:107C20000000000010B5044600BF04A240F21B1182
:107C30002046FFF7EFFA00BF10BD00002E2E5C2E8D
:107C40002E5C2E2E5C2E2E5C2E2E5C2E2E5C2E2E6E
:107C50005C757365725C757365725F626C652E63CB
:107C60000000000030B587B01C216846FFF735FCE6
:107C7000002000904FF4A03001904FF4F0200290CB
:107C800003208DF80C004FF6FF70ADF80E000120B8
:107C90008DF810000020059009480690684603F012
:107CA000F3FC044600BF25463DB100BF05A240F2EB
:107CB00017112846FFF7AEFA00BF00BF07B030BD6E
:107CC000257C02002E2E5C2E2E5C2E2E5C2E2E5C31
:107CD0002E2E5C2E2E5C2E2E5C757365725C757379
:107CE00065725F626C652E630000000030B58DB078
:107CF000684601F067F900BF9DF8280020F00F00EA
:107D0000401C0A909DF8280020F0F00010300A90E6
:107D100000BF6846FFF7F8FB85B22A4669460AA805
:107D20007CDF044600BF254635B100BF15A2FA210D
:107D30002846FFF76FFA00BF00BF00200B900C90A1
:107D40001A48008EADF82C001848408EADF82E0071
:107D50001648808EADF830001448C08EADF8320061
:107D60000BA87ADF044600BF25463DB100BF05A23F
:107D70004FF482712846FFF74DFA00BF00BF0DB0E7
:107D800030BD00002E2E5C2E2E5C2E2E5C2E2E5C26
:107D90002E2E5C2E2E5C2E2E5C757365725C7573B8
:107DA00065725F626C652E630000000078500020F1
:107DB00070B50021084805F09FFD044600BF254628
:107DC0003DB100BF05A24FF498712846FFF722FA93
:107DD00000BF00BF70BD00001C4C00202E2E5C2E8A
:107DE0002E5C2E2E5C2E2E5C2E2E5C2E2E5C2E2ECD
:107DF0005C757365725C757365725F626C652E632A
:107E0000000000002DE9F0410546287800283FD108
:107E10002049214A891AC908032242EA01401FA1C8
:107E200007F0CEF8002623E000BF2969885D02F044
:107E300087FF0446002C18D0112C16D01549164A7D
:107E4000891AC908012242EA0140224617A107F017
:107E5000C1F800BF27463FB100BF1FA240F2511139
:107E60003846FFF7D7F900BF00BF112CDDD0761CD4
:107E7000A88AB042D8D8A88A401E2969085C0D2873
:107E800005D100BF0A2002F05BFF1128FAD000BF25
:107E9000BDE8F081743B0300EC3A03007265636552
:107EA0006976652073756363657373004661696CF9
:107EB000656420726563656976696E67204E555307
:107EC000206D6573736167652E204572726F722035
:107ED000307825782E2000002E2E5C2E2E5C2E2E43
:107EE0005C2E2E5C2E2E5C2E2E5C2E2E5C75736509
:107EF000725C757365725F626C652E6300000000D2
:107F000010B5044600BF04A240F2B9112046FFF7A5
:107F100081F900BF10BD00002E2E5C2E2E5C2E2E8F
:107F20005C2E2E5C2E2E5C2E2E5C2E2E5C757365C8
:107F3000725C757365725F626C652E630000000091
:107F400070B504462078032802D0042810D104E03C
:107F50006568284600F0E2FA0BE00749074A891AEB
:107F6000C908032242EA014005A107F029F800E010
:107F700000BF00BF70BD0000743B0300EC3A03007B
:107F80005363616E2074696D6564206F75742E0093
:107F90007FB5002000900190029003901C48009053
:107FA0001C4A69461C4805F09DFE044600BF254654
:107FB00035B100BF19A2A3212846FFF72BF900BF56
:107FC00000BF2048FFF7A0FA80B11E4A00211248E6
:107FD00005F026FE044600BF254635B100BF0FA2BE
:107FE000AA212846FFF716F900BF00BF00221F2173
:107FF000094805F046FE044600BF254635B100BFDE
:1080000006A2B0212846FFF705F900BF00BF7FBDDB
:108010005A3B0020417F0200785000202E2E5C2E1B
:108020002E5C2E2E5C2E2E5C2E2E5C2E2E5C2E2E8A
:108030005C757365725C757365725F626C652E63E7
:10804000000000009C31030070B5094805F09AFF5C
:10805000044600BF254635B100BF06A2D8212846F8
:10806000FFF7D8F800BF00BF012001F0C3FA70BDD0
:10807000785000202E2E5C2E2E5C2E2E5C2E2E5C38
:108080002E2E5C2E2E5C2E2E5C757365725C7573C5
:1080900065725F626C652E630000000010B505F02C
:1080A000BBFF002001F0A6FA10BD00007CB5002047
:1080B0000090144800906946134805F00EFD0446F0
:1080C00000BF25463DB100BF10A24FF4D67128462F
:1080D000FFF7A0F800BF00BF0020019015480190F5
:1080E00001A9154803F04AFC044600BF25463DB1EE
:1080F00000BF06A24FF4DA712846FFF78BF800BFE5
:1081000000BF7CBD017F0200384C00202E2E5C2E6B
:108110002E5C2E2E5C2E2E5C2E2E5C2E2E5C2E2E99
:108120005C757365725C757365725F626C652E63F6
:1081300000000000057E02003C3B002038B507F03F
:10814000B1FC044600BF25463DB100BF15A24FF467
:10815000E6712846FFF75EF800BF00BF00200090E0
:108160006946012007F09AFA044600BF25463DB152
:1081700000BF0CA24FF4E9712846FFF74BF800BF8F
:1081800000BF684607F058FB044600BF25463DB1D6
:1081900000BF04A24FF4EB712846FFF73BF800BF85
:1081A00000BF38BD2E2E5C2E2E5C2E2E5C2E2E5C3B
:1081B0002E2E5C2E2E5C2E2E5C757365725C757394
:1081C00065725F626C652E630000000010B51421BB
:1081D000014800F0F1FC10BD3054002030B5002003
:1081E000124C00252560656000211BE00022002361
:1081F00014E00F4C04EB8104A45C0CB95C1CE3B2EA
:10820000042B05D10124094D6C54441CE0B203E059
:108210000124074D303D6C54541CE2B2042AE8DBC3
:108220004C1CE1B20829E1DB30BD0000983B002086
:108230007454002000B585B00C490D4A891AC9084C
:10824000032242EA01400BA106F0BAFE00F01CF83E
:108250000021684600F0CEFDFFF768FB6846FFF797
:1082600093FBFFF735FB05B000BD0000743B030036
:10827000EC3A03002D2D2D2D2D2D2D2D2D2D2D43A3
:108280004D434E5F446F00002DE9F04186B000245D
:108290000025002600274FF01008142101A8FFF741
:1082A0001CF913208DF80400EF208DF8050000BFA5
:1082B00010E000250AE0284800EB8400415D01AA97
:1082C000F01C1154701CC6B2681CC5B2042DF2DB40
:1082D000601CC4B2042CECDB8DF8068011210DF17A
:1082E000060000F0AFF907468DF81770002101A8CD
:1082F00000F0B4FD142101A8FFF7EFF800271320C8
:108300008DF80400EF208DF805000424002610E00D
:1083100000250AE0104800EB8400415D01AAF01C32
:108320001154701CC6B2681CC5B2042DF2DB601C6F
:10833000C4B2082CECDB8DF8068011210DF106008B
:1083400000F080F907468DF81770012101A800F0B0
:1083500085FD06B0BDE8F081745400202DE9F05F82
:1083600004464FF00009CA46CB460026A0784A4989
:1083700081F85000A078C11700EB91714FEAA10B72
:10838000FFF72CFF8246204600F084F90646B01E17
:10839000C1B2A01C00F056F93F4981F851003F4995
:1083A0003F4A891AC908032242EA014032463DA1E8
:1083B00006F010FEA35D384991F851203749DFF8E7
:1083C000E0C0A1EB0C01C9084FF0030C4CEA0140DE
:1083D00038A106F00BFE304890F85100A15D8842AC
:1083E0000BD02E492E4A891AC908032242EA0140BD
:1083F00039A106F0E5FDBDE8F09F0020A055BAF1D7
:10840000000F0AD12549264A891AC908032242EADF
:10841000014035A106F0D4FDEDE7BBF1010F09D015
:10842000BBF1020F09D0BBF1030F09D0BBF1040F60
:108430000CD108E04FF0040909E04FF0080906E00C
:108440004FF00C0903E04FF0100900E000BF00BF3F
:10845000002500271CE02C48405D012816D14FF074
:1084600000080DE0F81C215C0B48303000EB850063
:1084700000F80810781CC7B208F1010000F0FF08EE
:10848000B8F1040FEEDB4F4500D1B4E7681CC5B26C
:10849000082DE0DB00BFAEE744540020743B03002E
:1084A000EC3A03006372635F6469676974206973FF
:1084B000202564006372635F76616C756520616E70
:1084C000642072785B375D206973203078257820CE
:1084D0003078257800000000756172742063726343
:1084E000206661696C2100005468657265206973BB
:1084F000206E6F20657874726120646174612073EE
:108500007061636520210000983B002010B51421A4
:108510000148FEF7E2FF10BD305400202DE9F0477E
:1085200006460025B46962E014F80580681C14F85A
:108530000090B9F1030F06D0B9F1090F04D0B9F1D9
:10854000FF0F4FD101E04DE04CE0E079132848D116
:10855000207AEE2845D1607A28490978884218D1D6
:10856000A07A26494978884213D1E07A234989784C
:1085700088420ED12249234A891AC908052242EAB3
:10858000014021A106F01CFDE01D00F051F8FFF7AD
:108590001DFE1B491B4A891AC908052242EA0140EF
:1085A0001EA106F00DFD00270DE01E49CA5D14490D
:1085B000144BC91AC908052343EA01401AA106F061
:1085C00009FD781CC7B2A8F10100B842EDDC0C49E6
:1085D0000C4A891AC908052242EA014013A106F093
:1085E000EFFC00BF00BF08F10100054400BFB08BE5
:1085F000A84299D80520BDE8F0870000953B0020EF
:10860000743B0300EC3A03006F2D2D2D2D2D2D2DE5
:108610002D2D2D2D2D2D2D6B00000000646174611A
:108620003A30780030540020257800000A0000001D
:1086300010B50446142221460148FEF735FF10BD4F
:108640003054002010B502460B460020002104E003
:10865000545C0444E0B24C1CE1B29942F8DB10BD1A
:1086600010B50B480021016041608160C16020218C
:108670001030FEF732FF202105483030FEF72DFF85
:108680000020034981F8510081F8500010BD00001E
:108690004454002070B505460026002415E0285DEE
:1086A00020B9132C02DA601EC6B210E0132C0AD1D6
:1086B0000849094A891AC908032242EA014007A168
:1086C00006F07EFC1326601CC4B2142CE7DB00BF4E
:1086D000304670BD743B0300EC3A030063726320C4
:1086E000646967697420697320313900FCB50246FA
:1086F0000C460026009601960E20002500210EE073
:10870000165C412E01DB372100E03021165C761A21
:10871000F6B20DF80560461CF0B26E1CF5B21428D6
:10872000EEDB0020002100230DE01DF80010461CA8
:10873000F0B20E07310E1DF800603143E154461CC3
:10874000F0B25E1CF3B20628EFDBFCBD10B50248A8
:10875000007808F027F810BD713B0020052000BF0D
:1087600001070A46012303FA00F1C2F8081500BF09
:1087700000BF7047F0B5052001210A4600242346BA
:10878000254600BF07073E4641EA420747EA8407FD
:1087900047EA032747EA054C06F5E06747F820C09B
:1087A00000BF00BFFFF7DAFFF0BD052000BF0107E3
:1087B0000A46012303FA00F1C2F80C1500BF00BFFE
:1087C000704710B506F06EFA08B906F045FE10BD08
:1087D00070B54FF48041002006F0C4FC044600BF91
:1087E00025463DB100BF05A240F259112846FEF7CB
:1087F00011FD00BF00BF06F041FA70BD2E2E5C2EA9
:108800002E5C2E2E5C2E2E5C2E2E5C2E2E5C2E2EA2
:108810005C757365725C757365725F6472697665A9
:108820002E63000070B506F0F7FD044600BF254634
:108830003DB100BF04A240F239112846FEF7EAFC20
:1088400000BF00BF70BD00002E2E5C2E2E5C2E2EB1
:108850005C2E2E5C2E2E5C2E2E5C2E2E5C7573658F
:10886000725C757365725F64726976652E63000071
:1088700030B58BB000243B4B0FCB07AD0FC539494A
:10888000103103C9CDE90101374A01A9374807F082
:108890003BFC044600BF254635B100BF34A27A2117
:1088A0002846FEF7B7FC00BF00BF2F4A01A92F489A
:1088B000083007F029FC044600BF254635B100BF4B
:1088C0002BA27C212846FEF7A5FC00BF00BF264A4C
:1088D00001A92648103007F017FC044600BF2546C2
:1088E00035B100BF22A27E212846FEF793FC00BFCF
:1088F00000BF1E48089907F085FC04901B4808300B
:10890000099907F07FFC0590184810300A9907F084
:1089100079FC069001200090022301461348049A36
:1089200007F0D0FB01200090042302210F480830FB
:10893000059A07F0C7FB01200090082303210B488C
:108940001030069A07F0BEFB084807F0A9FB07485D
:10895000083007F0A5FB0548103007F0A1FB0BB06D
:1089600030BD0000C4310300019F02007C3B0020A9
:108970002E2E5C2E2E5C2E2E5C2E2E5C2E2E5C2E31
:108980002E5C2E2E5C757365725C757365725F6408
:10899000726976652E63000070B502F0BBF804467C
:1089A00000BF254635B100BF03A269212846FEF766
:1089B00031FC00BF00BF70BD2E2E5C2E2E5C2E2E13
:1089C0005C2E2E5C2E2E5C2E2E5C2E2E5C7573651E
:1089D000725C757365725F64726976652E63000000
:1089E00010B50446207830B101282CD0022818D0C8
:1089F000042845D139E00120234908702348007834
:108A00001E280DDA2249234A1278881802F0DEF86F
:108A100020480078401C1F49087000201B4908703E
:108A20002FE01D491D4A891AC908032242EA014064
:108A30001BA106F0C5FA00BF24A24B216068FEF717
:108A4000E9FB00BF1DE01449144A891AC908032232
:108A500042EA014027A106F0B3FA00BF1BA2512150
:108A60006068FEF7D7FB00BF0BE00B490B4A891A81
:108A7000C908032242EA014026A106F0A1FA00E05B
:108A800000BF00BF10BD00006C3B0020703B002009
:108A9000FE530020943B0020743B0300EC3A03009B
:108AA000404075617274204150505F554152545F8F
:108AB000434F4D4D554E49434154494F4E5F4552EA
:108AC000524F52206572726F720000002E2E5C2E83
:108AD0002E5C2E2E5C2E2E5C2E2E5C2E2E5C2E2ED0
:108AE0005C757365725C757365725F6472697665D7
:108AF0002E63000075617274204150505F554152E1
:108B0000545F4649464F5F4552524F52206572723C
:108B10006F72000075617274204150505F55415270
:108B2000545F44415441206572726F72000000002E
:108B300030B58BB01822124905A8FEF7B5FC00BF6E
:108B4000104801904FF4807002900F4803904FF44A
:108B50008070049007230D4A01A905A802F082F84D
:108B6000044600BF00BF254635B100BF08A22C2136
:108B70002846FEF74FFB00BF00BF0BB030BD000022
:108B8000AC310300CC510020CC520020E18902001E
:108B90002E2E5C2E2E5C2E2E5C2E2E5C2E2E5C2E0F
:108BA0002E5C2E2E5C757365725C757365725F64E6
:108BB000726976652E63000070B505460E46002486
:108BC00004E0285D02F0BCF8601CC4B2B442F8DBDB
:108BD00070BD000010B50549054A891AC90803226D
:108BE00042EA014003A106F0EBF910BD743B03001B
:108BF000EC3A030044726976655F5744545F4576EA
:108C0000656E5F48616E646C650000003EB50024CF
:108C1000134A07CA8DE807001249684607F0DAFDD3
:108C2000044600BF25463DB100BF0FA24FF4B77107
:108C30002846FEF7EFFA00BF00BF154807F088FD91
:108C4000044600BF25463DB100BF07A240F27111A6
:108C50002846FEF7DFFA00BF00BF07F0A9FD3EBDC2
:108C6000DC310300D58B02002E2E5C2E2E5C2E2EC6
:108C70005C2E2E5C2E2E5C2E2E5C2E2E5C7573656B
:108C8000725C757365725F64726976652E6300004D
:108C9000713B00202DE9F84F0026002000904FF492
:108CA00080770125002410E0384605F005FF40B12B
:108CB00000BF25480068284018B1384605F0EEFE90
:108CC0002E436D00381D87B2641C082CECD34FF482
:108CD000BE7005F0F1FE50B14FF4BE7005F0DEFE3F
:108CE00046F000466A460121002005F0A1FEF0B2E0
:108CF00010B3012500241DE005EA0600C0B100BF45
:108D0000124850F82400C0F30420814600BF0F48E9
:108D100050F82400C0F301408246204602F0A2FF32
:108D20008046B8F1000F02D051464846C04700BF08
:108D30006D00641C082CDFD306F0004010B16846BB
:108D400008F080F9BDE8F88F04630040106500402A
:108D500010B54FF4807005F083F980B14FF4807046
:108D600005F087F9012005F08DF92048407930B9E8
:108D700001201E49487108460168002088474FF4C9
:108D8000827005F06DF950B14FF4827005F071F901
:108D9000022005F077F915480168012088474FF453
:108DA000887005F05DF950B14FF4887005F061F9F5
:108DB000102005F067F90D480168022088474FF43C
:108DC000867005F04DF980B10020094908604FF424
:108DD000867005F04EF9082005F054F9002003498B
:108DE0008871084601680320884710BDF4390020C7
:108DF000340C0040024611B1012915D109E00020D0
:108E000004E00B4B1B5C1354431CD8B21428F8DB52
:108E10000BE0002005E0064B14331B5C1354431C8D
:108E2000D8B21428F7DB00E000BF00BF7047000095
:108E30009854002010B501200649487000200870A1
:108E400014210548FEF749FB142103481430FEF7AE
:108E500044FB10BDB53D00209854002010B50246DB
:108E600011B1012915D109E0002004E0135C0A4C7E
:108E70002354431CD8B21428F8D30BE0002005E09B
:108E8000145C054B14331C54431CD8B21428F7D37C
:108E900000E000BF00BF10BD9854002030B587B07F
:108EA00016A207CA04AB07C30020019002900390EA
:108EB00000241548FEF728FB054629461248FEF710
:108EC0000CFB04A91048FEF741FB1048C0690A21B9
:108ED000B0FBF1F084B222460DA101A801F098FA8E
:108EE00001A90948FEF704FB0748FEF70DFB0649F8
:108EF0003E220A54084607B030BD00003C6164764B
:108F00005F64656C61793D00973D0020C05400208E
:108F1000256400001FB512A207CA01AB07C30020D9
:108F200000901248FEF7F0FA044621460F48FEF77B
:108F3000D4FA01A90D48FEF709FB0D480DA182697D
:108F4000684601F065FA69460848FEF7D1FA074815
:108F5000FEF7DAFA05493E220A54084604B010BD6D
:108F60003C6164765F696E743D000000973D0020AF
:108F7000C0540020256400001CB50EA103C9CDE932
:108F800000010E48FEF7C0FA044621460B48FEF7E2
:108F9000A4FA69460948FEF7D9FA09490748FEF7D5
:108FA000A7FA0648FEF7B0FA04493E220A540846DA
:108FB0001CBD00003C6E616D653D0000973D0020CA
:108FC000C054002010B5044609492046FEF7BEFAF9
:108FD00007488069A0610648C069E0610448006AEA
:108FE0002062034890F8240084F82400012010BD7A
:108FF000C054002010B588B017A30FCB04AC0FC429
:1090000000200190029003901748FEF77DFA044675
:1090100021461548FEF761FA04A91348FEF796FAAF
:109020001248006A4FF47A71B0FBF1F00F49086200
:1090300008460FA1026A01A801F0EAF901A90A484D
:10904000FEF756FA0848FEF75FFA07493E220A542F
:10905000084608B010BD00003C6164765F74696D1D
:10906000656F75743D000000973D0020C0540020DE
:109070002564000010B588B013A30FCB04AC0FC457
:1090800000200190029003901348FEF73DFA044639
:1090900021461148FEF721FA04A90F48FEF756FAB7
:1090A0000E4890F924200EA101A801F0B1F901A900
:1090B0000948FEF71DFA0848FEF726FA06493E223F
:1090C0000A54084608B010BD3C73745F74785F7032
:1090D0006F7765723D000000973D0020C05400206E
:1090E0002564000010B508A10B48FEF72FFA3020C8
:1090F000094988616420C86141F28830086204200F
:1091000081F8240010BD00004A533133355F303000
:109110003030303100000000C05400202DE9FC4107
:10912000054600200090019000BF0F27804628468A
:10913000FEF7EAF9C01B00F0FF08002405E038192B
:10914000285C0DF80400601CC4B24445F7DB684697
:10915000FEF714FA86B206EB860040000749C861A4
:10916000CA690749074BC91AC908032343EA0140E2
:1091700005A105F02FFFBDE8FC810000C0540020D0
:10918000743B0300EC3A03006164765F64656C61D4
:1091900079206973202564002DE9FC4105460020F3
:1091A000009001900D2600272846FEF7ADF9801BA0
:1091B000C7B2002405E03019285C0DF80400601CDB
:1091C000C4B2BC42F7DB6846FEF7D8F907498861AC
:1091D0008A690749074BC91AC908032343EA0140B2
:1091E00005A105F0F7FEBDE8FC810000C054002099
:1091F000743B0300EC3A03006164765F6974762087
:10920000697320256400000038B500BF9DF8000098
:1092100020F00F00401C00909DF8000020F0F000AE
:109220001030009000BF0A48FEF76EF985B22A465A
:10923000074968467CDF044600BF254635B100BFBC
:1092400004A27E212846FDF7E5FF00BF00BF38BD20
:10925000C05400202E2E5C2E2E5C2E2E5C2E2E5CFA
:109260002E2E5C2E2E5C2E2E5C757365725C7573D3
:1092700065725F706172616D2E6300002DE9FC41C3
:109280000546002000900190112600272846FEF791
:109290003BF9801BC7B2002405E03019285C0DF8AB
:1092A0000400601CC4B2BC42F7DB6846FEF766F9F6
:1092B0004FF47A714843074908620A6A0649074B26
:1092C000C91AC908032343EA014005A105F082FE3B
:1092D000BDE8FC81C0540020743B0300EC3A03005D
:1092E0005E5E5E5E5E5E5E5E5E5E5E5E5E5E5E5E9E
:1092F0006164765F74696D656F757420697320258C
:10930000640000002DE9FC4105460020009001901A
:109310000D2600272846FEF7F7F8801B401EC7B22F
:10932000A85D2B2812D100240DE03019401C285CC8
:109330000DF804006846FEF721F940B21B4981F898
:109340002400601CC4B2BC42EFDB20E0A85D2D28E5
:1093500013D100240EE03019401C285C0DF80400E5
:109360006846FEF70BF9404240B2104981F82400EC
:10937000601CC4B2BC42EEDB09E00D490D4A891AFB
:10938000C908032242EA01400BA105F019FE074972
:1093900091F924200649074BC91AC908032343EA57
:1093A000014007A105F016FEBDE8FC81C054002075
:1093B000743B0300EC3A03006572726F72000000A8
:1093C00074785F706F776572206973202564000080
:1093D0000148007870470000B73D0020014908703F
:1093E00070470000B73D002070B5054600262846AE
:1093F000FEF78AF80B38C6B216211848FEF76DF84A
:10940000002406E004F10A00285C14490855601C99
:10941000C4B2B442F6DB12491048FFF767F91149AC
:10942000114A891AC908032242EA01400B4A0FA1D6
:1094300005F0D0FD00240EE009490B5D09490A4AF8
:10944000891AC908032242EA014022460AA105F00E
:10945000CDFD601CC4B2032CEEDB70BDC0540020F7
:10946000953B0020743B0300EC3A03006E616D6590
:109470002069732025730000212121212121212130
:109480002121212121212121216E616D655F6865E6
:10949000785B25645D3A3078253032780000000032
:1094A000034909780170024949784170704700000A
:1094B000B53D00200148007870470000B93D00200C
:1094C00030B587B005A86DDF044600BF25463DB125
:1094D00000BF22A24FF4F6712846FDF79BFE00BFA5
:1094E00000BF2849284A891AC908032242EA0140D4
:1094F00026A105F065FD9DF81A009DF819109DF84C
:1095000018209DF81730CDE90032CDE902109DF802
:1095100016309DF815201B491B4D491BC908032512
:1095200045EA014020A105F0A1FD1649164A891A15
:10953000C908032242EA014024A105F041FD00BF11
:1095400025463DB100BF05A24FF4FE712846FDF748
:1095500061FE00BF00BF07B030BD00002E2E5C2EA4
:109560002E5C2E2E5C2E2E5C2E2E5C2E2E5C2E2E35
:109570005C757365725C757365725F706172616D45
:109580002E630000743B0300EC3A03004D4143207E
:10959000616464722A2A2A2A2A2A2A2A2A2A2A2A38
:1095A0002A2A2A2A2A000000253032782C20253049
:1095B00032782C20253032782C20253032782C201F
:1095C000253032782C20253032782C002A2A2A2A7D
:1095D0002A2A2A2A2A2A2A2A2A2A2A2A2A4D414398
:1095E0002061646472000000014800787047000048
:1095F000B83D00200149087070470000B83D0020C8
:109600000149087070470000B93D002010B5034AB9
:109610001068034A1168884710BD0000383A0020DE
:10962000343A002010B500F04DFE10BD2DE9F04792
:10963000074688461646C24607EB47011B4800EB23
:10964000C109D9F8140020B1012811D0022826D16F
:109650001EE0484600F06EFE0546B54201D20024E9
:1096600005E0344632465146484600F0AAFE18E06E
:10967000484600F05FFE0546B54201D2284600E0AC
:109680003046044622465146484600F09AFE08E01D
:1096900032465146484600F05BFE044601E0002495
:1096A00000BF00BF2046BDE8F0870000344800201E
:1096B00010B506F039FA10BD01480249086070473C
:1096C0000090D003BC3D002010B503F05BFF40B11B
:1096D00000205E4908604FF08041C1F810015C49EC
:1096E000086003F07DFF002855D05A4800685A49A9
:1096F00008605848001D0068091D0860554808307A
:109700000068091D086053480C300068091D086096
:10971000504810300068091D08604E481430006839
:10972000091D08604B48183000684B49203108601B
:1097300048481C300068091D086046482030006811
:10974000091D0860434824300068091D086041482D
:1097500028300068091D08603E482C300068091D4B
:1097600008603C48303000683B4940310860394867
:1097700034300068091D0860364838300068091D1B
:10978000086034483C300068091D086031484030AA
:109790000068091D086003F0C7FE40B12F4800684B
:1097A00000F0010018B16FF001002C4908602C484E
:1097B000006800F0004030B92948001D006800F042
:1097C000004000283ED001202649086000BF2648FE
:1097D00000680028FBD012202149086000BF224801
:1097E00000680028FBD012211D48001D016000BF49
:1097F0001D4800680028FBD000201A49086000BFFF
:10980000194800680028FBD000BF00BF00BF00BFA0
:1098100000BFBFF34F8F00BF00BF00BF13480068F9
:1098200000F4E06012490843001D1049086000BFC1
:1098300000BF00BFBFF34F8F00BF00BF00BF00BF1E
:1098400000BFFDE7FFF738FF10BD00000C0100402E
:10985000380500400404001020C50040000400400A
:109860000012001004E5014000E401400CED00E0AE
:109870000000FA0510B504220249034803F0C1FBB9
:1098800010BD0000D43F00200080004010B504222D
:109890000249034803F0B5FB10BD0000E03F002083
:1098A0000090004010B504220249034803F0A9FBD0
:1098B00010BD0000EC3F002000A0004010B50622C3
:1098C0000249034803F09DFB10BD0000F83F002053
:1098D00000A0014010B502490868804710BD000093
:1098E000FC3900200146002006E00023044A02EB78
:1098F00081021354421CD0B20428F6DB70470000EA
:109900007454002070B586B005460C46002101A8AD
:10991000FFF770FAFB492046FDF7FDFD50B9FEF751
:1099200093F8F948FDF7F0FD86B23146F648FFF7A7
:1099300043F958E2F5492046FDF7EDFDF0B9F44949
:10994000F44A891AC908032242EA0140F2A105F04B
:1099500037FBFFF7AFFD40B1F548FDF7D5FD86B207
:109960003146F348FFF728F93DE2F248FDF7CCFD18
:1099700086B23146EF48FFF71FF934E2EE49204640
:10998000FDF7C9FD50B9FEF789FBDF48FDF7BCFDC7
:1099900086B23146DC48FFF70FF924E2E74920465A
:1099A000FDF7B9FD50B9FEF74FFBD748FDF7ACFD09
:1099B00086B23146D448FFF7FFF814E2E04920466A
:1099C000FDF7A9FDA0B9FFF70FFE40B1DD48FDF797
:1099D0009BFD86B23146DB48FFF7EEF803E2DA483A
:1099E000FDF792FD86B23146D748FFF7E5F8FAE178
:1099F0000A22D6492046FDF7B2FDF0B9C449C54A4E
:109A0000891AC908032242EA0140D1A105F0D8FA17
:109A1000BD48FDF779FD86B23146BB48FFF7CCF86B
:109A2000FDF784FF2046FFF7DFFCFFF7EDFB01A801
:109A3000FDF7CEFEFDF74CFFD5E1C9492046FDF705
:109A40006AFD58B9FFF798FA05462846FDF75CFD10
:109A500086B231462846FFF7AFF8C4E10D22C1496E
:109A60002046FDF77CFD90B9FDF760FF2046FFF72B
:109A700093FB01A8FDF7ACFEFDF72AFFA248FDF716
:109A800043FD86B23146A048FFF796F8ABE1B649F0
:109A90002046FDF740FD58B9FFF73CFA0546284639
:109AA000FDF732FD86B231462846FFF785F89AE188
:109AB0000F22AE492046FDF752FD58B92046FFF768
:109AC0002DFB9148FDF720FD86B231468E48FFF709
:109AD00073F888E1A6492046FDF71DFD58B9FFF748
:109AE000DDF905462846FDF70FFD86B231462846CA
:109AF000FFF762F877E111229E492046FDF72FFD1E
:109B000090B9FDF713FF2046FFF7B8FB01A8FDF75A
:109B10005FFEFDF7DDFE7C48FDF7F6FC86B23146C0
:109B20007948FFF749F85EE193492046FDF7F3FCD9
:109B300058B9FFF75FFA05462846FDF7E5FC86B2FF
:109B400031462846FFF738F84DE18C492046FDF7AD
:109B5000E2FC68B96C48FDF7D7FC86B231466A482A
:109B6000FFF72AF80A2004F09FFAFDF7DFFE3AE13A
:109B700083492046FDF7CFFC68B96348FDF7C4FC74
:109B800086B231466048FFF717F80A2004F08CFAD5
:109B9000FDF79EFE27E17B492046FDF7BCFCA0B9FE
:109BA000FFF716FC40B17848FDF7AEFC86B23146AF
:109BB0007548FFF701F816E17448FDF7A5FC86B279
:109BC00031467248FEF7F8FF0DE171492046FDF776
:109BD000A2FC40B94C48FDF797FC86B231464A4892
:109BE000FEF7EAFFFFE06B492046FDF794FC40B921
:109BF0004548FDF789FC86B231464348FEF7DCFF55
:109C0000F1E065492046FDF786FC40B93E48FDF786
:109C10007BFC86B231463C48FEF7CEFFE3E05F496D
:109C20002046FDF778FC40B93748FDF76DFC86B259
:109C300031463548FEF7C0FFD5E00D225849204691
:109C4000FDF78DFC90B9FDF771FE2046FFF75AFB3A
:109C500001A8FDF7BDFDFDF73BFE5248FDF754FCA2
:109C600086B231464F48FEF7A7FFBCE04E4920467A
:109C7000FDF751FC58B9FFF7FDF905462846FDF7F9
:109C800043FC86B231462846FEF796FFABE04749D3
:109C90002046FDF740FC48BB1B48FDF735FC86B26B
:109CA00031461948FEF788FF4FF4FA7004F0FCF9CA
:109CB00000BF00BF00BF00BF00BFBFF34F8F00BF9A
:109CC00000BF00BF3A48006800F4E060394908432B
:109CD000001D3749086000BF00BF00BFBFF34F8FB2
:109CE00000BF00BF00BF00BF00BFFDE732492046F4
:109CF000FDF711FC20B9042130A0FEF75DFF72E0F2
:109D000060E00000A03B00202B3D0020AD3B002088
:109D1000743B0300EC3A03005669657720636F6E6D
:109D20006E656374696F6E2073746174757300007F
:109D3000303D00203C3D0020BD3B0020C93B0020C1
:109D4000D63B0020483D0020583D0020E33B00204A
:109D500053657420626C65206E616D6500000000C3
:109D6000EF3B0020FB3B00200A3C0020193C002078
:109D70002A3C00203B3C00204E3C0020613C00205F
:109D80006C3C0020783C0020793D0020883D00207C
:109D9000843C0020973C0020AA3C0020C33C0020CB
:109DA000DC3C0020683D0020EB3C0020FB3C002018
:109DB0000CED00E00000FA05113D002056312E3078
:109DC000000000000C220D492046FDF7C8FB50B9E9
:109DD0000020FFF787FD0A48FDF796FB86B2314663
:109DE0000748FEF7E9FE1F212046FDF776FB1F21FD
:109DF0002846FDF772FB06B070BD00001D3D002037
:109E00002B3D002038B52F4800788DF800002D48F4
:109E100040788DF801002C480078002851D12B485B
:109E2000007801284DDD002401E0601CC4B2142C30
:109E3000FBDB9DF80000132820D12549254A891A0B
:109E4000C908032242EA014023A105F0B9F89DF8B0
:109E50000100EF2835D11E491E4A891AC90803227C
:109E600042EA01401EA105F0ABF81648FEF776FA6B
:109E7000FEF7E0F900201549087022E09DF8000087
:109E80003C2811D11249134A891AC908032242EA0F
:109E9000014015A105F094F80A491548FFF732FD75
:109EA00000200A4908700CE009490A4A891AC908C1
:109EB000032242EA01400FA105F082F80020034985
:109EC000087038BDFE5300206C3B0020943B0020FE
:109ED000743B0300EC3A030048445F31000000008B
:109EE00046445F310000000048445F32000000003B
:109EF000CC5300204844206572726F72000000004D
:109F000030B58BB004460D46B5480088B0F57A7F71
:109F100002DD0020B2490880B4F5A07F09D0B4F575
:109F2000A27F11D0B4F5A47F7ED0B4F5A67F7CD1FA
:109F30003EE1AC49AC4A891AC908032242EA014011
:109F4000AAA105F03DF847E1FFF742FA00286DD0DD
:109F500001A8FFF737F8099808B90BB030BDA6483B
:109F6000007801281CD1A4480069401CA24908615E
:109F7000084600690999884212D39A499A4A891A6F
:109F8000C908032242EA01409CA105F019F800200B
:109F9000994908700861FFF7A5FC012096490872ED
:109FA0009548407801281FD193484069401C924948
:109FB0004861084640690999884215D389498A4A07
:109FC000891AC908032242EA014090A104F0F8FF6F
:109FD0000020894948700021874841610120FFF72E
:109FE00081FC01218448417283488078012823D173
:109FF00081488069401C80498861084680690999C8
:10A00000884219D37749784A891AC908032242EA53
:10A01000014082A104F0D4FF00207749887000211C
:10A0200075488161022002E0BCE0D4E0B9E0FFF7AE
:10A0300059FC0121704881726F48C07801281FD1F6
:10A040006D48C069401C6C49C8610846C0690999DF
:10A05000884215D36349644A891AC908032242EA2F
:10A06000014072A104F0ACFF00206349C8700021D8
:10A070006148C1610320FFF735FC01215E48C172D0
:10A080005D48007901281FD15B48006A401C5A498D
:10A0900008620846006A0999884215D35149524A14
:10A0A000891AC908032242EA014064A104F088FF2A
:10A0B00000205149087100214F4801620420FFF738
:10A0C00011FC01214C4801734B48407901281FD1F4
:10A0D0004948406A401C484948620846406A099914
:10A0E000884215D33F49404A891AC908032242EAE7
:10A0F000014056A104F064FF00203F49487100214F
:10A100003D4841620520FFF7EDFB01213A484173CC
:10A110003948807901281FD13748806A401C364968
:10A1200088620846806A0999884215D32D492E4ACB
:10A13000891AC908032242EA014048A104F040FFFD
:10A1400000202D49887100212B4881620620FFF7ED
:10A15000C9FB0121284881732748C07901281FD1F4
:10A160002548C06A401C2449C8620846C06A09994B
:10A17000884215D31B491C4A891AC908032242EA9E
:10A1800001403AA104F01CFF00201B49C8710021C6
:10A190001948C1620720FFF7A5FB01211648C173CA
:10A1A00000BF19E00E480088401C0D49088013E0EC
:10A1B0003248007801280DD131480078401C3049E0
:10A1C0000870084600781E2804DD00202B4908701E
:10A1D0002B49087000E000BF00BF00BFBDE60000D3
:10A1E0006E3B0020743B0300EC3A030074696D651C
:10A1F0007220494E5430000044540020436C656185
:10A200006E20426C6F636B3000000000436C656130
:10A210006E20426C6F636B3100000000436C65611F
:10A220006E20426C6F636B3200000000436C65610E
:10A230006E20426C6F636B3300000000436C6561FD
:10A240006E20426C6F636B3400000000436C6561EC
:10A250006E20426C6F636B3500000000436C6561DB
:10A260006E20426C6F636B3600000000436C6561CA
:10A270006E20426C6F636B37000000006C3B002067
:10A28000703B002008B500BF4FF480700B49405868
:10A2900008B1012000E0002078B10948006880473B
:10A2A00000BF00204FF48071044A885008461146D0
:10A2B0004058009000BF00BF00BF08BD0000014033
:10A2C000083A002010B5124C02202061606111A0F4
:10A2D000A0611349E1614FF4007121620021A16284
:10A2E0006162E1620BA0A0640E49E1641021216566
:10A2F0000021A1656165E1650BA1E01DFDF726F96F
:10A300000AA12046FDF722F92020A07110BD00000F
:10A310001C4800205465726D696E616C000000007D
:10A3200094480020944A0020525454005345474713
:10A330004552000010B501460A69CB689A4204D81C
:10A340008C68641EE41AA01801E0D41A601E10BDC7
:10A350002DE9F0470446894617464FF0000AE568A4
:10A3600000BFD4F81080A84503D9A8EB0500461E0D
:10A3700004E0A5EB0800401CA1680E1AA068401B71
:10A38000B04201D9304601E0A068401B0646BE42FB
:10A3900001D2304600E03846064661684819324628
:10A3A0004946FDF781F8B244B144BF1B3544A0686B
:10A3B000A84200D10025E560002FD2D15046BDE86B
:10A3C000F0872DE9F047044689461546E668A068FF
:10A3D000871BAF4208D9616888192A464946FDF7AC
:10A3E00063F87019E06010E0B84661688819424669
:10A3F0004946FDF759F8A5EB070809EB0701424666
:10A400006068FDF751F8C4F80C80BDE8F0870000E3
:10A410000FB4084B10B504A902AA039800F062F823
:10A42000044602A9002000F007F9204610BC5DF8A0
:10A4300014FB000039A6020000BF00BF00BFBFF33D
:10A440004F8F00BF00BF00BF0948006800F4E06004
:10A4500008490843001D0649086000BF00BF00BF4F
:10A46000BFF34F8F00BF00BF00BF00BF00BFFDE7BD
:10A470000CED00E00000FA0500487047C03D0020E8
:10A4800002E008C8121F08C1002AFAD170477047BD
:10A49000002001E001C1121F002AFBD1704700001B
:10A4A0000146202908DA012088400A4A104008B1F4
:10A4B000012070470020FCE7402909DAA1F12000C3
:10A4C000012202FA00F008B10120F2E70020F0E7D3
:10A4D0000120EEE7FC06FFBD00BFEFF31081084648
:10A4E00072B670472DE9FF4F89B09B4604460025A0
:10A4F00006E025280BD05A460B999047641C6D1C2A
:10A5000020780028F5D10DB02846BDE8F08F00274F
:10A51000B8460122474900E0074314F8013F203BB9
:10A5200002FA03F00842F7D120782E2819D114F846
:10A53000010F47F004072A280ED06FF02F02207871
:10A54000A0F1300109290CD808EB880102EB410188
:10A5500000EB0108641CF2E70A98641C50F8048BB5
:10A560000A9020780028CED0642808D0692806D028
:10A5700075281ED05A460B9990476D1C58E00A99D1
:10A580004FF00A0901C90A91002802DA40422D2140
:10A5900002E0390504D52B218DF82010012103E0BC
:10A5A000F90704D02021F7E78A4608AE0DE0002124
:10A5B000FAE70A994FF00A0901C90A91F7E74946F3
:10A5C000FCF7E9FF303106F8011D0028F7D1ADEBAB
:10A5D000060000F12009780701D44FF00108C845B2
:10A5E00002DDA8EB090000E000208046002706E01D
:10A5F00008A85A46C05D0B9990476D1C7F1C5745B3
:10A60000F6DB04E030205A460B9990476D1CB8F1F8
:10A610000001A8F10108F5DC05E016F8010B5A4627
:10A620000B9990476D1CB9F10001A9F10109F4DC07
:10A63000641C65E7092801000A68531C0B60107050
:10A640007047014601F0030008B90120704700205F
:10A65000FCE7024650680068401E084008B9012027
:10A6600070470020FCE70246002104E0505C08B17E
:10A6700001207047491C0629F8D30020F9E710B5DE
:10A680000346D868884206D88818401E1C69A04234
:10A6900001D8012010BD0020FCE7000010B50446E1
:10A6A0006CB10848C068A04209D806480069A042B9
:10A6B00005D3204602F028FD08B1012010BD00207E
:10A6C000FCE70000C43D002070B504460D4604F2CE
:10A6D0002740FFF7C8FF0646012D06D0022D0DD0FA
:10A6E000032D11D0042D19D113E0A07928B194F8CD
:10A6F000240010B90EB1012070BD00BFE07910B187
:10A700000EB10220F8E700BF207A08B10320F3E77A
:10A7100000BF607A08B10420EEE700BF0020EBE73D
:10A720000146481C052290FBF2F302FB1300C0B265
:10A7300070472DE9F04704460D462F4695F82080D6
:10A74000B4F81C9000260BE007EB46124946A069BE
:10A7500000F006FD10B10120BDE8F087701CC6B204
:10A760004645F1DB0020F7E7014691F82420012A55
:10A7700001D1EE2000E01F2070472DE9F05F064672
:10A780000C4604F1220A94F82C502A2010F8049068
:10A790004FF00008B6F81CB0002710E00AEB870263
:10A7A0005946B06900F045FD28B108F1010000F0FC
:10A7B000FF0815B905E005B103E0781CC7B24F45A5
:10A7C000ECDB00BF0DB1C84503D02DB9B8F1000FC7
:10A7D00002DD0120BDE8F09F0020FBE710B501225B
:10A7E0000221002001F07AF9044600BF1CB1072CB9
:10A7F00001D0204610BD00BF07220221012001F038
:10A800006DF9044600BF1CB1072C01D02046F1E7CA
:10A8100000BF0A220021084601F060F9044600BF8B
:10A820001CB1072C01D02046E4E700BF0020E1E77F
:10A830002DE9FE4307460E46144672B600BF04F0EB
:10A84000D1FC00BF00BF04F02DFA0028FBD100BFEF
:10A8500000BF012F0CD06FF48050384498B1B0F590
:10A86000405F2CD06FF440510844002847D115E0D8
:10A870003149324A891AC908012242EA014030A10D
:10A8800004F09EFB47E02C492C4A891AC908012292
:10A8900042EA014032A104F093FB3CE02546264900
:10A8A000DFF898C0A1EB0C01C9084FF0010C4CEA8D
:10A8B000014034A1D5E9003204F098FB2BE0254695
:10A8C000A86805F041FA8046D5E900108DE84300FC
:10A8D00019491A4BC91AC908012343EA01404346E2
:10A8E0002FA1AA6804F0A6FB1349144A891AC908C3
:10A8F000012242EA014034A104F062FB0BE00E4960
:10A900000E4A891AC908012242EA0140324633A19F
:10A9100004F060FB00BF00BF00BF3648006800F0D5
:10A92000010000B100BE00BF22463146384600F0AB
:10A9300063F8BDE8FE830000743B0300EC3A0300BB
:10A94000534F46544445564943453A204153534595
:10A950005254494F4E204641494C454400000000A6
:10A96000534F46544445564943453A20494E564173
:10A970004C4944204D454D4F525920414343455386
:10A9800053000000415353455254494F4E20464115
:10A99000494C45442061742025733A257500000018
:10A9A0004552524F52202575205B25735D206174FE
:10A9B0002025733A25750D0A50432061743A2030E2
:10A9C0007825303878000000456E64206F66206579
:10A9D00072726F72207265706F727400554E4B4EBA
:10A9E0004F574E204641554C5420617420307825F5
:10A9F00030385800F0ED00E018B5012300939DF8C1
:10AA000000301E4B186059609A606FF48043034415
:10AA100063B1012B19D1194BDA60DB681B68174C45
:10AA2000A3612346DB685B68E3610EE0134B1A61A8
:10AA30001B699B68114C636123461B691B68A361FA
:10AA400023461B695B68E36100BF00BF0B4B1B68BB
:10AA50000A4B5B68094B9B68084BDB68074B1B691B
:10AA6000064B5B69054B9B69044BDB6972B600BF03
:10AA70009DF80030002BFBD162B618BD04400020C9
:10AA800070B504460D46204601F034FE28B1294633
:10AA9000204601F023FE002070BD0520FCE70346A0
:10AAA00009B90E20704712B1501E104008B109209C
:10AAB000F8E71960501E988000209860D86000BFA9
:10AAC000F0E770B504460D46204601F013FEA1885C
:10AAD000884205D82946204601F01FFE002070BD9F
:10AAE0000420FCE710B5024801F0CCFB10BD0000CB
:10AAF000103A002010B503460C460AB9072010BDD5
:10AB000019684A61012C01D1012000E00020086190
:10AB10000020F4E738B51348006800900823582255
:10AB200011491248006802F094FD04460CB1204619
:10AB300038BD0F4A69460F4801F0AAFB04460CB124
:10AB40002046F5E701210B4801F048FC01230A4AA1
:10AB50001946084801F068FB0120084908702046A2
:10AB6000E6E70000742E030024400020642E03005A
:10AB700047190300103A0020FFFF7F001C3A002015
:10AB80002DE9F04106460D4617463446207F10B1A8
:10AB90000020BDE8F081A76101F0F6FF401941F106
:10ABA0000001C4E90201206900B1256121460020AD
:10ABB00007F046FCEDE770B50446254600202877EF
:10ABC0002946012007F03CFC70BD00002DE9F04152
:10ABD00004461048077821460F48FFF751FF80468A
:10ABE000A7B100200B49087001220C490C4803F062
:10ABF000F7FA054600BF2E4636B100BF09A2D6219E
:10AC00003046FCF707FB00BF00BF00BF4046BDE871
:10AC1000F08100009E3A0020444200209D3A00202E
:10AC2000843A00202E2E5C2E2E5C2E2E5C2E2E5C66
:10AC30002E2E5C2E2E5C2E2E5C636F6D706F6E65FB
:10AC40006E74735C6C69627261726965735C756164
:10AC500072745C6170705F756172745F6669666F53
:10AC60002E6300002DE9F04188B004460E461746D9
:10AC700098462B4807601EB9072008B0BDE8F08150
:10AC8000B08882B227483168FFF709FF054600BF48
:10AC9000284600B1F1E700BFB08982B22248B1680E
:10ACA000FFF7FDFE054600BF284600B1E5E700BFFF
:10ACB00020221E496846FCF7F7FB60690690207C5D
:10ACC00008B1012000E000208DF814008DF81C80F0
:10ACD000607C08B10E2000E000208DF81500E068CF
:10ACE0000290A06803902068019060680090104A6C
:10ACF0006946104803F02EFA054600BF284600B109
:10AD0000BBE700BF00200C4908702068401C28B138
:10AD100001220A49074803F063FAAEE70020ACE7D6
:10AD2000983A00204442002054420020A030030002
:10AD300055250300843A00209E3A00209D3A0020C9
:10AD40002DE9F041054629461448FFF7BAFE0646AC
:10AD500006BB134C002720781249085C20B1201D47
:10AD600005F0E6FC074608E020780E49085C20B9AB
:10AD700004F10C0005F084FB074600BF57B90A49EF
:10AD80000648FFF77DFE28B901220749044803F071
:10AD900049FA06463046BDE8F081000054420020E2
:10ADA000843A0020F03900209C3A002010B5044677
:10ADB000204606F053FF10BD70B5044625460E48E8
:10ADC0008068B0B1ADB9FFF787FB06460A48006856
:10ADD0000A490860084840684FF0E021C1F80401C2
:10ADE0000020054988601EB900BF62B600BF00BFE1
:10ADF00000BF00BF70BD00008C40002000E100E0FB
:10AE0000F8B505460C4617462088001DB84201D902
:10AE10000C20F8BD684679DF064600BF304600B119
:10AE2000F7E700BF0320218868542088401C208059
:10AE30001920218868542088401C208020884119CE
:10AE4000BDF8000007F078FD21880844208000202C
:10AE5000DFE770B505460C462068401C28B1206825
:10AE600003F000FE206803F0B1FD6068401C18B1DB
:10AE70000321606803F090FD2868A169C0F82415DB
:10AE800000BF617D227D286841EA0203C0F86C356D
:10AE900000BFD4E90012286804F0B2FF207D012829
:10AEA00014D1A068401C18B10321A06803F074FD00
:10AEB000E068401C28B1E06803F0D4FDE06803F0CE
:10AEC00085FDD4E90221286804F082FF70BD70B5C9
:10AED00005460C462068401C28B1206803F0CDFDD3
:10AEE000206803F07FFD6068401C18B10021606895
:10AEF00003F05FFD2868A169C0F8241500BF617DDB
:10AF0000227D286841EA0203C0F86C3500BFD4E90D
:10AF10000012286804F0AEFF207D012814D1A0683B
:10AF2000401C18B10021A06803F043FDE068401CFC
:10AF300028B1E06803F0A1FDE06803F053FDD4E917
:10AF40000221286804F077FF70BD0000002114E0A2
:10AF50000C48D0F81024012308E000BFD068007925
:10AF6000884201D1002303E0D0680268002AF4D1AE
:10AF700000BF0BB108467047491C0A29E8DB4FF0B7
:10AF8000FF30F8E7FC4300202DE9F04104460F466E
:10AF9000154615B90E20BDE8F0810020286000BFDD
:10AFA0000CB90E20F7E700BF00BF206808B90E20DB
:10AFB000F1E700BF00BFE088C11700EB9171891075
:10AFC000A0EB810109B10720E5E700BF384600F09A
:10AFD000A9FBC6B2142E01D10520DCE72079B042CE
:10AFE00001DC0420D7E7E188206806FB0100286027
:10AFF0000020D0E72DE9FC4105468846164600248E
:10B0000037880020308095F82D0058B13A463146F7
:10B01000404600F09FFB044600BF204608B1BDE853
:10B02000FC8100BFA87850B13A4631464046FFF750
:10B03000E7FE044600BF204600B1F0E700BFE87815
:10B0400060B1E97848B23B463246414601F097FB91
:10B05000044600BF204600B1E1E700BF686868B160
:10B06000696891F900003B463246414607F057FABD
:10B07000044600BF204600B1D1E700BF2889002860
:10B080000EDD43460622022105F10800CDE90067E6
:10B0900007F025FD044600BF204600B1BFE700BF12
:10B0A000288A00280EDD43460722032105F11000FF
:10B0B000CDE9006707F013FD044600BF204600B14C
:10B0C000ADE700BF288B00280EDD43461522142172
:10B0D00005F11800CDE9006707F001FD044600BF47
:10B0E000204600B19BE700BF286A58B13B46324674
:10B0F0004146286A00F04EFF044600BF204600B1DA
:10B100008DE700BF686A58B13B4632464146686ADF
:10B1100002F0EAF8044600BF204600B17FE700BF16
:10B1200095F82C0000280BDD3B4632464146284668
:10B1300006F0A8FE044600BF204600B16FE700BF3E
:10B14000287858B13B4632464146284602F088F9F5
:10B15000044600BF204600B161E700BF20465EE71D
:10B160002DE9F843064688461546002000900DB9A3
:10B17000BDE8F88309236A464146304600F02BF8C3
:10B180000446BDF800003718BDF8000068B164B18E
:10B190002846FCF7B9F9A04207D12246394628468D
:10B1A000FCF7C7F908B90120E2E70020E0E7F8B5AD
:10B1B00004460E461546002000902B466A4631464E
:10B1C000204600F008F807460FB90020F8BDBDF88A
:10B1D00000002044FAE7F0B504460D461E4604B1CF
:10B1E0000AB90020F0BD002103E0605C401C084467
:10B1F00081B2481CA84206DA10888842F5DC481C57
:10B20000205CB042F1D1A94201DB0020EAE7881CB2
:10B2100087B2605C10B1605C401E00E0002083B229
:10B2200013B1F818A84201DD0020DBE717801846AB
:10B23000D8E72DE9F04788B004460E4617460020AF
:10B24000079010200690B24602AA06A9384664DF8D
:10B25000814614B1B9F1000F03D0002008B0BDE859
:10B26000F0879DF81800022804D0042809D010287F
:10B2700015D10DE003208DF8040002208DF80500A3
:10B280000FE005208DF8040004208DF8050008E08B
:10B2900007208DF8040006208DF8050001E000204D
:10B2A000DCE700BF002509E001A8435D07AA31469D
:10B2B0002046FFF790FF8246681CC5B2022D03DAD4
:10B2C000BDF81C000028EFD0BDF81C0008B9002014
:10B2D000C4E7BDF81C0004EB000800250DE008EBF6
:10B2E00005009DF8182002A9FCF723F908B90120F0
:10B2F000B4E79DF81800284485B25545EFDB0020DF
:10B30000ACE72DE9FF4104460D46164600BF1CB9C7
:10B310000E2004B0BDE8F08100BF207808B90820F5
:10B32000F7E715B90EB90E20F3E700200090019061
:10B3300002900390DDB1D4F82004016804F15500B7
:10B34000814200D001E004F2431000902046FFF754
:10B350000BFAADF8040001AA28460099FFF74AFE4F
:10B36000074600BF384600B1D3E700BF00BFDEB1DB
:10B37000D4F82004816804F23120814200D001E039
:10B3800004F21F3002902046FFF7EEF9ADF80C00F2
:10B3900003AA30460299FFF72DFE074600BF384644
:10B3A00000B1B6E700BF00BF04F580609DE88E00E5
:10B3B00010308EC01038C4F82004002204F154006C
:10B3C000D4F8201472DFA4E780F83010704770B50D
:10B3D00004460D4605B10CB90E2070BD05F178008C
:10B3E00000F071FD08B90720F7E70020A0702C22BB
:10B3F00005F17801201DFCF757F8002084F8300093
:10B40000D5F8A4006063D5F8A800A0634FF6FF70DC
:10B41000A4F8240404F58260C4F82004002140F25A
:10B420002C40C4F82614A4F82A140155207810B929
:10B43000FF2084F8540004F15500C4F8100420469D
:10B44000FFF792F940F21441085304F2144204F158
:10B4500055012846FFF7CEFD064600BF304600B135
:10B46000BBE700BF04F231204FF48361085120464E
:10B47000FFF77AF9A4F81C044FF48360015904F231
:10B480001C4205F13C00FFF7B5FD064600BF304603
:10B4900000B1A2E700BF012151200155208B81B2EC
:10B4A00048200153012084F83C00002121645020F1
:10B4B00001556169616404F13C02002104F154000A
:10B4C00072DF064600BF304600B186E700BF0120AC
:10B4D0002070304681E770B504460D462E46208820
:10B4E000102804D0112807D026280FD109E02146C2
:10B4F000304605F077FA0AE02146304605F037FB82
:10B5000005E02146304605F094FC00E000BF00BF96
:10B5100070BD70B504460E46207808B9082070BD8D
:10B52000A670002140F22C40C4F82614A4F82A1476
:10B530000155A07910B1A078012809D0E07910B1A7
:10B54000A078012804D0E07970B1A07802280BD14E
:10B55000606B30B1012084F82D040820616B8847AE
:10B5600002E0002084F82D0431462046FFF7ACF8B5
:10B57000A070606BA0B1A078032802D0A078042846
:10B580000ED1607960B194F82E0448B9002084F897
:10B590003004012084F82F040720616B884702E003
:10B5A000002084F82F04182104F13C00FBF795FFDC
:10B5B000012084F83C0004F12C0005F035FD20B199
:10B5C00094F82C105120015502E001215120015521
:10B5D00094F8240060B104F1280005F025FD20B1A5
:10B5E00094F828105220015502E001215220015503
:10B5F000002150200155A078052824D2DFE800F072
:10B600001F030A11180004F13C01204606F09DFCBE
:10B61000054619E004F13C01204606F07EFC054693
:10B6200012E004F13C01204606F0A1FC05460BE0C7
:10B6300004F13C01204606F0C8FC054604E0002069
:10B6400084F8310000E000BF00BFA07898B104F199
:10B650003C0204F15400D4F8201472DF05460DB109
:10B6600028465CE794F8301094F8540073DF0546E0
:10B670000DB1284653E7606B18B194F83100616B47
:10B68000884700204BE700002DE9F041044600BF49
:10B6900014B90E20BDE8F08100BF1C2221461C48D1
:10B6A000FBF702FF1B481A490860206860B1206858
:10B6B0007ADF05460DB12846ECE7164821680A688E
:10B6C00002604968416005E012487BDF05460DB124
:10B6D0002846DFE7002617E006EB86000E4901EB5F
:10B6E000800700BF4FF6FF70388000BF0B4800EBAB
:10B6F000461078600A4A0021381DFFF7FBF905461D
:10B700000DB10320C6E7761C002EE5D00020C1E76E
:10B710007C3E0020E0390020683E0020483E0020AA
:10B72000212A030010B50446204600F005F808B1B0
:10B73000204610BD1420FCE710B50446142C01DB94
:10B74000002010BD2146024801F0DEFFF9E70000AD
:10B750009C3E00202DE9FC4105460C4617462088FA
:10B760000930B84202D90C20BDE8FC8168466DDF83
:10B77000064600BF304600B1F6E700BF082021882A
:10B7800068542088401C20801B2021886854208811
:10B79000401C208020882844DDF801100160BDF89D
:10B7A000051081802088801D20809DF800004008C1
:10B7B00018B900202188685402E0012021886854CB
:10B7C0002088401C20800020CEE7000070B5054690
:10B7D0000E462888102802D011282CD115E01748D1
:10B7E000006860B900F034FC044600BF34B114486E
:10B7F000006818B1204612490968884700BF0F4801
:10B800000068401C0D49086016E00C480068401EA6
:10B810000A4908600846006860B9FEF7DFFF044681
:10B8200000BF34B10648006818B1204604490968D1
:10B83000884700BF00E000BF00BF70BDDC390020BA
:10B84000D839002070B504460D462088102806D04F
:10B85000112808D012280ED0502810D107E0204619
:10B8600005F04EF80CE0204605F068F908E02046A7
:10B8700005F010FB04E0204605F02AF800E000BFC8
:10B8800000BF70BD2DE9F04104460F46A688208810
:10B89000102806D0112819D019283FD01A284AD1CB
:10B8A00018E005F0E7FF304605F070FE30B900BF44
:10B8B00022A2F0210420FBF7ADFC06E0E07B022889
:10B8C00003D131462C4801F02EFF34E0304605F01C
:10B8D000F5FF30E0207A0509042D01DB012000E0AE
:10B8E00000200246314624480C3000F039FF032D79
:10B8F00001DB012000E00020024631461E480830EE
:10B9000000F02EFF022D01DB012000E000200246A6
:10B9100031461948001D00F023FF0CE0207A48B999
:10B92000607AC0F3C0052A46314613480C3000F057
:10B9300017FF00BF00BF00BFBDE8F0812E2E5C2EB8
:10B940002E5C2E2E5C2E2E5C2E2E5C2E2E5C2E2E31
:10B950005C636F6D706F6E656E74735C626C655C5A
:10B96000636F6D6D6F6E5C626C655F636F6E6E5F53
:10B9700073746174652E6300A43E002070B58EB0B0
:10B9800004460E463E4B0FCB09AD0FC500BF14B9A0
:10B990000E200EB070BD00BF00BF0EB90E20F8E73C
:10B9A00000BF3068A061214609A862DF054600BFDC
:10B9B000284600B1EDE700BF20788DF83600012061
:10B9C000ADF83400A21C0DA9A8DF054600BF28462B
:10B9D00000B1DEE700BF202101A8FBF77EFD0220B9
:10B9E000ADF8040020788DF80600F420ADF80800CA
:10B9F0000120ADF80A008DF810009DF8110020F02C
:10BA0000080008308DF811009DF8110020F00400A6
:10BA1000001D8DF8110001208DF815008DF816001D
:10BA2000608804F10C0201A900F02AF905460DB165
:10BA30002846AEE7202101A8FBF74FFD0320ADF813
:10BA4000040020788DF80600F420ADF808000120ED
:10BA5000ADF80A008DF810009DF8110020F01000DC
:10BA600010308DF8110001208DF815008DF81600AA
:10BA70008DF817006088221D01A900F001F988E700
:10BA8000B42D030070B504460D4605B104B970BD70
:10BA90002E462088102804D0502807D057280FD1D0
:10BAA00009E02146304604F063FF0AE021463046B3
:10BAB00005F01CFA05E02146304605F011F900E0DA
:10BAC00000BF00BF00BFE2E770B50446204606F0A5
:10BAD0002DFF054605F0010070BD000030B503469E
:10BAE0000020042B23D2012A07D1012903D103F11D
:10BAF0000E04E4B200E00024224679B1012902D00C
:10BB0000022911D104E003EB43040A4D2A550DE04C
:10BB100003EB4304074D2C44627007E003EB43043E
:10BB2000044D2C44A27001E0072000BF00E0072074
:10BB300030BD0000183E00202DE9FC4704460D46AC
:10BB40001646A71C4FF001080020019001A8FFF73E
:10BB50002DF93048406828602E4840682D49896892
:10BB6000411A2D480068401CA0EB010915E0012195
:10BB70002A4801F0FCFD01F001FB824651462748AE
:10BB800001F0F5FD2348406822498968411A22489E
:10BB90000068401CA0EB010900BF4F45E7D8B8F191
:10BBA000000F30D00021009176B1009921F00301FF
:10BBB000491C0091009921F00401091D0091009990
:10BBC00064F3891100910DE0009921F00301891CB3
:10BBD0000091009921F00401091D0091009964F37E
:10BBE0009F5100910B4949680B4A12681140094A5C
:10BBF0000C3202EB81000099016006494968394422
:10BC00000C3A516000BF9DF80400FFF7D5F840469C
:10BC1000BDE8FC87FC430020B83A0020184800200B
:10BC200070B504460D460A2D03D10D212046FFF7BD
:10BC3000F7FFA168481CA06020684554D4E90110B2
:10BC4000884202D3204602F024FB70BD044880687D
:10BC500003494968884201D1012070470020FCE770
:10BC6000FC4300200146024850F8210070470000C4
:10BC7000283F00200146014840567047583F0020A9
:10BC800070B590B006460C461546A07818B901204C
:10BC90008DF80E0002E0A0788DF80E002088ADF837
:10BCA0000C0000200290607C02A906F0BCF9A07C88
:10BCB0000DF1090106F0B7F9E07B08B1012000E0C1
:10BCC00000209DF80A1060F3C3018DF80A10207C53
:10BCD00008B1012000E000209DF80A1060F3041173
:10BCE0008DF80A10207B08B1012000E000209DF8AB
:10BCF0000A1060F300018DF80A10207D08B10220BF
:10BD000000E001209DF80A1060F342018DF80A104E
:10BD10001C2109A8FBF7E1FB607BC0F3001018B9F8
:10BD2000607BC0F34010F8B100200090E07C0DF182
:10BD3000010106F078F900BF9DF8000020F00F0027
:10BD4000401C8DF800009DF8000020F0F00010303D
:10BD50008DF8000000BF9DF8020020F00600801C56
:10BD60008DF80200CDF838D0607B8DF82400A07BE0
:10BD70008DF82500142104A8FBF7AFFB03A804905D
:10BD800002A80590A088ADF81C00A06820B1E0884A
:10BD9000ADF81800A0680890A069002849D00020DC
:10BDA0000190A0690088ADF82C00A0694088ADF82A
:10BDB0002E00A06940680A9001A80D90A169087B37
:10BDC00001A906F030F9A169487B0DF1050106F0E3
:10BDD0002AF9A069807A08B1012000E000209DF8CE
:10BDE000061060F3C3018DF80610A069C07A08B18F
:10BDF000012000E000209DF8061060F304118DF88A
:10BE00000610A069007A08B1012000E000209DF82A
:10BE1000061060F300018DF80610A069807B08B160
:10BE2000022000E001209DF8061060F342018DF829
:10BE30000610E06908B1E0690C902B4604AA09A934
:10BE40003046AADF10B070BD70B505460DB9094C7B
:10BE500001E0084C083409E0204601F05DF906468F
:10BE600006B904E028467168884700BFF4E700BFC0
:10BE700070BD00001C3F002010B504462CB9012005
:10BE8000064948700020FFF7DFFF012C04D1012094
:10BE900002498870FFF7D8FF10BD0000143F002052
:10BEA0002DE9F047024613468C46D3E90245DCE90A
:10BEB0000267B6EB040877EB050002D30120BDE86A
:10BEC000F0870020FBE701468878012805D191F82A
:10BED0002000012801D1002070470120FCE7024624
:10BEE000002007E0536833F810308B4200D17047D0
:10BEF000431C98B213888342F4DC00BFF7E733B5E4
:10BF00008BB00546002000900C9878B100240BE01F
:10BF100021460CA801F0F8FB28B1009A501C0090B3
:10BF200001A820F81240641C142CF1D32C2269467D
:10BF30002846FBF7B9FA0DB030BD0146088806283F
:10BF400008DB0888B0F5486F06DD08884FF6FF72F9
:10BF5000904201D0072070474888062808DB4888AF
:10BF6000B0F5486F06DD48884FF6FF72904201D069
:10BF70000720F0E708884FF6FF72904208D0488803
:10BF8000904205D008884A88904201DD0720E2E708
:10BF90000020E0E72DE9F04107460D46144698469B
:10BFA0002088801D404502D90C20BDE8F08138462C
:10BFB000FFF7C3FF064600BF304600B1F5E700BFFC
:10BFC0000520218868542088401C20801220218868
:10BFD00068542088401C208022885119388806F037
:10BFE000ABFC21880844208022885119788806F00B
:10BFF000A3FC2188084420800020D6E7F8B5054638
:10C000000C46607A88B9207A10B91048476801E078
:10C010000E4887682A4639466068FEF7B1FD064635
:10C0200016B1304605F0CEFE0EE000202072074823
:10C03000406948B101208DF80000ADF80250034876
:10C0400041696846884700BFF8BD00007C3E00207B
:10C0500010B5012200210846FFF740FD044600BF4D
:10C060001CB1072C01D0204610BD00BF07220221C1
:10C070000120FFF733FD044600BF1CB1072C01D09F
:10C080002046F1E700BF042202210020FFF726FD31
:10C09000044600BF1CB1072C01D02046E4E700BFD6
:10C0A0000020E1E72DE9FF4105460C460020029003
:10C0B0000390ADF80840ADF80A40009001906A4640
:10C0C00002A9284690DF0646002E32D0304603F003
:10C0D0003BFE074619491A4A891AC908012242EA51
:10C0E00001403B462A46174902F080FFBDF8000098
:10C0F00010B9BDF8020068B1BDF80230BDF80020EB
:10C100000E490F4FC91BC908012747EA01400EA17C
:10C1100002F06CFFBDF8040058B1BDF804200749D7
:10C12000074BC91AC908012343EA0140164902F026
:10C1300051FF304604B0BDE8F0810000EC3A030046
:10C14000EC3A03007C320300546865207265717517
:10C1500065737465642054582F5258207061636B66
:10C160006574206C656E67746820697320746F6FE6
:10C17000206C6F6E672062792025752F2575206FE2
:10C1800063746574732E0000C832030070B50646F0
:10C190000D4616B14FF4064070BD287920B1012834
:10C1A00009D0022815D111E002202871284605F097
:10C1B0004BFA044610E0284600F0B8FA044648F26C
:10C1C0000960844201D141F61D5405E041F61D5439
:10C1D00002E048F20E6400BF00BF2046DCE700002A
:10C1E00010B50021034801F0EEFA044684F3100074
:10C1F00010BD00001848002070B505460C464FF4ED
:10C20000803000FA04F1284600F040FA70BD70B5A5
:10C2100005460C464FF4A07000EB840086B2314610
:10C22000284600F04DFA70BD2DE9F04704460D4652
:10C2300016461F464FF4803000FA05F84FF4A07000
:10C2400000EB85001FFA80F926F07F464146206802
:10C2500003F00EFA4146206803F004FA49462068CC
:10C2600003F0F9F932462946206803F0EBF941461C
:10C27000206803F0FAF91FB14146206803F0FBF98A
:10C28000BDE8F08710B50446206803F0E0F910BD62
:10C290002DE9F04704460D4617466079324941F8CA
:10C2A00020706079314901EBC000007968B108263F
:10C2B0002F49304A891AC908022242EA01402EA1B8
:10C2C00002F07EFE3046BDE8F08729882068C0F87D
:10C2D000081500BF94F90420AB78104619460028D1
:10C2E00008DB4FEA417C4FEA1C68DFF8B0C00CF86D
:10C2F00000800BE04FEA417C4FEA1C69DFF8A0C0E8
:10C3000000F00F08A8F104080CF8089000BF00BF67
:10C3100094F90410084600280DDB00BF00BF00F0B0
:10C320001F0301229A4043099B0003F1E023C3F855
:10C33000002100BF00BF00BF00BF012061790B4A90
:10C3400002EBC10108716079114641F830400026C6
:10C350000749084A891AC908032242EA014011A183
:10C3600002F02EFE3046AEE7343A0020383A002084
:10C37000543B0300EC3A030052544320696E73743B
:10C38000616E636520616C726561647920696E69B4
:10C390007469616C697A65642E00000000E400E055
:10C3A00018ED00E05254433A20696E697469616C7B
:10C3B000697A65642E00000010B5014691F9040009
:10C3C000002807DB00F01F0301229A40024B4409BA
:10C3D00043F8242000BF10BD00E200E070B5054620
:10C3E0000C4622460221284600F05CF970BD10B5CB
:10C3F00004464FF48271204600F062F910BD10B57A
:10C4000004460021206803F039F910BD10B5044638
:10C410000421206803F032F910BD2DE9F84F0446DD
:10C420008846154699464FF4803000FA08FA4FF4D2
:10C43000A07000EB88001FFA80FB25F07F45514675
:10C44000204600F023F9206803F001F90646414632
:10C45000206803F0F1F8009032464146206803F06E
:10C46000F1F85946206803F0F6F83146009805F0D7
:10C4700061FF012806D1102003F048FD59462068CD
:10C4800003F0E9F8206803F0E2F806463146284652
:10C4900005F050FF07465146206803F0E6F8012FEB
:10C4A0000FD16A1C4146206803F0CCF8102003F03D
:10C4B0002DFD206803F0CBF8B04225D00D20BDE85B
:10C4C000F88F2A464146206803F0BCF8206803F044
:10C4D000BEF80646681E314605F02CFF07466FF091
:10C4E0007F40A0EB0900B84201D20D20E7E75FB919
:10C4F0006A1C4146206803F0A5F8206803F0A7F8FD
:10C50000B04201D00D20DAE701225146204600F06A
:10C51000C9F80020D3E700002DE9F84305460E4690
:10C520001746984669461048006801F0A6F8044688
:10C5300014B90420BDE8F8831C212046FAF7CDFF8A
:10C54000012020712560C4F8088008480068B6FB07
:10C55000F0F0E060676169460348006801F0B7F8F1
:10C5600004F0E0FF0020E5E71C2F0300102F03007C
:10C5700010B50446D4E90321501828DF10BD027815
:10C58000072A38D2DFE802F037040712222B3400E2
:10C5900000220A7030E001220A7003898B818388AF
:10C5A000CB81C2688A6000230B7425E002220A70E6
:10C5B00003898B818388CB81C2688A60827D062A49
:10C5C00001D1012300E000230B7415E003220A705F
:10C5D000C3888B810389CB81C2688A600CE0042206
:10C5E0000A70C3888B810023CB8100228A6003E01C
:10C5F00005220A7000E000BF00BF704770B5054615
:10C60000002409E0064850F8240020B1044850F8FE
:10C61000241028468847641C042CF3D370BD000006
:10C620009840002030B587B004460D4620688068E9
:10C6300008B907B030BD182101A8FAF74EFF0295DE
:10C64000A0680690207910B1012815D109E00120D9
:10C650008DF8040020690390E068049060690590FB
:10C660000BE002208DF804000749E06809684843A0
:10C6700003906069059000E000BF00BF20688168FA
:10C6800001A8884700BFD4E7102F030070B5044607
:10C690000D462946206802F0E5FF2946206802F091
:10C6A000E7FF70BD70B504460E461546314620685A
:10C6B00002F0DBFF1DB13146206802F0DCFF70BDE7
:10C6C00070B505460C462868015929B121462868ED
:10C6D00002F0C1FF012070BD0020FCE770B50446E8
:10C6E0000D462A460021204600F00EF8A068401CA6
:10C6F000A06070BD01468A68C868801A704701460C
:10C700008A68C868801A704710B583680B448488AB
:10C7100023400468E35C137010BDC26883881A402C
:10C7200003689954C268521CC26070473EB5044603
:10C730000A4B6A460021A01D04F03CFF054635B9AE
:10C74000064A9188019805F017F8054603E003486A
:10C7500000210160416028463EBD00005C3A002097
:10C7600070B505460E46144624B13146284600F001
:10C77000DAFF03E03146284600F0B7FF70BD30B560
:10C7800004461088C01C984201D90C2030BD0220FC
:10C79000158848551088401C108001201588485580
:10C7A0001088401C108015884C551088401C108043
:10C7B0000020EBE770B504460D4640F21442115BD1
:10C7C0000122D4F81004FEF7F2FC064606B13570DB
:10C7D00004F13C0204F5826104F1540072DF70BD83
:10C7E00010B50446606804F0F3FD10BD70B5064650
:10C7F0000C4604F11005E888022801DD092070BD0F
:10C80000E988304602F06CFD6060606808B9042079
:10C81000F5E7EA88A9680023606802F0ECFD0020D3
:10C82000EDE770B506460C4604F11005A8680088CF
:10C83000102801DD092070BDA8680088811C3046E1
:10C8400002F04EFD6060606808B90420F3E7A96853
:10C8500000230222606802F0CEFDAB681A88E96806
:10C860000223606802F0C7FD0020E4E770B50546CA
:10C8700015B14FF4064070BD1848007B18B1002078
:10C880001649087301E000F0DFF814480078082822
:10C890001DD2DFE800F01C04080C101C141800F076
:10C8A0003FF8044616E000F0BDF8044612E000F040
:10C8B00099F804460EE000F047F804460AE000F05C
:10C8C00035F9044606E000F043F9044602E048F278
:10C8D0000E6400BF00BF2046CDE700006C41002081
:10C8E0000D480089401C0C490881002048800873CD
:10C8F00000BF0DE000EB8001084A12F8211009B9D1
:10C90000012200E0002204490A310A54411C88B285
:10C910000228EFDB704700006C41002044410020FA
:10C9200010B5084800F036F840B900200549891EC6
:10C9300008704880486041F61D5010BD00F072F844
:10C94000FBE700006E41002070B50F48458805EBFD
:10C9500085000E4901EB8000C06878B904200A49BF
:10C96000087005EB8500094A02EB800000230122D4
:10C970004168074801F094FD044602E000F090F899
:10C980000446204670BD00006C4100204441002058
:10C99000C43D002010B501460022002018E00F4BD6
:10C9A0001B5C9BB100240D4B1C5400EB80030C4C12
:10C9B00004EB8303DB684BB900EB800304EB8303D8
:10C9C0001B7C012B02D10880012203E0431C98B29A
:10C9D0000228E4DB00BF104610BD000076410020B5
:10C9E00044410020F8B50C4844680C4800680B49E5
:10C9F000898800EB81056088C01C86B20320064947
:10CA000008700020B3000090084629464268044898
:10CA100001F068FEF8BD00006C410020543A00208F
:10CA2000C43D002010B507494888091D04F068FE80
:10CA300018B1FFF7D7FF044602E0FFF785FF044671
:10CA4000204610BD6C41002010B51448007808281D
:10CA500020D2DFE800F0041F1F0A1016171BFFF793
:10CA60003FFF01200D49087015E000F07DF802201D
:10CA70000A4908700FE000F029F8062007490870FD
:10CA800009E000BF07200549087004E001200349C0
:10CA9000087000E000BF00BF10BD00006C41002026
:10CAA00010B505200649087002200649888008460E
:10CAB000002301220168044801F0F2FC10BD0000CF
:10CAC0006C410020543A0020C43D002014490868FD
:10CAD0001449498801EB8101134A02EB810149683D
